{"abi":[{"type":"constructor","inputs":[{"name":"_world","type":"address","internalType":"contract IWorld"},{"name":"_components","type":"address","internalType":"address"}],"stateMutability":"nonpayable"},{"type":"function","name":"_getTraitStats","inputs":[{"name":"id","type":"uint256","internalType":"uint256"}],"outputs":[{"name":"","type":"tuple","internalType":"struct TraitStats","components":[{"name":"health","type":"int32","internalType":"int32"},{"name":"power","type":"int32","internalType":"int32"},{"name":"violence","type":"int32","internalType":"int32"},{"name":"harmony","type":"int32","internalType":"int32"},{"name":"slots","type":"int32","internalType":"int32"}]}],"stateMutability":"view"},{"type":"function","name":"batchMint","inputs":[{"name":"amount","type":"uint256","internalType":"uint256"}],"outputs":[{"name":"","type":"uint256[]","internalType":"uint256[]"}],"stateMutability":"nonpayable"},{"type":"function","name":"cancelOwnershipHandover","inputs":[],"outputs":[],"stateMutability":"payable"},{"type":"function","name":"completeOwnershipHandover","inputs":[{"name":"pendingOwner","type":"address","internalType":"address"}],"outputs":[],"stateMutability":"payable"},{"type":"function","name":"deprecate","inputs":[],"outputs":[],"stateMutability":"nonpayable"},{"type":"function","name":"execute","inputs":[{"name":"arguments","type":"bytes","internalType":"bytes"}],"outputs":[{"name":"","type":"bytes","internalType":"bytes"}],"stateMutability":"nonpayable"},{"type":"function","name":"owner","inputs":[],"outputs":[{"name":"result","type":"address","internalType":"address"}],"stateMutability":"view"},{"type":"function","name":"ownershipHandoverExpiresAt","inputs":[{"name":"pendingOwner","type":"address","internalType":"address"}],"outputs":[{"name":"result","type":"uint256","internalType":"uint256"}],"stateMutability":"view"},{"type":"function","name":"renounceOwnership","inputs":[],"outputs":[],"stateMutability":"payable"},{"type":"function","name":"requestOwnershipHandover","inputs":[],"outputs":[],"stateMutability":"payable"},{"type":"function","name":"setTraits","inputs":[],"outputs":[],"stateMutability":"nonpayable"},{"type":"function","name":"transferOwnership","inputs":[{"name":"newOwner","type":"address","internalType":"address"}],"outputs":[],"stateMutability":"payable"},{"type":"event","name":"OwnershipHandoverCanceled","inputs":[{"name":"pendingOwner","type":"address","indexed":true,"internalType":"address"}],"anonymous":false},{"type":"event","name":"OwnershipHandoverRequested","inputs":[{"name":"pendingOwner","type":"address","indexed":true,"internalType":"address"}],"anonymous":false},{"type":"event","name":"OwnershipTransferred","inputs":[{"name":"oldOwner","type":"address","indexed":true,"internalType":"address"},{"name":"newOwner","type":"address","indexed":true,"internalType":"address"}],"anonymous":false},{"type":"event","name":"SystemDeprecated","inputs":[],"anonymous":false},{"type":"error","name":"AlreadyInitialized","inputs":[]},{"type":"error","name":"NewOwnerIsZeroAddress","inputs":[]},{"type":"error","name":"NoHandoverRequest","inputs":[]},{"type":"error","name":"Unauthorized","inputs":[]}],"bytecode":{"object":"0x6103e06040523480156200001257600080fd5b5060405162005013380380620050138339810160408190526200003591620007d9565b80828162000043336200068a565b6001600160a01b038116156200005a5780620000bf565b816001600160a01b031663ba62fbe46040518163ffffffff1660e01b8152600401602060405180830381865afa15801562000099573d6000803e3d6000fd5b505050506040513d601f19601f82011682018060405250810190620000bf919062000818565b6001600160a01b0390811660805291821660a05250811660c081905262000107907f7e27420aa87c5cbb18c784ab6d5674344bec224f17946d4670418a9ad61a8fa5620006c7565b6001600160a01b03166101005260c05162000143907fb67326ca4d9276389479ad92732df89fdb51a6722bcc762224a361d37e6a44cf620006c7565b6001600160a01b031660e05260c0516200017e907f9ec7fdb312cfd917b9499405d9619afea82cbe7bc994a6d9b97aa4a29d95cba4620006c7565b6001600160a01b03166101205260c051620001ba907f3bcf9f91d55a1da72cd97d60b22f351bd7b605705fcb526dbf324094ea34be3c620006c7565b6001600160a01b03166101405260c051620001f6907ffc3224e0c88a32d827dec77db300ba465decc407b22c4ff1e3dd50db23a15bb6620006c7565b6001600160a01b03166101605260c05162000232907f7f11100822994501b15df98b1bd24b3eb0d73863f512da0bf8f165b0150c537d620006c7565b6001600160a01b03166101805260c0516200026e907f036642765aca64d0dc0aa7a1a5b293901589aec219fb89c7c5e7c042e927386c620006c7565b6001600160a01b03166101a05260c051620002aa907f9d3e17e61f5f07f24e173edb93a8af1d5b797396ea02343c0feee16bdf497d4f620006c7565b6001600160a01b03166101c05260c051620002e6907f5b5054d7f0fe411d96cb1c9605f65b42805d28ce5bb4ce216455e888cdc5373c620006c7565b6001600160a01b03166101e05260c05162000322907f3e4a46df40b228c2d9f3b8ddde72a1c29045de822f058698341c5adb1d02f17d620006c7565b6001600160a01b03166102005260c0516200035e907f93024875aa0a44d01beef81e003ceec9279e2577bf5f95578dfbb508d780b6c6620006c7565b6001600160a01b0316610220525043156200038657620003806001436200083f565b62000389565b60005b60408051914060208301520160408051601f19818403018152919052805160209091012061024052608051620003e0907fdb1228220c36234210e3f04b6ac039f5d81c4d6d81f43d9b4a9d70c4d5bcfac1620006c7565b6001600160a01b0316610260526080516200041c907f5d88ced8d8e079072bf73f49fc87661b519c50d79482941abb852ba2b10909cd620006c7565b6001600160a01b03166102805260805162000458907fcd6257c5a7fd5523bf675476a783746b8e1aed9c92992221af0f776ac5562b34620006c7565b6001600160a01b03166102a05260805162000494907f4683ab681c8fb08ca17959d67c914890fbdf5a6fce1f72e885b7a2ebe6856afd620006c7565b6001600160a01b03166102c052608051620004d0907f2acf3c3c6b18ed6530ed0fd161fd0b65f4febe79d1182824d3263e852d29ca03620006c7565b6001600160a01b03166102e0526080516200050c907f3630e5d2b4dfc42bb69d52e4eef89343acb69d5153f64efe5860a680a55082e7620006c7565b6001600160a01b03166103005260805162000548907f9ee42634d52dbd5a24ad226010389fb7306af59bdaec5e20547162dd896dacad620006c7565b6001600160a01b03166103205260805162000584907f342adee7430e96bca6f5d4fe57ba5155dc7271000494e77110c292d51ae887fa620006c7565b6001600160a01b031661034052608051620005c0907ff8911dfd3f908e7a27ff20b80381dc7334f6abc557cdd58de4a9bfb47ebde734620006c7565b6001600160a01b031661036052608051620005fc907ff751b4a95c9cfabe52899e09ae113eac17e41cc0cc2dad670d2789ecc1251add620006c7565b6001600160a01b03166103805260805162000638907fa9cdfb538e696edc6dbd04076226eae5d97822d1205fdc5bffebbd98741fdafa620006c7565b6001600160a01b03166103a05260805162000674907fb25ea67b55901db62e4b14311a8c1ab178fec3948b4b493a711970a50aa2a2e1620006c7565b6001600160a01b03166103c05250620009569050565b6001600160a01b0316638b78c6d8198190558060007f8be0079c531659141344cd1fd0a4f28419497f9722a3daafe3b4186f6b6457e08180a35b50565b604051637defd0f560e11b81526004810182905260009081906001600160a01b0385169063fbdfa1ea90602401600060405180830381865afa15801562000712573d6000803e3d6000fd5b505050506040513d6000823e601f3d908101601f191682016040526200073c919081019062000877565b90508051600003620007885760405162461bcd60e51b81526020600482015260116024820152701a59081b9bdd081c9959da5cdd195c9959607a1b604482015260640160405180910390fd5b620007b681600081518110620007a257620007a262000940565b6020026020010151620007c060201b60201c565b9150505b92915050565b90565b6001600160a01b0381168114620006c457600080fd5b60008060408385031215620007ed57600080fd5b8251620007fa81620007c3565b60208401519092506200080d81620007c3565b809150509250929050565b6000602082840312156200082b57600080fd5b81516200083881620007c3565b9392505050565b81810381811115620007ba57634e487b7160e01b600052601160045260246000fd5b634e487b7160e01b600052604160045260246000fd5b600060208083850312156200088b57600080fd5b82516001600160401b0380821115620008a357600080fd5b818501915085601f830112620008b857600080fd5b815181811115620008cd57620008cd62000861565b8060051b604051601f19603f83011681018181108582111715620008f557620008f562000861565b6040529182528482019250838101850191888311156200091457600080fd5b938501935b82851015620009345784518452938501939285019262000919565b98975050505050505050565b634e487b7160e01b600052603260045260246000fd5b60805160a05160c05160e05161010051610120516101405161016051610180516101a0516101c0516101e05161020051610220516102405161026051610280516102a0516102c0516102e05161030051610320516103405161036051610380516103a0516103c05161450062000b136000396000505060006116d60152600061162f01526000611588015260006114e10152600061143b0152600061139f0152600061125001526000611a47015260006111db015260008181610efb015261113a015260008181610490015261105b0152600061176a0152600081816123740152612436015260008181610b9c01528181610c5001526132ef015260008181610a3501528181610ae901526131fb0152600081816108ce01528181610982015261310b0152600081816107670152818161081b015261301d0152600081816105e6015281816106b40152612f30015260008181611e220152612b10015260008181611db40152612a5a015260008181611f6c0152612d32015260008181611efe0152612c7c015260008181611e900152612bc6015260006121aa015260005050600081816103ed015281816117920152611c2e01526145006000f3fe6080604052600436106100c75760003560e01c80638da5cb5b11610074578063f04e283e1161004e578063f04e283e14610238578063f2fde38b1461024b578063fee81cf41461025e57600080fd5b80638da5cb5b1461015e578063c061a3b5146101b2578063c4908186146101c757600080fd5b806354d1f13d116100a557806354d1f13d14610121578063715018a6146101295780638467be0d1461013157600080fd5b806309c5eabe146100cc5780630fcc0c28146101025780632569296214610119575b600080fd5b3480156100d857600080fd5b506100ec6100e7366004613ec4565b61029f565b6040516100f99190613fe5565b60405180910390f35b34801561010e57600080fd5b50610117610309565b005b61011761033c565b61011761038c565b6101176103c8565b34801561013d57600080fd5b5061015161014c366004613ff8565b6103dc565b6040516100f9919061404c565b34801561016a57600080fd5b507fffffffffffffffffffffffffffffffffffffffffffffffffffffffff748739275460405173ffffffffffffffffffffffffffffffffffffffff90911681526020016100f9565b3480156101be57600080fd5b506101176105a1565b3480156101d357600080fd5b506101e76101e2366004613ff8565b6105b1565b6040516100f99190600060a082019050825160030b8252602083015160030b6020830152604083015160030b6040830152606083015160030b6060830152608083015160030b608083015292915050565b61011761024636600461405f565b610d0c565b61011761025936600461405f565b610d4c565b34801561026a57600080fd5b5061029161027936600461405f565b63389a75e1600c908152600091909152602090205490565b6040519081526020016100f9565b6040517f08c379a000000000000000000000000000000000000000000000000000000000815260206004820152600f60248201527f6e6f7420696d706c656d656e746564000000000000000000000000000000000060448201526060906064015b60405180910390fd5b610311610d73565b6040517f56f33501ffd77f9fe44d81e7db7e66a66bdf52ab3e11267cdc6462763604c4c790600090a1565b60006202a30067ffffffffffffffff164201905063389a75e1600c5233600052806020600c2055337fdbf36a107da19e49527a7176a1babf963b4b0ff8cde35ee35d6cd8f1f9ac7e1d600080a250565b63389a75e1600c523360005260006020600c2055337ffa7b8eab7da67f412cc9575ed43464468f9bfbae89d1675917346ca6d8fe3c92600080a2565b6103d0610d73565b6103da6000610da9565b565b60606103e6610d73565b60006104117f0000000000000000000000000000000000000000000000000000000000000000610e0f565b73ffffffffffffffffffffffffffffffffffffffff166318160ddd6040518163ffffffff1660e01b8152600401602060405180830381865afa15801561045b573d6000803e3d6000fd5b505050506040513d601f19601f8201168201806040525081019061047f9190614095565b61048a9060016140dd565b905060007f000000000000000000000000000000000000000000000000000000000000000073ffffffffffffffffffffffffffffffffffffffff16631c5ee10c7f18ac393894b04bf0dc7b9ae83e6c1c711470d561c5c6854886ce180de65e1c1c60001c60405160200161050091815260200190565b6040516020818303038152906040526040518263ffffffff1660e01b815260040161052b9190613fe5565b602060405180830381865afa158015610548573d6000803e3d6000fd5b505050506040513d601f19601f8201168201806040525081019061056c9190614095565b9050600061057b838387610e58565b90506105878186611766565b6105978363ffffffff1686611b9b565b925050505b919050565b6105a9610d73565b6103da611cd7565b6040805160a08101825260008082526020820181905291810182905260608101829052608081019190915260008060008060007f000000000000000000000000000000000000000000000000000000000000000073ffffffffffffffffffffffffffffffffffffffff1663cccf7a8e886040518263ffffffff1660e01b815260040161063f91815260200190565b602060405180830381865afa15801561065c573d6000803e3d6000fd5b505050506040513d601f19601f820116820180604052508101906106809190614101565b15610738576040517f9507d39a000000000000000000000000000000000000000000000000000000008152600481018890527f000000000000000000000000000000000000000000000000000000000000000073ffffffffffffffffffffffffffffffffffffffff1690639507d39a90602401608060405180830381865afa158015610710573d6000803e3d6000fd5b505050506040513d601f19601f820116820180604052508101906107349190614135565b5194505b6040517fcccf7a8e000000000000000000000000000000000000000000000000000000008152600481018890527f000000000000000000000000000000000000000000000000000000000000000073ffffffffffffffffffffffffffffffffffffffff169063cccf7a8e90602401602060405180830381865afa1580156107c3573d6000803e3d6000fd5b505050506040513d601f19601f820116820180604052508101906107e79190614101565b1561089f576040517f9507d39a000000000000000000000000000000000000000000000000000000008152600481018890527f000000000000000000000000000000000000000000000000000000000000000073ffffffffffffffffffffffffffffffffffffffff1690639507d39a90602401608060405180830381865afa158015610877573d6000803e3d6000fd5b505050506040513d601f19601f8201168201806040525081019061089b9190614135565b5193505b6040517fcccf7a8e000000000000000000000000000000000000000000000000000000008152600481018890527f000000000000000000000000000000000000000000000000000000000000000073ffffffffffffffffffffffffffffffffffffffff169063cccf7a8e90602401602060405180830381865afa15801561092a573d6000803e3d6000fd5b505050506040513d601f19601f8201168201806040525081019061094e9190614101565b15610a06576040517f9507d39a000000000000000000000000000000000000000000000000000000008152600481018890527f000000000000000000000000000000000000000000000000000000000000000073ffffffffffffffffffffffffffffffffffffffff1690639507d39a90602401608060405180830381865afa1580156109de573d6000803e3d6000fd5b505050506040513d601f19601f82011682018060405250810190610a029190614135565b5192505b6040517fcccf7a8e000000000000000000000000000000000000000000000000000000008152600481018890527f000000000000000000000000000000000000000000000000000000000000000073ffffffffffffffffffffffffffffffffffffffff169063cccf7a8e90602401602060405180830381865afa158015610a91573d6000803e3d6000fd5b505050506040513d601f19601f82011682018060405250810190610ab59190614101565b15610b6d576040517f9507d39a000000000000000000000000000000000000000000000000000000008152600481018890527f000000000000000000000000000000000000000000000000000000000000000073ffffffffffffffffffffffffffffffffffffffff1690639507d39a90602401608060405180830381865afa158015610b45573d6000803e3d6000fd5b505050506040513d601f19601f82011682018060405250810190610b699190614135565b5191505b6040517fcccf7a8e000000000000000000000000000000000000000000000000000000008152600481018890527f000000000000000000000000000000000000000000000000000000000000000073ffffffffffffffffffffffffffffffffffffffff169063cccf7a8e90602401602060405180830381865afa158015610bf8573d6000803e3d6000fd5b505050506040513d601f19601f82011682018060405250810190610c1c9190614101565b15610cd4576040517f9507d39a000000000000000000000000000000000000000000000000000000008152600481018890527f000000000000000000000000000000000000000000000000000000000000000073ffffffffffffffffffffffffffffffffffffffff1690639507d39a90602401608060405180830381865afa158015610cac573d6000803e3d6000fd5b505050506040513d601f19601f82011682018060405250810190610cd09190614135565b5190505b6040805160a081018252600396870b815294860b602086015292850b92840192909252830b606083015290910b608082015292915050565b610d14610d73565b63389a75e1600c52806000526020600c208054421115610d3c57636f5e88186000526004601cfd5b60009055610d4981610da9565b50565b610d54610d73565b8060601b610d6a57637448fbae6000526004601cfd5b610d4981610da9565b7fffffffffffffffffffffffffffffffffffffffffffffffffffffffff748739275433146103da576382b429006000526004601cfd5b7fffffffffffffffffffffffffffffffffffffffffffffffffffffffff74873927805473ffffffffffffffffffffffffffffffffffffffff9092169182907f8be0079c531659141344cd1fd0a4f28419497f9722a3daafe3b4186f6b6457e0600080a355565b600080610e51836040518060400160405280600f81526020017f4b414d493732315f4144445245535300000000000000000000000000000000008152506127db565b9392505050565b60608167ffffffffffffffff811115610e7357610e73613e46565b604051908082528060200260200182016040528015610e9c578160200160208202803683370190505b50905060005b828163ffffffff16101561175e576000610ebc82876140dd565b90506000610ec9826127fd565b6040517fcccf7a8e000000000000000000000000000000000000000000000000000000008152600481018290529091507f000000000000000000000000000000000000000000000000000000000000000073ffffffffffffffffffffffffffffffffffffffff169063cccf7a8e90602401602060405180830381865afa158015610f57573d6000803e3d6000fd5b505050506040513d601f19601f82011682018060405250810190610f7b9190614101565b15610fe2576040517f08c379a000000000000000000000000000000000000000000000000000000000815260206004820152601c60248201527f62617463684d696e743a20696420616c726561647920657869737473000000006044820152606401610300565b80848463ffffffff1681518110610ffb57610ffb6141b2565b60209081029190910101526040517f1ab06ee5000000000000000000000000000000000000000000000000000000008152600481018290527f18ac393894b04bf0dc7b9ae83e6c1c711470d561c5c6854886ce180de65e1c1c60248201527f000000000000000000000000000000000000000000000000000000000000000073ffffffffffffffffffffffffffffffffffffffff1690631ab06ee590604401600060405180830381600087803b1580156110b457600080fd5b505af11580156110c8573d6000803e3d6000fd5b505060408051808201825260048082527f4b414d4900000000000000000000000000000000000000000000000000000000602083015291517f6437197700000000000000000000000000000000000000000000000000000000815273ffffffffffffffffffffffffffffffffffffffff7f00000000000000000000000000000000000000000000000000000000000000001694506364371977935061117092869291016141e1565b600060405180830381600087803b15801561118a57600080fd5b505af115801561119e573d6000803e3d6000fd5b50506040517fd923c3c40000000000000000000000000000000000000000000000000000000081526004810184905263ffffffff851660248201527f000000000000000000000000000000000000000000000000000000000000000073ffffffffffffffffffffffffffffffffffffffff16925063d923c3c49150604401600060405180830381600087803b15801561123657600080fd5b505af115801561124a573d6000803e3d6000fd5b505050507f000000000000000000000000000000000000000000000000000000000000000073ffffffffffffffffffffffffffffffffffffffff166364371977826112e36040518060400160405280600b81526020017f6b616d69676f74636869200000000000000000000000000000000000000000008152506112de888d6112d391906140dd565b63ffffffff16612895565b6128f7565b6040518363ffffffff1660e01b81526004016113009291906141e1565b600060405180830381600087803b15801561131a57600080fd5b505af115801561132e573d6000803e3d6000fd5b5050604080518082018252600781527f52455354494e4700000000000000000000000000000000000000000000000000602082015290517f6437197700000000000000000000000000000000000000000000000000000000815273ffffffffffffffffffffffffffffffffffffffff7f0000000000000000000000000000000000000000000000000000000000000000169350636437197792506113d69185916004016141e1565b600060405180830381600087803b1580156113f057600080fd5b505af1158015611404573d6000803e3d6000fd5b50506040517f1ab06ee5000000000000000000000000000000000000000000000000000000008152600481018490524260248201527f000000000000000000000000000000000000000000000000000000000000000073ffffffffffffffffffffffffffffffffffffffff169250631ab06ee59150604401600060405180830381600087803b15801561149657600080fd5b505af11580156114aa573d6000803e3d6000fd5b50506040517f1ab06ee5000000000000000000000000000000000000000000000000000000008152600481018490524260248201527f000000000000000000000000000000000000000000000000000000000000000073ffffffffffffffffffffffffffffffffffffffff169250631ab06ee59150604401600060405180830381600087803b15801561153c57600080fd5b505af1158015611550573d6000803e3d6000fd5b50506040517f1ab06ee500000000000000000000000000000000000000000000000000000000815260048101849052600160248201527f000000000000000000000000000000000000000000000000000000000000000073ffffffffffffffffffffffffffffffffffffffff169250631ab06ee59150604401600060405180830381600087803b1580156115e357600080fd5b505af11580156115f7573d6000803e3d6000fd5b50506040517f1ab06ee500000000000000000000000000000000000000000000000000000000815260048101849052600060248201527f000000000000000000000000000000000000000000000000000000000000000073ffffffffffffffffffffffffffffffffffffffff169250631ab06ee59150604401600060405180830381600087803b15801561168a57600080fd5b505af115801561169e573d6000803e3d6000fd5b50506040517f1ab06ee500000000000000000000000000000000000000000000000000000000815260048101849052600160248201527f000000000000000000000000000000000000000000000000000000000000000073ffffffffffffffffffffffffffffffffffffffff169250631ab06ee59150604401600060405180830381600087803b15801561173157600080fd5b505af1158015611745573d6000803e3d6000fd5b505050505050808061175690614202565b915050610ea2565b509392505050565b60007f0000000000000000000000000000000000000000000000000000000000000000905060006117ec7f00000000000000000000000000000000000000000000000000000000000000006040518060400160405280600881526020017f424153455f555249000000000000000000000000000000000000000000000000815250612970565b9050600080805480602002602001604051908101604052809291908181526020016000905b8282101561191f5783829060005260206000209060020201604051806040016040529081600082018054806020026020016040519081016040528092919081815260200182805480156118af57602002820191906000526020600020906000905b82829054906101000a900463ffffffff1663ffffffff16815260200190600401906020826003010492830192600103820291508084116118725790505b505050505081526020016001820180548060200260200160405190810160405280929190818152602001828054801561190757602002820191906000526020600020905b8154815260200190600101908083116118f3575b50505050508152505081526020019060010190611811565b50505050905060006001805480602002602001604051908101604052809291908181526020016000905b828210156119d45760008481526020908190206040805160a08101825291850154600381810b84526401000000008204810b84860152680100000000000000008204810b928401929092526c010000000000000000000000008104820b60608401527001000000000000000000000000000000009004900b6080820152825260019092019101611949565b50505050905060006119eb60025460056020612989565b905060005b86811015611b91576000611a1e878a8481518110611a1057611a106141b2565b602002602001015187612a47565b9050611a45898381518110611a3557611a356141b2565b6020026020010151828587612def565b7f000000000000000000000000000000000000000000000000000000000000000073ffffffffffffffffffffffffffffffffffffffff1663643719778a8481518110611a9357611a936141b2565b6020026020010151611b2e611add8a6040518060400160405280600181526020017f2f000000000000000000000000000000000000000000000000000000000000008152506128f7565b6112de611af3611aee88600861336a565b612895565b6040518060400160405280600481526020017f2e676966000000000000000000000000000000000000000000000000000000008152506128f7565b6040518363ffffffff1660e01b8152600401611b4b9291906141e1565b600060405180830381600087803b158015611b6557600080fd5b505af1158015611b79573d6000803e3d6000fd5b50505050508080611b8990614225565b9150506119f0565b5050505050505050565b60008167ffffffffffffffff811115611bb657611bb6613e46565b604051908082528060200260200182016040528015611bdf578160200160208202803683370190505b50905060005b82811015611c2657611bf7818561425d565b828281518110611c0957611c096141b2565b602090810291909101015280611c1e81614225565b915050611be5565b506000611c527f0000000000000000000000000000000000000000000000000000000000000000610e0f565b6040517f75ceb34100000000000000000000000000000000000000000000000000000000815290915073ffffffffffffffffffffffffffffffffffffffff8216906375ceb34190611ca99084908690600401614270565b600060405180830381600087803b158015611cc357600080fd5b505af1158015611b91573d6000803e3d6000fd5b60005415611d41576040517f08c379a000000000000000000000000000000000000000000000000000000000815260206004820152600b60248201527f616c7265616479207365740000000000000000000000000000000000000000006044820152606401610300565b60408051600580825260c082019092526000916020820160a080368337019050509050600081600081518110611d7957611d796141b2565b63ffffffff9290921660209283029190910182015260408051600580825260c08201909252600092909190820160a0803683370190505090507f000000000000000000000000000000000000000000000000000000000000000081600081518110611de657611de66141b2565b602002602001019073ffffffffffffffffffffffffffffffffffffffff16908173ffffffffffffffffffffffffffffffffffffffff16815250507f000000000000000000000000000000000000000000000000000000000000000081600181518110611e5457611e546141b2565b602002602001019073ffffffffffffffffffffffffffffffffffffffff16908173ffffffffffffffffffffffffffffffffffffffff16815250507f000000000000000000000000000000000000000000000000000000000000000081600281518110611ec257611ec26141b2565b602002602001019073ffffffffffffffffffffffffffffffffffffffff16908173ffffffffffffffffffffffffffffffffffffffff16815250507f000000000000000000000000000000000000000000000000000000000000000081600381518110611f3057611f306141b2565b602002602001019073ffffffffffffffffffffffffffffffffffffffff16908173ffffffffffffffffffffffffffffffffffffffff16815250507f000000000000000000000000000000000000000000000000000000000000000081600481518110611f9e57611f9e6141b2565b73ffffffffffffffffffffffffffffffffffffffff929092166020928302919091019091015260408051600580825260c08201909252600091816020015b6060815260200190600190039081611fdc5790505090506040518060400160405280600481526020017f46414345000000000000000000000000000000000000000000000000000000008152508160008151811061203c5761203c6141b2565b60200260200101819052506040518060400160405280600481526020017f48414e440000000000000000000000000000000000000000000000000000000081525081600181518110612090576120906141b2565b60200260200101819052506040518060400160405280600481526020017f424f445900000000000000000000000000000000000000000000000000000000815250816002815181106120e4576120e46141b2565b60200260200101819052506040518060400160405280600a81526020017f4241434b47524f554e440000000000000000000000000000000000000000000081525081600381518110612138576121386141b2565b60200260200101819052506040518060400160405280600581526020017f434f4c4f520000000000000000000000000000000000000000000000000000008152508160048151811061218c5761218c6141b2565b602002602001018190525060005b600581101561275e5760006121e87f00000000000000000000000000000000000000000000000000000000000000008484815181106121db576121db6141b2565b6020026020010151613447565b8051909150600063ffffffff821667ffffffffffffffff81111561220e5761220e613e46565b604051908082528060200260200182016040528015612237578160200160208202803683370190505b50905060008263ffffffff1667ffffffffffffffff81111561225b5761225b613e46565b604051908082528060200260200182016040528015612284578160200160208202803683370190505b50905060005b8363ffffffff16811015612668578786815181106122aa576122aa6141b2565b602002602001015173ffffffffffffffffffffffffffffffffffffffff16639507d39a8683815181106122df576122df6141b2565b60200260200101516040518263ffffffff1660e01b815260040161230591815260200190565b602060405180830381865afa158015612322573d6000803e3d6000fd5b505050506040513d601f19601f82011682018060405250810190612346919061429f565b838281518110612358576123586141b2565b602002602001019063ffffffff16908163ffffffff16815250507f000000000000000000000000000000000000000000000000000000000000000073ffffffffffffffffffffffffffffffffffffffff1663cccf7a8e8683815181106123c0576123c06141b2565b60200260200101516040518263ffffffff1660e01b81526004016123e691815260200190565b602060405180830381865afa158015612403573d6000803e3d6000fd5b505050506040513d601f19601f820116820180604052508101906124279190614101565b6124325760006124f8565b60017f000000000000000000000000000000000000000000000000000000000000000073ffffffffffffffffffffffffffffffffffffffff16639507d39a878481518110612482576124826141b2565b60200260200101516040518263ffffffff1660e01b81526004016124a891815260200190565b602060405180830381865afa1580156124c5573d6000803e3d6000fd5b505050506040513d601f19601f820116820180604052508101906124e99190614095565b6124f391906142c5565b6001901b5b82828151811061250a5761250a6141b2565b602002602001018181525050600161253a86838151811061252d5761252d6141b2565b60200260200101516105b1565b81546001810183556000928352602092839020825191018054938301516040840151606085015160809095015163ffffffff9485167fffffffffffffffffffffffffffffffffffffffffffffffff00000000000000009097169690961764010000000092851692909202919091177fffffffffffffffffffffffffffffffff0000000000000000ffffffffffffffff1668010000000000000000918416919091027fffffffffffffffffffffffffffffffff00000000ffffffffffffffffffffffff16176c0100000000000000000000000093831693909302929092177fffffffffffffffffffffffff00000000ffffffffffffffffffffffffffffffff1670010000000000000000000000000000000091909316029190911790558061266081614225565b91505061228a565b50604080518082019091528281526020808201839052600080546001810182559080528251805160029092027f290decd9548b62a8d60345a988386fc84ba6bc95484008f6362f93160ef3e56301926126c692849290910190613d47565b5060208281015180516126df9260018501920190613df6565b5050506004851015612747578785815181106126fd576126fd6141b2565b60200260200101518361271091906140dd565b8861271c87600161425d565b8151811061272c5761272c6141b2565b602002602001019063ffffffff16908163ffffffff16815250505b50505050808061275690614225565b91505061219a565b506000546127c8576040517f08c379a000000000000000000000000000000000000000000000000000000000815260206004820152601d60248201527f62617463686d696e743a206e6f207472616974732064657465637465640000006044820152606401610300565b6127d383602061336a565b600255505050565b6000806127e7836134cd565b90506127f384826134e0565b9150505b92915050565b6040517f6b616d692e69640000000000000000000000000000000000000000000000000060208201527fffffffff0000000000000000000000000000000000000000000000000000000060e083901b166027820152600090602b015b604080517fffffffffffffffffffffffffffffffffffffffffffffffffffffffffffffffe0818403018152919052805160209091012092915050565b60606080604051019050602081016040526000815280600019835b928101926030600a8206018453600a9004806128b05750508190037fffffffffffffffffffffffffffffffffffffffffffffffffffffffffffffffe0909101908152919050565b60405182517fffffffffffffffffffffffffffffffffffffffffffffffffffffffffffffffe0906020810182165b8581015184820152820180612925575083518184018360208301165b86810151828201528401806129415750506000910183810160208101929092528352603f011660405292915050565b6060600061297d836134cd565b90506127f38482613587565b606060008367ffffffffffffffff8111156129a6576129a6613e46565b6040519080825280602002602001820160405280156129cf578160200160208202803683370190505b50905060005b84811015612a3e576129ea600180861b6142c5565b861682826129f96001896142c5565b612a0391906142c5565b81518110612a1357612a136141b2565b63ffffffff9092166020928302919091019091015294831c9480612a3681614225565b9150506129d5565b50949350505050565b60606000612a5685858561359b565b90507f000000000000000000000000000000000000000000000000000000000000000073ffffffffffffffffffffffffffffffffffffffff1663d923c3c48583600081518110612aa857612aa86141b2565b60200260200101516040518363ffffffff1660e01b8152600401612adc92919091825263ffffffff16602082015260400190565b600060405180830381600087803b158015612af657600080fd5b505af1158015612b0a573d6000803e3d6000fd5b505050507f000000000000000000000000000000000000000000000000000000000000000073ffffffffffffffffffffffffffffffffffffffff1663d923c3c48583600181518110612b5e57612b5e6141b2565b60200260200101516040518363ffffffff1660e01b8152600401612b9292919091825263ffffffff16602082015260400190565b600060405180830381600087803b158015612bac57600080fd5b505af1158015612bc0573d6000803e3d6000fd5b505050507f000000000000000000000000000000000000000000000000000000000000000073ffffffffffffffffffffffffffffffffffffffff1663d923c3c48583600281518110612c1457612c146141b2565b60200260200101516040518363ffffffff1660e01b8152600401612c4892919091825263ffffffff16602082015260400190565b600060405180830381600087803b158015612c6257600080fd5b505af1158015612c76573d6000803e3d6000fd5b505050507f000000000000000000000000000000000000000000000000000000000000000073ffffffffffffffffffffffffffffffffffffffff1663d923c3c48583600381518110612cca57612cca6141b2565b60200260200101516040518363ffffffff1660e01b8152600401612cfe92919091825263ffffffff16602082015260400190565b600060405180830381600087803b158015612d1857600080fd5b505af1158015612d2c573d6000803e3d6000fd5b505050507f000000000000000000000000000000000000000000000000000000000000000073ffffffffffffffffffffffffffffffffffffffff1663d923c3c48583600481518110612d8057612d806141b2565b60200260200101516040518363ffffffff1660e01b8152600401612db492919091825263ffffffff16602082015260400190565b600060405180830381600087803b158015612dce57600080fd5b505af1158015612de2573d6000803e3d6000fd5b5092979650505050505050565b6040805160a08101825260328152600a602082018190529181018290526060810191909152600060808201819052612e28858585613682565b80518351919250908390612e3d9083906142d8565b60030b9052506020808201519083018051612e599083906142d8565b60030b9052506040808201519083018051612e759083906142d8565b60030b9052506060808201519083018051612e919083906142d8565b60030b9052506080808201519083018051612ead9083906142d8565b600390810b909152604080516080810182528551830b81526000602082018181528284019182528751850b6060840190815293517f32e5cc30000000000000000000000000000000000000000000000000000000008152600481018d90529251850b602484015251840b604483015251830b6064820152905190910b60848201527f000000000000000000000000000000000000000000000000000000000000000073ffffffffffffffffffffffffffffffffffffffff1691506332e5cc309060a401600060405180830381600087803b158015612f8a57600080fd5b505af1158015612f9e573d6000803e3d6000fd5b505060408051608081018252602086810151600390810b835260009183018281528385018381526060850193845294517f32e5cc30000000000000000000000000000000000000000000000000000000008152600481018e90529351820b602485015251810b60448401529251830b60648301525190910b60848201527f000000000000000000000000000000000000000000000000000000000000000073ffffffffffffffffffffffffffffffffffffffff1692506332e5cc30915060a401600060405180830381600087803b15801561307857600080fd5b505af115801561308c573d6000803e3d6000fd5b50506040805160808101825285820151600390810b82526000602083018181528385018281526060850192835294517f32e5cc30000000000000000000000000000000000000000000000000000000008152600481018e90529351830b602485015251820b60448401529251810b6064830152915190910b60848201527f000000000000000000000000000000000000000000000000000000000000000073ffffffffffffffffffffffffffffffffffffffff1692506332e5cc30915060a401600060405180830381600087803b15801561316657600080fd5b505af115801561317a573d6000803e3d6000fd5b505060408051608081018252606086810151600390810b835260006020840181815284860182815293850191825294517f32e5cc30000000000000000000000000000000000000000000000000000000008152600481018e90529351820b60248501529351810b60448401529051810b6064830152915190910b60848201527f000000000000000000000000000000000000000000000000000000000000000073ffffffffffffffffffffffffffffffffffffffff1692506332e5cc30915060a401600060405180830381600087803b15801561325657600080fd5b505af115801561326a573d6000803e3d6000fd5b5050604080516080808201835286018051600390810b83526000602084018181528486019182529251820b6060850190815294517f32e5cc30000000000000000000000000000000000000000000000000000000008152600481018e90529351820b60248501529151810b60448401529051810b6064830152915190910b60848201527f000000000000000000000000000000000000000000000000000000000000000073ffffffffffffffffffffffffffffffffffffffff1692506332e5cc30915060a401600060405180830381600087803b15801561334a57600080fd5b505af115801561335e573d6000803e3d6000fd5b50505050505050505050565b60008060005b845181101561175e57613386600180861b6142c5565b858281518110613398576133986141b2565b602002602001015163ffffffff161061340d576040517f08c379a000000000000000000000000000000000000000000000000000000000815260206004820152600e60248201527f6d6178206f766572206c696d69740000000000000000000000000000000000006044820152606401610300565b84818151811061341f5761341f6141b2565b602002602001015163ffffffff168483901b179150808061343f90614225565b915050613370565b60606000613454836137e4565b90506127f3613483857f0e980fab8730829e1930c8cdc024ae35650d9eec12d20425b19fc4ade883178c6137f7565b6134ad867ff70dee74a99a7bf98a6058c2e93635b82826d8267ec7a3a05d2f12dcbf92534d6137f7565b604080516020810186905201604051602081830303815290604052613803565b600081604051602001612859919061431a565b600061350c837fb25ea67b55901db62e4b14311a8c1ab178fec3948b4b493a711970a50aa2a2e1613a6b565b73ffffffffffffffffffffffffffffffffffffffff16639507d39a836040518263ffffffff1660e01b815260040161354691815260200190565b602060405180830381865afa158015613563573d6000803e3d6000fd5b505050506040513d601f19601f82011682018060405250810190610e519190614095565b6060610e5161359684846134e0565b613baf565b60408051600580825260c082019092526060916020820160a08036833701905050905060005b600581101561175e576040805160208101879052908101859052606081018290526000906080016040516020818303038152906040528051906020012060001c9050613648848381518110613618576136186141b2565b602002602001015160000151858481518110613636576136366141b2565b60200260200101516020015183613c06565b83838151811061365a5761365a6141b2565b63ffffffff90921660209283029190910190910152508061367a81614225565b9150506135c1565b6040805160a081018252600080825260208201819052918101829052606081018290526080810191909152506040805160a0810182526000808252602082018190529181018290526060810182905260808101829052905b600581101561175e576000838683815181106136f8576136f86141b2565b6020026020010151868481518110613712576137126141b2565b602002602001015161372491906140dd565b63ffffffff168151811061373a5761373a6141b2565b6020026020010151905080600001518360000181815161375a91906142d8565b60030b90525060208082015190840180516137769083906142d8565b60030b90525060408082015190840180516137929083906142d8565b60030b90525060608082015190840180516137ae9083906142d8565b60030b90525060808082015190840180516137ca9083906142d8565b60030b9052508190506137dc81614225565b9150506136da565b600081604051602001612859919061435f565b6000610e518383613a6b565b606060008473ffffffffffffffffffffffffffffffffffffffff1663b361be46846040518263ffffffff1660e01b81526004016138409190613fe5565b600060405180830381865afa15801561385d573d6000803e3d6000fd5b505050506040513d6000823e601f3d9081017fffffffffffffffffffffffffffffffffffffffffffffffffffffffffffffffe01682016040526138a391908101906143a4565b90506000805b8251811015613991578573ffffffffffffffffffffffffffffffffffffffff1663cccf7a8e8483815181106138e0576138e06141b2565b60200260200101516040518263ffffffff1660e01b815260040161390691815260200190565b602060405180830381865afa158015613923573d6000803e3d6000fd5b505050506040513d601f19601f820116820180604052508101906139479190614101565b1561395e578161395681614225565b92505061397f565b6000838281518110613972576139726141b2565b6020026020010181815250505b8061398981614225565b9150506138a9565b5060008167ffffffffffffffff8111156139ad576139ad613e46565b6040519080825280602002602001820160405280156139d6578160200160208202803683370190505b5090506000805b8451811015613a5e578481815181106139f8576139f86141b2565b6020026020010151600014613a4c57848181518110613a1957613a196141b2565b6020026020010151838380613a2d90614225565b945081518110613a3f57613a3f6141b2565b6020026020010181815250505b80613a5681614225565b9150506139dd565b5090979650505050505050565b6040517ffbdfa1ea00000000000000000000000000000000000000000000000000000000815260048101829052600090819073ffffffffffffffffffffffffffffffffffffffff85169063fbdfa1ea90602401600060405180830381865afa158015613adb573d6000803e3d6000fd5b505050506040513d6000823e601f3d9081017fffffffffffffffffffffffffffffffffffffffffffffffffffffffffffffffe0168201604052613b2191908101906143a4565b90508051600003613b8e576040517f08c379a000000000000000000000000000000000000000000000000000000000815260206004820152601160248201527f6964206e6f7420726567697374657265640000000000000000000000000000006044820152606401610300565b6127f381600081518110613ba457613ba46141b2565b602002602001015190565b60606127f782604051602001613bc791815260200190565b604051602081830303815290604052613bdf9061444a565b60606040519050604081016040526000815281601f82015260008151602083010152919050565b60008060005b8451811015613c4e57848181518110613c2757613c276141b2565b602002602001015182613c3a919061425d565b915080613c4681614225565b915050613c0c565b5084613c5b858386613c7d565b81518110613c6b57613c6b6141b2565b60200260200101519150509392505050565b600080613c8a848461448f565b90506000805b8651811015613ce457868181518110613cab57613cab6141b2565b602002602001015182613cbe919061425d565b915081831015613cd2579250610e51915050565b80613cdc81614225565b915050613c90565b506040517f08c379a000000000000000000000000000000000000000000000000000000000815260206004820152601860248201527f4c696252616e646f6d3a206e6f206974656d20666f756e6400000000000000006044820152606401610300565b82805482825590600052602060002090600701600890048101928215613de65791602002820160005b83821115613db457835183826101000a81548163ffffffff021916908363ffffffff1602179055509260200192600401602081600301049283019260010302613d70565b8015613de45782816101000a81549063ffffffff0219169055600401602081600301049283019260010302613db4565b505b50613df2929150613e31565b5090565b828054828255906000526020600020908101928215613de6579160200282015b82811115613de6578251825591602001919060010190613e16565b5b80821115613df25760008155600101613e32565b7f4e487b7100000000000000000000000000000000000000000000000000000000600052604160045260246000fd5b604051601f82017fffffffffffffffffffffffffffffffffffffffffffffffffffffffffffffffe016810167ffffffffffffffff81118282101715613ebc57613ebc613e46565b604052919050565b60006020808385031215613ed757600080fd5b823567ffffffffffffffff80821115613eef57600080fd5b818501915085601f830112613f0357600080fd5b813581811115613f1557613f15613e46565b613f45847fffffffffffffffffffffffffffffffffffffffffffffffffffffffffffffffe0601f84011601613e75565b91508082528684828501011115613f5b57600080fd5b8084840185840137600090820190930192909252509392505050565b60005b83811015613f92578181015183820152602001613f7a565b50506000910152565b60008151808452613fb3816020860160208601613f77565b601f017fffffffffffffffffffffffffffffffffffffffffffffffffffffffffffffffe0169290920160200192915050565b602081526000610e516020830184613f9b565b60006020828403121561400a57600080fd5b5035919050565b600081518084526020808501945080840160005b8381101561404157815187529582019590820190600101614025565b509495945050505050565b602081526000610e516020830184614011565b60006020828403121561407157600080fd5b813573ffffffffffffffffffffffffffffffffffffffff81168114610e5157600080fd5b6000602082840312156140a757600080fd5b5051919050565b7f4e487b7100000000000000000000000000000000000000000000000000000000600052601160045260246000fd5b63ffffffff8181168382160190808211156140fa576140fa6140ae565b5092915050565b60006020828403121561411357600080fd5b81518015158114610e5157600080fd5b8051600381900b811461059c57600080fd5b60006080828403121561414757600080fd5b6040516080810181811067ffffffffffffffff8211171561416a5761416a613e46565b60405261417683614123565b815261418460208401614123565b602082015261419560408401614123565b60408201526141a660608401614123565b60608201529392505050565b7f4e487b7100000000000000000000000000000000000000000000000000000000600052603260045260246000fd5b8281526040602082015260006141fa6040830184613f9b565b949350505050565b600063ffffffff80831681810361421b5761421b6140ae565b6001019392505050565b60007fffffffffffffffffffffffffffffffffffffffffffffffffffffffffffffffff8203614256576142566140ae565b5060010190565b808201808211156127f7576127f76140ae565b73ffffffffffffffffffffffffffffffffffffffff831681526040602082015260006141fa6040830184614011565b6000602082840312156142b157600080fd5b815163ffffffff81168114610e5157600080fd5b818103818111156127f7576127f76140ae565b600381810b9083900b01637fffffff81137fffffffffffffffffffffffffffffffffffffffffffffffffffffffff80000000821217156127f7576127f76140ae565b7f69732e636f6e6669670000000000000000000000000000000000000000000000815260008251614352816009850160208701613f77565b9190910160090192915050565b7f72656769737472792e74726169742e7479706500000000000000000000000000815260008251614397816013850160208701613f77565b9190910160130192915050565b600060208083850312156143b757600080fd5b825167ffffffffffffffff808211156143cf57600080fd5b818501915085601f8301126143e357600080fd5b8151818111156143f5576143f5613e46565b8060051b9150614406848301613e75565b818152918301840191848101908884111561442057600080fd5b938501935b8385101561443e57845182529385019390850190614425565b98975050505050505050565b80516020808301519190811015614489577fffffffffffffffffffffffffffffffffffffffffffffffffffffffffffffffff8160200360031b1b821691505b50919050565b6000826144c5577f4e487b7100000000000000000000000000000000000000000000000000000000600052601260045260246000fd5b50069056fea2646970667358221220cc2460f3f0f09c55cba90892f215fd308b1a6119507ed6da5d069cd08b3868a964736f6c63430008110033","linkReferences":{}},"methodIdentifiers":{"_getTraitStats(uint256)":"c4908186","batchMint(uint256)":"8467be0d","cancelOwnershipHandover()":"54d1f13d","completeOwnershipHandover(address)":"f04e283e","deprecate()":"0fcc0c28","execute(bytes)":"09c5eabe","owner()":"8da5cb5b","ownershipHandoverExpiresAt(address)":"fee81cf4","renounceOwnership()":"715018a6","requestOwnershipHandover()":"25692962","setTraits()":"c061a3b5","transferOwnership(address)":"f2fde38b"},"id":293}