{"abi":[{"type":"constructor","inputs":[{"name":"_world","type":"address","internalType":"contract IWorld"},{"name":"_components","type":"address","internalType":"address"}],"stateMutability":"nonpayable"},{"type":"function","name":"addRole","inputs":[{"name":"target","type":"address","internalType":"address"},{"name":"role","type":"string","internalType":"string"}],"outputs":[],"stateMutability":"nonpayable"},{"type":"function","name":"cancelOwnershipHandover","inputs":[],"outputs":[],"stateMutability":"payable"},{"type":"function","name":"completeOwnershipHandover","inputs":[{"name":"pendingOwner","type":"address","internalType":"address"}],"outputs":[],"stateMutability":"payable"},{"type":"function","name":"deprecate","inputs":[],"outputs":[],"stateMutability":"nonpayable"},{"type":"function","name":"execute","inputs":[{"name":"arguments","type":"bytes","internalType":"bytes"}],"outputs":[{"name":"","type":"bytes","internalType":"bytes"}],"stateMutability":"nonpayable"},{"type":"function","name":"owner","inputs":[],"outputs":[{"name":"result","type":"address","internalType":"address"}],"stateMutability":"view"},{"type":"function","name":"ownershipHandoverExpiresAt","inputs":[{"name":"pendingOwner","type":"address","internalType":"address"}],"outputs":[{"name":"result","type":"uint256","internalType":"uint256"}],"stateMutability":"view"},{"type":"function","name":"removeRole","inputs":[{"name":"target","type":"address","internalType":"address"},{"name":"role","type":"string","internalType":"string"}],"outputs":[],"stateMutability":"nonpayable"},{"type":"function","name":"renounceOwnership","inputs":[],"outputs":[],"stateMutability":"payable"},{"type":"function","name":"requestOwnershipHandover","inputs":[],"outputs":[],"stateMutability":"payable"},{"type":"function","name":"transferOwnership","inputs":[{"name":"newOwner","type":"address","internalType":"address"}],"outputs":[],"stateMutability":"payable"},{"type":"event","name":"OwnershipHandoverCanceled","inputs":[{"name":"pendingOwner","type":"address","indexed":true,"internalType":"address"}],"anonymous":false},{"type":"event","name":"OwnershipHandoverRequested","inputs":[{"name":"pendingOwner","type":"address","indexed":true,"internalType":"address"}],"anonymous":false},{"type":"event","name":"OwnershipTransferred","inputs":[{"name":"oldOwner","type":"address","indexed":true,"internalType":"address"},{"name":"newOwner","type":"address","indexed":true,"internalType":"address"}],"anonymous":false},{"type":"event","name":"SystemDeprecated","inputs":[],"anonymous":false},{"type":"error","name":"AlreadyInitialized","inputs":[]},{"type":"error","name":"NewOwnerIsZeroAddress","inputs":[]},{"type":"error","name":"NoHandoverRequest","inputs":[]},{"type":"error","name":"Unauthorized","inputs":[]}],"bytecode":{"object":"0x60c06040523480156200001157600080fd5b506040516200135a3803806200135a83398101604081905262000034916200012f565b81816200004133620000dc565b6001600160a01b03811615620000585780620000bd565b816001600160a01b031663ba62fbe46040518163ffffffff1660e01b8152600401602060405180830381865afa15801562000097573d6000803e3d6000fd5b505050506040513d601f19601f82011682018060405250810190620000bd91906200016e565b6001600160a01b039081166080529190911660a0525062000195915050565b6001600160a01b0316638b78c6d8198190558060007f8be0079c531659141344cd1fd0a4f28419497f9722a3daafe3b4186f6b6457e08180a35b50565b6001600160a01b03811681146200011657600080fd5b600080604083850312156200014357600080fd5b8251620001508162000119565b6020840151909250620001638162000119565b809150509250929050565b6000602082840312156200018157600080fd5b81516200018e8162000119565b9392505050565b60805160a05161118d620001cd60003960005050600081816102550152818161029c01528181610332015261041f015261118d6000f3fe6080604052600436106100bc5760003560e01c8063715018a611610074578063f04e283e1161004e578063f04e283e146101ba578063f2fde38b146101cd578063fee81cf4146101e057600080fd5b8063715018a61461013e5780637d72aa65146101465780638da5cb5b1461016657600080fd5b80631bfe0308116100a55780631bfe03081461010e578063256929621461012e57806354d1f13d1461013657600080fd5b806309c5eabe146100c15780630fcc0c28146100f7575b600080fd5b3480156100cd57600080fd5b506100e16100dc366004610de9565b610221565b6040516100ee9190610ea0565b60405180910390f35b34801561010357600080fd5b5061010c6102f2565b005b34801561011a57600080fd5b5061010c610129366004610ed5565b610325565b61010c610372565b61010c6103c2565b61010c6103fe565b34801561015257600080fd5b5061010c610161366004610ed5565b610412565b34801561017257600080fd5b507fffffffffffffffffffffffffffffffffffffffffffffffffffffffff748739275460405173ffffffffffffffffffffffffffffffffffffffff90911681526020016100ee565b61010c6101c8366004610f39565b610460565b61010c6101db366004610f39565b6104a0565b3480156101ec57600080fd5b506102136101fb366004610f39565b63389a75e1600c908152600091909152602090205490565b6040519081526020016100ee565b606061022b6104c7565b6000806000848060200190518101906102449190610f66565b9250925092508015610297576102917f00000000000000000000000000000000000000000000000000000000000000008473ffffffffffffffffffffffffffffffffffffffff16846104fd565b506102d8565b6102d87f00000000000000000000000000000000000000000000000000000000000000008473ffffffffffffffffffffffffffffffffffffffff16846105b8565b50506040805160008152602081019091529150505b919050565b6102fa6104c7565b6040517f56f33501ffd77f9fe44d81e7db7e66a66bdf52ab3e11267cdc6462763604c4c790600090a1565b61032d6104c7565b61036e7f00000000000000000000000000000000000000000000000000000000000000008373ffffffffffffffffffffffffffffffffffffffff16836105b8565b5050565b60006202a30067ffffffffffffffff164201905063389a75e1600c5233600052806020600c2055337fdbf36a107da19e49527a7176a1babf963b4b0ff8cde35ee35d6cd8f1f9ac7e1d600080a250565b63389a75e1600c523360005260006020600c2055337ffa7b8eab7da67f412cc9575ed43464468f9bfbae89d1675917346ca6d8fe3c92600080a2565b6104066104c7565b6104106000610794565b565b61041a6104c7565b61045b7f00000000000000000000000000000000000000000000000000000000000000008373ffffffffffffffffffffffffffffffffffffffff16836104fd565b505050565b6104686104c7565b63389a75e1600c52806000526020600c20805442111561049057636f5e88186000526004601cfd5b6000905561049d81610794565b50565b6104a86104c7565b8060601b6104be57637448fbae6000526004601cfd5b61049d81610794565b7fffffffffffffffffffffffffffffffffffffffffffffffffffffffff74873927543314610410576382b429006000526004601cfd5b600061050983836107fa565b90506105178482600161084c565b6105638184610546877f5bc28889d745caef68975e56a733199d93efb3f5ae8e4606262ab97c83f726486108f7565b73ffffffffffffffffffffffffffffffffffffffff16919061090a565b506105b08183610593877f024accd0d273ef6123273b21662f5cc055a7d58adf98cc1b060edd029af93f7f6108f7565b73ffffffffffffffffffffffffffffffffffffffff169190610a3c565b509392505050565b60006105c483836107fa565b90506105f0847fd426585847552196ce5fddb7f2e37e8aa38f62676728e7518835f8440cf91958610b05565b73ffffffffffffffffffffffffffffffffffffffff16634cc82215826040518263ffffffff1660e01b815260040161062a91815260200190565b600060405180830381600087803b15801561064457600080fd5b505af1158015610658573d6000803e3d6000fd5b50505050610689847f5bc28889d745caef68975e56a733199d93efb3f5ae8e4606262ab97c83f7264860001c6108f7565b73ffffffffffffffffffffffffffffffffffffffff16634cc82215826040518263ffffffff1660e01b81526004016106c391815260200190565b600060405180830381600087803b1580156106dd57600080fd5b505af11580156106f1573d6000803e3d6000fd5b50505050610722847f024accd0d273ef6123273b21662f5cc055a7d58adf98cc1b060edd029af93f7f60001c6108f7565b73ffffffffffffffffffffffffffffffffffffffff16634cc82215826040518263ffffffff1660e01b815260040161075c91815260200190565b600060405180830381600087803b15801561077657600080fd5b505af115801561078a573d6000803e3d6000fd5b5050505050505050565b7fffffffffffffffffffffffffffffffffffffffffffffffffffffffff74873927805473ffffffffffffffffffffffffffffffffffffffff9092169182907f8be0079c531659141344cd1fd0a4f28419497f9722a3daafe3b4186f6b6457e0600080a355565b6000828260405160200161080f929190611002565b604080517fffffffffffffffffffffffffffffffffffffffffffffffffffffffffffffffe081840301815291905280516020909101209392505050565b80156108ed5761087c837fd426585847552196ce5fddb7f2e37e8aa38f62676728e7518835f8440cf91958610b05565b73ffffffffffffffffffffffffffffffffffffffff166360fe47b1836040518263ffffffff1660e01b81526004016108b691815260200190565b600060405180830381600087803b1580156108d057600080fd5b505af11580156108e4573d6000803e3d6000fd5b50505050505050565b61045b8383610c4d565b60006109038383610b05565b9392505050565b6040517fcccf7a8e00000000000000000000000000000000000000000000000000000000815260048101839052600090819073ffffffffffffffffffffffffffffffffffffffff86169063cccf7a8e90602401602060405180830381865afa15801561097a573d6000803e3d6000fd5b505050506040513d601f19601f8201168201806040525081019061099e919061104e565b905080610a34578473ffffffffffffffffffffffffffffffffffffffff16638b28294785856040516020016109d591815260200190565b6040516020818303038152906040526040518363ffffffff1660e01b8152600401610a01929190611069565b600060405180830381600087803b158015610a1b57600080fd5b505af1158015610a2f573d6000803e3d6000fd5b505050505b949350505050565b6040517fcccf7a8e00000000000000000000000000000000000000000000000000000000815260048101839052600090819073ffffffffffffffffffffffffffffffffffffffff86169063cccf7a8e90602401602060405180830381865afa158015610aac573d6000803e3d6000fd5b505050506040513d601f19601f82011682018060405250810190610ad0919061104e565b905080610a34578473ffffffffffffffffffffffffffffffffffffffff16638b28294785856040516020016109d59190610ea0565b6040517ffbdfa1ea00000000000000000000000000000000000000000000000000000000815260048101829052600090819073ffffffffffffffffffffffffffffffffffffffff85169063fbdfa1ea90602401600060405180830381865afa158015610b75573d6000803e3d6000fd5b505050506040513d6000823e601f3d9081017fffffffffffffffffffffffffffffffffffffffffffffffffffffffffffffffe0168201604052610bbb9190810190611082565b90508051600003610c2c576040517f08c379a000000000000000000000000000000000000000000000000000000000815260206004820152601160248201527f6964206e6f742072656769737465726564000000000000000000000000000000604482015260640160405180910390fd5b610a3481600081518110610c4257610c42611128565b602002602001015190565b610c77827fd426585847552196ce5fddb7f2e37e8aa38f62676728e7518835f8440cf91958610b05565b73ffffffffffffffffffffffffffffffffffffffff16634cc82215826040518263ffffffff1660e01b8152600401610cb191815260200190565b600060405180830381600087803b158015610ccb57600080fd5b505af1158015610cdf573d6000803e3d6000fd5b505050505050565b7f4e487b7100000000000000000000000000000000000000000000000000000000600052604160045260246000fd5b604051601f82017fffffffffffffffffffffffffffffffffffffffffffffffffffffffffffffffe016810167ffffffffffffffff81118282101715610d5d57610d5d610ce7565b604052919050565b600067ffffffffffffffff821115610d7f57610d7f610ce7565b50601f017fffffffffffffffffffffffffffffffffffffffffffffffffffffffffffffffe01660200190565b6000610dbe610db984610d65565b610d16565b9050828152838383011115610dd257600080fd5b828260208301376000602084830101529392505050565b600060208284031215610dfb57600080fd5b813567ffffffffffffffff811115610e1257600080fd5b8201601f81018413610e2357600080fd5b610a3484823560208401610dab565b60005b83811015610e4d578181015183820152602001610e35565b50506000910152565b60008151808452610e6e816020860160208601610e32565b601f017fffffffffffffffffffffffffffffffffffffffffffffffffffffffffffffffe0169290920160200192915050565b6020815260006109036020830184610e56565b73ffffffffffffffffffffffffffffffffffffffff8116811461049d57600080fd5b60008060408385031215610ee857600080fd5b8235610ef381610eb3565b9150602083013567ffffffffffffffff811115610f0f57600080fd5b8301601f81018513610f2057600080fd5b610f2f85823560208401610dab565b9150509250929050565b600060208284031215610f4b57600080fd5b813561090381610eb3565b805180151581146102ed57600080fd5b600080600060608486031215610f7b57600080fd5b8351610f8681610eb3565b602085015190935067ffffffffffffffff811115610fa357600080fd5b8401601f81018613610fb457600080fd5b8051610fc2610db982610d65565b818152876020838501011115610fd757600080fd5b610fe8826020830160208601610e32565b9350610ff991505060408501610f56565b90509250925092565b7f6861732e666c6167000000000000000000000000000000000000000000000000815282600882015260008251611040816028850160208701610e32565b919091016028019392505050565b60006020828403121561106057600080fd5b61090382610f56565b828152604060208201526000610a346040830184610e56565b6000602080838503121561109557600080fd5b825167ffffffffffffffff808211156110ad57600080fd5b818501915085601f8301126110c157600080fd5b8151818111156110d3576110d3610ce7565b8060051b91506110e4848301610d16565b81815291830184019184810190888411156110fe57600080fd5b938501935b8385101561111c57845182529385019390850190611103565b98975050505050505050565b7f4e487b7100000000000000000000000000000000000000000000000000000000600052603260045260246000fdfea2646970667358221220449749be48c65d0255b2d7581ab65858c717cff59c29634aab890e826af592d664736f6c63430008110033","linkReferences":{}},"methodIdentifiers":{"addRole(address,string)":"7d72aa65","cancelOwnershipHandover()":"54d1f13d","completeOwnershipHandover(address)":"f04e283e","deprecate()":"0fcc0c28","execute(bytes)":"09c5eabe","owner()":"8da5cb5b","ownershipHandoverExpiresAt(address)":"fee81cf4","removeRole(address,string)":"1bfe0308","renounceOwnership()":"715018a6","requestOwnershipHandover()":"25692962","transferOwnership(address)":"f2fde38b"},"id":295}