{"abi":[{"type":"constructor","inputs":[{"name":"_world","type":"address","internalType":"contract IWorld"},{"name":"_components","type":"address","internalType":"address"}],"stateMutability":"nonpayable"},{"type":"function","name":"cancelOwnershipHandover","inputs":[],"outputs":[],"stateMutability":"payable"},{"type":"function","name":"completeOwnershipHandover","inputs":[{"name":"pendingOwner","type":"address","internalType":"address"}],"outputs":[],"stateMutability":"payable"},{"type":"function","name":"deprecate","inputs":[],"outputs":[],"stateMutability":"nonpayable"},{"type":"function","name":"execute","inputs":[{"name":"arguments","type":"bytes","internalType":"bytes"}],"outputs":[{"name":"","type":"bytes","internalType":"bytes"}],"stateMutability":"nonpayable"},{"type":"function","name":"executeTyped","inputs":[{"name":"name","type":"string","internalType":"string"},{"name":"value","type":"uint256","internalType":"uint256"}],"outputs":[{"name":"","type":"bytes","internalType":"bytes"}],"stateMutability":"nonpayable"},{"type":"function","name":"owner","inputs":[],"outputs":[{"name":"result","type":"address","internalType":"address"}],"stateMutability":"view"},{"type":"function","name":"ownershipHandoverExpiresAt","inputs":[{"name":"pendingOwner","type":"address","internalType":"address"}],"outputs":[{"name":"result","type":"uint256","internalType":"uint256"}],"stateMutability":"view"},{"type":"function","name":"renounceOwnership","inputs":[],"outputs":[],"stateMutability":"payable"},{"type":"function","name":"requestOwnershipHandover","inputs":[],"outputs":[],"stateMutability":"payable"},{"type":"function","name":"setValue","inputs":[{"name":"name","type":"string","internalType":"string"},{"name":"value","type":"uint256","internalType":"uint256"}],"outputs":[],"stateMutability":"nonpayable"},{"type":"function","name":"setValueArray","inputs":[{"name":"name","type":"string","internalType":"string"},{"name":"values","type":"uint32[8]","internalType":"uint32[8]"}],"outputs":[],"stateMutability":"nonpayable"},{"type":"function","name":"setValueString","inputs":[{"name":"name","type":"string","internalType":"string"},{"name":"value","type":"string","internalType":"string"}],"outputs":[],"stateMutability":"nonpayable"},{"type":"function","name":"transferOwnership","inputs":[{"name":"newOwner","type":"address","internalType":"address"}],"outputs":[],"stateMutability":"payable"},{"type":"event","name":"OwnershipHandoverCanceled","inputs":[{"name":"pendingOwner","type":"address","indexed":true,"internalType":"address"}],"anonymous":false},{"type":"event","name":"OwnershipHandoverRequested","inputs":[{"name":"pendingOwner","type":"address","indexed":true,"internalType":"address"}],"anonymous":false},{"type":"event","name":"OwnershipTransferred","inputs":[{"name":"oldOwner","type":"address","indexed":true,"internalType":"address"},{"name":"newOwner","type":"address","indexed":true,"internalType":"address"}],"anonymous":false},{"type":"event","name":"SystemDeprecated","inputs":[],"anonymous":false},{"type":"error","name":"AlreadyInitialized","inputs":[]},{"type":"error","name":"NewOwnerIsZeroAddress","inputs":[]},{"type":"error","name":"NoHandoverRequest","inputs":[]},{"type":"error","name":"Unauthorized","inputs":[]}],"bytecode":{"object":"0x60c06040523480156200001157600080fd5b50604051620011c9380380620011c983398101604081905262000034916200012f565b81816200004133620000dc565b6001600160a01b03811615620000585780620000bd565b816001600160a01b031663ba62fbe46040518163ffffffff1660e01b8152600401602060405180830381865afa15801562000097573d6000803e3d6000fd5b505050506040513d601f19601f82011682018060405250810190620000bd91906200016e565b6001600160a01b039081166080529190911660a0525062000195915050565b6001600160a01b0316638b78c6d8198190558060007f8be0079c531659141344cd1fd0a4f28419497f9722a3daafe3b4186f6b6457e08180a35b50565b6001600160a01b03811681146200011657600080fd5b600080604083850312156200014357600080fd5b8251620001508162000119565b6020840151909250620001638162000119565b809150509250929050565b6000602082840312156200018157600080fd5b81516200018e8162000119565b9392505050565b60805160a051610ffc620001cd60003960005050600081816102ae015281816103890152818161041e01526104990152610ffc6000f3fe6080604052600436106100d25760003560e01c80637c2da7aa1161007f578063ab7d4d8c11610059578063ab7d4d8c146101f0578063f04e283e14610210578063f2fde38b14610223578063fee81cf41461023657600080fd5b80637c2da7aa1461015c5780638da5cb5b1461017c57806392976665146101d057600080fd5b8063348984f3116100b0578063348984f31461012c57806354d1f13d1461014c578063715018a61461015457600080fd5b806309c5eabe146100d75780630fcc0c281461010d5780632569296214610124575b600080fd5b3480156100e357600080fd5b506100f76100f2366004610b3e565b610277565b6040516101049190610bf5565b60405180910390f35b34801561011957600080fd5b506101226102ec565b005b61012261031f565b34801561013857600080fd5b50610122610147366004610c28565b61036f565b6101226103b4565b6101226103f0565b34801561016857600080fd5b50610122610177366004610ccb565b610404565b34801561018857600080fd5b507fffffffffffffffffffffffffffffffffffffffffffffffffffffffff748739275460405173ffffffffffffffffffffffffffffffffffffffff9091168152602001610104565b3480156101dc57600080fd5b506100f76101eb366004610ccb565b610444565b3480156101fc57600080fd5b5061012261020b366004610d10565b61047f565b61012261021e366004610d74565b6104bf565b610122610231366004610d74565b6104ff565b34801561024257600080fd5b50610269610251366004610d74565b63389a75e1600c908152600091909152602090205490565b604051908152602001610104565b6060610281610526565b600080838060200190518101906102989190610daa565b9150915060006102a78361055c565b90506102d47f000000000000000000000000000000000000000000000000000000000000000082846105ab565b50506040805160208101909152600081529392505050565b6102f4610526565b6040517f56f33501ffd77f9fe44d81e7db7e66a66bdf52ab3e11267cdc6462763604c4c790600090a1565b60006202a30067ffffffffffffffff164201905063389a75e1600c5233600052806020600c2055337fdbf36a107da19e49527a7176a1babf963b4b0ff8cde35ee35d6cd8f1f9ac7e1d600080a250565b610377610526565b60006103828361055c565b90506103af7f00000000000000000000000000000000000000000000000000000000000000008284610663565b505050565b63389a75e1600c523360005260006020600c2055337ffa7b8eab7da67f412cc9575ed43464468f9bfbae89d1675917346ca6d8fe3c92600080a2565b6103f8610526565b6104026000610676565b565b61040c610526565b60006104178361055c565b90506103af7f000000000000000000000000000000000000000000000000000000000000000082846105ab565b606061044e610526565b6104788383604051602001610464929190610e2b565b604051602081830303815290604052610277565b9392505050565b610487610526565b60006104928361055c565b90506103af7f000000000000000000000000000000000000000000000000000000000000000082846106dc565b6104c7610526565b63389a75e1600c52806000526020600c2080544211156104ef57636f5e88186000526004601cfd5b600090556104fc81610676565b50565b610507610526565b8060601b61051d57637448fbae6000526004601cfd5b6104fc81610676565b7fffffffffffffffffffffffffffffffffffffffffffffffffffffffff74873927543314610402576382b429006000526004601cfd5b60008160405160200161056f9190610e4d565b604080517fffffffffffffffffffffffffffffffffffffffffffffffffffffffffffffffe0818403018152919052805160209091012092915050565b6105d5837fb25ea67b55901db62e4b14311a8c1ab178fec3948b4b493a711970a50aa2a2e16107f2565b6040517f1ab06ee5000000000000000000000000000000000000000000000000000000008152600481018490526024810183905273ffffffffffffffffffffffffffffffffffffffff9190911690631ab06ee590604401600060405180830381600087803b15801561064657600080fd5b505af115801561065a573d6000803e3d6000fd5b50505050505050565b6103af83836106718461093e565b6105ab565b7fffffffffffffffffffffffffffffffffffffffffffffffffffffffff74873927805473ffffffffffffffffffffffffffffffffffffffff9092169182907f8be0079c531659141344cd1fd0a4f28419497f9722a3daafe3b4186f6b6457e0600080a355565b602081511061074c576040517f08c379a000000000000000000000000000000000000000000000000000000000815260206004820152601a60248201527f4c6962436f6e6669673a20737472696e6720746f6f206c6f6e6700000000000060448201526064015b60405180910390fd5b60008151116107b7576040517f08c379a000000000000000000000000000000000000000000000000000000000815260206004820152601b60248201527f4c6962436f6e6669673a20737472696e6720746f6f2073686f727400000000006044820152606401610743565b8051601f808301516103af92869286927fffffffffffffffffffffffffffffffffffffffffffffffffffffffffffffffff90920110026105ab565b6040517ffbdfa1ea00000000000000000000000000000000000000000000000000000000815260048101829052600090819073ffffffffffffffffffffffffffffffffffffffff85169063fbdfa1ea90602401600060405180830381865afa158015610862573d6000803e3d6000fd5b505050506040513d6000823e601f3d9081017fffffffffffffffffffffffffffffffffffffffffffffffffffffffffffffffe01682016040526108a89190810190610e92565b90508051600003610915576040517f08c379a000000000000000000000000000000000000000000000000000000000815260206004820152601160248201527f6964206e6f7420726567697374657265640000000000000000000000000000006044820152606401610743565b6109368160008151811061092b5761092b610f38565b602002602001015190565b949350505050565b6000805b6008811015610a0c5763ffffffff83826008811061096257610962610f38565b602002015163ffffffff16106109d4576040517f08c379a000000000000000000000000000000000000000000000000000000000815260206004820152600e60248201527f6d6178206f766572206c696d69740000000000000000000000000000000000006044820152606401610743565b8281600881106109e6576109e6610f38565b602002015163ffffffff16602083901b1791508080610a0490610f67565b915050610942565b50919050565b7f4e487b7100000000000000000000000000000000000000000000000000000000600052604160045260246000fd5b604051610100810167ffffffffffffffff81118282101715610a6557610a65610a12565b60405290565b604051601f82017fffffffffffffffffffffffffffffffffffffffffffffffffffffffffffffffe016810167ffffffffffffffff81118282101715610ab257610ab2610a12565b604052919050565b600067ffffffffffffffff821115610ad457610ad4610a12565b50601f017fffffffffffffffffffffffffffffffffffffffffffffffffffffffffffffffe01660200190565b6000610b13610b0e84610aba565b610a6b565b9050828152838383011115610b2757600080fd5b828260208301376000602084830101529392505050565b600060208284031215610b5057600080fd5b813567ffffffffffffffff811115610b6757600080fd5b8201601f81018413610b7857600080fd5b61093684823560208401610b00565b60005b83811015610ba2578181015183820152602001610b8a565b50506000910152565b60008151808452610bc3816020860160208601610b87565b601f017fffffffffffffffffffffffffffffffffffffffffffffffffffffffffffffffe0169290920160200192915050565b6020815260006104786020830184610bab565b600082601f830112610c1957600080fd5b61047883833560208501610b00565b600080610120808486031215610c3d57600080fd5b833567ffffffffffffffff811115610c5457600080fd5b610c6086828701610c08565b935050602085603f860112610c7457600080fd5b610c7c610a41565b918501918087841115610c8e57600080fd5b8287015b84811015610cbc57803563ffffffff81168114610caf5760008081fd5b8352918301918301610c92565b50809450505050509250929050565b60008060408385031215610cde57600080fd5b823567ffffffffffffffff811115610cf557600080fd5b610d0185828601610c08565b95602094909401359450505050565b60008060408385031215610d2357600080fd5b823567ffffffffffffffff80821115610d3b57600080fd5b610d4786838701610c08565b93506020850135915080821115610d5d57600080fd5b50610d6a85828601610c08565b9150509250929050565b600060208284031215610d8657600080fd5b813573ffffffffffffffffffffffffffffffffffffffff8116811461047857600080fd5b60008060408385031215610dbd57600080fd5b825167ffffffffffffffff811115610dd457600080fd5b8301601f81018513610de557600080fd5b8051610df3610b0e82610aba565b818152866020838501011115610e0857600080fd5b610e19826020830160208601610b87565b60209590950151949694955050505050565b604081526000610e3e6040830185610bab565b90508260208301529392505050565b7f69732e636f6e6669670000000000000000000000000000000000000000000000815260008251610e85816009850160208701610b87565b9190910160090192915050565b60006020808385031215610ea557600080fd5b825167ffffffffffffffff80821115610ebd57600080fd5b818501915085601f830112610ed157600080fd5b815181811115610ee357610ee3610a12565b8060051b9150610ef4848301610a6b565b8181529183018401918481019088841115610f0e57600080fd5b938501935b83851015610f2c57845182529385019390850190610f13565b98975050505050505050565b7f4e487b7100000000000000000000000000000000000000000000000000000000600052603260045260246000fd5b60007fffffffffffffffffffffffffffffffffffffffffffffffffffffffffffffffff8203610fbf577f4e487b7100000000000000000000000000000000000000000000000000000000600052601160045260246000fd5b506001019056fea264697066735822122093f939439a75c361c84fa207e41f78cbf615f0311f1c23b8e4ed3859256cc83f64736f6c63430008110033","linkReferences":{}},"methodIdentifiers":{"cancelOwnershipHandover()":"54d1f13d","completeOwnershipHandover(address)":"f04e283e","deprecate()":"0fcc0c28","execute(bytes)":"09c5eabe","executeTyped(string,uint256)":"92976665","owner()":"8da5cb5b","ownershipHandoverExpiresAt(address)":"fee81cf4","renounceOwnership()":"715018a6","requestOwnershipHandover()":"25692962","setValue(string,uint256)":"7c2da7aa","setValueArray(string,uint32[8])":"348984f3","setValueString(string,string)":"ab7d4d8c","transferOwnership(address)":"f2fde38b"},"id":296}