{"abi":[{"type":"constructor","inputs":[{"name":"_world","type":"address","internalType":"contract IWorld"},{"name":"_components","type":"address","internalType":"address"}],"stateMutability":"nonpayable"},{"type":"function","name":"_getTraitStats","inputs":[{"name":"id","type":"uint256","internalType":"uint256"}],"outputs":[{"name":"","type":"tuple","internalType":"struct TraitStats","components":[{"name":"health","type":"int32","internalType":"int32"},{"name":"power","type":"int32","internalType":"int32"},{"name":"violence","type":"int32","internalType":"int32"},{"name":"harmony","type":"int32","internalType":"int32"},{"name":"slots","type":"int32","internalType":"int32"}]}],"stateMutability":"view"},{"type":"function","name":"cancelOwnershipHandover","inputs":[],"outputs":[],"stateMutability":"payable"},{"type":"function","name":"completeOwnershipHandover","inputs":[{"name":"pendingOwner","type":"address","internalType":"address"}],"outputs":[],"stateMutability":"payable"},{"type":"function","name":"create","inputs":[{"name":"index","type":"uint32","internalType":"uint32"},{"name":"accID","type":"uint256","internalType":"uint256"},{"name":"background","type":"uint32","internalType":"uint32"},{"name":"body","type":"uint32","internalType":"uint32"},{"name":"color","type":"uint32","internalType":"uint32"},{"name":"face","type":"uint32","internalType":"uint32"},{"name":"hand","type":"uint32","internalType":"uint32"},{"name":"level","type":"uint256","internalType":"uint256"}],"outputs":[],"stateMutability":"nonpayable"},{"type":"function","name":"deprecate","inputs":[],"outputs":[],"stateMutability":"nonpayable"},{"type":"function","name":"execute","inputs":[{"name":"arguments","type":"bytes","internalType":"bytes"}],"outputs":[{"name":"","type":"bytes","internalType":"bytes"}],"stateMutability":"nonpayable"},{"type":"function","name":"owner","inputs":[],"outputs":[{"name":"result","type":"address","internalType":"address"}],"stateMutability":"view"},{"type":"function","name":"ownershipHandoverExpiresAt","inputs":[{"name":"pendingOwner","type":"address","internalType":"address"}],"outputs":[{"name":"result","type":"uint256","internalType":"uint256"}],"stateMutability":"view"},{"type":"function","name":"renounceOwnership","inputs":[],"outputs":[],"stateMutability":"payable"},{"type":"function","name":"requestOwnershipHandover","inputs":[],"outputs":[],"stateMutability":"payable"},{"type":"function","name":"setTraits","inputs":[],"outputs":[],"stateMutability":"nonpayable"},{"type":"function","name":"transferOwnership","inputs":[{"name":"newOwner","type":"address","internalType":"address"}],"outputs":[],"stateMutability":"payable"},{"type":"event","name":"OwnershipHandoverCanceled","inputs":[{"name":"pendingOwner","type":"address","indexed":true,"internalType":"address"}],"anonymous":false},{"type":"event","name":"OwnershipHandoverRequested","inputs":[{"name":"pendingOwner","type":"address","indexed":true,"internalType":"address"}],"anonymous":false},{"type":"event","name":"OwnershipTransferred","inputs":[{"name":"oldOwner","type":"address","indexed":true,"internalType":"address"},{"name":"newOwner","type":"address","indexed":true,"internalType":"address"}],"anonymous":false},{"type":"event","name":"SystemDeprecated","inputs":[],"anonymous":false},{"type":"error","name":"AlreadyInitialized","inputs":[]},{"type":"error","name":"NewOwnerIsZeroAddress","inputs":[]},{"type":"error","name":"NoHandoverRequest","inputs":[]},{"type":"error","name":"Unauthorized","inputs":[]}],"bytecode":{"object":"0x6103a06040523480156200001257600080fd5b5060405162004e3a38038062004e3a833981016040819052620000359162000789565b818162000042336200063c565b6001600160a01b03811615620000595780620000be565b816001600160a01b031663ba62fbe46040518163ffffffff1660e01b8152600401602060405180830381865afa15801562000098573d6000803e3d6000fd5b505050506040513d601f19601f82011682018060405250810190620000be9190620007c8565b6001600160a01b039081166080819052921660a0525062000100907fdb1228220c36234210e3f04b6ac039f5d81c4d6d81f43d9b4a9d70c4d5bcfac162000679565b6001600160a01b031660c0526080516200013b907f5d88ced8d8e079072bf73f49fc87661b519c50d79482941abb852ba2b10909cd62000679565b6001600160a01b031660e05260805162000176907fcd6257c5a7fd5523bf675476a783746b8e1aed9c92992221af0f776ac5562b3462000679565b6001600160a01b031661010052608051620001b2907f4683ab681c8fb08ca17959d67c914890fbdf5a6fce1f72e885b7a2ebe6856afd62000679565b6001600160a01b031661012052608051620001ee907f2acf3c3c6b18ed6530ed0fd161fd0b65f4febe79d1182824d3263e852d29ca0362000679565b6001600160a01b0316610140526080516200022a907f3630e5d2b4dfc42bb69d52e4eef89343acb69d5153f64efe5860a680a55082e762000679565b6001600160a01b03166101605260805162000266907f9ee42634d52dbd5a24ad226010389fb7306af59bdaec5e20547162dd896dacad62000679565b6001600160a01b031661018052608051620002a2907f342adee7430e96bca6f5d4fe57ba5155dc7271000494e77110c292d51ae887fa62000679565b6001600160a01b03166101a052608051620002de907ff8911dfd3f908e7a27ff20b80381dc7334f6abc557cdd58de4a9bfb47ebde73462000679565b6001600160a01b03166101c0526080516200031a907ff751b4a95c9cfabe52899e09ae113eac17e41cc0cc2dad670d2789ecc1251add62000679565b6001600160a01b03166101e05260805162000356907fa9cdfb538e696edc6dbd04076226eae5d97822d1205fdc5bffebbd98741fdafa62000679565b6001600160a01b03166102005260805162000392907fb25ea67b55901db62e4b14311a8c1ab178fec3948b4b493a711970a50aa2a2e162000679565b6001600160a01b031661022052608051620003ce907f7e27420aa87c5cbb18c784ab6d5674344bec224f17946d4670418a9ad61a8fa562000679565b6001600160a01b0316610260526080516200040a907fb67326ca4d9276389479ad92732df89fdb51a6722bcc762224a361d37e6a44cf62000679565b6001600160a01b03166102405260805162000446907f9ec7fdb312cfd917b9499405d9619afea82cbe7bc994a6d9b97aa4a29d95cba462000679565b6001600160a01b03166102805260805162000482907f3bcf9f91d55a1da72cd97d60b22f351bd7b605705fcb526dbf324094ea34be3c62000679565b6001600160a01b03166102a052608051620004be907ffc3224e0c88a32d827dec77db300ba465decc407b22c4ff1e3dd50db23a15bb662000679565b6001600160a01b03166102c052608051620004fa907f7f11100822994501b15df98b1bd24b3eb0d73863f512da0bf8f165b0150c537d62000679565b6001600160a01b03166102e05260805162000536907f036642765aca64d0dc0aa7a1a5b293901589aec219fb89c7c5e7c042e927386c62000679565b6001600160a01b03166103005260805162000572907f9d3e17e61f5f07f24e173edb93a8af1d5b797396ea02343c0feee16bdf497d4f62000679565b6001600160a01b031661032052608051620005ae907f5b5054d7f0fe411d96cb1c9605f65b42805d28ce5bb4ce216455e888cdc5373c62000679565b6001600160a01b031661034052608051620005ea907f3e4a46df40b228c2d9f3b8ddde72a1c29045de822f058698341c5adb1d02f17d62000679565b6001600160a01b03166103605260805162000626907f93024875aa0a44d01beef81e003ceec9279e2577bf5f95578dfbb508d780b6c662000679565b6001600160a01b03166103805250620008e49050565b6001600160a01b0316638b78c6d8198190558060007f8be0079c531659141344cd1fd0a4f28419497f9722a3daafe3b4186f6b6457e08180a35b50565b604051637defd0f560e11b81526004810182905260009081906001600160a01b0385169063fbdfa1ea90602401600060405180830381865afa158015620006c4573d6000803e3d6000fd5b505050506040513d6000823e601f3d908101601f19168201604052620006ee919081019062000805565b905080516000036200073a5760405162461bcd60e51b81526020600482015260116024820152701a59081b9bdd081c9959da5cdd195c9959607a1b604482015260640160405180910390fd5b6200076881600081518110620007545762000754620008ce565b60200260200101516200077060201b60201c565b949350505050565b90565b6001600160a01b03811681146200067657600080fd5b600080604083850312156200079d57600080fd5b8251620007aa8162000773565b6020840151909250620007bd8162000773565b809150509250929050565b600060208284031215620007db57600080fd5b8151620007e88162000773565b9392505050565b634e487b7160e01b600052604160045260246000fd5b600060208083850312156200081957600080fd5b82516001600160401b03808211156200083157600080fd5b818501915085601f8301126200084657600080fd5b8151818111156200085b576200085b620007ef565b8060051b604051601f19603f83011681018181108582111715620008835762000883620007ef565b604052918252848201925083810185019188831115620008a257600080fd5b938501935b82851015620008c257845184529385019392850192620008a7565b98975050505050505050565b634e487b7160e01b600052603260045260246000fd5b60805160a05160c05160e05161010051610120516101405161016051610180516101a0516101c0516101e05161020051610220516102405161026051610280516102a0516102c0516102e051610300516103205161034051610360516103805161439a62000aa060003960008181611e1d0152611edf015260008181610a8f01528181610b430152612db2015260008181610928015281816109dc0152612cbe0152600081816107c1015281816108750152612bce01526000818161065a0152818161070e0152612ae00152600081816104d9015281816105a701526129f30152600081816118cb01526124c501526000818161185d015261240f015260008181611a1501526126e70152600081816119a70152612631015260008181611939015261257b01526000505060006113910152600061147b0152600061131c01526000611275015260006111cf0152600061113301526000610fef0152600061279d01526000610f7a015260008181610cd90152610e3501526000610ece0152600050506000818161034501528181610386015281816103b4015281816103e2015281816104100152818161161d0152611c53015261439a6000f3fe6080604052600436106100c75760003560e01c80638da5cb5b11610074578063f04e283e1161004e578063f04e283e1461022b578063f2fde38b1461023e578063fee81cf41461025157600080fd5b80638da5cb5b14610151578063c061a3b5146101a5578063c4908186146101ba57600080fd5b80635108de86116100a55780635108de861461012157806354d1f13d14610141578063715018a61461014957600080fd5b806309c5eabe146100cc5780630fcc0c28146101025780632569296214610119575b600080fd5b3480156100d857600080fd5b506100ec6100e7366004613d98565b610292565b6040516100f99190613e86565b60405180910390f35b34801561010e57600080fd5b506101176102a1565b005b6101176102d4565b34801561012d57600080fd5b5061011761013c366004613eab565b610324565b610117610444565b610117610480565b34801561015d57600080fd5b507fffffffffffffffffffffffffffffffffffffffffffffffffffffffff748739275460405173ffffffffffffffffffffffffffffffffffffffff90911681526020016100f9565b3480156101b157600080fd5b50610117610494565b3480156101c657600080fd5b506101da6101d5366004613f42565b6104a4565b6040516100f99190600060a082019050825160030b8252602083015160030b6020830152604083015160030b6040830152606083015160030b6060830152608083015160030b608083015292915050565b610117610239366004613f5b565b610bff565b61011761024c366004613f5b565b610c3f565b34801561025d57600080fd5b5061028461026c366004613f5b565b63389a75e1600c908152600091909152602090205490565b6040519081526020016100f9565b606061029c610c66565b919050565b6102a9610c66565b6040517f56f33501ffd77f9fe44d81e7db7e66a66bdf52ab3e11267cdc6462763604c4c790600090a1565b60006202a30067ffffffffffffffff164201905063389a75e1600c5233600052806020600c2055337fdbf36a107da19e49527a7176a1babf963b4b0ff8cde35ee35d6cd8f1f9ac7e1d600080a250565b61032c610c66565b600061033e8989898989898989610c9c565b90506103817f000000000000000000000000000000000000000000000000000000000000000089600e8511610374576068610377565b60755b60ff1660026116dd565b6103af7f000000000000000000000000000000000000000000000000000000000000000089607060026116dd565b6103dd7f000000000000000000000000000000000000000000000000000000000000000089607160026116dd565b61040b7f000000000000000000000000000000000000000000000000000000000000000089607260026116dd565b6104397f000000000000000000000000000000000000000000000000000000000000000089607360026116dd565b505050505050505050565b63389a75e1600c523360005260006020600c2055337ffa7b8eab7da67f412cc9575ed43464468f9bfbae89d1675917346ca6d8fe3c92600080a2565b610488610c66565b6104926000611740565b565b61049c610c66565b6104926117a6565b6040805160a08101825260008082526020820181905291810182905260608101829052608081019190915260008060008060007f000000000000000000000000000000000000000000000000000000000000000073ffffffffffffffffffffffffffffffffffffffff1663cccf7a8e886040518263ffffffff1660e01b815260040161053291815260200190565b602060405180830381865afa15801561054f573d6000803e3d6000fd5b505050506040513d601f19601f820116820180604052508101906105739190613f91565b1561062b576040517f9507d39a000000000000000000000000000000000000000000000000000000008152600481018890527f000000000000000000000000000000000000000000000000000000000000000073ffffffffffffffffffffffffffffffffffffffff1690639507d39a90602401608060405180830381865afa158015610603573d6000803e3d6000fd5b505050506040513d601f19601f820116820180604052508101906106279190613fc5565b5194505b6040517fcccf7a8e000000000000000000000000000000000000000000000000000000008152600481018890527f000000000000000000000000000000000000000000000000000000000000000073ffffffffffffffffffffffffffffffffffffffff169063cccf7a8e90602401602060405180830381865afa1580156106b6573d6000803e3d6000fd5b505050506040513d601f19601f820116820180604052508101906106da9190613f91565b15610792576040517f9507d39a000000000000000000000000000000000000000000000000000000008152600481018890527f000000000000000000000000000000000000000000000000000000000000000073ffffffffffffffffffffffffffffffffffffffff1690639507d39a90602401608060405180830381865afa15801561076a573d6000803e3d6000fd5b505050506040513d601f19601f8201168201806040525081019061078e9190613fc5565b5193505b6040517fcccf7a8e000000000000000000000000000000000000000000000000000000008152600481018890527f000000000000000000000000000000000000000000000000000000000000000073ffffffffffffffffffffffffffffffffffffffff169063cccf7a8e90602401602060405180830381865afa15801561081d573d6000803e3d6000fd5b505050506040513d601f19601f820116820180604052508101906108419190613f91565b156108f9576040517f9507d39a000000000000000000000000000000000000000000000000000000008152600481018890527f000000000000000000000000000000000000000000000000000000000000000073ffffffffffffffffffffffffffffffffffffffff1690639507d39a90602401608060405180830381865afa1580156108d1573d6000803e3d6000fd5b505050506040513d601f19601f820116820180604052508101906108f59190613fc5565b5192505b6040517fcccf7a8e000000000000000000000000000000000000000000000000000000008152600481018890527f000000000000000000000000000000000000000000000000000000000000000073ffffffffffffffffffffffffffffffffffffffff169063cccf7a8e90602401602060405180830381865afa158015610984573d6000803e3d6000fd5b505050506040513d601f19601f820116820180604052508101906109a89190613f91565b15610a60576040517f9507d39a000000000000000000000000000000000000000000000000000000008152600481018890527f000000000000000000000000000000000000000000000000000000000000000073ffffffffffffffffffffffffffffffffffffffff1690639507d39a90602401608060405180830381865afa158015610a38573d6000803e3d6000fd5b505050506040513d601f19601f82011682018060405250810190610a5c9190613fc5565b5191505b6040517fcccf7a8e000000000000000000000000000000000000000000000000000000008152600481018890527f000000000000000000000000000000000000000000000000000000000000000073ffffffffffffffffffffffffffffffffffffffff169063cccf7a8e90602401602060405180830381865afa158015610aeb573d6000803e3d6000fd5b505050506040513d601f19601f82011682018060405250810190610b0f9190613f91565b15610bc7576040517f9507d39a000000000000000000000000000000000000000000000000000000008152600481018890527f000000000000000000000000000000000000000000000000000000000000000073ffffffffffffffffffffffffffffffffffffffff1690639507d39a90602401608060405180830381865afa158015610b9f573d6000803e3d6000fd5b505050506040513d601f19601f82011682018060405250810190610bc39190613fc5565b5190505b6040805160a081018252600396870b815294860b602086015292850b92840192909252830b606083015290910b608082015292915050565b610c07610c66565b63389a75e1600c52806000526020600c208054421115610c2f57636f5e88186000526004601cfd5b60009055610c3c81611740565b50565b610c47610c66565b8060601b610c5d57637448fbae6000526004601cfd5b610c3c81611740565b7fffffffffffffffffffffffffffffffffffffffffffffffffffffffff74873927543314610492576382b429006000526004601cfd5b6000610ca78961229a565b6040517fcccf7a8e000000000000000000000000000000000000000000000000000000008152600481018290529091507f000000000000000000000000000000000000000000000000000000000000000073ffffffffffffffffffffffffffffffffffffffff169063cccf7a8e90602401602060405180830381865afa158015610d35573d6000803e3d6000fd5b505050506040513d601f19601f82011682018060405250810190610d599190613f91565b15610dc5576040517f08c379a000000000000000000000000000000000000000000000000000000000815260206004820152601c60248201527f62617463684d696e743a20696420616c7265616479206578697374730000000060448201526064015b60405180910390fd5b60408051808201825260048082527f4b414d4900000000000000000000000000000000000000000000000000000000602083015291517f6437197700000000000000000000000000000000000000000000000000000000815273ffffffffffffffffffffffffffffffffffffffff7f00000000000000000000000000000000000000000000000000000000000000001692636437197792610e6892869201614042565b600060405180830381600087803b158015610e8257600080fd5b505af1158015610e96573d6000803e3d6000fd5b50506040517f1ab06ee500000000000000000000000000000000000000000000000000000000815260048101849052602481018b90527f000000000000000000000000000000000000000000000000000000000000000073ffffffffffffffffffffffffffffffffffffffff169250631ab06ee59150604401600060405180830381600087803b158015610f2957600080fd5b505af1158015610f3d573d6000803e3d6000fd5b50506040517fd923c3c40000000000000000000000000000000000000000000000000000000081526004810184905263ffffffff8c1660248201527f000000000000000000000000000000000000000000000000000000000000000073ffffffffffffffffffffffffffffffffffffffff16925063d923c3c49150604401600060405180830381600087803b158015610fd557600080fd5b505af1158015610fe9573d6000803e3d6000fd5b505050507f000000000000000000000000000000000000000000000000000000000000000073ffffffffffffffffffffffffffffffffffffffff166364371977826110776040518060400160405280600b81526020017f6b616d69676f74636869200000000000000000000000000000000000000000008152506110728e63ffffffff16612332565b612394565b6040518363ffffffff1660e01b8152600401611094929190614042565b600060405180830381600087803b1580156110ae57600080fd5b505af11580156110c2573d6000803e3d6000fd5b5050604080518082018252600781527f52455354494e4700000000000000000000000000000000000000000000000000602082015290517f6437197700000000000000000000000000000000000000000000000000000000815273ffffffffffffffffffffffffffffffffffffffff7f00000000000000000000000000000000000000000000000000000000000000001693506364371977925061116a918591600401614042565b600060405180830381600087803b15801561118457600080fd5b505af1158015611198573d6000803e3d6000fd5b50506040517f1ab06ee5000000000000000000000000000000000000000000000000000000008152600481018490524260248201527f000000000000000000000000000000000000000000000000000000000000000073ffffffffffffffffffffffffffffffffffffffff169250631ab06ee59150604401600060405180830381600087803b15801561122a57600080fd5b505af115801561123e573d6000803e3d6000fd5b50506040517f1ab06ee5000000000000000000000000000000000000000000000000000000008152600481018490524260248201527f000000000000000000000000000000000000000000000000000000000000000073ffffffffffffffffffffffffffffffffffffffff169250631ab06ee59150604401600060405180830381600087803b1580156112d057600080fd5b505af11580156112e4573d6000803e3d6000fd5b50506040517f1ab06ee500000000000000000000000000000000000000000000000000000000815260048101849052602481018590527f000000000000000000000000000000000000000000000000000000000000000073ffffffffffffffffffffffffffffffffffffffff169250631ab06ee59150604401600060405180830381600087803b15801561137757600080fd5b505af115801561138b573d6000803e3d6000fd5b505050507f000000000000000000000000000000000000000000000000000000000000000073ffffffffffffffffffffffffffffffffffffffff16631ab06ee5828460016113d99190614092565b6040517fffffffff0000000000000000000000000000000000000000000000000000000060e085901b16815260048101929092526024820152604401600060405180830381600087803b15801561142f57600080fd5b505af1158015611443573d6000803e3d6000fd5b50506040517f1ab06ee500000000000000000000000000000000000000000000000000000000815260048101849052600060248201527f000000000000000000000000000000000000000000000000000000000000000073ffffffffffffffffffffffffffffffffffffffff169250631ab06ee59150604401600060405180830381600087803b1580156114d657600080fd5b505af11580156114ea573d6000803e3d6000fd5b5060009250600591506114fa9050565b604051908082528060200260200182016040528015611523578160200160208202803683370190505b509050848160008151811061153a5761153a6140a5565b602002602001019063ffffffff16908163ffffffff16815250508381600181518110611568576115686140a5565b602002602001019063ffffffff16908163ffffffff16815250508681600281518110611596576115966140a5565b602002602001019063ffffffff16908163ffffffff168152505087816003815181106115c4576115c46140a5565b602002602001019063ffffffff16908163ffffffff168152505085816004815181106115f2576115f26140a5565b602002602001019063ffffffff16908163ffffffff1681525050611616828261240d565b60006116417f0000000000000000000000000000000000000000000000000000000000000000612e2b565b6040517f40c10f1900000000000000000000000000000000000000000000000000000000815273ffffffffffffffffffffffffffffffffffffffff82166004820181905263ffffffff8e1660248301529192506340c10f1990604401600060405180830381600087803b1580156116b757600080fd5b505af11580156116cb573d6000803e3d6000fd5b50505050505098975050505050505050565b60006116ea858585612e74565b9050611738818361171b887fb25ea67b55901db62e4b14311a8c1ab178fec3948b4b493a711970a50aa2a2e16130ad565b73ffffffffffffffffffffffffffffffffffffffff1691906131fb565b505050505050565b7fffffffffffffffffffffffffffffffffffffffffffffffffffffffff74873927805473ffffffffffffffffffffffffffffffffffffffff9092169182907f8be0079c531659141344cd1fd0a4f28419497f9722a3daafe3b4186f6b6457e0600080a355565b60005415611810576040517f08c379a000000000000000000000000000000000000000000000000000000000815260206004820152600b60248201527f616c7265616479207365740000000000000000000000000000000000000000006044820152606401610dbc565b600280547fffffffffffffffffffffffffffffffffffffffffffffffffffffffff0000000016905560408051600580825260c082019092526000916020820160a0803683370190505090507f00000000000000000000000000000000000000000000000000000000000000008160008151811061188f5761188f6140a5565b602002602001019073ffffffffffffffffffffffffffffffffffffffff16908173ffffffffffffffffffffffffffffffffffffffff16815250507f0000000000000000000000000000000000000000000000000000000000000000816001815181106118fd576118fd6140a5565b602002602001019073ffffffffffffffffffffffffffffffffffffffff16908173ffffffffffffffffffffffffffffffffffffffff16815250507f00000000000000000000000000000000000000000000000000000000000000008160028151811061196b5761196b6140a5565b602002602001019073ffffffffffffffffffffffffffffffffffffffff16908173ffffffffffffffffffffffffffffffffffffffff16815250507f0000000000000000000000000000000000000000000000000000000000000000816003815181106119d9576119d96140a5565b602002602001019073ffffffffffffffffffffffffffffffffffffffff16908173ffffffffffffffffffffffffffffffffffffffff16815250507f000000000000000000000000000000000000000000000000000000000000000081600481518110611a4757611a476140a5565b73ffffffffffffffffffffffffffffffffffffffff929092166020928302919091019091015260408051600580825260c08201909252600091816020015b6060815260200190600190039081611a855790505090506040518060400160405280600481526020017f464143450000000000000000000000000000000000000000000000000000000081525081600081518110611ae557611ae56140a5565b60200260200101819052506040518060400160405280600481526020017f48414e440000000000000000000000000000000000000000000000000000000081525081600181518110611b3957611b396140a5565b60200260200101819052506040518060400160405280600481526020017f424f44590000000000000000000000000000000000000000000000000000000081525081600281518110611b8d57611b8d6140a5565b60200260200101819052506040518060400160405280600a81526020017f4241434b47524f554e440000000000000000000000000000000000000000000081525081600381518110611be157611be16140a5565b60200260200101819052506040518060400160405280600581526020017f434f4c4f5200000000000000000000000000000000000000000000000000000081525081600481518110611c3557611c356140a5565b602002602001018190525060005b600581101561222c576000611c917f0000000000000000000000000000000000000000000000000000000000000000848481518110611c8457611c846140a5565b60200260200101516132a3565b8051909150600063ffffffff821667ffffffffffffffff811115611cb757611cb7613cd4565b604051908082528060200260200182016040528015611ce0578160200160208202803683370190505b50905060008263ffffffff1667ffffffffffffffff811115611d0457611d04613cd4565b604051908082528060200260200182016040528015611d2d578160200160208202803683370190505b50905060005b8363ffffffff1681101561211157878681518110611d5357611d536140a5565b602002602001015173ffffffffffffffffffffffffffffffffffffffff16639507d39a868381518110611d8857611d886140a5565b60200260200101516040518263ffffffff1660e01b8152600401611dae91815260200190565b602060405180830381865afa158015611dcb573d6000803e3d6000fd5b505050506040513d601f19601f82011682018060405250810190611def91906140d4565b838281518110611e0157611e016140a5565b602002602001019063ffffffff16908163ffffffff16815250507f000000000000000000000000000000000000000000000000000000000000000073ffffffffffffffffffffffffffffffffffffffff1663cccf7a8e868381518110611e6957611e696140a5565b60200260200101516040518263ffffffff1660e01b8152600401611e8f91815260200190565b602060405180830381865afa158015611eac573d6000803e3d6000fd5b505050506040513d601f19601f82011682018060405250810190611ed09190613f91565b611edb576000611fa1565b60017f000000000000000000000000000000000000000000000000000000000000000073ffffffffffffffffffffffffffffffffffffffff16639507d39a878481518110611f2b57611f2b6140a5565b60200260200101516040518263ffffffff1660e01b8152600401611f5191815260200190565b602060405180830381865afa158015611f6e573d6000803e3d6000fd5b505050506040513d601f19601f82011682018060405250810190611f9291906140f1565b611f9c919061410a565b6001901b5b828281518110611fb357611fb36140a5565b6020026020010181815250506001611fe3868381518110611fd657611fd66140a5565b60200260200101516104a4565b81546001810183556000928352602092839020825191018054938301516040840151606085015160809095015163ffffffff9485167fffffffffffffffffffffffffffffffffffffffffffffffff00000000000000009097169690961764010000000092851692909202919091177fffffffffffffffffffffffffffffffff0000000000000000ffffffffffffffff1668010000000000000000918416919091027fffffffffffffffffffffffffffffffff00000000ffffffffffffffffffffffff16176c0100000000000000000000000093831693909302929092177fffffffffffffffffffffffff00000000ffffffffffffffffffffffffffffffff167001000000000000000000000000000000009190931602919091179055806121098161411d565b915050611d33565b50604080518082019091528281526020808201839052600080546001810182559080528251805160029092027f290decd9548b62a8d60345a988386fc84ba6bc95484008f6362f93160ef3e563019261216f92849290910190613bd5565b5060208281015180516121889260018501920190613c84565b505050600485101561221557600285600581106121a7576121a76140a5565b600891828204019190066004029054906101000a900463ffffffff16836121ce9190614155565b60026121db876001614092565b600581106121eb576121eb6140a5565b600891828204019190066004026101000a81548163ffffffff021916908363ffffffff1602179055505b5050505080806122249061411d565b915050611c43565b50600054612296576040517f08c379a000000000000000000000000000000000000000000000000000000000815260206004820152601d60248201527f62617463686d696e743a206e6f207472616974732064657465637465640000006044820152606401610dbc565b5050565b6040517f6b616d692e69640000000000000000000000000000000000000000000000000060208201527fffffffff0000000000000000000000000000000000000000000000000000000060e083901b166027820152600090602b015b604080517fffffffffffffffffffffffffffffffffffffffffffffffffffffffffffffffe0818403018152919052805160209091012092915050565b60606080604051019050602081016040526000815280600019835b928101926030600a8206018453600a90048061234d5750508190037fffffffffffffffffffffffffffffffffffffffffffffffffffffffffffffffe0909101908152919050565b60405182517fffffffffffffffffffffffffffffffffffffffffffffffffffffffffffffffe0906020810182165b85810151848201528201806123c2575083518184018360208301165b86810151828201528401806123de5750506000910183810160208101929092528352603f011660405292915050565b7f000000000000000000000000000000000000000000000000000000000000000073ffffffffffffffffffffffffffffffffffffffff1663d923c3c4838360008151811061245d5761245d6140a5565b60200260200101516040518363ffffffff1660e01b815260040161249192919091825263ffffffff16602082015260400190565b600060405180830381600087803b1580156124ab57600080fd5b505af11580156124bf573d6000803e3d6000fd5b505050507f000000000000000000000000000000000000000000000000000000000000000073ffffffffffffffffffffffffffffffffffffffff1663d923c3c48383600181518110612513576125136140a5565b60200260200101516040518363ffffffff1660e01b815260040161254792919091825263ffffffff16602082015260400190565b600060405180830381600087803b15801561256157600080fd5b505af1158015612575573d6000803e3d6000fd5b505050507f000000000000000000000000000000000000000000000000000000000000000073ffffffffffffffffffffffffffffffffffffffff1663d923c3c483836002815181106125c9576125c96140a5565b60200260200101516040518363ffffffff1660e01b81526004016125fd92919091825263ffffffff16602082015260400190565b600060405180830381600087803b15801561261757600080fd5b505af115801561262b573d6000803e3d6000fd5b505050507f000000000000000000000000000000000000000000000000000000000000000073ffffffffffffffffffffffffffffffffffffffff1663d923c3c4838360038151811061267f5761267f6140a5565b60200260200101516040518363ffffffff1660e01b81526004016126b392919091825263ffffffff16602082015260400190565b600060405180830381600087803b1580156126cd57600080fd5b505af11580156126e1573d6000803e3d6000fd5b505050507f000000000000000000000000000000000000000000000000000000000000000073ffffffffffffffffffffffffffffffffffffffff1663d923c3c48383600481518110612735576127356140a5565b60200260200101516040518363ffffffff1660e01b815260040161276992919091825263ffffffff16602082015260400190565b600060405180830381600087803b15801561278357600080fd5b505af1158015612797573d6000803e3d6000fd5b505050507f000000000000000000000000000000000000000000000000000000000000000073ffffffffffffffffffffffffffffffffffffffff166364371977836128626040518060400160405280602081526020017f68747470733a2f2f692e746573742e617370686f64656c2e696f2f6b616d692f815250611072612827612822886008613329565b612332565b6040518060400160405280600481526020017f2e67696600000000000000000000000000000000000000000000000000000000815250612394565b6040518363ffffffff1660e01b815260040161287f929190614042565b600060405180830381600087803b15801561289957600080fd5b505af11580156128ad573d6000803e3d6000fd5b50506040805160a08101825260328152600a60208201819052918101829052606081019190915260006080820181905290925090506128eb83613406565b80518351919250908390612900908390614179565b60030b905250602080820151908301805161291c908390614179565b60030b9052506040808201519083018051612938908390614179565b60030b9052506060808201519083018051612954908390614179565b60030b9052506080808201519083018051612970908390614179565b600390810b909152604080516080810182528551830b81526000602082018181528284019182528751850b6060840190815293517f32e5cc30000000000000000000000000000000000000000000000000000000008152600481018b90529251850b602484015251840b604483015251830b6064820152905190910b60848201527f000000000000000000000000000000000000000000000000000000000000000073ffffffffffffffffffffffffffffffffffffffff1691506332e5cc309060a401600060405180830381600087803b158015612a4d57600080fd5b505af1158015612a61573d6000803e3d6000fd5b505060408051608081018252602086810151600390810b835260009183018281528385018381526060850193845294517f32e5cc30000000000000000000000000000000000000000000000000000000008152600481018c90529351820b602485015251810b60448401529251830b60648301525190910b60848201527f000000000000000000000000000000000000000000000000000000000000000073ffffffffffffffffffffffffffffffffffffffff1692506332e5cc30915060a401600060405180830381600087803b158015612b3b57600080fd5b505af1158015612b4f573d6000803e3d6000fd5b50506040805160808101825285820151600390810b82526000602083018181528385018281526060850192835294517f32e5cc30000000000000000000000000000000000000000000000000000000008152600481018c90529351830b602485015251820b60448401529251810b6064830152915190910b60848201527f000000000000000000000000000000000000000000000000000000000000000073ffffffffffffffffffffffffffffffffffffffff1692506332e5cc30915060a401600060405180830381600087803b158015612c2957600080fd5b505af1158015612c3d573d6000803e3d6000fd5b505060408051608081018252606086810151600390810b835260006020840181815284860182815293850191825294517f32e5cc30000000000000000000000000000000000000000000000000000000008152600481018c90529351820b60248501529351810b60448401529051810b6064830152915190910b60848201527f000000000000000000000000000000000000000000000000000000000000000073ffffffffffffffffffffffffffffffffffffffff1692506332e5cc30915060a401600060405180830381600087803b158015612d1957600080fd5b505af1158015612d2d573d6000803e3d6000fd5b5050604080516080808201835286018051600390810b83526000602084018181528486019182529251820b6060850190815294517f32e5cc30000000000000000000000000000000000000000000000000000000008152600481018c90529351820b60248501529151810b60448401529051810b6064830152915190910b60848201527f000000000000000000000000000000000000000000000000000000000000000073ffffffffffffffffffffffffffffffffffffffff1692506332e5cc30915060a401600060405180830381600087803b158015612e0d57600080fd5b505af1158015612e21573d6000803e3d6000fd5b5050505050505050565b600080612e6d836040518060400160405280600f81526020017f4b414d493732315f4144445245535300000000000000000000000000000000008152506135f0565b9392505050565b604080517f696e76656e746f72792e696e7374616e63650000000000000000000000000000602080830191909152603282018590527fffffffff0000000000000000000000000000000000000000000000000000000060e085901b16605283015282518083036036018152605690920190925280519101206000612f2e85836040518060400160405280600981526020017f494e56454e544f52590000000000000000000000000000000000000000000000815250613608565b9050806130a557612f5f857fd3da495fedd385ac62763d969054ffb19f1777e687374cceb91f1237ddd6bfb36130ad565b6040517fd923c3c40000000000000000000000000000000000000000000000000000000081526004810184905263ffffffff8516602482015273ffffffffffffffffffffffffffffffffffffffff919091169063d923c3c490604401600060405180830381600087803b158015612fd557600080fd5b505af1158015612fe9573d6000803e3d6000fd5b5050505061301a857f1ee9964c9c16bbb74f9e401f1ab450f99b2343a602036525f23f0da350bc74d060001c6130ad565b6040517f1ab06ee5000000000000000000000000000000000000000000000000000000008152600481018490526024810186905273ffffffffffffffffffffffffffffffffffffffff9190911690631ab06ee5906044015b600060405180830381600087803b15801561308c57600080fd5b505af11580156130a0573d6000803e3d6000fd5b505050505b509392505050565b6040517ffbdfa1ea00000000000000000000000000000000000000000000000000000000815260048101829052600090819073ffffffffffffffffffffffffffffffffffffffff85169063fbdfa1ea90602401600060405180830381865afa15801561311d573d6000803e3d6000fd5b505050506040513d6000823e601f3d9081017fffffffffffffffffffffffffffffffffffffffffffffffffffffffffffffffe016820160405261316391908101906141bb565b905080516000036131d0576040517f08c379a000000000000000000000000000000000000000000000000000000000815260206004820152601160248201527f6964206e6f7420726567697374657265640000000000000000000000000000006044820152606401610dbc565b6131f1816000815181106131e6576131e66140a5565b602002602001015190565b9150505b92915050565b60008161320885856136c9565b6132129190614092565b6040517f1ab06ee5000000000000000000000000000000000000000000000000000000008152600481018590526024810182905290915073ffffffffffffffffffffffffffffffffffffffff851690631ab06ee590604401600060405180830381600087803b15801561328457600080fd5b505af1158015613298573d6000803e3d6000fd5b505050509392505050565b606060006132b0836137a8565b90506131f16132df857f0e980fab8730829e1930c8cdc024ae35650d9eec12d20425b19fc4ade883178c6137bb565b613309867ff70dee74a99a7bf98a6058c2e93635b82826d8267ec7a3a05d2f12dcbf92534d6137bb565b6040805160208101869052016040516020818303038152906040526137c7565b60008060005b84518110156130a557613345600180861b61410a565b858281518110613357576133576140a5565b602002602001015163ffffffff16106133cc576040517f08c379a000000000000000000000000000000000000000000000000000000000815260206004820152600e60248201527f6d6178206f766572206c696d69740000000000000000000000000000000000006044820152606401610dbc565b8481815181106133de576133de6140a5565b602002602001015163ffffffff168483901b17915080806133fe9061411d565b91505061332f565b6040805160a081018252600080825260208201819052918101829052606081018290526080810191909152506040805160a0810182526000808252602082018190529181018290526060810182905260808101829052905b60058110156135ea576000600184838151811061347d5761347d6140a5565b602002602001015160028460058110613498576134986140a5565b600891828204019190066004029054906101000a900463ffffffff166134be9190614155565b63ffffffff16815481106134d4576134d46140a5565b60009182526020918290206040805160a0810182529290910154600381810b8085526401000000008304820b95850195909552680100000000000000008204810b928401929092526c010000000000000000000000008104820b60608401527001000000000000000000000000000000009004900b608082015284519092508490613560908390614179565b60030b905250602080820151908401805161357c908390614179565b60030b9052506040808201519084018051613598908390614179565b60030b90525060608082015190840180516135b4908390614179565b60030b90525060808082015190840180516135d0908390614179565b60030b9052508190506135e28161411d565b91505061345e565b50919050565b6000806135fc83613a2f565b90506131f18482613a42565b600080613635857f5d88ced8d8e079072bf73f49fc87661b519c50d79482941abb852ba2b10909cd6130ad565b905061366e8361365b73ffffffffffffffffffffffffffffffffffffffff841687613ae9565b8151602092830120815191909201201490565b9150816130a5576040517f6437197700000000000000000000000000000000000000000000000000000000815273ffffffffffffffffffffffffffffffffffffffff8216906364371977906130729087908790600401614042565b6040517fdd98e3c900000000000000000000000000000000000000000000000000000000815260048101829052600090819073ffffffffffffffffffffffffffffffffffffffff85169063dd98e3c990602401600060405180830381865afa158015613739573d6000803e3d6000fd5b505050506040513d6000823e601f3d9081017fffffffffffffffffffffffffffffffffffffffffffffffffffffffffffffffe016820160405261377f9190810190614291565b905080516000036137945760009150506131f5565b808060200190518101906131f191906140f1565b6000816040516020016122f691906142da565b6000612e6d83836130ad565b606060008473ffffffffffffffffffffffffffffffffffffffff1663b361be46846040518263ffffffff1660e01b81526004016138049190613e86565b600060405180830381865afa158015613821573d6000803e3d6000fd5b505050506040513d6000823e601f3d9081017fffffffffffffffffffffffffffffffffffffffffffffffffffffffffffffffe016820160405261386791908101906141bb565b90506000805b8251811015613955578573ffffffffffffffffffffffffffffffffffffffff1663cccf7a8e8483815181106138a4576138a46140a5565b60200260200101516040518263ffffffff1660e01b81526004016138ca91815260200190565b602060405180830381865afa1580156138e7573d6000803e3d6000fd5b505050506040513d601f19601f8201168201806040525081019061390b9190613f91565b15613922578161391a8161411d565b925050613943565b6000838281518110613936576139366140a5565b6020026020010181815250505b8061394d8161411d565b91505061386d565b5060008167ffffffffffffffff81111561397157613971613cd4565b60405190808252806020026020018201604052801561399a578160200160208202803683370190505b5090506000805b8451811015613a22578481815181106139bc576139bc6140a5565b6020026020010151600014613a10578481815181106139dd576139dd6140a5565b60200260200101518383806139f19061411d565b945081518110613a0357613a036140a5565b6020026020010181815250505b80613a1a8161411d565b9150506139a1565b5090979650505050505050565b6000816040516020016122f6919061431f565b6000613a6e837fb25ea67b55901db62e4b14311a8c1ab178fec3948b4b493a711970a50aa2a2e16130ad565b73ffffffffffffffffffffffffffffffffffffffff16639507d39a836040518263ffffffff1660e01b8152600401613aa891815260200190565b602060405180830381865afa158015613ac5573d6000803e3d6000fd5b505050506040513d601f19601f82011682018060405250810190612e6d91906140f1565b6040517fdd98e3c90000000000000000000000000000000000000000000000000000000081526004810182905260609060009073ffffffffffffffffffffffffffffffffffffffff85169063dd98e3c990602401600060405180830381865afa158015613b5a573d6000803e3d6000fd5b505050506040513d6000823e601f3d9081017fffffffffffffffffffffffffffffffffffffffffffffffffffffffffffffffe0168201604052613ba09190810190614291565b90508051600003613bc15750506040805160208101909152600081526131f5565b808060200190518101906131f19190614291565b82805482825590600052602060002090600701600890048101928215613c745791602002820160005b83821115613c4257835183826101000a81548163ffffffff021916908363ffffffff1602179055509260200192600401602081600301049283019260010302613bfe565b8015613c725782816101000a81549063ffffffff0219169055600401602081600301049283019260010302613c42565b505b50613c80929150613cbf565b5090565b828054828255906000526020600020908101928215613c74579160200282015b82811115613c74578251825591602001919060010190613ca4565b5b80821115613c805760008155600101613cc0565b7f4e487b7100000000000000000000000000000000000000000000000000000000600052604160045260246000fd5b604051601f82017fffffffffffffffffffffffffffffffffffffffffffffffffffffffffffffffe016810167ffffffffffffffff81118282101715613d4a57613d4a613cd4565b604052919050565b600067ffffffffffffffff821115613d6c57613d6c613cd4565b50601f017fffffffffffffffffffffffffffffffffffffffffffffffffffffffffffffffe01660200190565b600060208284031215613daa57600080fd5b813567ffffffffffffffff811115613dc157600080fd5b8201601f81018413613dd257600080fd5b8035613de5613de082613d52565b613d03565b818152856020838501011115613dfa57600080fd5b81602084016020830137600091810160200191909152949350505050565b60005b83811015613e33578181015183820152602001613e1b565b50506000910152565b60008151808452613e54816020860160208601613e18565b601f017fffffffffffffffffffffffffffffffffffffffffffffffffffffffffffffffe0169290920160200192915050565b602081526000612e6d6020830184613e3c565b63ffffffff81168114610c3c57600080fd5b600080600080600080600080610100898b031215613ec857600080fd5b8835613ed381613e99565b9750602089013596506040890135613eea81613e99565b95506060890135613efa81613e99565b94506080890135613f0a81613e99565b935060a0890135613f1a81613e99565b925060c0890135613f2a81613e99565b8092505060e089013590509295985092959890939650565b600060208284031215613f5457600080fd5b5035919050565b600060208284031215613f6d57600080fd5b813573ffffffffffffffffffffffffffffffffffffffff81168114612e6d57600080fd5b600060208284031215613fa357600080fd5b81518015158114612e6d57600080fd5b8051600381900b811461029c57600080fd5b600060808284031215613fd757600080fd5b6040516080810181811067ffffffffffffffff82111715613ffa57613ffa613cd4565b60405261400683613fb3565b815261401460208401613fb3565b602082015261402560408401613fb3565b604082015261403660608401613fb3565b60608201529392505050565b82815260406020820152600061405b6040830184613e3c565b949350505050565b7f4e487b7100000000000000000000000000000000000000000000000000000000600052601160045260246000fd5b808201808211156131f5576131f5614063565b7f4e487b7100000000000000000000000000000000000000000000000000000000600052603260045260246000fd5b6000602082840312156140e657600080fd5b8151612e6d81613e99565b60006020828403121561410357600080fd5b5051919050565b818103818111156131f5576131f5614063565b60007fffffffffffffffffffffffffffffffffffffffffffffffffffffffffffffffff820361414e5761414e614063565b5060010190565b63ffffffff81811683821601908082111561417257614172614063565b5092915050565b600381810b9083900b01637fffffff81137fffffffffffffffffffffffffffffffffffffffffffffffffffffffff80000000821217156131f5576131f5614063565b600060208083850312156141ce57600080fd5b825167ffffffffffffffff808211156141e657600080fd5b818501915085601f8301126141fa57600080fd5b81518181111561420c5761420c613cd4565b8060051b915061421d848301613d03565b818152918301840191848101908884111561423757600080fd5b938501935b838510156142555784518252938501939085019061423c565b98975050505050505050565b600061426f613de084613d52565b905082815283838301111561428357600080fd5b612e6d836020830184613e18565b6000602082840312156142a357600080fd5b815167ffffffffffffffff8111156142ba57600080fd5b8201601f810184136142cb57600080fd5b6131f184825160208401614261565b7f72656769737472792e74726169742e7479706500000000000000000000000000815260008251614312816013850160208701613e18565b9190910160130192915050565b7f69732e636f6e6669670000000000000000000000000000000000000000000000815260008251614357816009850160208701613e18565b919091016009019291505056fea2646970667358221220d22317466be621537a28679e28bbf4ecac3cf834c7562aa4344b44960903590a64736f6c63430008110033","linkReferences":{}},"methodIdentifiers":{"_getTraitStats(uint256)":"c4908186","cancelOwnershipHandover()":"54d1f13d","completeOwnershipHandover(address)":"f04e283e","create(uint32,uint256,uint32,uint32,uint32,uint32,uint32,uint256)":"5108de86","deprecate()":"0fcc0c28","execute(bytes)":"09c5eabe","owner()":"8da5cb5b","ownershipHandoverExpiresAt(address)":"fee81cf4","renounceOwnership()":"715018a6","requestOwnershipHandover()":"25692962","setTraits()":"c061a3b5","transferOwnership(address)":"f2fde38b"},"id":297}