{"abi":[{"type":"constructor","inputs":[{"name":"_world","type":"address","internalType":"contract IWorld"},{"name":"_components","type":"address","internalType":"address"}],"stateMutability":"nonpayable"},{"type":"function","name":"cancelOwnershipHandover","inputs":[],"outputs":[],"stateMutability":"payable"},{"type":"function","name":"completeOwnershipHandover","inputs":[{"name":"pendingOwner","type":"address","internalType":"address"}],"outputs":[],"stateMutability":"payable"},{"type":"function","name":"create","inputs":[{"name":"arguments","type":"bytes","internalType":"bytes"}],"outputs":[{"name":"","type":"uint256","internalType":"uint256"}],"stateMutability":"nonpayable"},{"type":"function","name":"deprecate","inputs":[],"outputs":[],"stateMutability":"nonpayable"},{"type":"function","name":"execute","inputs":[{"name":"arguments","type":"bytes","internalType":"bytes"}],"outputs":[{"name":"","type":"bytes","internalType":"bytes"}],"stateMutability":"nonpayable"},{"type":"function","name":"owner","inputs":[],"outputs":[{"name":"result","type":"address","internalType":"address"}],"stateMutability":"view"},{"type":"function","name":"ownershipHandoverExpiresAt","inputs":[{"name":"pendingOwner","type":"address","internalType":"address"}],"outputs":[{"name":"result","type":"uint256","internalType":"uint256"}],"stateMutability":"view"},{"type":"function","name":"remove","inputs":[{"name":"index","type":"uint32","internalType":"uint32"}],"outputs":[],"stateMutability":"nonpayable"},{"type":"function","name":"renounceOwnership","inputs":[],"outputs":[],"stateMutability":"payable"},{"type":"function","name":"requestOwnershipHandover","inputs":[],"outputs":[],"stateMutability":"payable"},{"type":"function","name":"transferOwnership","inputs":[{"name":"newOwner","type":"address","internalType":"address"}],"outputs":[],"stateMutability":"payable"},{"type":"event","name":"OwnershipHandoverCanceled","inputs":[{"name":"pendingOwner","type":"address","indexed":true,"internalType":"address"}],"anonymous":false},{"type":"event","name":"OwnershipHandoverRequested","inputs":[{"name":"pendingOwner","type":"address","indexed":true,"internalType":"address"}],"anonymous":false},{"type":"event","name":"OwnershipTransferred","inputs":[{"name":"oldOwner","type":"address","indexed":true,"internalType":"address"},{"name":"newOwner","type":"address","indexed":true,"internalType":"address"}],"anonymous":false},{"type":"event","name":"SystemDeprecated","inputs":[],"anonymous":false},{"type":"error","name":"AlreadyInitialized","inputs":[]},{"type":"error","name":"NewOwnerIsZeroAddress","inputs":[]},{"type":"error","name":"NoHandoverRequest","inputs":[]},{"type":"error","name":"Unauthorized","inputs":[]}],"bytecode":{"object":"0x60c06040523480156200001157600080fd5b506040516200166a3803806200166a83398101604081905262000034916200012f565b81816200004133620000dc565b6001600160a01b03811615620000585780620000bd565b816001600160a01b031663ba62fbe46040518163ffffffff1660e01b8152600401602060405180830381865afa15801562000097573d6000803e3d6000fd5b505050506040513d601f19601f82011682018060405250810190620000bd91906200016e565b6001600160a01b039081166080529190911660a0525062000195915050565b6001600160a01b0316638b78c6d8198190558060007f8be0079c531659141344cd1fd0a4f28419497f9722a3daafe3b4186f6b6457e08180a35b50565b6001600160a01b03811681146200011657600080fd5b600080604083850312156200014357600080fd5b8251620001508162000119565b6020840151909250620001638162000119565b809150509250929050565b6000602082840312156200018157600080fd5b81516200018e8162000119565b9392505050565b60805160a05161149d620001cd600039600050506000818161022f015281816102ca0152818161046301526104f4015261149d6000f3fe6080604052600436106100bb5760003560e01c8063715018a611610074578063f04e283e1161004e578063f04e283e146101c7578063f2fde38b146101da578063fee81cf4146101ed57600080fd5b8063715018a61461013d5780638da5cb5b14610145578063cf5ba53f1461019957600080fd5b80630fcc0c28116100a55780630fcc0c2814610118578063256929621461012d57806354d1f13d1461013557600080fd5b8062d84fd8146100c057806309c5eabe146100e2575b600080fd5b3480156100cc57600080fd5b506100e06100db366004611057565b610220565b005b3480156100ee57600080fd5b506101026100fd36600461113f565b6102f3565b60405161010f919061122d565b60405180910390f35b34801561012457600080fd5b506100e061035f565b6100e0610392565b6100e06103e2565b6100e061041e565b34801561015157600080fd5b507fffffffffffffffffffffffffffffffffffffffffffffffffffffffff748739275460405173ffffffffffffffffffffffffffffffffffffffff909116815260200161010f565b3480156101a557600080fd5b506101b96101b436600461113f565b610432565b60405190815260200161010f565b6100e06101d5366004611240565b610526565b6100e06101e8366004611240565b610566565b3480156101f957600080fd5b506101b9610208366004611240565b63389a75e1600c908152600091909152602090205490565b61022861058d565b60006102547f0000000000000000000000000000000000000000000000000000000000000000836105c3565b9050806000036102c5576040517f08c379a000000000000000000000000000000000000000000000000000000000815260206004820152601660248201527f46616374696f6e20646f6573206e6f742065786973740000000000000000000060448201526064015b60405180910390fd5b6102ef7f0000000000000000000000000000000000000000000000000000000000000000826106f0565b5050565b60606102fd61058d565b6040517f08c379a000000000000000000000000000000000000000000000000000000000815260206004820152600f60248201527f6e6f7420696d706c656d656e746564000000000000000000000000000000000060448201526064016102bc565b61036761058d565b6040517f56f33501ffd77f9fe44d81e7db7e66a66bdf52ab3e11267cdc6462763604c4c790600090a1565b60006202a30067ffffffffffffffff164201905063389a75e1600c5233600052806020600c2055337fdbf36a107da19e49527a7176a1babf963b4b0ff8cde35ee35d6cd8f1f9ac7e1d600080a250565b63389a75e1600c523360005260006020600c2055337ffa7b8eab7da67f412cc9575ed43464468f9bfbae89d1675917346ca6d8fe3c92600080a2565b61042661058d565b61043060006109f8565b565b600061043c61058d565b6000806000808580602001905181019061045691906112bb565b93509350935093506104887f0000000000000000000000000000000000000000000000000000000000000000856105c3565b156104ef576040517f08c379a000000000000000000000000000000000000000000000000000000000815260206004820152601660248201527f46616374696f6e20616c7265616479206578697374730000000000000000000060448201526064016102bc565b61051c7f000000000000000000000000000000000000000000000000000000000000000085858585610a5e565b9695505050505050565b61052e61058d565b63389a75e1600c52806000526020600c20805442111561055657636f5e88186000526004601cfd5b60009055610563816109f8565b50565b61056e61058d565b8060601b61058457637448fbae6000526004601cfd5b610563816109f8565b7fffffffffffffffffffffffffffffffffffffffffffffffffffffffff74873927543314610430576382b429006000526004601cfd5b604080517f66616374696f6e0000000000000000000000000000000000000000000000000060208083019190915260e084901b7fffffffff000000000000000000000000000000000000000000000000000000001660278301528251600b818403018152602b9092019092528051910120600090610661847f723814baf2dfd4398a4349555ce8bbb88a846ac918eb9b1a3ec2dbeaa37ab23e610e34565b73ffffffffffffffffffffffffffffffffffffffff1663cccf7a8e826040518263ffffffff1660e01b815260040161069b91815260200190565b602060405180830381865afa1580156106b8573d6000803e3d6000fd5b505050506040513d601f19601f820116820180604052508101906106dc9190611357565b156106e85790506106ea565b505b92915050565b6106fa8282610f80565b610724827ff70dee74a99a7bf98a6058c2e93635b82826d8267ec7a3a05d2f12dcbf92534d610e34565b73ffffffffffffffffffffffffffffffffffffffff16634cc82215826040518263ffffffff1660e01b815260040161075e91815260200190565b600060405180830381600087803b15801561077857600080fd5b505af115801561078c573d6000803e3d6000fd5b505050506107bd827f723814baf2dfd4398a4349555ce8bbb88a846ac918eb9b1a3ec2dbeaa37ab23e60001c610e34565b73ffffffffffffffffffffffffffffffffffffffff16634cc82215826040518263ffffffff1660e01b81526004016107f791815260200190565b600060405180830381600087803b15801561081157600080fd5b505af1158015610825573d6000803e3d6000fd5b50505050610856827f2acf3c3c6b18ed6530ed0fd161fd0b65f4febe79d1182824d3263e852d29ca0360001c610e34565b73ffffffffffffffffffffffffffffffffffffffff16634cc82215826040518263ffffffff1660e01b815260040161089091815260200190565b600060405180830381600087803b1580156108aa57600080fd5b505af11580156108be573d6000803e3d6000fd5b505050506108ef827ffdbdfda9d0933af67d5682f368771753d17c0fef55c57d62a98476dd7509058060001c610e34565b73ffffffffffffffffffffffffffffffffffffffff16634cc82215826040518263ffffffff1660e01b815260040161092991815260200190565b600060405180830381600087803b15801561094357600080fd5b505af1158015610957573d6000803e3d6000fd5b50505050610988827f4683ab681c8fb08ca17959d67c914890fbdf5a6fce1f72e885b7a2ebe6856afd60001c610e34565b73ffffffffffffffffffffffffffffffffffffffff16634cc82215826040518263ffffffff1660e01b81526004016109c291815260200190565b600060405180830381600087803b1580156109dc57600080fd5b505af11580156109f0573d6000803e3d6000fd5b505050505050565b7fffffffffffffffffffffffffffffffffffffffffffffffffffffffff74873927805473ffffffffffffffffffffffffffffffffffffffff9092169182907f8be0079c531659141344cd1fd0a4f28419497f9722a3daafe3b4186f6b6457e0600080a355565b604080517f66616374696f6e0000000000000000000000000000000000000000000000000060208083019190915260e087901b7fffffffff000000000000000000000000000000000000000000000000000000001660278301528251600b818403018152602b9092019092528051910120610b0f86826040518060400160405280600781526020017f46414354494f4e00000000000000000000000000000000000000000000000000815250610faa565b610b39867ff70dee74a99a7bf98a6058c2e93635b82826d8267ec7a3a05d2f12dcbf92534d610e34565b73ffffffffffffffffffffffffffffffffffffffff166360fe47b1826040518263ffffffff1660e01b8152600401610b7391815260200190565b600060405180830381600087803b158015610b8d57600080fd5b505af1158015610ba1573d6000803e3d6000fd5b50505050610bd2867f723814baf2dfd4398a4349555ce8bbb88a846ac918eb9b1a3ec2dbeaa37ab23e60001c610e34565b6040517fd923c3c40000000000000000000000000000000000000000000000000000000081526004810183905263ffffffff8716602482015273ffffffffffffffffffffffffffffffffffffffff919091169063d923c3c490604401600060405180830381600087803b158015610c4857600080fd5b505af1158015610c5c573d6000803e3d6000fd5b50505050610c8d867f2acf3c3c6b18ed6530ed0fd161fd0b65f4febe79d1182824d3263e852d29ca0360001c610e34565b73ffffffffffffffffffffffffffffffffffffffff16636437197782866040518363ffffffff1660e01b8152600401610cc7929190611379565b600060405180830381600087803b158015610ce157600080fd5b505af1158015610cf5573d6000803e3d6000fd5b50505050610d26867ffdbdfda9d0933af67d5682f368771753d17c0fef55c57d62a98476dd7509058060001c610e34565b73ffffffffffffffffffffffffffffffffffffffff16636437197782856040518363ffffffff1660e01b8152600401610d60929190611379565b600060405180830381600087803b158015610d7a57600080fd5b505af1158015610d8e573d6000803e3d6000fd5b50505050610dbf867f4683ab681c8fb08ca17959d67c914890fbdf5a6fce1f72e885b7a2ebe6856afd60001c610e34565b73ffffffffffffffffffffffffffffffffffffffff16636437197782846040518363ffffffff1660e01b8152600401610df9929190611379565b600060405180830381600087803b158015610e1357600080fd5b505af1158015610e27573d6000803e3d6000fd5b5050505095945050505050565b6040517ffbdfa1ea00000000000000000000000000000000000000000000000000000000815260048101829052600090819073ffffffffffffffffffffffffffffffffffffffff85169063fbdfa1ea90602401600060405180830381865afa158015610ea4573d6000803e3d6000fd5b505050506040513d6000823e601f3d9081017fffffffffffffffffffffffffffffffffffffffffffffffffffffffffffffffe0168201604052610eea9190810190611392565b90508051600003610f57576040517f08c379a000000000000000000000000000000000000000000000000000000000815260206004820152601160248201527f6964206e6f74207265676973746572656400000000000000000000000000000060448201526064016102bc565b610f7881600081518110610f6d57610f6d611438565b602002602001015190565b949350505050565b610988827f5d88ced8d8e079072bf73f49fc87661b519c50d79482941abb852ba2b10909cd610e34565b610fd4837f5d88ced8d8e079072bf73f49fc87661b519c50d79482941abb852ba2b10909cd610e34565b73ffffffffffffffffffffffffffffffffffffffff16636437197783836040518363ffffffff1660e01b815260040161100e929190611379565b600060405180830381600087803b15801561102857600080fd5b505af115801561103c573d6000803e3d6000fd5b50505050505050565b63ffffffff8116811461056357600080fd5b60006020828403121561106957600080fd5b813561107481611045565b9392505050565b7f4e487b7100000000000000000000000000000000000000000000000000000000600052604160045260246000fd5b604051601f82017fffffffffffffffffffffffffffffffffffffffffffffffffffffffffffffffe016810167ffffffffffffffff811182821017156110f1576110f161107b565b604052919050565b600067ffffffffffffffff8211156111135761111361107b565b50601f017fffffffffffffffffffffffffffffffffffffffffffffffffffffffffffffffe01660200190565b60006020828403121561115157600080fd5b813567ffffffffffffffff81111561116857600080fd5b8201601f8101841361117957600080fd5b803561118c611187826110f9565b6110aa565b8181528560208385010111156111a157600080fd5b81602084016020830137600091810160200191909152949350505050565b60005b838110156111da5781810151838201526020016111c2565b50506000910152565b600081518084526111fb8160208601602086016111bf565b601f017fffffffffffffffffffffffffffffffffffffffffffffffffffffffffffffffe0169290920160200192915050565b60208152600061107460208301846111e3565b60006020828403121561125257600080fd5b813573ffffffffffffffffffffffffffffffffffffffff8116811461107457600080fd5b600082601f83011261128757600080fd5b8151611295611187826110f9565b8181528460208386010111156112aa57600080fd5b610f788260208301602087016111bf565b600080600080608085870312156112d157600080fd5b84516112dc81611045565b602086015190945067ffffffffffffffff808211156112fa57600080fd5b61130688838901611276565b9450604087015191508082111561131c57600080fd5b61132888838901611276565b9350606087015191508082111561133e57600080fd5b5061134b87828801611276565b91505092959194509250565b60006020828403121561136957600080fd5b8151801515811461107457600080fd5b828152604060208201526000610f7860408301846111e3565b600060208083850312156113a557600080fd5b825167ffffffffffffffff808211156113bd57600080fd5b818501915085601f8301126113d157600080fd5b8151818111156113e3576113e361107b565b8060051b91506113f48483016110aa565b818152918301840191848101908884111561140e57600080fd5b938501935b8385101561142c57845182529385019390850190611413565b98975050505050505050565b7f4e487b7100000000000000000000000000000000000000000000000000000000600052603260045260246000fdfea26469706673582212209c989b2621fc8c89d068f1ca56551a4bd70fb996b4d26c31945438130d54871d64736f6c63430008110033","linkReferences":{}},"methodIdentifiers":{"cancelOwnershipHandover()":"54d1f13d","completeOwnershipHandover(address)":"f04e283e","create(bytes)":"cf5ba53f","deprecate()":"0fcc0c28","execute(bytes)":"09c5eabe","owner()":"8da5cb5b","ownershipHandoverExpiresAt(address)":"fee81cf4","remove(uint32)":"00d84fd8","renounceOwnership()":"715018a6","requestOwnershipHandover()":"25692962","transferOwnership(address)":"f2fde38b"},"id":298}