{"abi":[{"type":"constructor","inputs":[{"name":"_world","type":"address","internalType":"contract IWorld"},{"name":"_components","type":"address","internalType":"address"}],"stateMutability":"nonpayable"},{"type":"function","name":"addRequirement","inputs":[{"name":"arguments","type":"bytes","internalType":"bytes"}],"outputs":[{"name":"","type":"uint256","internalType":"uint256"}],"stateMutability":"nonpayable"},{"type":"function","name":"addReward","inputs":[{"name":"arguments","type":"bytes","internalType":"bytes"}],"outputs":[{"name":"","type":"uint256","internalType":"uint256"}],"stateMutability":"nonpayable"},{"type":"function","name":"cancelOwnershipHandover","inputs":[],"outputs":[],"stateMutability":"payable"},{"type":"function","name":"completeOwnershipHandover","inputs":[{"name":"pendingOwner","type":"address","internalType":"address"}],"outputs":[],"stateMutability":"payable"},{"type":"function","name":"create","inputs":[{"name":"arguments","type":"bytes","internalType":"bytes"}],"outputs":[{"name":"","type":"uint256","internalType":"uint256"}],"stateMutability":"nonpayable"},{"type":"function","name":"deprecate","inputs":[],"outputs":[],"stateMutability":"nonpayable"},{"type":"function","name":"execute","inputs":[{"name":"arguments","type":"bytes","internalType":"bytes"}],"outputs":[{"name":"","type":"bytes","internalType":"bytes"}],"stateMutability":"nonpayable"},{"type":"function","name":"owner","inputs":[],"outputs":[{"name":"result","type":"address","internalType":"address"}],"stateMutability":"view"},{"type":"function","name":"ownershipHandoverExpiresAt","inputs":[{"name":"pendingOwner","type":"address","internalType":"address"}],"outputs":[{"name":"result","type":"uint256","internalType":"uint256"}],"stateMutability":"view"},{"type":"function","name":"remove","inputs":[{"name":"goalIndex","type":"uint32","internalType":"uint32"}],"outputs":[],"stateMutability":"nonpayable"},{"type":"function","name":"renounceOwnership","inputs":[],"outputs":[],"stateMutability":"payable"},{"type":"function","name":"requestOwnershipHandover","inputs":[],"outputs":[],"stateMutability":"payable"},{"type":"function","name":"transferOwnership","inputs":[{"name":"newOwner","type":"address","internalType":"address"}],"outputs":[],"stateMutability":"payable"},{"type":"event","name":"OwnershipHandoverCanceled","inputs":[{"name":"pendingOwner","type":"address","indexed":true,"internalType":"address"}],"anonymous":false},{"type":"event","name":"OwnershipHandoverRequested","inputs":[{"name":"pendingOwner","type":"address","indexed":true,"internalType":"address"}],"anonymous":false},{"type":"event","name":"OwnershipTransferred","inputs":[{"name":"oldOwner","type":"address","indexed":true,"internalType":"address"},{"name":"newOwner","type":"address","indexed":true,"internalType":"address"}],"anonymous":false},{"type":"event","name":"SystemDeprecated","inputs":[],"anonymous":false},{"type":"error","name":"AlreadyInitialized","inputs":[]},{"type":"error","name":"NewOwnerIsZeroAddress","inputs":[]},{"type":"error","name":"NoHandoverRequest","inputs":[]},{"type":"error","name":"QueryOrderNotSupported","inputs":[]},{"type":"error","name":"Unauthorized","inputs":[]}],"bytecode":{"object":"0x60c06040523480156200001157600080fd5b50604051620042843803806200428483398101604081905262000034916200012f565b81816200004133620000dc565b6001600160a01b03811615620000585780620000bd565b816001600160a01b031663ba62fbe46040518163ffffffff1660e01b8152600401602060405180830381865afa15801562000097573d6000803e3d6000fd5b505050506040513d601f19601f82011682018060405250810190620000bd91906200016e565b6001600160a01b039081166080529190911660a0525062000195915050565b6001600160a01b0316638b78c6d8198190558060007f8be0079c531659141344cd1fd0a4f28419497f9722a3daafe3b4186f6b6457e08180a35b50565b6001600160a01b03811681146200011657600080fd5b600080604083850312156200014357600080fd5b8251620001508162000119565b6020840151909250620001638162000119565b809150509250929050565b6000602082840312156200018157600080fd5b81516200018e8162000119565b9392505050565b60805160a051614091620001f36000396000818161064901526109290152600081816102830152818161031b0152818161047a0152818161066a015281816107560152818161094a015281816109e60152610c5501526140916000f3fe6080604052600436106100d15760003560e01c8063715018a61161007f578063cf5ba53f11610059578063cf5ba53f146101fd578063f04e283e1461021d578063f2fde38b14610230578063fee81cf41461024357600080fd5b8063715018a6146101815780637e534103146101895780638da5cb5b146101a957600080fd5b806325692962116100b0578063256929621461014357806332007bd41461014b57806354d1f13d1461017957600080fd5b8062d84fd8146100d657806309c5eabe146100f85780630fcc0c281461012e575b600080fd5b3480156100e257600080fd5b506100f66100f1366004613704565b610276565b005b34801561010457600080fd5b506101186101133660046137e5565b610343565b60405161012591906138d3565b60405180910390f35b34801561013a57600080fd5b506100f66103b4565b6100f66103e7565b34801561015757600080fd5b5061016b6101663660046137e5565b610437565b604051908152602001610125565b6100f66106a6565b6100f66106e2565b34801561019557600080fd5b5061016b6101a43660046137e5565b6106f6565b3480156101b557600080fd5b507fffffffffffffffffffffffffffffffffffffffffffffffffffffffff748739275460405173ffffffffffffffffffffffffffffffffffffffff9091168152602001610125565b34801561020957600080fd5b5061016b6102183660046137e5565b61097c565b6100f661022b3660046138e6565b610c7e565b6100f661023e3660046138e6565b610cbb565b34801561024f57600080fd5b5061016b61025e3660046138e6565b63389a75e1600c908152600091909152602090205490565b61027e610ce2565b6102a87f000000000000000000000000000000000000000000000000000000000000000082610d18565b600003610316576040517f08c379a000000000000000000000000000000000000000000000000000000000815260206004820152601360248201527f476f616c20646f6573206e6f742065786973740000000000000000000000000060448201526064015b60405180910390fd5b6103407f000000000000000000000000000000000000000000000000000000000000000082610d7d565b50565b606061034d610ce2565b6040517f08c379a000000000000000000000000000000000000000000000000000000000815260206004820152600f60248201527f6e6f7420696d706c656d656e7465640000000000000000000000000000000000604482015260640161030d565b919050565b6103bc610ce2565b6040517f56f33501ffd77f9fe44d81e7db7e66a66bdf52ab3e11267cdc6462763604c4c790600090a1565b60006202a30067ffffffffffffffff164201905063389a75e1600c5233600052806020600c2055337fdbf36a107da19e49527a7176a1babf963b4b0ff8cde35ee35d6cd8f1f9ac7e1d600080a250565b6000610441610ce2565b60008060008060008060008060008a8060200190518101906104639190613a4f565b98509850985098509850985098509850985061049f7f00000000000000000000000000000000000000000000000000000000000000008a610d18565b600003610508576040517f08c379a000000000000000000000000000000000000000000000000000000000815260206004820152601360248201527f476f616c20646f6573206e6f7420657869737400000000000000000000000000604482015260640161030d565b604080516020808201909252600090528651908701207fc5d2460186f7233c927e7db2dcc703c0e500b653ca82273b7bfad8045d85a470036105a6576040517f08c379a000000000000000000000000000000000000000000000000000000000815260206004820152601860248201527f52776420747970652063616e6e6f7420626520656d7074790000000000000000604482015260640161030d565b604080516020808201909252600090528551908601207fc5d2460186f7233c927e7db2dcc703c0e500b653ca82273b7bfad8045d85a47003610644576040517f08c379a000000000000000000000000000000000000000000000000000000000815260206004820152601960248201527f527764206c6f6769632063616e6e6f7420626520656d70747900000000000000604482015260640161030d565b6106977f00000000000000000000000000000000000000000000000000000000000000007f00000000000000000000000000000000000000000000000000000000000000008b8b8b8a8c8b8b8b8b61114d565b9b9a5050505050505050505050565b63389a75e1600c523360005260006020600c2055337ffa7b8eab7da67f412cc9575ed43464468f9bfbae89d1675917346ca6d8fe3c92600080a2565b6106ea610ce2565b6106f46000611555565b565b6000610700610ce2565b60008060008060008680602001905181019061071c9190613b56565b94509450945094509450600060405180608001604052808681526020018581526020018463ffffffff16815260200183815250905061077b7f000000000000000000000000000000000000000000000000000000000000000087610d18565b6000036107e4576040517f08c379a000000000000000000000000000000000000000000000000000000000815260206004820152601360248201527f476f616c20646f6573206e6f7420657869737400000000000000000000000000604482015260640161030d565b80516040805160208082019092526000905281519101207fc5d2460186f7233c927e7db2dcc703c0e500b653ca82273b7bfad8045d85a47003610883576040517f08c379a000000000000000000000000000000000000000000000000000000000815260206004820152601860248201527f52657120747970652063616e6e6f7420626520656d7074790000000000000000604482015260640161030d565b602080820151604080518084019091526000905280519101207fc5d2460186f7233c927e7db2dcc703c0e500b653ca82273b7bfad8045d85a47003610924576040517f08c379a000000000000000000000000000000000000000000000000000000000815260206004820152601960248201527f526571206c6f6769632063616e6e6f7420626520656d70747900000000000000604482015260640161030d565b6109707f00000000000000000000000000000000000000000000000000000000000000007f000000000000000000000000000000000000000000000000000000000000000088846115bb565b98975050505050505050565b6000610986610ce2565b600080600080600080600080898060200190518101906109a69190613bec565b97509750975097509750975097509750600060405180608001604052808681526020018581526020018463ffffffff168152602001838152509050610a0b7f00000000000000000000000000000000000000000000000000000000000000008a610d18565b15610a72576040517f08c379a000000000000000000000000000000000000000000000000000000000815260206004820152600e60248201527f476f616c20616c72206578697374000000000000000000000000000000000000604482015260640161030d565b604080516020808201909252600090528851908901207fc5d2460186f7233c927e7db2dcc703c0e500b653ca82273b7bfad8045d85a47003610b10576040517f08c379a000000000000000000000000000000000000000000000000000000000815260206004820152601960248201527f476f616c206e616d652063616e6e6f7420626520656d70747900000000000000604482015260640161030d565b80516040805160208082019092526000905281519101207fc5d2460186f7233c927e7db2dcc703c0e500b653ca82273b7bfad8045d85a47003610baf576040517f08c379a000000000000000000000000000000000000000000000000000000000815260206004820152601960248201527f476f616c20747970652063616e6e6f7420626520656d70747900000000000000604482015260640161030d565b602080820151604080518084019091526000905280519101207fc5d2460186f7233c927e7db2dcc703c0e500b653ca82273b7bfad8045d85a47003610c50576040517f08c379a000000000000000000000000000000000000000000000000000000000815260206004820152601a60248201527f476f616c206c6f6769632063616e6e6f7420626520656d707479000000000000604482015260640161030d565b6106977f00000000000000000000000000000000000000000000000000000000000000008a8a8a8a866115da565b610c86610ce2565b63389a75e1600c52806000526020600c208054421115610cae57636f5e88186000526004601cfd5b6000905561034081611555565b610cc3610ce2565b8060601b610cd957637448fbae6000526004601cfd5b61034081611555565b7fffffffffffffffffffffffffffffffffffffffffffffffffffffffff748739275433146106f4576382b429006000526004601cfd5b600080610d24836118fb565b9050610d6684826040518060400160405280600481526020017f474f414c00000000000000000000000000000000000000000000000000000000815250611993565b610d71576000610d73565b805b9150505b92915050565b6000610d88826118fb565b9050610d9483826119e9565b610dbe837f62adc4221185187a288916c2630b5e1f37e9437c5b68d55bc59b9debc23f19d0611a83565b73ffffffffffffffffffffffffffffffffffffffff16634cc82215826040518263ffffffff1660e01b8152600401610df891815260200190565b600060405180830381600087803b158015610e1257600080fd5b505af1158015610e26573d6000803e3d6000fd5b50505050610e57837f2acf3c3c6b18ed6530ed0fd161fd0b65f4febe79d1182824d3263e852d29ca0360001c611a83565b73ffffffffffffffffffffffffffffffffffffffff16634cc82215826040518263ffffffff1660e01b8152600401610e9191815260200190565b600060405180830381600087803b158015610eab57600080fd5b505af1158015610ebf573d6000803e3d6000fd5b50505050610ef0837ffdbdfda9d0933af67d5682f368771753d17c0fef55c57d62a98476dd7509058060001c611a83565b73ffffffffffffffffffffffffffffffffffffffff16634cc82215826040518263ffffffff1660e01b8152600401610f2a91815260200190565b600060405180830381600087803b158015610f4457600080fd5b505af1158015610f58573d6000803e3d6000fd5b50505050610f89837f3be9611062b8582cf4b9a4eafe577dbde7dcd7779a1efb46d73e212026c4b0cc60001c611a83565b73ffffffffffffffffffffffffffffffffffffffff16634cc82215826040518263ffffffff1660e01b8152600401610fc391815260200190565b600060405180830381600087803b158015610fdd57600080fd5b505af1158015610ff1573d6000803e3d6000fd5b50505050611022837f9522897410526014691d8a863fac7bd2e048ab08176b6e3c6fa8a1f5195164bb60001c611a83565b73ffffffffffffffffffffffffffffffffffffffff16634cc82215826040518263ffffffff1660e01b815260040161105c91815260200190565b600060405180830381600087803b15801561107657600080fd5b505af115801561108a573d6000803e3d6000fd5b50505050600061109982611bc7565b90506110a58482611c02565b60006110b18585611f29565b905060005b81518110156110f4576110e2868383815181106110d5576110d5613cd5565b6020026020010151611f44565b806110ec81613d33565b9150506110b6565b5060006111018686612011565b905060005b8151811015611144576111328783838151811061112557611125613cd5565b6020026020010151612020565b8061113c81613d33565b915050611106565b50505050505050565b6000806111598b6120ed565b90508563ffffffff166000036111865761117f81886111798f858c61214d565b8c612169565b9150611195565b6111928188888c612169565b91505b6111ad8c836111a38e6120ed565b8a8a8a8a8a6121c1565b6111d78c7f2acf3c3c6b18ed6530ed0fd161fd0b65f4febe79d1182824d3263e852d29ca03611a83565b73ffffffffffffffffffffffffffffffffffffffff166364371977838c6040518363ffffffff1660e01b8152600401611211929190613d6b565b600060405180830381600087803b15801561122b57600080fd5b505af115801561123f573d6000803e3d6000fd5b505050506112708c7f787589c9eda599ea35279a6d93e360e8fdc5402255545ca394f5033f5e58ed4260001c611a83565b73ffffffffffffffffffffffffffffffffffffffff166364371977838a6040518363ffffffff1660e01b81526004016112aa929190613d6b565b600060405180830381600087803b1580156112c457600080fd5b505af11580156112d8573d6000803e3d6000fd5b505060408051808201909152600681527f52455741524400000000000000000000000000000000000000000000000000006020918201528a51908b01207f0b9821ae606ebc7c79bf3390bdd3dc93e1b4a7cda27aad60646e7b88ff55b0011491506113409050565b806113a4575060408051808201909152600c81527f444953504c41595f4f4e4c5900000000000000000000000000000000000000006020918201528851908901207f7c8cfa4ac1cc53cae64222dfbf1af94d4b648a17373a579a18940a1e7a2409d1145b611430576040517f08c379a000000000000000000000000000000000000000000000000000000000815260206004820152602560248201527f4c6962476f616c733a20696e76616c696420726577617264206469737472696260448201527f7574696f6e000000000000000000000000000000000000000000000000000000606482015260840161030d565b60408051808201909152600c81527f444953504c41595f4f4e4c5900000000000000000000000000000000000000006020918201528851908901207f7c8cfa4ac1cc53cae64222dfbf1af94d4b648a17373a579a18940a1e7a2409d114611545576114bb8c7ff8911dfd3f908e7a27ff20b80381dc7334f6abc557cdd58de4a9bfb47ebde734611a83565b6040517f1ab06ee500000000000000000000000000000000000000000000000000000000815260048101849052602481018b905273ffffffffffffffffffffffffffffffffffffffff9190911690631ab06ee590604401600060405180830381600087803b15801561152c57600080fd5b505af1158015611540573d6000803e3d6000fd5b505050505b509b9a5050505050505050505050565b7fffffffffffffffffffffffffffffffffffffffffffffffffffffffff74873927805473ffffffffffffffffffffffffffffffffffffffff9092169182907f8be0079c531659141344cd1fd0a4f28419497f9722a3daafe3b4186f6b6457e0600080a355565b60006115d18585846115cc876125f4565b612654565b95945050505050565b60006115e5866118fb565b905061162787826040518060400160405280600481526020017f474f414c0000000000000000000000000000000000000000000000000000000081525061278f565b611651877f62adc4221185187a288916c2630b5e1f37e9437c5b68d55bc59b9debc23f19d0611a83565b6040517fd923c3c40000000000000000000000000000000000000000000000000000000081526004810183905263ffffffff8816602482015273ffffffffffffffffffffffffffffffffffffffff919091169063d923c3c490604401600060405180830381600087803b1580156116c757600080fd5b505af11580156116db573d6000803e3d6000fd5b5050505061170c877f2acf3c3c6b18ed6530ed0fd161fd0b65f4febe79d1182824d3263e852d29ca0360001c611a83565b73ffffffffffffffffffffffffffffffffffffffff16636437197782876040518363ffffffff1660e01b8152600401611746929190613d6b565b600060405180830381600087803b15801561176057600080fd5b505af1158015611774573d6000803e3d6000fd5b505050506117a5877ffdbdfda9d0933af67d5682f368771753d17c0fef55c57d62a98476dd7509058060001c611a83565b73ffffffffffffffffffffffffffffffffffffffff16636437197782866040518363ffffffff1660e01b81526004016117df929190613d6b565b600060405180830381600087803b1580156117f957600080fd5b505af115801561180d573d6000803e3d6000fd5b505050508263ffffffff166000146118d857611849877f3be9611062b8582cf4b9a4eafe577dbde7dcd7779a1efb46d73e212026c4b0cc611a83565b6040517fd923c3c40000000000000000000000000000000000000000000000000000000081526004810183905263ffffffff8516602482015273ffffffffffffffffffffffffffffffffffffffff919091169063d923c3c490604401600060405180830381600087803b1580156118bf57600080fd5b505af11580156118d3573d6000803e3d6000fd5b505050505b60006118e382611bc7565b90506118f0888285612821565b509695505050505050565b6040517f676f616c0000000000000000000000000000000000000000000000000000000060208201527fffffffff0000000000000000000000000000000000000000000000000000000060e083901b1660248201526000906028015b604080517fffffffffffffffffffffffffffffffffffffffffffffffffffffffffffffffe0818403018152919052805160209091012092915050565b60006119e183836119c4877f5d88ced8d8e079072bf73f49fc87661b519c50d79482941abb852ba2b10909cd611a83565b73ffffffffffffffffffffffffffffffffffffffff16919061296f565b949350505050565b611a13827f5d88ced8d8e079072bf73f49fc87661b519c50d79482941abb852ba2b10909cd611a83565b73ffffffffffffffffffffffffffffffffffffffff16634cc82215826040518263ffffffff1660e01b8152600401611a4d91815260200190565b600060405180830381600087803b158015611a6757600080fd5b505af1158015611a7b573d6000803e3d6000fd5b505050505050565b6040517ffbdfa1ea00000000000000000000000000000000000000000000000000000000815260048101829052600090819073ffffffffffffffffffffffffffffffffffffffff85169063fbdfa1ea90602401600060405180830381865afa158015611af3573d6000803e3d6000fd5b505050506040513d6000823e601f3d9081017fffffffffffffffffffffffffffffffffffffffffffffffffffffffffffffffe0168201604052611b399190810190613d84565b90508051600003611ba6576040517f08c379a000000000000000000000000000000000000000000000000000000000815260206004820152601160248201527f6964206e6f742072656769737465726564000000000000000000000000000000604482015260640161030d565b610d7381600081518110611bbc57611bbc613cd5565b602002602001015190565b6040517f676f616c2e6f626a6563746976650000000000000000000000000000000000006020820152602e8101829052600090604e01611957565b611c2c827f024accd0d273ef6123273b21662f5cc055a7d58adf98cc1b060edd029af93f7f611a83565b73ffffffffffffffffffffffffffffffffffffffff16634cc82215826040518263ffffffff1660e01b8152600401611c6691815260200190565b600060405180830381600087803b158015611c8057600080fd5b505af1158015611c94573d6000803e3d6000fd5b50505050611cc5827f787589c9eda599ea35279a6d93e360e8fdc5402255545ca394f5033f5e58ed4260001c611a83565b73ffffffffffffffffffffffffffffffffffffffff16634cc82215826040518263ffffffff1660e01b8152600401611cff91815260200190565b600060405180830381600087803b158015611d1957600080fd5b505af1158015611d2d573d6000803e3d6000fd5b50505050611d5e827f62adc4221185187a288916c2630b5e1f37e9437c5b68d55bc59b9debc23f19d060001c611a83565b73ffffffffffffffffffffffffffffffffffffffff16634cc82215826040518263ffffffff1660e01b8152600401611d9891815260200190565b600060405180830381600087803b158015611db257600080fd5b505af1158015611dc6573d6000803e3d6000fd5b50505050611df7827fb25ea67b55901db62e4b14311a8c1ab178fec3948b4b493a711970a50aa2a2e160001c611a83565b73ffffffffffffffffffffffffffffffffffffffff16634cc82215826040518263ffffffff1660e01b8152600401611e3191815260200190565b600060405180830381600087803b158015611e4b57600080fd5b505af1158015611e5f573d6000803e3d6000fd5b50505050611e90827fde0f9b459fab67ff56929343dacb07b0c0a1f8509d3184dc6d736f68b80381de60001c611a83565b73ffffffffffffffffffffffffffffffffffffffff16634cc82215826040518263ffffffff1660e01b8152600401611eca91815260200190565b600060405180830381600087803b158015611ee457600080fd5b505af1158015611ef8573d6000803e3d6000fd5b50505050611a13827fa7b4bd2d760054205ea7cf761a119827e2316646eabcbc6653656187e7d030cb60001c611a83565b6060611f3d83611f38846125f4565b612992565b9392505050565b611f4e8282611c02565b611f78827f2acf3c3c6b18ed6530ed0fd161fd0b65f4febe79d1182824d3263e852d29ca03611a83565b73ffffffffffffffffffffffffffffffffffffffff16634cc82215826040518263ffffffff1660e01b8152600401611fb291815260200190565b600060405180830381600087803b158015611fcc57600080fd5b505af1158015611fe0573d6000803e3d6000fd5b50505050611a13827ff8911dfd3f908e7a27ff20b80381dc7334f6abc557cdd58de4a9bfb47ebde73460001c611a83565b6060611f3d83611f38846120ed565b61202a8282612a5b565b612054827f787589c9eda599ea35279a6d93e360e8fdc5402255545ca394f5033f5e58ed42611a83565b73ffffffffffffffffffffffffffffffffffffffff16634cc82215826040518263ffffffff1660e01b815260040161208e91815260200190565b600060405180830381600087803b1580156120a857600080fd5b505af11580156120bc573d6000803e3d6000fd5b50505050611f78827f2acf3c3c6b18ed6530ed0fd161fd0b65f4febe79d1182824d3263e852d29ca0360001c611a83565b6040517f676f616c2e72657761726400000000000000000000000000000000000000000060208201527fffffffff0000000000000000000000000000000000000000000000000000000060e083901b16602b820152600090602f01611957565b60008061215b858585612cca565b5190506115d1816001613db9565b6000848484846040516020016121829493929190613dcc565b604080517fffffffffffffffffffffffffffffffffffffffffffffffffffffffffffffffe0818403018152919052805160209091012095945050505050565b60006121ed897fb25ea67b55901db62e4b14311a8c1ab178fec3948b4b493a711970a50aa2a2e1611a83565b6040517fcccf7a8e000000000000000000000000000000000000000000000000000000008152600481018a905290915073ffffffffffffffffffffffffffffffffffffffff82169063cccf7a8e90602401602060405180830381865afa15801561225b573d6000803e3d6000fd5b505050506040513d601f19601f8201168201806040525081019061227f9190613e50565b156122e6576040517f08c379a000000000000000000000000000000000000000000000000000000000815260206004820152601660248201527f5265776172643a20616c72656164792065786973747300000000000000000000604482015260640161030d565b612310897fde0f9b459fab67ff56929343dacb07b0c0a1f8509d3184dc6d736f68b80381de611a83565b6040517f1ab06ee5000000000000000000000000000000000000000000000000000000008152600481018a90526024810189905273ffffffffffffffffffffffffffffffffffffffff9190911690631ab06ee590604401600060405180830381600087803b15801561238157600080fd5b505af1158015612395573d6000803e3d6000fd5b505050506123c6897f024accd0d273ef6123273b21662f5cc055a7d58adf98cc1b060edd029af93f7f60001c611a83565b73ffffffffffffffffffffffffffffffffffffffff16636437197789886040518363ffffffff1660e01b8152600401612400929190613d6b565b600060405180830381600087803b15801561241a57600080fd5b505af115801561242e573d6000803e3d6000fd5b5050505061245f897f62adc4221185187a288916c2630b5e1f37e9437c5b68d55bc59b9debc23f19d060001c611a83565b6040517fd923c3c4000000000000000000000000000000000000000000000000000000008152600481018a905263ffffffff8716602482015273ffffffffffffffffffffffffffffffffffffffff919091169063d923c3c490604401600060405180830381600087803b1580156124d557600080fd5b505af11580156124e9573d6000803e3d6000fd5b50506040517f1ab06ee5000000000000000000000000000000000000000000000000000000008152600481018b90526024810185905273ffffffffffffffffffffffffffffffffffffffff84169250631ab06ee59150604401600060405180830381600087803b15801561255c57600080fd5b505af1158015612570573d6000803e3d6000fd5b505060408051808201909152600e81527f4954454d5f44524f505441424c450000000000000000000000000000000000006020918201528851908901207f279a278842b575fd3b23481f3a18c340199cd2454b90e6615863f83352238a8d1491506125d89050565b156125e9576125e989898686612e52565b505050505050505050565b6040517f676f616c2e726571756972656d656e740000000000000000000000000000000060208201527fffffffff0000000000000000000000000000000000000000000000000000000060e083901b166030820152600090603401611957565b60008473ffffffffffffffffffffffffffffffffffffffff1663614bfa6e6040518163ffffffff1660e01b81526004016020604051808303816000875af11580156126a3573d6000803e3d6000fd5b505050506040513d601f19601f820116820180604052508101906126c79190613e72565b90506126d4848285612821565b6126fe847fde0f9b459fab67ff56929343dacb07b0c0a1f8509d3184dc6d736f68b80381de611a83565b6040517f1ab06ee5000000000000000000000000000000000000000000000000000000008152600481018390526024810184905273ffffffffffffffffffffffffffffffffffffffff9190911690631ab06ee590604401600060405180830381600087803b15801561276f57600080fd5b505af1158015612783573d6000803e3d6000fd5b50505050949350505050565b6127b9837f5d88ced8d8e079072bf73f49fc87661b519c50d79482941abb852ba2b10909cd611a83565b73ffffffffffffffffffffffffffffffffffffffff16636437197783836040518363ffffffff1660e01b81526004016127f3929190613d6b565b600060405180830381600087803b15801561280d57600080fd5b505af1158015611144573d6000803e3d6000fd5b612835838383600001518460200151612f87565b604081015163ffffffff16156128ef5761286f837f62adc4221185187a288916c2630b5e1f37e9437c5b68d55bc59b9debc23f19d0611a83565b73ffffffffffffffffffffffffffffffffffffffff1663d923c3c48383604001516040518363ffffffff1660e01b81526004016128bc92919091825263ffffffff16602082015260400190565b600060405180830381600087803b1580156128d657600080fd5b505af11580156128ea573d6000803e3d6000fd5b505050505b60608101511561296a57612923837fb25ea67b55901db62e4b14311a8c1ab178fec3948b4b493a711970a50aa2a2e1611a83565b73ffffffffffffffffffffffffffffffffffffffff16631ab06ee58383606001516040518363ffffffff1660e01b81526004016127f3929190918252602082015260400190565b505050565b60006119e18261297f8686613084565b8151602092830120815191909201201490565b60606129be837fde0f9b459fab67ff56929343dacb07b0c0a1f8509d3184dc6d736f68b80381de611a83565b73ffffffffffffffffffffffffffffffffffffffff1663fbdfa1ea836040518263ffffffff1660e01b81526004016129f891815260200190565b600060405180830381865afa158015612a15573d6000803e3d6000fd5b505050506040513d6000823e601f3d9081017fffffffffffffffffffffffffffffffffffffffffffffffffffffffffffffffe0168201604052611f3d9190810190613d84565b612a85827fde0f9b459fab67ff56929343dacb07b0c0a1f8509d3184dc6d736f68b80381de611a83565b73ffffffffffffffffffffffffffffffffffffffff16634cc82215826040518263ffffffff1660e01b8152600401612abf91815260200190565b600060405180830381600087803b158015612ad957600080fd5b505af1158015612aed573d6000803e3d6000fd5b50505050612b1e827f024accd0d273ef6123273b21662f5cc055a7d58adf98cc1b060edd029af93f7f60001c611a83565b73ffffffffffffffffffffffffffffffffffffffff16634cc82215826040518263ffffffff1660e01b8152600401612b5891815260200190565b600060405180830381600087803b158015612b7257600080fd5b505af1158015612b86573d6000803e3d6000fd5b50505050612bb7827f62adc4221185187a288916c2630b5e1f37e9437c5b68d55bc59b9debc23f19d060001c611a83565b73ffffffffffffffffffffffffffffffffffffffff16634cc82215826040518263ffffffff1660e01b8152600401612bf191815260200190565b600060405180830381600087803b158015612c0b57600080fd5b505af1158015612c1f573d6000803e3d6000fd5b50505050612c50827fb25ea67b55901db62e4b14311a8c1ab178fec3948b4b493a711970a50aa2a2e160001c611a83565b73ffffffffffffffffffffffffffffffffffffffff16634cc82215826040518263ffffffff1660e01b8152600401612c8a91815260200190565b600060405180830381600087803b158015612ca457600080fd5b505af1158015612cb8573d6000803e3d6000fd5b50505050612cc68282613170565b5050565b604080516002808252606082810190935260009190816020015b60408051606080820183526000808352602083015291810191909152815260200190600190039081612ce457505060408051606081019091526002815290915060208101612d52877fde0f9b459fab67ff56929343dacb07b0c0a1f8509d3184dc6d736f68b80381de613233565b73ffffffffffffffffffffffffffffffffffffffff16815260200185604051602001612d8091815260200190565b60405160208183030381529060405281525081600081518110612da557612da5613cd5565b602090810291909101015260408051606081019091528060028152602001612ded877f024accd0d273ef6123273b21662f5cc055a7d58adf98cc1b060edd029af93f7f613233565b73ffffffffffffffffffffffffffffffffffffffff16815260200184604051602001612e1991906138d3565b60405160208183030381529060405281525081600181518110612e3e57612e3e613cd5565b60200260200101819052506115d18161323f565b612e7c847fc6a29e9d963ddf0ecc32d72ae16fddf22661517259c701d58065adfefd57eb02611a83565b73ffffffffffffffffffffffffffffffffffffffff1663f96911fa84846040518363ffffffff1660e01b8152600401612eb6929190613eba565b600060405180830381600087803b158015612ed057600080fd5b505af1158015612ee4573d6000803e3d6000fd5b50505050612f15847fc5feb1aac7c8c1b30106b97e2241d75b44c975ca1e5f2f5e02394d8d4257f88c60001c611a83565b73ffffffffffffffffffffffffffffffffffffffff1663946aadc684836040518363ffffffff1660e01b8152600401612f4f929190613f49565b600060405180830381600087803b158015612f6957600080fd5b505af1158015612f7d573d6000803e3d6000fd5b5050505050505050565b612fb1847f024accd0d273ef6123273b21662f5cc055a7d58adf98cc1b060edd029af93f7f611a83565b73ffffffffffffffffffffffffffffffffffffffff16636437197784846040518363ffffffff1660e01b8152600401612feb929190613d6b565b600060405180830381600087803b15801561300557600080fd5b505af1158015613019573d6000803e3d6000fd5b5050505061304a847f787589c9eda599ea35279a6d93e360e8fdc5402255545ca394f5033f5e58ed4260001c611a83565b73ffffffffffffffffffffffffffffffffffffffff16636437197784836040518363ffffffff1660e01b8152600401612f4f929190613d6b565b6040517fdd98e3c90000000000000000000000000000000000000000000000000000000081526004810182905260609060009073ffffffffffffffffffffffffffffffffffffffff85169063dd98e3c990602401600060405180830381865afa1580156130f5573d6000803e3d6000fd5b505050506040513d6000823e601f3d9081017fffffffffffffffffffffffffffffffffffffffffffffffffffffffffffffffe016820160405261313b9190810190613f62565b9050805160000361315c575050604080516020810190915260008152610d77565b80806020019051810190610d739190613f62565b61319a827fc6a29e9d963ddf0ecc32d72ae16fddf22661517259c701d58065adfefd57eb02611a83565b73ffffffffffffffffffffffffffffffffffffffff16634cc82215826040518263ffffffff1660e01b81526004016131d491815260200190565b600060405180830381600087803b1580156131ee57600080fd5b505af1158015613202573d6000803e3d6000fd5b50505050611a13827fc5feb1aac7c8c1b30106b97e2241d75b44c975ca1e5f2f5e02394d8d4257f88c60001c611a83565b6000611f3d8383611a83565b606081516000036132635760408051600080825260208201909252905b5092915050565b60028260008151811061327857613278613cd5565b602002602001015160000151600381111561329557613295613e8b565b146132cc576040517feec45f3600000000000000000000000000000000000000000000000000000000815260040160405180910390fd5b6000826000815181106132e1576132e1613cd5565b60200260200101516020015173ffffffffffffffffffffffffffffffffffffffff1663b361be468460008151811061331b5761331b613cd5565b6020026020010151604001516040518263ffffffff1660e01b815260040161334391906138d3565b600060405180830381865afa158015613360573d6000803e3d6000fd5b505050506040513d6000823e601f3d9081017fffffffffffffffffffffffffffffffffffffffffffffffffffffffffffffffe01682016040526133a69190810190613d84565b905060015b835181101561325c576133d78482815181106133c9576133c9613cd5565b6020026020010151836133eb565b9150806133e381613d33565b9150506133ab565b60606000836020015173ffffffffffffffffffffffffffffffffffffffff16634323c4ef846040518263ffffffff1660e01b815260040161342c9190613f97565b600060405180830381865afa158015613449573d6000803e3d6000fd5b505050506040513d6000823e601f3d9081017fffffffffffffffffffffffffffffffffffffffffffffffffffffffffffffffe016820160405261348f9190810190613faa565b90506000805b825181101561350b576134c1868483815181106134b4576134b4613cd5565b6020026020010151613516565b156134d857816134d081613d33565b9250506134f9565b60008582815181106134ec576134ec613cd5565b6020026020010181815250505b8061350381613d33565b915050613495565b506115d184826135fd565b6000808351600381111561352c5761352c613e8b565b0361353b575080511515610d77565b60028351600381111561355057613550613e8b565b03613571578180519060200120836040015180519060200120149050610d77565b60018351600381111561358657613586613e8b565b036135945750805115610d77565b6003835160038111156135a9576135a9613e8b565b036135cb57818051906020012083604001518051906020012014159050610d77565b6040517feec45f3600000000000000000000000000000000000000000000000000000000815260040160405180910390fd5b60608160000361361c5750604080516000815260208101909152610d77565b60008267ffffffffffffffff81111561363757613637613721565b604051908082528060200260200182016040528015613660578160200160208202803683370190505b5090506000805b85518110156136e85785818151811061368257613682613cd5565b60200260200101516000146136d6578581815181106136a3576136a3613cd5565b60200260200101518383806136b790613d33565b9450815181106136c9576136c9613cd5565b6020026020010181815250505b806136e081613d33565b915050613667565b5090949350505050565b63ffffffff8116811461034057600080fd5b60006020828403121561371657600080fd5b8135610d71816136f2565b7f4e487b7100000000000000000000000000000000000000000000000000000000600052604160045260246000fd5b604051601f82017fffffffffffffffffffffffffffffffffffffffffffffffffffffffffffffffe016810167ffffffffffffffff8111828210171561379757613797613721565b604052919050565b600067ffffffffffffffff8211156137b9576137b9613721565b50601f017fffffffffffffffffffffffffffffffffffffffffffffffffffffffffffffffe01660200190565b6000602082840312156137f757600080fd5b813567ffffffffffffffff81111561380e57600080fd5b8201601f8101841361381f57600080fd5b803561383261382d8261379f565b613750565b81815285602083850101111561384757600080fd5b81602084016020830137600091810160200191909152949350505050565b60005b83811015613880578181015183820152602001613868565b50506000910152565b600081518084526138a1816020860160208601613865565b601f017fffffffffffffffffffffffffffffffffffffffffffffffffffffffffffffffe0169290920160200192915050565b602081526000611f3d6020830184613889565b6000602082840312156138f857600080fd5b813573ffffffffffffffffffffffffffffffffffffffff81168114610d7157600080fd5b80516103af816136f2565b600082601f83011261393857600080fd5b815161394661382d8261379f565b81815284602083860101111561395b57600080fd5b6119e1826020830160208701613865565b600067ffffffffffffffff82111561398657613986613721565b5060051b60200190565b600082601f8301126139a157600080fd5b815160206139b161382d8361396c565b82815260059290921b840181019181810190868411156139d057600080fd5b8286015b848110156118f05780516139e7816136f2565b83529183019183016139d4565b600082601f830112613a0557600080fd5b81516020613a1561382d8361396c565b82815260059290921b84018101918181019086841115613a3457600080fd5b8286015b848110156118f05780518352918301918301613a38565b60008060008060008060008060006101208a8c031215613a6e57600080fd5b613a778a61391c565b985060208a015167ffffffffffffffff80821115613a9457600080fd5b613aa08d838e01613927565b995060408c0151985060608c0151915080821115613abd57600080fd5b613ac98d838e01613927565b975060808c0151915080821115613adf57600080fd5b613aeb8d838e01613927565b9650613af960a08d0161391c565b955060c08c0151915080821115613b0f57600080fd5b613b1b8d838e01613990565b945060e08c0151915080821115613b3157600080fd5b50613b3e8c828d016139f4565b9250506101008a015190509295985092959850929598565b600080600080600060a08688031215613b6e57600080fd5b8551613b79816136f2565b602087015190955067ffffffffffffffff80821115613b9757600080fd5b613ba389838a01613927565b95506040880151915080821115613bb957600080fd5b50613bc688828901613927565b9350506060860151613bd7816136f2565b80925050608086015190509295509295909350565b600080600080600080600080610100898b031215613c0957600080fd5b613c128961391c565b9750602089015167ffffffffffffffff80821115613c2f57600080fd5b613c3b8c838d01613927565b985060408b0151915080821115613c5157600080fd5b613c5d8c838d01613927565b9750613c6b60608c0161391c565b965060808b0151915080821115613c8157600080fd5b613c8d8c838d01613927565b955060a08b0151915080821115613ca357600080fd5b50613cb08b828c01613927565b935050613cbf60c08a0161391c565b915060e089015190509295985092959890939650565b7f4e487b7100000000000000000000000000000000000000000000000000000000600052603260045260246000fd5b7f4e487b7100000000000000000000000000000000000000000000000000000000600052601160045260246000fd5b60007fffffffffffffffffffffffffffffffffffffffffffffffffffffffffffffffff8203613d6457613d64613d04565b5060010190565b8281526040602082015260006119e16040830184613889565b600060208284031215613d9657600080fd5b815167ffffffffffffffff811115613dad57600080fd5b610d73848285016139f4565b80820180821115610d7757610d77613d04565b7f7265776172642e696e7374616e63650000000000000000000000000000000000815284600f82015260008451613e0a81602f850160208901613865565b80830190507fffffffff000000000000000000000000000000000000000000000000000000008560e01b16602f8201528360338201526053810191505095945050505050565b600060208284031215613e6257600080fd5b81518015158114610d7157600080fd5b600060208284031215613e8457600080fd5b5051919050565b7f4e487b7100000000000000000000000000000000000000000000000000000000600052602160045260246000fd5b6000604082018483526020604081850152818551808452606086019150828701935060005b81811015613f0157845163ffffffff1683529383019391830191600101613edf565b5090979650505050505050565b600081518084526020808501945080840160005b83811015613f3e57815187529582019590820190600101613f22565b509495945050505050565b8281526040602082015260006119e16040830184613f0e565b600060208284031215613f7457600080fd5b815167ffffffffffffffff811115613f8b57600080fd5b610d7384828501613927565b602081526000611f3d6020830184613f0e565b60006020808385031215613fbd57600080fd5b825167ffffffffffffffff80821115613fd557600080fd5b818501915085601f830112613fe957600080fd5b8151613ff761382d8261396c565b81815260059190911b8301840190848101908883111561401657600080fd5b8585015b8381101561404e578051858111156140325760008081fd5b6140408b89838a0101613927565b84525091860191860161401a565b509897505050505050505056fea2646970667358221220388e0dc4f5540dcdd4da7a75f8ce3c1bfec77368950cf5a0aa2ddf78ac904c0664736f6c63430008110033","linkReferences":{}},"methodIdentifiers":{"addRequirement(bytes)":"7e534103","addReward(bytes)":"32007bd4","cancelOwnershipHandover()":"54d1f13d","completeOwnershipHandover(address)":"f04e283e","create(bytes)":"cf5ba53f","deprecate()":"0fcc0c28","execute(bytes)":"09c5eabe","owner()":"8da5cb5b","ownershipHandoverExpiresAt(address)":"fee81cf4","remove(uint32)":"00d84fd8","renounceOwnership()":"715018a6","requestOwnershipHandover()":"25692962","transferOwnership(address)":"f2fde38b"},"id":299}