{"abi":[{"type":"constructor","inputs":[{"name":"_world","type":"address","internalType":"contract IWorld"},{"name":"_components","type":"address","internalType":"address"}],"stateMutability":"nonpayable"},{"type":"function","name":"addStat","inputs":[{"name":"index","type":"uint32","internalType":"uint32"},{"name":"type_","type":"string","internalType":"string"},{"name":"value","type":"int32","internalType":"int32"}],"outputs":[],"stateMutability":"nonpayable"},{"type":"function","name":"cancelOwnershipHandover","inputs":[],"outputs":[],"stateMutability":"payable"},{"type":"function","name":"completeOwnershipHandover","inputs":[{"name":"pendingOwner","type":"address","internalType":"address"}],"outputs":[],"stateMutability":"payable"},{"type":"function","name":"create","inputs":[{"name":"arguments","type":"bytes","internalType":"bytes"}],"outputs":[{"name":"","type":"uint256","internalType":"uint256"}],"stateMutability":"nonpayable"},{"type":"function","name":"createConsumable","inputs":[{"name":"arguments","type":"bytes","internalType":"bytes"}],"outputs":[{"name":"","type":"uint256","internalType":"uint256"}],"stateMutability":"nonpayable"},{"type":"function","name":"createLootbox","inputs":[{"name":"arguments","type":"bytes","internalType":"bytes"}],"outputs":[{"name":"","type":"uint256","internalType":"uint256"}],"stateMutability":"nonpayable"},{"type":"function","name":"deprecate","inputs":[],"outputs":[],"stateMutability":"nonpayable"},{"type":"function","name":"execute","inputs":[{"name":"arguments","type":"bytes","internalType":"bytes"}],"outputs":[{"name":"","type":"bytes","internalType":"bytes"}],"stateMutability":"nonpayable"},{"type":"function","name":"owner","inputs":[],"outputs":[{"name":"result","type":"address","internalType":"address"}],"stateMutability":"view"},{"type":"function","name":"ownershipHandoverExpiresAt","inputs":[{"name":"pendingOwner","type":"address","internalType":"address"}],"outputs":[{"name":"result","type":"uint256","internalType":"uint256"}],"stateMutability":"view"},{"type":"function","name":"remove","inputs":[{"name":"index","type":"uint32","internalType":"uint32"}],"outputs":[],"stateMutability":"nonpayable"},{"type":"function","name":"renounceOwnership","inputs":[],"outputs":[],"stateMutability":"payable"},{"type":"function","name":"requestOwnershipHandover","inputs":[],"outputs":[],"stateMutability":"payable"},{"type":"function","name":"setRoom","inputs":[{"name":"index","type":"uint32","internalType":"uint32"},{"name":"roomIndex","type":"uint32","internalType":"uint32"}],"outputs":[],"stateMutability":"nonpayable"},{"type":"function","name":"setUnburnable","inputs":[{"name":"index","type":"uint32","internalType":"uint32"}],"outputs":[],"stateMutability":"nonpayable"},{"type":"function","name":"transferOwnership","inputs":[{"name":"newOwner","type":"address","internalType":"address"}],"outputs":[],"stateMutability":"payable"},{"type":"event","name":"OwnershipHandoverCanceled","inputs":[{"name":"pendingOwner","type":"address","indexed":true,"internalType":"address"}],"anonymous":false},{"type":"event","name":"OwnershipHandoverRequested","inputs":[{"name":"pendingOwner","type":"address","indexed":true,"internalType":"address"}],"anonymous":false},{"type":"event","name":"OwnershipTransferred","inputs":[{"name":"oldOwner","type":"address","indexed":true,"internalType":"address"},{"name":"newOwner","type":"address","indexed":true,"internalType":"address"}],"anonymous":false},{"type":"event","name":"SystemDeprecated","inputs":[],"anonymous":false},{"type":"error","name":"AlreadyInitialized","inputs":[]},{"type":"error","name":"NewOwnerIsZeroAddress","inputs":[]},{"type":"error","name":"NoHandoverRequest","inputs":[]},{"type":"error","name":"Unauthorized","inputs":[]}],"bytecode":{"object":"0x60c06040523480156200001157600080fd5b50604051620035c3380380620035c383398101604081905262000034916200012f565b81816200004133620000dc565b6001600160a01b03811615620000585780620000bd565b816001600160a01b031663ba62fbe46040518163ffffffff1660e01b8152600401602060405180830381865afa15801562000097573d6000803e3d6000fd5b505050506040513d601f19601f82011682018060405250810190620000bd91906200016e565b6001600160a01b039081166080529190911660a0525062000195915050565b6001600160a01b0316638b78c6d8198190558060007f8be0079c531659141344cd1fd0a4f28419497f9722a3daafe3b4186f6b6457e08180a35b50565b6001600160a01b03811681146200011657600080fd5b600080604083850312156200014357600080fd5b8251620001508162000119565b6020840151909250620001638162000119565b809150509250929050565b6000602082840312156200018157600080fd5b81516200018e8162000119565b9392505050565b60805160a0516133a2620002216000396000505060008181610306015281816103a1015281816104cd01528181610563015281816105e70152818161067d015281816106e001528181610773015281816107d801528181610840015281816108d301528181610934015281816109c7015281816109f701528181610a930152610b2901526133a26000f3fe6080604052600436106100f25760003560e01c806396a2c1d31161008a578063f04e283e11610059578063f04e283e1461027e578063f2fde38b14610291578063fc81660a146102a4578063fee81cf4146102c457600080fd5b806396a2c1d3146101f0578063b72c600114610210578063cf5ba53f1461023e578063e96e38361461025e57600080fd5b806335727b4e116100c657806335727b4e1461016c57806354d1f13d1461018c578063715018a6146101945780638da5cb5b1461019c57600080fd5b8062d84fd8146100f757806309c5eabe146101195780630fcc0c281461014f5780632569296214610164575b600080fd5b34801561010357600080fd5b50610117610112366004612b85565b6102f7565b005b34801561012557600080fd5b50610139610134366004612ca4565b6103ca565b6040516101469190612d5b565b60405180910390f35b34801561015b57600080fd5b5061011761043b565b61011761046e565b34801561017857600080fd5b50610117610187366004612b85565b6104be565b610117610588565b6101176105c4565b3480156101a857600080fd5b507fffffffffffffffffffffffffffffffffffffffffffffffffffffffff748739275460405173ffffffffffffffffffffffffffffffffffffffff9091168152602001610146565b3480156101fc57600080fd5b5061011761020b366004612d6e565b6105d8565b34801561021c57600080fd5b5061023061022b366004612ca4565b6106a8565b604051908152602001610146565b34801561024a57600080fd5b50610230610259366004612ca4565b61080b565b34801561026a57600080fd5b50610230610279366004612ca4565b6108fc565b61011761028c366004612da7565b610a1d565b61011761029f366004612da7565b610a5d565b3480156102b057600080fd5b506101176102bf366004612ddd565b610a84565b3480156102d057600080fd5b506102306102df366004612da7565b63389a75e1600c908152600091909152602090205490565b6102ff610b56565b600061032b7f000000000000000000000000000000000000000000000000000000000000000083610b8c565b90508060000361039c576040517f08c379a000000000000000000000000000000000000000000000000000000000815260206004820152601c60248201527f4974656d5265673a206974656d20646f6573206e6f742065786973740000000060448201526064015b60405180910390fd5b6103c67f000000000000000000000000000000000000000000000000000000000000000082610cda565b5050565b60606103d4610b56565b6040517f08c379a000000000000000000000000000000000000000000000000000000000815260206004820152600f60248201527f6e6f7420696d706c656d656e74656400000000000000000000000000000000006044820152606401610393565b919050565b610443610b56565b6040517f56f33501ffd77f9fe44d81e7db7e66a66bdf52ab3e11267cdc6462763604c4c790600090a1565b60006202a30067ffffffffffffffff164201905063389a75e1600c5233600052806020600c2055337fdbf36a107da19e49527a7176a1babf963b4b0ff8cde35ee35d6cd8f1f9ac7e1d600080a250565b6104c6610b56565b60006104f27f000000000000000000000000000000000000000000000000000000000000000083610b8c565b90508060000361055e576040517f08c379a000000000000000000000000000000000000000000000000000000000815260206004820152601c60248201527f4974656d5265673a206974656d20646f6573206e6f74206578697374000000006044820152606401610393565b6103c67f000000000000000000000000000000000000000000000000000000000000000082611251565b63389a75e1600c523360005260006020600c2055337ffa7b8eab7da67f412cc9575ed43464468f9bfbae89d1675917346ca6d8fe3c92600080a2565b6105cc610b56565b6105d66000611291565b565b6105e0610b56565b600061060c7f000000000000000000000000000000000000000000000000000000000000000084610b8c565b905080600003610678576040517f08c379a000000000000000000000000000000000000000000000000000000000815260206004820152601c60248201527f4974656d5265673a206974656d20646f6573206e6f74206578697374000000006044820152606401610393565b6106a37f000000000000000000000000000000000000000000000000000000000000000082846112f7565b505050565b60006106b2610b56565b600080600080600080878060200190518101906106cf9190612f99565b9550955095509550955095506107057f000000000000000000000000000000000000000000000000000000000000000087610b8c565b1561076c576040517f08c379a000000000000000000000000000000000000000000000000000000000815260206004820152601460248201527f6974656d207265673a20696e64657820757365640000000000000000000000006044820152606401610393565b60006107d17f0000000000000000000000000000000000000000000000000000000000000000886040518060400160405280600781526020017f4c4f4f54424f5800000000000000000000000000000000000000000000000000815250898987611382565b90506107ff7f00000000000000000000000000000000000000000000000000000000000000008286866117f2565b98975050505050505050565b6000610815610b56565b600080600080600086806020019051810190610831919061307a565b945094509450945094506108657f000000000000000000000000000000000000000000000000000000000000000086610b8c565b156108cc576040517f08c379a000000000000000000000000000000000000000000000000000000000815260206004820152601460248201527f6974656d207265673a20696e64657820757365640000000000000000000000006044820152606401610393565b60006107ff7f00000000000000000000000000000000000000000000000000000000000000008787878787611382565b6000610906610b56565b60008060008060008087806020019051810190610923919061313b565b9550955095509550955095506109597f000000000000000000000000000000000000000000000000000000000000000087610b8c565b156109c0576040517f08c379a000000000000000000000000000000000000000000000000000000000815260206004820152601460248201527f6974656d207265673a20696e64657820757365640000000000000000000000006044820152606401610393565b60006109f07f00000000000000000000000000000000000000000000000000000000000000008885888887611382565b90506107ff7f00000000000000000000000000000000000000000000000000000000000000008288611927565b610a25610b56565b63389a75e1600c52806000526020600c208054421115610a4d57636f5e88186000526004601cfd5b60009055610a5a81611291565b50565b610a65610b56565b8060601b610a7b57637448fbae6000526004601cfd5b610a5a81611291565b610a8c610b56565b6000610ab87f000000000000000000000000000000000000000000000000000000000000000085610b8c565b905080600003610b24576040517f08c379a000000000000000000000000000000000000000000000000000000000815260206004820152601c60248201527f4974656d5265673a206974656d20646f6573206e6f74206578697374000000006044820152606401610393565b610b507f0000000000000000000000000000000000000000000000000000000000000000828585611932565b50505050565b7fffffffffffffffffffffffffffffffffffffffffffffffffffffffff748739275433146105d6576382b429006000526004601cfd5b600080610bb9847fd3da495fedd385ac62763d969054ffb19f1777e687374cceb91f1237ddd6bfb3611e61565b604080517f72656769737472792e6974656d0000000000000000000000000000000000000060208083019190915260e087901b7fffffffff0000000000000000000000000000000000000000000000000000000016602d83015282516011818403018152603190920190925280519101209091506000906040517fcccf7a8e0000000000000000000000000000000000000000000000000000000081526004810182905290915073ffffffffffffffffffffffffffffffffffffffff83169063cccf7a8e90602401602060405180830381865afa158015610c9e573d6000803e3d6000fd5b505050506040513d601f19601f82011682018060405250810190610cc291906131ec565b610ccd576000610ccf565b805b925050505b92915050565b610ce48282611fad565b6000610d10837fd3da495fedd385ac62763d969054ffb19f1777e687374cceb91f1237ddd6bfb3611e61565b6040517f4cc822150000000000000000000000000000000000000000000000000000000081526004810184905290915073ffffffffffffffffffffffffffffffffffffffff821690634cc8221590602401600060405180830381600087803b158015610d7b57600080fd5b505af1158015610d8f573d6000803e3d6000fd5b50505050610dc0837ff70dee74a99a7bf98a6058c2e93635b82826d8267ec7a3a05d2f12dcbf92534d60001c611e61565b73ffffffffffffffffffffffffffffffffffffffff16634cc82215836040518263ffffffff1660e01b8152600401610dfa91815260200190565b600060405180830381600087803b158015610e1457600080fd5b505af1158015610e28573d6000803e3d6000fd5b50505050610e59837f2acf3c3c6b18ed6530ed0fd161fd0b65f4febe79d1182824d3263e852d29ca0360001c611e61565b73ffffffffffffffffffffffffffffffffffffffff16634cc82215836040518263ffffffff1660e01b8152600401610e9391815260200190565b600060405180830381600087803b158015610ead57600080fd5b505af1158015610ec1573d6000803e3d6000fd5b50505050610ef2837ffdbdfda9d0933af67d5682f368771753d17c0fef55c57d62a98476dd7509058060001c611e61565b73ffffffffffffffffffffffffffffffffffffffff16634cc82215836040518263ffffffff1660e01b8152600401610f2c91815260200190565b600060405180830381600087803b158015610f4657600080fd5b505af1158015610f5a573d6000803e3d6000fd5b50505050610f8b837f024accd0d273ef6123273b21662f5cc055a7d58adf98cc1b060edd029af93f7f60001c611e61565b73ffffffffffffffffffffffffffffffffffffffff16634cc82215836040518263ffffffff1660e01b8152600401610fc591815260200190565b600060405180830381600087803b158015610fdf57600080fd5b505af1158015610ff3573d6000803e3d6000fd5b50505050611024837f4683ab681c8fb08ca17959d67c914890fbdf5a6fce1f72e885b7a2ebe6856afd60001c611e61565b73ffffffffffffffffffffffffffffffffffffffff16634cc82215836040518263ffffffff1660e01b815260040161105e91815260200190565b600060405180830381600087803b15801561107857600080fd5b505af115801561108c573d6000803e3d6000fd5b5050505061109a8383612047565b6110a48383612071565b6110ae838361209b565b6110b883836120c5565b6110c283836120ef565b6110cc8383612119565b6110f6837ff751b4a95c9cfabe52899e09ae113eac17e41cc0cc2dad670d2789ecc1251add611e61565b73ffffffffffffffffffffffffffffffffffffffff16634cc82215836040518263ffffffff1660e01b815260040161113091815260200190565b600060405180830381600087803b15801561114a57600080fd5b505af115801561115e573d6000803e3d6000fd5b5050505061116c8383612143565b6111768383612206565b6111b683836040518060400160405280600f81526020017f4954454d5f554e4255524e41424c450000000000000000000000000000000000815250612230565b6111e0837f3be9611062b8582cf4b9a4eafe577dbde7dcd7779a1efb46d73e212026c4b0cc611e61565b73ffffffffffffffffffffffffffffffffffffffff16634cc82215836040518263ffffffff1660e01b815260040161121a91815260200190565b600060405180830381600087803b15801561123457600080fd5b505af1158015611248573d6000803e3d6000fd5b50505050505050565b6106a382826040518060400160405280600f81526020017f4954454d5f554e4255524e41424c4500000000000000000000000000000000008152506123d4565b7fffffffffffffffffffffffffffffffffffffffffffffffffffffffff74873927805473ffffffffffffffffffffffffffffffffffffffff9092169182907f8be0079c531659141344cd1fd0a4f28419497f9722a3daafe3b4186f6b6457e0600080a355565b611321837f3be9611062b8582cf4b9a4eafe577dbde7dcd7779a1efb46d73e212026c4b0cc611e61565b6040517fd923c3c40000000000000000000000000000000000000000000000000000000081526004810184905263ffffffff8316602482015273ffffffffffffffffffffffffffffffffffffffff919091169063d923c3c49060440161121a565b604080517f72656769737472792e6974656d0000000000000000000000000000000000000060208083019190915260e088901b7fffffffff0000000000000000000000000000000000000000000000000000000016602d830152825160118184030181526031909201909252805191012061143387826040518060400160405280600481526020017f4954454d0000000000000000000000000000000000000000000000000000000081525061248f565b61145d877ff70dee74a99a7bf98a6058c2e93635b82826d8267ec7a3a05d2f12dcbf92534d611e61565b73ffffffffffffffffffffffffffffffffffffffff166360fe47b1826040518263ffffffff1660e01b815260040161149791815260200190565b600060405180830381600087803b1580156114b157600080fd5b505af11580156114c5573d6000803e3d6000fd5b505050506114f6877fd3da495fedd385ac62763d969054ffb19f1777e687374cceb91f1237ddd6bfb360001c611e61565b6040517fd923c3c40000000000000000000000000000000000000000000000000000000081526004810183905263ffffffff8816602482015273ffffffffffffffffffffffffffffffffffffffff919091169063d923c3c490604401600060405180830381600087803b15801561156c57600080fd5b505af1158015611580573d6000803e3d6000fd5b505050506115b1877f024accd0d273ef6123273b21662f5cc055a7d58adf98cc1b060edd029af93f7f60001c611e61565b73ffffffffffffffffffffffffffffffffffffffff16636437197782876040518363ffffffff1660e01b81526004016115eb92919061320e565b600060405180830381600087803b15801561160557600080fd5b505af1158015611619573d6000803e3d6000fd5b5050505061164a877f2acf3c3c6b18ed6530ed0fd161fd0b65f4febe79d1182824d3263e852d29ca0360001c611e61565b73ffffffffffffffffffffffffffffffffffffffff16636437197782866040518363ffffffff1660e01b815260040161168492919061320e565b600060405180830381600087803b15801561169e57600080fd5b505af11580156116b2573d6000803e3d6000fd5b505050506116e3877ffdbdfda9d0933af67d5682f368771753d17c0fef55c57d62a98476dd7509058060001c611e61565b73ffffffffffffffffffffffffffffffffffffffff16636437197782856040518363ffffffff1660e01b815260040161171d92919061320e565b600060405180830381600087803b15801561173757600080fd5b505af115801561174b573d6000803e3d6000fd5b5050505061177c877f4683ab681c8fb08ca17959d67c914890fbdf5a6fce1f72e885b7a2ebe6856afd60001c611e61565b73ffffffffffffffffffffffffffffffffffffffff16636437197782846040518363ffffffff1660e01b81526004016117b692919061320e565b600060405180830381600087803b1580156117d057600080fd5b505af11580156117e4573d6000803e3d6000fd5b505050509695505050505050565b61181c847fc6a29e9d963ddf0ecc32d72ae16fddf22661517259c701d58065adfefd57eb02611e61565b73ffffffffffffffffffffffffffffffffffffffff1663f96911fa84846040518363ffffffff1660e01b8152600401611856929190613227565b600060405180830381600087803b15801561187057600080fd5b505af1158015611884573d6000803e3d6000fd5b505050506118b5847fc5feb1aac7c8c1b30106b97e2241d75b44c975ca1e5f2f5e02394d8d4257f88c60001c611e61565b73ffffffffffffffffffffffffffffffffffffffff1663946aadc684836040518363ffffffff1660e01b81526004016118ef92919061327b565b600060405180830381600087803b15801561190957600080fd5b505af115801561191d573d6000803e3d6000fd5b5050505050505050565b6106a38383836124f3565b60408051808201909152600281527f58500000000000000000000000000000000000000000000000000000000000006020918201528251908301207faf5941cbd1b93ae9110f07202eca1ba728114daa20a7178e984cb16f65ff43ab03611a58576119bd847ff751b4a95c9cfabe52899e09ae113eac17e41cc0cc2dad670d2789ecc1251add611e61565b73ffffffffffffffffffffffffffffffffffffffff16631ab06ee5846119e58460030b61259a565b6040517fffffffff0000000000000000000000000000000000000000000000000000000060e085901b16815260048101929092526024820152604401600060405180830381600087803b158015611a3b57600080fd5b505af1158015611a4f573d6000803e3d6000fd5b50505050610b50565b60408051808201909152600681527f4845414c544800000000000000000000000000000000000000000000000000006020918201528251908301207f88ad4e672f8c8ca6cce86b10b118764bf098c06bb02cd6691dfb6641799afaa003611af857611af384846040518060800160405280600060030b8152602001600060030b8152602001600060030b81526020018560030b8152506125b0565b610b50565b60408051808201909152600981527f4d41584845414c544800000000000000000000000000000000000000000000006020918201528251908301207f71f98673eec3488c1811a6355e214591294c2888de54dbdeb9a44e858f8e501603611b9357611af384846040518060800160405280600060030b81526020018560030b8152602001600060030b8152602001600060030b8152506125b0565b60408051808201909152600581527f504f5745520000000000000000000000000000000000000000000000000000006020918201528251908301207fed8815186908135b357c7061ba3c55257b68958e2410b61db8545aeec7a2a95b03611c2e57611af384846040518060800160405280600060030b81526020018560030b8152602001600060030b8152602001600060030b815250612660565b60408051808201909152600881527f56494f4c454e43450000000000000000000000000000000000000000000000006020918201528251908301207f66910fe379de13c1d27775eceda3928de2e454ac2df414506e8c1a64951bd6ac03611cc957611af384846040518060800160405280600060030b81526020018560030b8152602001600060030b8152602001600060030b81525061268a565b60408051808201909152600781527f4841524d4f4e59000000000000000000000000000000000000000000000000006020918201528251908301207fe3dcaa062556f10827c828a9e1bfda2d60c2c23b81fd9357cf8c35389c67fe5503611d6457611af384846040518060800160405280600060030b81526020018560030b8152602001600060030b8152602001600060030b8152506126b4565b60408051808201909152600781527f5354414d494e41000000000000000000000000000000000000000000000000006020918201528251908301207fd5a7979ffc063a968e739c62c537ad288115ff53fe26bed1217a11adff77b48303611dff57611af384846040518060800160405280600060030b8152602001600060030b8152602001600060030b81526020018560030b8152506126de565b6040517f08c379a000000000000000000000000000000000000000000000000000000000815260206004820152601560248201527f4c69624974656d3a20696e76616c6964207374617400000000000000000000006044820152606401610393565b6040517ffbdfa1ea00000000000000000000000000000000000000000000000000000000815260048101829052600090819073ffffffffffffffffffffffffffffffffffffffff85169063fbdfa1ea90602401600060405180830381865afa158015611ed1573d6000803e3d6000fd5b505050506040513d6000823e601f3d9081017fffffffffffffffffffffffffffffffffffffffffffffffffffffffffffffffe0168201604052611f1791908101906132bc565b90508051600003611f84576040517f08c379a000000000000000000000000000000000000000000000000000000000815260206004820152601160248201527f6964206e6f7420726567697374657265640000000000000000000000000000006044820152606401610393565b611fa581600081518110611f9a57611f9a6132f1565b602002602001015190565b949350505050565b611fd7827f5d88ced8d8e079072bf73f49fc87661b519c50d79482941abb852ba2b10909cd611e61565b73ffffffffffffffffffffffffffffffffffffffff16634cc82215826040518263ffffffff1660e01b815260040161201191815260200190565b600060405180830381600087803b15801561202b57600080fd5b505af115801561203f573d6000803e3d6000fd5b505050505050565b611fd7827f7f11100822994501b15df98b1bd24b3eb0d73863f512da0bf8f165b0150c537d612708565b611fd7827f036642765aca64d0dc0aa7a1a5b293901589aec219fb89c7c5e7c042e927386c612708565b611fd7827f9d3e17e61f5f07f24e173edb93a8af1d5b797396ea02343c0feee16bdf497d4f612708565b611fd7827f5b5054d7f0fe411d96cb1c9605f65b42805d28ce5bb4ce216455e888cdc5373c612708565b611fd7827f3e4a46df40b228c2d9f3b8ddde72a1c29045de822f058698341c5adb1d02f17d612708565b611fd7827f1229189cff138f94363a6274f6ec5003a4a6372db248c6985d3b3301024eb8ec612708565b61216d827fc6a29e9d963ddf0ecc32d72ae16fddf22661517259c701d58065adfefd57eb02611e61565b73ffffffffffffffffffffffffffffffffffffffff16634cc82215826040518263ffffffff1660e01b81526004016121a791815260200190565b600060405180830381600087803b1580156121c157600080fd5b505af11580156121d5573d6000803e3d6000fd5b50505050611fd7827fc5feb1aac7c8c1b30106b97e2241d75b44c975ca1e5f2f5e02394d8d4257f88c60001c611e61565b611fd7827f0e980fab8730829e1930c8cdc024ae35650d9eec12d20425b19fc4ade883178c611e61565b600061223c838361271b565b9050612268847fd426585847552196ce5fddb7f2e37e8aa38f62676728e7518835f8440cf91958611e61565b73ffffffffffffffffffffffffffffffffffffffff16634cc82215826040518263ffffffff1660e01b81526004016122a291815260200190565b600060405180830381600087803b1580156122bc57600080fd5b505af11580156122d0573d6000803e3d6000fd5b50505050612301847f5bc28889d745caef68975e56a733199d93efb3f5ae8e4606262ab97c83f7264860001c612708565b73ffffffffffffffffffffffffffffffffffffffff16634cc82215826040518263ffffffff1660e01b815260040161233b91815260200190565b600060405180830381600087803b15801561235557600080fd5b505af1158015612369573d6000803e3d6000fd5b5050505061239a847f024accd0d273ef6123273b21662f5cc055a7d58adf98cc1b060edd029af93f7f60001c612708565b73ffffffffffffffffffffffffffffffffffffffff16634cc82215826040518263ffffffff1660e01b81526004016118ef91815260200190565b60006123e0838361271b565b90506123ee8482600161276d565b61243a818461241d877f5bc28889d745caef68975e56a733199d93efb3f5ae8e4606262ab97c83f72648612708565b73ffffffffffffffffffffffffffffffffffffffff1691906127e1565b50612487818361246a877f024accd0d273ef6123273b21662f5cc055a7d58adf98cc1b060edd029af93f7f612708565b73ffffffffffffffffffffffffffffffffffffffff169190612912565b509392505050565b6124b9837f5d88ced8d8e079072bf73f49fc87661b519c50d79482941abb852ba2b10909cd611e61565b73ffffffffffffffffffffffffffffffffffffffff16636437197783836040518363ffffffff1660e01b815260040161121a92919061320e565b61251d837f0e980fab8730829e1930c8cdc024ae35650d9eec12d20425b19fc4ade883178c611e61565b73ffffffffffffffffffffffffffffffffffffffff16631ab06ee58361254386856129db565b6040517fffffffff0000000000000000000000000000000000000000000000000000000060e085901b1681526004810192909252602482015260440161121a565b8051602091820120825192909101919091201490565b6000808212156125ac576125ac612b3b565b5090565b6125da837f7f11100822994501b15df98b1bd24b3eb0d73863f512da0bf8f165b0150c537d611e61565b604080517f32e5cc30000000000000000000000000000000000000000000000000000000008152600481018590528351600390810b60248301526020850151810b604483015291840151820b6064820152606084015190910b608482015273ffffffffffffffffffffffffffffffffffffffff91909116906332e5cc309060a40161121a565b6125da837f036642765aca64d0dc0aa7a1a5b293901589aec219fb89c7c5e7c042e927386c611e61565b6125da837f9d3e17e61f5f07f24e173edb93a8af1d5b797396ea02343c0feee16bdf497d4f611e61565b6125da837f5b5054d7f0fe411d96cb1c9605f65b42805d28ce5bb4ce216455e888cdc5373c611e61565b6125da837f1229189cff138f94363a6274f6ec5003a4a6372db248c6985d3b3301024eb8ec611e61565b60006127148383611e61565b9392505050565b60008282604051602001612730929190613320565b604080517fffffffffffffffffffffffffffffffffffffffffffffffffffffffffffffffe081840301815291905280516020909101209392505050565b80156127d75761279d837fd426585847552196ce5fddb7f2e37e8aa38f62676728e7518835f8440cf91958611e61565b73ffffffffffffffffffffffffffffffffffffffff166360fe47b1836040518263ffffffff1660e01b815260040161121a91815260200190565b6106a38383612b49565b6040517fcccf7a8e00000000000000000000000000000000000000000000000000000000815260048101839052600090819073ffffffffffffffffffffffffffffffffffffffff86169063cccf7a8e90602401602060405180830381865afa158015612851573d6000803e3d6000fd5b505050506040513d601f19601f8201168201806040525081019061287591906131ec565b905080611fa5578473ffffffffffffffffffffffffffffffffffffffff16638b28294785856040516020016128ac91815260200190565b6040516020818303038152906040526040518363ffffffff1660e01b81526004016128d892919061320e565b600060405180830381600087803b1580156128f257600080fd5b505af1158015612906573d6000803e3d6000fd5b50505050949350505050565b6040517fcccf7a8e00000000000000000000000000000000000000000000000000000000815260048101839052600090819073ffffffffffffffffffffffffffffffffffffffff86169063cccf7a8e90602401602060405180830381865afa158015612982573d6000803e3d6000fd5b505050506040513d601f19601f820116820180604052508101906129a691906131ec565b905080611fa5578473ffffffffffffffffffffffffffffffffffffffff16638b28294785856040516020016128ac9190612d5b565b6000612a256040518060400160405280600481526020017f4b414d49000000000000000000000000000000000000000000000000000000008152508361258490919063ffffffff16565b15612a5157507fd34ba4c29e01e1dffd3809686ce3d39943a2ad2167f8ecd4ecbf3176d51c27d6610cd4565b60408051808201909152600781527f4143434f554e54000000000000000000000000000000000000000000000000006020918201528251908301207f6560a52eebf0c2ca142b3c6d384ba1ef9361063168c2bd8b60dd7f476f2d832803612ad957507f37c6543901df832fa6900c3db9b6a34ac3cf572b453474ea23c65fb22dee5442610cd4565b6040517f08c379a000000000000000000000000000000000000000000000000000000000815260206004820152601460248201527f4c6962466f723a20696e76616c696420747970650000000000000000000000006044820152606401610393565b6335278d126000526004601cfd5b611fd7827fd426585847552196ce5fddb7f2e37e8aa38f62676728e7518835f8440cf91958611e61565b63ffffffff81168114610a5a57600080fd5b600060208284031215612b9757600080fd5b813561271481612b73565b7f4e487b7100000000000000000000000000000000000000000000000000000000600052604160045260246000fd5b604051601f82017fffffffffffffffffffffffffffffffffffffffffffffffffffffffffffffffe016810167ffffffffffffffff81118282101715612c1857612c18612ba2565b604052919050565b600067ffffffffffffffff821115612c3a57612c3a612ba2565b50601f017fffffffffffffffffffffffffffffffffffffffffffffffffffffffffffffffe01660200190565b6000612c79612c7484612c20565b612bd1565b9050828152838383011115612c8d57600080fd5b828260208301376000602084830101529392505050565b600060208284031215612cb657600080fd5b813567ffffffffffffffff811115612ccd57600080fd5b8201601f81018413612cde57600080fd5b611fa584823560208401612c66565b60005b83811015612d08578181015183820152602001612cf0565b50506000910152565b60008151808452612d29816020860160208601612ced565b601f017fffffffffffffffffffffffffffffffffffffffffffffffffffffffffffffffe0169290920160200192915050565b6020815260006127146020830184612d11565b60008060408385031215612d8157600080fd5b8235612d8c81612b73565b91506020830135612d9c81612b73565b809150509250929050565b600060208284031215612db957600080fd5b813573ffffffffffffffffffffffffffffffffffffffff8116811461271457600080fd5b600080600060608486031215612df257600080fd5b8335612dfd81612b73565b9250602084013567ffffffffffffffff811115612e1957600080fd5b8401601f81018613612e2a57600080fd5b612e3986823560208401612c66565b92505060408401358060030b8114612e5057600080fd5b809150509250925092565b805161043681612b73565b600082601f830112612e7757600080fd5b8151612e85612c7482612c20565b818152846020838601011115612e9a57600080fd5b610ccd826020830160208701612ced565b600067ffffffffffffffff821115612ec557612ec5612ba2565b5060051b60200190565b600082601f830112612ee057600080fd5b81516020612ef0612c7483612eab565b82815260059290921b84018101918181019086841115612f0f57600080fd5b8286015b84811015612f33578051612f2681612b73565b8352918301918301612f13565b509695505050505050565b600082601f830112612f4f57600080fd5b81516020612f5f612c7483612eab565b82815260059290921b84018101918181019086841115612f7e57600080fd5b8286015b84811015612f335780518352918301918301612f82565b60008060008060008060c08789031215612fb257600080fd5b612fbb87612e5b565b9550602087015167ffffffffffffffff80821115612fd857600080fd5b612fe48a838b01612e66565b96506040890151915080821115612ffa57600080fd5b6130068a838b01612e66565b9550606089015191508082111561301c57600080fd5b6130288a838b01612ecf565b9450608089015191508082111561303e57600080fd5b61304a8a838b01612f3e565b935060a089015191508082111561306057600080fd5b5061306d89828a01612e66565b9150509295509295509295565b600080600080600060a0868803121561309257600080fd5b855161309d81612b73565b602087015190955067ffffffffffffffff808211156130bb57600080fd5b6130c789838a01612e66565b955060408801519150808211156130dd57600080fd5b6130e989838a01612e66565b945060608801519150808211156130ff57600080fd5b61310b89838a01612e66565b9350608088015191508082111561312157600080fd5b5061312e88828901612e66565b9150509295509295909350565b60008060008060008060c0878903121561315457600080fd5b61315d87612e5b565b9550602087015167ffffffffffffffff8082111561317a57600080fd5b6131868a838b01612e66565b9650604089015191508082111561319c57600080fd5b6131a88a838b01612e66565b955060608901519150808211156131be57600080fd5b6131ca8a838b01612e66565b945060808901519150808211156131e057600080fd5b61304a8a838b01612e66565b6000602082840312156131fe57600080fd5b8151801515811461271457600080fd5b828152604060208201526000611fa56040830184612d11565b6000604082018483526020604081850152818551808452606086019150828701935060005b8181101561326e57845163ffffffff168352938301939183019160010161324c565b5090979650505050505050565b6000604082018483526020604081850152818551808452606086019150828701935060005b8181101561326e578451835293830193918301916001016132a0565b6000602082840312156132ce57600080fd5b815167ffffffffffffffff8111156132e557600080fd5b611fa584828501612f3e565b7f4e487b7100000000000000000000000000000000000000000000000000000000600052603260045260246000fd5b7f6861732e666c616700000000000000000000000000000000000000000000000081528260088201526000825161335e816028850160208701612ced565b91909101602801939250505056fea2646970667358221220882933ee5fb26f851b1f661e2587b5e98e0eae3fd60fe3a6f5821e0dca6b496764736f6c63430008110033","linkReferences":{}},"methodIdentifiers":{"addStat(uint32,string,int32)":"fc81660a","cancelOwnershipHandover()":"54d1f13d","completeOwnershipHandover(address)":"f04e283e","create(bytes)":"cf5ba53f","createConsumable(bytes)":"e96e3836","createLootbox(bytes)":"b72c6001","deprecate()":"0fcc0c28","execute(bytes)":"09c5eabe","owner()":"8da5cb5b","ownershipHandoverExpiresAt(address)":"fee81cf4","remove(uint32)":"00d84fd8","renounceOwnership()":"715018a6","requestOwnershipHandover()":"25692962","setRoom(uint32,uint32)":"96a2c1d3","setUnburnable(uint32)":"35727b4e","transferOwnership(address)":"f2fde38b"},"id":300}