{"abi":[{"type":"constructor","inputs":[{"name":"_world","type":"address","internalType":"contract IWorld"},{"name":"_components","type":"address","internalType":"address"}],"stateMutability":"nonpayable"},{"type":"function","name":"addRequirement","inputs":[{"name":"arguments","type":"bytes","internalType":"bytes"}],"outputs":[],"stateMutability":"nonpayable"},{"type":"function","name":"cancelOwnershipHandover","inputs":[],"outputs":[],"stateMutability":"payable"},{"type":"function","name":"completeOwnershipHandover","inputs":[{"name":"pendingOwner","type":"address","internalType":"address"}],"outputs":[],"stateMutability":"payable"},{"type":"function","name":"create","inputs":[{"name":"arguments","type":"bytes","internalType":"bytes"}],"outputs":[{"name":"","type":"bytes","internalType":"bytes"}],"stateMutability":"nonpayable"},{"type":"function","name":"deprecate","inputs":[],"outputs":[],"stateMutability":"nonpayable"},{"type":"function","name":"execute","inputs":[{"name":"arguments","type":"bytes","internalType":"bytes"}],"outputs":[{"name":"","type":"bytes","internalType":"bytes"}],"stateMutability":"nonpayable"},{"type":"function","name":"owner","inputs":[],"outputs":[{"name":"result","type":"address","internalType":"address"}],"stateMutability":"view"},{"type":"function","name":"ownershipHandoverExpiresAt","inputs":[{"name":"pendingOwner","type":"address","internalType":"address"}],"outputs":[{"name":"result","type":"uint256","internalType":"uint256"}],"stateMutability":"view"},{"type":"function","name":"remove","inputs":[{"name":"npcIndex","type":"uint32","internalType":"uint32"},{"name":"itemIndex","type":"uint32","internalType":"uint32"}],"outputs":[],"stateMutability":"nonpayable"},{"type":"function","name":"renounceOwnership","inputs":[],"outputs":[],"stateMutability":"payable"},{"type":"function","name":"requestOwnershipHandover","inputs":[],"outputs":[],"stateMutability":"payable"},{"type":"function","name":"transferOwnership","inputs":[{"name":"newOwner","type":"address","internalType":"address"}],"outputs":[],"stateMutability":"payable"},{"type":"event","name":"OwnershipHandoverCanceled","inputs":[{"name":"pendingOwner","type":"address","indexed":true,"internalType":"address"}],"anonymous":false},{"type":"event","name":"OwnershipHandoverRequested","inputs":[{"name":"pendingOwner","type":"address","indexed":true,"internalType":"address"}],"anonymous":false},{"type":"event","name":"OwnershipTransferred","inputs":[{"name":"oldOwner","type":"address","indexed":true,"internalType":"address"},{"name":"newOwner","type":"address","indexed":true,"internalType":"address"}],"anonymous":false},{"type":"event","name":"SystemDeprecated","inputs":[],"anonymous":false},{"type":"error","name":"AlreadyInitialized","inputs":[]},{"type":"error","name":"NewOwnerIsZeroAddress","inputs":[]},{"type":"error","name":"NoHandoverRequest","inputs":[]},{"type":"error","name":"Unauthorized","inputs":[]}],"bytecode":{"object":"0x60c06040523480156200001157600080fd5b50604051620026d3380380620026d383398101604081905262000034916200012f565b81816200004133620000dc565b6001600160a01b03811615620000585780620000bd565b816001600160a01b031663ba62fbe46040518163ffffffff1660e01b8152600401602060405180830381865afa15801562000097573d6000803e3d6000fd5b505050506040513d601f19601f82011682018060405250810190620000bd91906200016e565b6001600160a01b039081166080529190911660a0525062000195915050565b6001600160a01b0316638b78c6d8198190558060007f8be0079c531659141344cd1fd0a4f28419497f9722a3daafe3b4186f6b6457e08180a35b50565b6001600160a01b03811681146200011657600080fd5b600080604083850312156200014357600080fd5b8251620001508162000119565b6020840151909250620001638162000119565b809150509250929050565b6000602082840312156200018157600080fd5b81516200018e8162000119565b9392505050565b60805160a0516124d9620001fa600039600061065501526000818161034f015281816103e60152818161049601528181610529015281816105be01528181610676015281816106fe015281816107910152818161082601526108bb01526124d96000f3fe6080604052600436106100c75760003560e01c80637e53410311610074578063f04e283e1161004e578063f04e283e146101e5578063f2fde38b146101f8578063fee81cf41461020b57600080fd5b80637e534103146101515780638da5cb5b14610171578063cf5ba53f146101c557600080fd5b806331f3666c116100a557806331f3666c1461012157806354d1f13d14610141578063715018a61461014957600080fd5b806309c5eabe146100cc5780630fcc0c28146101025780632569296214610119575b600080fd5b3480156100d857600080fd5b506100ec6100e7366004611fdb565b61024c565b6040516100f991906120c9565b60405180910390f35b34801561010e57600080fd5b506101176102bd565b005b6101176102f0565b34801561012d57600080fd5b5061011761013c3660046120ee565b610340565b610117610410565b61011761044c565b34801561015d57600080fd5b5061011761016c366004611fdb565b610460565b34801561017d57600080fd5b507fffffffffffffffffffffffffffffffffffffffffffffffffffffffff748739275460405173ffffffffffffffffffffffffffffffffffffffff90911681526020016100f9565b3480156101d157600080fd5b506100ec6101e0366004611fdb565b6106cd565b6101176101f3366004612127565b610913565b610117610206366004612127565b610953565b34801561021757600080fd5b5061023e610226366004612127565b63389a75e1600c908152600091909152602090205490565b6040519081526020016100f9565b606061025661097a565b6040517f08c379a000000000000000000000000000000000000000000000000000000000815260206004820152600f60248201527f6e6f7420696d706c656d656e746564000000000000000000000000000000000060448201526064015b60405180910390fd5b6102c561097a565b6040517f56f33501ffd77f9fe44d81e7db7e66a66bdf52ab3e11267cdc6462763604c4c790600090a1565b60006202a30067ffffffffffffffff164201905063389a75e1600c5233600052806020600c2055337fdbf36a107da19e49527a7176a1babf963b4b0ff8cde35ee35d6cd8f1f9ac7e1d600080a250565b61034861097a565b60006103757f000000000000000000000000000000000000000000000000000000000000000084846109b0565b9050806000036103e1576040517f08c379a000000000000000000000000000000000000000000000000000000000815260206004820152601660248201527f4c697374696e6720646f6573206e6f742065786973740000000000000000000060448201526064016102b4565b61040b7f000000000000000000000000000000000000000000000000000000000000000082610a86565b505050565b63389a75e1600c523360005260006020600c2055337ffa7b8eab7da67f412cc9575ed43464468f9bfbae89d1675917346ca6d8fe3c92600080a2565b61045461097a565b61045e6000610d38565b565b61046861097a565b6000806000806000808680602001905181019061048591906121ad565b9550955095509550955095506104bb7f000000000000000000000000000000000000000000000000000000000000000087610d9e565b600003610524576040517f08c379a000000000000000000000000000000000000000000000000000000000815260206004820152601360248201527f4e50433a20646f6573206e6f742065786973740000000000000000000000000060448201526064016102b4565b61054e7f000000000000000000000000000000000000000000000000000000000000000086610e03565b6000036105b7576040517f08c379a000000000000000000000000000000000000000000000000000000000815260206004820152601460248201527f4974656d3a20646f6573206e6f7420657869737400000000000000000000000060448201526064016102b4565b60006105e47f000000000000000000000000000000000000000000000000000000000000000088886109b0565b905080600003610650576040517f08c379a000000000000000000000000000000000000000000000000000000000815260206004820152601660248201527f4c697374696e6720646f6573206e6f742065786973740000000000000000000060448201526064016102b4565b6106c27f00000000000000000000000000000000000000000000000000000000000000007f00000000000000000000000000000000000000000000000000000000000000008360405180608001604052808a81526020018981526020018863ffffffff16815260200187815250610ee5565b505050505050505050565b60606106d761097a565b600080600080858060200190518101906106f19190612255565b93509350935093506107237f000000000000000000000000000000000000000000000000000000000000000085610d9e565b60000361078c576040517f08c379a000000000000000000000000000000000000000000000000000000000815260206004820152601360248201527f4e50433a20646f6573206e6f742065786973740000000000000000000000000060448201526064016102b4565b6107b67f000000000000000000000000000000000000000000000000000000000000000084610e03565b60000361081f576040517f08c379a000000000000000000000000000000000000000000000000000000000815260206004820152601460248201527f4974656d3a20646f6573206e6f7420657869737400000000000000000000000060448201526064016102b4565b600061084c7f000000000000000000000000000000000000000000000000000000000000000086866109b0565b905080156108b6576040517f08c379a000000000000000000000000000000000000000000000000000000000815260206004820152601660248201527f4c697374696e6720616c7265616479206578697374730000000000000000000060448201526064016102b4565b6108e37f000000000000000000000000000000000000000000000000000000000000000086868686610efb565b9050806040516020016108f891815260200190565b60405160208183030381529060405295505050505050919050565b61091b61097a565b63389a75e1600c52806000526020600c20805442111561094357636f5e88186000526004601cfd5b6000905561095081610d38565b50565b61095b61097a565b8060601b61097157637448fbae6000526004601cfd5b61095081610d38565b7fffffffffffffffffffffffffffffffffffffffffffffffffffffffff7487392754331461045e576382b429006000526004601cfd5b604080517f6c697374696e67000000000000000000000000000000000000000000000000006020808301919091527fffffffff0000000000000000000000000000000000000000000000000000000060e086811b8216602785015285901b16602b8301528251808303600f018152602f9092019092528051910120600090610a6e85826040518060400160405280600781526020017f4c495354494e470000000000000000000000000000000000000000000000000081525061114d565b610a79576000610a7b565b805b9150505b9392505050565b610a9082826111a3565b610aba827fb29f21e001e93877c0ca9ea2483697e386afbf8bced0360395102afa8c793eea61123d565b73ffffffffffffffffffffffffffffffffffffffff16634cc82215826040518263ffffffff1660e01b8152600401610af491815260200190565b600060405180830381600087803b158015610b0e57600080fd5b505af1158015610b22573d6000803e3d6000fd5b50505050610b53827fd3da495fedd385ac62763d969054ffb19f1777e687374cceb91f1237ddd6bfb360001c61123d565b73ffffffffffffffffffffffffffffffffffffffff16634cc82215826040518263ffffffff1660e01b8152600401610b8d91815260200190565b600060405180830381600087803b158015610ba757600080fd5b505af1158015610bbb573d6000803e3d6000fd5b505050506000610bee837fb25ea67b55901db62e4b14311a8c1ab178fec3948b4b493a711970a50aa2a2e160001c61123d565b90508073ffffffffffffffffffffffffffffffffffffffff16634cc82215610c1584611381565b6040518263ffffffff1660e01b8152600401610c3391815260200190565b600060405180830381600087803b158015610c4d57600080fd5b505af1158015610c61573d6000803e3d6000fd5b505050508073ffffffffffffffffffffffffffffffffffffffff16634cc82215610c8a846113f4565b6040518263ffffffff1660e01b8152600401610ca891815260200190565b600060405180830381600087803b158015610cc257600080fd5b505af1158015610cd6573d6000803e3d6000fd5b505050506000610cee84610ce98561142f565b61146a565b905060005b8151811015610d3157610d1f85838381518110610d1257610d1261229d565b6020026020010151611533565b80610d29816122cc565b915050610cf3565b5050505050565b7fffffffffffffffffffffffffffffffffffffffffffffffffffffffff74873927805473ffffffffffffffffffffffffffffffffffffffff9092169182907f8be0079c531659141344cd1fd0a4f28419497f9722a3daafe3b4186f6b6457e0600080a355565b600080610daa8361185a565b9050610dec84826040518060400160405280600381526020017f4e5043000000000000000000000000000000000000000000000000000000000081525061114d565b610df7576000610df9565b805b9150505b92915050565b600080610e30847fd3da495fedd385ac62763d969054ffb19f1777e687374cceb91f1237ddd6bfb361123d565b90506000610e3d846118ba565b6040517fcccf7a8e0000000000000000000000000000000000000000000000000000000081526004810182905290915073ffffffffffffffffffffffffffffffffffffffff83169063cccf7a8e90602401602060405180830381865afa158015610eab573d6000803e3d6000fd5b505050506040513d601f19601f82011682018060405250810190610ecf919061232b565b610eda576000610edc565b805b95945050505050565b6000610edc858584610ef68761142f565b61191a565b604080517f6c697374696e67000000000000000000000000000000000000000000000000006020808301919091527fffffffff0000000000000000000000000000000000000000000000000000000060e088811b8216602785015287901b16602b8301528251808303600f018152602f9092019092528051910120610fb686826040518060400160405280600781526020017f4c495354494e4700000000000000000000000000000000000000000000000000815250611a55565b610fe0867fb29f21e001e93877c0ca9ea2483697e386afbf8bced0360395102afa8c793eea61123d565b6040517fd923c3c40000000000000000000000000000000000000000000000000000000081526004810183905263ffffffff8716602482015273ffffffffffffffffffffffffffffffffffffffff919091169063d923c3c490604401600060405180830381600087803b15801561105657600080fd5b505af115801561106a573d6000803e3d6000fd5b5050505061109b867fd3da495fedd385ac62763d969054ffb19f1777e687374cceb91f1237ddd6bfb360001c61123d565b6040517fd923c3c40000000000000000000000000000000000000000000000000000000081526004810183905263ffffffff8616602482015273ffffffffffffffffffffffffffffffffffffffff919091169063d923c3c490604401600060405180830381600087803b15801561111157600080fd5b505af1158015611125573d6000803e3d6000fd5b505050508260001461113c5761113c868285611af0565b8115610edc57610edc868284611bb7565b600061119b838361117e877f5d88ced8d8e079072bf73f49fc87661b519c50d79482941abb852ba2b10909cd61123d565b73ffffffffffffffffffffffffffffffffffffffff169190611bc2565b949350505050565b6111cd827f5d88ced8d8e079072bf73f49fc87661b519c50d79482941abb852ba2b10909cd61123d565b73ffffffffffffffffffffffffffffffffffffffff16634cc82215826040518263ffffffff1660e01b815260040161120791815260200190565b600060405180830381600087803b15801561122157600080fd5b505af1158015611235573d6000803e3d6000fd5b505050505050565b6040517ffbdfa1ea00000000000000000000000000000000000000000000000000000000815260048101829052600090819073ffffffffffffffffffffffffffffffffffffffff85169063fbdfa1ea90602401600060405180830381865afa1580156112ad573d6000803e3d6000fd5b505050506040513d6000823e601f3d9081017fffffffffffffffffffffffffffffffffffffffffffffffffffffffffffffffe01682016040526112f3919081019061234d565b90508051600003611360576040517f08c379a000000000000000000000000000000000000000000000000000000000815260206004820152601160248201527f6964206e6f74207265676973746572656400000000000000000000000000000060448201526064016102b4565b610df9816000815181106113765761137661229d565b602002602001015190565b6040517f6c697374696e672e6275790000000000000000000000000000000000000000006020820152602b8101829052600090604b015b604080517fffffffffffffffffffffffffffffffffffffffffffffffffffffffffffffffe0818403018152919052805160209091012092915050565b6040517f6c697374696e672e73656c6c00000000000000000000000000000000000000006020820152602c8101829052600090604c016113b8565b6040517f6c697374696e672e726571756972656d656e74000000000000000000000000006020820152603381018290526000906053016113b8565b6060611496837fde0f9b459fab67ff56929343dacb07b0c0a1f8509d3184dc6d736f68b80381de61123d565b73ffffffffffffffffffffffffffffffffffffffff1663fbdfa1ea836040518263ffffffff1660e01b81526004016114d091815260200190565b600060405180830381865afa1580156114ed573d6000803e3d6000fd5b505050506040513d6000823e601f3d9081017fffffffffffffffffffffffffffffffffffffffffffffffffffffffffffffffe0168201604052610a7f919081019061234d565b61155d827f024accd0d273ef6123273b21662f5cc055a7d58adf98cc1b060edd029af93f7f61123d565b73ffffffffffffffffffffffffffffffffffffffff16634cc82215826040518263ffffffff1660e01b815260040161159791815260200190565b600060405180830381600087803b1580156115b157600080fd5b505af11580156115c5573d6000803e3d6000fd5b505050506115f6827f787589c9eda599ea35279a6d93e360e8fdc5402255545ca394f5033f5e58ed4260001c61123d565b73ffffffffffffffffffffffffffffffffffffffff16634cc82215826040518263ffffffff1660e01b815260040161163091815260200190565b600060405180830381600087803b15801561164a57600080fd5b505af115801561165e573d6000803e3d6000fd5b5050505061168f827f62adc4221185187a288916c2630b5e1f37e9437c5b68d55bc59b9debc23f19d060001c61123d565b73ffffffffffffffffffffffffffffffffffffffff16634cc82215826040518263ffffffff1660e01b81526004016116c991815260200190565b600060405180830381600087803b1580156116e357600080fd5b505af11580156116f7573d6000803e3d6000fd5b50505050611728827fb25ea67b55901db62e4b14311a8c1ab178fec3948b4b493a711970a50aa2a2e160001c61123d565b73ffffffffffffffffffffffffffffffffffffffff16634cc82215826040518263ffffffff1660e01b815260040161176291815260200190565b600060405180830381600087803b15801561177c57600080fd5b505af1158015611790573d6000803e3d6000fd5b505050506117c1827fde0f9b459fab67ff56929343dacb07b0c0a1f8509d3184dc6d736f68b80381de60001c61123d565b73ffffffffffffffffffffffffffffffffffffffff16634cc82215826040518263ffffffff1660e01b81526004016117fb91815260200190565b600060405180830381600087803b15801561181557600080fd5b505af1158015611829573d6000803e3d6000fd5b505050506111cd827fa7b4bd2d760054205ea7cf761a119827e2316646eabcbc6653656187e7d030cb60001c61123d565b6040517f4e5043000000000000000000000000000000000000000000000000000000000060208201527fffffffff0000000000000000000000000000000000000000000000000000000060e083901b1660238201526000906027016113b8565b6040517f72656769737472792e6974656d0000000000000000000000000000000000000060208201527fffffffff0000000000000000000000000000000000000000000000000000000060e083901b16602d8201526000906031016113b8565b60008473ffffffffffffffffffffffffffffffffffffffff1663614bfa6e6040518163ffffffff1660e01b81526004016020604051808303816000875af1158015611969573d6000803e3d6000fd5b505050506040513d601f19601f8201168201806040525081019061198d91906123f3565b905061199a848285611be5565b6119c4847fde0f9b459fab67ff56929343dacb07b0c0a1f8509d3184dc6d736f68b80381de61123d565b6040517f1ab06ee5000000000000000000000000000000000000000000000000000000008152600481018390526024810184905273ffffffffffffffffffffffffffffffffffffffff9190911690631ab06ee590604401600060405180830381600087803b158015611a3557600080fd5b505af1158015611a49573d6000803e3d6000fd5b50505050949350505050565b611a7f837f5d88ced8d8e079072bf73f49fc87661b519c50d79482941abb852ba2b10909cd61123d565b73ffffffffffffffffffffffffffffffffffffffff16636437197783836040518363ffffffff1660e01b8152600401611ab992919061240c565b600060405180830381600087803b158015611ad357600080fd5b505af1158015611ae7573d6000803e3d6000fd5b50505050505050565b6000611afb83611381565b9050611b27847fb25ea67b55901db62e4b14311a8c1ab178fec3948b4b493a711970a50aa2a2e161123d565b6040517f1ab06ee5000000000000000000000000000000000000000000000000000000008152600481018390526024810184905273ffffffffffffffffffffffffffffffffffffffff9190911690631ab06ee5906044015b600060405180830381600087803b158015611b9957600080fd5b505af1158015611bad573d6000803e3d6000fd5b5050505050505050565b6000611afb836113f4565b600061119b82611bd28686611d2e565b8151602092830120815191909201201490565b611bf9838383600001518460200151611e1a565b604081015163ffffffff1615611cb357611c33837f62adc4221185187a288916c2630b5e1f37e9437c5b68d55bc59b9debc23f19d061123d565b73ffffffffffffffffffffffffffffffffffffffff1663d923c3c48383604001516040518363ffffffff1660e01b8152600401611c8092919091825263ffffffff16602082015260400190565b600060405180830381600087803b158015611c9a57600080fd5b505af1158015611cae573d6000803e3d6000fd5b505050505b60608101511561040b57611ce7837fb25ea67b55901db62e4b14311a8c1ab178fec3948b4b493a711970a50aa2a2e161123d565b73ffffffffffffffffffffffffffffffffffffffff16631ab06ee58383606001516040518363ffffffff1660e01b8152600401611ab9929190918252602082015260400190565b6040517fdd98e3c90000000000000000000000000000000000000000000000000000000081526004810182905260609060009073ffffffffffffffffffffffffffffffffffffffff85169063dd98e3c990602401600060405180830381865afa158015611d9f573d6000803e3d6000fd5b505050506040513d6000823e601f3d9081017fffffffffffffffffffffffffffffffffffffffffffffffffffffffffffffffe0168201604052611de59190810190612425565b90508051600003611e06575050604080516020810190915260008152610dfd565b80806020019051810190610df9919061246e565b611e44847f024accd0d273ef6123273b21662f5cc055a7d58adf98cc1b060edd029af93f7f61123d565b73ffffffffffffffffffffffffffffffffffffffff16636437197784846040518363ffffffff1660e01b8152600401611e7e92919061240c565b600060405180830381600087803b158015611e9857600080fd5b505af1158015611eac573d6000803e3d6000fd5b50505050611edd847f787589c9eda599ea35279a6d93e360e8fdc5402255545ca394f5033f5e58ed4260001c61123d565b73ffffffffffffffffffffffffffffffffffffffff16636437197784836040518363ffffffff1660e01b8152600401611b7f92919061240c565b7f4e487b7100000000000000000000000000000000000000000000000000000000600052604160045260246000fd5b604051601f82017fffffffffffffffffffffffffffffffffffffffffffffffffffffffffffffffe016810167ffffffffffffffff81118282101715611f8d57611f8d611f17565b604052919050565b600067ffffffffffffffff821115611faf57611faf611f17565b50601f017fffffffffffffffffffffffffffffffffffffffffffffffffffffffffffffffe01660200190565b600060208284031215611fed57600080fd5b813567ffffffffffffffff81111561200457600080fd5b8201601f8101841361201557600080fd5b803561202861202382611f95565b611f46565b81815285602083850101111561203d57600080fd5b81602084016020830137600091810160200191909152949350505050565b60005b8381101561207657818101518382015260200161205e565b50506000910152565b6000815180845261209781602086016020860161205b565b601f017fffffffffffffffffffffffffffffffffffffffffffffffffffffffffffffffe0169290920160200192915050565b602081526000610a7f602083018461207f565b63ffffffff8116811461095057600080fd5b6000806040838503121561210157600080fd5b823561210c816120dc565b9150602083013561211c816120dc565b809150509250929050565b60006020828403121561213957600080fd5b813573ffffffffffffffffffffffffffffffffffffffff81168114610df757600080fd5b600061216b61202384611f95565b905082815283838301111561217f57600080fd5b610a7f83602083018461205b565b600082601f83011261219e57600080fd5b610a7f8383516020850161215d565b60008060008060008060c087890312156121c657600080fd5b86516121d1816120dc565b60208801519096506121e2816120dc565b604088015190955067ffffffffffffffff8082111561220057600080fd5b61220c8a838b0161218d565b9550606089015191508082111561222257600080fd5b5061222f89828a0161218d565b9350506080870151612240816120dc565b8092505060a087015190509295509295509295565b6000806000806080858703121561226b57600080fd5b8451612276816120dc565b6020860151909450612287816120dc565b6040860151606090960151949790965092505050565b7f4e487b7100000000000000000000000000000000000000000000000000000000600052603260045260246000fd5b60007fffffffffffffffffffffffffffffffffffffffffffffffffffffffffffffffff8203612324577f4e487b7100000000000000000000000000000000000000000000000000000000600052601160045260246000fd5b5060010190565b60006020828403121561233d57600080fd5b81518015158114610df757600080fd5b6000602080838503121561236057600080fd5b825167ffffffffffffffff8082111561237857600080fd5b818501915085601f83011261238c57600080fd5b81518181111561239e5761239e611f17565b8060051b91506123af848301611f46565b81815291830184019184810190888411156123c957600080fd5b938501935b838510156123e7578451825293850193908501906123ce565b98975050505050505050565b60006020828403121561240557600080fd5b5051919050565b82815260406020820152600061119b604083018461207f565b60006020828403121561243757600080fd5b815167ffffffffffffffff81111561244e57600080fd5b8201601f8101841361245f57600080fd5b610df98482516020840161215d565b60006020828403121561248057600080fd5b815167ffffffffffffffff81111561249757600080fd5b610df98482850161218d56fea2646970667358221220d3ec23d3426717f6603da8cf560e94d210d90b1dbb32a415605f5c764d1af17464736f6c63430008110033","linkReferences":{}},"methodIdentifiers":{"addRequirement(bytes)":"7e534103","cancelOwnershipHandover()":"54d1f13d","completeOwnershipHandover(address)":"f04e283e","create(bytes)":"cf5ba53f","deprecate()":"0fcc0c28","execute(bytes)":"09c5eabe","owner()":"8da5cb5b","ownershipHandoverExpiresAt(address)":"fee81cf4","remove(uint32,uint32)":"31f3666c","renounceOwnership()":"715018a6","requestOwnershipHandover()":"25692962","transferOwnership(address)":"f2fde38b"},"id":301}