{"abi":[{"type":"constructor","inputs":[{"name":"_world","type":"address","internalType":"contract IWorld"},{"name":"_components","type":"address","internalType":"address"}],"stateMutability":"nonpayable"},{"type":"function","name":"addRequirement","inputs":[{"name":"arguments","type":"bytes","internalType":"bytes"}],"outputs":[{"name":"","type":"uint256","internalType":"uint256"}],"stateMutability":"nonpayable"},{"type":"function","name":"addScavBar","inputs":[{"name":"nodeIndex","type":"uint32","internalType":"uint32"},{"name":"tierCost","type":"uint256","internalType":"uint256"}],"outputs":[],"stateMutability":"nonpayable"},{"type":"function","name":"addScavReward","inputs":[{"name":"arguments","type":"bytes","internalType":"bytes"}],"outputs":[],"stateMutability":"nonpayable"},{"type":"function","name":"cancelOwnershipHandover","inputs":[],"outputs":[],"stateMutability":"payable"},{"type":"function","name":"completeOwnershipHandover","inputs":[{"name":"pendingOwner","type":"address","internalType":"address"}],"outputs":[],"stateMutability":"payable"},{"type":"function","name":"create","inputs":[{"name":"arguments","type":"bytes","internalType":"bytes"}],"outputs":[{"name":"","type":"uint256","internalType":"uint256"}],"stateMutability":"nonpayable"},{"type":"function","name":"deprecate","inputs":[],"outputs":[],"stateMutability":"nonpayable"},{"type":"function","name":"execute","inputs":[{"name":"arguments","type":"bytes","internalType":"bytes"}],"outputs":[{"name":"","type":"bytes","internalType":"bytes"}],"stateMutability":"nonpayable"},{"type":"function","name":"owner","inputs":[],"outputs":[{"name":"result","type":"address","internalType":"address"}],"stateMutability":"view"},{"type":"function","name":"ownershipHandoverExpiresAt","inputs":[{"name":"pendingOwner","type":"address","internalType":"address"}],"outputs":[{"name":"result","type":"uint256","internalType":"uint256"}],"stateMutability":"view"},{"type":"function","name":"remove","inputs":[{"name":"index","type":"uint32","internalType":"uint32"}],"outputs":[],"stateMutability":"nonpayable"},{"type":"function","name":"renounceOwnership","inputs":[],"outputs":[],"stateMutability":"payable"},{"type":"function","name":"requestOwnershipHandover","inputs":[],"outputs":[],"stateMutability":"payable"},{"type":"function","name":"transferOwnership","inputs":[{"name":"newOwner","type":"address","internalType":"address"}],"outputs":[],"stateMutability":"payable"},{"type":"event","name":"OwnershipHandoverCanceled","inputs":[{"name":"pendingOwner","type":"address","indexed":true,"internalType":"address"}],"anonymous":false},{"type":"event","name":"OwnershipHandoverRequested","inputs":[{"name":"pendingOwner","type":"address","indexed":true,"internalType":"address"}],"anonymous":false},{"type":"event","name":"OwnershipTransferred","inputs":[{"name":"oldOwner","type":"address","indexed":true,"internalType":"address"},{"name":"newOwner","type":"address","indexed":true,"internalType":"address"}],"anonymous":false},{"type":"event","name":"SystemDeprecated","inputs":[],"anonymous":false},{"type":"error","name":"AlreadyInitialized","inputs":[]},{"type":"error","name":"NewOwnerIsZeroAddress","inputs":[]},{"type":"error","name":"NoHandoverRequest","inputs":[]},{"type":"error","name":"QueryOrderNotSupported","inputs":[]},{"type":"error","name":"Unauthorized","inputs":[]}],"bytecode":{"object":"0x60c06040523480156200001157600080fd5b50604051620045573803806200455783398101604081905262000034916200012f565b81816200004133620000dc565b6001600160a01b03811615620000585780620000bd565b816001600160a01b031663ba62fbe46040518163ffffffff1660e01b8152600401602060405180830381865afa15801562000097573d6000803e3d6000fd5b505050506040513d601f19601f82011682018060405250810190620000bd91906200016e565b6001600160a01b039081166080529190911660a0525062000195915050565b6001600160a01b0316638b78c6d8198190558060007f8be0079c531659141344cd1fd0a4f28419497f9722a3daafe3b4186f6b6457e08180a35b50565b6001600160a01b03811681146200011657600080fd5b600080604083850312156200014357600080fd5b8251620001508162000119565b6020840151909250620001638162000119565b809150509250929050565b6000602082840312156200018157600080fd5b81516200018e8162000119565b9392505050565b60805160a0516143486200020f6000396000818161060601526108df0152600081816102b00152818161034b015281816104db01528181610570015281816106270152818161067d01528181610710015281816107ab015281816109000152818161099401528181610a280152610a9501526143486000f3fe6080604052600436106100dc5760003560e01c80637ddddb191161007f578063cf5ba53f11610059578063cf5ba53f14610228578063f04e283e14610248578063f2fde38b1461025b578063fee81cf41461026e57600080fd5b80637ddddb19146101865780637e534103146101a65780638da5cb5b146101d457600080fd5b806325692962116100bb578063256929621461014e57806354d1f13d146101565780636d8ca5111461015e578063715018a61461017e57600080fd5b8062d84fd8146100e157806309c5eabe146101035780630fcc0c2814610139575b600080fd5b3480156100ed57600080fd5b506101016100fc36600461395f565b6102a1565b005b34801561010f57600080fd5b5061012361011e366004613a40565b610375565b6040516101309190613b2e565b60405180910390f35b34801561014557600080fd5b506101016103e6565b610101610419565b610101610469565b34801561016a57600080fd5b50610101610179366004613a40565b6104a5565b61010161065c565b34801561019257600080fd5b506101016101a1366004613b41565b610670565b3480156101b257600080fd5b506101c66101c1366004613a40565b610771565b604051908152602001610130565b3480156101e057600080fd5b507fffffffffffffffffffffffffffffffffffffffffffffffffffffffff748739275460405173ffffffffffffffffffffffffffffffffffffffff9091168152602001610130565b34801561023457600080fd5b506101c6610243366004613a40565b61095a565b610101610256366004613b6d565b610ac7565b610101610269366004613b6d565b610b07565b34801561027a57600080fd5b506101c6610289366004613b6d565b63389a75e1600c908152600091909152602090205490565b6102a9610b2e565b60006102d57f000000000000000000000000000000000000000000000000000000000000000083610b64565b905080600003610346576040517f08c379a000000000000000000000000000000000000000000000000000000000815260206004820152601460248201527f4e6f64653a20646f6573206e6f7420657869737400000000000000000000000060448201526064015b60405180910390fd5b6103717f00000000000000000000000000000000000000000000000000000000000000008284610bc9565b5050565b606061037f610b2e565b6040517f08c379a000000000000000000000000000000000000000000000000000000000815260206004820152600f60248201527f6e6f7420696d706c656d656e7465640000000000000000000000000000000000604482015260640161033d565b919050565b6103ee610b2e565b6040517f56f33501ffd77f9fe44d81e7db7e66a66bdf52ab3e11267cdc6462763604c4c790600090a1565b60006202a30067ffffffffffffffff164201905063389a75e1600c5233600052806020600c2055337fdbf36a107da19e49527a7176a1babf963b4b0ff8cde35ee35d6cd8f1f9ac7e1d600080a250565b63389a75e1600c523360005260006020600c2055337ffa7b8eab7da67f412cc9575ed43464468f9bfbae89d1675917346ca6d8fe3c92600080a2565b6104ad610b2e565b600080600080600080868060200190518101906104ca9190613c7d565b9550955095509550955095506105007f000000000000000000000000000000000000000000000000000000000000000087610b64565b600003610569576040517f08c379a000000000000000000000000000000000000000000000000000000000815260206004820152601460248201527f4e6f64653a20646f6573206e6f74206578697374000000000000000000000000604482015260640161033d565b60006105957f000000000000000000000000000000000000000000000000000000000000000088610fdb565b905080600003610601576040517f08c379a000000000000000000000000000000000000000000000000000000000815260206004820152601d60248201527f4e6f64653a20736361762062617220646f6573206e6f74206578697374000000604482015260640161033d565b6106517f00000000000000000000000000000000000000000000000000000000000000007f0000000000000000000000000000000000000000000000000000000000000000838989898989611024565b505050505050505050565b610664610b2e565b61066e600061103d565b565b610678610b2e565b6106a27f000000000000000000000000000000000000000000000000000000000000000083610b64565b60000361070b576040517f08c379a000000000000000000000000000000000000000000000000000000000815260206004820152601460248201527f4e6f64653a20646f6573206e6f74206578697374000000000000000000000000604482015260640161033d565b61076c7f00000000000000000000000000000000000000000000000000000000000000006040518060400160405280600481526020017f6e6f64650000000000000000000000000000000000000000000000000000000081525084846110a3565b505050565b600061077b610b2e565b600080600080600080878060200190518101906107989190613d97565b95509550955095509550955060006107d07f000000000000000000000000000000000000000000000000000000000000000088610b64565b90508060000361083c576040517f08c379a000000000000000000000000000000000000000000000000000000000815260206004820152601360248201527f4e6f646520646f6573206e6f7420657869737400000000000000000000000000604482015260640161033d565b604080516020808201909252600090528551908601207fc5d2460186f7233c927e7db2dcc703c0e500b653ca82273b7bfad8045d85a470036108da576040517f08c379a000000000000000000000000000000000000000000000000000000000815260206004820181905260248201527f526571756972656d656e7420747970652063616e6e6f7420626520656d707479604482015260640161033d565b61094d7f00000000000000000000000000000000000000000000000000000000000000007f0000000000000000000000000000000000000000000000000000000000000000898960405180608001604052808b81526020018a81526020018963ffffffff1681526020018881525061136f565b9998505050505050505050565b6000610964610b2e565b600080600080600080878060200190518101906109819190613e50565b95509550955095509550955060006109b97f000000000000000000000000000000000000000000000000000000000000000088610b64565b90508015610a23576040517f08c379a000000000000000000000000000000000000000000000000000000000815260206004820152601460248201527f4e6f64653a20616c726561647920657869737473000000000000000000000000604482015260640161033d565b610a517f0000000000000000000000000000000000000000000000000000000000000000888888888861139b565b604080516020808201909252600090528351908401209091507fc5d2460186f7233c927e7db2dcc703c0e500b653ca82273b7bfad8045d85a47014610abb57610abb7f00000000000000000000000000000000000000000000000000000000000000008284611730565b98975050505050505050565b610acf610b2e565b63389a75e1600c52806000526020600c208054421115610af757636f5e88186000526004601cfd5b60009055610b048161103d565b50565b610b0f610b2e565b8060601b610b2557637448fbae6000526004601cfd5b610b048161103d565b7fffffffffffffffffffffffffffffffffffffffffffffffffffffffff7487392754331461066e576382b429006000526004601cfd5b600080610b70836117cb565b9050610bb284826040518060400160405280600481526020017f4e4f444500000000000000000000000000000000000000000000000000000000815250611863565b610bbd576000610bbf565b805b9150505b92915050565b610bd383836118b9565b610bfd837f076fae2ce684ff843e499be243657d8fb16b0eb71350c7a9da8fa7be44c14f3e611953565b73ffffffffffffffffffffffffffffffffffffffff16634cc82215836040518263ffffffff1660e01b8152600401610c3791815260200190565b600060405180830381600087803b158015610c5157600080fd5b505af1158015610c65573d6000803e3d6000fd5b50505050610c96837f024accd0d273ef6123273b21662f5cc055a7d58adf98cc1b060edd029af93f7f60001c611953565b73ffffffffffffffffffffffffffffffffffffffff16634cc82215836040518263ffffffff1660e01b8152600401610cd091815260200190565b600060405180830381600087803b158015610cea57600080fd5b505af1158015610cfe573d6000803e3d6000fd5b50505050610d2f837f3be9611062b8582cf4b9a4eafe577dbde7dcd7779a1efb46d73e212026c4b0cc60001c611953565b73ffffffffffffffffffffffffffffffffffffffff16634cc82215836040518263ffffffff1660e01b8152600401610d6991815260200190565b600060405180830381600087803b158015610d8357600080fd5b505af1158015610d97573d6000803e3d6000fd5b50505050610dc8837ff3e296372a5e5be810386b4a0416d479397a474fb9d4f37f1eed4c72bf11af6d60001c611953565b73ffffffffffffffffffffffffffffffffffffffff16634cc82215836040518263ffffffff1660e01b8152600401610e0291815260200190565b600060405180830381600087803b158015610e1c57600080fd5b505af1158015610e30573d6000803e3d6000fd5b50505050610e61837ffdbdfda9d0933af67d5682f368771753d17c0fef55c57d62a98476dd7509058060001c611953565b73ffffffffffffffffffffffffffffffffffffffff16634cc82215836040518263ffffffff1660e01b8152600401610e9b91815260200190565b600060405180830381600087803b158015610eb557600080fd5b505af1158015610ec9573d6000803e3d6000fd5b50505050610efa837f2acf3c3c6b18ed6530ed0fd161fd0b65f4febe79d1182824d3263e852d29ca0360001c611953565b73ffffffffffffffffffffffffffffffffffffffff16634cc82215836040518263ffffffff1660e01b8152600401610f3491815260200190565b600060405180830381600087803b158015610f4e57600080fd5b505af1158015610f62573d6000803e3d6000fd5b505050506000610f728483611a97565b905060005b8151811015610fb557610fa385838381518110610f9657610f96613f1d565b6020026020010151611aab565b80610fad81613f7b565b915050610f77565b506000610fc28584610fdb565b90508015610fd457610fd48582611abf565b5050505050565b600061101d836040518060400160405280600481526020017f6e6f64650000000000000000000000000000000000000000000000000000000081525084611d38565b9392505050565b600061094d8861103389611df7565b8888888888611e32565b7fffffffffffffffffffffffffffffffffffffffffffffffffffffffff74873927805473ffffffffffffffffffffffffffffffffffffffff9092169182907f8be0079c531659141344cd1fd0a4f28419497f9722a3daafe3b4186f6b6457e0600080a355565b60006110af8484611e78565b90506110db857ff70dee74a99a7bf98a6058c2e93635b82826d8267ec7a3a05d2f12dcbf92534d611953565b73ffffffffffffffffffffffffffffffffffffffff166360fe47b1826040518263ffffffff1660e01b815260040161111591815260200190565b600060405180830381600087803b15801561112f57600080fd5b505af1158015611143573d6000803e3d6000fd5b50505050611174857f62adc4221185187a288916c2630b5e1f37e9437c5b68d55bc59b9debc23f19d060001c611953565b6040517fd923c3c40000000000000000000000000000000000000000000000000000000081526004810183905263ffffffff8516602482015273ffffffffffffffffffffffffffffffffffffffff919091169063d923c3c490604401600060405180830381600087803b1580156111ea57600080fd5b505af11580156111fe573d6000803e3d6000fd5b5050505061122f857fb25ea67b55901db62e4b14311a8c1ab178fec3948b4b493a711970a50aa2a2e160001c611953565b6040517f1ab06ee5000000000000000000000000000000000000000000000000000000008152600481018390526024810184905273ffffffffffffffffffffffffffffffffffffffff9190911690631ab06ee590604401600060405180830381600087803b1580156112a057600080fd5b505af11580156112b4573d6000803e3d6000fd5b505050506112e5857f024accd0d273ef6123273b21662f5cc055a7d58adf98cc1b060edd029af93f7f60001c611953565b73ffffffffffffffffffffffffffffffffffffffff16636437197782866040518363ffffffff1660e01b815260040161131f929190613fb3565b600060405180830381600087803b15801561133957600080fd5b505af115801561134d573d6000803e3d6000fd5b50505050949350505050565b8051602091820120825192909101919091201490565b600061138586868461138088611eca565b611f2a565b9050611392858285612030565b95945050505050565b60006113a6866117cb565b90506113e887826040518060400160405280600481526020017f4e4f4445000000000000000000000000000000000000000000000000000000008152506120c1565b611412877f076fae2ce684ff843e499be243657d8fb16b0eb71350c7a9da8fa7be44c14f3e611953565b6040517fd923c3c40000000000000000000000000000000000000000000000000000000081526004810183905263ffffffff8816602482015273ffffffffffffffffffffffffffffffffffffffff919091169063d923c3c490604401600060405180830381600087803b15801561148857600080fd5b505af115801561149c573d6000803e3d6000fd5b505050506114cd877f024accd0d273ef6123273b21662f5cc055a7d58adf98cc1b060edd029af93f7f60001c611953565b73ffffffffffffffffffffffffffffffffffffffff16636437197782876040518363ffffffff1660e01b8152600401611507929190613fb3565b600060405180830381600087803b15801561152157600080fd5b505af1158015611535573d6000803e3d6000fd5b50505050611566877f3be9611062b8582cf4b9a4eafe577dbde7dcd7779a1efb46d73e212026c4b0cc60001c611953565b6040517fd923c3c40000000000000000000000000000000000000000000000000000000081526004810183905263ffffffff8616602482015273ffffffffffffffffffffffffffffffffffffffff919091169063d923c3c490604401600060405180830381600087803b1580156115dc57600080fd5b505af11580156115f0573d6000803e3d6000fd5b50505050611621877f2acf3c3c6b18ed6530ed0fd161fd0b65f4febe79d1182824d3263e852d29ca0360001c611953565b73ffffffffffffffffffffffffffffffffffffffff16636437197782856040518363ffffffff1660e01b815260040161165b929190613fb3565b600060405180830381600087803b15801561167557600080fd5b505af1158015611689573d6000803e3d6000fd5b505050506116ba877ffdbdfda9d0933af67d5682f368771753d17c0fef55c57d62a98476dd7509058060001c611953565b73ffffffffffffffffffffffffffffffffffffffff16636437197782846040518363ffffffff1660e01b81526004016116f4929190613fb3565b600060405180830381600087803b15801561170e57600080fd5b505af1158015611722573d6000803e3d6000fd5b505050509695505050505050565b61175a837ff3e296372a5e5be810386b4a0416d479397a474fb9d4f37f1eed4c72bf11af6d611953565b73ffffffffffffffffffffffffffffffffffffffff16636437197783836040518363ffffffff1660e01b8152600401611794929190613fb3565b600060405180830381600087803b1580156117ae57600080fd5b505af11580156117c2573d6000803e3d6000fd5b50505050505050565b6040517f6e6f64650000000000000000000000000000000000000000000000000000000060208201527fffffffff0000000000000000000000000000000000000000000000000000000060e083901b1660248201526000906028015b604080517fffffffffffffffffffffffffffffffffffffffffffffffffffffffffffffffe0818403018152919052805160209091012092915050565b60006118b18383611894877f5d88ced8d8e079072bf73f49fc87661b519c50d79482941abb852ba2b10909cd611953565b73ffffffffffffffffffffffffffffffffffffffff1691906120eb565b949350505050565b6118e3827f5d88ced8d8e079072bf73f49fc87661b519c50d79482941abb852ba2b10909cd611953565b73ffffffffffffffffffffffffffffffffffffffff16634cc82215826040518263ffffffff1660e01b815260040161191d91815260200190565b600060405180830381600087803b15801561193757600080fd5b505af115801561194b573d6000803e3d6000fd5b505050505050565b6040517ffbdfa1ea00000000000000000000000000000000000000000000000000000000815260048101829052600090819073ffffffffffffffffffffffffffffffffffffffff85169063fbdfa1ea90602401600060405180830381865afa1580156119c3573d6000803e3d6000fd5b505050506040513d6000823e601f3d9081017fffffffffffffffffffffffffffffffffffffffffffffffffffffffffffffffe0168201604052611a099190810190613fcc565b90508051600003611a76576040517f08c379a000000000000000000000000000000000000000000000000000000000815260206004820152601160248201527f6964206e6f742072656769737465726564000000000000000000000000000000604482015260640161033d565b610bbf81600081518110611a8c57611a8c613f1d565b602002602001015190565b606061101d83611aa684611eca565b61210e565b611ab582826121d7565b61037182826124fe565b611ae9827f62adc4221185187a288916c2630b5e1f37e9437c5b68d55bc59b9debc23f19d0611953565b73ffffffffffffffffffffffffffffffffffffffff16634cc82215826040518263ffffffff1660e01b8152600401611b2391815260200190565b600060405180830381600087803b158015611b3d57600080fd5b505af1158015611b51573d6000803e3d6000fd5b50505050611b82827ff70dee74a99a7bf98a6058c2e93635b82826d8267ec7a3a05d2f12dcbf92534d60001c611953565b73ffffffffffffffffffffffffffffffffffffffff16634cc82215826040518263ffffffff1660e01b8152600401611bbc91815260200190565b600060405180830381600087803b158015611bd657600080fd5b505af1158015611bea573d6000803e3d6000fd5b50505050611c1b827fb25ea67b55901db62e4b14311a8c1ab178fec3948b4b493a711970a50aa2a2e160001c611953565b73ffffffffffffffffffffffffffffffffffffffff16634cc82215826040518263ffffffff1660e01b8152600401611c5591815260200190565b600060405180830381600087803b158015611c6f57600080fd5b505af1158015611c83573d6000803e3d6000fd5b50505050611cb4827f024accd0d273ef6123273b21662f5cc055a7d58adf98cc1b060edd029af93f7f60001c611953565b73ffffffffffffffffffffffffffffffffffffffff16634cc82215826040518263ffffffff1660e01b8152600401611cee91815260200190565b600060405180830381600087803b158015611d0857600080fd5b505af1158015611d1c573d6000803e3d6000fd5b505050506000611d2c8383612528565b905061076c8382612537565b600080611d458484611e78565b9050611d71857ff70dee74a99a7bf98a6058c2e93635b82826d8267ec7a3a05d2f12dcbf92534d611953565b73ffffffffffffffffffffffffffffffffffffffff1663cccf7a8e826040518263ffffffff1660e01b8152600401611dab91815260200190565b602060405180830381865afa158015611dc8573d6000803e3d6000fd5b505050506040513d601f19601f82011682018060405250810190611dec9190614001565b6118b1576000611392565b6040517f73636176656e67652e72657761726400000000000000000000000000000000006020820152602f8101829052600090604f01611827565b60008463ffffffff16600003611e5057611e4d888888612578565b94505b611e5b878787612594565b9050611e6d88828989898989896125e9565b979650505050505050565b60008282604051602001611e8d929190614023565b604080517fffffffffffffffffffffffffffffffffffffffffffffffffffffffffffffffe081840301815291905280516020909101209392505050565b6040517f6e6f64652e726571756972656d656e740000000000000000000000000000000060208201527fffffffff0000000000000000000000000000000000000000000000000000000060e083901b166030820152600090603401611827565b60008473ffffffffffffffffffffffffffffffffffffffff1663614bfa6e6040518163ffffffff1660e01b81526004016020604051808303816000875af1158015611f79573d6000803e3d6000fd5b505050506040513d601f19601f82011682018060405250810190611f9d9190614099565b9050611faa848285612a11565b611fd4847fde0f9b459fab67ff56929343dacb07b0c0a1f8509d3184dc6d736f68b80381de611953565b6040517f1ab06ee5000000000000000000000000000000000000000000000000000000008152600481018390526024810184905273ffffffffffffffffffffffffffffffffffffffff9190911690631ab06ee59060440161131f565b61205a837f0e980fab8730829e1930c8cdc024ae35650d9eec12d20425b19fc4ade883178c611953565b73ffffffffffffffffffffffffffffffffffffffff16631ab06ee5836120808685612b5a565b6040517fffffffff0000000000000000000000000000000000000000000000000000000060e085901b16815260048101929092526024820152604401611794565b61175a837f5d88ced8d8e079072bf73f49fc87661b519c50d79482941abb852ba2b10909cd611953565b60006118b1826120fb8686612cba565b8151602092830120815191909201201490565b606061213a837fde0f9b459fab67ff56929343dacb07b0c0a1f8509d3184dc6d736f68b80381de611953565b73ffffffffffffffffffffffffffffffffffffffff1663fbdfa1ea836040518263ffffffff1660e01b815260040161217491815260200190565b600060405180830381865afa158015612191573d6000803e3d6000fd5b505050506040513d6000823e601f3d9081017fffffffffffffffffffffffffffffffffffffffffffffffffffffffffffffffe016820160405261101d9190810190613fcc565b612201827f024accd0d273ef6123273b21662f5cc055a7d58adf98cc1b060edd029af93f7f611953565b73ffffffffffffffffffffffffffffffffffffffff16634cc82215826040518263ffffffff1660e01b815260040161223b91815260200190565b600060405180830381600087803b15801561225557600080fd5b505af1158015612269573d6000803e3d6000fd5b5050505061229a827f787589c9eda599ea35279a6d93e360e8fdc5402255545ca394f5033f5e58ed4260001c611953565b73ffffffffffffffffffffffffffffffffffffffff16634cc82215826040518263ffffffff1660e01b81526004016122d491815260200190565b600060405180830381600087803b1580156122ee57600080fd5b505af1158015612302573d6000803e3d6000fd5b50505050612333827f62adc4221185187a288916c2630b5e1f37e9437c5b68d55bc59b9debc23f19d060001c611953565b73ffffffffffffffffffffffffffffffffffffffff16634cc82215826040518263ffffffff1660e01b815260040161236d91815260200190565b600060405180830381600087803b15801561238757600080fd5b505af115801561239b573d6000803e3d6000fd5b505050506123cc827fb25ea67b55901db62e4b14311a8c1ab178fec3948b4b493a711970a50aa2a2e160001c611953565b73ffffffffffffffffffffffffffffffffffffffff16634cc82215826040518263ffffffff1660e01b815260040161240691815260200190565b600060405180830381600087803b15801561242057600080fd5b505af1158015612434573d6000803e3d6000fd5b50505050612465827fde0f9b459fab67ff56929343dacb07b0c0a1f8509d3184dc6d736f68b80381de60001c611953565b73ffffffffffffffffffffffffffffffffffffffff16634cc82215826040518263ffffffff1660e01b815260040161249f91815260200190565b600060405180830381600087803b1580156124b957600080fd5b505af11580156124cd573d6000803e3d6000fd5b505050506118e3827fa7b4bd2d760054205ea7cf761a119827e2316646eabcbc6653656187e7d030cb60001c611953565b6118e3827f0e980fab8730829e1930c8cdc024ae35650d9eec12d20425b19fc4ade883178c611953565b606061101d83611aa684611df7565b60005b815181101561076c576125668383838151811061255957612559613f1d565b6020026020010151612da6565b8061257081613f7b565b91505061253a565b600080612586858585613011565b5190506113928160016140b2565b60008383836040516020016125ab939291906140c5565b604080517fffffffffffffffffffffffffffffffffffffffffffffffffffffffffffffffe08184030181529190528051602090910120949350505050565b6000612615897fb25ea67b55901db62e4b14311a8c1ab178fec3948b4b493a711970a50aa2a2e1611953565b6040517fcccf7a8e000000000000000000000000000000000000000000000000000000008152600481018a905290915073ffffffffffffffffffffffffffffffffffffffff82169063cccf7a8e90602401602060405180830381865afa158015612683573d6000803e3d6000fd5b505050506040513d601f19601f820116820180604052508101906126a79190614001565b1561270e576040517f08c379a000000000000000000000000000000000000000000000000000000000815260206004820152601660248201527f5265776172643a20616c72656164792065786973747300000000000000000000604482015260640161033d565b612738897fde0f9b459fab67ff56929343dacb07b0c0a1f8509d3184dc6d736f68b80381de611953565b6040517f1ab06ee5000000000000000000000000000000000000000000000000000000008152600481018a90526024810189905273ffffffffffffffffffffffffffffffffffffffff9190911690631ab06ee590604401600060405180830381600087803b1580156127a957600080fd5b505af11580156127bd573d6000803e3d6000fd5b505050506127ee897f024accd0d273ef6123273b21662f5cc055a7d58adf98cc1b060edd029af93f7f60001c611953565b73ffffffffffffffffffffffffffffffffffffffff16636437197789886040518363ffffffff1660e01b8152600401612828929190613fb3565b600060405180830381600087803b15801561284257600080fd5b505af1158015612856573d6000803e3d6000fd5b50505050612887897f62adc4221185187a288916c2630b5e1f37e9437c5b68d55bc59b9debc23f19d060001c611953565b6040517fd923c3c4000000000000000000000000000000000000000000000000000000008152600481018a905263ffffffff8716602482015273ffffffffffffffffffffffffffffffffffffffff919091169063d923c3c490604401600060405180830381600087803b1580156128fd57600080fd5b505af1158015612911573d6000803e3d6000fd5b50506040517f1ab06ee5000000000000000000000000000000000000000000000000000000008152600481018b90526024810185905273ffffffffffffffffffffffffffffffffffffffff84169250631ab06ee59150604401600060405180830381600087803b15801561298457600080fd5b505af1158015612998573d6000803e3d6000fd5b505060408051808201909152600e81527f4954454d5f44524f505441424c450000000000000000000000000000000000006020918201528851908901207f279a278842b575fd3b23481f3a18c340199cd2454b90e6615863f83352238a8d149150612a009050565b156106515761065189898686613199565b612a258383836000015184602001516132ce565b604081015163ffffffff1615612adf57612a5f837f62adc4221185187a288916c2630b5e1f37e9437c5b68d55bc59b9debc23f19d0611953565b73ffffffffffffffffffffffffffffffffffffffff1663d923c3c48383604001516040518363ffffffff1660e01b8152600401612aac92919091825263ffffffff16602082015260400190565b600060405180830381600087803b158015612ac657600080fd5b505af1158015612ada573d6000803e3d6000fd5b505050505b60608101511561076c57612b13837fb25ea67b55901db62e4b14311a8c1ab178fec3948b4b493a711970a50aa2a2e1611953565b73ffffffffffffffffffffffffffffffffffffffff16631ab06ee58383606001516040518363ffffffff1660e01b8152600401611794929190918252602082015260400190565b6000612ba46040518060400160405280600481526020017f4b414d49000000000000000000000000000000000000000000000000000000008152508361135990919063ffffffff16565b15612bd057507fd34ba4c29e01e1dffd3809686ce3d39943a2ad2167f8ecd4ecbf3176d51c27d6610bc3565b60408051808201909152600781527f4143434f554e54000000000000000000000000000000000000000000000000006020918201528251908301207f6560a52eebf0c2ca142b3c6d384ba1ef9361063168c2bd8b60dd7f476f2d832803612c5857507f37c6543901df832fa6900c3db9b6a34ac3cf572b453474ea23c65fb22dee5442610bc3565b6040517f08c379a000000000000000000000000000000000000000000000000000000000815260206004820152601460248201527f4c6962466f723a20696e76616c69642074797065000000000000000000000000604482015260640161033d565b6040517fdd98e3c90000000000000000000000000000000000000000000000000000000081526004810182905260609060009073ffffffffffffffffffffffffffffffffffffffff85169063dd98e3c990602401600060405180830381865afa158015612d2b573d6000803e3d6000fd5b505050506040513d6000823e601f3d9081017fffffffffffffffffffffffffffffffffffffffffffffffffffffffffffffffe0168201604052612d719190810190614142565b90508051600003612d92575050604080516020810190915260008152610bc3565b80806020019051810190610bbf9190614142565b612dd0827fde0f9b459fab67ff56929343dacb07b0c0a1f8509d3184dc6d736f68b80381de611953565b73ffffffffffffffffffffffffffffffffffffffff16634cc82215826040518263ffffffff1660e01b8152600401612e0a91815260200190565b600060405180830381600087803b158015612e2457600080fd5b505af1158015612e38573d6000803e3d6000fd5b50505050612e69827f024accd0d273ef6123273b21662f5cc055a7d58adf98cc1b060edd029af93f7f60001c611953565b73ffffffffffffffffffffffffffffffffffffffff16634cc82215826040518263ffffffff1660e01b8152600401612ea391815260200190565b600060405180830381600087803b158015612ebd57600080fd5b505af1158015612ed1573d6000803e3d6000fd5b50505050612f02827f62adc4221185187a288916c2630b5e1f37e9437c5b68d55bc59b9debc23f19d060001c611953565b73ffffffffffffffffffffffffffffffffffffffff16634cc82215826040518263ffffffff1660e01b8152600401612f3c91815260200190565b600060405180830381600087803b158015612f5657600080fd5b505af1158015612f6a573d6000803e3d6000fd5b50505050612f9b827fb25ea67b55901db62e4b14311a8c1ab178fec3948b4b493a711970a50aa2a2e160001c611953565b73ffffffffffffffffffffffffffffffffffffffff16634cc82215826040518263ffffffff1660e01b8152600401612fd591815260200190565b600060405180830381600087803b158015612fef57600080fd5b505af1158015613003573d6000803e3d6000fd5b5050505061037182826133cb565b604080516002808252606082810190935260009190816020015b6040805160608082018352600080835260208301529181019190915281526020019060019003908161302b57505060408051606081019091526002815290915060208101613099877fde0f9b459fab67ff56929343dacb07b0c0a1f8509d3184dc6d736f68b80381de61348e565b73ffffffffffffffffffffffffffffffffffffffff168152602001856040516020016130c791815260200190565b604051602081830303815290604052815250816000815181106130ec576130ec613f1d565b602090810291909101015260408051606081019091528060028152602001613134877f024accd0d273ef6123273b21662f5cc055a7d58adf98cc1b060edd029af93f7f61348e565b73ffffffffffffffffffffffffffffffffffffffff168152602001846040516020016131609190613b2e565b6040516020818303038152906040528152508160018151811061318557613185613f1d565b60200260200101819052506113928161349a565b6131c3847fc6a29e9d963ddf0ecc32d72ae16fddf22661517259c701d58065adfefd57eb02611953565b73ffffffffffffffffffffffffffffffffffffffff1663f96911fa84846040518363ffffffff1660e01b81526004016131fd9291906141a6565b600060405180830381600087803b15801561321757600080fd5b505af115801561322b573d6000803e3d6000fd5b5050505061325c847fc5feb1aac7c8c1b30106b97e2241d75b44c975ca1e5f2f5e02394d8d4257f88c60001c611953565b73ffffffffffffffffffffffffffffffffffffffff1663946aadc684836040518363ffffffff1660e01b8152600401613296929190614235565b600060405180830381600087803b1580156132b057600080fd5b505af11580156132c4573d6000803e3d6000fd5b5050505050505050565b6132f8847f024accd0d273ef6123273b21662f5cc055a7d58adf98cc1b060edd029af93f7f611953565b73ffffffffffffffffffffffffffffffffffffffff16636437197784846040518363ffffffff1660e01b8152600401613332929190613fb3565b600060405180830381600087803b15801561334c57600080fd5b505af1158015613360573d6000803e3d6000fd5b50505050613391847f787589c9eda599ea35279a6d93e360e8fdc5402255545ca394f5033f5e58ed4260001c611953565b73ffffffffffffffffffffffffffffffffffffffff16636437197784836040518363ffffffff1660e01b8152600401613296929190613fb3565b6133f5827fc6a29e9d963ddf0ecc32d72ae16fddf22661517259c701d58065adfefd57eb02611953565b73ffffffffffffffffffffffffffffffffffffffff16634cc82215826040518263ffffffff1660e01b815260040161342f91815260200190565b600060405180830381600087803b15801561344957600080fd5b505af115801561345d573d6000803e3d6000fd5b505050506118e3827fc5feb1aac7c8c1b30106b97e2241d75b44c975ca1e5f2f5e02394d8d4257f88c60001c611953565b600061101d8383611953565b606081516000036134be5760408051600080825260208201909252905b5092915050565b6002826000815181106134d3576134d3613f1d565b60200260200101516000015160038111156134f0576134f0614177565b14613527576040517feec45f3600000000000000000000000000000000000000000000000000000000815260040160405180910390fd5b60008260008151811061353c5761353c613f1d565b60200260200101516020015173ffffffffffffffffffffffffffffffffffffffff1663b361be468460008151811061357657613576613f1d565b6020026020010151604001516040518263ffffffff1660e01b815260040161359e9190613b2e565b600060405180830381865afa1580156135bb573d6000803e3d6000fd5b505050506040513d6000823e601f3d9081017fffffffffffffffffffffffffffffffffffffffffffffffffffffffffffffffe01682016040526136019190810190613fcc565b905060015b83518110156134b75761363284828151811061362457613624613f1d565b602002602001015183613646565b91508061363e81613f7b565b915050613606565b60606000836020015173ffffffffffffffffffffffffffffffffffffffff16634323c4ef846040518263ffffffff1660e01b8152600401613687919061424e565b600060405180830381865afa1580156136a4573d6000803e3d6000fd5b505050506040513d6000823e601f3d9081017fffffffffffffffffffffffffffffffffffffffffffffffffffffffffffffffe01682016040526136ea9190810190614261565b90506000805b82518110156137665761371c8684838151811061370f5761370f613f1d565b6020026020010151613771565b15613733578161372b81613f7b565b925050613754565b600085828151811061374757613747613f1d565b6020026020010181815250505b8061375e81613f7b565b9150506136f0565b506113928482613858565b6000808351600381111561378757613787614177565b03613796575080511515610bc3565b6002835160038111156137ab576137ab614177565b036137cc578180519060200120836040015180519060200120149050610bc3565b6001835160038111156137e1576137e1614177565b036137ef5750805115610bc3565b60038351600381111561380457613804614177565b0361382657818051906020012083604001518051906020012014159050610bc3565b6040517feec45f3600000000000000000000000000000000000000000000000000000000815260040160405180910390fd5b6060816000036138775750604080516000815260208101909152610bc3565b60008267ffffffffffffffff8111156138925761389261397c565b6040519080825280602002602001820160405280156138bb578160200160208202803683370190505b5090506000805b8551811015613943578581815181106138dd576138dd613f1d565b6020026020010151600014613931578581815181106138fe576138fe613f1d565b602002602001015183838061391290613f7b565b94508151811061392457613924613f1d565b6020026020010181815250505b8061393b81613f7b565b9150506138c2565b5090949350505050565b63ffffffff81168114610b0457600080fd5b60006020828403121561397157600080fd5b8135610bbd8161394d565b7f4e487b7100000000000000000000000000000000000000000000000000000000600052604160045260246000fd5b604051601f82017fffffffffffffffffffffffffffffffffffffffffffffffffffffffffffffffe016810167ffffffffffffffff811182821017156139f2576139f261397c565b604052919050565b600067ffffffffffffffff821115613a1457613a1461397c565b50601f017fffffffffffffffffffffffffffffffffffffffffffffffffffffffffffffffe01660200190565b600060208284031215613a5257600080fd5b813567ffffffffffffffff811115613a6957600080fd5b8201601f81018413613a7a57600080fd5b8035613a8d613a88826139fa565b6139ab565b818152856020838501011115613aa257600080fd5b81602084016020830137600091810160200191909152949350505050565b60005b83811015613adb578181015183820152602001613ac3565b50506000910152565b60008151808452613afc816020860160208601613ac0565b601f017fffffffffffffffffffffffffffffffffffffffffffffffffffffffffffffffe0169290920160200192915050565b60208152600061101d6020830184613ae4565b60008060408385031215613b5457600080fd5b8235613b5f8161394d565b946020939093013593505050565b600060208284031215613b7f57600080fd5b813573ffffffffffffffffffffffffffffffffffffffff81168114610bbd57600080fd5b80516103e18161394d565b600082601f830112613bbf57600080fd5b8151613bcd613a88826139fa565b818152846020838601011115613be257600080fd5b6118b1826020830160208701613ac0565b600067ffffffffffffffff821115613c0d57613c0d61397c565b5060051b60200190565b600082601f830112613c2857600080fd5b81516020613c38613a8883613bf3565b82815260059290921b84018101918181019086841115613c5757600080fd5b8286015b84811015613c725780518352918301918301613c5b565b509695505050505050565b60008060008060008060c08789031215613c9657600080fd5b8651613ca18161394d565b8096505060208088015167ffffffffffffffff80821115613cc157600080fd5b613ccd8b838c01613bae565b975060408a01519150613cdf8261394d565b60608a015191965080821115613cf457600080fd5b818a0191508a601f830112613d0857600080fd5b8151613d16613a8882613bf3565b81815260059190911b8301840190848101908d831115613d3557600080fd5b938501935b82851015613d5c578451613d4d8161394d565b82529385019390850190613d3a565b60808d01519098509450505080831115613d7557600080fd5b5050613d8389828a01613c17565b92505060a087015190509295509295509295565b60008060008060008060c08789031215613db057600080fd5b8651613dbb8161394d565b602088015190965067ffffffffffffffff80821115613dd957600080fd5b613de58a838b01613bae565b96506040890151915080821115613dfb57600080fd5b613e078a838b01613bae565b95506060890151915080821115613e1d57600080fd5b50613e2a89828a01613bae565b9350506080870151613e3b8161394d565b8092505060a087015190509295509295509295565b60008060008060008060c08789031215613e6957600080fd5b613e7287613ba3565b9550602087015167ffffffffffffffff80821115613e8f57600080fd5b613e9b8a838b01613bae565b9650613ea960408a01613ba3565b95506060890151915080821115613ebf57600080fd5b613ecb8a838b01613bae565b94506080890151915080821115613ee157600080fd5b613eed8a838b01613bae565b935060a0890151915080821115613f0357600080fd5b50613f1089828a01613bae565b9150509295509295509295565b7f4e487b7100000000000000000000000000000000000000000000000000000000600052603260045260246000fd5b7f4e487b7100000000000000000000000000000000000000000000000000000000600052601160045260246000fd5b60007fffffffffffffffffffffffffffffffffffffffffffffffffffffffffffffffff8203613fac57613fac613f4c565b5060010190565b8281526040602082015260006118b16040830184613ae4565b600060208284031215613fde57600080fd5b815167ffffffffffffffff811115613ff557600080fd5b610bbf84828501613c17565b60006020828403121561401357600080fd5b81518015158114610bbd57600080fd5b7f72656769737472792e73636176656e676500000000000000000000000000000081526000835161405b816011850160208801613ac0565b80830190507fffffffff000000000000000000000000000000000000000000000000000000008460e01b166011820152601581019150509392505050565b6000602082840312156140ab57600080fd5b5051919050565b80820180821115610bc357610bc3613f4c565b7f7265776172642e696e7374616e63650000000000000000000000000000000000815283600f8201526000835161410381602f850160208801613ac0565b80830190507fffffffff000000000000000000000000000000000000000000000000000000008460e01b16602f82015260338101915050949350505050565b60006020828403121561415457600080fd5b815167ffffffffffffffff81111561416b57600080fd5b610bbf84828501613bae565b7f4e487b7100000000000000000000000000000000000000000000000000000000600052602160045260246000fd5b6000604082018483526020604081850152818551808452606086019150828701935060005b818110156141ed57845163ffffffff16835293830193918301916001016141cb565b5090979650505050505050565b600081518084526020808501945080840160005b8381101561422a5781518752958201959082019060010161420e565b509495945050505050565b8281526040602082015260006118b160408301846141fa565b60208152600061101d60208301846141fa565b6000602080838503121561427457600080fd5b825167ffffffffffffffff8082111561428c57600080fd5b818501915085601f8301126142a057600080fd5b81516142ae613a8882613bf3565b81815260059190911b830184019084810190888311156142cd57600080fd5b8585015b83811015614305578051858111156142e95760008081fd5b6142f78b89838a0101613bae565b8452509186019186016142d1565b509897505050505050505056fea2646970667358221220a41f2a01d68384ae662f60692cfd91fc8c611ac0b78558a35f9269202e0893f264736f6c63430008110033","linkReferences":{}},"methodIdentifiers":{"addRequirement(bytes)":"7e534103","addScavBar(uint32,uint256)":"7ddddb19","addScavReward(bytes)":"6d8ca511","cancelOwnershipHandover()":"54d1f13d","completeOwnershipHandover(address)":"f04e283e","create(bytes)":"cf5ba53f","deprecate()":"0fcc0c28","execute(bytes)":"09c5eabe","owner()":"8da5cb5b","ownershipHandoverExpiresAt(address)":"fee81cf4","remove(uint32)":"00d84fd8","renounceOwnership()":"715018a6","requestOwnershipHandover()":"25692962","transferOwnership(address)":"f2fde38b"},"id":303}