{"abi":[{"type":"constructor","inputs":[{"name":"_world","type":"address","internalType":"contract IWorld"},{"name":"_components","type":"address","internalType":"address"}],"stateMutability":"nonpayable"},{"type":"function","name":"cancelOwnershipHandover","inputs":[],"outputs":[],"stateMutability":"payable"},{"type":"function","name":"completeOwnershipHandover","inputs":[{"name":"pendingOwner","type":"address","internalType":"address"}],"outputs":[],"stateMutability":"payable"},{"type":"function","name":"create","inputs":[{"name":"arguments","type":"bytes","internalType":"bytes"}],"outputs":[{"name":"","type":"uint256","internalType":"uint256"}],"stateMutability":"nonpayable"},{"type":"function","name":"deprecate","inputs":[],"outputs":[],"stateMutability":"nonpayable"},{"type":"function","name":"execute","inputs":[{"name":"arguments","type":"bytes","internalType":"bytes"}],"outputs":[{"name":"","type":"bytes","internalType":"bytes"}],"stateMutability":"nonpayable"},{"type":"function","name":"owner","inputs":[],"outputs":[{"name":"result","type":"address","internalType":"address"}],"stateMutability":"view"},{"type":"function","name":"ownershipHandoverExpiresAt","inputs":[{"name":"pendingOwner","type":"address","internalType":"address"}],"outputs":[{"name":"result","type":"uint256","internalType":"uint256"}],"stateMutability":"view"},{"type":"function","name":"renounceOwnership","inputs":[],"outputs":[],"stateMutability":"payable"},{"type":"function","name":"requestOwnershipHandover","inputs":[],"outputs":[],"stateMutability":"payable"},{"type":"function","name":"setName","inputs":[{"name":"index","type":"uint32","internalType":"uint32"},{"name":"name","type":"string","internalType":"string"}],"outputs":[],"stateMutability":"nonpayable"},{"type":"function","name":"setRoom","inputs":[{"name":"index","type":"uint32","internalType":"uint32"},{"name":"roomIndex","type":"uint32","internalType":"uint32"}],"outputs":[],"stateMutability":"nonpayable"},{"type":"function","name":"transferOwnership","inputs":[{"name":"newOwner","type":"address","internalType":"address"}],"outputs":[],"stateMutability":"payable"},{"type":"event","name":"OwnershipHandoverCanceled","inputs":[{"name":"pendingOwner","type":"address","indexed":true,"internalType":"address"}],"anonymous":false},{"type":"event","name":"OwnershipHandoverRequested","inputs":[{"name":"pendingOwner","type":"address","indexed":true,"internalType":"address"}],"anonymous":false},{"type":"event","name":"OwnershipTransferred","inputs":[{"name":"oldOwner","type":"address","indexed":true,"internalType":"address"},{"name":"newOwner","type":"address","indexed":true,"internalType":"address"}],"anonymous":false},{"type":"event","name":"SystemDeprecated","inputs":[],"anonymous":false},{"type":"error","name":"AlreadyInitialized","inputs":[]},{"type":"error","name":"NewOwnerIsZeroAddress","inputs":[]},{"type":"error","name":"NoHandoverRequest","inputs":[]},{"type":"error","name":"Unauthorized","inputs":[]}],"bytecode":{"object":"0x60c06040523480156200001157600080fd5b50604051620014533803806200145383398101604081905262000034916200012f565b81816200004133620000dc565b6001600160a01b03811615620000585780620000bd565b816001600160a01b031663ba62fbe46040518163ffffffff1660e01b8152600401602060405180830381865afa15801562000097573d6000803e3d6000fd5b505050506040513d601f19601f82011682018060405250810190620000bd91906200016e565b6001600160a01b039081166080529190911660a0525062000195915050565b6001600160a01b0316638b78c6d8198190558060007f8be0079c531659141344cd1fd0a4f28419497f9722a3daafe3b4186f6b6457e08180a35b50565b6001600160a01b03811681146200011657600080fd5b600080604083850312156200014357600080fd5b8251620001508162000119565b6020840151909250620001638162000119565b809150509250929050565b6000602082840312156200018157600080fd5b81516200018e8162000119565b9392505050565b60805160a051611278620001db600039600050506000818161039f015281816104350152818161046f015281816105050152818161055b01526105ef01526112786000f3fe6080604052600436106100c75760003560e01c806396a2c1d311610074578063f04e283e1161004e578063f04e283e146101f3578063f2fde38b14610206578063fee81cf41461021957600080fd5b806396a2c1d314610185578063996d6225146101a5578063cf5ba53f146101c557600080fd5b806354d1f13d116100a557806354d1f13d14610121578063715018a6146101295780638da5cb5b1461013157600080fd5b806309c5eabe146100cc5780630fcc0c28146101025780632569296214610119575b600080fd5b3480156100d857600080fd5b506100ec6100e7366004610e72565b61024c565b6040516100f99190610f29565b60405180910390f35b34801561010e57600080fd5b506101176102bd565b005b6101176102f0565b610117610340565b61011761037c565b34801561013d57600080fd5b507fffffffffffffffffffffffffffffffffffffffffffffffffffffffff748739275460405173ffffffffffffffffffffffffffffffffffffffff90911681526020016100f9565b34801561019157600080fd5b506101176101a0366004610f4e565b610390565b3480156101b157600080fd5b506101176101c0366004610f87565b610460565b3480156101d157600080fd5b506101e56101e0366004610e72565b61052b565b6040519081526020016100f9565b610117610201366004610feb565b610620565b610117610214366004610feb565b610660565b34801561022557600080fd5b506101e5610234366004610feb565b63389a75e1600c908152600091909152602090205490565b6060610256610687565b6040517f08c379a000000000000000000000000000000000000000000000000000000000815260206004820152600f60248201527f6e6f7420696d706c656d656e746564000000000000000000000000000000000060448201526064015b60405180910390fd5b6102c5610687565b6040517f56f33501ffd77f9fe44d81e7db7e66a66bdf52ab3e11267cdc6462763604c4c790600090a1565b60006202a30067ffffffffffffffff164201905063389a75e1600c5233600052806020600c2055337fdbf36a107da19e49527a7176a1babf963b4b0ff8cde35ee35d6cd8f1f9ac7e1d600080a250565b63389a75e1600c523360005260006020600c2055337ffa7b8eab7da67f412cc9575ed43464468f9bfbae89d1675917346ca6d8fe3c92600080a2565b610384610687565b61038e60006106bd565b565b610398610687565b60006103c47f000000000000000000000000000000000000000000000000000000000000000084610723565b905080600003610430576040517f08c379a000000000000000000000000000000000000000000000000000000000815260206004820152601360248201527f4e50433a20646f6573206e6f742065786973740000000000000000000000000060448201526064016102b4565b61045b7f000000000000000000000000000000000000000000000000000000000000000082846107ee565b505050565b610468610687565b60006104947f000000000000000000000000000000000000000000000000000000000000000084610723565b905080600003610500576040517f08c379a000000000000000000000000000000000000000000000000000000000815260206004820152601360248201527f4e50433a20646f6573206e6f742065786973740000000000000000000000000060448201526064016102b4565b61045b7f000000000000000000000000000000000000000000000000000000000000000082846108ac565b6000610535610687565b60008060008480602001905181019061054e9190611071565b92509250925060006105807f000000000000000000000000000000000000000000000000000000000000000085610723565b905080156105ea576040517f08c379a000000000000000000000000000000000000000000000000000000000815260206004820152601360248201527f4e50433a20616c7265616479206578697374730000000000000000000000000060448201526064016102b4565b6106167f0000000000000000000000000000000000000000000000000000000000000000858585610910565b9695505050505050565b610628610687565b63389a75e1600c52806000526020600c20805442111561065057636f5e88186000526004601cfd5b6000905561065d816106bd565b50565b610668610687565b8060601b61067e57637448fbae6000526004601cfd5b61065d816106bd565b7fffffffffffffffffffffffffffffffffffffffffffffffffffffffff7487392754331461038e576382b429006000526004601cfd5b7fffffffffffffffffffffffffffffffffffffffffffffffffffffffff74873927805473ffffffffffffffffffffffffffffffffffffffff9092169182907f8be0079c531659141344cd1fd0a4f28419497f9722a3daafe3b4186f6b6457e0600080a355565b604080517f4e5043000000000000000000000000000000000000000000000000000000000060208083019190915260e084901b7fffffffff0000000000000000000000000000000000000000000000000000000016602383015282516007818403018152602790920190925280519101206000906107d784826040518060400160405280600381526020017f4e50430000000000000000000000000000000000000000000000000000000000815250610a9b565b6107e25760006107e4565b805b9150505b92915050565b610818837f3be9611062b8582cf4b9a4eafe577dbde7dcd7779a1efb46d73e212026c4b0cc610af3565b6040517fd923c3c40000000000000000000000000000000000000000000000000000000081526004810184905263ffffffff8316602482015273ffffffffffffffffffffffffffffffffffffffff919091169063d923c3c4906044015b600060405180830381600087803b15801561088f57600080fd5b505af11580156108a3573d6000803e3d6000fd5b50505050505050565b6108d6837f2acf3c3c6b18ed6530ed0fd161fd0b65f4febe79d1182824d3263e852d29ca03610af3565b73ffffffffffffffffffffffffffffffffffffffff16636437197783836040518363ffffffff1660e01b81526004016108759291906110d6565b604080517f4e5043000000000000000000000000000000000000000000000000000000000060208083019190915260e086901b7fffffffff0000000000000000000000000000000000000000000000000000000016602383015282516007818403018152602790920190925280519101206000906109c486826040518060400160405280600381526020017f4e50430000000000000000000000000000000000000000000000000000000000815250610c37565b6109ee867fb29f21e001e93877c0ca9ea2483697e386afbf8bced0360395102afa8c793eea610af3565b6040517fd923c3c40000000000000000000000000000000000000000000000000000000081526004810183905263ffffffff8716602482015273ffffffffffffffffffffffffffffffffffffffff919091169063d923c3c490604401600060405180830381600087803b158015610a6457600080fd5b505af1158015610a78573d6000803e3d6000fd5b50505050610a878682866108ac565b610a928682856107ee565b95945050505050565b6000610ae98383610acc877f5d88ced8d8e079072bf73f49fc87661b519c50d79482941abb852ba2b10909cd610af3565b73ffffffffffffffffffffffffffffffffffffffff169190610c61565b90505b9392505050565b6040517ffbdfa1ea00000000000000000000000000000000000000000000000000000000815260048101829052600090819073ffffffffffffffffffffffffffffffffffffffff85169063fbdfa1ea90602401600060405180830381865afa158015610b63573d6000803e3d6000fd5b505050506040513d6000823e601f3d9081017fffffffffffffffffffffffffffffffffffffffffffffffffffffffffffffffe0168201604052610ba991908101906110ef565b90508051600003610c16576040517f08c379a000000000000000000000000000000000000000000000000000000000815260206004820152601160248201527f6964206e6f74207265676973746572656400000000000000000000000000000060448201526064016102b4565b6107e481600081518110610c2c57610c2c611195565b602002602001015190565b6108d6837f5d88ced8d8e079072bf73f49fc87661b519c50d79482941abb852ba2b10909cd610af3565b6000610ae982610c718686610c84565b8151602092830120815191909201201490565b6040517fdd98e3c90000000000000000000000000000000000000000000000000000000081526004810182905260609060009073ffffffffffffffffffffffffffffffffffffffff85169063dd98e3c990602401600060405180830381865afa158015610cf5573d6000803e3d6000fd5b505050506040513d6000823e601f3d9081017fffffffffffffffffffffffffffffffffffffffffffffffffffffffffffffffe0168201604052610d3b91908101906111c4565b90508051600003610d5c5750506040805160208101909152600081526107e8565b808060200190518101906107e4919061120d565b7f4e487b7100000000000000000000000000000000000000000000000000000000600052604160045260246000fd5b604051601f82017fffffffffffffffffffffffffffffffffffffffffffffffffffffffffffffffe016810167ffffffffffffffff81118282101715610de657610de6610d70565b604052919050565b600067ffffffffffffffff821115610e0857610e08610d70565b50601f017fffffffffffffffffffffffffffffffffffffffffffffffffffffffffffffffe01660200190565b6000610e47610e4284610dee565b610d9f565b9050828152838383011115610e5b57600080fd5b828260208301376000602084830101529392505050565b600060208284031215610e8457600080fd5b813567ffffffffffffffff811115610e9b57600080fd5b8201601f81018413610eac57600080fd5b6107e484823560208401610e34565b60005b83811015610ed6578181015183820152602001610ebe565b50506000910152565b60008151808452610ef7816020860160208601610ebb565b601f017fffffffffffffffffffffffffffffffffffffffffffffffffffffffffffffffe0169290920160200192915050565b602081526000610aec6020830184610edf565b63ffffffff8116811461065d57600080fd5b60008060408385031215610f6157600080fd5b8235610f6c81610f3c565b91506020830135610f7c81610f3c565b809150509250929050565b60008060408385031215610f9a57600080fd5b8235610fa581610f3c565b9150602083013567ffffffffffffffff811115610fc157600080fd5b8301601f81018513610fd257600080fd5b610fe185823560208401610e34565b9150509250929050565b600060208284031215610ffd57600080fd5b813573ffffffffffffffffffffffffffffffffffffffff811681146107e257600080fd5b600061102f610e4284610dee565b905082815283838301111561104357600080fd5b610aec836020830184610ebb565b600082601f83011261106257600080fd5b610aec83835160208501611021565b60008060006060848603121561108657600080fd5b835161109181610f3c565b602085015190935067ffffffffffffffff8111156110ae57600080fd5b6110ba86828701611051565b92505060408401516110cb81610f3c565b809150509250925092565b828152604060208201526000610ae96040830184610edf565b6000602080838503121561110257600080fd5b825167ffffffffffffffff8082111561111a57600080fd5b818501915085601f83011261112e57600080fd5b81518181111561114057611140610d70565b8060051b9150611151848301610d9f565b818152918301840191848101908884111561116b57600080fd5b938501935b8385101561118957845182529385019390850190611170565b98975050505050505050565b7f4e487b7100000000000000000000000000000000000000000000000000000000600052603260045260246000fd5b6000602082840312156111d657600080fd5b815167ffffffffffffffff8111156111ed57600080fd5b8201601f810184136111fe57600080fd5b6107e484825160208401611021565b60006020828403121561121f57600080fd5b815167ffffffffffffffff81111561123657600080fd5b6107e48482850161105156fea2646970667358221220fe7c0c7f656d21a8be4299f67b309f09c2972616b7e744ed7cf90689f69cb6e564736f6c63430008110033","linkReferences":{}},"methodIdentifiers":{"cancelOwnershipHandover()":"54d1f13d","completeOwnershipHandover(address)":"f04e283e","create(bytes)":"cf5ba53f","deprecate()":"0fcc0c28","execute(bytes)":"09c5eabe","owner()":"8da5cb5b","ownershipHandoverExpiresAt(address)":"fee81cf4","renounceOwnership()":"715018a6","requestOwnershipHandover()":"25692962","setName(uint32,string)":"996d6225","setRoom(uint32,uint32)":"96a2c1d3","transferOwnership(address)":"f2fde38b"},"id":302}