{"abi":[{"type":"constructor","inputs":[{"name":"_world","type":"address","internalType":"contract IWorld"},{"name":"_components","type":"address","internalType":"address"}],"stateMutability":"nonpayable"},{"type":"function","name":"addAssigner","inputs":[{"name":"questIndex","type":"uint32","internalType":"uint32"},{"name":"assignerType","type":"string","internalType":"string"},{"name":"assignerIndex","type":"uint32","internalType":"uint32"}],"outputs":[{"name":"id","type":"uint256","internalType":"uint256"}],"stateMutability":"nonpayable"},{"type":"function","name":"addObjective","inputs":[{"name":"arguments","type":"bytes","internalType":"bytes"}],"outputs":[{"name":"","type":"uint256","internalType":"uint256"}],"stateMutability":"nonpayable"},{"type":"function","name":"addRequirement","inputs":[{"name":"arguments","type":"bytes","internalType":"bytes"}],"outputs":[{"name":"","type":"uint256","internalType":"uint256"}],"stateMutability":"nonpayable"},{"type":"function","name":"addReward","inputs":[{"name":"arguments","type":"bytes","internalType":"bytes"}],"outputs":[{"name":"","type":"uint256","internalType":"uint256"}],"stateMutability":"nonpayable"},{"type":"function","name":"cancelOwnershipHandover","inputs":[],"outputs":[],"stateMutability":"payable"},{"type":"function","name":"completeOwnershipHandover","inputs":[{"name":"pendingOwner","type":"address","internalType":"address"}],"outputs":[],"stateMutability":"payable"},{"type":"function","name":"create","inputs":[{"name":"arguments","type":"bytes","internalType":"bytes"}],"outputs":[{"name":"","type":"uint256","internalType":"uint256"}],"stateMutability":"nonpayable"},{"type":"function","name":"deprecate","inputs":[],"outputs":[],"stateMutability":"nonpayable"},{"type":"function","name":"execute","inputs":[{"name":"arguments","type":"bytes","internalType":"bytes"}],"outputs":[{"name":"","type":"bytes","internalType":"bytes"}],"stateMutability":"nonpayable"},{"type":"function","name":"owner","inputs":[],"outputs":[{"name":"result","type":"address","internalType":"address"}],"stateMutability":"view"},{"type":"function","name":"ownershipHandoverExpiresAt","inputs":[{"name":"pendingOwner","type":"address","internalType":"address"}],"outputs":[{"name":"result","type":"uint256","internalType":"uint256"}],"stateMutability":"view"},{"type":"function","name":"remove","inputs":[{"name":"index","type":"uint32","internalType":"uint32"}],"outputs":[],"stateMutability":"nonpayable"},{"type":"function","name":"renounceOwnership","inputs":[],"outputs":[],"stateMutability":"payable"},{"type":"function","name":"requestOwnershipHandover","inputs":[],"outputs":[],"stateMutability":"payable"},{"type":"function","name":"transferOwnership","inputs":[{"name":"newOwner","type":"address","internalType":"address"}],"outputs":[],"stateMutability":"payable"},{"type":"event","name":"OwnershipHandoverCanceled","inputs":[{"name":"pendingOwner","type":"address","indexed":true,"internalType":"address"}],"anonymous":false},{"type":"event","name":"OwnershipHandoverRequested","inputs":[{"name":"pendingOwner","type":"address","indexed":true,"internalType":"address"}],"anonymous":false},{"type":"event","name":"OwnershipTransferred","inputs":[{"name":"oldOwner","type":"address","indexed":true,"internalType":"address"},{"name":"newOwner","type":"address","indexed":true,"internalType":"address"}],"anonymous":false},{"type":"event","name":"SystemDeprecated","inputs":[],"anonymous":false},{"type":"error","name":"AlreadyInitialized","inputs":[]},{"type":"error","name":"NewOwnerIsZeroAddress","inputs":[]},{"type":"error","name":"NoHandoverRequest","inputs":[]},{"type":"error","name":"QueryOrderNotSupported","inputs":[]},{"type":"error","name":"Unauthorized","inputs":[]}],"bytecode":{"object":"0x60c06040523480156200001157600080fd5b50604051620052083803806200520883398101604081905262000034916200012f565b81816200004133620000dc565b6001600160a01b03811615620000585780620000bd565b816001600160a01b031663ba62fbe46040518163ffffffff1660e01b8152600401602060405180830381865afa15801562000097573d6000803e3d6000fd5b505050506040513d601f19601f82011682018060405250810190620000bd91906200016e565b6001600160a01b039081166080529190911660a0525062000195915050565b6001600160a01b0316638b78c6d8198190558060007f8be0079c531659141344cd1fd0a4f28419497f9722a3daafe3b4186f6b6457e08180a35b50565b6001600160a01b03811681146200011657600080fd5b600080604083850312156200014357600080fd5b8251620001508162000119565b6020840151909250620001638162000119565b809150509250929050565b6000602082840312156200018157600080fd5b81516200018e8162000119565b9392505050565b60805160a051614feb6200021d60003960008181610625015281816109d40152610be00152600081816102db01528181610376015281816104c9015281816106460152818161068f01528181610727015281816107be0152818161087b015281816109f501528181610a8601528181610c0101528181610c900152610cc50152614feb6000f3fe6080604052600436106100e75760003560e01c8063715018a61161008a578063cf5ba53f11610059578063cf5ba53f14610253578063f04e283e14610273578063f2fde38b14610286578063fee81cf41461029957600080fd5b8063715018a6146101b7578063796c272f146101bf5780637e534103146101df5780638da5cb5b146101ff57600080fd5b806325692962116100c6578063256929621461015957806332007bd414610161578063504658721461018f57806354d1f13d146101af57600080fd5b8062d84fd8146100ec57806309c5eabe1461010e5780630fcc0c2814610144575b600080fd5b3480156100f857600080fd5b5061010c6101073660046145c1565b6102cc565b005b34801561011a57600080fd5b5061012e6101293660046146e0565b6103a0565b60405161013b9190614797565b60405180910390f35b34801561015057600080fd5b5061010c61040c565b61010c61043f565b34801561016d57600080fd5b5061018161017c3660046146e0565b61048f565b60405190815260200161013b565b34801561019b57600080fd5b506101816101aa3660046147aa565b61067e565b61010c6107f1565b61010c61082d565b3480156101cb57600080fd5b506101816101da3660046146e0565b610841565b3480156101eb57600080fd5b506101816101fa3660046146e0565b610a4f565b34801561020b57600080fd5b507fffffffffffffffffffffffffffffffffffffffffffffffffffffffff748739275460405173ffffffffffffffffffffffffffffffffffffffff909116815260200161013b565b34801561025f57600080fd5b5061018161026e3660046146e0565b610c59565b61010c610281366004614822565b610cf6565b61010c610294366004614822565b610d36565b3480156102a557600080fd5b506101816102b4366004614822565b63389a75e1600c908152600091909152602090205490565b6102d4610d5d565b60006103007f000000000000000000000000000000000000000000000000000000000000000083610d93565b905080600003610371576040517f08c379a000000000000000000000000000000000000000000000000000000000815260206004820152601460248201527f517565737420646f6573206e6f7420657869737400000000000000000000000060448201526064015b60405180910390fd5b61039c7f00000000000000000000000000000000000000000000000000000000000000008284610df6565b5050565b60606103aa610d5d565b6040517f08c379a000000000000000000000000000000000000000000000000000000000815260206004820152600f60248201527f6e6f7420696d706c656d656e74656400000000000000000000000000000000006044820152606401610368565b610414610d5d565b6040517f56f33501ffd77f9fe44d81e7db7e66a66bdf52ab3e11267cdc6462763604c4c790600090a1565b60006202a30067ffffffffffffffff164201905063389a75e1600c5233600052806020600c2055337fdbf36a107da19e49527a7176a1babf963b4b0ff8cde35ee35d6cd8f1f9ac7e1d600080a250565b6000610499610d5d565b600080600080600080878060200190518101906104b69190614927565b95509550955095509550955060006104ee7f000000000000000000000000000000000000000000000000000000000000000088610d93565b90508060000361055a576040517f08c379a000000000000000000000000000000000000000000000000000000000815260206004820152601460248201527f517565737420646f6573206e6f742065786973740000000000000000000000006044820152606401610368565b604080516020808201909252600090528651908701207fc5d2460186f7233c927e7db2dcc703c0e500b653ca82273b7bfad8045d85a4700361061e576040517f08c379a000000000000000000000000000000000000000000000000000000000815260206004820152602160248201527f51756573742052657761726420747970652063616e6e6f7420626520656d707460448201527f79000000000000000000000000000000000000000000000000000000000000006064820152608401610368565b60006106707f00000000000000000000000000000000000000000000000000000000000000007f00000000000000000000000000000000000000000000000000000000000000008a8a8a8a8a8a6113a3565b9a9950505050505050505050565b6000610688610d5d565b60006106b47f000000000000000000000000000000000000000000000000000000000000000086610d93565b905080600003610720576040517f08c379a000000000000000000000000000000000000000000000000000000000815260206004820152601460248201527f517565737420646f6573206e6f742065786973740000000000000000000000006044820152606401610368565b600061074d7f000000000000000000000000000000000000000000000000000000000000000086866113bc565b9050806000036107b9576040517f08c379a000000000000000000000000000000000000000000000000000000000815260206004820152601760248201527f41737369676e657220646f6573206e6f742065786973740000000000000000006044820152606401610368565b6107e57f0000000000000000000000000000000000000000000000000000000000000000838884611709565b925050505b9392505050565b63389a75e1600c523360005260006020600c2055337ffa7b8eab7da67f412cc9575ed43464468f9bfbae89d1675917346ca6d8fe3c92600080a2565b610835610d5d565b61083f6000611754565b565b600061084b610d5d565b600080600080600080878060200190518101906108689190614a41565b95509550955095509550955060006108a07f000000000000000000000000000000000000000000000000000000000000000088610d93565b90508060000361090c576040517f08c379a000000000000000000000000000000000000000000000000000000000815260206004820152601460248201527f517565737420646f6573206e6f742065786973740000000000000000000000006044820152606401610368565b604080516020808201909252600090528451908501207fc5d2460186f7233c927e7db2dcc703c0e500b653ca82273b7bfad8045d85a470036109cf576040517f08c379a0000000000000000000000000000000000000000000000000000000008152602060048201526024808201527f5175657374204f626a65637469766520747970652063616e6e6f74206265206560448201527f6d707479000000000000000000000000000000000000000000000000000000006064820152608401610368565b610a427f00000000000000000000000000000000000000000000000000000000000000007f0000000000000000000000000000000000000000000000000000000000000000898960405180608001604052808a81526020018b81526020018963ffffffff168152602001888152506117ba565b9998505050505050505050565b6000610a59610d5d565b600080600080600086806020019051810190610a759190614afa565b945094509450945094506000610aab7f000000000000000000000000000000000000000000000000000000000000000087610d93565b905080600003610b17576040517f08c379a000000000000000000000000000000000000000000000000000000000815260206004820152601460248201527f517565737420646f6573206e6f742065786973740000000000000000000000006044820152606401610368565b604080516020808201909252600090528451908501207fc5d2460186f7233c927e7db2dcc703c0e500b653ca82273b7bfad8045d85a47003610bdb576040517f08c379a000000000000000000000000000000000000000000000000000000000815260206004820152602660248201527f517565737420526571756972656d656e7420747970652063616e6e6f7420626560448201527f20656d70747900000000000000000000000000000000000000000000000000006064820152608401610368565b610c4d7f00000000000000000000000000000000000000000000000000000000000000007f00000000000000000000000000000000000000000000000000000000000000008860405180608001604052808981526020018a81526020018863ffffffff16815260200187815250611871565b98975050505050505050565b6000610c63610d5d565b600080600080600086806020019051810190610c7f9190614b90565b945094509450945094506000610cb87f00000000000000000000000000000000000000000000000000000000000000008787878761188b565b90508115610ceb57610ceb7f00000000000000000000000000000000000000000000000000000000000000008284611c33565b979650505050505050565b610cfe610d5d565b63389a75e1600c52806000526020600c208054421115610d2657636f5e88186000526004601cfd5b60009055610d3381611754565b50565b610d3e610d5d565b8060601b610d5457637448fbae6000526004601cfd5b610d3381611754565b7fffffffffffffffffffffffffffffffffffffffffffffffffffffffff7487392754331461083f576382b429006000526004601cfd5b6000610d9e82611d85565b9050610de083826040518060400160405280600581526020017f5155455354000000000000000000000000000000000000000000000000000000815250611e1d565b610deb576000610ded565b805b90505b92915050565b6000610e22847f3879d04bcdb27da7a4f7f7e8a6eb6b202b0f5e22dc66fb53ce3b2fc3d9ed63d4611e6b565b6040517f4cc822150000000000000000000000000000000000000000000000000000000081526004810185905290915073ffffffffffffffffffffffffffffffffffffffff821690634cc8221590602401600060405180830381600087803b158015610e8d57600080fd5b505af1158015610ea1573d6000803e3d6000fd5b50505050610eaf8484611faf565b610ed9847ff70dee74a99a7bf98a6058c2e93635b82826d8267ec7a3a05d2f12dcbf92534d611e6b565b73ffffffffffffffffffffffffffffffffffffffff16634cc82215846040518263ffffffff1660e01b8152600401610f1391815260200190565b600060405180830381600087803b158015610f2d57600080fd5b505af1158015610f41573d6000803e3d6000fd5b50505050610f72847f2acf3c3c6b18ed6530ed0fd161fd0b65f4febe79d1182824d3263e852d29ca0360001c611e6b565b73ffffffffffffffffffffffffffffffffffffffff16634cc82215846040518263ffffffff1660e01b8152600401610fac91815260200190565b600060405180830381600087803b158015610fc657600080fd5b505af1158015610fda573d6000803e3d6000fd5b5050505061100b847ffdbdfda9d0933af67d5682f368771753d17c0fef55c57d62a98476dd7509058060001c611e6b565b73ffffffffffffffffffffffffffffffffffffffff16634cc82215846040518263ffffffff1660e01b815260040161104591815260200190565b600060405180830381600087803b15801561105f57600080fd5b505af1158015611073573d6000803e3d6000fd5b505050506110a4847fcbf298920e1169006fb9156cfc43d4e04c712f32632465329f52522a9d323c3560001c611e6b565b73ffffffffffffffffffffffffffffffffffffffff16634cc82215846040518263ffffffff1660e01b81526004016110de91815260200190565b600060405180830381600087803b1580156110f857600080fd5b505af115801561110c573d6000803e3d6000fd5b5050505061113d847f55fc1d6f060c9a0b82cfb50cf47ed24d77ee495eb31e561183a9a9e9c41fd06b60001c611e6b565b73ffffffffffffffffffffffffffffffffffffffff16634cc82215846040518263ffffffff1660e01b815260040161117791815260200190565b600060405180830381600087803b15801561119157600080fd5b505af11580156111a5573d6000803e3d6000fd5b505050506111d6847f040fc38fe5717491c84059f73f7686f4157d14971215773d341a2ede964d65ac60001c611e6b565b73ffffffffffffffffffffffffffffffffffffffff16634cc82215846040518263ffffffff1660e01b815260040161121091815260200190565b600060405180830381600087803b15801561122a57600080fd5b505af115801561123e573d6000803e3d6000fd5b50505050600061124e8584612049565b905060005b81518110156112915761127f8683838151811061127257611272614c36565b602002602001015161205d565b8061128981614c94565b915050611253565b50600061129e8685612091565b905060005b81518110156112e1576112cf878383815181106112c2576112c2614c36565b60200260200101516120a0565b806112d981614c94565b9150506112a3565b5060006112ee87866123c7565b905060005b81518110156113315761131f8883838151811061131257611312614c36565b60200260200101516123d6565b8061132981614c94565b9150506112f3565b50600061133e8888612641565b905060005b815181101561138257611370898784848151811061136357611363614c36565b602002602001015161264d565b8061137a81614c94565b915050611343565b505050505050505050565b8051602091820120825192909101919091201490565b6000610a42886113b2896126aa565b888888888861270a565b60006114066040518060400160405280600781526020017f46414354494f4e000000000000000000000000000000000000000000000000008152508461138d90919063ffffffff16565b1561141c576114158483612745565b90506107ea565b60408051808201909152600481527f474f414c000000000000000000000000000000000000000000000000000000006020918201528351908401207fd76082adf98594b15de2ddc57dbb99011b02f432fefe40e573fb6272a401cea00361148757611415848361280b565b60408051808201909152600481527f4954454d000000000000000000000000000000000000000000000000000000006020918201528351908401207fd74416be5a0f22763f73a0a923d9377b0b124062ba89b1de75e6f905f7cb0836036114f2576114158483612864565b60408051808201909152600481527f4e4f4445000000000000000000000000000000000000000000000000000000006020918201528351908401207fa056404f42ed43e696e018d46fd24be00462c3e68d3c6deb69504f2d8adf1cfe0361155d57611415848361293b565b60408051808201909152600381527f4e504300000000000000000000000000000000000000000000000000000000006020918201528351908401207fe32ea7ee9280bc16c4af51d3ca51b33a0006fcbb109ae4dd75e54cd3018e2a96036115c8576114158483612989565b60408051808201909152600581527f51554553540000000000000000000000000000000000000000000000000000006020918201528351908401207f6dd88e0a32c18c14d5a81f049d6fd353acc17f8290c55d8a716d975def4edf1e03611633576114158483610d93565b60408051808201909152600481527f524f4f4d000000000000000000000000000000000000000000000000000000006020918201528351908401207fd095a6ae2bc7e94153e86beac7414b2145c7585cac0a0d923e1a4df8247e23a20361169e5761141584836129d7565b60408051808201909152600581527f534b494c4c0000000000000000000000000000000000000000000000000000006020918201528351908401207f9bc045315e74f57b7d50b3f1eebcbf1283474da09c68c6b21de52fb67133c9c8036107ea5761141584836129ef565b6000611716858386612a3d565b905061174c611745867f3879d04bcdb27da7a4f7f7e8a6eb6b202b0f5e22dc66fb53ce3b2fc3d9ed63d4611e6b565b8483612a4a565b949350505050565b7fffffffffffffffffffffffffffffffffffffffffffffffffffffffff74873927805473ffffffffffffffffffffffffffffffffffffffff9092169182907f8be0079c531659141344cd1fd0a4f28419497f9722a3daafe3b4186f6b6457e0600080a355565b60006117d08686846117cb88612aa9565b612b09565b90506117fc857f2acf3c3c6b18ed6530ed0fd161fd0b65f4febe79d1182824d3263e852d29ca03611e6b565b73ffffffffffffffffffffffffffffffffffffffff16636437197782856040518363ffffffff1660e01b8152600401611836929190614ccc565b600060405180830381600087803b15801561185057600080fd5b505af1158015611864573d6000803e3d6000fd5b5050505095945050505050565b60006118828585846117cb87612c44565b95945050505050565b600061189685611d85565b90506118a28682612ca4565b15611909576040517f08c379a000000000000000000000000000000000000000000000000000000000815260206004820152601b60248201527f4c6962526567512e637265617465513a20696e646578207573656400000000006044820152606401610368565b61194986826040518060400160405280600581526020017f5155455354000000000000000000000000000000000000000000000000000000815250612d4b565b611973867ff70dee74a99a7bf98a6058c2e93635b82826d8267ec7a3a05d2f12dcbf92534d611e6b565b73ffffffffffffffffffffffffffffffffffffffff166360fe47b1826040518263ffffffff1660e01b81526004016119ad91815260200190565b600060405180830381600087803b1580156119c757600080fd5b505af11580156119db573d6000803e3d6000fd5b50505050611a0c867f3879d04bcdb27da7a4f7f7e8a6eb6b202b0f5e22dc66fb53ce3b2fc3d9ed63d460001c611e6b565b6040517fd923c3c40000000000000000000000000000000000000000000000000000000081526004810183905263ffffffff8716602482015273ffffffffffffffffffffffffffffffffffffffff919091169063d923c3c490604401600060405180830381600087803b158015611a8257600080fd5b505af1158015611a96573d6000803e3d6000fd5b50505050611ac7867f2acf3c3c6b18ed6530ed0fd161fd0b65f4febe79d1182824d3263e852d29ca0360001c611e6b565b73ffffffffffffffffffffffffffffffffffffffff16636437197782866040518363ffffffff1660e01b8152600401611b01929190614ccc565b600060405180830381600087803b158015611b1b57600080fd5b505af1158015611b2f573d6000803e3d6000fd5b50505050611b60867ffdbdfda9d0933af67d5682f368771753d17c0fef55c57d62a98476dd7509058060001c611e6b565b73ffffffffffffffffffffffffffffffffffffffff16636437197782856040518363ffffffff1660e01b8152600401611b9a929190614ccc565b600060405180830381600087803b158015611bb457600080fd5b505af1158015611bc8573d6000803e3d6000fd5b50505050611bf9867fcbf298920e1169006fb9156cfc43d4e04c712f32632465329f52522a9d323c3560001c611e6b565b73ffffffffffffffffffffffffffffffffffffffff16636437197782846040518363ffffffff1660e01b8152600401611836929190614ccc565b611c5d837f55fc1d6f060c9a0b82cfb50cf47ed24d77ee495eb31e561183a9a9e9c41fd06b611e6b565b73ffffffffffffffffffffffffffffffffffffffff166360fe47b1836040518263ffffffff1660e01b8152600401611c9791815260200190565b600060405180830381600087803b158015611cb157600080fd5b505af1158015611cc5573d6000803e3d6000fd5b50505050611cf6837f040fc38fe5717491c84059f73f7686f4157d14971215773d341a2ede964d65ac60001c611e6b565b6040517f1ab06ee5000000000000000000000000000000000000000000000000000000008152600481018490526024810183905273ffffffffffffffffffffffffffffffffffffffff9190911690631ab06ee5906044015b600060405180830381600087803b158015611d6857600080fd5b505af1158015611d7c573d6000803e3d6000fd5b50505050505050565b6040517f72656769737472792e717565737400000000000000000000000000000000000060208201527fffffffff0000000000000000000000000000000000000000000000000000000060e083901b16602e8201526000906032015b604080517fffffffffffffffffffffffffffffffffffffffffffffffffffffffffffffffe0818403018152919052805160209091012092915050565b600061174c8383611e4e877f5d88ced8d8e079072bf73f49fc87661b519c50d79482941abb852ba2b10909cd611e6b565b73ffffffffffffffffffffffffffffffffffffffff169190612daf565b6040517ffbdfa1ea00000000000000000000000000000000000000000000000000000000815260048101829052600090819073ffffffffffffffffffffffffffffffffffffffff85169063fbdfa1ea90602401600060405180830381865afa158015611edb573d6000803e3d6000fd5b505050506040513d6000823e601f3d9081017fffffffffffffffffffffffffffffffffffffffffffffffffffffffffffffffe0168201604052611f219190810190614ce5565b90508051600003611f8e576040517f08c379a000000000000000000000000000000000000000000000000000000000815260206004820152601160248201527f6964206e6f7420726567697374657265640000000000000000000000000000006044820152606401610368565b61174c81600081518110611fa457611fa4614c36565b602002602001015190565b611fd9827f5d88ced8d8e079072bf73f49fc87661b519c50d79482941abb852ba2b10909cd611e6b565b73ffffffffffffffffffffffffffffffffffffffff16634cc82215826040518263ffffffff1660e01b815260040161201391815260200190565b600060405180830381600087803b15801561202d57600080fd5b505af1158015612041573d6000803e3d6000fd5b505050505050565b6060610ded8361205884612aa9565b612dd2565b61206782826120a0565b611fd9827f2acf3c3c6b18ed6530ed0fd161fd0b65f4febe79d1182824d3263e852d29ca03611e6b565b6060610ded8361205884612c44565b6120ca827f024accd0d273ef6123273b21662f5cc055a7d58adf98cc1b060edd029af93f7f611e6b565b73ffffffffffffffffffffffffffffffffffffffff16634cc82215826040518263ffffffff1660e01b815260040161210491815260200190565b600060405180830381600087803b15801561211e57600080fd5b505af1158015612132573d6000803e3d6000fd5b50505050612163827f787589c9eda599ea35279a6d93e360e8fdc5402255545ca394f5033f5e58ed4260001c611e6b565b73ffffffffffffffffffffffffffffffffffffffff16634cc82215826040518263ffffffff1660e01b815260040161219d91815260200190565b600060405180830381600087803b1580156121b757600080fd5b505af11580156121cb573d6000803e3d6000fd5b505050506121fc827f62adc4221185187a288916c2630b5e1f37e9437c5b68d55bc59b9debc23f19d060001c611e6b565b73ffffffffffffffffffffffffffffffffffffffff16634cc82215826040518263ffffffff1660e01b815260040161223691815260200190565b600060405180830381600087803b15801561225057600080fd5b505af1158015612264573d6000803e3d6000fd5b50505050612295827fb25ea67b55901db62e4b14311a8c1ab178fec3948b4b493a711970a50aa2a2e160001c611e6b565b73ffffffffffffffffffffffffffffffffffffffff16634cc82215826040518263ffffffff1660e01b81526004016122cf91815260200190565b600060405180830381600087803b1580156122e957600080fd5b505af11580156122fd573d6000803e3d6000fd5b5050505061232e827fde0f9b459fab67ff56929343dacb07b0c0a1f8509d3184dc6d736f68b80381de60001c611e6b565b73ffffffffffffffffffffffffffffffffffffffff16634cc82215826040518263ffffffff1660e01b815260040161236891815260200190565b600060405180830381600087803b15801561238257600080fd5b505af1158015612396573d6000803e3d6000fd5b50505050611fd9827fa7b4bd2d760054205ea7cf761a119827e2316646eabcbc6653656187e7d030cb60001c611e6b565b6060610ded83612058846126aa565b612400827fde0f9b459fab67ff56929343dacb07b0c0a1f8509d3184dc6d736f68b80381de611e6b565b73ffffffffffffffffffffffffffffffffffffffff16634cc82215826040518263ffffffff1660e01b815260040161243a91815260200190565b600060405180830381600087803b15801561245457600080fd5b505af1158015612468573d6000803e3d6000fd5b50505050612499827f024accd0d273ef6123273b21662f5cc055a7d58adf98cc1b060edd029af93f7f60001c611e6b565b73ffffffffffffffffffffffffffffffffffffffff16634cc82215826040518263ffffffff1660e01b81526004016124d391815260200190565b600060405180830381600087803b1580156124ed57600080fd5b505af1158015612501573d6000803e3d6000fd5b50505050612532827f62adc4221185187a288916c2630b5e1f37e9437c5b68d55bc59b9debc23f19d060001c611e6b565b73ffffffffffffffffffffffffffffffffffffffff16634cc82215826040518263ffffffff1660e01b815260040161256c91815260200190565b600060405180830381600087803b15801561258657600080fd5b505af115801561259a573d6000803e3d6000fd5b505050506125cb827fb25ea67b55901db62e4b14311a8c1ab178fec3948b4b493a711970a50aa2a2e160001c611e6b565b73ffffffffffffffffffffffffffffffffffffffff16634cc82215826040518263ffffffff1660e01b815260040161260591815260200190565b600060405180830381600087803b15801561261f57600080fd5b505af1158015612633573d6000803e3d6000fd5b5050505061039c8282612e9b565b6060610ded8383612f5e565b6126578382612f86565b6040517f4cc822150000000000000000000000000000000000000000000000000000000081526004810182905273ffffffffffffffffffffffffffffffffffffffff831690634cc8221590602401611d4e565b6040517f72656769737472792e71756573742e726577617264000000000000000000000060208201527fffffffff0000000000000000000000000000000000000000000000000000000060e083901b166035820152600090603901611de1565b60008463ffffffff1660000361272857612725888888612f90565b94505b612733878787612fac565b9050610ceb8882898989898989613001565b60008061275183613429565b905061277d847f723814baf2dfd4398a4349555ce8bbb88a846ac918eb9b1a3ec2dbeaa37ab23e611e6b565b73ffffffffffffffffffffffffffffffffffffffff1663cccf7a8e826040518263ffffffff1660e01b81526004016127b791815260200190565b602060405180830381865afa1580156127d4573d6000803e3d6000fd5b505050506040513d601f19601f820116820180604052508101906127f89190614d1a565b15612804579050610df0565b5092915050565b60008061281783613489565b905061285984826040518060400160405280600481526020017f474f414c00000000000000000000000000000000000000000000000000000000815250611e1d565b6107ea57600061174c565b600080612891847fd3da495fedd385ac62763d969054ffb19f1777e687374cceb91f1237ddd6bfb3611e6b565b9050600061289e846134e9565b6040517fcccf7a8e0000000000000000000000000000000000000000000000000000000081526004810182905290915073ffffffffffffffffffffffffffffffffffffffff83169063cccf7a8e90602401602060405180830381865afa15801561290c573d6000803e3d6000fd5b505050506040513d601f19601f820116820180604052508101906129309190614d1a565b61174c576000611882565b60008061294783613549565b905061285984826040518060400160405280600481526020017f4e4f444500000000000000000000000000000000000000000000000000000000815250611e1d565b600080612995836135a9565b905061285984826040518060400160405280600381526020017f4e50430000000000000000000000000000000000000000000000000000000000815250611e1d565b6000806129e383613609565b90506128598482613669565b6000806129fb836136ab565b905061285984826040518060400160405280600581526020017f534b494c4c000000000000000000000000000000000000000000000000000000815250611e1d565b600061174c84848461370b565b6040517fd923c3c40000000000000000000000000000000000000000000000000000000081526004810182905263ffffffff8316602482015273ffffffffffffffffffffffffffffffffffffffff84169063d923c3c490604401611d4e565b6040517f72656769737472792e71756573742e6f626a656374697665000000000000000060208201527fffffffff0000000000000000000000000000000000000000000000000000000060e083901b166038820152600090603c01611de1565b60008473ffffffffffffffffffffffffffffffffffffffff1663614bfa6e6040518163ffffffff1660e01b81526004016020604051808303816000875af1158015612b58573d6000803e3d6000fd5b505050506040513d601f19601f82011682018060405250810190612b7c9190614d3c565b9050612b898482856138cf565b612bb3847fde0f9b459fab67ff56929343dacb07b0c0a1f8509d3184dc6d736f68b80381de611e6b565b6040517f1ab06ee5000000000000000000000000000000000000000000000000000000008152600481018390526024810184905273ffffffffffffffffffffffffffffffffffffffff9190911690631ab06ee590604401600060405180830381600087803b158015612c2457600080fd5b505af1158015612c38573d6000803e3d6000fd5b50505050949350505050565b6040517f72656769737472792e71756573742e726571756972656d656e7400000000000060208201527fffffffff0000000000000000000000000000000000000000000000000000000060e083901b16603a820152600090603e01611de1565b6000612cd0837f5d88ced8d8e079072bf73f49fc87661b519c50d79482941abb852ba2b10909cd611e6b565b73ffffffffffffffffffffffffffffffffffffffff1663cccf7a8e836040518263ffffffff1660e01b8152600401612d0a91815260200190565b602060405180830381865afa158015612d27573d6000803e3d6000fd5b505050506040513d601f19601f82011682018060405250810190610ded9190614d1a565b612d75837f5d88ced8d8e079072bf73f49fc87661b519c50d79482941abb852ba2b10909cd611e6b565b73ffffffffffffffffffffffffffffffffffffffff16636437197783836040518363ffffffff1660e01b8152600401611d4e929190614ccc565b600061174c82612dbf8686613a1d565b8151602092830120815191909201201490565b6060612dfe837fde0f9b459fab67ff56929343dacb07b0c0a1f8509d3184dc6d736f68b80381de611e6b565b73ffffffffffffffffffffffffffffffffffffffff1663fbdfa1ea836040518263ffffffff1660e01b8152600401612e3891815260200190565b600060405180830381865afa158015612e55573d6000803e3d6000fd5b505050506040513d6000823e601f3d9081017fffffffffffffffffffffffffffffffffffffffffffffffffffffffffffffffe0168201604052610ded9190810190614ce5565b612ec5827fc6a29e9d963ddf0ecc32d72ae16fddf22661517259c701d58065adfefd57eb02611e6b565b73ffffffffffffffffffffffffffffffffffffffff16634cc82215826040518263ffffffff1660e01b8152600401612eff91815260200190565b600060405180830381600087803b158015612f1957600080fd5b505af1158015612f2d573d6000803e3d6000fd5b50505050611fd9827fc5feb1aac7c8c1b30106b97e2241d75b44c975ca1e5f2f5e02394d8d4257f88c60001c611e6b565b60606000612f6c8484613b09565b90506000612f7a8585613b35565b90506118828282613b61565b61039c8282613c76565b600080612f9e858585613d39565b519050611882816001614d55565b6000838383604051602001612fc393929190614d68565b604080517fffffffffffffffffffffffffffffffffffffffffffffffffffffffffffffffe08184030181529190528051602090910120949350505050565b600061302d897fb25ea67b55901db62e4b14311a8c1ab178fec3948b4b493a711970a50aa2a2e1611e6b565b6040517fcccf7a8e000000000000000000000000000000000000000000000000000000008152600481018a905290915073ffffffffffffffffffffffffffffffffffffffff82169063cccf7a8e90602401602060405180830381865afa15801561309b573d6000803e3d6000fd5b505050506040513d601f19601f820116820180604052508101906130bf9190614d1a565b15613126576040517f08c379a000000000000000000000000000000000000000000000000000000000815260206004820152601660248201527f5265776172643a20616c726561647920657869737473000000000000000000006044820152606401610368565b613150897fde0f9b459fab67ff56929343dacb07b0c0a1f8509d3184dc6d736f68b80381de611e6b565b6040517f1ab06ee5000000000000000000000000000000000000000000000000000000008152600481018a90526024810189905273ffffffffffffffffffffffffffffffffffffffff9190911690631ab06ee590604401600060405180830381600087803b1580156131c157600080fd5b505af11580156131d5573d6000803e3d6000fd5b50505050613206897f024accd0d273ef6123273b21662f5cc055a7d58adf98cc1b060edd029af93f7f60001c611e6b565b73ffffffffffffffffffffffffffffffffffffffff16636437197789886040518363ffffffff1660e01b8152600401613240929190614ccc565b600060405180830381600087803b15801561325a57600080fd5b505af115801561326e573d6000803e3d6000fd5b5050505061329f897f62adc4221185187a288916c2630b5e1f37e9437c5b68d55bc59b9debc23f19d060001c611e6b565b6040517fd923c3c4000000000000000000000000000000000000000000000000000000008152600481018a905263ffffffff8716602482015273ffffffffffffffffffffffffffffffffffffffff919091169063d923c3c490604401600060405180830381600087803b15801561331557600080fd5b505af1158015613329573d6000803e3d6000fd5b50506040517f1ab06ee5000000000000000000000000000000000000000000000000000000008152600481018b90526024810185905273ffffffffffffffffffffffffffffffffffffffff84169250631ab06ee59150604401600060405180830381600087803b15801561339c57600080fd5b505af11580156133b0573d6000803e3d6000fd5b505060408051808201909152600e81527f4954454d5f44524f505441424c450000000000000000000000000000000000006020918201528851908901207f279a278842b575fd3b23481f3a18c340199cd2454b90e6615863f83352238a8d1491506134189050565b156113825761138289898686613ec1565b6040517f66616374696f6e0000000000000000000000000000000000000000000000000060208201527fffffffff0000000000000000000000000000000000000000000000000000000060e083901b166027820152600090602b01611de1565b6040517f676f616c0000000000000000000000000000000000000000000000000000000060208201527fffffffff0000000000000000000000000000000000000000000000000000000060e083901b166024820152600090602801611de1565b6040517f72656769737472792e6974656d0000000000000000000000000000000000000060208201527fffffffff0000000000000000000000000000000000000000000000000000000060e083901b16602d820152600090603101611de1565b6040517f6e6f64650000000000000000000000000000000000000000000000000000000060208201527fffffffff0000000000000000000000000000000000000000000000000000000060e083901b166024820152600090602801611de1565b6040517f4e5043000000000000000000000000000000000000000000000000000000000060208201527fffffffff0000000000000000000000000000000000000000000000000000000060e083901b166023820152600090602701611de1565b6040517f726f6f6d0000000000000000000000000000000000000000000000000000000060208201527fffffffff0000000000000000000000000000000000000000000000000000000060e083901b166024820152600090602801611de1565b6000610ded83836040518060400160405280600481526020017f524f4f4d00000000000000000000000000000000000000000000000000000000815250611e1d565b6040517f72656769737472792e736b696c6c00000000000000000000000000000000000060208201527fffffffff0000000000000000000000000000000000000000000000000000000060e083901b16602e820152600090603201611de1565b604080517f72656c6174696f6e0000000000000000000000000000000000000000000000006020808301919091526028820185905260488083018590528351808403909101815260689092019092528051910120613789847fa95ad5d9865792db0c7d344e1ab96ff451848e8df32d75b494b0c861955ff49e611e6b565b6040517f1ab06ee5000000000000000000000000000000000000000000000000000000008152600481018390526024810185905273ffffffffffffffffffffffffffffffffffffffff9190911690631ab06ee590604401600060405180830381600087803b1580156137fa57600080fd5b505af115801561380e573d6000803e3d6000fd5b5050505061383f847f31ac3bd9ff93491555448947dd00c7535790caec346584c2d495cc80bde8d9f160001c611e6b565b6040517f1ab06ee5000000000000000000000000000000000000000000000000000000008152600481018390526024810184905273ffffffffffffffffffffffffffffffffffffffff9190911690631ab06ee590604401600060405180830381600087803b1580156138b057600080fd5b505af11580156138c4573d6000803e3d6000fd5b505050509392505050565b6138e3838383600001518460200151613ff6565b604081015163ffffffff161561399d5761391d837f62adc4221185187a288916c2630b5e1f37e9437c5b68d55bc59b9debc23f19d0611e6b565b73ffffffffffffffffffffffffffffffffffffffff1663d923c3c48383604001516040518363ffffffff1660e01b815260040161396a92919091825263ffffffff16602082015260400190565b600060405180830381600087803b15801561398457600080fd5b505af1158015613998573d6000803e3d6000fd5b505050505b606081015115613a18576139d1837fb25ea67b55901db62e4b14311a8c1ab178fec3948b4b493a711970a50aa2a2e1611e6b565b73ffffffffffffffffffffffffffffffffffffffff16631ab06ee58383606001516040518363ffffffff1660e01b8152600401611d4e929190918252602082015260400190565b505050565b6040517fdd98e3c90000000000000000000000000000000000000000000000000000000081526004810182905260609060009073ffffffffffffffffffffffffffffffffffffffff85169063dd98e3c990602401600060405180830381865afa158015613a8e573d6000803e3d6000fd5b505050506040513d6000823e601f3d9081017fffffffffffffffffffffffffffffffffffffffffffffffffffffffffffffffe0168201604052613ad49190810190614de5565b90508051600003613af5575050604080516020810190915260008152610df0565b8080602001905181019061174c9190614de5565b6060612dfe837fa95ad5d9865792db0c7d344e1ab96ff451848e8df32d75b494b0c861955ff49e611e6b565b6060612dfe837f31ac3bd9ff93491555448947dd00c7535790caec346584c2d495cc80bde8d9f1611e6b565b6060600082518451613b739190614d55565b67ffffffffffffffff811115613b8b57613b8b6145de565b604051908082528060200260200182016040528015613bb4578160200160208202803683370190505b50905060005b8451811015613c0c57848181518110613bd557613bd5614c36565b6020026020010151828281518110613bef57613bef614c36565b602090810291909101015280613c0481614c94565b915050613bba565b5060005b8351811015613c6e57838181518110613c2b57613c2b614c36565b602002602001015182828751613c419190614d55565b81518110613c5157613c51614c36565b602090810291909101015280613c6681614c94565b915050613c10565b509392505050565b613ca0827fa95ad5d9865792db0c7d344e1ab96ff451848e8df32d75b494b0c861955ff49e611e6b565b73ffffffffffffffffffffffffffffffffffffffff16634cc82215826040518263ffffffff1660e01b8152600401613cda91815260200190565b600060405180830381600087803b158015613cf457600080fd5b505af1158015613d08573d6000803e3d6000fd5b50505050611fd9827f31ac3bd9ff93491555448947dd00c7535790caec346584c2d495cc80bde8d9f160001c611e6b565b604080516002808252606082810190935260009190816020015b60408051606080820183526000808352602083015291810191909152815260200190600190039081613d5357505060408051606081019091526002815290915060208101613dc1877fde0f9b459fab67ff56929343dacb07b0c0a1f8509d3184dc6d736f68b80381de6140f3565b73ffffffffffffffffffffffffffffffffffffffff16815260200185604051602001613def91815260200190565b60405160208183030381529060405281525081600081518110613e1457613e14614c36565b602090810291909101015260408051606081019091528060028152602001613e5c877f024accd0d273ef6123273b21662f5cc055a7d58adf98cc1b060edd029af93f7f6140f3565b73ffffffffffffffffffffffffffffffffffffffff16815260200184604051602001613e889190614797565b60405160208183030381529060405281525081600181518110613ead57613ead614c36565b6020026020010181905250611882816140ff565b613eeb847fc6a29e9d963ddf0ecc32d72ae16fddf22661517259c701d58065adfefd57eb02611e6b565b73ffffffffffffffffffffffffffffffffffffffff1663f96911fa84846040518363ffffffff1660e01b8152600401613f25929190614e49565b600060405180830381600087803b158015613f3f57600080fd5b505af1158015613f53573d6000803e3d6000fd5b50505050613f84847fc5feb1aac7c8c1b30106b97e2241d75b44c975ca1e5f2f5e02394d8d4257f88c60001c611e6b565b73ffffffffffffffffffffffffffffffffffffffff1663946aadc684836040518363ffffffff1660e01b8152600401613fbe929190614ed8565b600060405180830381600087803b158015613fd857600080fd5b505af1158015613fec573d6000803e3d6000fd5b5050505050505050565b614020847f024accd0d273ef6123273b21662f5cc055a7d58adf98cc1b060edd029af93f7f611e6b565b73ffffffffffffffffffffffffffffffffffffffff16636437197784846040518363ffffffff1660e01b815260040161405a929190614ccc565b600060405180830381600087803b15801561407457600080fd5b505af1158015614088573d6000803e3d6000fd5b505050506140b9847f787589c9eda599ea35279a6d93e360e8fdc5402255545ca394f5033f5e58ed4260001c611e6b565b73ffffffffffffffffffffffffffffffffffffffff16636437197784836040518363ffffffff1660e01b8152600401613fbe929190614ccc565b6000610ded8383611e6b565b60608151600003614120576040805160008082526020820190925290612804565b60028260008151811061413557614135614c36565b602002602001015160000151600381111561415257614152614e1a565b14614189576040517feec45f3600000000000000000000000000000000000000000000000000000000815260040160405180910390fd5b60008260008151811061419e5761419e614c36565b60200260200101516020015173ffffffffffffffffffffffffffffffffffffffff1663b361be46846000815181106141d8576141d8614c36565b6020026020010151604001516040518263ffffffff1660e01b81526004016142009190614797565b600060405180830381865afa15801561421d573d6000803e3d6000fd5b505050506040513d6000823e601f3d9081017fffffffffffffffffffffffffffffffffffffffffffffffffffffffffffffffe01682016040526142639190810190614ce5565b905060015b83518110156128045761429484828151811061428657614286614c36565b6020026020010151836142a8565b9150806142a081614c94565b915050614268565b60606000836020015173ffffffffffffffffffffffffffffffffffffffff16634323c4ef846040518263ffffffff1660e01b81526004016142e99190614ef1565b600060405180830381865afa158015614306573d6000803e3d6000fd5b505050506040513d6000823e601f3d9081017fffffffffffffffffffffffffffffffffffffffffffffffffffffffffffffffe016820160405261434c9190810190614f04565b90506000805b82518110156143c85761437e8684838151811061437157614371614c36565b60200260200101516143d3565b15614395578161438d81614c94565b9250506143b6565b60008582815181106143a9576143a9614c36565b6020026020010181815250505b806143c081614c94565b915050614352565b5061188284826144ba565b600080835160038111156143e9576143e9614e1a565b036143f8575080511515610df0565b60028351600381111561440d5761440d614e1a565b0361442e578180519060200120836040015180519060200120149050610df0565b60018351600381111561444357614443614e1a565b036144515750805115610df0565b60038351600381111561446657614466614e1a565b0361448857818051906020012083604001518051906020012014159050610df0565b6040517feec45f3600000000000000000000000000000000000000000000000000000000815260040160405180910390fd5b6060816000036144d95750604080516000815260208101909152610df0565b60008267ffffffffffffffff8111156144f4576144f46145de565b60405190808252806020026020018201604052801561451d578160200160208202803683370190505b5090506000805b85518110156145a55785818151811061453f5761453f614c36565b60200260200101516000146145935785818151811061456057614560614c36565b602002602001015183838061457490614c94565b94508151811061458657614586614c36565b6020026020010181815250505b8061459d81614c94565b915050614524565b5090949350505050565b63ffffffff81168114610d3357600080fd5b6000602082840312156145d357600080fd5b81356107ea816145af565b7f4e487b7100000000000000000000000000000000000000000000000000000000600052604160045260246000fd5b604051601f82017fffffffffffffffffffffffffffffffffffffffffffffffffffffffffffffffe016810167ffffffffffffffff81118282101715614654576146546145de565b604052919050565b600067ffffffffffffffff821115614676576146766145de565b50601f017fffffffffffffffffffffffffffffffffffffffffffffffffffffffffffffffe01660200190565b60006146b56146b08461465c565b61460d565b90508281528383830111156146c957600080fd5b828260208301376000602084830101529392505050565b6000602082840312156146f257600080fd5b813567ffffffffffffffff81111561470957600080fd5b8201601f8101841361471a57600080fd5b61174c848235602084016146a2565b60005b8381101561474457818101518382015260200161472c565b50506000910152565b60008151808452614765816020860160208601614729565b601f017fffffffffffffffffffffffffffffffffffffffffffffffffffffffffffffffe0169290920160200192915050565b602081526000610ded602083018461474d565b6000806000606084860312156147bf57600080fd5b83356147ca816145af565b9250602084013567ffffffffffffffff8111156147e657600080fd5b8401601f810186136147f757600080fd5b614806868235602084016146a2565b9250506040840135614817816145af565b809150509250925092565b60006020828403121561483457600080fd5b813573ffffffffffffffffffffffffffffffffffffffff811681146107ea57600080fd5b600082601f83011261486957600080fd5b81516148776146b08261465c565b81815284602083860101111561488c57600080fd5b61174c826020830160208701614729565b600067ffffffffffffffff8211156148b7576148b76145de565b5060051b60200190565b600082601f8301126148d257600080fd5b815160206148e26146b08361489d565b82815260059290921b8401810191818101908684111561490157600080fd5b8286015b8481101561491c5780518352918301918301614905565b509695505050505050565b60008060008060008060c0878903121561494057600080fd5b865161494b816145af565b8096505060208088015167ffffffffffffffff8082111561496b57600080fd5b6149778b838c01614858565b975060408a01519150614989826145af565b60608a01519196508082111561499e57600080fd5b818a0191508a601f8301126149b257600080fd5b81516149c06146b08261489d565b81815260059190911b8301840190848101908d8311156149df57600080fd5b938501935b82851015614a065784516149f7816145af565b825293850193908501906149e4565b60808d01519098509450505080831115614a1f57600080fd5b5050614a2d89828a016148c1565b92505060a087015190509295509295509295565b60008060008060008060c08789031215614a5a57600080fd5b8651614a65816145af565b602088015190965067ffffffffffffffff80821115614a8357600080fd5b614a8f8a838b01614858565b96506040890151915080821115614aa557600080fd5b614ab18a838b01614858565b95506060890151915080821115614ac757600080fd5b50614ad489828a01614858565b9350506080870151614ae5816145af565b8092505060a087015190509295509295509295565b600080600080600060a08688031215614b1257600080fd5b8551614b1d816145af565b602087015190955067ffffffffffffffff80821115614b3b57600080fd5b614b4789838a01614858565b95506040880151915080821115614b5d57600080fd5b50614b6a88828901614858565b9350506060860151614b7b816145af565b80925050608086015190509295509295909350565b600080600080600060a08688031215614ba857600080fd5b8551614bb3816145af565b602087015190955067ffffffffffffffff80821115614bd157600080fd5b614bdd89838a01614858565b95506040880151915080821115614bf357600080fd5b614bff89838a01614858565b94506060880151915080821115614c1557600080fd5b50614c2288828901614858565b925050608086015190509295509295909350565b7f4e487b7100000000000000000000000000000000000000000000000000000000600052603260045260246000fd5b7f4e487b7100000000000000000000000000000000000000000000000000000000600052601160045260246000fd5b60007fffffffffffffffffffffffffffffffffffffffffffffffffffffffffffffffff8203614cc557614cc5614c65565b5060010190565b82815260406020820152600061174c604083018461474d565b600060208284031215614cf757600080fd5b815167ffffffffffffffff811115614d0e57600080fd5b61174c848285016148c1565b600060208284031215614d2c57600080fd5b815180151581146107ea57600080fd5b600060208284031215614d4e57600080fd5b5051919050565b80820180821115610df057610df0614c65565b7f7265776172642e696e7374616e63650000000000000000000000000000000000815283600f82015260008351614da681602f850160208801614729565b80830190507fffffffff000000000000000000000000000000000000000000000000000000008460e01b16602f82015260338101915050949350505050565b600060208284031215614df757600080fd5b815167ffffffffffffffff811115614e0e57600080fd5b61174c84828501614858565b7f4e487b7100000000000000000000000000000000000000000000000000000000600052602160045260246000fd5b6000604082018483526020604081850152818551808452606086019150828701935060005b81811015614e9057845163ffffffff1683529383019391830191600101614e6e565b5090979650505050505050565b600081518084526020808501945080840160005b83811015614ecd57815187529582019590820190600101614eb1565b509495945050505050565b82815260406020820152600061174c6040830184614e9d565b602081526000610ded6020830184614e9d565b60006020808385031215614f1757600080fd5b825167ffffffffffffffff80821115614f2f57600080fd5b818501915085601f830112614f4357600080fd5b8151614f516146b08261489d565b81815260059190911b83018401908481019088831115614f7057600080fd5b8585015b83811015614fa857805185811115614f8c5760008081fd5b614f9a8b89838a0101614858565b845250918601918601614f74565b509897505050505050505056fea2646970667358221220af277890a6701a579a5f4a7ecc742cf7b78fa9a4b9d5ecc623f3a703c05fcc6364736f6c63430008110033","linkReferences":{}},"methodIdentifiers":{"addAssigner(uint32,string,uint32)":"50465872","addObjective(bytes)":"796c272f","addRequirement(bytes)":"7e534103","addReward(bytes)":"32007bd4","cancelOwnershipHandover()":"54d1f13d","completeOwnershipHandover(address)":"f04e283e","create(bytes)":"cf5ba53f","deprecate()":"0fcc0c28","execute(bytes)":"09c5eabe","owner()":"8da5cb5b","ownershipHandoverExpiresAt(address)":"fee81cf4","remove(uint32)":"00d84fd8","renounceOwnership()":"715018a6","requestOwnershipHandover()":"25692962","transferOwnership(address)":"f2fde38b"},"id":304}