{"abi":[{"type":"constructor","inputs":[{"name":"_world","type":"address","internalType":"contract IWorld"},{"name":"_components","type":"address","internalType":"address"}],"stateMutability":"nonpayable"},{"type":"function","name":"addAssigner","inputs":[{"name":"index","type":"uint32","internalType":"uint32"},{"name":"assignerID","type":"uint256","internalType":"uint256"}],"outputs":[{"name":"","type":"uint256","internalType":"uint256"}],"stateMutability":"nonpayable"},{"type":"function","name":"addRequirement","inputs":[{"name":"recipeIndex","type":"uint32","internalType":"uint32"},{"name":"logicType","type":"string","internalType":"string"},{"name":"type_","type":"string","internalType":"string"},{"name":"index","type":"uint32","internalType":"uint32"},{"name":"value","type":"uint32","internalType":"uint32"}],"outputs":[{"name":"","type":"uint256","internalType":"uint256"}],"stateMutability":"nonpayable"},{"type":"function","name":"cancelOwnershipHandover","inputs":[],"outputs":[],"stateMutability":"payable"},{"type":"function","name":"completeOwnershipHandover","inputs":[{"name":"pendingOwner","type":"address","internalType":"address"}],"outputs":[],"stateMutability":"payable"},{"type":"function","name":"create","inputs":[{"name":"arguments","type":"bytes","internalType":"bytes"}],"outputs":[{"name":"","type":"uint256","internalType":"uint256"}],"stateMutability":"nonpayable"},{"type":"function","name":"deprecate","inputs":[],"outputs":[],"stateMutability":"nonpayable"},{"type":"function","name":"execute","inputs":[{"name":"arguments","type":"bytes","internalType":"bytes"}],"outputs":[{"name":"","type":"bytes","internalType":"bytes"}],"stateMutability":"nonpayable"},{"type":"function","name":"owner","inputs":[],"outputs":[{"name":"result","type":"address","internalType":"address"}],"stateMutability":"view"},{"type":"function","name":"ownershipHandoverExpiresAt","inputs":[{"name":"pendingOwner","type":"address","internalType":"address"}],"outputs":[{"name":"result","type":"uint256","internalType":"uint256"}],"stateMutability":"view"},{"type":"function","name":"remove","inputs":[{"name":"index","type":"uint32","internalType":"uint32"}],"outputs":[],"stateMutability":"nonpayable"},{"type":"function","name":"renounceOwnership","inputs":[],"outputs":[],"stateMutability":"payable"},{"type":"function","name":"requestOwnershipHandover","inputs":[],"outputs":[],"stateMutability":"payable"},{"type":"function","name":"transferOwnership","inputs":[{"name":"newOwner","type":"address","internalType":"address"}],"outputs":[],"stateMutability":"payable"},{"type":"event","name":"OwnershipHandoverCanceled","inputs":[{"name":"pendingOwner","type":"address","indexed":true,"internalType":"address"}],"anonymous":false},{"type":"event","name":"OwnershipHandoverRequested","inputs":[{"name":"pendingOwner","type":"address","indexed":true,"internalType":"address"}],"anonymous":false},{"type":"event","name":"OwnershipTransferred","inputs":[{"name":"oldOwner","type":"address","indexed":true,"internalType":"address"},{"name":"newOwner","type":"address","indexed":true,"internalType":"address"}],"anonymous":false},{"type":"event","name":"SystemDeprecated","inputs":[],"anonymous":false},{"type":"error","name":"AlreadyInitialized","inputs":[]},{"type":"error","name":"NewOwnerIsZeroAddress","inputs":[]},{"type":"error","name":"NoHandoverRequest","inputs":[]},{"type":"error","name":"Unauthorized","inputs":[]}],"bytecode":{"object":"0x60c06040523480156200001157600080fd5b5060405162002dc838038062002dc883398101604081905262000034916200012f565b81816200004133620000dc565b6001600160a01b03811615620000585780620000bd565b816001600160a01b031663ba62fbe46040518163ffffffff1660e01b8152600401602060405180830381865afa15801562000097573d6000803e3d6000fd5b505050506040513d601f19601f82011682018060405250810190620000bd91906200016e565b6001600160a01b039081166080529190911660a0525062000195915050565b6001600160a01b0316638b78c6d8198190558060007f8be0079c531659141344cd1fd0a4f28419497f9722a3daafe3b4186f6b6457e08180a35b50565b6001600160a01b03811681146200011657600080fd5b600080604083850312156200014357600080fd5b8251620001508162000119565b6020840151909250620001638162000119565b809150509250929050565b6000602082840312156200018157600080fd5b81516200018e8162000119565b9392505050565b60805160a051612be3620001e56000396000610575015260008181610285015281816103200152818161044f015281816104e5015281816105960152818161062e01526106c10152612be36000f3fe6080604052600436106100d15760003560e01c8063715018a61161007f578063cf5ba53f11610059578063cf5ba53f146101fd578063f04e283e1461021d578063f2fde38b14610230578063fee81cf41461024357600080fd5b8063715018a6146101815780638da5cb5b14610189578063bc244f02146101dd57600080fd5b806325692962116100b0578063256929621461014357806332a3075b1461014b57806354d1f13d1461017957600080fd5b8062d84fd8146100d657806309c5eabe146100f85780630fcc0c281461012e575b600080fd5b3480156100e257600080fd5b506100f66100f13660046124e6565b610276565b005b34801561010457600080fd5b506101186101133660046125f7565b61034a565b60405161012591906126a4565b60405180910390f35b34801561013a57600080fd5b506100f66103bb565b6100f66103ee565b34801561015757600080fd5b5061016b6101663660046126b7565b61043e565b604051908152602001610125565b6100f6610516565b6100f6610552565b34801561019557600080fd5b507fffffffffffffffffffffffffffffffffffffffffffffffffffffffff748739275460405173ffffffffffffffffffffffffffffffffffffffff9091168152602001610125565b3480156101e957600080fd5b5061016b6101f8366004612703565b610566565b34801561020957600080fd5b5061016b6102183660046125f7565b6105f2565b6100f661022b3660046127a1565b6106fa565b6100f661023e3660046127a1565b61073a565b34801561024f57600080fd5b5061016b61025e3660046127a1565b63389a75e1600c908152600091909152602090205490565b61027e610761565b60006102aa7f000000000000000000000000000000000000000000000000000000000000000083610797565b90508060000361031b576040517f08c379a000000000000000000000000000000000000000000000000000000000815260206004820152601660248201527f5265636970653a20646f6573206e6f742065786973740000000000000000000060448201526064015b60405180910390fd5b6103467f00000000000000000000000000000000000000000000000000000000000000008383610879565b5050565b6060610354610761565b6040517f08c379a000000000000000000000000000000000000000000000000000000000815260206004820152600f60248201527f6e6f7420696d706c656d656e74656400000000000000000000000000000000006044820152606401610312565b919050565b6103c3610761565b6040517f56f33501ffd77f9fe44d81e7db7e66a66bdf52ab3e11267cdc6462763604c4c790600090a1565b60006202a30067ffffffffffffffff164201905063389a75e1600c5233600052806020600c2055337fdbf36a107da19e49527a7176a1babf963b4b0ff8cde35ee35d6cd8f1f9ac7e1d600080a250565b6000610448610761565b60006104747f000000000000000000000000000000000000000000000000000000000000000085610797565b9050806000036104e0576040517f08c379a000000000000000000000000000000000000000000000000000000000815260206004820152601660248201527f5265636970653a20646f6573206e6f74206578697374000000000000000000006044820152606401610312565b61050c7f0000000000000000000000000000000000000000000000000000000000000000828686610cec565b9150505b92915050565b63389a75e1600c523360005260006020600c2055337ffa7b8eab7da67f412cc9575ed43464468f9bfbae89d1675917346ca6d8fe3c92600080a2565b61055a610761565b6105646000610d37565b565b6000610570610761565b6105e87f00000000000000000000000000000000000000000000000000000000000000007f00000000000000000000000000000000000000000000000000000000000000008860405180608001604052808a81526020018981526020018863ffffffff1681526020018763ffffffff16815250610d9d565b9695505050505050565b60006105fc610761565b60008060008060008060008880602001905181019061061b91906128e7565b96509650965096509650965096506106537f000000000000000000000000000000000000000000000000000000000000000088610797565b156106ba576040517f08c379a000000000000000000000000000000000000000000000000000000000815260206004820152601c60248201527f5265636970653a20696e64657820616c726561647920657869737473000000006044820152606401610312565b60006106ec7f000000000000000000000000000000000000000000000000000000000000000089898989898989610db3565b9a9950505050505050505050565b610702610761565b63389a75e1600c52806000526020600c20805442111561072a57636f5e88186000526004601cfd5b6000905561073781610d37565b50565b610742610761565b8060601b61075857637448fbae6000526004601cfd5b61073781610d37565b7fffffffffffffffffffffffffffffffffffffffffffffffffffffffff74873927543314610564576382b429006000526004601cfd5b6000806107c4847fc549816d6c3e6a568535a0df56aff099272d447c7526e27e4b6fcbd3cc7df5ab6113e3565b905060006107d184611527565b6040517fcccf7a8e0000000000000000000000000000000000000000000000000000000081526004810182905290915073ffffffffffffffffffffffffffffffffffffffff83169063cccf7a8e90602401602060405180830381865afa15801561083f573d6000803e3d6000fd5b505050506040513d601f19601f8201168201806040525081019061086391906129bf565b61086e576000610870565b805b95945050505050565b61088383826115bf565b60006108af847fc549816d6c3e6a568535a0df56aff099272d447c7526e27e4b6fcbd3cc7df5ab6113e3565b905060006108dd857fc6a29e9d963ddf0ecc32d72ae16fddf22661517259c701d58065adfefd57eb026113e3565b9050600061090b867ffb08db6d59480b008d636f90eaab4796d6e70486db57ea5b6d38235c97e3a3ec6113e3565b9050610937867ff70dee74a99a7bf98a6058c2e93635b82826d8267ec7a3a05d2f12dcbf92534d6113e3565b73ffffffffffffffffffffffffffffffffffffffff16634cc82215856040518263ffffffff1660e01b815260040161097191815260200190565b600060405180830381600087803b15801561098b57600080fd5b505af115801561099f573d6000803e3d6000fd5b50506040517f4cc822150000000000000000000000000000000000000000000000000000000081526004810187905273ffffffffffffffffffffffffffffffffffffffff86169250634cc822159150602401600060405180830381600087803b158015610a0b57600080fd5b505af1158015610a1f573d6000803e3d6000fd5b505050506000610a2e86611659565b6040517f4cc822150000000000000000000000000000000000000000000000000000000081526004810182905290915073ffffffffffffffffffffffffffffffffffffffff841690634cc8221590602401600060405180830381600087803b158015610a9957600080fd5b505af1158015610aad573d6000803e3d6000fd5b50506040517f4cc822150000000000000000000000000000000000000000000000000000000081526004810184905273ffffffffffffffffffffffffffffffffffffffff85169250634cc822159150602401600060405180830381600087803b158015610b1957600080fd5b505af1158015610b2d573d6000803e3d6000fd5b505050506000610b3c876116b9565b6040517f4cc822150000000000000000000000000000000000000000000000000000000081526004810182905290915073ffffffffffffffffffffffffffffffffffffffff851690634cc8221590602401600060405180830381600087803b158015610ba757600080fd5b505af1158015610bbb573d6000803e3d6000fd5b50506040517f4cc822150000000000000000000000000000000000000000000000000000000081526004810184905273ffffffffffffffffffffffffffffffffffffffff86169250634cc822159150602401600060405180830381600087803b158015610c2757600080fd5b505af1158015610c3b573d6000803e3d6000fd5b505050506000610c4b8988611719565b905060005b8151811015610c8f57610c7d8a88848481518110610c7057610c706129e1565b602002602001015161172c565b80610c8781612a3f565b915050610c50565b506000610c9c8a8a6117bc565b905060005b8151811015610cdf57610ccd8b838381518110610cc057610cc06129e1565b60200260200101516117d0565b80610cd781612a3f565b915050610ca1565b5050505050505050505050565b6000610cf9858386611af7565b9050610d2f610d28867fc549816d6c3e6a568535a0df56aff099272d447c7526e27e4b6fcbd3cc7df5ab6113e3565b8483611b04565b949350505050565b7fffffffffffffffffffffffffffffffffffffffffffffffffffffffff74873927805473ffffffffffffffffffffffffffffffffffffffff9092169182907f8be0079c531659141344cd1fd0a4f28419497f9722a3daafe3b4186f6b6457e0600080a355565b6000610870858584610dae87611b63565b611bc3565b6000610dbe88611527565b9050610e0089826040518060400160405280600681526020017f5245434950450000000000000000000000000000000000000000000000000000815250611cfe565b6000610e2c8a7fc6a29e9d963ddf0ecc32d72ae16fddf22661517259c701d58065adfefd57eb026113e3565b90506000610e5a8b7ffb08db6d59480b008d636f90eaab4796d6e70486db57ea5b6d38235c97e3a3ec6113e3565b9050610e868b7ff70dee74a99a7bf98a6058c2e93635b82826d8267ec7a3a05d2f12dcbf92534d6113e3565b73ffffffffffffffffffffffffffffffffffffffff166360fe47b1846040518263ffffffff1660e01b8152600401610ec091815260200190565b600060405180830381600087803b158015610eda57600080fd5b505af1158015610eee573d6000803e3d6000fd5b50505050610f1f8b7fc549816d6c3e6a568535a0df56aff099272d447c7526e27e4b6fcbd3cc7df5ab60001c6113e3565b6040517fd923c3c40000000000000000000000000000000000000000000000000000000081526004810185905263ffffffff8c16602482015273ffffffffffffffffffffffffffffffffffffffff919091169063d923c3c490604401600060405180830381600087803b158015610f9557600080fd5b505af1158015610fa9573d6000803e3d6000fd5b50505050610fda8b7ff751b4a95c9cfabe52899e09ae113eac17e41cc0cc2dad670d2789ecc1251add60001c6113e3565b6040517f1ab06ee5000000000000000000000000000000000000000000000000000000008152600481018590526024810187905273ffffffffffffffffffffffffffffffffffffffff9190911690631ab06ee590604401600060405180830381600087803b15801561104b57600080fd5b505af115801561105f573d6000803e3d6000fd5b505050506110908b7f1229189cff138f94363a6274f6ec5003a4a6372db248c6985d3b3301024eb8ec60001c6113e3565b73ffffffffffffffffffffffffffffffffffffffff166332e5cc30846040518060800160405280600060030b8152602001600060030b8152602001600060030b8152602001887fffffffffffffffffffffffffffffffffffffffffffffffffffffffffffffffff6111019190612a77565b600390810b909152604080517fffffffff0000000000000000000000000000000000000000000000000000000060e087901b16815260048101949094528251820b60248501526020830151820b6044850152820151810b6064840152606090910151900b608482015260a401600060405180830381600087803b15801561118757600080fd5b505af115801561119b573d6000803e3d6000fd5b5050505060006111aa8b611659565b6040517ff96911fa00000000000000000000000000000000000000000000000000000000815290915073ffffffffffffffffffffffffffffffffffffffff84169063f96911fa906112019084908e90600401612a9e565b600060405180830381600087803b15801561121b57600080fd5b505af115801561122f573d6000803e3d6000fd5b50506040517f946aadc600000000000000000000000000000000000000000000000000000000815273ffffffffffffffffffffffffffffffffffffffff8516925063946aadc691506112879084908d90600401612af2565b600060405180830381600087803b1580156112a157600080fd5b505af11580156112b5573d6000803e3d6000fd5b5050505060006112c48c6116b9565b6040517ff96911fa00000000000000000000000000000000000000000000000000000000815290915073ffffffffffffffffffffffffffffffffffffffff85169063f96911fa9061131b9084908d90600401612a9e565b600060405180830381600087803b15801561133557600080fd5b505af1158015611349573d6000803e3d6000fd5b50506040517f946aadc600000000000000000000000000000000000000000000000000000000815273ffffffffffffffffffffffffffffffffffffffff8616925063946aadc691506113a19084908c90600401612af2565b600060405180830381600087803b1580156113bb57600080fd5b505af11580156113cf573d6000803e3d6000fd5b505050505050505098975050505050505050565b6040517ffbdfa1ea00000000000000000000000000000000000000000000000000000000815260048101829052600090819073ffffffffffffffffffffffffffffffffffffffff85169063fbdfa1ea90602401600060405180830381865afa158015611453573d6000803e3d6000fd5b505050506040513d6000823e601f3d9081017fffffffffffffffffffffffffffffffffffffffffffffffffffffffffffffffe01682016040526114999190810190612b33565b90508051600003611506576040517f08c379a000000000000000000000000000000000000000000000000000000000815260206004820152601160248201527f6964206e6f7420726567697374657265640000000000000000000000000000006044820152606401610312565b61050c8160008151811061151c5761151c6129e1565b602002602001015190565b6040517f72656769737472792e726563697065000000000000000000000000000000000060208201527fffffffff0000000000000000000000000000000000000000000000000000000060e083901b16602f8201526000906033015b604080517fffffffffffffffffffffffffffffffffffffffffffffffffffffffffffffffe0818403018152919052805160209091012092915050565b6115e9827f5d88ced8d8e079072bf73f49fc87661b519c50d79482941abb852ba2b10909cd6113e3565b73ffffffffffffffffffffffffffffffffffffffff16634cc82215826040518263ffffffff1660e01b815260040161162391815260200190565b600060405180830381600087803b15801561163d57600080fd5b505af1158015611651573d6000803e3d6000fd5b505050505050565b6040517f7265636970652e696e707574000000000000000000000000000000000000000060208201527fffffffff0000000000000000000000000000000000000000000000000000000060e083901b16602c820152600090603001611583565b6040517f7265636970652e6f75747075740000000000000000000000000000000000000060208201527fffffffff0000000000000000000000000000000000000000000000000000000060e083901b16602d820152600090603101611583565b60606117258383611d62565b9392505050565b6117368382611d8a565b6040517f4cc822150000000000000000000000000000000000000000000000000000000081526004810182905273ffffffffffffffffffffffffffffffffffffffff831690634cc82215906024015b600060405180830381600087803b15801561179f57600080fd5b505af11580156117b3573d6000803e3d6000fd5b50505050505050565b6060611725836117cb84611b63565b611d94565b6117fa827f024accd0d273ef6123273b21662f5cc055a7d58adf98cc1b060edd029af93f7f6113e3565b73ffffffffffffffffffffffffffffffffffffffff16634cc82215826040518263ffffffff1660e01b815260040161183491815260200190565b600060405180830381600087803b15801561184e57600080fd5b505af1158015611862573d6000803e3d6000fd5b50505050611893827f787589c9eda599ea35279a6d93e360e8fdc5402255545ca394f5033f5e58ed4260001c6113e3565b73ffffffffffffffffffffffffffffffffffffffff16634cc82215826040518263ffffffff1660e01b81526004016118cd91815260200190565b600060405180830381600087803b1580156118e757600080fd5b505af11580156118fb573d6000803e3d6000fd5b5050505061192c827f62adc4221185187a288916c2630b5e1f37e9437c5b68d55bc59b9debc23f19d060001c6113e3565b73ffffffffffffffffffffffffffffffffffffffff16634cc82215826040518263ffffffff1660e01b815260040161196691815260200190565b600060405180830381600087803b15801561198057600080fd5b505af1158015611994573d6000803e3d6000fd5b505050506119c5827fb25ea67b55901db62e4b14311a8c1ab178fec3948b4b493a711970a50aa2a2e160001c6113e3565b73ffffffffffffffffffffffffffffffffffffffff16634cc82215826040518263ffffffff1660e01b81526004016119ff91815260200190565b600060405180830381600087803b158015611a1957600080fd5b505af1158015611a2d573d6000803e3d6000fd5b50505050611a5e827fde0f9b459fab67ff56929343dacb07b0c0a1f8509d3184dc6d736f68b80381de60001c6113e3565b73ffffffffffffffffffffffffffffffffffffffff16634cc82215826040518263ffffffff1660e01b8152600401611a9891815260200190565b600060405180830381600087803b158015611ab257600080fd5b505af1158015611ac6573d6000803e3d6000fd5b505050506115e9827fa7b4bd2d760054205ea7cf761a119827e2316646eabcbc6653656187e7d030cb60001c6113e3565b6000610d2f848484611e5d565b6040517fd923c3c40000000000000000000000000000000000000000000000000000000081526004810182905263ffffffff8316602482015273ffffffffffffffffffffffffffffffffffffffff84169063d923c3c490604401611785565b6040517f7265636970652e726571756972656d656e74000000000000000000000000000060208201527fffffffff0000000000000000000000000000000000000000000000000000000060e083901b166032820152600090603601611583565b60008473ffffffffffffffffffffffffffffffffffffffff1663614bfa6e6040518163ffffffff1660e01b81526004016020604051808303816000875af1158015611c12573d6000803e3d6000fd5b505050506040513d601f19601f82011682018060405250810190611c369190612b68565b9050611c43848285612021565b611c6d847fde0f9b459fab67ff56929343dacb07b0c0a1f8509d3184dc6d736f68b80381de6113e3565b6040517f1ab06ee5000000000000000000000000000000000000000000000000000000008152600481018390526024810184905273ffffffffffffffffffffffffffffffffffffffff9190911690631ab06ee590604401600060405180830381600087803b158015611cde57600080fd5b505af1158015611cf2573d6000803e3d6000fd5b50505050949350505050565b611d28837f5d88ced8d8e079072bf73f49fc87661b519c50d79482941abb852ba2b10909cd6113e3565b73ffffffffffffffffffffffffffffffffffffffff16636437197783836040518363ffffffff1660e01b8152600401611785929190612b81565b60606000611d70848461216f565b90506000611d7e858561219b565b905061087082826121c7565b61034682826122dc565b6060611dc0837fde0f9b459fab67ff56929343dacb07b0c0a1f8509d3184dc6d736f68b80381de6113e3565b73ffffffffffffffffffffffffffffffffffffffff1663fbdfa1ea836040518263ffffffff1660e01b8152600401611dfa91815260200190565b600060405180830381865afa158015611e17573d6000803e3d6000fd5b505050506040513d6000823e601f3d9081017fffffffffffffffffffffffffffffffffffffffffffffffffffffffffffffffe01682016040526117259190810190612b33565b604080517f72656c6174696f6e0000000000000000000000000000000000000000000000006020808301919091526028820185905260488083018590528351808403909101815260689092019092528051910120611edb847fa95ad5d9865792db0c7d344e1ab96ff451848e8df32d75b494b0c861955ff49e6113e3565b6040517f1ab06ee5000000000000000000000000000000000000000000000000000000008152600481018390526024810185905273ffffffffffffffffffffffffffffffffffffffff9190911690631ab06ee590604401600060405180830381600087803b158015611f4c57600080fd5b505af1158015611f60573d6000803e3d6000fd5b50505050611f91847f31ac3bd9ff93491555448947dd00c7535790caec346584c2d495cc80bde8d9f160001c6113e3565b6040517f1ab06ee5000000000000000000000000000000000000000000000000000000008152600481018390526024810184905273ffffffffffffffffffffffffffffffffffffffff9190911690631ab06ee590604401600060405180830381600087803b15801561200257600080fd5b505af1158015612016573d6000803e3d6000fd5b505050509392505050565b61203583838360000151846020015161239f565b604081015163ffffffff16156120ef5761206f837f62adc4221185187a288916c2630b5e1f37e9437c5b68d55bc59b9debc23f19d06113e3565b73ffffffffffffffffffffffffffffffffffffffff1663d923c3c48383604001516040518363ffffffff1660e01b81526004016120bc92919091825263ffffffff16602082015260400190565b600060405180830381600087803b1580156120d657600080fd5b505af11580156120ea573d6000803e3d6000fd5b505050505b60608101511561216a57612123837fb25ea67b55901db62e4b14311a8c1ab178fec3948b4b493a711970a50aa2a2e16113e3565b73ffffffffffffffffffffffffffffffffffffffff16631ab06ee58383606001516040518363ffffffff1660e01b8152600401611785929190918252602082015260400190565b505050565b6060611dc0837fa95ad5d9865792db0c7d344e1ab96ff451848e8df32d75b494b0c861955ff49e6113e3565b6060611dc0837f31ac3bd9ff93491555448947dd00c7535790caec346584c2d495cc80bde8d9f16113e3565b60606000825184516121d99190612b9a565b67ffffffffffffffff8111156121f1576121f1612503565b60405190808252806020026020018201604052801561221a578160200160208202803683370190505b50905060005b84518110156122725784818151811061223b5761223b6129e1565b6020026020010151828281518110612255576122556129e1565b60209081029190910101528061226a81612a3f565b915050612220565b5060005b83518110156122d457838181518110612291576122916129e1565b6020026020010151828287516122a79190612b9a565b815181106122b7576122b76129e1565b6020908102919091010152806122cc81612a3f565b915050612276565b509392505050565b612306827fa95ad5d9865792db0c7d344e1ab96ff451848e8df32d75b494b0c861955ff49e6113e3565b73ffffffffffffffffffffffffffffffffffffffff16634cc82215826040518263ffffffff1660e01b815260040161234091815260200190565b600060405180830381600087803b15801561235a57600080fd5b505af115801561236e573d6000803e3d6000fd5b505050506115e9827f31ac3bd9ff93491555448947dd00c7535790caec346584c2d495cc80bde8d9f160001c6113e3565b6123c9847f024accd0d273ef6123273b21662f5cc055a7d58adf98cc1b060edd029af93f7f6113e3565b73ffffffffffffffffffffffffffffffffffffffff16636437197784846040518363ffffffff1660e01b8152600401612403929190612b81565b600060405180830381600087803b15801561241d57600080fd5b505af1158015612431573d6000803e3d6000fd5b50505050612462847f787589c9eda599ea35279a6d93e360e8fdc5402255545ca394f5033f5e58ed4260001c6113e3565b73ffffffffffffffffffffffffffffffffffffffff16636437197784836040518363ffffffff1660e01b815260040161249c929190612b81565b600060405180830381600087803b1580156124b657600080fd5b505af11580156124ca573d6000803e3d6000fd5b5050505050505050565b63ffffffff8116811461073757600080fd5b6000602082840312156124f857600080fd5b8135611725816124d4565b7f4e487b7100000000000000000000000000000000000000000000000000000000600052604160045260246000fd5b604051601f82017fffffffffffffffffffffffffffffffffffffffffffffffffffffffffffffffe016810167ffffffffffffffff8111828210171561257957612579612503565b604052919050565b600067ffffffffffffffff83111561259b5761259b612503565b6125cc60207fffffffffffffffffffffffffffffffffffffffffffffffffffffffffffffffe0601f86011601612532565b90508281528383830111156125e057600080fd5b828260208301376000602084830101529392505050565b60006020828403121561260957600080fd5b813567ffffffffffffffff81111561262057600080fd5b8201601f8101841361263157600080fd5b61050c84823560208401612581565b6000815180845260005b818110156126665760208185018101518683018201520161264a565b5060006020828601015260207fffffffffffffffffffffffffffffffffffffffffffffffffffffffffffffffe0601f83011685010191505092915050565b6020815260006117256020830184612640565b600080604083850312156126ca57600080fd5b82356126d5816124d4565b946020939093013593505050565b600082601f8301126126f457600080fd5b61172583833560208501612581565b600080600080600060a0868803121561271b57600080fd5b8535612726816124d4565b9450602086013567ffffffffffffffff8082111561274357600080fd5b61274f89838a016126e3565b9550604088013591508082111561276557600080fd5b50612772888289016126e3565b9350506060860135612783816124d4565b91506080860135612793816124d4565b809150509295509295909350565b6000602082840312156127b357600080fd5b813573ffffffffffffffffffffffffffffffffffffffff8116811461172557600080fd5b80516103b6816124d4565b600067ffffffffffffffff8211156127fc576127fc612503565b5060051b60200190565b600082601f83011261281757600080fd5b8151602061282c612827836127e2565b612532565b82815260059290921b8401810191818101908684111561284b57600080fd5b8286015b8481101561286f578051612862816124d4565b835291830191830161284f565b509695505050505050565b600082601f83011261288b57600080fd5b8151602061289b612827836127e2565b82815260059290921b840181019181810190868411156128ba57600080fd5b8286015b8481101561286f57805183529183019183016128be565b8051600381900b81146103b657600080fd5b600080600080600080600060e0888a03121561290257600080fd5b61290b886127d7565b9650602088015167ffffffffffffffff8082111561292857600080fd5b6129348b838c01612806565b975060408a015191508082111561294a57600080fd5b6129568b838c0161287a565b965060608a015191508082111561296c57600080fd5b6129788b838c01612806565b955060808a015191508082111561298e57600080fd5b5061299b8a828b0161287a565b93505060a088015191506129b160c089016128d5565b905092959891949750929550565b6000602082840312156129d157600080fd5b8151801515811461172557600080fd5b7f4e487b7100000000000000000000000000000000000000000000000000000000600052603260045260246000fd5b7f4e487b7100000000000000000000000000000000000000000000000000000000600052601160045260246000fd5b60007fffffffffffffffffffffffffffffffffffffffffffffffffffffffffffffffff8203612a7057612a70612a10565b5060010190565b60008260030b8260030b028060030b9150808214612a9757612a97612a10565b5092915050565b6000604082018483526020604081850152818551808452606086019150828701935060005b81811015612ae557845163ffffffff1683529383019391830191600101612ac3565b5090979650505050505050565b6000604082018483526020604081850152818551808452606086019150828701935060005b81811015612ae557845183529383019391830191600101612b17565b600060208284031215612b4557600080fd5b815167ffffffffffffffff811115612b5c57600080fd5b61050c8482850161287a565b600060208284031215612b7a57600080fd5b5051919050565b828152604060208201526000610d2f6040830184612640565b8082018082111561051057610510612a1056fea26469706673582212200cd4b9d948b00376ee23e14704efa35869abace7ff38102f483cc7685aed4b4364736f6c63430008110033","linkReferences":{}},"methodIdentifiers":{"addAssigner(uint32,uint256)":"32a3075b","addRequirement(uint32,string,string,uint32,uint32)":"bc244f02","cancelOwnershipHandover()":"54d1f13d","completeOwnershipHandover(address)":"f04e283e","create(bytes)":"cf5ba53f","deprecate()":"0fcc0c28","execute(bytes)":"09c5eabe","owner()":"8da5cb5b","ownershipHandoverExpiresAt(address)":"fee81cf4","remove(uint32)":"00d84fd8","renounceOwnership()":"715018a6","requestOwnershipHandover()":"25692962","transferOwnership(address)":"f2fde38b"},"id":305}