{"abi":[{"type":"constructor","inputs":[{"name":"_world","type":"address","internalType":"contract IWorld"},{"name":"_components","type":"address","internalType":"address"}],"stateMutability":"nonpayable"},{"type":"function","name":"cancelOwnershipHandover","inputs":[],"outputs":[],"stateMutability":"payable"},{"type":"function","name":"completeOwnershipHandover","inputs":[{"name":"pendingOwner","type":"address","internalType":"address"}],"outputs":[],"stateMutability":"payable"},{"type":"function","name":"create","inputs":[{"name":"arguments","type":"bytes","internalType":"bytes"}],"outputs":[{"name":"","type":"uint256","internalType":"uint256"}],"stateMutability":"nonpayable"},{"type":"function","name":"deprecate","inputs":[],"outputs":[],"stateMutability":"nonpayable"},{"type":"function","name":"execute","inputs":[{"name":"arguments","type":"bytes","internalType":"bytes"}],"outputs":[{"name":"","type":"bytes","internalType":"bytes"}],"stateMutability":"nonpayable"},{"type":"function","name":"owner","inputs":[],"outputs":[{"name":"result","type":"address","internalType":"address"}],"stateMutability":"view"},{"type":"function","name":"ownershipHandoverExpiresAt","inputs":[{"name":"pendingOwner","type":"address","internalType":"address"}],"outputs":[{"name":"result","type":"uint256","internalType":"uint256"}],"stateMutability":"view"},{"type":"function","name":"remove","inputs":[{"name":"npcIndex","type":"uint32","internalType":"uint32"},{"name":"relIndex","type":"uint32","internalType":"uint32"}],"outputs":[],"stateMutability":"nonpayable"},{"type":"function","name":"renounceOwnership","inputs":[],"outputs":[],"stateMutability":"payable"},{"type":"function","name":"requestOwnershipHandover","inputs":[],"outputs":[],"stateMutability":"payable"},{"type":"function","name":"transferOwnership","inputs":[{"name":"newOwner","type":"address","internalType":"address"}],"outputs":[],"stateMutability":"payable"},{"type":"function","name":"update","inputs":[{"name":"arguments","type":"bytes","internalType":"bytes"}],"outputs":[],"stateMutability":"nonpayable"},{"type":"event","name":"OwnershipHandoverCanceled","inputs":[{"name":"pendingOwner","type":"address","indexed":true,"internalType":"address"}],"anonymous":false},{"type":"event","name":"OwnershipHandoverRequested","inputs":[{"name":"pendingOwner","type":"address","indexed":true,"internalType":"address"}],"anonymous":false},{"type":"event","name":"OwnershipTransferred","inputs":[{"name":"oldOwner","type":"address","indexed":true,"internalType":"address"},{"name":"newOwner","type":"address","indexed":true,"internalType":"address"}],"anonymous":false},{"type":"event","name":"SystemDeprecated","inputs":[],"anonymous":false},{"type":"error","name":"AlreadyInitialized","inputs":[]},{"type":"error","name":"NewOwnerIsZeroAddress","inputs":[]},{"type":"error","name":"NoHandoverRequest","inputs":[]},{"type":"error","name":"Unauthorized","inputs":[]}],"bytecode":{"object":"0x60c06040523480156200001157600080fd5b5060405162001b6d38038062001b6d83398101604081905262000034916200012f565b81816200004133620000dc565b6001600160a01b03811615620000585780620000bd565b816001600160a01b031663ba62fbe46040518163ffffffff1660e01b8152600401602060405180830381865afa15801562000097573d6000803e3d6000fd5b505050506040513d601f19601f82011682018060405250810190620000bd91906200016e565b6001600160a01b039081166080529190911660a0525062000195915050565b6001600160a01b0316638b78c6d8198190558060007f8be0079c531659141344cd1fd0a4f28419497f9722a3daafe3b4186f6b6457e08180a35b50565b6001600160a01b03811681146200011657600080fd5b600080604083850312156200014357600080fd5b8251620001508162000119565b6020840151909250620001638162000119565b809150509250929050565b6000602082840312156200018157600080fd5b81516200018e8162000119565b9392505050565b60805160a05161196f620001fe600039600050506000818161034f0152818161040c015281816104bb015281816105b4015281816105e6015281816106180152818161067e01528181610739015281816107a3015281816107d50152610807015261196f6000f3fe6080604052600436106100c75760003560e01c80638da5cb5b11610074578063f04e283e1161004e578063f04e283e146101f3578063f2fde38b14610206578063fee81cf41461021957600080fd5b80638da5cb5b14610151578063c43ed2c8146101a5578063cf5ba53f146101c557600080fd5b806331f3666c116100a557806331f3666c1461012157806354d1f13d14610141578063715018a61461014957600080fd5b806309c5eabe146100cc5780630fcc0c28146101025780632569296214610119575b600080fd5b3480156100d857600080fd5b506100ec6100e7366004611462565b61024c565b6040516100f99190611550565b60405180910390f35b34801561010e57600080fd5b506101176102bd565b005b6101176102f0565b34801561012d57600080fd5b5061011761013c366004611575565b610340565b610117610436565b610117610472565b34801561015d57600080fd5b507fffffffffffffffffffffffffffffffffffffffffffffffffffffffff748739275460405173ffffffffffffffffffffffffffffffffffffffff90911681526020016100f9565b3480156101b157600080fd5b506101176101c0366004611462565b610486565b3480156101d157600080fd5b506101e56101e0366004611462565b610647565b6040519081526020016100f9565b6101176102013660046115ae565b610838565b6101176102143660046115ae565b610878565b34801561022557600080fd5b506101e56102343660046115ae565b63389a75e1600c908152600091909152602090205490565b606061025661089f565b6040517f08c379a000000000000000000000000000000000000000000000000000000000815260206004820152600f60248201527f6e6f7420696d706c656d656e746564000000000000000000000000000000000060448201526064015b60405180910390fd5b6102c561089f565b6040517f56f33501ffd77f9fe44d81e7db7e66a66bdf52ab3e11267cdc6462763604c4c790600090a1565b60006202a30067ffffffffffffffff164201905063389a75e1600c5233600052806020600c2055337fdbf36a107da19e49527a7176a1babf963b4b0ff8cde35ee35d6cd8f1f9ac7e1d600080a250565b61034861089f565b60006103757f000000000000000000000000000000000000000000000000000000000000000084846108d5565b905080600003610407576040517f08c379a000000000000000000000000000000000000000000000000000000000815260206004820152602f60248201527f526567697374727944656c65746552656c6174696f6e736869703a20666c616760448201527f20646f6573206e6f74206578697374000000000000000000000000000000000060648201526084016102b4565b6104317f000000000000000000000000000000000000000000000000000000000000000082610906565b505050565b63389a75e1600c523360005260006020600c2055337ffa7b8eab7da67f412cc9575ed43464468f9bfbae89d1675917346ca6d8fe3c92600080a2565b61047a61089f565b6104846000610950565b565b61048e61089f565b6000806000806000858060200190518101906104aa91906116c7565b9450945094509450945060006104e17f000000000000000000000000000000000000000000000000000000000000000087876108d5565b905080600003610573576040517f08c379a000000000000000000000000000000000000000000000000000000000815260206004820152602f60248201527f526567697374727955706461746552656c6174696f6e736869703a20666c616760448201527f20646f6573206e6f74206578697374000000000000000000000000000000000060648201526084016102b4565b604080516020808201909252600090528451908501207fc5d2460186f7233c927e7db2dcc703c0e500b653ca82273b7bfad8045d85a470146105da576105da7f000000000000000000000000000000000000000000000000000000000000000082866109b6565b81511561060c5761060c7f00000000000000000000000000000000000000000000000000000000000000008284610a48565b82511561063e5761063e7f00000000000000000000000000000000000000000000000000000000000000008285610aac565b50505050505050565b600061065161089f565b60008060008060008680602001905181019061066d91906116c7565b9450945094509450945060006106a47f000000000000000000000000000000000000000000000000000000000000000087876108d5565b90508015610734576040517f08c379a000000000000000000000000000000000000000000000000000000000815260206004820152602560248201527f52656769737472793a2052656c6174696f6e7368697020616c7265616479206560448201527f786973747300000000000000000000000000000000000000000000000000000060648201526084016102b4565b61075f7f00000000000000000000000000000000000000000000000000000000000000008787610ad6565b604080516020808201909252600090528551908601209091507fc5d2460186f7233c927e7db2dcc703c0e500b653ca82273b7bfad8045d85a470146107c9576107c97f000000000000000000000000000000000000000000000000000000000000000082866109b6565b8151156107fb576107fb7f00000000000000000000000000000000000000000000000000000000000000008284610a48565b82511561082d5761082d7f00000000000000000000000000000000000000000000000000000000000000008285610aac565b979650505050505050565b61084061089f565b63389a75e1600c52806000526020600c20805442111561086857636f5e88186000526004601cfd5b6000905561087581610950565b50565b61088061089f565b8060601b61089657637448fbae6000526004601cfd5b61087581610950565b7fffffffffffffffffffffffffffffffffffffffffffffffffffffffff74873927543314610484576382b429006000526004601cfd5b6000806108e28484610d3a565b90506108ee8582610dc1565b6108f95760006108fb565b805b9150505b9392505050565b6109108282610e03565b61091a8282610e9d565b6109248282610ea7565b61092e8282610ed1565b6109388282610efb565b6109428282610f34565b61094c8282610f6d565b5050565b7fffffffffffffffffffffffffffffffffffffffffffffffffffffffff74873927805473ffffffffffffffffffffffffffffffffffffffff9092169182907f8be0079c531659141344cd1fd0a4f28419497f9722a3daafe3b4186f6b6457e0600080a355565b6109e0837f2acf3c3c6b18ed6530ed0fd161fd0b65f4febe79d1182824d3263e852d29ca03610fa2565b73ffffffffffffffffffffffffffffffffffffffff16636437197783836040518363ffffffff1660e01b8152600401610a1a929190611777565b600060405180830381600087803b158015610a3457600080fd5b505af115801561063e573d6000803e3d6000fd5b610a72837fb3f96e7944f99619a1086b9a1272bbdff635f1cac9c8bf7ba6ce1a9aa202f19c610fa2565b73ffffffffffffffffffffffffffffffffffffffff1663f96911fa83836040518363ffffffff1660e01b8152600401610a1a929190611790565b610a72837f4e8e9e1c7a24cab87cf9c93105c2ba1e02c4738f22ecab88b312e4de35819ca6610fa2565b600080610ae38484610d3a565b9050610b2585826040518060400160405280600c81526020017f52454c4154494f4e5348495000000000000000000000000000000000000000008152506110ee565b610b4f857ff70dee74a99a7bf98a6058c2e93635b82826d8267ec7a3a05d2f12dcbf92534d610fa2565b73ffffffffffffffffffffffffffffffffffffffff166360fe47b1826040518263ffffffff1660e01b8152600401610b8991815260200190565b600060405180830381600087803b158015610ba357600080fd5b505af1158015610bb7573d6000803e3d6000fd5b50505050610be8857fb29f21e001e93877c0ca9ea2483697e386afbf8bced0360395102afa8c793eea60001c610fa2565b6040517fd923c3c40000000000000000000000000000000000000000000000000000000081526004810183905263ffffffff8616602482015273ffffffffffffffffffffffffffffffffffffffff919091169063d923c3c490604401600060405180830381600087803b158015610c5e57600080fd5b505af1158015610c72573d6000803e3d6000fd5b50505050610ca3857fc2b7d171254fab709835248d31a7d20c430c60ac71e67f09970923fa584b929160001c610fa2565b6040517fd923c3c40000000000000000000000000000000000000000000000000000000081526004810183905263ffffffff8516602482015273ffffffffffffffffffffffffffffffffffffffff919091169063d923c3c490604401600060405180830381600087803b158015610d1957600080fd5b505af1158015610d2d573d6000803e3d6000fd5b5092979650505050505050565b6040517f72656769737472792e72656c6174696f6e73686970000000000000000000000060208201527fffffffff0000000000000000000000000000000000000000000000000000000060e084811b8216603584015283901b166039820152600090603d016040516020818303038152906040528051906020012060001c90505b92915050565b60006108ff83836040518060400160405280600c81526020017f52454c4154494f4e534849500000000000000000000000000000000000000000815250611118565b610e2d827ff70dee74a99a7bf98a6058c2e93635b82826d8267ec7a3a05d2f12dcbf92534d610fa2565b73ffffffffffffffffffffffffffffffffffffffff16634cc82215826040518263ffffffff1660e01b8152600401610e6791815260200190565b600060405180830381600087803b158015610e8157600080fd5b505af1158015610e95573d6000803e3d6000fd5b505050505050565b61094c8282611166565b610e2d827fc2b7d171254fab709835248d31a7d20c430c60ac71e67f09970923fa584b9291610fa2565b610e2d827fb29f21e001e93877c0ca9ea2483697e386afbf8bced0360395102afa8c793eea610fa2565b610f058282611190565b1561094c57610e2d827f2acf3c3c6b18ed6530ed0fd161fd0b65f4febe79d1182824d3263e852d29ca03610fa2565b610f3e8282611237565b1561094c57610e2d827fb3f96e7944f99619a1086b9a1272bbdff635f1cac9c8bf7ba6ce1a9aa202f19c610fa2565b610f778282611263565b1561094c57610e2d827f4e8e9e1c7a24cab87cf9c93105c2ba1e02c4738f22ecab88b312e4de35819ca65b6040517ffbdfa1ea00000000000000000000000000000000000000000000000000000000815260048101829052600090819073ffffffffffffffffffffffffffffffffffffffff85169063fbdfa1ea90602401600060405180830381865afa158015611012573d6000803e3d6000fd5b505050506040513d6000823e601f3d9081017fffffffffffffffffffffffffffffffffffffffffffffffffffffffffffffffe016820160405261105891908101906117e4565b905080516000036110c5576040517f08c379a000000000000000000000000000000000000000000000000000000000815260206004820152601160248201527f6964206e6f74207265676973746572656400000000000000000000000000000060448201526064016102b4565b6110e6816000815181106110db576110db61186a565b602002602001015190565b949350505050565b6109e0837f5d88ced8d8e079072bf73f49fc87661b519c50d79482941abb852ba2b10909cd610fa2565b60006110e68383611149877f5d88ced8d8e079072bf73f49fc87661b519c50d79482941abb852ba2b10909cd610fa2565b73ffffffffffffffffffffffffffffffffffffffff16919061128f565b610e2d827f5d88ced8d8e079072bf73f49fc87661b519c50d79482941abb852ba2b10909cd610fa2565b60006111bc837f2acf3c3c6b18ed6530ed0fd161fd0b65f4febe79d1182824d3263e852d29ca03610fa2565b73ffffffffffffffffffffffffffffffffffffffff1663cccf7a8e836040518263ffffffff1660e01b81526004016111f691815260200190565b602060405180830381865afa158015611213573d6000803e3d6000fd5b505050506040513d601f19601f820116820180604052508101906108ff9190611899565b60006111bc837fb3f96e7944f99619a1086b9a1272bbdff635f1cac9c8bf7ba6ce1a9aa202f19c610fa2565b60006111bc837f4e8e9e1c7a24cab87cf9c93105c2ba1e02c4738f22ecab88b312e4de35819ca6610fa2565b60006110e68261129f86866112b2565b8151602092830120815191909201201490565b6040517fdd98e3c90000000000000000000000000000000000000000000000000000000081526004810182905260609060009073ffffffffffffffffffffffffffffffffffffffff85169063dd98e3c990602401600060405180830381865afa158015611323573d6000803e3d6000fd5b505050506040513d6000823e601f3d9081017fffffffffffffffffffffffffffffffffffffffffffffffffffffffffffffffe016820160405261136991908101906118bb565b9050805160000361138a575050604080516020810190915260008152610dbb565b808060200190518101906110e69190611904565b7f4e487b7100000000000000000000000000000000000000000000000000000000600052604160045260246000fd5b604051601f82017fffffffffffffffffffffffffffffffffffffffffffffffffffffffffffffffe016810167ffffffffffffffff811182821017156114145761141461139e565b604052919050565b600067ffffffffffffffff8211156114365761143661139e565b50601f017fffffffffffffffffffffffffffffffffffffffffffffffffffffffffffffffe01660200190565b60006020828403121561147457600080fd5b813567ffffffffffffffff81111561148b57600080fd5b8201601f8101841361149c57600080fd5b80356114af6114aa8261141c565b6113cd565b8181528560208385010111156114c457600080fd5b81602084016020830137600091810160200191909152949350505050565b60005b838110156114fd5781810151838201526020016114e5565b50506000910152565b6000815180845261151e8160208601602086016114e2565b601f017fffffffffffffffffffffffffffffffffffffffffffffffffffffffffffffffe0169290920160200192915050565b6020815260006108ff6020830184611506565b63ffffffff8116811461087557600080fd5b6000806040838503121561158857600080fd5b823561159381611563565b915060208301356115a381611563565b809150509250929050565b6000602082840312156115c057600080fd5b813573ffffffffffffffffffffffffffffffffffffffff811681146108ff57600080fd5b60006115f26114aa8461141c565b905082815283838301111561160657600080fd5b6108ff8360208301846114e2565b600082601f83011261162557600080fd5b6108ff838351602085016115e4565b600067ffffffffffffffff82111561164e5761164e61139e565b5060051b60200190565b600082601f83011261166957600080fd5b815160206116796114aa83611634565b82815260059290921b8401810191818101908684111561169857600080fd5b8286015b848110156116bc5780516116af81611563565b835291830191830161169c565b509695505050505050565b600080600080600060a086880312156116df57600080fd5b85516116ea81611563565b60208701519095506116fb81611563565b604087015190945067ffffffffffffffff8082111561171957600080fd5b61172589838a01611614565b9450606088015191508082111561173b57600080fd5b61174789838a01611658565b9350608088015191508082111561175d57600080fd5b5061176a88828901611658565b9150509295509295909350565b8281526040602082015260006110e66040830184611506565b6000604082018483526020604081850152818551808452606086019150828701935060005b818110156117d757845163ffffffff16835293830193918301916001016117b5565b5090979650505050505050565b600060208083850312156117f757600080fd5b825167ffffffffffffffff81111561180e57600080fd5b8301601f8101851361181f57600080fd5b805161182d6114aa82611634565b81815260059190911b8201830190838101908783111561184c57600080fd5b928401925b8284101561082d57835182529284019290840190611851565b7f4e487b7100000000000000000000000000000000000000000000000000000000600052603260045260246000fd5b6000602082840312156118ab57600080fd5b815180151581146108ff57600080fd5b6000602082840312156118cd57600080fd5b815167ffffffffffffffff8111156118e457600080fd5b8201601f810184136118f557600080fd5b6110e6848251602084016115e4565b60006020828403121561191657600080fd5b815167ffffffffffffffff81111561192d57600080fd5b6110e68482850161161456fea26469706673582212202952c72bc1940caf0bf38224df98ca5c7561de51bf5ac916e582fbf7b20b732b64736f6c63430008110033","linkReferences":{}},"methodIdentifiers":{"cancelOwnershipHandover()":"54d1f13d","completeOwnershipHandover(address)":"f04e283e","create(bytes)":"cf5ba53f","deprecate()":"0fcc0c28","execute(bytes)":"09c5eabe","owner()":"8da5cb5b","ownershipHandoverExpiresAt(address)":"fee81cf4","remove(uint32,uint32)":"31f3666c","renounceOwnership()":"715018a6","requestOwnershipHandover()":"25692962","transferOwnership(address)":"f2fde38b","update(bytes)":"c43ed2c8"},"id":306}