{"abi":[{"type":"constructor","inputs":[{"name":"_world","type":"address","internalType":"contract IWorld"},{"name":"_components","type":"address","internalType":"address"}],"stateMutability":"nonpayable"},{"type":"function","name":"addGate","inputs":[{"name":"arguments","type":"bytes","internalType":"bytes"}],"outputs":[{"name":"","type":"uint256","internalType":"uint256"}],"stateMutability":"nonpayable"},{"type":"function","name":"cancelOwnershipHandover","inputs":[],"outputs":[],"stateMutability":"payable"},{"type":"function","name":"completeOwnershipHandover","inputs":[{"name":"pendingOwner","type":"address","internalType":"address"}],"outputs":[],"stateMutability":"payable"},{"type":"function","name":"create","inputs":[{"name":"arguments","type":"bytes","internalType":"bytes"}],"outputs":[{"name":"","type":"uint256","internalType":"uint256"}],"stateMutability":"nonpayable"},{"type":"function","name":"deprecate","inputs":[],"outputs":[],"stateMutability":"nonpayable"},{"type":"function","name":"execute","inputs":[{"name":"arguments","type":"bytes","internalType":"bytes"}],"outputs":[{"name":"","type":"bytes","internalType":"bytes"}],"stateMutability":"nonpayable"},{"type":"function","name":"owner","inputs":[],"outputs":[{"name":"result","type":"address","internalType":"address"}],"stateMutability":"view"},{"type":"function","name":"ownershipHandoverExpiresAt","inputs":[{"name":"pendingOwner","type":"address","internalType":"address"}],"outputs":[{"name":"result","type":"uint256","internalType":"uint256"}],"stateMutability":"view"},{"type":"function","name":"remove","inputs":[{"name":"index","type":"uint32","internalType":"uint32"}],"outputs":[],"stateMutability":"nonpayable"},{"type":"function","name":"renounceOwnership","inputs":[],"outputs":[],"stateMutability":"payable"},{"type":"function","name":"requestOwnershipHandover","inputs":[],"outputs":[],"stateMutability":"payable"},{"type":"function","name":"transferOwnership","inputs":[{"name":"newOwner","type":"address","internalType":"address"}],"outputs":[],"stateMutability":"payable"},{"type":"event","name":"OwnershipHandoverCanceled","inputs":[{"name":"pendingOwner","type":"address","indexed":true,"internalType":"address"}],"anonymous":false},{"type":"event","name":"OwnershipHandoverRequested","inputs":[{"name":"pendingOwner","type":"address","indexed":true,"internalType":"address"}],"anonymous":false},{"type":"event","name":"OwnershipTransferred","inputs":[{"name":"oldOwner","type":"address","indexed":true,"internalType":"address"},{"name":"newOwner","type":"address","indexed":true,"internalType":"address"}],"anonymous":false},{"type":"event","name":"SystemDeprecated","inputs":[],"anonymous":false},{"type":"error","name":"AlreadyInitialized","inputs":[]},{"type":"error","name":"NewOwnerIsZeroAddress","inputs":[]},{"type":"error","name":"NoHandoverRequest","inputs":[]},{"type":"error","name":"QueryOrderNotSupported","inputs":[]},{"type":"error","name":"Unauthorized","inputs":[]}],"bytecode":{"object":"0x60c06040523480156200001157600080fd5b50604051620034803803806200348083398101604081905262000034916200012f565b81816200004133620000dc565b6001600160a01b03811615620000585780620000bd565b816001600160a01b031663ba62fbe46040518163ffffffff1660e01b8152600401602060405180830381865afa15801562000097573d6000803e3d6000fd5b505050506040513d601f19601f82011682018060405250810190620000bd91906200016e565b6001600160a01b039081166080529190911660a0525062000195915050565b6001600160a01b0316638b78c6d8198190558060007f8be0079c531659141344cd1fd0a4f28419497f9722a3daafe3b4186f6b6457e08180a35b50565b6001600160a01b03811681146200011657600080fd5b600080604083850312156200014357600080fd5b8251620001508162000119565b6020840151909250620001638162000119565b809150509250929050565b6000602082840312156200018157600080fd5b81516200018e8162000119565b9392505050565b60805160a05161327f62000201600039600061066001526000818161025a015281816102f5015281816103220152818161035a0152818161052c015281816105cd015281816106810152818161071b015281816107ac015281816108aa0152610910015261327f6000f3fe6080604052600436106100c65760003560e01c80638da5cb5b11610074578063f04e283e1161004e578063f04e283e146101f2578063f2fde38b14610205578063fee81cf41461021857600080fd5b80638da5cb5b146101505780638f59323c146101a4578063cf5ba53f146101d257600080fd5b806325692962116100a5578063256929621461013857806354d1f13d14610140578063715018a61461014857600080fd5b8062d84fd8146100cb57806309c5eabe146100ed5780630fcc0c2814610123575b600080fd5b3480156100d757600080fd5b506100eb6100e6366004612a52565b61024b565b005b3480156100f957600080fd5b5061010d610108366004612b33565b6103b0565b60405161011a9190612c21565b60405180910390f35b34801561012f57600080fd5b506100eb610421565b6100eb610454565b6100eb6104a4565b6100eb6104e0565b34801561015c57600080fd5b507fffffffffffffffffffffffffffffffffffffffffffffffffffffffff748739275460405173ffffffffffffffffffffffffffffffffffffffff909116815260200161011a565b3480156101b057600080fd5b506101c46101bf366004612b33565b6104f4565b60405190815260200161011a565b3480156101de57600080fd5b506101c46101ed366004612b33565b6106b7565b6100eb610200366004612c34565b610944565b6100eb610213366004612c34565b610984565b34801561022457600080fd5b506101c4610233366004612c34565b63389a75e1600c908152600091909152602090205490565b6102536109ab565b600061027f7f0000000000000000000000000000000000000000000000000000000000000000836109e1565b9050806000036102f0576040517f08c379a000000000000000000000000000000000000000000000000000000000815260206004820152601460248201527f526f6f6d3a20646f6573206e6f7420657869737400000000000000000000000060448201526064015b60405180910390fd5b61031a7f000000000000000000000000000000000000000000000000000000000000000082610a10565b5060006103477f000000000000000000000000000000000000000000000000000000000000000084610dcc565b905060005b81518110156103aa576103987f000000000000000000000000000000000000000000000000000000000000000083838151811061038b5761038b612c6a565b6020026020010151610f87565b806103a281612cc8565b91505061034c565b50505050565b60606103ba6109ab565b6040517f08c379a000000000000000000000000000000000000000000000000000000000815260206004820152600f60248201527f6e6f7420696d706c656d656e746564000000000000000000000000000000000060448201526064016102e7565b919050565b6104296109ab565b6040517f56f33501ffd77f9fe44d81e7db7e66a66bdf52ab3e11267cdc6462763604c4c790600090a1565b60006202a30067ffffffffffffffff164201905063389a75e1600c5233600052806020600c2055337fdbf36a107da19e49527a7176a1babf963b4b0ff8cde35ee35d6cd8f1f9ac7e1d600080a250565b63389a75e1600c523360005260006020600c2055337ffa7b8eab7da67f412cc9575ed43464468f9bfbae89d1675917346ca6d8fe3c92600080a2565b6104e86109ab565b6104f260006110c4565b565b60006104fe6109ab565b6000806000806000808780602001905181019061051b9190612d45565b9550955095509550955095506105517f0000000000000000000000000000000000000000000000000000000000000000876109e1565b6000036105ba576040517f08c379a000000000000000000000000000000000000000000000000000000000815260206004820152601460248201527f526f6f6d3a20646f6573206e6f7420657869737400000000000000000000000060448201526064016102e7565b63ffffffff851615806105f557506105f27f0000000000000000000000000000000000000000000000000000000000000000866109e1565b15155b61065b576040517f08c379a000000000000000000000000000000000000000000000000000000000815260206004820152601c60248201527f526f6f6d3a20736f7572636520646f6573206e6f74206578697374730000000060448201526064016102e7565b6106ab7f00000000000000000000000000000000000000000000000000000000000000007f000000000000000000000000000000000000000000000000000000000000000088888888888861112a565b98975050505050505050565b60006106c16109ab565b6000806000806000806000888060200190518101906106e09190612e22565b9650965096509650965096509650600060405180606001604052808960030b81526020018860030b81526020018760030b81525090506107407f0000000000000000000000000000000000000000000000000000000000000000826113f8565b156107a7576040517f08c379a000000000000000000000000000000000000000000000000000000000815260206004820181905260248201527f526f6f6d3a20616c726561647920657869737473206174206c6f636174696f6e60448201526064016102e7565b6107d17f0000000000000000000000000000000000000000000000000000000000000000866109e1565b15610838576040517f08c379a000000000000000000000000000000000000000000000000000000000815260206004820152601d60248201527f526f6f6d3a20616c72656164792065786973747320617420696e64657800000060448201526064016102e7565b60008451116108a3576040517f08c379a000000000000000000000000000000000000000000000000000000000815260206004820152601a60248201527f526f6f6d3a206e616d652063616e6e6f7420626520656d70747900000000000060448201526064016102e7565b60006108d27f0000000000000000000000000000000000000000000000000000000000000000838888886114bd565b9050600083511180156109065750826000815181106108f3576108f3612c6a565b602002602001015163ffffffff16600014155b15610936576109367f00000000000000000000000000000000000000000000000000000000000000008285611796565b9a9950505050505050505050565b61094c6109ab565b63389a75e1600c52806000526020600c20805442111561097457636f5e88186000526004601cfd5b60009055610981816110c4565b50565b61098c6109ab565b8060601b6109a257637448fbae6000526004601cfd5b610981816110c4565b7fffffffffffffffffffffffffffffffffffffffffffffffffffffffff748739275433146104f2576382b429006000526004601cfd5b6000806109ed83611831565b90506109f984826118c9565b610a04576000610a06565b805b9150505b92915050565b6000610a1c8383611912565b610a46837f3be9611062b8582cf4b9a4eafe577dbde7dcd7779a1efb46d73e212026c4b0cc6119ac565b73ffffffffffffffffffffffffffffffffffffffff16634cc82215836040518263ffffffff1660e01b8152600401610a8091815260200190565b600060405180830381600087803b158015610a9a57600080fd5b505af1158015610aae573d6000803e3d6000fd5b50505050610adf837f1d80d8bc36212886f1cd16bb0e8f17892d2237a9ad83cebdcec1f76b3c52d19f60001c6119ac565b73ffffffffffffffffffffffffffffffffffffffff16634cc82215836040518263ffffffff1660e01b8152600401610b1991815260200190565b600060405180830381600087803b158015610b3357600080fd5b505af1158015610b47573d6000803e3d6000fd5b50505050610b78837f2acf3c3c6b18ed6530ed0fd161fd0b65f4febe79d1182824d3263e852d29ca0360001c6119ac565b73ffffffffffffffffffffffffffffffffffffffff16634cc82215836040518263ffffffff1660e01b8152600401610bb291815260200190565b600060405180830381600087803b158015610bcc57600080fd5b505af1158015610be0573d6000803e3d6000fd5b50505050610c11837ffdbdfda9d0933af67d5682f368771753d17c0fef55c57d62a98476dd7509058060001c6119ac565b73ffffffffffffffffffffffffffffffffffffffff16634cc82215836040518263ffffffff1660e01b8152600401610c4b91815260200190565b600060405180830381600087803b158015610c6557600080fd5b505af1158015610c79573d6000803e3d6000fd5b505050506000610cac847f858f24fb88a0e63a706be19a7ceb37cafdbc2534e73bfd47f2983a24e9e5885760001c6119ac565b6040517fcccf7a8e0000000000000000000000000000000000000000000000000000000081526004810185905290915073ffffffffffffffffffffffffffffffffffffffff82169063cccf7a8e90602401602060405180830381865afa158015610d1a573d6000803e3d6000fd5b505050506040513d601f19601f82011682018060405250810190610d3e9190612f4f565b15610dc4576040517f4cc822150000000000000000000000000000000000000000000000000000000081526004810184905273ffffffffffffffffffffffffffffffffffffffff821690634cc8221590602401600060405180830381600087803b158015610dab57600080fd5b505af1158015610dbf573d6000803e3d6000fd5b505050505b509092915050565b60606000610dfa847f78b1ef013cafd65ebaa39f84081e7a0dfd0ac73a9c373c972780715705987a956119ac565b73ffffffffffffffffffffffffffffffffffffffff1663fbdfa1ea610e1e85611af0565b6040518263ffffffff1660e01b8152600401610e3c91815260200190565b600060405180830381865afa158015610e59573d6000803e3d6000fd5b505050506040513d6000823e601f3d9081017fffffffffffffffffffffffffffffffffffffffffffffffffffffffffffffffe0168201604052610e9f9190810190612f71565b90506000610ecd857fde0f9b459fab67ff56929343dacb07b0c0a1f8509d3184dc6d736f68b80381de6119ac565b73ffffffffffffffffffffffffffffffffffffffff1663fbdfa1ea610ef186611b50565b6040518263ffffffff1660e01b8152600401610f0f91815260200190565b600060405180830381865afa158015610f2c573d6000803e3d6000fd5b505050506040513d6000823e601f3d9081017fffffffffffffffffffffffffffffffffffffffffffffffffffffffffffffffe0168201604052610f729190810190612f71565b9050610f7e8282611bb0565b95945050505050565b610fb1827f78b1ef013cafd65ebaa39f84081e7a0dfd0ac73a9c373c972780715705987a956119ac565b73ffffffffffffffffffffffffffffffffffffffff16634cc82215826040518263ffffffff1660e01b8152600401610feb91815260200190565b600060405180830381600087803b15801561100557600080fd5b505af1158015611019573d6000803e3d6000fd5b5050505061104a827fde0f9b459fab67ff56929343dacb07b0c0a1f8509d3184dc6d736f68b80381de60001c6119ac565b73ffffffffffffffffffffffffffffffffffffffff16634cc82215826040518263ffffffff1660e01b815260040161108491815260200190565b600060405180830381600087803b15801561109e57600080fd5b505af11580156110b2573d6000803e3d6000fd5b505050506110c08282611cc5565b5050565b7fffffffffffffffffffffffffffffffffffffffffffffffffffffffff74873927805473ffffffffffffffffffffffffffffffffffffffff9092169182907f8be0079c531659141344cd1fd0a4f28419497f9722a3daafe3b4186f6b6457e0600080a355565b60008873ffffffffffffffffffffffffffffffffffffffff1663614bfa6e6040518163ffffffff1660e01b81526004016020604051808303816000875af1158015611179573d6000803e3d6000fd5b505050506040513d601f19601f8201168201806040525081019061119d9190613002565b90506111d0888260405180608001604052808781526020018681526020018963ffffffff16815260200188815250611fec565b6111fa887f78b1ef013cafd65ebaa39f84081e7a0dfd0ac73a9c373c972780715705987a956119ac565b73ffffffffffffffffffffffffffffffffffffffff16631ab06ee58261121f8a611af0565b6040517fffffffff0000000000000000000000000000000000000000000000000000000060e085901b16815260048101929092526024820152604401600060405180830381600087803b15801561127557600080fd5b505af1158015611289573d6000803e3d6000fd5b5050505060006112bc897fde0f9b459fab67ff56929343dacb07b0c0a1f8509d3184dc6d736f68b80381de60001c6119ac565b905063ffffffff871615611363578073ffffffffffffffffffffffffffffffffffffffff16631ab06ee5836112f08a611b50565b6040517fffffffff0000000000000000000000000000000000000000000000000000000060e085901b16815260048101929092526024820152604401600060405180830381600087803b15801561134657600080fd5b505af115801561135a573d6000803e3d6000fd5b505050506113eb565b6040517f1ab06ee5000000000000000000000000000000000000000000000000000000008152600481018390526000602482015273ffffffffffffffffffffffffffffffffffffffff821690631ab06ee590604401600060405180830381600087803b1580156113d257600080fd5b505af11580156113e6573d6000803e3d6000fd5b505050505b5098975050505050505050565b600080611487846040518060400160405280600481526020017f524f4f4d00000000000000000000000000000000000000000000000000000000815250611462877f1d80d8bc36212886f1cd16bb0e8f17892d2237a9ad83cebdcec1f76b3c52d19f60001c61213a565b86604051602001611473919061301b565b604051602081830303815290604052612146565b90506000815111611499576000610a06565b806000815181106114ac576114ac612c6a565b602002602001015191505092915050565b60006114c884611831565b905061150a86826040518060400160405280600481526020017f524f4f4d0000000000000000000000000000000000000000000000000000000081525061228f565b611534867f3be9611062b8582cf4b9a4eafe577dbde7dcd7779a1efb46d73e212026c4b0cc6119ac565b6040517fd923c3c40000000000000000000000000000000000000000000000000000000081526004810183905263ffffffff8616602482015273ffffffffffffffffffffffffffffffffffffffff919091169063d923c3c490604401600060405180830381600087803b1580156115aa57600080fd5b505af11580156115be573d6000803e3d6000fd5b505050506115ef867f1d80d8bc36212886f1cd16bb0e8f17892d2237a9ad83cebdcec1f76b3c52d19f60001c6119ac565b73ffffffffffffffffffffffffffffffffffffffff1663dd4d16d582876040518363ffffffff1660e01b8152600401611629929190613049565b600060405180830381600087803b15801561164357600080fd5b505af1158015611657573d6000803e3d6000fd5b50505050611688867f2acf3c3c6b18ed6530ed0fd161fd0b65f4febe79d1182824d3263e852d29ca0360001c6119ac565b73ffffffffffffffffffffffffffffffffffffffff16636437197782856040518363ffffffff1660e01b81526004016116c292919061307d565b600060405180830381600087803b1580156116dc57600080fd5b505af11580156116f0573d6000803e3d6000fd5b50505050611721867ffdbdfda9d0933af67d5682f368771753d17c0fef55c57d62a98476dd7509058060001c6119ac565b73ffffffffffffffffffffffffffffffffffffffff16636437197782846040518363ffffffff1660e01b815260040161175b92919061307d565b600060405180830381600087803b15801561177557600080fd5b505af1158015611789573d6000803e3d6000fd5b5050505095945050505050565b6117c0837f858f24fb88a0e63a706be19a7ceb37cafdbc2534e73bfd47f2983a24e9e588576119ac565b73ffffffffffffffffffffffffffffffffffffffff1663f96911fa83836040518363ffffffff1660e01b81526004016117fa929190613096565b600060405180830381600087803b15801561181457600080fd5b505af1158015611828573d6000803e3d6000fd5b50505050505050565b6040517f726f6f6d0000000000000000000000000000000000000000000000000000000060208201527fffffffff0000000000000000000000000000000000000000000000000000000060e083901b1660248201526000906028015b604080517fffffffffffffffffffffffffffffffffffffffffffffffffffffffffffffffe0818403018152919052805160209091012092915050565b600061190b83836040518060400160405280600481526020017f524f4f4d000000000000000000000000000000000000000000000000000000008152506122f3565b9392505050565b61193c827f5d88ced8d8e079072bf73f49fc87661b519c50d79482941abb852ba2b10909cd6119ac565b73ffffffffffffffffffffffffffffffffffffffff16634cc82215826040518263ffffffff1660e01b815260040161197691815260200190565b600060405180830381600087803b15801561199057600080fd5b505af11580156119a4573d6000803e3d6000fd5b505050505050565b6040517ffbdfa1ea00000000000000000000000000000000000000000000000000000000815260048101829052600090819073ffffffffffffffffffffffffffffffffffffffff85169063fbdfa1ea90602401600060405180830381865afa158015611a1c573d6000803e3d6000fd5b505050506040513d6000823e601f3d9081017fffffffffffffffffffffffffffffffffffffffffffffffffffffffffffffffe0168201604052611a629190810190612f71565b90508051600003611acf576040517f08c379a000000000000000000000000000000000000000000000000000000000815260206004820152601160248201527f6964206e6f74207265676973746572656400000000000000000000000000000060448201526064016102e7565b610a0681600081518110611ae557611ae5612c6a565b602002602001015190565b6040517f726f6f6d2e676174652e746f000000000000000000000000000000000000000060208201527fffffffff0000000000000000000000000000000000000000000000000000000060e083901b16602c82015260009060300161188d565b6040517f726f6f6d2e676174652e66726f6d00000000000000000000000000000000000060208201527fffffffff0000000000000000000000000000000000000000000000000000000060e083901b16602e82015260009060320161188d565b6060600082518451611bc291906130ea565b67ffffffffffffffff811115611bda57611bda612a6f565b604051908082528060200260200182016040528015611c03578160200160208202803683370190505b50905060005b8451811015611c5b57848181518110611c2457611c24612c6a565b6020026020010151828281518110611c3e57611c3e612c6a565b602090810291909101015280611c5381612cc8565b915050611c09565b5060005b8351811015611cbd57838181518110611c7a57611c7a612c6a565b602002602001015182828751611c9091906130ea565b81518110611ca057611ca0612c6a565b602090810291909101015280611cb581612cc8565b915050611c5f565b509392505050565b611cef827f024accd0d273ef6123273b21662f5cc055a7d58adf98cc1b060edd029af93f7f6119ac565b73ffffffffffffffffffffffffffffffffffffffff16634cc82215826040518263ffffffff1660e01b8152600401611d2991815260200190565b600060405180830381600087803b158015611d4357600080fd5b505af1158015611d57573d6000803e3d6000fd5b50505050611d88827f787589c9eda599ea35279a6d93e360e8fdc5402255545ca394f5033f5e58ed4260001c6119ac565b73ffffffffffffffffffffffffffffffffffffffff16634cc82215826040518263ffffffff1660e01b8152600401611dc291815260200190565b600060405180830381600087803b158015611ddc57600080fd5b505af1158015611df0573d6000803e3d6000fd5b50505050611e21827f62adc4221185187a288916c2630b5e1f37e9437c5b68d55bc59b9debc23f19d060001c6119ac565b73ffffffffffffffffffffffffffffffffffffffff16634cc82215826040518263ffffffff1660e01b8152600401611e5b91815260200190565b600060405180830381600087803b158015611e7557600080fd5b505af1158015611e89573d6000803e3d6000fd5b50505050611eba827fb25ea67b55901db62e4b14311a8c1ab178fec3948b4b493a711970a50aa2a2e160001c6119ac565b73ffffffffffffffffffffffffffffffffffffffff16634cc82215826040518263ffffffff1660e01b8152600401611ef491815260200190565b600060405180830381600087803b158015611f0e57600080fd5b505af1158015611f22573d6000803e3d6000fd5b50505050611f53827fde0f9b459fab67ff56929343dacb07b0c0a1f8509d3184dc6d736f68b80381de60001c6119ac565b73ffffffffffffffffffffffffffffffffffffffff16634cc82215826040518263ffffffff1660e01b8152600401611f8d91815260200190565b600060405180830381600087803b158015611fa757600080fd5b505af1158015611fbb573d6000803e3d6000fd5b5050505061193c827fa7b4bd2d760054205ea7cf761a119827e2316646eabcbc6653656187e7d030cb60001c6119ac565b612000838383600001518460200151612349565b604081015163ffffffff16156120ba5761203a837f62adc4221185187a288916c2630b5e1f37e9437c5b68d55bc59b9debc23f19d06119ac565b73ffffffffffffffffffffffffffffffffffffffff1663d923c3c48383604001516040518363ffffffff1660e01b815260040161208792919091825263ffffffff16602082015260400190565b600060405180830381600087803b1580156120a157600080fd5b505af11580156120b5573d6000803e3d6000fd5b505050505b606081015115612135576120ee837fb25ea67b55901db62e4b14311a8c1ab178fec3948b4b493a711970a50aa2a2e16119ac565b73ffffffffffffffffffffffffffffffffffffffff16631ab06ee58383606001516040518363ffffffff1660e01b81526004016117fa929190918252602082015260400190565b505050565b600061190b83836119ac565b604080516002808252606082810190935260009190816020015b6040805160608082018352600080835260208301529181019190915281526020019060019003908161216057905050604080516060810190915290915080600281526020018573ffffffffffffffffffffffffffffffffffffffff16815260200184815250816000815181106121d8576121d8612c6a565b602090810291909101015260408051606081019091528060028152602001612220887f5d88ced8d8e079072bf73f49fc87661b519c50d79482941abb852ba2b10909cd61213a565b73ffffffffffffffffffffffffffffffffffffffff1681526020018660405160200161224c9190612c21565b6040516020818303038152906040528152508160018151811061227157612271612c6a565b60200260200101819052506122858161247e565b9695505050505050565b6122b9837f5d88ced8d8e079072bf73f49fc87661b519c50d79482941abb852ba2b10909cd6119ac565b73ffffffffffffffffffffffffffffffffffffffff16636437197783836040518363ffffffff1660e01b81526004016117fa92919061307d565b60006123418383612324877f5d88ced8d8e079072bf73f49fc87661b519c50d79482941abb852ba2b10909cd6119ac565b73ffffffffffffffffffffffffffffffffffffffff16919061262a565b949350505050565b612373847f024accd0d273ef6123273b21662f5cc055a7d58adf98cc1b060edd029af93f7f6119ac565b73ffffffffffffffffffffffffffffffffffffffff16636437197784846040518363ffffffff1660e01b81526004016123ad92919061307d565b600060405180830381600087803b1580156123c757600080fd5b505af11580156123db573d6000803e3d6000fd5b5050505061240c847f787589c9eda599ea35279a6d93e360e8fdc5402255545ca394f5033f5e58ed4260001c6119ac565b73ffffffffffffffffffffffffffffffffffffffff16636437197784836040518363ffffffff1660e01b815260040161244692919061307d565b600060405180830381600087803b15801561246057600080fd5b505af1158015612474573d6000803e3d6000fd5b5050505050505050565b606081516000036124a25760408051600080825260208201909252905b5092915050565b6002826000815181106124b7576124b7612c6a565b60200260200101516000015160038111156124d4576124d46130fd565b1461250b576040517feec45f3600000000000000000000000000000000000000000000000000000000815260040160405180910390fd5b60008260008151811061252057612520612c6a565b60200260200101516020015173ffffffffffffffffffffffffffffffffffffffff1663b361be468460008151811061255a5761255a612c6a565b6020026020010151604001516040518263ffffffff1660e01b81526004016125829190612c21565b600060405180830381865afa15801561259f573d6000803e3d6000fd5b505050506040513d6000823e601f3d9081017fffffffffffffffffffffffffffffffffffffffffffffffffffffffffffffffe01682016040526125e59190810190612f71565b905060015b835181101561249b5761261684828151811061260857612608612c6a565b60200260200101518361264d565b91508061262281612cc8565b9150506125ea565b60006123418261263a8686612778565b8151602092830120815191909201201490565b60606000836020015173ffffffffffffffffffffffffffffffffffffffff16634323c4ef846040518263ffffffff1660e01b815260040161268e919061312c565b600060405180830381865afa1580156126ab573d6000803e3d6000fd5b505050506040513d6000823e601f3d9081017fffffffffffffffffffffffffffffffffffffffffffffffffffffffffffffffe01682016040526126f19190810190613170565b90506000805b825181101561276d576127238684838151811061271657612716612c6a565b6020026020010151612864565b1561273a578161273281612cc8565b92505061275b565b600085828151811061274e5761274e612c6a565b6020026020010181815250505b8061276581612cc8565b9150506126f7565b50610f7e848261294b565b6040517fdd98e3c90000000000000000000000000000000000000000000000000000000081526004810182905260609060009073ffffffffffffffffffffffffffffffffffffffff85169063dd98e3c990602401600060405180830381865afa1580156127e9573d6000803e3d6000fd5b505050506040513d6000823e601f3d9081017fffffffffffffffffffffffffffffffffffffffffffffffffffffffffffffffe016820160405261282f9190810190613214565b90508051600003612850575050604080516020810190915260008152610a0a565b80806020019051810190610a069190613214565b6000808351600381111561287a5761287a6130fd565b03612889575080511515610a0a565b60028351600381111561289e5761289e6130fd565b036128bf578180519060200120836040015180519060200120149050610a0a565b6001835160038111156128d4576128d46130fd565b036128e25750805115610a0a565b6003835160038111156128f7576128f76130fd565b0361291957818051906020012083604001518051906020012014159050610a0a565b6040517feec45f3600000000000000000000000000000000000000000000000000000000815260040160405180910390fd5b60608160000361296a5750604080516000815260208101909152610a0a565b60008267ffffffffffffffff81111561298557612985612a6f565b6040519080825280602002602001820160405280156129ae578160200160208202803683370190505b5090506000805b8551811015612a36578581815181106129d0576129d0612c6a565b6020026020010151600014612a24578581815181106129f1576129f1612c6a565b6020026020010151838380612a0590612cc8565b945081518110612a1757612a17612c6a565b6020026020010181815250505b80612a2e81612cc8565b9150506129b5565b5090949350505050565b63ffffffff8116811461098157600080fd5b600060208284031215612a6457600080fd5b8135610a0481612a40565b7f4e487b7100000000000000000000000000000000000000000000000000000000600052604160045260246000fd5b604051601f82017fffffffffffffffffffffffffffffffffffffffffffffffffffffffffffffffe016810167ffffffffffffffff81118282101715612ae557612ae5612a6f565b604052919050565b600067ffffffffffffffff821115612b0757612b07612a6f565b50601f017fffffffffffffffffffffffffffffffffffffffffffffffffffffffffffffffe01660200190565b600060208284031215612b4557600080fd5b813567ffffffffffffffff811115612b5c57600080fd5b8201601f81018413612b6d57600080fd5b8035612b80612b7b82612aed565b612a9e565b818152856020838501011115612b9557600080fd5b81602084016020830137600091810160200191909152949350505050565b60005b83811015612bce578181015183820152602001612bb6565b50506000910152565b60008151808452612bef816020860160208601612bb3565b601f017fffffffffffffffffffffffffffffffffffffffffffffffffffffffffffffffe0169290920160200192915050565b60208152600061190b6020830184612bd7565b600060208284031215612c4657600080fd5b813573ffffffffffffffffffffffffffffffffffffffff81168114610a0457600080fd5b7f4e487b7100000000000000000000000000000000000000000000000000000000600052603260045260246000fd5b7f4e487b7100000000000000000000000000000000000000000000000000000000600052601160045260246000fd5b60007fffffffffffffffffffffffffffffffffffffffffffffffffffffffffffffffff8203612cf957612cf9612c99565b5060010190565b600082601f830112612d1157600080fd5b8151612d1f612b7b82612aed565b818152846020838601011115612d3457600080fd5b612341826020830160208701612bb3565b60008060008060008060c08789031215612d5e57600080fd5b8651612d6981612a40565b6020880151909650612d7a81612a40565b6040880151909550612d8b81612a40565b60608801516080890151919550935067ffffffffffffffff80821115612db057600080fd5b612dbc8a838b01612d00565b935060a0890151915080821115612dd257600080fd5b50612ddf89828a01612d00565b9150509295509295509295565b8051600381900b811461041c57600080fd5b600067ffffffffffffffff821115612e1857612e18612a6f565b5060051b60200190565b600080600080600080600060e0888a031215612e3d57600080fd5b612e4688612dec565b96506020612e55818a01612dec565b9650612e6360408a01612dec565b95506060890151612e7381612a40565b60808a015190955067ffffffffffffffff80821115612e9157600080fd5b612e9d8c838d01612d00565b955060a08b0151915080821115612eb357600080fd5b612ebf8c838d01612d00565b945060c08b0151915080821115612ed557600080fd5b508901601f81018b13612ee757600080fd5b8051612ef5612b7b82612dfe565b81815260059190911b8201830190838101908d831115612f1457600080fd5b928401925b82841015612f3b578351612f2c81612a40565b82529284019290840190612f19565b809550505050505092959891949750929550565b600060208284031215612f6157600080fd5b81518015158114610a0457600080fd5b60006020808385031215612f8457600080fd5b825167ffffffffffffffff811115612f9b57600080fd5b8301601f81018513612fac57600080fd5b8051612fba612b7b82612dfe565b81815260059190911b82018301908381019087831115612fd957600080fd5b928401925b82841015612ff757835182529284019290840190612fde565b979650505050505050565b60006020828403121561301457600080fd5b5051919050565b60608101610a0a8284805160030b8252602081015160030b6020830152604081015160030b60408301525050565b8281526080810161190b6020830184805160030b8252602081015160030b6020830152604081015160030b60408301525050565b8281526040602082015260006123416040830184612bd7565b6000604082018483526020604081850152818551808452606086019150828701935060005b818110156130dd57845163ffffffff16835293830193918301916001016130bb565b5090979650505050505050565b80820180821115610a0a57610a0a612c99565b7f4e487b7100000000000000000000000000000000000000000000000000000000600052602160045260246000fd5b6020808252825182820181905260009190848201906040850190845b8181101561316457835183529284019291840191600101613148565b50909695505050505050565b6000602080838503121561318357600080fd5b825167ffffffffffffffff8082111561319b57600080fd5b818501915085601f8301126131af57600080fd5b81516131bd612b7b82612dfe565b81815260059190911b830184019084810190888311156131dc57600080fd5b8585015b838110156113eb578051858111156131f85760008081fd5b6132068b89838a0101612d00565b8452509186019186016131e0565b60006020828403121561322657600080fd5b815167ffffffffffffffff81111561323d57600080fd5b610a0684828501612d0056fea26469706673582212206e3ccdf5dfbc5170fc2f0f58d19da818581945c8b74c3b07975dd94d29bda1b064736f6c63430008110033","linkReferences":{}},"methodIdentifiers":{"addGate(bytes)":"8f59323c","cancelOwnershipHandover()":"54d1f13d","completeOwnershipHandover(address)":"f04e283e","create(bytes)":"cf5ba53f","deprecate()":"0fcc0c28","execute(bytes)":"09c5eabe","owner()":"8da5cb5b","ownershipHandoverExpiresAt(address)":"fee81cf4","remove(uint32)":"00d84fd8","renounceOwnership()":"715018a6","requestOwnershipHandover()":"25692962","transferOwnership(address)":"f2fde38b"},"id":307}