{"abi":[{"type":"constructor","inputs":[{"name":"_world","type":"address","internalType":"contract IWorld"},{"name":"_components","type":"address","internalType":"address"}],"stateMutability":"nonpayable"},{"type":"function","name":"addEffect","inputs":[{"name":"arguments","type":"bytes","internalType":"bytes"}],"outputs":[{"name":"","type":"uint256","internalType":"uint256"}],"stateMutability":"nonpayable"},{"type":"function","name":"addRequirement","inputs":[{"name":"arguments","type":"bytes","internalType":"bytes"}],"outputs":[{"name":"","type":"uint256","internalType":"uint256"}],"stateMutability":"nonpayable"},{"type":"function","name":"cancelOwnershipHandover","inputs":[],"outputs":[],"stateMutability":"payable"},{"type":"function","name":"completeOwnershipHandover","inputs":[{"name":"pendingOwner","type":"address","internalType":"address"}],"outputs":[],"stateMutability":"payable"},{"type":"function","name":"create","inputs":[{"name":"arguments","type":"bytes","internalType":"bytes"}],"outputs":[{"name":"","type":"uint256","internalType":"uint256"}],"stateMutability":"nonpayable"},{"type":"function","name":"deprecate","inputs":[],"outputs":[],"stateMutability":"nonpayable"},{"type":"function","name":"execute","inputs":[{"name":"arguments","type":"bytes","internalType":"bytes"}],"outputs":[{"name":"","type":"bytes","internalType":"bytes"}],"stateMutability":"nonpayable"},{"type":"function","name":"owner","inputs":[],"outputs":[{"name":"result","type":"address","internalType":"address"}],"stateMutability":"view"},{"type":"function","name":"ownershipHandoverExpiresAt","inputs":[{"name":"pendingOwner","type":"address","internalType":"address"}],"outputs":[{"name":"result","type":"uint256","internalType":"uint256"}],"stateMutability":"view"},{"type":"function","name":"remove","inputs":[{"name":"index","type":"uint32","internalType":"uint32"}],"outputs":[],"stateMutability":"nonpayable"},{"type":"function","name":"renounceOwnership","inputs":[],"outputs":[],"stateMutability":"payable"},{"type":"function","name":"requestOwnershipHandover","inputs":[],"outputs":[],"stateMutability":"payable"},{"type":"function","name":"transferOwnership","inputs":[{"name":"newOwner","type":"address","internalType":"address"}],"outputs":[],"stateMutability":"payable"},{"type":"event","name":"OwnershipHandoverCanceled","inputs":[{"name":"pendingOwner","type":"address","indexed":true,"internalType":"address"}],"anonymous":false},{"type":"event","name":"OwnershipHandoverRequested","inputs":[{"name":"pendingOwner","type":"address","indexed":true,"internalType":"address"}],"anonymous":false},{"type":"event","name":"OwnershipTransferred","inputs":[{"name":"oldOwner","type":"address","indexed":true,"internalType":"address"},{"name":"newOwner","type":"address","indexed":true,"internalType":"address"}],"anonymous":false},{"type":"event","name":"SystemDeprecated","inputs":[],"anonymous":false},{"type":"error","name":"AlreadyInitialized","inputs":[]},{"type":"error","name":"NewOwnerIsZeroAddress","inputs":[]},{"type":"error","name":"NoHandoverRequest","inputs":[]},{"type":"error","name":"Unauthorized","inputs":[]}],"bytecode":{"object":"0x60c06040523480156200001157600080fd5b50604051620031c3380380620031c383398101604081905262000034916200012f565b81816200004133620000dc565b6001600160a01b03811615620000585780620000bd565b816001600160a01b031663ba62fbe46040518163ffffffff1660e01b8152600401602060405180830381865afa15801562000097573d6000803e3d6000fd5b505050506040513d601f19601f82011682018060405250810190620000bd91906200016e565b6001600160a01b039081166080529190911660a0525062000195915050565b6001600160a01b0316638b78c6d8198190558060007f8be0079c531659141344cd1fd0a4f28419497f9722a3daafe3b4186f6b6457e08180a35b50565b6001600160a01b03811681146200011657600080fd5b600080604083850312156200014357600080fd5b8251620001508162000119565b6020840151909250620001638162000119565b809150509250929050565b6000602082840312156200018157600080fd5b81516200018e8162000119565b9392505050565b60805160a051612fa66200021d600039600081816106870152610b46015260008181610285015281816103200152818161034c01528181610384015281816103dc01528181610414015281816106a8015281816106e20152818161071301528181610938015281816109cc01528181610a3c01528181610b670152610bd20152612fa66000f3fe6080604052600436106100d15760003560e01c80637e5341031161007f578063ee7f1f9f11610059578063ee7f1f9f146101fd578063f04e283e1461021d578063f2fde38b14610230578063fee81cf41461024357600080fd5b80637e5341031461015b5780638da5cb5b14610189578063cf5ba53f146101dd57600080fd5b806325692962116100b0578063256929621461014357806354d1f13d1461014b578063715018a61461015357600080fd5b8062d84fd8146100d657806309c5eabe146100f85780630fcc0c281461012e575b600080fd5b3480156100e257600080fd5b506100f66100f13660046128bc565b610276565b005b34801561010457600080fd5b5061011861011336600461299d565b61046b565b6040516101259190612a8b565b60405180910390f35b34801561013a57600080fd5b506100f66104dc565b6100f661050f565b6100f661055f565b6100f661059b565b34801561016757600080fd5b5061017b61017636600461299d565b6105af565b604051908152602001610125565b34801561019557600080fd5b507fffffffffffffffffffffffffffffffffffffffffffffffffffffffff748739275460405173ffffffffffffffffffffffffffffffffffffffff9091168152602001610125565b3480156101e957600080fd5b5061017b6101f836600461299d565b610744565b34801561020957600080fd5b5061017b61021836600461299d565b610a73565b6100f661022b366004612a9e565b610c02565b6100f661023e366004612a9e565b610c42565b34801561024f57600080fd5b5061017b61025e366004612a9e565b63389a75e1600c908152600091909152602090205490565b61027e610c69565b60006102aa7f000000000000000000000000000000000000000000000000000000000000000083610c9f565b90508060000361031b576040517f08c379a000000000000000000000000000000000000000000000000000000000815260206004820152601460248201527f536b696c6c20646f6573206e6f7420657869737400000000000000000000000060448201526064015b60405180910390fd5b6103457f000000000000000000000000000000000000000000000000000000000000000082610d04565b60006103717f000000000000000000000000000000000000000000000000000000000000000084610e84565b905060005b81518110156103d4576103c27f00000000000000000000000000000000000000000000000000000000000000008383815181106103b5576103b5612ad4565b6020026020010151610f5c565b806103cc81612b03565b915050610376565b5060006104017f000000000000000000000000000000000000000000000000000000000000000085611046565b905060005b8151811015610464576104527f000000000000000000000000000000000000000000000000000000000000000083838151811061044557610445612ad4565b6020026020010151611096565b8061045c81612b03565b915050610406565b5050505050565b6060610475610c69565b6040517f08c379a000000000000000000000000000000000000000000000000000000000815260206004820152600f60248201527f6e6f7420696d706c656d656e74656400000000000000000000000000000000006044820152606401610312565b919050565b6104e4610c69565b6040517f56f33501ffd77f9fe44d81e7db7e66a66bdf52ab3e11267cdc6462763604c4c790600090a1565b60006202a30067ffffffffffffffff164201905063389a75e1600c5233600052806020600c2055337fdbf36a107da19e49527a7176a1babf963b4b0ff8cde35ee35d6cd8f1f9ac7e1d600080a250565b63389a75e1600c523360005260006020600c2055337ffa7b8eab7da67f412cc9575ed43464468f9bfbae89d1675917346ca6d8fe3c92600080a2565b6105a3610c69565b6105ad6000611154565b565b60006105b9610c69565b6000806000806000868060200190518101906105d59190612bbd565b60408051602080820190925260009052845190850120949950929750909550935091507fc5d2460186f7233c927e7db2dcc703c0e500b653ca82273b7bfad8045d85a47003610680576040517f08c379a000000000000000000000000000000000000000000000000000000000815260206004820152601a60248201527f536b696c6c20747970652063616e6e6f7420626520656d7074790000000000006044820152606401610312565b60006106cf7f00000000000000000000000000000000000000000000000000000000000000007f00000000000000000000000000000000000000000000000000000000000000008888886111d0565b905063ffffffff831615610708576107087f0000000000000000000000000000000000000000000000000000000000000000828561130e565b8115610739576107397f000000000000000000000000000000000000000000000000000000000000000082846113cc565b979650505050505050565b600061074e610c69565b6000806000806000806000806000808b8060200190518101906107719190612c53565b99509950995099509950995099509950995099508963ffffffff166000036107f5576040517f08c379a000000000000000000000000000000000000000000000000000000000815260206004820152601e60248201527f536b696c6c4372656174653a20696e6465782063616e6e6f74206265203000006044820152606401610312565b604080516020808201909252600090528851908901207fc5d2460186f7233c927e7db2dcc703c0e500b653ca82273b7bfad8045d85a47003610893576040517f08c379a000000000000000000000000000000000000000000000000000000000815260206004820152601760248201527f536b696c6c4372656174653a207479706520656d7074790000000000000000006044820152606401610312565b604080516020808201909252600090528651908701207fc5d2460186f7233c927e7db2dcc703c0e500b653ca82273b7bfad8045d85a47003610931576040517f08c379a000000000000000000000000000000000000000000000000000000000815260206004820152601760248201527f536b696c6c4372656174653a206e616d6520656d7074790000000000000000006044820152606401610312565b600061095d7f00000000000000000000000000000000000000000000000000000000000000008c610c9f565b905080156109c7576040517f08c379a000000000000000000000000000000000000000000000000000000000815260206004820152601b60248201527f536b696c6c4372656174653a20616c72656164792065786973747300000000006044820152606401610312565b6109f87f00000000000000000000000000000000000000000000000000000000000000008c8c8c8b8b8b8b8a611452565b604080516020808201909252600090528951908a01209091507fc5d2460186f7233c927e7db2dcc703c0e500b653ca82273b7bfad8045d85a47014610a6357610a637f0000000000000000000000000000000000000000000000000000000000000000828a86611625565b9c9b505050505050505050505050565b6000610a7d610c69565b60008060008085806020019051810190610a979190612d79565b60408051602080820190925260009052835190840120939750919550935091507fc5d2460186f7233c927e7db2dcc703c0e500b653ca82273b7bfad8045d85a47003610b3f576040517f08c379a000000000000000000000000000000000000000000000000000000000815260206004820152601a60248201527f536b696c6c20747970652063616e6e6f7420626520656d7074790000000000006044820152606401610312565b6000610b8e7f00000000000000000000000000000000000000000000000000000000000000007f00000000000000000000000000000000000000000000000000000000000000008787866116ea565b604080516020808201909252600090528451908501209091507fc5d2460186f7233c927e7db2dcc703c0e500b653ca82273b7bfad8045d85a47014610bf857610bf87f00000000000000000000000000000000000000000000000000000000000000008285611915565b9695505050505050565b610c0a610c69565b63389a75e1600c52806000526020600c208054421115610c3257636f5e88186000526004601cfd5b60009055610c3f81611154565b50565b610c4a610c69565b8060601b610c6057637448fbae6000526004601cfd5b610c3f81611154565b7fffffffffffffffffffffffffffffffffffffffffffffffffffffffff748739275433146105ad576382b429006000526004601cfd5b600080610cab83611979565b9050610ced84826040518060400160405280600581526020017f534b494c4c000000000000000000000000000000000000000000000000000000815250611a11565b610cf8576000610cfa565b805b9150505b92915050565b610d2e827ff70dee74a99a7bf98a6058c2e93635b82826d8267ec7a3a05d2f12dcbf92534d611a67565b73ffffffffffffffffffffffffffffffffffffffff16634cc82215826040518263ffffffff1660e01b8152600401610d6891815260200190565b600060405180830381600087803b158015610d8257600080fd5b505af1158015610d96573d6000803e3d6000fd5b50505050610da48282611bab565b610dae8282611bd5565b610db88282611bff565b610dc28282611c29565b610dcc8282611c53565b610dd68282611c7d565b610de08282611d51565b610dea8282611d7b565b610e14827ffdbdfda9d0933af67d5682f368771753d17c0fef55c57d62a98476dd75090580611a67565b73ffffffffffffffffffffffffffffffffffffffff16634cc82215826040518263ffffffff1660e01b8152600401610e4e91815260200190565b600060405180830381600087803b158015610e6857600080fd5b505af1158015610e7c573d6000803e3d6000fd5b505050505050565b6060610eb0837fde0f9b459fab67ff56929343dacb07b0c0a1f8509d3184dc6d736f68b80381de611a67565b73ffffffffffffffffffffffffffffffffffffffff1663fbdfa1ea610ed484611e4f565b6040518263ffffffff1660e01b8152600401610ef291815260200190565b600060405180830381865afa158015610f0f573d6000803e3d6000fd5b505050506040513d6000823e601f3d9081017fffffffffffffffffffffffffffffffffffffffffffffffffffffffffffffffe0168201604052610f559190810190612df8565b9392505050565b610f668282611bab565b610f90827ff70dee74a99a7bf98a6058c2e93635b82826d8267ec7a3a05d2f12dcbf92534d611a67565b73ffffffffffffffffffffffffffffffffffffffff16634cc82215826040518263ffffffff1660e01b8152600401610fca91815260200190565b600060405180830381600087803b158015610fe457600080fd5b505af1158015610ff8573d6000803e3d6000fd5b505050506110068282611bd5565b6110108282611d7b565b61101a8282611eaf565b6110248282611f83565b61102e8282612057565b611038828261212b565b61104282826121ff565b5050565b6060611072837fde0f9b459fab67ff56929343dacb07b0c0a1f8509d3184dc6d736f68b80381de611a67565b73ffffffffffffffffffffffffffffffffffffffff1663fbdfa1ea610ed484612229565b6110c0827ff70dee74a99a7bf98a6058c2e93635b82826d8267ec7a3a05d2f12dcbf92534d611a67565b73ffffffffffffffffffffffffffffffffffffffff16634cc82215826040518263ffffffff1660e01b81526004016110fa91815260200190565b600060405180830381600087803b15801561111457600080fd5b505af1158015611128573d6000803e3d6000fd5b505050506111368282611bd5565b6111408282611d7b565b61114a8282612057565b6110388282612289565b7fffffffffffffffffffffffffffffffffffffffffffffffffffffffff74873927805473ffffffffffffffffffffffffffffffffffffffff9092169182907f8be0079c531659141344cd1fd0a4f28419497f9722a3daafe3b4186f6b6457e0600080a355565b8051602091820120825192909101919091201490565b60008573ffffffffffffffffffffffffffffffffffffffff1663614bfa6e6040518163ffffffff1660e01b81526004016020604051808303816000875af115801561121f573d6000803e3d6000fd5b505050506040513d601f19601f820116820180604052508101906112439190612e9e565b9050611258858261125387612229565b61235d565b61126485828585612387565b61128e857ff70dee74a99a7bf98a6058c2e93635b82826d8267ec7a3a05d2f12dcbf92534d611a67565b73ffffffffffffffffffffffffffffffffffffffff166360fe47b1826040518263ffffffff1660e01b81526004016112c891815260200190565b600060405180830381600087803b1580156112e257600080fd5b505af11580156112f6573d6000803e3d6000fd5b50505050611305858286612484565b95945050505050565b611338837f62adc4221185187a288916c2630b5e1f37e9437c5b68d55bc59b9debc23f19d0611a67565b6040517fd923c3c40000000000000000000000000000000000000000000000000000000081526004810184905263ffffffff8316602482015273ffffffffffffffffffffffffffffffffffffffff919091169063d923c3c4906044015b600060405180830381600087803b1580156113af57600080fd5b505af11580156113c3573d6000803e3d6000fd5b50505050505050565b6113f6837fb25ea67b55901db62e4b14311a8c1ab178fec3948b4b493a711970a50aa2a2e1611a67565b6040517f1ab06ee5000000000000000000000000000000000000000000000000000000008152600481018490526024810183905273ffffffffffffffffffffffffffffffffffffffff9190911690631ab06ee590604401611395565b600061145d89611979565b905061149f8a826040518060400160405280600581526020017f534b494c4c0000000000000000000000000000000000000000000000000000008152506124ae565b6114c98a7ff70dee74a99a7bf98a6058c2e93635b82826d8267ec7a3a05d2f12dcbf92534d611a67565b73ffffffffffffffffffffffffffffffffffffffff166360fe47b1826040518263ffffffff1660e01b815260040161150391815260200190565b600060405180830381600087803b15801561151d57600080fd5b505af1158015611531573d6000803e3d6000fd5b505050506115408a828b612484565b61154b8a82896124d8565b6115568a8288612502565b6115618a828661252c565b61156c8a8285612556565b6115778a8284612580565b6115a18a7ffdbdfda9d0933af67d5682f368771753d17c0fef55c57d62a98476dd75090580611a67565b73ffffffffffffffffffffffffffffffffffffffff16636437197782876040518363ffffffff1660e01b81526004016115db929190612eb7565b600060405180830381600087803b1580156115f557600080fd5b505af1158015611609573d6000803e3d6000fd5b505050506116188a828a6125aa565b9998505050505050505050565b611630848484611915565b61165a847ff8911dfd3f908e7a27ff20b80381dc7334f6abc557cdd58de4a9bfb47ebde734611a67565b6040517f1ab06ee5000000000000000000000000000000000000000000000000000000008152600481018590526024810183905273ffffffffffffffffffffffffffffffffffffffff9190911690631ab06ee5906044015b600060405180830381600087803b1580156116cc57600080fd5b505af11580156116e0573d6000803e3d6000fd5b5050505050505050565b60008573ffffffffffffffffffffffffffffffffffffffff1663614bfa6e6040518163ffffffff1660e01b81526004016020604051808303816000875af1158015611739573d6000803e3d6000fd5b505050506040513d601f19601f8201168201806040525081019061175d9190612e9e565b905061176d858261125387611e4f565b6117ad85826040518060400160405280600681526020017f45464645435400000000000000000000000000000000000000000000000000008152506124ae565b6117d7857ff70dee74a99a7bf98a6058c2e93635b82826d8267ec7a3a05d2f12dcbf92534d611a67565b73ffffffffffffffffffffffffffffffffffffffff166360fe47b1826040518263ffffffff1660e01b815260040161181191815260200190565b600060405180830381600087803b15801561182b57600080fd5b505af115801561183f573d6000803e3d6000fd5b5050505061184e858286612484565b6118598582856124d8565b611883857f50d80ec5b1169fa90f6a93a06362786b45e53ec8c05572cba38875a52f86a3bc611a67565b6040517f293e852e000000000000000000000000000000000000000000000000000000008152600481018390526024810184905273ffffffffffffffffffffffffffffffffffffffff919091169063293e852e90604401600060405180830381600087803b1580156118f457600080fd5b505af1158015611908573d6000803e3d6000fd5b5050505095945050505050565b61193f837fa7b4bd2d760054205ea7cf761a119827e2316646eabcbc6653656187e7d030cb611a67565b73ffffffffffffffffffffffffffffffffffffffff16636437197783836040518363ffffffff1660e01b8152600401611395929190612eb7565b6040517f72656769737472792e736b696c6c00000000000000000000000000000000000060208201527fffffffff0000000000000000000000000000000000000000000000000000000060e083901b16602e8201526000906032015b604080517fffffffffffffffffffffffffffffffffffffffffffffffffffffffffffffffe0818403018152919052805160209091012092915050565b6000611a5f8383611a42877f5d88ced8d8e079072bf73f49fc87661b519c50d79482941abb852ba2b10909cd611a67565b73ffffffffffffffffffffffffffffffffffffffff16919061263b565b949350505050565b6040517ffbdfa1ea00000000000000000000000000000000000000000000000000000000815260048101829052600090819073ffffffffffffffffffffffffffffffffffffffff85169063fbdfa1ea90602401600060405180830381865afa158015611ad7573d6000803e3d6000fd5b505050506040513d6000823e601f3d9081017fffffffffffffffffffffffffffffffffffffffffffffffffffffffffffffffe0168201604052611b1d9190810190612df8565b90508051600003611b8a576040517f08c379a000000000000000000000000000000000000000000000000000000000815260206004820152601160248201527f6964206e6f7420726567697374657265640000000000000000000000000000006044820152606401610312565b610cfa81600081518110611ba057611ba0612ad4565b602002602001015190565b610e14827f5d88ced8d8e079072bf73f49fc87661b519c50d79482941abb852ba2b10909cd611a67565b610e14827f1535e90af6f338896509b09caa109db4f5869e9c19245517da2f1d80a47832a2611a67565b610e14827f90dcbc5e087c3256549b6c7bca0f1c5c346b54cf5623c913b88198ba64d2cdbe611a67565b610e14827f0e980fab8730829e1930c8cdc024ae35650d9eec12d20425b19fc4ade883178c611a67565b610e14827fa16b9e3c7b1cf5ed0d78453246beb22936495b03bbb53987060cf018672ac5bd611a67565b611ca7827f4683ab681c8fb08ca17959d67c914890fbdf5a6fce1f72e885b7a2ebe6856afd611a67565b73ffffffffffffffffffffffffffffffffffffffff1663cccf7a8e826040518263ffffffff1660e01b8152600401611ce191815260200190565b602060405180830381865afa158015611cfe573d6000803e3d6000fd5b505050506040513d601f19601f82011682018060405250810190611d229190612ed0565b1561104257610e14827f4683ab681c8fb08ca17959d67c914890fbdf5a6fce1f72e885b7a2ebe6856afd611a67565b610e14827f2acf3c3c6b18ed6530ed0fd161fd0b65f4febe79d1182824d3263e852d29ca03611a67565b611da5827f024accd0d273ef6123273b21662f5cc055a7d58adf98cc1b060edd029af93f7f611a67565b73ffffffffffffffffffffffffffffffffffffffff1663cccf7a8e826040518263ffffffff1660e01b8152600401611ddf91815260200190565b602060405180830381865afa158015611dfc573d6000803e3d6000fd5b505050506040513d601f19601f82011682018060405250810190611e209190612ed0565b1561104257610e14827f024accd0d273ef6123273b21662f5cc055a7d58adf98cc1b060edd029af93f7f611a67565b6040517f72656769737472792e736b696c6c2e656666656374000000000000000000000060208201527fffffffff0000000000000000000000000000000000000000000000000000000060e083901b1660358201526000906039016119d5565b611ed9827fa7b4bd2d760054205ea7cf761a119827e2316646eabcbc6653656187e7d030cb611a67565b73ffffffffffffffffffffffffffffffffffffffff1663cccf7a8e826040518263ffffffff1660e01b8152600401611f1391815260200190565b602060405180830381865afa158015611f30573d6000803e3d6000fd5b505050506040513d601f19601f82011682018060405250810190611f549190612ed0565b1561104257610e14827fa7b4bd2d760054205ea7cf761a119827e2316646eabcbc6653656187e7d030cb611a67565b611fad827f787589c9eda599ea35279a6d93e360e8fdc5402255545ca394f5033f5e58ed42611a67565b73ffffffffffffffffffffffffffffffffffffffff1663cccf7a8e826040518263ffffffff1660e01b8152600401611fe791815260200190565b602060405180830381865afa158015612004573d6000803e3d6000fd5b505050506040513d601f19601f820116820180604052508101906120289190612ed0565b1561104257610e14827f787589c9eda599ea35279a6d93e360e8fdc5402255545ca394f5033f5e58ed42611a67565b612081827f62adc4221185187a288916c2630b5e1f37e9437c5b68d55bc59b9debc23f19d0611a67565b73ffffffffffffffffffffffffffffffffffffffff1663cccf7a8e826040518263ffffffff1660e01b81526004016120bb91815260200190565b602060405180830381865afa1580156120d8573d6000803e3d6000fd5b505050506040513d601f19601f820116820180604052508101906120fc9190612ed0565b1561104257610e14827f62adc4221185187a288916c2630b5e1f37e9437c5b68d55bc59b9debc23f19d0611a67565b612155827f50d80ec5b1169fa90f6a93a06362786b45e53ec8c05572cba38875a52f86a3bc611a67565b73ffffffffffffffffffffffffffffffffffffffff1663cccf7a8e826040518263ffffffff1660e01b815260040161218f91815260200190565b602060405180830381865afa1580156121ac573d6000803e3d6000fd5b505050506040513d601f19601f820116820180604052508101906121d09190612ed0565b1561104257610e14827f50d80ec5b1169fa90f6a93a06362786b45e53ec8c05572cba38875a52f86a3bc611a67565b610e14827fde0f9b459fab67ff56929343dacb07b0c0a1f8509d3184dc6d736f68b80381de611a67565b6040517f72656769737472792e736b696c6c2e726571756972656d656e7400000000000060208201527fffffffff0000000000000000000000000000000000000000000000000000000060e083901b16603a820152600090603e016119d5565b6122b3827fb25ea67b55901db62e4b14311a8c1ab178fec3948b4b493a711970a50aa2a2e1611a67565b73ffffffffffffffffffffffffffffffffffffffff1663cccf7a8e826040518263ffffffff1660e01b81526004016122ed91815260200190565b602060405180830381865afa15801561230a573d6000803e3d6000fd5b505050506040513d601f19601f8201168201806040525081019061232e9190612ed0565b1561104257610e14827fb25ea67b55901db62e4b14311a8c1ab178fec3948b4b493a711970a50aa2a2e1611a67565b6113f6837fde0f9b459fab67ff56929343dacb07b0c0a1f8509d3184dc6d736f68b80381de611a67565b6123b1847f024accd0d273ef6123273b21662f5cc055a7d58adf98cc1b060edd029af93f7f611a67565b73ffffffffffffffffffffffffffffffffffffffff16636437197784846040518363ffffffff1660e01b81526004016123eb929190612eb7565b600060405180830381600087803b15801561240557600080fd5b505af1158015612419573d6000803e3d6000fd5b5050505061244a847f787589c9eda599ea35279a6d93e360e8fdc5402255545ca394f5033f5e58ed4260001c611a67565b73ffffffffffffffffffffffffffffffffffffffff16636437197784836040518363ffffffff1660e01b81526004016116b2929190612eb7565b611338837f1535e90af6f338896509b09caa109db4f5869e9c19245517da2f1d80a47832a2611a67565b61193f837f5d88ced8d8e079072bf73f49fc87661b519c50d79482941abb852ba2b10909cd611a67565b61193f837f024accd0d273ef6123273b21662f5cc055a7d58adf98cc1b060edd029af93f7f611a67565b61193f837f2acf3c3c6b18ed6530ed0fd161fd0b65f4febe79d1182824d3263e852d29ca03611a67565b6113f6837f90dcbc5e087c3256549b6c7bca0f1c5c346b54cf5623c913b88198ba64d2cdbe611a67565b6113f6837fa16b9e3c7b1cf5ed0d78453246beb22936495b03bbb53987060cf018672ac5bd611a67565b61193f837f4683ab681c8fb08ca17959d67c914890fbdf5a6fce1f72e885b7a2ebe6856afd611a67565b6125d4837f0e980fab8730829e1930c8cdc024ae35650d9eec12d20425b19fc4ade883178c611a67565b73ffffffffffffffffffffffffffffffffffffffff16631ab06ee5836125fa868561265e565b6040517fffffffff0000000000000000000000000000000000000000000000000000000060e085901b16815260048101929092526024820152604401611395565b6000611a5f8261264b86866127be565b8151602092830120815191909201201490565b60006126a86040518060400160405280600481526020017f4b414d4900000000000000000000000000000000000000000000000000000000815250836111ba90919063ffffffff16565b156126d457507fd34ba4c29e01e1dffd3809686ce3d39943a2ad2167f8ecd4ecbf3176d51c27d6610cfe565b60408051808201909152600781527f4143434f554e54000000000000000000000000000000000000000000000000006020918201528251908301207f6560a52eebf0c2ca142b3c6d384ba1ef9361063168c2bd8b60dd7f476f2d83280361275c57507f37c6543901df832fa6900c3db9b6a34ac3cf572b453474ea23c65fb22dee5442610cfe565b6040517f08c379a000000000000000000000000000000000000000000000000000000000815260206004820152601460248201527f4c6962466f723a20696e76616c696420747970650000000000000000000000006044820152606401610312565b6040517fdd98e3c90000000000000000000000000000000000000000000000000000000081526004810182905260609060009073ffffffffffffffffffffffffffffffffffffffff85169063dd98e3c990602401600060405180830381865afa15801561282f573d6000803e3d6000fd5b505050506040513d6000823e601f3d9081017fffffffffffffffffffffffffffffffffffffffffffffffffffffffffffffffe01682016040526128759190810190612ef2565b90508051600003612896575050604080516020810190915260008152610cfe565b80806020019051810190610cfa9190612f3b565b63ffffffff81168114610c3f57600080fd5b6000602082840312156128ce57600080fd5b8135610cf8816128aa565b7f4e487b7100000000000000000000000000000000000000000000000000000000600052604160045260246000fd5b604051601f82017fffffffffffffffffffffffffffffffffffffffffffffffffffffffffffffffe016810167ffffffffffffffff8111828210171561294f5761294f6128d9565b604052919050565b600067ffffffffffffffff821115612971576129716128d9565b50601f017fffffffffffffffffffffffffffffffffffffffffffffffffffffffffffffffe01660200190565b6000602082840312156129af57600080fd5b813567ffffffffffffffff8111156129c657600080fd5b8201601f810184136129d757600080fd5b80356129ea6129e582612957565b612908565b8181528560208385010111156129ff57600080fd5b81602084016020830137600091810160200191909152949350505050565b60005b83811015612a38578181015183820152602001612a20565b50506000910152565b60008151808452612a59816020860160208601612a1d565b601f017fffffffffffffffffffffffffffffffffffffffffffffffffffffffffffffffe0169290920160200192915050565b602081526000610f556020830184612a41565b600060208284031215612ab057600080fd5b813573ffffffffffffffffffffffffffffffffffffffff81168114610cf857600080fd5b7f4e487b7100000000000000000000000000000000000000000000000000000000600052603260045260246000fd5b60007fffffffffffffffffffffffffffffffffffffffffffffffffffffffffffffffff8203612b5b577f4e487b7100000000000000000000000000000000000000000000000000000000600052601160045260246000fd5b5060010190565b80516104d7816128aa565b6000612b7b6129e584612957565b9050828152838383011115612b8f57600080fd5b610f55836020830184612a1d565b600082601f830112612bae57600080fd5b610f5583835160208501612b6d565b600080600080600060a08688031215612bd557600080fd5b8551612be0816128aa565b602087015190955067ffffffffffffffff80821115612bfe57600080fd5b612c0a89838a01612b9d565b95506040880151915080821115612c2057600080fd5b50612c2d88828901612b9d565b9350506060860151612c3e816128aa565b80925050608086015190509295509295909350565b6000806000806000806000806000806101408b8d031215612c7357600080fd5b612c7c8b612b62565b995060208b015167ffffffffffffffff80821115612c9957600080fd5b612ca58e838f01612b9d565b9a5060408d0151915080821115612cbb57600080fd5b612cc78e838f01612b9d565b995060608d0151915080821115612cdd57600080fd5b612ce98e838f01612b9d565b985060808d0151915080821115612cff57600080fd5b612d0b8e838f01612b9d565b975060a08d0151915080821115612d2157600080fd5b612d2d8e838f01612b9d565b965060c08d0151955060e08d015194506101008d015193506101208d0151915080821115612d5a57600080fd5b50612d678d828e01612b9d565b9150509295989b9194979a5092959850565b60008060008060808587031215612d8f57600080fd5b8451612d9a816128aa565b602086015190945067ffffffffffffffff80821115612db857600080fd5b612dc488838901612b9d565b94506040870151915080821115612dda57600080fd5b50612de787828801612b9d565b606096909601519497939650505050565b60006020808385031215612e0b57600080fd5b825167ffffffffffffffff80821115612e2357600080fd5b818501915085601f830112612e3757600080fd5b815181811115612e4957612e496128d9565b8060051b9150612e5a848301612908565b8181529183018401918481019088841115612e7457600080fd5b938501935b83851015612e9257845182529385019390850190612e79565b98975050505050505050565b600060208284031215612eb057600080fd5b5051919050565b828152604060208201526000611a5f6040830184612a41565b600060208284031215612ee257600080fd5b81518015158114610cf857600080fd5b600060208284031215612f0457600080fd5b815167ffffffffffffffff811115612f1b57600080fd5b8201601f81018413612f2c57600080fd5b610cfa84825160208401612b6d565b600060208284031215612f4d57600080fd5b815167ffffffffffffffff811115612f6457600080fd5b610cfa84828501612b9d56fea264697066735822122053e2fa0ad36aea52ca913f8694297884e37f7b0582ffdb795b4faf5bfe697baf64736f6c63430008110033","linkReferences":{}},"methodIdentifiers":{"addEffect(bytes)":"ee7f1f9f","addRequirement(bytes)":"7e534103","cancelOwnershipHandover()":"54d1f13d","completeOwnershipHandover(address)":"f04e283e","create(bytes)":"cf5ba53f","deprecate()":"0fcc0c28","execute(bytes)":"09c5eabe","owner()":"8da5cb5b","ownershipHandoverExpiresAt(address)":"fee81cf4","remove(uint32)":"00d84fd8","renounceOwnership()":"715018a6","requestOwnershipHandover()":"25692962","transferOwnership(address)":"f2fde38b"},"id":308}