{"abi":[{"type":"constructor","inputs":[{"name":"_world","type":"address","internalType":"contract IWorld"},{"name":"_components","type":"address","internalType":"address"}],"stateMutability":"nonpayable"},{"type":"function","name":"cancelOwnershipHandover","inputs":[],"outputs":[],"stateMutability":"payable"},{"type":"function","name":"completeOwnershipHandover","inputs":[{"name":"pendingOwner","type":"address","internalType":"address"}],"outputs":[],"stateMutability":"payable"},{"type":"function","name":"create","inputs":[{"name":"arguments","type":"bytes","internalType":"bytes"}],"outputs":[{"name":"","type":"uint256","internalType":"uint256"}],"stateMutability":"nonpayable"},{"type":"function","name":"deprecate","inputs":[],"outputs":[],"stateMutability":"nonpayable"},{"type":"function","name":"execute","inputs":[{"name":"arguments","type":"bytes","internalType":"bytes"}],"outputs":[{"name":"","type":"bytes","internalType":"bytes"}],"stateMutability":"nonpayable"},{"type":"function","name":"owner","inputs":[],"outputs":[{"name":"result","type":"address","internalType":"address"}],"stateMutability":"view"},{"type":"function","name":"ownershipHandoverExpiresAt","inputs":[{"name":"pendingOwner","type":"address","internalType":"address"}],"outputs":[{"name":"result","type":"uint256","internalType":"uint256"}],"stateMutability":"view"},{"type":"function","name":"remove","inputs":[{"name":"index","type":"uint32","internalType":"uint32"},{"name":"traitType","type":"string","internalType":"string"}],"outputs":[],"stateMutability":"nonpayable"},{"type":"function","name":"renounceOwnership","inputs":[],"outputs":[],"stateMutability":"payable"},{"type":"function","name":"requestOwnershipHandover","inputs":[],"outputs":[],"stateMutability":"payable"},{"type":"function","name":"transferOwnership","inputs":[{"name":"newOwner","type":"address","internalType":"address"}],"outputs":[],"stateMutability":"payable"},{"type":"event","name":"OwnershipHandoverCanceled","inputs":[{"name":"pendingOwner","type":"address","indexed":true,"internalType":"address"}],"anonymous":false},{"type":"event","name":"OwnershipHandoverRequested","inputs":[{"name":"pendingOwner","type":"address","indexed":true,"internalType":"address"}],"anonymous":false},{"type":"event","name":"OwnershipTransferred","inputs":[{"name":"oldOwner","type":"address","indexed":true,"internalType":"address"},{"name":"newOwner","type":"address","indexed":true,"internalType":"address"}],"anonymous":false},{"type":"event","name":"SystemDeprecated","inputs":[],"anonymous":false},{"type":"error","name":"AlreadyInitialized","inputs":[]},{"type":"error","name":"NewOwnerIsZeroAddress","inputs":[]},{"type":"error","name":"NoHandoverRequest","inputs":[]},{"type":"error","name":"Unauthorized","inputs":[]}],"bytecode":{"object":"0x60c06040523480156200001157600080fd5b50604051620030383803806200303883398101604081905262000034916200012f565b81816200004133620000dc565b6001600160a01b03811615620000585780620000bd565b816001600160a01b031663ba62fbe46040518163ffffffff1660e01b8152600401602060405180830381865afa15801562000097573d6000803e3d6000fd5b505050506040513d601f19601f82011682018060405250810190620000bd91906200016e565b6001600160a01b039081166080529190911660a0525062000195915050565b6001600160a01b0316638b78c6d8198190558060007f8be0079c531659141344cd1fd0a4f28419497f9722a3daafe3b4186f6b6457e08180a35b50565b6001600160a01b03811681146200011657600080fd5b600080604083850312156200014357600080fd5b8251620001508162000119565b6020840151909250620001638162000119565b809150509250929050565b6000602082840312156200018157600080fd5b81516200018e8162000119565b9392505050565b60805160a051612e3a620001fe6000396000505060008181610454015281816104e701528181610573015281816105ff0152818161068b0152818161079501528181610827015281816108b20152818161093d015281816109c80152610a5c0152612e3a6000f3fe6080604052600436106100bc5760003560e01c80638da5cb5b11610074578063f04e283e1161004e578063f04e283e146101c8578063f2fde38b146101db578063fee81cf4146101ee57600080fd5b80638da5cb5b14610126578063cf5ba53f1461017a578063ed1fa0cb146101a857600080fd5b806325692962116100a5578063256929621461010e57806354d1f13d14610116578063715018a61461011e57600080fd5b806309c5eabe146100c15780630fcc0c28146100f7575b600080fd5b3480156100cd57600080fd5b506100e16100dc366004612969565b610221565b6040516100ee9190612a20565b60405180910390f35b34801561010357600080fd5b5061010c610297565b005b61010c6102ca565b61010c61031a565b61010c610356565b34801561013257600080fd5b507fffffffffffffffffffffffffffffffffffffffffffffffffffffffff748739275460405173ffffffffffffffffffffffffffffffffffffffff90911681526020016100ee565b34801561018657600080fd5b5061019a610195366004612969565b61036a565b6040519081526020016100ee565b3480156101b457600080fd5b5061010c6101c3366004612a45565b610724565b61010c6101d6366004612aa9565b610a86565b61010c6101e9366004612aa9565b610ac6565b3480156101fa57600080fd5b5061019a610209366004612aa9565b63389a75e1600c908152600091909152602090205490565b606061022b610aed565b6040517f08c379a000000000000000000000000000000000000000000000000000000000815260206004820152600f60248201527f6e6f7420696d706c656d656e746564000000000000000000000000000000000060448201526064015b60405180910390fd5b919050565b61029f610aed565b6040517f56f33501ffd77f9fe44d81e7db7e66a66bdf52ab3e11267cdc6462763604c4c790600090a1565b60006202a30067ffffffffffffffff164201905063389a75e1600c5233600052806020600c2055337fdbf36a107da19e49527a7176a1babf963b4b0ff8cde35ee35d6cd8f1f9ac7e1d600080a250565b63389a75e1600c523360005260006020600c2055337ffa7b8eab7da67f412cc9575ed43464468f9bfbae89d1675917346ca6d8fe3c92600080a2565b61035e610aed565b6103686000610b23565b565b6000610374610aed565b6000806000806000806000806000808b8060200190518101906103979190612b41565b995099509950995099509950995099509950995060006040518061010001604052808481526020018b60030b81526020018a60030b81526020018960030b81526020018860030b81526020018760030b8152602001868152602001858152509050600061044a836040518060400160405280600481526020017f424f4459000000000000000000000000000000000000000000000000000000008152508051602091820120825192909101919091201490565b156104815761047a7f00000000000000000000000000000000000000000000000000000000000000008d84610b89565b9050610713565b60408051808201909152600a81527f4241434b47524f554e44000000000000000000000000000000000000000000006020918201528351908401207fea7c1dccbcf84f3dd21cd8ba6bab7d4f471c8662ef3d1cd545dc536a665a33a60361050d5761047a7f00000000000000000000000000000000000000000000000000000000000000008d84610d36565b60408051808201909152600581527f434f4c4f520000000000000000000000000000000000000000000000000000006020918201528351908401207fe108be43dbedebdd6a5e12088e3ff0ee819db892baccf0fc636e26a2da6c252c036105995761047a7f00000000000000000000000000000000000000000000000000000000000000008d84610ecd565b60408051808201909152600481527f46414345000000000000000000000000000000000000000000000000000000006020918201528351908401207f1a335afdeea383136200b14685a4957d1ba82ff1d59d2a978f0a4f59673878cd036106255761047a7f00000000000000000000000000000000000000000000000000000000000000008d84611064565b60408051808201909152600481527f48414e44000000000000000000000000000000000000000000000000000000006020918201528351908401207fcbda82bc4038344219ff2e11f909f9f802aa44e61af5c3fecff8b16db0715651036106b15761047a7f00000000000000000000000000000000000000000000000000000000000000008d846111fb565b6040517f08c379a000000000000000000000000000000000000000000000000000000000815260206004820152601160248201527f696e76616c6964207472616974547970650000000000000000000000000000006044820152606401610289565b9d9c50505050505050505050505050565b61072c610aed565b60408051808201909152600481527f424f4459000000000000000000000000000000000000000000000000000000006020918201528151908201206000907f91b0b9d5c4719764f0e7dde988752b72db2c9fd990b79ab43fbfc443bf451804036107c1576107ba7f000000000000000000000000000000000000000000000000000000000000000084611392565b90506109ed565b60408051808201909152600a81527f4241434b47524f554e44000000000000000000000000000000000000000000006020918201528251908301207fea7c1dccbcf84f3dd21cd8ba6bab7d4f471c8662ef3d1cd545dc536a665a33a60361084c576107ba7f000000000000000000000000000000000000000000000000000000000000000084611488565b60408051808201909152600581527f434f4c4f520000000000000000000000000000000000000000000000000000006020918201528251908301207fe108be43dbedebdd6a5e12088e3ff0ee819db892baccf0fc636e26a2da6c252c036108d7576107ba7f0000000000000000000000000000000000000000000000000000000000000000846114f5565b60408051808201909152600481527f46414345000000000000000000000000000000000000000000000000000000006020918201528251908301207f1a335afdeea383136200b14685a4957d1ba82ff1d59d2a978f0a4f59673878cd03610962576107ba7f000000000000000000000000000000000000000000000000000000000000000084611562565b60408051808201909152600481527f48414e44000000000000000000000000000000000000000000000000000000006020918201528251908301207fcbda82bc4038344219ff2e11f909f9f802aa44e61af5c3fecff8b16db0715651036106b1576107ba7f0000000000000000000000000000000000000000000000000000000000000000846115cf565b80600003610a57576040517f08c379a000000000000000000000000000000000000000000000000000000000815260206004820152601560248201527f54726169743a20646f6573206e6f7420657869737400000000000000000000006044820152606401610289565b610a817f00000000000000000000000000000000000000000000000000000000000000008261163c565b505050565b610a8e610aed565b63389a75e1600c52806000526020600c208054421115610ab657636f5e88186000526004601cfd5b60009055610ac381610b23565b50565b610ace610aed565b8060601b610ae457637448fbae6000526004601cfd5b610ac381610b23565b7fffffffffffffffffffffffffffffffffffffffffffffffffffffffff74873927543314610368576382b429006000526004601cfd5b7fffffffffffffffffffffffffffffffffffffffffffffffffffffffff74873927805473ffffffffffffffffffffffffffffffffffffffff9092169182907f8be0079c531659141344cd1fd0a4f28419497f9722a3daafe3b4186f6b6457e0600080a355565b6000610b958484611392565b15610bfc576040517f08c379a000000000000000000000000000000000000000000000000000000000815260206004820152601660248201527f4c696252656754726169743a20626f64792075736564000000000000000000006044820152606401610289565b6000610c3d846040518060400160405280600481526020017f424f445900000000000000000000000000000000000000000000000000000000815250611c18565b9050610c69857ff70dee74a99a7bf98a6058c2e93635b82826d8267ec7a3a05d2f12dcbf92534d611c6a565b73ffffffffffffffffffffffffffffffffffffffff166360fe47b1826040518263ffffffff1660e01b8152600401610ca391815260200190565b600060405180830381600087803b158015610cbd57600080fd5b505af1158015610cd1573d6000803e3d6000fd5b50505050610ce0858286611db6565b610d2085826040518060400160405280600481526020017f424f445900000000000000000000000000000000000000000000000000000000815250611e74565b610d2b858285611f04565b5090505b9392505050565b6000610d428484611488565b15610da9576040517f08c379a000000000000000000000000000000000000000000000000000000000815260206004820152601c60248201527f4c696252656754726169743a206261636b67726f756e642075736564000000006044820152606401610289565b6000610dea846040518060400160405280600a81526020017f4241434b47524f554e4400000000000000000000000000000000000000000000815250611c18565b9050610e16857ff70dee74a99a7bf98a6058c2e93635b82826d8267ec7a3a05d2f12dcbf92534d611c6a565b73ffffffffffffffffffffffffffffffffffffffff166360fe47b1826040518263ffffffff1660e01b8152600401610e5091815260200190565b600060405180830381600087803b158015610e6a57600080fd5b505af1158015610e7e573d6000803e3d6000fd5b50505050610e8d8582866120ad565b610d2085826040518060400160405280600a81526020017f4241434b47524f554e4400000000000000000000000000000000000000000000815250611e74565b6000610ed984846114f5565b15610f40576040517f08c379a000000000000000000000000000000000000000000000000000000000815260206004820152601760248201527f4c696252656754726169743a20636f6c6f7220757365640000000000000000006044820152606401610289565b6000610f81846040518060400160405280600581526020017f434f4c4f52000000000000000000000000000000000000000000000000000000815250611c18565b9050610fad857ff70dee74a99a7bf98a6058c2e93635b82826d8267ec7a3a05d2f12dcbf92534d611c6a565b73ffffffffffffffffffffffffffffffffffffffff166360fe47b1826040518263ffffffff1660e01b8152600401610fe791815260200190565b600060405180830381600087803b15801561100157600080fd5b505af1158015611015573d6000803e3d6000fd5b505050506110248582866120d7565b610d2085826040518060400160405280600581526020017f434f4c4f52000000000000000000000000000000000000000000000000000000815250611e74565b60006110708484611562565b156110d7576040517f08c379a000000000000000000000000000000000000000000000000000000000815260206004820152601660248201527f4c696252656754726169743a20666163652075736564000000000000000000006044820152606401610289565b6000611118846040518060400160405280600481526020017f4641434500000000000000000000000000000000000000000000000000000000815250611c18565b9050611144857ff70dee74a99a7bf98a6058c2e93635b82826d8267ec7a3a05d2f12dcbf92534d611c6a565b73ffffffffffffffffffffffffffffffffffffffff166360fe47b1826040518263ffffffff1660e01b815260040161117e91815260200190565b600060405180830381600087803b15801561119857600080fd5b505af11580156111ac573d6000803e3d6000fd5b505050506111bb858286612101565b610d2085826040518060400160405280600481526020017f4641434500000000000000000000000000000000000000000000000000000000815250611e74565b600061120784846115cf565b1561126e576040517f08c379a000000000000000000000000000000000000000000000000000000000815260206004820152601660248201527f4c696252656754726169743a2068616e642075736564000000000000000000006044820152606401610289565b60006112af846040518060400160405280600481526020017f48414e4400000000000000000000000000000000000000000000000000000000815250611c18565b90506112db857ff70dee74a99a7bf98a6058c2e93635b82826d8267ec7a3a05d2f12dcbf92534d611c6a565b73ffffffffffffffffffffffffffffffffffffffff166360fe47b1826040518263ffffffff1660e01b815260040161131591815260200190565b600060405180830381600087803b15801561132f57600080fd5b505af1158015611343573d6000803e3d6000fd5b5050505061135285828661212b565b610d2085826040518060400160405280600481526020017f48414e4400000000000000000000000000000000000000000000000000000000815250611e74565b60006113d3826040518060400160405280600481526020017f424f445900000000000000000000000000000000000000000000000000000000815250611c18565b90506113ff837fb67326ca4d9276389479ad92732df89fdb51a6722bcc762224a361d37e6a44cf611c6a565b73ffffffffffffffffffffffffffffffffffffffff1663cccf7a8e826040518263ffffffff1660e01b815260040161143991815260200190565b602060405180830381865afa158015611456573d6000803e3d6000fd5b505050506040513d601f19601f8201168201806040525081019061147a9190612c39565b611482575060005b92915050565b60006114c9826040518060400160405280600a81526020017f4241434b47524f554e4400000000000000000000000000000000000000000000815250611c18565b90506113ff837f7e27420aa87c5cbb18c784ab6d5674344bec224f17946d4670418a9ad61a8fa5611c6a565b6000611536826040518060400160405280600581526020017f434f4c4f52000000000000000000000000000000000000000000000000000000815250611c18565b90506113ff837f9ec7fdb312cfd917b9499405d9619afea82cbe7bc994a6d9b97aa4a29d95cba4611c6a565b60006115a3826040518060400160405280600481526020017f4641434500000000000000000000000000000000000000000000000000000000815250611c18565b90506113ff837f3bcf9f91d55a1da72cd97d60b22f351bd7b605705fcb526dbf324094ea34be3c611c6a565b6000611610826040518060400160405280600481526020017f48414e4400000000000000000000000000000000000000000000000000000000815250611c18565b90506113ff837ffc3224e0c88a32d827dec77db300ba465decc407b22c4ff1e3dd50db23a15bb6611c6a565b611666827ff70dee74a99a7bf98a6058c2e93635b82826d8267ec7a3a05d2f12dcbf92534d611c6a565b73ffffffffffffffffffffffffffffffffffffffff16634cc82215826040518263ffffffff1660e01b81526004016116a091815260200190565b600060405180830381600087803b1580156116ba57600080fd5b505af11580156116ce573d6000803e3d6000fd5b505050506116ff827f2acf3c3c6b18ed6530ed0fd161fd0b65f4febe79d1182824d3263e852d29ca0360001c611c6a565b73ffffffffffffffffffffffffffffffffffffffff16634cc82215826040518263ffffffff1660e01b815260040161173991815260200190565b600060405180830381600087803b15801561175357600080fd5b505af1158015611767573d6000803e3d6000fd5b50505050611798827f0e980fab8730829e1930c8cdc024ae35650d9eec12d20425b19fc4ade883178c60001c611c6a565b73ffffffffffffffffffffffffffffffffffffffff16634cc82215826040518263ffffffff1660e01b81526004016117d291815260200190565b600060405180830381600087803b1580156117ec57600080fd5b505af1158015611800573d6000803e3d6000fd5b5050505061180e8282612155565b156118aa5761183d827fb67326ca4d9276389479ad92732df89fdb51a6722bcc762224a361d37e6a44cf611c6a565b73ffffffffffffffffffffffffffffffffffffffff16634cc82215826040518263ffffffff1660e01b815260040161187791815260200190565b600060405180830381600087803b15801561189157600080fd5b505af11580156118a5573d6000803e3d6000fd5b505050505b6118b482826121fc565b15611950576118e3827f7e27420aa87c5cbb18c784ab6d5674344bec224f17946d4670418a9ad61a8fa5611c6a565b73ffffffffffffffffffffffffffffffffffffffff16634cc82215826040518263ffffffff1660e01b815260040161191d91815260200190565b600060405180830381600087803b15801561193757600080fd5b505af115801561194b573d6000803e3d6000fd5b505050505b61195a8282612228565b156119f657611989827f9ec7fdb312cfd917b9499405d9619afea82cbe7bc994a6d9b97aa4a29d95cba4611c6a565b73ffffffffffffffffffffffffffffffffffffffff16634cc82215826040518263ffffffff1660e01b81526004016119c391815260200190565b600060405180830381600087803b1580156119dd57600080fd5b505af11580156119f1573d6000803e3d6000fd5b505050505b611a008282612254565b15611a9c57611a2f827f3bcf9f91d55a1da72cd97d60b22f351bd7b605705fcb526dbf324094ea34be3c611c6a565b73ffffffffffffffffffffffffffffffffffffffff16634cc82215826040518263ffffffff1660e01b8152600401611a6991815260200190565b600060405180830381600087803b158015611a8357600080fd5b505af1158015611a97573d6000803e3d6000fd5b505050505b611aa68282612280565b15611b4257611ad5827ffc3224e0c88a32d827dec77db300ba465decc407b22c4ff1e3dd50db23a15bb6611c6a565b73ffffffffffffffffffffffffffffffffffffffff16634cc82215826040518263ffffffff1660e01b8152600401611b0f91815260200190565b600060405180830381600087803b158015611b2957600080fd5b505af1158015611b3d573d6000803e3d6000fd5b505050505b611b4c82826122ac565b611b568282612346565b611b608282612370565b611b6a828261239a565b611b7482826123c4565b611b9e827f93024875aa0a44d01beef81e003ceec9279e2577bf5f95578dfbb508d780b6c6611c6a565b73ffffffffffffffffffffffffffffffffffffffff16634cc82215826040518263ffffffff1660e01b8152600401611bd891815260200190565b600060405180830381600087803b158015611bf257600080fd5b505af1158015611c06573d6000803e3d6000fd5b50505050611c1482826123ee565b5050565b60008183604051602001611c2d929190612c5b565b604080517fffffffffffffffffffffffffffffffffffffffffffffffffffffffffffffffe081840301815291905280516020909101209392505050565b6040517ffbdfa1ea00000000000000000000000000000000000000000000000000000000815260048101829052600090819073ffffffffffffffffffffffffffffffffffffffff85169063fbdfa1ea90602401600060405180830381865afa158015611cda573d6000803e3d6000fd5b505050506040513d6000823e601f3d9081017fffffffffffffffffffffffffffffffffffffffffffffffffffffffffffffffe0168201604052611d209190810190612cd1565b90508051600003611d8d576040517f08c379a000000000000000000000000000000000000000000000000000000000815260206004820152601160248201527f6964206e6f7420726567697374657265640000000000000000000000000000006044820152606401610289565b611dae81600081518110611da357611da3612d77565b602002602001015190565b949350505050565b611de0837fb67326ca4d9276389479ad92732df89fdb51a6722bcc762224a361d37e6a44cf611c6a565b6040517fd923c3c40000000000000000000000000000000000000000000000000000000081526004810184905263ffffffff8316602482015273ffffffffffffffffffffffffffffffffffffffff919091169063d923c3c4906044015b600060405180830381600087803b158015611e5757600080fd5b505af1158015611e6b573d6000803e3d6000fd5b50505050505050565b611e9e837f0e980fab8730829e1930c8cdc024ae35650d9eec12d20425b19fc4ade883178c611c6a565b73ffffffffffffffffffffffffffffffffffffffff16631ab06ee583611ec384612504565b6040517fffffffff0000000000000000000000000000000000000000000000000000000060e085901b16815260048101929092526024820152604401611e3d565b6000611f1584848460000151612553565b6000826020015160030b1315611f3457611f34848484602001516125b7565b6000826040015160030b1315611f5357611f53848484604001516125f1565b6000826060015160030b1315611f7257611f728484846060015161262b565b6000826080015160030b1315611f9157611f9184848460800151612665565b60008260a0015160030b1315611fb057611fb084848460a0015161269f565b60c08201511561205e57611fe4847f93024875aa0a44d01beef81e003ceec9279e2577bf5f95578dfbb508d780b6c6611c6a565b73ffffffffffffffffffffffffffffffffffffffff16631ab06ee5848460c001516040518363ffffffff1660e01b815260040161202b929190918252602082015260400190565b600060405180830381600087803b15801561204557600080fd5b505af1158015612059573d6000803e3d6000fd5b505050505b60e08201516040805160208082019092526000905281519101207fc5d2460186f7233c927e7db2dcc703c0e500b653ca82273b7bfad8045d85a47014610d2f57610d2f84848460e001516126d9565b611de0837f7e27420aa87c5cbb18c784ab6d5674344bec224f17946d4670418a9ad61a8fa5611c6a565b611de0837f9ec7fdb312cfd917b9499405d9619afea82cbe7bc994a6d9b97aa4a29d95cba4611c6a565b611de0837f3bcf9f91d55a1da72cd97d60b22f351bd7b605705fcb526dbf324094ea34be3c611c6a565b611de0837ffc3224e0c88a32d827dec77db300ba465decc407b22c4ff1e3dd50db23a15bb6611c6a565b6000612181837fb67326ca4d9276389479ad92732df89fdb51a6722bcc762224a361d37e6a44cf611c6a565b73ffffffffffffffffffffffffffffffffffffffff1663cccf7a8e836040518263ffffffff1660e01b81526004016121bb91815260200190565b602060405180830381865afa1580156121d8573d6000803e3d6000fd5b505050506040513d601f19601f82011682018060405250810190610d2f9190612c39565b6000612181837f7e27420aa87c5cbb18c784ab6d5674344bec224f17946d4670418a9ad61a8fa5611c6a565b6000612181837f9ec7fdb312cfd917b9499405d9619afea82cbe7bc994a6d9b97aa4a29d95cba4611c6a565b6000612181837f3bcf9f91d55a1da72cd97d60b22f351bd7b605705fcb526dbf324094ea34be3c611c6a565b6000612181837ffc3224e0c88a32d827dec77db300ba465decc407b22c4ff1e3dd50db23a15bb6611c6a565b6122d6827f7f11100822994501b15df98b1bd24b3eb0d73863f512da0bf8f165b0150c537d612703565b73ffffffffffffffffffffffffffffffffffffffff16634cc82215826040518263ffffffff1660e01b815260040161231091815260200190565b600060405180830381600087803b15801561232a57600080fd5b505af115801561233e573d6000803e3d6000fd5b505050505050565b6122d6827f036642765aca64d0dc0aa7a1a5b293901589aec219fb89c7c5e7c042e927386c612703565b6122d6827f9d3e17e61f5f07f24e173edb93a8af1d5b797396ea02343c0feee16bdf497d4f612703565b6122d6827f5b5054d7f0fe411d96cb1c9605f65b42805d28ce5bb4ce216455e888cdc5373c612703565b6122d6827f3e4a46df40b228c2d9f3b8ddde72a1c29045de822f058698341c5adb1d02f17d612703565b600061241a837ff3e296372a5e5be810386b4a0416d479397a474fb9d4f37f1eed4c72bf11af6d611c6a565b6040517fcccf7a8e0000000000000000000000000000000000000000000000000000000081526004810184905290915073ffffffffffffffffffffffffffffffffffffffff82169063cccf7a8e90602401602060405180830381865afa158015612488573d6000803e3d6000fd5b505050506040513d601f19601f820116820180604052508101906124ac9190612c39565b15610a81576040517f4cc822150000000000000000000000000000000000000000000000000000000081526004810183905273ffffffffffffffffffffffffffffffffffffffff821690634cc8221590602401611e3d565b6000816040516020016125179190612da6565b604080517fffffffffffffffffffffffffffffffffffffffffffffffffffffffffffffffe0818403018152919052805160209091012092915050565b61257d837f2acf3c3c6b18ed6530ed0fd161fd0b65f4febe79d1182824d3263e852d29ca03611c6a565b73ffffffffffffffffffffffffffffffffffffffff16636437197783836040518363ffffffff1660e01b8152600401611e3d929190612deb565b610a81838360405180608001604052808560030b8152602001600060030b8152602001600060030b8152602001600060030b81525061270f565b610a81838360405180608001604052808560030b8152602001600060030b8152602001600060030b8152602001600060030b8152506127bf565b610a81838360405180608001604052808560030b8152602001600060030b8152602001600060030b8152602001600060030b8152506127e9565b610a81838360405180608001604052808560030b8152602001600060030b8152602001600060030b8152602001600060030b815250612813565b610a81838360405180608001604052808560030b8152602001600060030b8152602001600060030b8152602001600060030b81525061283d565b61257d837ff3e296372a5e5be810386b4a0416d479397a474fb9d4f37f1eed4c72bf11af6d611c6a565b6000610d2f8383611c6a565b612739837f7f11100822994501b15df98b1bd24b3eb0d73863f512da0bf8f165b0150c537d611c6a565b604080517f32e5cc30000000000000000000000000000000000000000000000000000000008152600481018590528351600390810b60248301526020850151810b604483015291840151820b6064820152606084015190910b608482015273ffffffffffffffffffffffffffffffffffffffff91909116906332e5cc309060a401611e3d565b612739837f036642765aca64d0dc0aa7a1a5b293901589aec219fb89c7c5e7c042e927386c611c6a565b612739837f9d3e17e61f5f07f24e173edb93a8af1d5b797396ea02343c0feee16bdf497d4f611c6a565b612739837f5b5054d7f0fe411d96cb1c9605f65b42805d28ce5bb4ce216455e888cdc5373c611c6a565b612739837f3e4a46df40b228c2d9f3b8ddde72a1c29045de822f058698341c5adb1d02f17d611c6a565b7f4e487b7100000000000000000000000000000000000000000000000000000000600052604160045260246000fd5b604051601f82017fffffffffffffffffffffffffffffffffffffffffffffffffffffffffffffffe016810167ffffffffffffffff811182821017156128dd576128dd612867565b604052919050565b600067ffffffffffffffff8211156128ff576128ff612867565b50601f017fffffffffffffffffffffffffffffffffffffffffffffffffffffffffffffffe01660200190565b600061293e612939846128e5565b612896565b905082815283838301111561295257600080fd5b828260208301376000602084830101529392505050565b60006020828403121561297b57600080fd5b813567ffffffffffffffff81111561299257600080fd5b8201601f810184136129a357600080fd5b611dae8482356020840161292b565b60005b838110156129cd5781810151838201526020016129b5565b50506000910152565b600081518084526129ee8160208601602086016129b2565b601f017fffffffffffffffffffffffffffffffffffffffffffffffffffffffffffffffe0169290920160200192915050565b602081526000610d2f60208301846129d6565b63ffffffff81168114610ac357600080fd5b60008060408385031215612a5857600080fd5b8235612a6381612a33565b9150602083013567ffffffffffffffff811115612a7f57600080fd5b8301601f81018513612a9057600080fd5b612a9f8582356020840161292b565b9150509250929050565b600060208284031215612abb57600080fd5b813573ffffffffffffffffffffffffffffffffffffffff81168114610d2f57600080fd5b805161029281612a33565b8051600381900b811461029257600080fd5b600082601f830112612b0d57600080fd5b8151612b1b612939826128e5565b818152846020838601011115612b3057600080fd5b611dae8260208301602087016129b2565b6000806000806000806000806000806101408b8d031215612b6157600080fd5b612b6a8b612adf565b9950612b7860208c01612aea565b9850612b8660408c01612aea565b9750612b9460608c01612aea565b9650612ba260808c01612aea565b9550612bb060a08c01612aea565b945060c08b0151935060e08b015167ffffffffffffffff80821115612bd457600080fd5b612be08e838f01612afc565b94506101008d0151915080821115612bf757600080fd5b612c038e838f01612afc565b93506101208d0151915080821115612c1a57600080fd5b50612c278d828e01612afc565b9150509295989b9194979a5092959850565b600060208284031215612c4b57600080fd5b81518015158114610d2f57600080fd5b7f72656769737472792e7472616974000000000000000000000000000000000000815260008351612c9381600e8501602088016129b2565b80830190507fffffffff000000000000000000000000000000000000000000000000000000008460e01b16600e820152601281019150509392505050565b60006020808385031215612ce457600080fd5b825167ffffffffffffffff80821115612cfc57600080fd5b818501915085601f830112612d1057600080fd5b815181811115612d2257612d22612867565b8060051b9150612d33848301612896565b8181529183018401918481019088841115612d4d57600080fd5b938501935b83851015612d6b57845182529385019390850190612d52565b98975050505050505050565b7f4e487b7100000000000000000000000000000000000000000000000000000000600052603260045260246000fd5b7f72656769737472792e74726169742e7479706500000000000000000000000000815260008251612dde8160138501602087016129b2565b9190910160130192915050565b828152604060208201526000611dae60408301846129d656fea26469706673582212203c99e56d2b121442b0f2dedd52deecb4bdc6570c3aaa65646832cf639ddc438e64736f6c63430008110033","linkReferences":{}},"methodIdentifiers":{"cancelOwnershipHandover()":"54d1f13d","completeOwnershipHandover(address)":"f04e283e","create(bytes)":"cf5ba53f","deprecate()":"0fcc0c28","execute(bytes)":"09c5eabe","owner()":"8da5cb5b","ownershipHandoverExpiresAt(address)":"fee81cf4","remove(uint32,string)":"ed1fa0cb","renounceOwnership()":"715018a6","requestOwnershipHandover()":"25692962","transferOwnership(address)":"f2fde38b"},"id":309}