{"abi":[{"type":"constructor","inputs":[{"name":"_world","type":"address","internalType":"contract IWorld"},{"name":"_components","type":"address","internalType":"address"}],"stateMutability":"nonpayable"},{"type":"function","name":"cancelOwnershipHandover","inputs":[],"outputs":[],"stateMutability":"payable"},{"type":"function","name":"completeOwnershipHandover","inputs":[{"name":"pendingOwner","type":"address","internalType":"address"}],"outputs":[],"stateMutability":"payable"},{"type":"function","name":"deprecate","inputs":[],"outputs":[],"stateMutability":"nonpayable"},{"type":"function","name":"execute","inputs":[{"name":"arguments","type":"bytes","internalType":"bytes"}],"outputs":[{"name":"","type":"bytes","internalType":"bytes"}],"stateMutability":"nonpayable"},{"type":"function","name":"executeTyped","inputs":[{"name":"to","type":"uint256","internalType":"uint256"}],"outputs":[{"name":"","type":"bytes","internalType":"bytes"}],"stateMutability":"nonpayable"},{"type":"function","name":"operatorToOwner","inputs":[],"outputs":[{"name":"","type":"bytes","internalType":"bytes"}],"stateMutability":"payable"},{"type":"function","name":"owner","inputs":[],"outputs":[{"name":"result","type":"address","internalType":"address"}],"stateMutability":"view"},{"type":"function","name":"ownerToOperator","inputs":[],"outputs":[{"name":"","type":"bytes","internalType":"bytes"}],"stateMutability":"payable"},{"type":"function","name":"ownershipHandoverExpiresAt","inputs":[{"name":"pendingOwner","type":"address","internalType":"address"}],"outputs":[{"name":"result","type":"uint256","internalType":"uint256"}],"stateMutability":"view"},{"type":"function","name":"renounceOwnership","inputs":[],"outputs":[],"stateMutability":"payable"},{"type":"function","name":"requestOwnershipHandover","inputs":[],"outputs":[],"stateMutability":"payable"},{"type":"function","name":"transferOwnership","inputs":[{"name":"newOwner","type":"address","internalType":"address"}],"outputs":[],"stateMutability":"payable"},{"type":"event","name":"OwnershipHandoverCanceled","inputs":[{"name":"pendingOwner","type":"address","indexed":true,"internalType":"address"}],"anonymous":false},{"type":"event","name":"OwnershipHandoverRequested","inputs":[{"name":"pendingOwner","type":"address","indexed":true,"internalType":"address"}],"anonymous":false},{"type":"event","name":"OwnershipTransferred","inputs":[{"name":"oldOwner","type":"address","indexed":true,"internalType":"address"},{"name":"newOwner","type":"address","indexed":true,"internalType":"address"}],"anonymous":false},{"type":"event","name":"SystemDeprecated","inputs":[],"anonymous":false},{"type":"error","name":"AlreadyInitialized","inputs":[]},{"type":"error","name":"NewOwnerIsZeroAddress","inputs":[]},{"type":"error","name":"NoHandoverRequest","inputs":[]},{"type":"error","name":"QueryOrderNotSupported","inputs":[]},{"type":"error","name":"Unauthorized","inputs":[]}],"bytecode":{"object":"0x60c06040523480156200001157600080fd5b50604051620023ef380380620023ef83398101604081905262000034916200012f565b81816200004133620000dc565b6001600160a01b03811615620000585780620000bd565b816001600160a01b031663ba62fbe46040518163ffffffff1660e01b8152600401602060405180830381865afa15801562000097573d6000803e3d6000fd5b505050506040513d601f19601f82011682018060405250810190620000bd91906200016e565b6001600160a01b039081166080529190911660a0525062000195915050565b6001600160a01b0316638b78c6d8198190558060007f8be0079c531659141344cd1fd0a4f28419497f9722a3daafe3b4186f6b6457e08180a35b50565b6001600160a01b03811681146200011657600080fd5b600080604083850312156200014357600080fd5b8251620001508162000119565b6020840151909250620001638162000119565b809150509250929050565b6000602082840312156200018157600080fd5b81516200018e8162000119565b9392505050565b60805160a0516121f8620001f76000396000505060008181610389015281816103b5015281816104160152818161047b015281816104b1015281816104f60152818161058c015281816105ed01528181610650015261067c01526121f86000f3fe6080604052600436106100c75760003560e01c806377cf942911610074578063f04e283e1161004e578063f04e283e146101b0578063f2fde38b146101c3578063fee81cf4146101d657600080fd5b806377cf94291461014c5780638da5cb5b146101545780639ec0ae49146101a857600080fd5b80633e991df3116100a55780633e991df31461012157806354d1f13d1461013c578063715018a61461014457600080fd5b806309c5eabe146100cc5780630fcc0c28146101025780632569296214610119575b600080fd5b3480156100d857600080fd5b506100ec6100e7366004611ba6565b610217565b6040516100f99190611c94565b60405180910390f35b34801561010e57600080fd5b506101176102a7565b005b6101176102da565b34801561012d57600080fd5b506100ec6100e7366004611ca7565b610117610330565b61011761036c565b6100ec610380565b34801561016057600080fd5b507fffffffffffffffffffffffffffffffffffffffffffffffffffffffff748739275460405173ffffffffffffffffffffffffffffffffffffffff90911681526020016100f9565b6100ec6104ed565b6101176101be366004611ce2565b6106ad565b6101176101d1366004611ce2565b6106ed565b3480156101e257600080fd5b506102096101f1366004611ce2565b63389a75e1600c908152600091909152602090205490565b6040519081526020016100f9565b6040517f08c379a000000000000000000000000000000000000000000000000000000000815260206004820152602260248201527f4163636f756e7446756e6453797374656d3a206e6f7420696d706c656d656e7460448201527f656400000000000000000000000000000000000000000000000000000000000060648201526060906084015b60405180910390fd5b6102af610714565b6040517f56f33501ffd77f9fe44d81e7db7e66a66bdf52ab3e11267cdc6462763604c4c790600090a1565b60006202a30067ffffffffffffffff164201905063389a75e1600c5233600052806020600c2055337fdbf36a107da19e49527a7176a1babf963b4b0ff8cde35ee35d6cd8f1f9ac7e1d600080a250565b92915050565b63389a75e1600c523360005260006020600c2055337ffa7b8eab7da67f412cc9575ed43464468f9bfbae89d1675917346ca6d8fe3c92600080a2565b610374610714565b61037e600061074a565b565b606060006103ae7f0000000000000000000000000000000000000000000000000000000000000000336107b0565b90506104117f0000000000000000000000000000000000000000000000000000000000000000826040518060400160405280600c81526020017f4f50455241544f525f474153000000000000000000000000000000000000000081525034610970565b6104747f00000000000000000000000000000000000000000000000000000000000000008260006040518060400160405280600c81526020017f4f50455241544f525f4741530000000000000000000000000000000000000000815250346109aa565b60006104a07f0000000000000000000000000000000000000000000000000000000000000000836109cb565b90506104ac8134610a79565b6104d67f000000000000000000000000000000000000000000000000000000000000000083610ac1565b604051806020016040528060008152509250505090565b6060600061051b7f000000000000000000000000000000000000000000000000000000000000000033610ad0565b905080600003610587576040517f08c379a000000000000000000000000000000000000000000000000000000000815260206004820152601d60248201527f4163636f756e7446756e6453797374656d3a206e6f206163636f756e74000000604482015260640161029e565b6105e87f0000000000000000000000000000000000000000000000000000000000000000826040518060400160405280600c81526020017f4f50455241544f525f474153000000000000000000000000000000000000000081525034610ba5565b61064b7f00000000000000000000000000000000000000000000000000000000000000008260006040518060400160405280600c81526020017f4f50455241544f525f474153000000000000000000000000000000000000000081525034610bd7565b6106757f000000000000000000000000000000000000000000000000000000000000000082610ac1565b60006106a17f000000000000000000000000000000000000000000000000000000000000000083610bf1565b90506104d68134610a79565b6106b5610714565b63389a75e1600c52806000526020600c2080544211156106dd57636f5e88186000526004601cfd5b600090556106ea8161074a565b50565b6106f5610714565b8060601b61070b57637448fbae6000526004601cfd5b6106ea8161074a565b7fffffffffffffffffffffffffffffffffffffffffffffffffffffffff7487392754331461037e576382b429006000526004601cfd5b7fffffffffffffffffffffffffffffffffffffffffffffffffffffffff74873927805473ffffffffffffffffffffffffffffffffffffffff9092169182907f8be0079c531659141344cd1fd0a4f28419497f9722a3daafe3b4186f6b6457e0600080a355565b6000806107dd847ff9b94d2a933222e58f90359e8ec33041c5f08d7bc4304958d1c52c21991da575610c19565b6040517fcccf7a8e00000000000000000000000000000000000000000000000000000000815273ffffffffffffffffffffffffffffffffffffffff8581166004830181905292935083169063cccf7a8e90602401602060405180830381865afa15801561084e573d6000803e3d6000fd5b505050506040513d601f19601f820116820180604052508101906108729190611cff565b6108d8576040517f08c379a000000000000000000000000000000000000000000000000000000000815260206004820152601b60248201527f4163636f756e743a204f70657261746f72206e6f7420666f756e640000000000604482015260640161029e565b6040517f9507d39a0000000000000000000000000000000000000000000000000000000081526004810182905273ffffffffffffffffffffffffffffffffffffffff831690639507d39a90602401602060405180830381865afa158015610943573d6000803e3d6000fd5b505050506040513d601f19601f820116820180604052508101906109679190611d21565b95945050505050565b600061097b85610d5d565b9050600061098a858386610d9e565b90506109a286828761099c8887610df3565b87610e45565b505050505050565b60006109b7858585610e9d565b90506109a2868284610eb4565b5050505050565b60006109f7837f6caa0553213b46b61cbf982ee3246d8a2a4e5b4936a7594770d391463046f22e610c19565b73ffffffffffffffffffffffffffffffffffffffff16639507d39a836040518263ffffffff1660e01b8152600401610a3191815260200190565b602060405180830381865afa158015610a4e573d6000803e3d6000fd5b505050506040513d601f19601f82011682018060405250810190610a729190611d3a565b9392505050565b60405173ffffffffffffffffffffffffffffffffffffffff83169082156108fc029083906000818181858888f19350505050158015610abc573d6000803e3d6000fd5b505050565b610acc828242610ee9565b5050565b600080610b6f846040518060400160405280600781526020017f4143434f554e5400000000000000000000000000000000000000000000000000815250610b3a877f6caa0553213b46b61cbf982ee3246d8a2a4e5b4936a7594770d391463046f22e60001c610fa1565b6040805173ffffffffffffffffffffffffffffffffffffffff8916602082015201604051602081830303815290604052610fad565b90506000815111610b81576000610b9d565b80600081518110610b9457610b94611d57565b60200260200101515b949350505050565b6000610bb085610d5d565b90506000610bbf858386610d9e565b90506109a2868287610bd18887610df3565b876110f6565b6000610be4858585610e9d565b90506109a286828461114e565b60006109f7837f8a1264e7094de803414cccf0c32d2bd50f25c909fa2415b38f065f320e4eabe65b6040517ffbdfa1ea00000000000000000000000000000000000000000000000000000000815260048101829052600090819073ffffffffffffffffffffffffffffffffffffffff85169063fbdfa1ea90602401600060405180830381865afa158015610c89573d6000803e3d6000fd5b505050506040513d6000823e601f3d9081017fffffffffffffffffffffffffffffffffffffffffffffffffffffffffffffffe0168201604052610ccf9190810190611daa565b90508051600003610d3c576040517f08c379a000000000000000000000000000000000000000000000000000000000815260206004820152601160248201527f6964206e6f742072656769737465726564000000000000000000000000000000604482015260640161029e565b610b9d81600081518110610d5257610d52611d57565b602002602001015190565b600061032a826040518060400160405280601181526020017f4c4541444552424f4152445f45504f434800000000000000000000000000000081525061117d565b6000838383604051602001610db593929190611e3b565b604080517fffffffffffffffffffffffffffffffffffffffffffffffffffffffffffffffe08184030181529190528051602090910120949350505050565b60008282604051602001610e08929190611e8e565b604080517fffffffffffffffffffffffffffffffffffffffffffffffffffffffffffffffe081840301815291905280516020909101209392505050565b610e5185858585611195565b6109a28482610e80887fb25ea67b55901db62e4b14311a8c1ab178fec3948b4b493a711970a50aa2a2e1610c19565b73ffffffffffffffffffffffffffffffffffffffff16919061139b565b6000838383604051602001610db593929190611eda565b610ee38282610e80867fb25ea67b55901db62e4b14311a8c1ab178fec3948b4b493a711970a50aa2a2e1610c19565b50505050565b610f13837f342adee7430e96bca6f5d4fe57ba5155dc7271000494e77110c292d51ae887fa610c19565b6040517f1ab06ee5000000000000000000000000000000000000000000000000000000008152600481018490526024810183905273ffffffffffffffffffffffffffffffffffffffff9190911690631ab06ee590604401600060405180830381600087803b158015610f8457600080fd5b505af1158015610f98573d6000803e3d6000fd5b50505050505050565b6000610a728383610c19565b604080516002808252606082810190935260009190816020015b60408051606080820183526000808352602083015291810191909152815260200190600190039081610fc757905050604080516060810190915290915080600281526020018573ffffffffffffffffffffffffffffffffffffffff168152602001848152508160008151811061103f5761103f611d57565b602090810291909101015260408051606081019091528060028152602001611087887f5d88ced8d8e079072bf73f49fc87661b519c50d79482941abb852ba2b10909cd610fa1565b73ffffffffffffffffffffffffffffffffffffffff168152602001866040516020016110b39190611c94565b604051602081830303815290604052815250816001815181106110d8576110d8611d57565b60200260200101819052506110ec81611443565b9695505050505050565b61110285858585611195565b6109a28482611131887fb25ea67b55901db62e4b14311a8c1ab178fec3948b4b493a711970a50aa2a2e1610c19565b73ffffffffffffffffffffffffffffffffffffffff1691906115ef565b610ee38282611131867fb25ea67b55901db62e4b14311a8c1ab178fec3948b4b493a711970a50aa2a2e1610c19565b60008061118983611606565b9050610b9d8482611655565b60006111c1857f48dd73345b049fd90b1d994ae882fe2bea7a52e362fd4689108c907c6456a006610c19565b6040517fcccf7a8e0000000000000000000000000000000000000000000000000000000081526004810186905290915073ffffffffffffffffffffffffffffffffffffffff82169063cccf7a8e90602401602060405180830381865afa15801561122f573d6000803e3d6000fd5b505050506040513d601f19601f820116820180604052508101906112539190611cff565b6109c4576040517f1ab06ee5000000000000000000000000000000000000000000000000000000008152600481018590526024810183905273ffffffffffffffffffffffffffffffffffffffff821690631ab06ee590604401600060405180830381600087803b1580156112c657600080fd5b505af11580156112da573d6000803e3d6000fd5b5050505061130b857f5bc28889d745caef68975e56a733199d93efb3f5ae8e4606262ab97c83f7264860001c610c19565b6040517f1ab06ee5000000000000000000000000000000000000000000000000000000008152600481018690526024810185905273ffffffffffffffffffffffffffffffffffffffff9190911690631ab06ee590604401600060405180830381600087803b15801561137c57600080fd5b505af1158015611390573d6000803e3d6000fd5b505050505050505050565b6000816113a885856116fc565b6113b29190611fb0565b6040517f1ab06ee5000000000000000000000000000000000000000000000000000000008152600481018590526024810182905290915073ffffffffffffffffffffffffffffffffffffffff851690631ab06ee590604401600060405180830381600087803b15801561142457600080fd5b505af1158015611438573d6000803e3d6000fd5b505050509392505050565b606081516000036114675760408051600080825260208201909252905b5092915050565b60028260008151811061147c5761147c611d57565b602002602001015160000151600381111561149957611499611f52565b146114d0576040517feec45f3600000000000000000000000000000000000000000000000000000000815260040160405180910390fd5b6000826000815181106114e5576114e5611d57565b60200260200101516020015173ffffffffffffffffffffffffffffffffffffffff1663b361be468460008151811061151f5761151f611d57565b6020026020010151604001516040518263ffffffff1660e01b81526004016115479190611c94565b600060405180830381865afa158015611564573d6000803e3d6000fd5b505050506040513d6000823e601f3d9081017fffffffffffffffffffffffffffffffffffffffffffffffffffffffffffffffe01682016040526115aa9190810190611daa565b905060015b8351811015611460576115db8482815181106115cd576115cd611d57565b6020026020010151836117db565b9150806115e781611fc3565b9150506115af565b6000816115fc85856116fc565b6113b29190611ffb565b600081604051602001611619919061200e565b604080517fffffffffffffffffffffffffffffffffffffffffffffffffffffffffffffffe0818403018152919052805160209091012092915050565b6000611681837fb25ea67b55901db62e4b14311a8c1ab178fec3948b4b493a711970a50aa2a2e1610c19565b73ffffffffffffffffffffffffffffffffffffffff16639507d39a836040518263ffffffff1660e01b81526004016116bb91815260200190565b602060405180830381865afa1580156116d8573d6000803e3d6000fd5b505050506040513d601f19601f82011682018060405250810190610a729190611d21565b6040517fdd98e3c900000000000000000000000000000000000000000000000000000000815260048101829052600090819073ffffffffffffffffffffffffffffffffffffffff85169063dd98e3c990602401600060405180830381865afa15801561176c573d6000803e3d6000fd5b505050506040513d6000823e601f3d9081017fffffffffffffffffffffffffffffffffffffffffffffffffffffffffffffffe01682016040526117b29190810190612098565b905080516000036117c757600091505061032a565b80806020019051810190610b9d9190611d21565b60606000836020015173ffffffffffffffffffffffffffffffffffffffff16634323c4ef846040518263ffffffff1660e01b815260040161181c91906120cd565b600060405180830381865afa158015611839573d6000803e3d6000fd5b505050506040513d6000823e601f3d9081017fffffffffffffffffffffffffffffffffffffffffffffffffffffffffffffffe016820160405261187f9190810190612111565b90506000805b82518110156118fb576118b1868483815181106118a4576118a4611d57565b6020026020010151611906565b156118c857816118c081611fc3565b9250506118e9565b60008582815181106118dc576118dc611d57565b6020026020010181815250505b806118f381611fc3565b915050611885565b5061096784826119ed565b6000808351600381111561191c5761191c611f52565b0361192b57508051151561032a565b60028351600381111561194057611940611f52565b0361196157818051906020012083604001518051906020012014905061032a565b60018351600381111561197657611976611f52565b03611984575080511561032a565b60038351600381111561199957611999611f52565b036119bb5781805190602001208360400151805190602001201415905061032a565b6040517feec45f3600000000000000000000000000000000000000000000000000000000815260040160405180910390fd5b606081600003611a0c575060408051600081526020810190915261032a565b60008267ffffffffffffffff811115611a2757611a27611ae2565b604051908082528060200260200182016040528015611a50578160200160208202803683370190505b5090506000805b8551811015611ad857858181518110611a7257611a72611d57565b6020026020010151600014611ac657858181518110611a9357611a93611d57565b6020026020010151838380611aa790611fc3565b945081518110611ab957611ab9611d57565b6020026020010181815250505b80611ad081611fc3565b915050611a57565b5090949350505050565b7f4e487b7100000000000000000000000000000000000000000000000000000000600052604160045260246000fd5b604051601f82017fffffffffffffffffffffffffffffffffffffffffffffffffffffffffffffffe016810167ffffffffffffffff81118282101715611b5857611b58611ae2565b604052919050565b600067ffffffffffffffff821115611b7a57611b7a611ae2565b50601f017fffffffffffffffffffffffffffffffffffffffffffffffffffffffffffffffe01660200190565b600060208284031215611bb857600080fd5b813567ffffffffffffffff811115611bcf57600080fd5b8201601f81018413611be057600080fd5b8035611bf3611bee82611b60565b611b11565b818152856020838501011115611c0857600080fd5b81602084016020830137600091810160200191909152949350505050565b60005b83811015611c41578181015183820152602001611c29565b50506000910152565b60008151808452611c62816020860160208601611c26565b601f017fffffffffffffffffffffffffffffffffffffffffffffffffffffffffffffffe0169290920160200192915050565b602081526000610a726020830184611c4a565b600060208284031215611cb957600080fd5b5035919050565b73ffffffffffffffffffffffffffffffffffffffff811681146106ea57600080fd5b600060208284031215611cf457600080fd5b8135610a7281611cc0565b600060208284031215611d1157600080fd5b81518015158114610a7257600080fd5b600060208284031215611d3357600080fd5b5051919050565b600060208284031215611d4c57600080fd5b8151610a7281611cc0565b7f4e487b7100000000000000000000000000000000000000000000000000000000600052603260045260246000fd5b600067ffffffffffffffff821115611da057611da0611ae2565b5060051b60200190565b60006020808385031215611dbd57600080fd5b825167ffffffffffffffff811115611dd457600080fd5b8301601f81018513611de557600080fd5b8051611df3611bee82611d86565b81815260059190911b82018301908381019087831115611e1257600080fd5b928401925b82841015611e3057835182529284019290840190611e17565b979650505050505050565b7f69732e73636f7265000000000000000000000000000000000000000000000000815283600882015282602882015260008251611e7f816048850160208701611c26565b91909101604801949350505050565b7f73636f72652e7479706500000000000000000000000000000000000000000000815260008351611ec681600a850160208801611c26565b600a920191820192909252602a0192915050565b7f69732e646174610000000000000000000000000000000000000000000000000081528360078201527fffffffff000000000000000000000000000000000000000000000000000000008360e01b16602782015260008251611f4381602b850160208701611c26565b91909101602b01949350505050565b7f4e487b7100000000000000000000000000000000000000000000000000000000600052602160045260246000fd5b7f4e487b7100000000000000000000000000000000000000000000000000000000600052601160045260246000fd5b8181038181111561032a5761032a611f81565b60007fffffffffffffffffffffffffffffffffffffffffffffffffffffffffffffffff8203611ff457611ff4611f81565b5060010190565b8082018082111561032a5761032a611f81565b7f69732e636f6e6669670000000000000000000000000000000000000000000000815260008251612046816009850160208701611c26565b9190910160090192915050565b600082601f83011261206457600080fd5b8151612072611bee82611b60565b81815284602083860101111561208757600080fd5b610b9d826020830160208701611c26565b6000602082840312156120aa57600080fd5b815167ffffffffffffffff8111156120c157600080fd5b610b9d84828501612053565b6020808252825182820181905260009190848201906040850190845b81811015612105578351835292840192918401916001016120e9565b50909695505050505050565b6000602080838503121561212457600080fd5b825167ffffffffffffffff8082111561213c57600080fd5b818501915085601f83011261215057600080fd5b815161215e611bee82611d86565b81815260059190911b8301840190848101908883111561217d57600080fd5b8585015b838110156121b5578051858111156121995760008081fd5b6121a78b89838a0101612053565b845250918601918601612181565b509897505050505050505056fea2646970667358221220c222941b9723a633a63404ca84108574b7956678dfe618773d3f9242896a600964736f6c63430008110033","linkReferences":{}},"methodIdentifiers":{"cancelOwnershipHandover()":"54d1f13d","completeOwnershipHandover(address)":"f04e283e","deprecate()":"0fcc0c28","execute(bytes)":"09c5eabe","executeTyped(uint256)":"3e991df3","operatorToOwner()":"77cf9429","owner()":"8da5cb5b","ownerToOperator()":"9ec0ae49","ownershipHandoverExpiresAt(address)":"fee81cf4","renounceOwnership()":"715018a6","requestOwnershipHandover()":"25692962","transferOwnership(address)":"f2fde38b"},"id":251}