{"abi":[{"type":"constructor","inputs":[{"name":"_world","type":"address","internalType":"contract IWorld"},{"name":"_components","type":"address","internalType":"address"}],"stateMutability":"nonpayable"},{"type":"function","name":"cancelOwnershipHandover","inputs":[],"outputs":[],"stateMutability":"payable"},{"type":"function","name":"completeOwnershipHandover","inputs":[{"name":"pendingOwner","type":"address","internalType":"address"}],"outputs":[],"stateMutability":"payable"},{"type":"function","name":"deprecate","inputs":[],"outputs":[],"stateMutability":"nonpayable"},{"type":"function","name":"execute","inputs":[{"name":"arguments","type":"bytes","internalType":"bytes"}],"outputs":[{"name":"","type":"bytes","internalType":"bytes"}],"stateMutability":"nonpayable"},{"type":"function","name":"executeTyped","inputs":[{"name":"toIndex","type":"uint32","internalType":"uint32"}],"outputs":[{"name":"","type":"bytes","internalType":"bytes"}],"stateMutability":"nonpayable"},{"type":"function","name":"owner","inputs":[],"outputs":[{"name":"result","type":"address","internalType":"address"}],"stateMutability":"view"},{"type":"function","name":"ownershipHandoverExpiresAt","inputs":[{"name":"pendingOwner","type":"address","internalType":"address"}],"outputs":[{"name":"result","type":"uint256","internalType":"uint256"}],"stateMutability":"view"},{"type":"function","name":"renounceOwnership","inputs":[],"outputs":[],"stateMutability":"payable"},{"type":"function","name":"requestOwnershipHandover","inputs":[],"outputs":[],"stateMutability":"payable"},{"type":"function","name":"transferOwnership","inputs":[{"name":"newOwner","type":"address","internalType":"address"}],"outputs":[],"stateMutability":"payable"},{"type":"event","name":"OwnershipHandoverCanceled","inputs":[{"name":"pendingOwner","type":"address","indexed":true,"internalType":"address"}],"anonymous":false},{"type":"event","name":"OwnershipHandoverRequested","inputs":[{"name":"pendingOwner","type":"address","indexed":true,"internalType":"address"}],"anonymous":false},{"type":"event","name":"OwnershipTransferred","inputs":[{"name":"oldOwner","type":"address","indexed":true,"internalType":"address"},{"name":"newOwner","type":"address","indexed":true,"internalType":"address"}],"anonymous":false},{"type":"event","name":"SystemDeprecated","inputs":[],"anonymous":false},{"type":"error","name":"AlreadyInitialized","inputs":[]},{"type":"error","name":"NewOwnerIsZeroAddress","inputs":[]},{"type":"error","name":"NoHandoverRequest","inputs":[]},{"type":"error","name":"QueryOrderNotSupported","inputs":[]},{"type":"error","name":"Unauthorized","inputs":[]}],"bytecode":{"object":"0x60c06040523480156200001157600080fd5b506040516200458c3803806200458c83398101604081905262000034916200012f565b81816200004133620000dc565b6001600160a01b03811615620000585780620000bd565b816001600160a01b031663ba62fbe46040518163ffffffff1660e01b8152600401602060405180830381865afa15801562000097573d6000803e3d6000fd5b505050506040513d601f19601f82011682018060405250810190620000bd91906200016e565b6001600160a01b039081166080529190911660a0525062000195915050565b6001600160a01b0316638b78c6d8198190558060007f8be0079c531659141344cd1fd0a4f28419497f9722a3daafe3b4186f6b6457e08180a35b50565b6001600160a01b03811681146200011657600080fd5b600080604083850312156200014357600080fd5b8251620001508162000119565b6020840151909250620001638162000119565b809150509250929050565b6000602082840312156200018157600080fd5b81516200018e8162000119565b9392505050565b60805160a05161439c620001f060003960005050600081816101ff0152818161024501528181610273015281816102a1015281816102cd0152818161036a015281816103fc015281816104270152610451015261439c6000f3fe6080604052600436106100b15760003560e01c8063715018a611610069578063f04e283e1161004e578063f04e283e1461018f578063f2fde38b146101a2578063fee81cf4146101b557600080fd5b8063715018a6146101335780638da5cb5b1461013b57600080fd5b80630fcc0c281161009a5780630fcc0c281461010c578063256929621461012357806354d1f13d1461012b57600080fd5b806309c5eabe146100b657806309c90324146100ec575b600080fd5b3480156100c257600080fd5b506100d66100d136600461399a565b6101f6565b6040516100e39190613a88565b60405180910390f35b3480156100f857600080fd5b506100d6610107366004613aad565b610490565b34801561011857600080fd5b506101216104c2565b005b6101216104f5565b610121610545565b610121610581565b34801561014757600080fd5b507fffffffffffffffffffffffffffffffffffffffffffffffffffffffff748739275460405173ffffffffffffffffffffffffffffffffffffffff90911681526020016100e3565b61012161019d366004613aca565b610595565b6101216101b0366004613aca565b6105d5565b3480156101c157600080fd5b506101e86101d0366004613aca565b63389a75e1600c908152600091909152602090205490565b6040519081526020016100e3565b606060006102247f0000000000000000000000000000000000000000000000000000000000000000336105fc565b905060008380602001905181019061023c9190613b00565b9050600061026a7f0000000000000000000000000000000000000000000000000000000000000000846107bc565b905060006102987f00000000000000000000000000000000000000000000000000000000000000008361086a565b905060006102c67f00000000000000000000000000000000000000000000000000000000000000008561086a565b90506102fa7f00000000000000000000000000000000000000000000000000000000000000008563ffffffff168484610897565b610365576040517f08c379a000000000000000000000000000000000000000000000000000000000815260206004820152601960248201527f4163634d6f76653a20756e726561636861626c6520726f6f6d0000000000000060448201526064015b60405180910390fd5b6103917f0000000000000000000000000000000000000000000000000000000000000000848688610a7b565b6103f7576040517f08c379a000000000000000000000000000000000000000000000000000000000815260206004820152601a60248201527f4163634d6f76653a20696e61636365737369626c6520726f6f6d000000000000604482015260640161035c565b6104227f00000000000000000000000000000000000000000000000000000000000000008686610ab3565b61044c7f000000000000000000000000000000000000000000000000000000000000000086610b9d565b6104767f000000000000000000000000000000000000000000000000000000000000000086610be5565b505060408051602081019091526000815295945050505050565b6040805163ffffffff831660208201526060916104bc91016040516020818303038152906040526101f6565b92915050565b6104ca610bf0565b6040517f56f33501ffd77f9fe44d81e7db7e66a66bdf52ab3e11267cdc6462763604c4c790600090a1565b60006202a30067ffffffffffffffff164201905063389a75e1600c5233600052806020600c2055337fdbf36a107da19e49527a7176a1babf963b4b0ff8cde35ee35d6cd8f1f9ac7e1d600080a250565b63389a75e1600c523360005260006020600c2055337ffa7b8eab7da67f412cc9575ed43464468f9bfbae89d1675917346ca6d8fe3c92600080a2565b610589610bf0565b6105936000610c26565b565b61059d610bf0565b63389a75e1600c52806000526020600c2080544211156105c557636f5e88186000526004601cfd5b600090556105d281610c26565b50565b6105dd610bf0565b8060601b6105f357637448fbae6000526004601cfd5b6105d281610c26565b600080610629847ff9b94d2a933222e58f90359e8ec33041c5f08d7bc4304958d1c52c21991da575610c8c565b6040517fcccf7a8e00000000000000000000000000000000000000000000000000000000815273ffffffffffffffffffffffffffffffffffffffff8581166004830181905292935083169063cccf7a8e90602401602060405180830381865afa15801561069a573d6000803e3d6000fd5b505050506040513d601f19601f820116820180604052508101906106be9190613b1d565b610724576040517f08c379a000000000000000000000000000000000000000000000000000000000815260206004820152601b60248201527f4163636f756e743a204f70657261746f72206e6f7420666f756e640000000000604482015260640161035c565b6040517f9507d39a0000000000000000000000000000000000000000000000000000000081526004810182905273ffffffffffffffffffffffffffffffffffffffff831690639507d39a90602401602060405180830381865afa15801561078f573d6000803e3d6000fd5b505050506040513d601f19601f820116820180604052508101906107b39190613b3f565b95945050505050565b60006107e8837f3be9611062b8582cf4b9a4eafe577dbde7dcd7779a1efb46d73e212026c4b0cc610c8c565b73ffffffffffffffffffffffffffffffffffffffff16639507d39a836040518263ffffffff1660e01b815260040161082291815260200190565b602060405180830381865afa15801561083f573d6000803e3d6000fd5b505050506040513d601f19601f820116820180604052508101906108639190613b00565b9392505050565b60008061087683610dd0565b90506108828482610e68565b61088d57600061088f565b805b949350505050565b6000806108c4867f1d80d8bc36212886f1cd16bb0e8f17892d2237a9ad83cebdcec1f76b3c52d19f610c8c565b6040517f9507d39a0000000000000000000000000000000000000000000000000000000081526004810186905290915060009073ffffffffffffffffffffffffffffffffffffffff831690639507d39a90602401606060405180830381865afa158015610935573d6000803e3d6000fd5b505050506040513d601f19601f820116820180604052508101906109599190613b6f565b6040517f9507d39a0000000000000000000000000000000000000000000000000000000081526004810186905290915060009073ffffffffffffffffffffffffffffffffffffffff841690639507d39a90602401606060405180830381865afa1580156109ca573d6000803e3d6000fd5b505050506040513d601f19601f820116820180604052508101906109ee9190613b6f565b90506109fa8282610eaa565b15610a0b576001935050505061088f565b6000610a178988610f76565b905060005b8151811015610a6b5788828281518110610a3857610a38613bdb565b602002602001015163ffffffff1603610a595760019550505050505061088f565b80610a6381613c39565b915050610a1c565b5060009998505050505050505050565b600080610a898686866110ff565b90508051600003610a9e57600191505061088f565b610aa9868285611301565b9695505050505050565b610ade83837fffffffffffffffffffffffffffffffffffffffffffffffffffffffffffffffff61137f565b50610b09837f3be9611062b8582cf4b9a4eafe577dbde7dcd7779a1efb46d73e212026c4b0cc610c8c565b6040517fd923c3c40000000000000000000000000000000000000000000000000000000081526004810184905263ffffffff8316602482015273ffffffffffffffffffffffffffffffffffffffff919091169063d923c3c4906044015b600060405180830381600087803b158015610b8057600080fd5b505af1158015610b94573d6000803e3d6000fd5b50505050505050565b610be1828260006040518060400160405280600481526020017f4d4f5645000000000000000000000000000000000000000000000000000000008152506001611562565b5050565b610be1828242611584565b7fffffffffffffffffffffffffffffffffffffffffffffffffffffffff74873927543314610593576382b429006000526004601cfd5b7fffffffffffffffffffffffffffffffffffffffffffffffffffffffff74873927805473ffffffffffffffffffffffffffffffffffffffff9092169182907f8be0079c531659141344cd1fd0a4f28419497f9722a3daafe3b4186f6b6457e0600080a355565b6040517ffbdfa1ea00000000000000000000000000000000000000000000000000000000815260048101829052600090819073ffffffffffffffffffffffffffffffffffffffff85169063fbdfa1ea90602401600060405180830381865afa158015610cfc573d6000803e3d6000fd5b505050506040513d6000823e601f3d9081017fffffffffffffffffffffffffffffffffffffffffffffffffffffffffffffffe0168201604052610d429190810190613c95565b90508051600003610daf576040517f08c379a000000000000000000000000000000000000000000000000000000000815260206004820152601160248201527f6964206e6f742072656769737465726564000000000000000000000000000000604482015260640161035c565b61088f81600081518110610dc557610dc5613bdb565b602002602001015190565b6040517f726f6f6d0000000000000000000000000000000000000000000000000000000060208201527fffffffff0000000000000000000000000000000000000000000000000000000060e083901b1660248201526000906028015b604080517fffffffffffffffffffffffffffffffffffffffffffffffffffffffffffffffe0818403018152919052805160209091012092915050565b600061086383836040518060400160405280600481526020017f524f4f4d0000000000000000000000000000000000000000000000000000000081525061160a565b6000816040015160030b836040015160030b03610f6d5781518351600391820b910b03610f18576020820151610ee1906001613d1b565b60030b836020015160030b1480610f11575060018260200151610f049190613d5d565b60030b836020015160030b145b90506104bc565b816020015160030b836020015160030b03610f6d578151610f3a906001613d1b565b60030b836000015160030b1480610f1157508151610f5a90600190613d5d565b60030b836000015160030b1490506104bc565b50600092915050565b60606000610fa4847f858f24fb88a0e63a706be19a7ceb37cafdbc2534e73bfd47f2983a24e9e58857610c8c565b6040517fcccf7a8e0000000000000000000000000000000000000000000000000000000081526004810185905290915073ffffffffffffffffffffffffffffffffffffffff82169063cccf7a8e90602401602060405180830381865afa158015611012573d6000803e3d6000fd5b505050506040513d601f19601f820116820180604052508101906110369190613b1d565b61104e5760408051600081526020810190915261088f565b6040517f9507d39a0000000000000000000000000000000000000000000000000000000081526004810184905273ffffffffffffffffffffffffffffffffffffffff821690639507d39a90602401600060405180830381865afa1580156110b9573d6000803e3d6000fd5b505050506040513d6000823e601f3d9081017fffffffffffffffffffffffffffffffffffffffffffffffffffffffffffffffe016820160405261088f9190810190613d9f565b604080516002808252606082810190935260009190816020015b6040805160608082018352600080835260208301529181019190915281526020019060019003908161111957505060408051606081019091526002815290915060208101611187877f78b1ef013cafd65ebaa39f84081e7a0dfd0ac73a9c373c972780715705987a95611658565b73ffffffffffffffffffffffffffffffffffffffff1681526020016111ab85611664565b6040516020016111bd91815260200190565b604051602081830303815290604052815250816000815181106111e2576111e2613bdb565b60209081029190910101526040805160608101909152806002815260200161122a877fde0f9b459fab67ff56929343dacb07b0c0a1f8509d3184dc6d736f68b80381de611658565b73ffffffffffffffffffffffffffffffffffffffff16815260408051600060208281019190915290920191016040516020818303038152906040528152508160018151811061127b5761127b613bdb565b60200260200101819052506000611291826116c4565b905061129c85611870565b6040516020016112ae91815260200190565b604051602081830303815290604052826001815181106112d0576112d0613bdb565b60200260200101516040018190525060006112ea836116c4565b90506112f682826118d0565b979650505050505050565b6000825160000361131457506001610863565b600061132085856119e5565b905060005b845181101561137357611352868584848151811061134557611345613bdb565b6020026020010151611f63565b61136157600092505050610863565b8061136b81613c39565b915050611325565b50600195945050505050565b6000806113ac857f1229189cff138f94363a6274f6ec5003a4a6372db248c6985d3b3301024eb8ec610c8c565b905060006113ba868661202b565b6113c49085613d1b565b9050600061144d8373ffffffffffffffffffffffffffffffffffffffff16639507d39a886040518263ffffffff1660e01b815260040161140691815260200190565b608060405180830381865afa158015611423573d6000803e3d6000fd5b505050506040513d601f19601f820116820180604052508101906114479190613e5d565b83612091565b905060008160030b12156114bd576040517f08c379a000000000000000000000000000000000000000000000000000000000815260206004820152601d60248201527f4163636f756e743a20696e73756666696369656e74207374616d696e61000000604482015260640161035c565b6114c787876120ca565b6040517f6ef23a3d00000000000000000000000000000000000000000000000000000000815260048101879052600383900b602482015273ffffffffffffffffffffffffffffffffffffffff841690636ef23a3d906044016020604051808303816000875af115801561153e573d6000803e3d6000fd5b505050506040513d601f19601f820116820180604052508101906112f69190613eda565b600061156f8585856120d5565b905061157c86828461212a565b505050505050565b6115ae837f342adee7430e96bca6f5d4fe57ba5155dc7271000494e77110c292d51ae887fa610c8c565b6040517f1ab06ee5000000000000000000000000000000000000000000000000000000008152600481018490526024810183905273ffffffffffffffffffffffffffffffffffffffff9190911690631ab06ee590604401610b66565b600061088f838361163b877f5d88ced8d8e079072bf73f49fc87661b519c50d79482941abb852ba2b10909cd610c8c565b73ffffffffffffffffffffffffffffffffffffffff16919061217c565b60006108638383610c8c565b6040517f726f6f6d2e676174652e746f000000000000000000000000000000000000000060208201527fffffffff0000000000000000000000000000000000000000000000000000000060e083901b16602c820152600090603001610e2c565b606081516000036116e85760408051600080825260208201909252905b5092915050565b6002826000815181106116fd576116fd613bdb565b602002602001015160000151600381111561171a5761171a613e2e565b14611751576040517feec45f3600000000000000000000000000000000000000000000000000000000815260040160405180910390fd5b60008260008151811061176657611766613bdb565b60200260200101516020015173ffffffffffffffffffffffffffffffffffffffff1663b361be46846000815181106117a0576117a0613bdb565b6020026020010151604001516040518263ffffffff1660e01b81526004016117c89190613a88565b600060405180830381865afa1580156117e5573d6000803e3d6000fd5b505050506040513d6000823e601f3d9081017fffffffffffffffffffffffffffffffffffffffffffffffffffffffffffffffe016820160405261182b9190810190613c95565b905060015b83518110156116e15761185c84828151811061184e5761184e613bdb565b60200260200101518361219f565b91508061186881613c39565b915050611830565b6040517f726f6f6d2e676174652e66726f6d00000000000000000000000000000000000060208201527fffffffff0000000000000000000000000000000000000000000000000000000060e083901b16602e820152600090603201610e2c565b60606000825184516118e29190613ef5565b67ffffffffffffffff8111156118fa576118fa6138d6565b604051908082528060200260200182016040528015611923578160200160208202803683370190505b50905060005b845181101561197b5784818151811061194457611944613bdb565b602002602001015182828151811061195e5761195e613bdb565b60209081029190910101528061197381613c39565b915050611929565b5060005b83518110156119dd5783818151811061199a5761199a613bdb565b6020026020010151828287516119b09190613ef5565b815181106119c0576119c0613bdb565b6020908102919091010152806119d581613c39565b91505061197f565b509392505050565b60606000611a13847f024accd0d273ef6123273b21662f5cc055a7d58adf98cc1b060edd029af93f7f610c8c565b90506000611a41857f787589c9eda599ea35279a6d93e360e8fdc5402255545ca394f5033f5e58ed42610c8c565b90506000611a6f867f62adc4221185187a288916c2630b5e1f37e9437c5b68d55bc59b9debc23f19d0610c8c565b90506000611a9d877fb25ea67b55901db62e4b14311a8c1ab178fec3948b4b493a711970a50aa2a2e1610c8c565b90506000865167ffffffffffffffff811115611abb57611abb6138d6565b604051908082528060200260200182016040528015611b1d57816020015b611b0a60405180608001604052806060815260200160608152602001600063ffffffff168152602001600081525090565b815260200190600190039081611ad95790505b50905060005b8751811015611f575760405180608001604052808773ffffffffffffffffffffffffffffffffffffffff16639507d39a8b8581518110611b6557611b65613bdb565b60200260200101516040518263ffffffff1660e01b8152600401611b8b91815260200190565b600060405180830381865afa158015611ba8573d6000803e3d6000fd5b505050506040513d6000823e601f3d9081017fffffffffffffffffffffffffffffffffffffffffffffffffffffffffffffffe0168201604052611bee9190810190613f38565b81526020018673ffffffffffffffffffffffffffffffffffffffff16639507d39a8b8581518110611c2157611c21613bdb565b60200260200101516040518263ffffffff1660e01b8152600401611c4791815260200190565b600060405180830381865afa158015611c64573d6000803e3d6000fd5b505050506040513d6000823e601f3d9081017fffffffffffffffffffffffffffffffffffffffffffffffffffffffffffffffe0168201604052611caa9190810190613f38565b81526020018573ffffffffffffffffffffffffffffffffffffffff1663cccf7a8e8b8581518110611cdd57611cdd613bdb565b60200260200101516040518263ffffffff1660e01b8152600401611d0391815260200190565b602060405180830381865afa158015611d20573d6000803e3d6000fd5b505050506040513d601f19601f82011682018060405250810190611d449190613b1d565b611d4f576000611de4565b8573ffffffffffffffffffffffffffffffffffffffff16639507d39a8b8581518110611d7d57611d7d613bdb565b60200260200101516040518263ffffffff1660e01b8152600401611da391815260200190565b602060405180830381865afa158015611dc0573d6000803e3d6000fd5b505050506040513d601f19601f82011682018060405250810190611de49190613b00565b63ffffffff1681526020018473ffffffffffffffffffffffffffffffffffffffff1663cccf7a8e8b8581518110611e1d57611e1d613bdb565b60200260200101516040518263ffffffff1660e01b8152600401611e4391815260200190565b602060405180830381865afa158015611e60573d6000803e3d6000fd5b505050506040513d601f19601f82011682018060405250810190611e849190613b1d565b611e8f576000611f24565b8473ffffffffffffffffffffffffffffffffffffffff16639507d39a8b8581518110611ebd57611ebd613bdb565b60200260200101516040518263ffffffff1660e01b8152600401611ee391815260200190565b602060405180830381865afa158015611f00573d6000803e3d6000fd5b505050506040513d601f19601f82011682018060405250810190611f249190613b3f565b815250828281518110611f3957611f39613bdb565b60200260200101819052508080611f4f90613c39565b915050611b23565b50979650505050505050565b6000806000611f71846122ca565b90925090506000826003811115611f8a57611f8a613e2e565b03611fa457611f9b868686846122e3565b92505050610863565b6003826003811115611fb857611fb8613e2e565b03611fc957611f9b86868684612395565b6040517f08c379a000000000000000000000000000000000000000000000000000000000815260206004820152601b60248201527f48616e646c6572206e6f742079657420696d706c656d656e7465640000000000604482015260640161035c565b600080612038848461244c565b6120429042613f81565b90506000612085856040518060400160405280601f81526020017f4143434f554e545f5354414d494e415f5245434f564552595f504552494f44008152506124f3565b90506107b38183613fc3565b6000808284606001516120a49190613d1b565b905060006120b18561250b565b90508060030b8260030b13156119dd5791506104bc9050565b610be182824261255e565b60008383836040516020016120ec93929190613fd7565b604080517fffffffffffffffffffffffffffffffffffffffffffffffffffffffffffffffe08184030181529190528051602090910120949350505050565b6121768282612159867fb25ea67b55901db62e4b14311a8c1ab178fec3948b4b493a711970a50aa2a2e1610c8c565b73ffffffffffffffffffffffffffffffffffffffff169190612588565b50505050565b600061088f8261218c8686612630565b8151602092830120815191909201201490565b60606000836020015173ffffffffffffffffffffffffffffffffffffffff16634323c4ef846040518263ffffffff1660e01b81526004016121e0919061404f565b600060405180830381865afa1580156121fd573d6000803e3d6000fd5b505050506040513d6000823e601f3d9081017fffffffffffffffffffffffffffffffffffffffffffffffffffffffffffffffe016820160405261224391908101906140b3565b90506000805b82518110156122bf576122758684838151811061226857612268613bdb565b6020026020010151612732565b1561228c578161228481613c39565b9250506122ad565b60008582815181106122a0576122a0613bdb565b6020026020010181815250505b806122b781613c39565b915050612249565b506107b38482612819565b6000806122da836020015161290e565b91509150915091565b815160408084015190517f81d0c0f1000000000000000000000000000000000000000000000000000000008152600092839273__$fe8c06f2024370067115fbcd33d61de1b7$__926381d0c0f192612343928b928b929190600401614164565b602060405180830381865af4158015612360573d6000803e3d6000fd5b505050506040513d601f19601f820116820180604052508101906123849190613b3f565b9050610aa981856060015185612e8f565b60006123b08585856000015186604001518760600151612f5a565b905060048260048111156123c6576123c6613e2e565b036123d1571561088f565b60038260048111156123e5576123e5613e2e565b1461088f576040517f08c379a000000000000000000000000000000000000000000000000000000000815260206004820152601b60248201527f556e6b6e6f776e20626f6f6c206c6f676963206f70657261746f720000000000604482015260640161035c565b6000612478837f5f9759544a286ad42df1aa1cab6dca162b48885d3060ac74aecbf8ff4483ad1b610c8c565b73ffffffffffffffffffffffffffffffffffffffff16639507d39a836040518263ffffffff1660e01b81526004016124b291815260200190565b602060405180830381865afa1580156124cf573d6000803e3d6000fd5b505050506040513d601f19601f820116820180604052508101906108639190613b3f565b6000806124ff8361327f565b905061088f8482613292565b6000806103e8836020015184600001516125259190613d1b565b6040850151612536906103e8613d1b565b61254091906141b0565b61254a91906141d0565b905060008160030b136104bc576000610863565b6115ae837f5f9759544a286ad42df1aa1cab6dca162b48885d3060ac74aecbf8ff4483ad1b610c8c565b60008161259585856132be565b61259f9190613ef5565b6040517f1ab06ee5000000000000000000000000000000000000000000000000000000008152600481018590526024810182905290915073ffffffffffffffffffffffffffffffffffffffff851690631ab06ee590604401600060405180830381600087803b15801561261157600080fd5b505af1158015612625573d6000803e3d6000fd5b505050509392505050565b6040517fdd98e3c90000000000000000000000000000000000000000000000000000000081526004810182905260609060009073ffffffffffffffffffffffffffffffffffffffff85169063dd98e3c990602401600060405180830381865afa1580156126a1573d6000803e3d6000fd5b505050506040513d6000823e601f3d9081017fffffffffffffffffffffffffffffffffffffffffffffffffffffffffffffffe01682016040526126e79190810190614244565b905080516000036127085750506040805160208101909152600081526104bc565b8080602001905181019061088f9190613f38565b8051602091820120825192909101919091201490565b6000808351600381111561274857612748613e2e565b036127575750805115156104bc565b60028351600381111561276c5761276c613e2e565b0361278d5781805190602001208360400151805190602001201490506104bc565b6001835160038111156127a2576127a2613e2e565b036127b057508051156104bc565b6003835160038111156127c5576127c5613e2e565b036127e7578180519060200120836040015180519060200120141590506104bc565b6040517feec45f3600000000000000000000000000000000000000000000000000000000815260040160405180910390fd5b60608160000361283857506040805160008152602081019091526104bc565b60008267ffffffffffffffff811115612853576128536138d6565b60405190808252806020026020018201604052801561287c578160200160208202803683370190505b5090506000805b85518110156129045785818151811061289e5761289e613bdb565b60200260200101516000146128f2578581815181106128bf576128bf613bdb565b60200260200101518383806128d390613c39565b9450815181106128e5576128e5613bdb565b6020026020010181815250505b806128fc81613c39565b915050612883565b5090949350505050565b60008060008061295c6040518060400160405280600481526020017f43555252000000000000000000000000000000000000000000000000000000008152508661339d90919063ffffffff16565b1561296a5760009150612b2b565b6040805180820190915260038082527f494e43000000000000000000000000000000000000000000000000000000000060209283015290860181902086517f2294515cf577a807f70c30a4bd66fb198b63ab765b7fa768b080fe8cda2c38889190911491111516156129df5760019150612b2b565b6040805180820190915260038082527f444543000000000000000000000000000000000000000000000000000000000060209283015290860181902086517fc8117e3bb0a5365f1188f80e2df06c2b6996766cd83da2c646f5f9e14dcfbd17919091149111151615612a545760029150612b2b565b6040805180820190915260048082527f424f4f4c0000000000000000000000000000000000000000000000000000000060209283015290860181902086517fda3fe7adc6f9d250974b3b45d024284953a3a67841a37ae5029171eb5f1bc309919091149111151615612ac95760039150612b2b565b6040517f08c379a000000000000000000000000000000000000000000000000000000000815260206004820152601960248201527f556e6b6e6f776e20636f6e646974696f6e2068616e646c657200000000000000604482015260640161035c565b6040805180820190915260038082527f4d494e00000000000000000000000000000000000000000000000000000000006020928301528651808211157ffffffffffffffffffffffffffffffffffffffffffffffffffffffffffffffffd90910181028801909201207f871eebeccaa432de5f38a72c534eb2fa59c2c3b49e3c6629c16c11981ee74f2a141615612bc357506000612e85565b6040805180820190915260038082527f4d415800000000000000000000000000000000000000000000000000000000006020928301528651808211157ffffffffffffffffffffffffffffffffffffffffffffffffffffffffffffffffd90910181028801909201207fa42787877dd247913f847bc654d767d1919585674d8f1a26ea00084043233daa141615612c5b57506001612e85565b6040805180820190915260058082527f455155414c0000000000000000000000000000000000000000000000000000006020928301528651808211157ffffffffffffffffffffffffffffffffffffffffffffffffffffffffffffffffb90910181028801909201207f3a06e9850b6d2ffe1ee040a5349ff67cf64f6914074848a74304f81130b90725141615612cf357506002612e85565b6040805180820190915260028082527f49530000000000000000000000000000000000000000000000000000000000006020928301528651808211157ffffffffffffffffffffffffffffffffffffffffffffffffffffffffffffffffe90910181028801909201207fa0f4911f5dff37b9a43a54645c34f34bf9127e9dac511b186b8529567dfaf3dc141615612d8b57506003612e85565b6040805180820190915260038082527f4e4f5400000000000000000000000000000000000000000000000000000000006020928301528651808211157ffffffffffffffffffffffffffffffffffffffffffffffffffffffffffffffffd90910181028801909201207f4293f9bf526b0205217be3088c05680693c75440f7bce1f1b15fae3c5187ae12141615612e2357506004612e85565b6040517f08c379a000000000000000000000000000000000000000000000000000000000815260206004820152601a60248201527f556e6b6e6f776e20636f6e646974696f6e206f70657261746f72000000000000604482015260640161035c565b9094909350915050565b600080826004811115612ea457612ea4613e2e565b03612eb3575081831015610863565b6001826004811115612ec757612ec7613e2e565b03612ed6575081831115610863565b6002826004811115612eea57612eea613e2e565b03612ef85750828214610863565b6040517f08c379a000000000000000000000000000000000000000000000000000000000815260206004820152601660248201527f556e6b6e6f776e206c6f676963206f70657261746f7200000000000000000000604482015260640161035c565b6000612fa46040518060400160405280600d81526020017f434f4d504c4554455f434f4d50000000000000000000000000000000000000008152508561271c90919063ffffffff16565b1561305557612fd3867f9522897410526014691d8a863fac7bd2e048ab08176b6e3c6fa8a1f5195164bb610c8c565b73ffffffffffffffffffffffffffffffffffffffff1663cccf7a8e836040518263ffffffff1660e01b815260040161300d91815260200190565b602060405180830381865afa15801561302a573d6000803e3d6000fd5b505050506040513d601f19601f8201168201806040525081019061304e9190613b1d565b90506107b3565b60408051808201909152600581527f51554553540000000000000000000000000000000000000000000000000000006020918201528451908501207f6dd88e0a32c18c14d5a81f049d6fd353acc17f8290c55d8a716d975def4edf1e036130c15761304e8684876133b7565b60408051808201909152600481527f524f4f4d000000000000000000000000000000000000000000000000000000006020918201528451908501207fd095a6ae2bc7e94153e86beac7414b2145c7585cac0a0d923e1a4df8247e23a203613141578263ffffffff1661313387876107bc565b63ffffffff161490506107b3565b60408051808201909152600581527f50484153450000000000000000000000000000000000000000000000000000006020918201528451908501207fc7321657fadb62104cd2b0331a69790ec83e40b1c9f218c07d669437bea8f9ad036131b2578263ffffffff16613133426133e0565b60408051808201909152600881527f434f4f4c444f574e0000000000000000000000000000000000000000000000006020918201528451908501207f74d16beb57bf3f9ccaccecb6978a7e61e312e12eed3a6e57d8fb05427d6bab0f0361321d5761304e86866133eb565b6040517f08c379a000000000000000000000000000000000000000000000000000000000815260206004820152601b60248201527f556e6b6e6f776e20626f6f6c20636f6e646974696f6e20747970650000000000604482015260640161035c565b600081604051602001610e2c9190614279565b6000612478837fb25ea67b55901db62e4b14311a8c1ab178fec3948b4b493a711970a50aa2a2e1610c8c565b6040517fdd98e3c900000000000000000000000000000000000000000000000000000000815260048101829052600090819073ffffffffffffffffffffffffffffffffffffffff85169063dd98e3c990602401600060405180830381865afa15801561332e573d6000803e3d6000fd5b505050506040513d6000823e601f3d9081017fffffffffffffffffffffffffffffffffffffffffffffffffffffffffffffffe01682016040526133749190810190614244565b905080516000036133895760009150506104bc565b8080602001905181019061088f9190613b3f565b805160209182018190209183018190209251101591141690565b6000806133c5858486613412565b9050806000036133d65760006107b3565b6107b38582613436565b60006104bc826134dd565b6000806133f88484613510565b905060006134068585613545565b90911315949350505050565b60008061341f83856135fd565b905061342b858261369d565b61088f5760006107b3565b6000613462837f9522897410526014691d8a863fac7bd2e048ab08176b6e3c6fa8a1f5195164bb610c8c565b73ffffffffffffffffffffffffffffffffffffffff1663cccf7a8e836040518263ffffffff1660e01b815260040161349c91815260200190565b602060405180830381865afa1580156134b9573d6000803e3d6000fd5b505050506040513d601f19601f820116820180604052508101906108639190613b1d565b60008060246134ee610e1085613fc3565b6134f891906142be565b9050613505600c82613fc3565b610863906001613ef5565b600061086361353f847f5f9759544a286ad42df1aa1cab6dca162b48885d3060ac74aecbf8ff4483ad1b610c8c565b836136df565b60008061358f61358a856040518060400160405280601681526020017f4b414d495f5354414e444152445f434f4f4c444f574e000000000000000000008152506124f3565b613717565b905060006135d385856040518060400160405280601381526020017f53544e445f434f4f4c444f574e5f53484946540000000000000000000000000081525061374c565b905060006135e182846142d2565b9050600081126135f15780610aa9565b60009695505050505050565b6040517f72656769737472792e717565737400000000000000000000000000000000000060208201527fffffffff0000000000000000000000000000000000000000000000000000000060e084901b16602e820152603281018290526000906052015b604080517fffffffffffffffffffffffffffffffffffffffffffffffffffffffffffffffe081840301815291905280516020909101209392505050565b600061086383836040518060400160405280600581526020017f515545535400000000000000000000000000000000000000000000000000000081525061160a565b600061370461358a73ffffffffffffffffffffffffffffffffffffffff8516846132be565b61370d42613717565b61086391906142fa565b60007f80000000000000000000000000000000000000000000000000000000000000008210613748576137486138b3565b5090565b60008061375984846138c1565b90506000613787867f50d80ec5b1169fa90f6a93a06362786b45e53ec8c05572cba38875a52f86a3bc610c8c565b6040517fcccf7a8e0000000000000000000000000000000000000000000000000000000081526004810184905290915073ffffffffffffffffffffffffffffffffffffffff82169063cccf7a8e90602401602060405180830381865afa1580156137f5573d6000803e3d6000fd5b505050506040513d601f19601f820116820180604052508101906138199190613b1d565b613824576000610aa9565b6040517f9507d39a0000000000000000000000000000000000000000000000000000000081526004810183905273ffffffffffffffffffffffffffffffffffffffff821690639507d39a90602401602060405180830381865afa15801561388f573d6000803e3d6000fd5b505050506040513d601f19601f82011682018060405250810190610aa99190613b3f565b6335278d126000526004601cfd5b6000828260405160200161366092919061431a565b7f4e487b7100000000000000000000000000000000000000000000000000000000600052604160045260246000fd5b604051601f82017fffffffffffffffffffffffffffffffffffffffffffffffffffffffffffffffe016810167ffffffffffffffff8111828210171561394c5761394c6138d6565b604052919050565b600067ffffffffffffffff82111561396e5761396e6138d6565b50601f017fffffffffffffffffffffffffffffffffffffffffffffffffffffffffffffffe01660200190565b6000602082840312156139ac57600080fd5b813567ffffffffffffffff8111156139c357600080fd5b8201601f810184136139d457600080fd5b80356139e76139e282613954565b613905565b8181528560208385010111156139fc57600080fd5b81602084016020830137600091810160200191909152949350505050565b60005b83811015613a35578181015183820152602001613a1d565b50506000910152565b60008151808452613a56816020860160208601613a1a565b601f017fffffffffffffffffffffffffffffffffffffffffffffffffffffffffffffffe0169290920160200192915050565b6020815260006108636020830184613a3e565b63ffffffff811681146105d257600080fd5b600060208284031215613abf57600080fd5b813561088d81613a9b565b600060208284031215613adc57600080fd5b813573ffffffffffffffffffffffffffffffffffffffff8116811461088d57600080fd5b600060208284031215613b1257600080fd5b815161088d81613a9b565b600060208284031215613b2f57600080fd5b8151801515811461088d57600080fd5b600060208284031215613b5157600080fd5b5051919050565b8051600381900b8114613b6a57600080fd5b919050565b600060608284031215613b8157600080fd5b6040516060810181811067ffffffffffffffff82111715613ba457613ba46138d6565b604052613bb083613b58565b8152613bbe60208401613b58565b6020820152613bcf60408401613b58565b60408201529392505050565b7f4e487b7100000000000000000000000000000000000000000000000000000000600052603260045260246000fd5b7f4e487b7100000000000000000000000000000000000000000000000000000000600052601160045260246000fd5b60007fffffffffffffffffffffffffffffffffffffffffffffffffffffffffffffffff8203613c6a57613c6a613c0a565b5060010190565b600067ffffffffffffffff821115613c8b57613c8b6138d6565b5060051b60200190565b60006020808385031215613ca857600080fd5b825167ffffffffffffffff811115613cbf57600080fd5b8301601f81018513613cd057600080fd5b8051613cde6139e282613c71565b81815260059190911b82018301908381019087831115613cfd57600080fd5b928401925b828410156112f657835182529284019290840190613d02565b600381810b9083900b01637fffffff81137fffffffffffffffffffffffffffffffffffffffffffffffffffffffff80000000821217156104bc576104bc613c0a565b600382810b9082900b037fffffffffffffffffffffffffffffffffffffffffffffffffffffffff800000008112637fffffff821317156104bc576104bc613c0a565b60006020808385031215613db257600080fd5b825167ffffffffffffffff811115613dc957600080fd5b8301601f81018513613dda57600080fd5b8051613de86139e282613c71565b81815260059190911b82018301908381019087831115613e0757600080fd5b928401925b828410156112f6578351613e1f81613a9b565b82529284019290840190613e0c565b7f4e487b7100000000000000000000000000000000000000000000000000000000600052602160045260246000fd5b600060808284031215613e6f57600080fd5b6040516080810181811067ffffffffffffffff82111715613e9257613e926138d6565b604052613e9e83613b58565b8152613eac60208401613b58565b6020820152613ebd60408401613b58565b6040820152613ece60608401613b58565b60608201529392505050565b600060208284031215613eec57600080fd5b61086382613b58565b808201808211156104bc576104bc613c0a565b6000613f166139e284613954565b9050828152838383011115613f2a57600080fd5b610863836020830184613a1a565b600060208284031215613f4a57600080fd5b815167ffffffffffffffff811115613f6157600080fd5b8201601f81018413613f7257600080fd5b61088f84825160208401613f08565b818103818111156104bc576104bc613c0a565b7f4e487b7100000000000000000000000000000000000000000000000000000000600052601260045260246000fd5b600082613fd257613fd2613f94565b500490565b7f69732e646174610000000000000000000000000000000000000000000000000081528360078201527fffffffff000000000000000000000000000000000000000000000000000000008360e01b1660278201526000825161404081602b850160208701613a1a565b91909101602b01949350505050565b6020808252825182820181905260009190848201906040850190845b818110156140875783518352928401929184019160010161406b565b50909695505050505050565b600082601f8301126140a457600080fd5b61086383835160208501613f08565b600060208083850312156140c657600080fd5b825167ffffffffffffffff808211156140de57600080fd5b818501915085601f8301126140f257600080fd5b81516141006139e282613c71565b81815260059190911b8301840190848101908883111561411f57600080fd5b8585015b838110156141575780518581111561413b5760008081fd5b6141498b89838a0101614093565b845250918601918601614123565b5098975050505050505050565b73ffffffffffffffffffffffffffffffffffffffff851681528360208201526080604082015260006141996080830185613a3e565b905063ffffffff8316606083015295945050505050565b60008260030b8260030b028060030b91508082146116e1576116e1613c0a565b60008160030b8360030b806141e7576141e7613f94565b7fffffffffffffffffffffffffffffffffffffffffffffffffffffffffffffffff81147fffffffffffffffffffffffffffffffffffffffffffffffffffffffff800000008314161561423b5761423b613c0a565b90059392505050565b60006020828403121561425657600080fd5b815167ffffffffffffffff81111561426d57600080fd5b61088f84828501614093565b7f69732e636f6e66696700000000000000000000000000000000000000000000008152600082516142b1816009850160208701613a1a565b9190910160090192915050565b6000826142cd576142cd613f94565b500690565b80820182811260008312801582168215821617156142f2576142f2613c0a565b505092915050565b81810360008312801583831316838312821617156116e1576116e1613c0a565b7f626f6e7573000000000000000000000000000000000000000000000000000000815282600582015260008251614358816025850160208701613a1a565b91909101602501939250505056fea2646970667358221220de0be41633dc72e8117b0f0fb90bacb6ce2d7e85951a2659380571601174027964736f6c63430008110033","linkReferences":{"src/libraries/utils/LibGetter.sol":{"LibGetter":[{"start":9479,"length":20}]}}},"methodIdentifiers":{"cancelOwnershipHandover()":"54d1f13d","completeOwnershipHandover(address)":"f04e283e","deprecate()":"0fcc0c28","execute(bytes)":"09c5eabe","executeTyped(uint32)":"09c90324","owner()":"8da5cb5b","ownershipHandoverExpiresAt(address)":"fee81cf4","renounceOwnership()":"715018a6","requestOwnershipHandover()":"25692962","transferOwnership(address)":"f2fde38b"},"id":252}