{"abi":[{"type":"constructor","inputs":[{"name":"_world","type":"address","internalType":"contract IWorld"},{"name":"_components","type":"address","internalType":"address"}],"stateMutability":"nonpayable"},{"type":"function","name":"cancelOwnershipHandover","inputs":[],"outputs":[],"stateMutability":"payable"},{"type":"function","name":"completeOwnershipHandover","inputs":[{"name":"pendingOwner","type":"address","internalType":"address"}],"outputs":[],"stateMutability":"payable"},{"type":"function","name":"deprecate","inputs":[],"outputs":[],"stateMutability":"nonpayable"},{"type":"function","name":"execute","inputs":[{"name":"arguments","type":"bytes","internalType":"bytes"}],"outputs":[{"name":"","type":"bytes","internalType":"bytes"}],"stateMutability":"nonpayable"},{"type":"function","name":"executeTyped","inputs":[{"name":"itemIndex","type":"uint32","internalType":"uint32"}],"outputs":[{"name":"","type":"bytes","internalType":"bytes"}],"stateMutability":"nonpayable"},{"type":"function","name":"owner","inputs":[],"outputs":[{"name":"result","type":"address","internalType":"address"}],"stateMutability":"view"},{"type":"function","name":"ownershipHandoverExpiresAt","inputs":[{"name":"pendingOwner","type":"address","internalType":"address"}],"outputs":[{"name":"result","type":"uint256","internalType":"uint256"}],"stateMutability":"view"},{"type":"function","name":"renounceOwnership","inputs":[],"outputs":[],"stateMutability":"payable"},{"type":"function","name":"requestOwnershipHandover","inputs":[],"outputs":[],"stateMutability":"payable"},{"type":"function","name":"transferOwnership","inputs":[{"name":"newOwner","type":"address","internalType":"address"}],"outputs":[],"stateMutability":"payable"},{"type":"event","name":"OwnershipHandoverCanceled","inputs":[{"name":"pendingOwner","type":"address","indexed":true,"internalType":"address"}],"anonymous":false},{"type":"event","name":"OwnershipHandoverRequested","inputs":[{"name":"pendingOwner","type":"address","indexed":true,"internalType":"address"}],"anonymous":false},{"type":"event","name":"OwnershipTransferred","inputs":[{"name":"oldOwner","type":"address","indexed":true,"internalType":"address"},{"name":"newOwner","type":"address","indexed":true,"internalType":"address"}],"anonymous":false},{"type":"event","name":"SystemDeprecated","inputs":[],"anonymous":false},{"type":"error","name":"AlreadyInitialized","inputs":[]},{"type":"error","name":"NewOwnerIsZeroAddress","inputs":[]},{"type":"error","name":"NoHandoverRequest","inputs":[]},{"type":"error","name":"Unauthorized","inputs":[]}],"bytecode":{"object":"0x60c06040523480156200001157600080fd5b50604051620029923803806200299283398101604081905262000034916200012f565b81816200004133620000dc565b6001600160a01b03811615620000585780620000bd565b816001600160a01b031663ba62fbe46040518163ffffffff1660e01b8152600401602060405180830381865afa15801562000097573d6000803e3d6000fd5b505050506040513d601f19601f82011682018060405250810190620000bd91906200016e565b6001600160a01b039081166080529190911660a0525062000195915050565b6001600160a01b0316638b78c6d8198190558060007f8be0079c531659141344cd1fd0a4f28419497f9722a3daafe3b4186f6b6457e08180a35b50565b6001600160a01b03811681146200011657600080fd5b600080604083850312156200014357600080fd5b8251620001508162000119565b6020840151909250620001638162000119565b809150509250929050565b6000602082840312156200018157600080fd5b81516200018e8162000119565b9392505050565b60805160a0516127a9620001e96000396000505060008181610217015281816102430152818161030e0152818161039e015281816103c9015281816103f601528181610421015261044e01526127a96000f3fe6080604052600436106100b15760003560e01c8063715018a611610069578063f04e283e1161004e578063f04e283e1461018f578063f2fde38b146101a2578063fee81cf4146101b557600080fd5b8063715018a6146101335780638da5cb5b1461013b57600080fd5b80630fcc0c281161009a5780630fcc0c281461010c578063256929621461012357806354d1f13d1461012b57600080fd5b806309c5eabe146100b657806309c90324146100ec575b600080fd5b3480156100c257600080fd5b506100d66100d1366004612068565b6101f6565b6040516100e39190612156565b60405180910390f35b3480156100f857600080fd5b506100d661010736600461217b565b61048a565b34801561011857600080fd5b506101216104bc565b005b6101216104ef565b61012161053f565b61012161057b565b34801561014757600080fd5b507fffffffffffffffffffffffffffffffffffffffffffffffffffffffff748739275460405173ffffffffffffffffffffffffffffffffffffffff90911681526020016100e3565b61012161019d366004612198565b61058f565b6101216101b0366004612198565b6105cf565b3480156101c157600080fd5b506101e86101d0366004612198565b63389a75e1600c908152600091909152602090205490565b6040519081526020016100e3565b606060008280602001905181019061020e91906121ce565b9050600061023c7f0000000000000000000000000000000000000000000000000000000000000000336105f6565b905061029e7f0000000000000000000000000000000000000000000000000000000000000000836040518060400160405280600481526020017f464f4f44000000000000000000000000000000000000000000000000000000008152506107b6565b610309576040517f08c379a000000000000000000000000000000000000000000000000000000000815260206004820152600f60248201527f746861742773206e6f7420666f6f64000000000000000000000000000000000060448201526064015b60405180910390fd5b6103337f000000000000000000000000000000000000000000000000000000000000000083610861565b610399576040517f08c379a000000000000000000000000000000000000000000000000000000000815260206004820152601760248201527f746861742773206e6f7420666f72206163636f756e74730000000000000000006044820152606401610300565b6103c37f000000000000000000000000000000000000000000000000000000000000000082610875565b506103f17f0000000000000000000000000000000000000000000000000000000000000000828460016108a1565b61041c7f00000000000000000000000000000000000000000000000000000000000000008383610904565b6104497f00000000000000000000000000000000000000000000000000000000000000008284600161096b565b6104737f0000000000000000000000000000000000000000000000000000000000000000826109b3565b505060408051602081019091526000815292915050565b6040805163ffffffff831660208201526060916104b691016040516020818303038152906040526101f6565b92915050565b6104c46109c2565b6040517f56f33501ffd77f9fe44d81e7db7e66a66bdf52ab3e11267cdc6462763604c4c790600090a1565b60006202a30067ffffffffffffffff164201905063389a75e1600c5233600052806020600c2055337fdbf36a107da19e49527a7176a1babf963b4b0ff8cde35ee35d6cd8f1f9ac7e1d600080a250565b63389a75e1600c523360005260006020600c2055337ffa7b8eab7da67f412cc9575ed43464468f9bfbae89d1675917346ca6d8fe3c92600080a2565b6105836109c2565b61058d60006109f8565b565b6105976109c2565b63389a75e1600c52806000526020600c2080544211156105bf57636f5e88186000526004601cfd5b600090556105cc816109f8565b50565b6105d76109c2565b8060601b6105ed57637448fbae6000526004601cfd5b6105cc816109f8565b600080610623847ff9b94d2a933222e58f90359e8ec33041c5f08d7bc4304958d1c52c21991da575610a5e565b6040517fcccf7a8e00000000000000000000000000000000000000000000000000000000815273ffffffffffffffffffffffffffffffffffffffff8581166004830181905292935083169063cccf7a8e90602401602060405180830381865afa158015610694573d6000803e3d6000fd5b505050506040513d601f19601f820116820180604052508101906106b891906121eb565b61071e576040517f08c379a000000000000000000000000000000000000000000000000000000000815260206004820152601b60248201527f4163636f756e743a204f70657261746f72206e6f7420666f756e6400000000006044820152606401610300565b6040517f9507d39a0000000000000000000000000000000000000000000000000000000081526004810182905273ffffffffffffffffffffffffffffffffffffffff831690639507d39a90602401602060405180830381865afa158015610789573d6000803e3d6000fd5b505050506040513d601f19601f820116820180604052508101906107ad919061220d565b95945050505050565b6000806107c284610ba2565b905061080485826040518060400160405280600481526020017f4954454d00000000000000000000000000000000000000000000000000000000815250610c3a565b8061085657506108568184610839887f024accd0d273ef6123273b21662f5cc055a7d58adf98cc1b060edd029af93f7f610c6b565b73ffffffffffffffffffffffffffffffffffffffff169190610c77565b9150505b9392505050565b600061085a8361087084610ba2565b610c9a565b6000806108828484610cc7565b905061088e8484610d2d565b610899848483610d38565b949350505050565b60006108ae858585610e01565b90506108fc81836108df887fb25ea67b55901db62e4b14311a8c1ab178fec3948b4b493a711970a50aa2a2e1610a5e565b73ffffffffffffffffffffffffffffffffffffffff16919061103a565b505050505050565b600061090f83610ba2565b9050600061093d857ff751b4a95c9cfabe52899e09ae113eac17e41cc0cc2dad670d2789ecc1251add610a5e565b9050600061094b82846110e2565b905080156109605761095e8285836111c1565b505b6108fc8684866111d8565b6109ad8484846040518060400160405280600881526020017f4954454d5f55534500000000000000000000000000000000000000000000000081525085611236565b50505050565b6109be828242611250565b5050565b7fffffffffffffffffffffffffffffffffffffffffffffffffffffffff7487392754331461058d576382b429006000526004601cfd5b7fffffffffffffffffffffffffffffffffffffffffffffffffffffffff74873927805473ffffffffffffffffffffffffffffffffffffffff9092169182907f8be0079c531659141344cd1fd0a4f28419497f9722a3daafe3b4186f6b6457e0600080a355565b6040517ffbdfa1ea00000000000000000000000000000000000000000000000000000000815260048101829052600090819073ffffffffffffffffffffffffffffffffffffffff85169063fbdfa1ea90602401600060405180830381865afa158015610ace573d6000803e3d6000fd5b505050506040513d6000823e601f3d9081017fffffffffffffffffffffffffffffffffffffffffffffffffffffffffffffffe0168201604052610b14919081019061224a565b90508051600003610b81576040517f08c379a000000000000000000000000000000000000000000000000000000000815260206004820152601160248201527f6964206e6f7420726567697374657265640000000000000000000000000000006044820152606401610300565b61089981600081518110610b9757610b976122db565b602002602001015190565b6040517f72656769737472792e6974656d0000000000000000000000000000000000000060208201527fffffffff0000000000000000000000000000000000000000000000000000000060e083901b16602d8201526000906031015b604080517fffffffffffffffffffffffffffffffffffffffffffffffffffffffffffffffe0818403018152919052805160209091012092915050565b60006108998383610839877f5d88ced8d8e079072bf73f49fc87661b519c50d79482941abb852ba2b10909cd610a5e565b600061085a8383610a5e565b600061089982610c878686611308565b8151602092830120815191909201201490565b600061085a83837f37c6543901df832fa6900c3db9b6a34ac3cf572b453474ea23c65fb22dee54426113f4565b600080610cd48484611555565b610cde9042612339565b90506000610d21856040518060400160405280601f81526020017f4143434f554e545f5354414d494e415f5245434f564552595f504552494f44008152506115fc565b90506107ad818361237b565b6109be828242611614565b6000610d64847f1229189cff138f94363a6274f6ec5003a4a6372db248c6985d3b3301024eb8ec610a5e565b6040517f6ef23a3d00000000000000000000000000000000000000000000000000000000815260048101859052600384900b602482015273ffffffffffffffffffffffffffffffffffffffff9190911690636ef23a3d906044016020604051808303816000875af1158015610ddd573d6000803e3d6000fd5b505050506040513d601f19601f82011682018060405250810190610899919061238f565b604080517f696e76656e746f72792e696e7374616e63650000000000000000000000000000602080830191909152603282018590527fffffffff0000000000000000000000000000000000000000000000000000000060e085901b16605283015282518083036036018152605690920190925280519101206000610ebb85836040518060400160405280600981526020017f494e56454e544f5259000000000000000000000000000000000000000000000081525061163e565b90508061103257610eec857fd3da495fedd385ac62763d969054ffb19f1777e687374cceb91f1237ddd6bfb3610a5e565b6040517fd923c3c40000000000000000000000000000000000000000000000000000000081526004810184905263ffffffff8516602482015273ffffffffffffffffffffffffffffffffffffffff919091169063d923c3c490604401600060405180830381600087803b158015610f6257600080fd5b505af1158015610f76573d6000803e3d6000fd5b50505050610fa7857f1ee9964c9c16bbb74f9e401f1ab450f99b2343a602036525f23f0da350bc74d060001c610a5e565b6040517f1ab06ee5000000000000000000000000000000000000000000000000000000008152600481018490526024810186905273ffffffffffffffffffffffffffffffffffffffff9190911690631ab06ee5906044015b600060405180830381600087803b15801561101957600080fd5b505af115801561102d573d6000803e3d6000fd5b505050505b509392505050565b60008161104785856110e2565b6110519190612339565b6040517f1ab06ee5000000000000000000000000000000000000000000000000000000008152600481018590526024810182905290915073ffffffffffffffffffffffffffffffffffffffff851690631ab06ee590604401600060405180830381600087803b1580156110c357600080fd5b505af11580156110d7573d6000803e3d6000fd5b505050509392505050565b6040517fdd98e3c900000000000000000000000000000000000000000000000000000000815260048101829052600090819073ffffffffffffffffffffffffffffffffffffffff85169063dd98e3c990602401600060405180830381865afa158015611152573d6000803e3d6000fd5b505050506040513d6000823e601f3d9081017fffffffffffffffffffffffffffffffffffffffffffffffffffffffffffffffe01682016040526111989190810190612402565b905080516000036111ad5760009150506104b6565b80806020019051810190610899919061220d565b6000816111ce85856110e2565b6110519190612437565b60006111e26116ec565b905060005b815181101561122f5761121d61121686848481518110611209576112096122db565b6020026020010151610a5e565b85856118a9565b806112278161244a565b9150506111e7565b5050505050565b6000611243858585611998565b90506108fc8682846119ed565b61127a837f342adee7430e96bca6f5d4fe57ba5155dc7271000494e77110c292d51ae887fa610a5e565b6040517f1ab06ee5000000000000000000000000000000000000000000000000000000008152600481018490526024810183905273ffffffffffffffffffffffffffffffffffffffff9190911690631ab06ee590604401600060405180830381600087803b1580156112eb57600080fd5b505af11580156112ff573d6000803e3d6000fd5b50505050505050565b6040517fdd98e3c90000000000000000000000000000000000000000000000000000000081526004810182905260609060009073ffffffffffffffffffffffffffffffffffffffff85169063dd98e3c990602401600060405180830381865afa158015611379573d6000803e3d6000fd5b505050506040513d6000823e601f3d9081017fffffffffffffffffffffffffffffffffffffffffffffffffffffffffffffffe01682016040526113bf9190810190612402565b905080516000036113e05750506040805160208101909152600081526104b6565b808060200190518101906108999190612482565b600080611421857f0e980fab8730829e1930c8cdc024ae35650d9eec12d20425b19fc4ade883178c610a5e565b6040517fcccf7a8e0000000000000000000000000000000000000000000000000000000081526004810186905290915073ffffffffffffffffffffffffffffffffffffffff82169063cccf7a8e90602401602060405180830381865afa15801561148f573d6000803e3d6000fd5b505050506040513d601f19601f820116820180604052508101906114b391906121eb565b801561085657506040517f9507d39a00000000000000000000000000000000000000000000000000000000815260048101859052839073ffffffffffffffffffffffffffffffffffffffff831690639507d39a90602401602060405180830381865afa158015611527573d6000803e3d6000fd5b505050506040513d601f19601f8201168201806040525081019061154b919061220d565b1495945050505050565b6000611581837f5f9759544a286ad42df1aa1cab6dca162b48885d3060ac74aecbf8ff4483ad1b610a5e565b73ffffffffffffffffffffffffffffffffffffffff16639507d39a836040518263ffffffff1660e01b81526004016115bb91815260200190565b602060405180830381865afa1580156115d8573d6000803e3d6000fd5b505050506040513d601f19601f8201168201806040525081019061085a919061220d565b60008061160883611a39565b90506108998482611a4c565b61127a837f5f9759544a286ad42df1aa1cab6dca162b48885d3060ac74aecbf8ff4483ad1b610a5e565b60008061166b857f5d88ced8d8e079072bf73f49fc87661b519c50d79482941abb852ba2b10909cd610a5e565b905061169183610c8773ffffffffffffffffffffffffffffffffffffffff841687611308565b915081611032576040517f6437197700000000000000000000000000000000000000000000000000000000815273ffffffffffffffffffffffffffffffffffffffff821690636437197790610fff90879087906004016124cb565b60408051600680825260e08201909252606091600091906020820160c0803683370190505090507f7f11100822994501b15df98b1bd24b3eb0d73863f512da0bf8f165b0150c537d60001c8160008151811061174a5761174a6122db565b6020026020010181815250507f5b5054d7f0fe411d96cb1c9605f65b42805d28ce5bb4ce216455e888cdc5373c60001c8160018151811061178d5761178d6122db565b6020026020010181815250507f036642765aca64d0dc0aa7a1a5b293901589aec219fb89c7c5e7c042e927386c60001c816002815181106117d0576117d06122db565b6020026020010181815250507f3e4a46df40b228c2d9f3b8ddde72a1c29045de822f058698341c5adb1d02f17d60001c81600381518110611813576118136122db565b6020026020010181815250507f1229189cff138f94363a6274f6ec5003a4a6372db248c6985d3b3301024eb8ec60001c81600481518110611856576118566122db565b6020026020010181815250507f9d3e17e61f5f07f24e173edb93a8af1d5b797396ea02343c0feee16bdf497d4f60001c81600581518110611899576118996122db565b6020908102919091010152919050565b6000806118b7858585611a78565b915091506118c482611b6d565b156118d0575050505050565b8473ffffffffffffffffffffffffffffffffffffffff166332e5cc30846118f78585611bab565b604080517fffffffff0000000000000000000000000000000000000000000000000000000060e086901b16815260048101939093528151600390810b60248501526020830151810b604485015290820151810b6064840152606090910151900b608482015260a401600060405180830381600087803b15801561197957600080fd5b505af115801561198d573d6000803e3d6000fd5b505050505050505050565b60008383836040516020016119af939291906124e4565b604080517fffffffffffffffffffffffffffffffffffffffffffffffffffffffffffffffe08184030181529190528051602090910120949350505050565b6109ad8282611a1c867fb25ea67b55901db62e4b14311a8c1ab178fec3948b4b493a711970a50aa2a2e1610a5e565b73ffffffffffffffffffffffffffffffffffffffff1691906111c1565b600081604051602001610bfe919061255c565b6000611581837fb25ea67b55901db62e4b14311a8c1ab178fec3948b4b493a711970a50aa2a2e1610a5e565b6040805160808082018352600080835260208084018290528385018290526060808501839052855193840186528284528382018390528386018390528381018390528551600280825291810187529495939492939091830190803683370190505090508481600081518110611aef57611aef6122db565b6020026020010181815250508381600181518110611b0f57611b0f6122db565b6020026020010181815250506000611b278783611c4b565b905080600081518110611b3c57611b3c6122db565b602002602001015181600181518110611b5757611b576122db565b6020026020010151935093505050935093915050565b805160009060030b158015611b875750602082015160030b155b8015611b985750604082015160030b155b80156104b65750506060015160030b1590565b6040805160808101825260008082526020820181905291810182905260608101919091526000829050836020015181602001818151611bea91906125a1565b60030b9052506040808501519082018051611c069083906125a1565b600390810b90915260608601516000910b1315905061085a576000611c2a82611e2e565b9050611c3b82866060015183611e81565b60030b6060830152509392505050565b606060008373ffffffffffffffffffffffffffffffffffffffff16634323c4ef846040518263ffffffff1660e01b8152600401611c8891906125e3565b600060405180830381865afa158015611ca5573d6000803e3d6000fd5b505050506040513d6000823e601f3d9081017fffffffffffffffffffffffffffffffffffffffffffffffffffffffffffffffe0168201604052611ceb9190810190612627565b90506000815167ffffffffffffffff811115611d0957611d09611fa4565b604051908082528060200260200182016040528015611d7957816020015b6040805160808101825260008082526020808301829052928201819052606082015282527fffffffffffffffffffffffffffffffffffffffffffffffffffffffffffffffff909201910181611d275790505b50905060005b8251811015611e25576000838281518110611d9c57611d9c6122db565b60200260200101515111611dd357604080516080810182526000808252602082018190529181018290526060810191909152611df5565b611df5838281518110611de857611de86122db565b6020026020010151611edd565b828281518110611e0757611e076122db565b60200260200101819052508080611e1d9061244a565b915050611d7f565b50949350505050565b6000806103e883602001518460000151611e4891906125a1565b6040850151611e59906103e86125a1565b611e6391906126d8565b611e6d91906126ff565b905060008160030b136104b657600061085a565b60008284606001818151611e9591906125a1565b600390810b90915260608601516000910b12159050611eb657600060608501525b8160030b846060015160030b1315611ed357600382900b60608501525b5050506060015190565b6040805160808101825260008082526020820181905291810182905260608101919091526104b682806020019051810190611f18919061220d565b604080516080810182526000808252602082018190529181018290526060810191909152604051806080016040528060c084901c67ffffffffffffffff1660030b8152602001608084901c67ffffffffffffffff1660030b8152602001604084901c67ffffffffffffffff1660030b81526020018367ffffffffffffffff1660030b8152509050919050565b7f4e487b7100000000000000000000000000000000000000000000000000000000600052604160045260246000fd5b604051601f82017fffffffffffffffffffffffffffffffffffffffffffffffffffffffffffffffe016810167ffffffffffffffff8111828210171561201a5761201a611fa4565b604052919050565b600067ffffffffffffffff82111561203c5761203c611fa4565b50601f017fffffffffffffffffffffffffffffffffffffffffffffffffffffffffffffffe01660200190565b60006020828403121561207a57600080fd5b813567ffffffffffffffff81111561209157600080fd5b8201601f810184136120a257600080fd5b80356120b56120b082612022565b611fd3565b8181528560208385010111156120ca57600080fd5b81602084016020830137600091810160200191909152949350505050565b60005b838110156121035781810151838201526020016120eb565b50506000910152565b600081518084526121248160208601602086016120e8565b601f017fffffffffffffffffffffffffffffffffffffffffffffffffffffffffffffffe0169290920160200192915050565b60208152600061085a602083018461210c565b63ffffffff811681146105cc57600080fd5b60006020828403121561218d57600080fd5b813561085a81612169565b6000602082840312156121aa57600080fd5b813573ffffffffffffffffffffffffffffffffffffffff8116811461085a57600080fd5b6000602082840312156121e057600080fd5b815161085a81612169565b6000602082840312156121fd57600080fd5b8151801515811461085a57600080fd5b60006020828403121561221f57600080fd5b5051919050565b600067ffffffffffffffff82111561224057612240611fa4565b5060051b60200190565b6000602080838503121561225d57600080fd5b825167ffffffffffffffff81111561227457600080fd5b8301601f8101851361228557600080fd5b80516122936120b082612226565b81815260059190911b820183019083810190878311156122b257600080fd5b928401925b828410156122d0578351825292840192908401906122b7565b979650505050505050565b7f4e487b7100000000000000000000000000000000000000000000000000000000600052603260045260246000fd5b7f4e487b7100000000000000000000000000000000000000000000000000000000600052601160045260246000fd5b818103818111156104b6576104b661230a565b7f4e487b7100000000000000000000000000000000000000000000000000000000600052601260045260246000fd5b60008261238a5761238a61234c565b500490565b6000602082840312156123a157600080fd5b81518060030b811461085a57600080fd5b60006123c06120b084612022565b90508281528383830111156123d457600080fd5b61085a8360208301846120e8565b600082601f8301126123f357600080fd5b61085a838351602085016123b2565b60006020828403121561241457600080fd5b815167ffffffffffffffff81111561242b57600080fd5b610899848285016123e2565b808201808211156104b6576104b661230a565b60007fffffffffffffffffffffffffffffffffffffffffffffffffffffffffffffffff820361247b5761247b61230a565b5060010190565b60006020828403121561249457600080fd5b815167ffffffffffffffff8111156124ab57600080fd5b8201601f810184136124bc57600080fd5b610899848251602084016123b2565b828152604060208201526000610899604083018461210c565b7f69732e646174610000000000000000000000000000000000000000000000000081528360078201527fffffffff000000000000000000000000000000000000000000000000000000008360e01b1660278201526000825161254d81602b8501602087016120e8565b91909101602b01949350505050565b7f69732e636f6e66696700000000000000000000000000000000000000000000008152600082516125948160098501602087016120e8565b9190910160090192915050565b600381810b9083900b01637fffffff81137fffffffffffffffffffffffffffffffffffffffffffffffffffffffff80000000821217156104b6576104b661230a565b6020808252825182820181905260009190848201906040850190845b8181101561261b578351835292840192918401916001016125ff565b50909695505050505050565b6000602080838503121561263a57600080fd5b825167ffffffffffffffff8082111561265257600080fd5b818501915085601f83011261266657600080fd5b81516126746120b082612226565b81815260059190911b8301840190848101908883111561269357600080fd5b8585015b838110156126cb578051858111156126af5760008081fd5b6126bd8b89838a01016123e2565b845250918601918601612697565b5098975050505050505050565b60008260030b8260030b028060030b91508082146126f8576126f861230a565b5092915050565b60008160030b8360030b806127165761271661234c565b7fffffffffffffffffffffffffffffffffffffffffffffffffffffffffffffffff81147fffffffffffffffffffffffffffffffffffffffffffffffffffffffff800000008314161561276a5761276a61230a565b9005939250505056fea2646970667358221220628f12c4ee093de407570c598d5ab10a60e3c58b8102b2b148841880639e10cb64736f6c63430008110033","linkReferences":{}},"methodIdentifiers":{"cancelOwnershipHandover()":"54d1f13d","completeOwnershipHandover(address)":"f04e283e","deprecate()":"0fcc0c28","execute(bytes)":"09c5eabe","executeTyped(uint32)":"09c90324","owner()":"8da5cb5b","ownershipHandoverExpiresAt(address)":"fee81cf4","renounceOwnership()":"715018a6","requestOwnershipHandover()":"25692962","transferOwnership(address)":"f2fde38b"},"id":257}