{"abi":[{"type":"constructor","inputs":[{"name":"_world","type":"address","internalType":"contract IWorld"},{"name":"_components","type":"address","internalType":"address"}],"stateMutability":"nonpayable"},{"type":"function","name":"cancelOwnershipHandover","inputs":[],"outputs":[],"stateMutability":"payable"},{"type":"function","name":"completeOwnershipHandover","inputs":[{"name":"pendingOwner","type":"address","internalType":"address"}],"outputs":[],"stateMutability":"payable"},{"type":"function","name":"deprecate","inputs":[],"outputs":[],"stateMutability":"nonpayable"},{"type":"function","name":"execute","inputs":[{"name":"arguments","type":"bytes","internalType":"bytes"}],"outputs":[{"name":"","type":"bytes","internalType":"bytes"}],"stateMutability":"nonpayable"},{"type":"function","name":"executeTyped","inputs":[{"name":"assignerID","type":"uint256","internalType":"uint256"},{"name":"index","type":"uint32","internalType":"uint32"},{"name":"amt","type":"uint256","internalType":"uint256"}],"outputs":[{"name":"","type":"bytes","internalType":"bytes"}],"stateMutability":"nonpayable"},{"type":"function","name":"owner","inputs":[],"outputs":[{"name":"result","type":"address","internalType":"address"}],"stateMutability":"view"},{"type":"function","name":"ownershipHandoverExpiresAt","inputs":[{"name":"pendingOwner","type":"address","internalType":"address"}],"outputs":[{"name":"result","type":"uint256","internalType":"uint256"}],"stateMutability":"view"},{"type":"function","name":"renounceOwnership","inputs":[],"outputs":[],"stateMutability":"payable"},{"type":"function","name":"requestOwnershipHandover","inputs":[],"outputs":[],"stateMutability":"payable"},{"type":"function","name":"transferOwnership","inputs":[{"name":"newOwner","type":"address","internalType":"address"}],"outputs":[],"stateMutability":"payable"},{"type":"event","name":"OwnershipHandoverCanceled","inputs":[{"name":"pendingOwner","type":"address","indexed":true,"internalType":"address"}],"anonymous":false},{"type":"event","name":"OwnershipHandoverRequested","inputs":[{"name":"pendingOwner","type":"address","indexed":true,"internalType":"address"}],"anonymous":false},{"type":"event","name":"OwnershipTransferred","inputs":[{"name":"oldOwner","type":"address","indexed":true,"internalType":"address"},{"name":"newOwner","type":"address","indexed":true,"internalType":"address"}],"anonymous":false},{"type":"event","name":"SystemDeprecated","inputs":[],"anonymous":false},{"type":"error","name":"AlreadyInitialized","inputs":[]},{"type":"error","name":"NewOwnerIsZeroAddress","inputs":[]},{"type":"error","name":"NoHandoverRequest","inputs":[]},{"type":"error","name":"Unauthorized","inputs":[]}],"bytecode":{"object":"0x60c06040523480156200001157600080fd5b5060405162004f5638038062004f5683398101604081905262000034916200012f565b81816200004133620000dc565b6001600160a01b03811615620000585780620000bd565b816001600160a01b031663ba62fbe46040518163ffffffff1660e01b8152600401602060405180830381865afa15801562000097573d6000803e3d6000fd5b505050506040513d601f19601f82011682018060405250810190620000bd91906200016e565b6001600160a01b039081166080529190911660a0525062000195915050565b6001600160a01b0316638b78c6d8198190558060007f8be0079c531659141344cd1fd0a4f28419497f9722a3daafe3b4186f6b6457e08180a35b50565b6001600160a01b03811681146200011657600080fd5b600080604083850312156200014357600080fd5b8251620001508162000119565b6020840151909250620001638162000119565b809150509250929050565b6000602082840312156200018157600080fd5b81516200018e8162000119565b9392505050565b60805160a051614d5f620001f7600039600050506000818161021e015281816102bb015281816102e7015281816103790152818161040a015281816104390152818161046901528181610495015281816104c101526104ed0152614d5f6000f3fe6080604052600436106100b15760003560e01c80638da5cb5b11610069578063f04e283e1161004e578063f04e283e1461018f578063f2fde38b146101a2578063fee81cf4146101b557600080fd5b80638da5cb5b1461011b578063a693008c1461016f57600080fd5b8063256929621161009a578063256929621461010357806354d1f13d1461010b578063715018a61461011357600080fd5b806309c5eabe146100b65780630fcc0c28146100ec575b600080fd5b3480156100c257600080fd5b506100d66100d1366004614243565b6101f6565b6040516100e39190614331565b60405180910390f35b3480156100f857600080fd5b5061010161053b565b005b61010161056e565b6101016105be565b6101016105fa565b34801561012757600080fd5b507fffffffffffffffffffffffffffffffffffffffffffffffffffffffff748739275460405173ffffffffffffffffffffffffffffffffffffffff90911681526020016100e3565b34801561017b57600080fd5b506100d661018a366004614356565b61060e565b61010161019d36600461438e565b610650565b6101016101b036600461438e565b610690565b3480156101c157600080fd5b506101e86101d036600461438e565b63389a75e1600c908152600091909152602090205490565b6040519081526020016100e3565b606060008060008480602001905181019061021191906143c4565b92509250925060006102437f0000000000000000000000000000000000000000000000000000000000000000846106b7565b9050806000036102b4576040517f08c379a000000000000000000000000000000000000000000000000000000000815260206004820152601660248201527f5265636970653a20646f6573206e6f742065786973740000000000000000000060448201526064015b60405180910390fd5b60006102e07f00000000000000000000000000000000000000000000000000000000000000003361079b565b905061030e7f0000000000000000000000000000000000000000000000000000000000000000868484610952565b610374576040517f08c379a000000000000000000000000000000000000000000000000000000000815260206004820152600c60248201527f6e6f742061737369676e6572000000000000000000000000000000000000000060448201526064016102ab565b61039f7f000000000000000000000000000000000000000000000000000000000000000085836109d4565b610405576040517f08c379a000000000000000000000000000000000000000000000000000000000815260206004820152601460248201527f5265636970653a2072657173206e6f74206d657400000000000000000000000060448201526064016102ab565b6104317f00000000000000000000000000000000000000000000000000000000000000008385846109f7565b6000806104607f0000000000000000000000000000000000000000000000000000000000000000878786610ac9565b915091506104907f0000000000000000000000000000000000000000000000000000000000000000858786610b1c565b6104bc7f0000000000000000000000000000000000000000000000000000000000000000848484610b7b565b6104e87f0000000000000000000000000000000000000000000000000000000000000000848888610bc3565b6105127f000000000000000000000000000000000000000000000000000000000000000084610c05565b604080516000602082015201604051602081830303815290604052975050505050505050919050565b610543610c14565b6040517f56f33501ffd77f9fe44d81e7db7e66a66bdf52ab3e11267cdc6462763604c4c790600090a1565b60006202a30067ffffffffffffffff164201905063389a75e1600c5233600052806020600c2055337fdbf36a107da19e49527a7176a1babf963b4b0ff8cde35ee35d6cd8f1f9ac7e1d600080a250565b63389a75e1600c523360005260006020600c2055337ffa7b8eab7da67f412cc9575ed43464468f9bfbae89d1675917346ca6d8fe3c92600080a2565b610602610c14565b61060c6000610c4a565b565b604080516020810185905263ffffffff84168183015260608082018490528251808303820181526080909201909252610646906101f6565b90505b9392505050565b610658610c14565b63389a75e1600c52806000526020600c20805442111561068057636f5e88186000526004601cfd5b6000905561068d81610c4a565b50565b610698610c14565b8060601b6106ae57637448fbae6000526004601cfd5b61068d81610c4a565b6000806106e4847fc549816d6c3e6a568535a0df56aff099272d447c7526e27e4b6fcbd3cc7df5ab610cb0565b905060006106f184610df4565b6040517fcccf7a8e0000000000000000000000000000000000000000000000000000000081526004810182905290915073ffffffffffffffffffffffffffffffffffffffff83169063cccf7a8e90602401602060405180830381865afa15801561075f573d6000803e3d6000fd5b505050506040513d601f19601f8201168201806040525081019061078391906143fd565b61078e576000610790565b805b925050505b92915050565b6000806107c8847ff9b94d2a933222e58f90359e8ec33041c5f08d7bc4304958d1c52c21991da575610cb0565b6040517fcccf7a8e00000000000000000000000000000000000000000000000000000000815273ffffffffffffffffffffffffffffffffffffffff8581166004830181905292935083169063cccf7a8e90602401602060405180830381865afa158015610839573d6000803e3d6000fd5b505050506040513d601f19601f8201168201806040525081019061085d91906143fd565b6108c3576040517f08c379a000000000000000000000000000000000000000000000000000000000815260206004820152601b60248201527f4163636f756e743a204f70657261746f72206e6f7420666f756e64000000000060448201526064016102ab565b6040517f9507d39a0000000000000000000000000000000000000000000000000000000081526004810182905273ffffffffffffffffffffffffffffffffffffffff831690639507d39a90602401602060405180830381865afa15801561092e573d6000803e3d6000fd5b505050506040513d601f19601f82011682018060405250810190610790919061441f565b60008061097f867f31ac3bd9ff93491555448947dd00c7535790caec346584c2d495cc80bde8d9f1610cb0565b905061098b8185610e8c565b1561099a5760019150506109cc565b60006109a7828787610f49565b9050806000036109bc576000925050506109cc565b6109c7878786610ff3565b925050505b949350505050565b6000806109e18585611040565b90506109ee858285611054565b95945050505050565b6000610a23857f1229189cff138f94363a6274f6ec5003a4a6372db248c6985d3b3301024eb8ec610cb0565b73ffffffffffffffffffffffffffffffffffffffff16639507d39a856040518263ffffffff1660e01b8152600401610a5d91815260200190565b608060405180830381865afa158015610a7a573d6000803e3d6000fd5b505050506040513d601f19601f82011682018060405250810190610a9e919061444f565b606001519050610ac18583610ab2866110d2565b610abc90856144fb565b6110eb565b505050505050565b606080600080610ada8888886112d9565b91509150610af28886846000015185602001516115df565b610b06888683600001518460200151611641565b8051602090910151909890975095505050505050565b6000610b48857ff751b4a95c9cfabe52899e09ae113eac17e41cc0cc2dad670d2789ecc1251add610cb0565b90506000610b56828661169c565b90508015610ac157610b728284610b6d8488614522565b61177b565b50505050505050565b610bbd8484846040518060400160405280600a81526020017f4954454d5f544f54414c0000000000000000000000000000000000000000000081525085611823565b50505050565b610bbd8484846040518060400160405280600b81526020017f43524146545f544f54414c000000000000000000000000000000000000000000815250856118d6565b610c108282426118f0565b5050565b7fffffffffffffffffffffffffffffffffffffffffffffffffffffffff7487392754331461060c576382b429006000526004601cfd5b7fffffffffffffffffffffffffffffffffffffffffffffffffffffffff74873927805473ffffffffffffffffffffffffffffffffffffffff9092169182907f8be0079c531659141344cd1fd0a4f28419497f9722a3daafe3b4186f6b6457e0600080a355565b6040517ffbdfa1ea00000000000000000000000000000000000000000000000000000000815260048101829052600090819073ffffffffffffffffffffffffffffffffffffffff85169063fbdfa1ea90602401600060405180830381865afa158015610d20573d6000803e3d6000fd5b505050506040513d6000823e601f3d9081017fffffffffffffffffffffffffffffffffffffffffffffffffffffffffffffffe0168201604052610d6691908101906145c3565b90508051600003610dd3576040517f08c379a000000000000000000000000000000000000000000000000000000000815260206004820152601160248201527f6964206e6f74207265676973746572656400000000000000000000000000000060448201526064016102ab565b6109cc81600081518110610de957610de96145f8565b602002602001015190565b6040517f72656769737472792e726563697065000000000000000000000000000000000060208201527fffffffff0000000000000000000000000000000000000000000000000000000060e083901b16602f8201526000906033015b604080517fffffffffffffffffffffffffffffffffffffffffffffffffffffffffffffffe0818403018152919052805160209091012092915050565b6040517ffbdfa1ea0000000000000000000000000000000000000000000000000000000081526004810182905260009073ffffffffffffffffffffffffffffffffffffffff84169063fbdfa1ea90602401600060405180830381865afa158015610efa573d6000803e3d6000fd5b505050506040513d6000823e601f3d9081017fffffffffffffffffffffffffffffffffffffffffffffffffffffffffffffffe0168201604052610f4091908101906145c3565b51159392505050565b600080610f5684846119a0565b6040517fcccf7a8e0000000000000000000000000000000000000000000000000000000081526004810182905290915073ffffffffffffffffffffffffffffffffffffffff86169063cccf7a8e90602401602060405180830381865afa158015610fc4573d6000803e3d6000fd5b505050506040513d601f19601f82011682018060405250810190610fe891906143fd565b6109cc5760006109ee565b6000808061102b611024877f3be9611062b8582cf4b9a4eafe577dbde7dcd7779a1efb46d73e212026c4b0cc611a1b565b8686611a27565b63ffffffff9081169116149695505050505050565b60606106498361104f84611ae0565b611b40565b6000825160000361106757506001610649565b60006110738585611c09565b905060005b84518110156110c6576110a58685848481518110611098576110986145f8565b6020026020010151612187565b6110b457600092505050610649565b806110be81614627565b915050611078565b50600195945050505050565b6000638000000082106110e7576110e761224f565b5090565b600080611118857f1229189cff138f94363a6274f6ec5003a4a6372db248c6985d3b3301024eb8ec610cb0565b90506000611126868661225d565b611130908561465f565b905060006111b98373ffffffffffffffffffffffffffffffffffffffff16639507d39a886040518263ffffffff1660e01b815260040161117291815260200190565b608060405180830381865afa15801561118f573d6000803e3d6000fd5b505050506040513d601f19601f820116820180604052508101906111b3919061444f565b836122c3565b905060008160030b1215611229576040517f08c379a000000000000000000000000000000000000000000000000000000000815260206004820152601d60248201527f4163636f756e743a20696e73756666696369656e74207374616d696e6100000060448201526064016102ab565b6112338787612304565b6040517f6ef23a3d00000000000000000000000000000000000000000000000000000000815260048101879052600383900b602482015273ffffffffffffffffffffffffffffffffffffffff841690636ef23a3d906044016020604051808303816000875af11580156112aa573d6000803e3d6000fd5b505050506040513d601f19601f820116820180604052508101906112ce91906146a1565b979650505050505050565b604080518082018252606080825260208083018290528351808501855282815290810182905283516002808252928101909452919260009181602001602082028036833701905050905061132c8561230f565b8160008151811061133f5761133f6145f8565b6020026020010181815250506113548561236f565b81600181518110611367576113676145f8565b6020908102919091010152600061139e877fc6a29e9d963ddf0ecc32d72ae16fddf22661517259c701d58065adfefd57eb02610cb0565b73ffffffffffffffffffffffffffffffffffffffff1663088dd0b9836040518263ffffffff1660e01b81526004016113d691906146bc565b600060405180830381865afa1580156113f3573d6000803e3d6000fd5b505050506040513d6000823e601f3d9081017fffffffffffffffffffffffffffffffffffffffffffffffffffffffffffffffe01682016040526114399190810190614700565b90506000611467887ffb08db6d59480b008d636f90eaab4796d6e70486db57ea5b6d38235c97e3a3ec610cb0565b73ffffffffffffffffffffffffffffffffffffffff1663088dd0b9846040518263ffffffff1660e01b815260040161149f91906146bc565b600060405180830381865afa1580156114bc573d6000803e3d6000fd5b505050506040513d6000823e601f3d9081017fffffffffffffffffffffffffffffffffffffffffffffffffffffffffffffffe01682016040526115029190810190614813565b90506115288160008151811061151a5761151a6145f8565b6020026020010151876123cf565b61153e8160018151811061151a5761151a6145f8565b60405180604001604052808360008151811061155c5761155c6145f8565b602002602001015181526020018260008151811061157c5761157c6145f8565b60200260200101518152506040518060400160405280846001815181106115a5576115a56145f8565b60200260200101518152602001836001815181106115c5576115c56145f8565b602002602001015181525094509450505050935093915050565b60006115ec85858561241c565b905061163a818361161d887fb25ea67b55901db62e4b14311a8c1ab178fec3948b4b493a711970a50aa2a2e1610cb0565b73ffffffffffffffffffffffffffffffffffffffff16919061273f565b5050505050565b600061164e85858561241c565b905061163a818361167f887fb25ea67b55901db62e4b14311a8c1ab178fec3948b4b493a711970a50aa2a2e1610cb0565b73ffffffffffffffffffffffffffffffffffffffff16919061279b565b6040517fdd98e3c900000000000000000000000000000000000000000000000000000000815260048101829052600090819073ffffffffffffffffffffffffffffffffffffffff85169063dd98e3c990602401600060405180830381865afa15801561170c573d6000803e3d6000fd5b505050506040513d6000823e601f3d9081017fffffffffffffffffffffffffffffffffffffffffffffffffffffffffffffffe01682016040526117529190810190614914565b90508051600003611767576000915050610795565b808060200190518101906109cc919061441f565b600081611788858561169c565b6117929190614949565b6040517f1ab06ee5000000000000000000000000000000000000000000000000000000008152600481018590526024810182905290915073ffffffffffffffffffffffffffffffffffffffff851690631ab06ee590604401600060405180830381600087803b15801561180457600080fd5b505af1158015611818573d6000803e3d6000fd5b505050509392505050565b6000835167ffffffffffffffff81111561183f5761183f61417f565b604051908082528060200260200182016040528015611868578160200160208202803683370190505b50905060005b84518110156118ca5761189b8686838151811061188d5761188d6145f8565b6020026020010151866127f7565b8282815181106118ad576118ad6145f8565b6020908102919091010152806118c281614627565b91505061186e565b50610ac186828461284c565b60006118e38585856127f7565b9050610ac186828461287b565b61191a837f342adee7430e96bca6f5d4fe57ba5155dc7271000494e77110c292d51ae887fa610cb0565b6040517f1ab06ee5000000000000000000000000000000000000000000000000000000008152600481018490526024810183905273ffffffffffffffffffffffffffffffffffffffff9190911690631ab06ee5906044015b600060405180830381600087803b15801561198c57600080fd5b505af1158015610b72573d6000803e3d6000fd5b6040517f72656c6174696f6e000000000000000000000000000000000000000000000000602082015260288101839052604881018290526000906068015b604080517fffffffffffffffffffffffffffffffffffffffffffffffffffffffffffffffe081840301815291905280516020909101209392505050565b60006106498383610cb0565b6040805160028082526060820183526000928392839290916020830190803683370190505090508481600081518110611a6257611a626145f8565b6020026020010181815250508381600181518110611a8257611a826145f8565b6020026020010181815250506000611a9a87836128c7565b905080600081518110611aaf57611aaf6145f8565b602002602001015181600181518110611aca57611aca6145f8565b6020026020010151935093505050935093915050565b6040517f7265636970652e726571756972656d656e74000000000000000000000000000060208201527fffffffff0000000000000000000000000000000000000000000000000000000060e083901b166032820152600090603601610e50565b6060611b6c837fde0f9b459fab67ff56929343dacb07b0c0a1f8509d3184dc6d736f68b80381de610cb0565b73ffffffffffffffffffffffffffffffffffffffff1663fbdfa1ea836040518263ffffffff1660e01b8152600401611ba691815260200190565b600060405180830381865afa158015611bc3573d6000803e3d6000fd5b505050506040513d6000823e601f3d9081017fffffffffffffffffffffffffffffffffffffffffffffffffffffffffffffffe016820160405261064991908101906145c3565b60606000611c37847f024accd0d273ef6123273b21662f5cc055a7d58adf98cc1b060edd029af93f7f610cb0565b90506000611c65857f787589c9eda599ea35279a6d93e360e8fdc5402255545ca394f5033f5e58ed42610cb0565b90506000611c93867f62adc4221185187a288916c2630b5e1f37e9437c5b68d55bc59b9debc23f19d0610cb0565b90506000611cc1877fb25ea67b55901db62e4b14311a8c1ab178fec3948b4b493a711970a50aa2a2e1610cb0565b90506000865167ffffffffffffffff811115611cdf57611cdf61417f565b604051908082528060200260200182016040528015611d4157816020015b611d2e60405180608001604052806060815260200160608152602001600063ffffffff168152602001600081525090565b815260200190600190039081611cfd5790505b50905060005b875181101561217b5760405180608001604052808773ffffffffffffffffffffffffffffffffffffffff16639507d39a8b8581518110611d8957611d896145f8565b60200260200101516040518263ffffffff1660e01b8152600401611daf91815260200190565b600060405180830381865afa158015611dcc573d6000803e3d6000fd5b505050506040513d6000823e601f3d9081017fffffffffffffffffffffffffffffffffffffffffffffffffffffffffffffffe0168201604052611e12919081019061495c565b81526020018673ffffffffffffffffffffffffffffffffffffffff16639507d39a8b8581518110611e4557611e456145f8565b60200260200101516040518263ffffffff1660e01b8152600401611e6b91815260200190565b600060405180830381865afa158015611e88573d6000803e3d6000fd5b505050506040513d6000823e601f3d9081017fffffffffffffffffffffffffffffffffffffffffffffffffffffffffffffffe0168201604052611ece919081019061495c565b81526020018573ffffffffffffffffffffffffffffffffffffffff1663cccf7a8e8b8581518110611f0157611f016145f8565b60200260200101516040518263ffffffff1660e01b8152600401611f2791815260200190565b602060405180830381865afa158015611f44573d6000803e3d6000fd5b505050506040513d601f19601f82011682018060405250810190611f6891906143fd565b611f73576000612008565b8573ffffffffffffffffffffffffffffffffffffffff16639507d39a8b8581518110611fa157611fa16145f8565b60200260200101516040518263ffffffff1660e01b8152600401611fc791815260200190565b602060405180830381865afa158015611fe4573d6000803e3d6000fd5b505050506040513d601f19601f8201168201806040525081019061200891906149a5565b63ffffffff1681526020018473ffffffffffffffffffffffffffffffffffffffff1663cccf7a8e8b8581518110612041576120416145f8565b60200260200101516040518263ffffffff1660e01b815260040161206791815260200190565b602060405180830381865afa158015612084573d6000803e3d6000fd5b505050506040513d601f19601f820116820180604052508101906120a891906143fd565b6120b3576000612148565b8473ffffffffffffffffffffffffffffffffffffffff16639507d39a8b85815181106120e1576120e16145f8565b60200260200101516040518263ffffffff1660e01b815260040161210791815260200190565b602060405180830381865afa158015612124573d6000803e3d6000fd5b505050506040513d601f19601f82011682018060405250810190612148919061441f565b81525082828151811061215d5761215d6145f8565b6020026020010181905250808061217390614627565b915050611d47565b50979650505050505050565b600080600061219584612a55565b909250905060008260038111156121ae576121ae6149c2565b036121c8576121bf86868684612a6e565b92505050610649565b60038260038111156121dc576121dc6149c2565b036121ed576121bf86868684612b2a565b6040517f08c379a000000000000000000000000000000000000000000000000000000000815260206004820152601b60248201527f48616e646c6572206e6f742079657420696d706c656d656e746564000000000060448201526064016102ab565b6335278d126000526004601cfd5b60008061226a8484612be1565b61227490426149f1565b905060006122b7856040518060400160405280601f81526020017f4143434f554e545f5354414d494e415f5245434f564552595f504552494f4400815250612c88565b90506107908183614a33565b6000808284606001516122d6919061465f565b905060006122e385612ca0565b90508060030b8260030b13156122fc5791506107959050565b509392505050565b610c10828242612cf3565b6040517f7265636970652e696e707574000000000000000000000000000000000000000060208201527fffffffff0000000000000000000000000000000000000000000000000000000060e083901b16602c820152600090603001610e50565b6040517f7265636970652e6f75747075740000000000000000000000000000000000000060208201527fffffffff0000000000000000000000000000000000000000000000000000000060e083901b16602d820152600090603101610e50565b60005b825181101561241757818382815181106123ee576123ee6145f8565b602002602001018181516124029190614522565b9052508061240f81614627565b9150506123d2565b505050565b60606000825167ffffffffffffffff81111561243a5761243a61417f565b604051908082528060200260200182016040528015612463578160200160208202803683370190505b50905060005b83518110156124c45761249585858381518110612488576124886145f8565b6020026020010151612d1d565b8282815181106124a7576124a76145f8565b6020908102919091010152806124bc81614627565b915050612469565b5060008061250887846040518060400160405280600981526020017f494e56454e544f52590000000000000000000000000000000000000000000000815250612d84565b91509150801561251d57829350505050610649565b6000612549887fd3da495fedd385ac62763d969054ffb19f1777e687374cceb91f1237ddd6bfb3610cb0565b90506000612577897f1ee9964c9c16bbb74f9e401f1ab450f99b2343a602036525f23f0da350bc74d0610cb0565b905060005b8751811015612731576000868281518110612599576125996145f8565b602002602001015190508582815181106125b5576125b56145f8565b602002602001015161271e576126018b826040518060400160405280600981526020017f494e56454e544f52590000000000000000000000000000000000000000000000815250612ec3565b8373ffffffffffffffffffffffffffffffffffffffff1663d923c3c4828b8581518110612630576126306145f8565b60200260200101516040518363ffffffff1660e01b815260040161266492919091825263ffffffff16602082015260400190565b600060405180830381600087803b15801561267e57600080fd5b505af1158015612692573d6000803e3d6000fd5b50506040517f1ab06ee500000000000000000000000000000000000000000000000000000000815260048101849052602481018d905273ffffffffffffffffffffffffffffffffffffffff86169250631ab06ee59150604401600060405180830381600087803b15801561270557600080fd5b505af1158015612719573d6000803e3d6000fd5b505050505b508061272981614627565b91505061257c565b509398975050505050505050565b60005b8251811015610bbd5761278884848381518110612761576127616145f8565b602002602001015184848151811061277b5761277b6145f8565b6020026020010151612f27565b508061279381614627565b915050612742565b60005b8251811015610bbd576127e4848483815181106127bd576127bd6145f8565b60200260200101518484815181106127d7576127d76145f8565b602002602001015161177b565b50806127ef81614627565b91505061279e565b600083838360405160200161280e93929190614a47565b604080517fffffffffffffffffffffffffffffffffffffffffffffffffffffffffffffffe08184030181529190528051602090910120949350505050565b612417828261167f867fb25ea67b55901db62e4b14311a8c1ab178fec3948b4b493a711970a50aa2a2e1610cb0565b610bbd82826128aa867fb25ea67b55901db62e4b14311a8c1ab178fec3948b4b493a711970a50aa2a2e1610cb0565b73ffffffffffffffffffffffffffffffffffffffff16919061177b565b606060008373ffffffffffffffffffffffffffffffffffffffff16634323c4ef846040518263ffffffff1660e01b815260040161290491906146bc565b600060405180830381865afa158015612921573d6000803e3d6000fd5b505050506040513d6000823e601f3d9081017fffffffffffffffffffffffffffffffffffffffffffffffffffffffffffffffe01682016040526129679190810190614abf565b90506000815167ffffffffffffffff8111156129855761298561417f565b6040519080825280602002602001820160405280156129ae578160200160208202803683370190505b50905060005b8251811015612a4c5760008382815181106129d1576129d16145f8565b602002602001015151116129e6576000612a13565b8281815181106129f8576129f86145f8565b6020026020010151806020019051810190612a1391906149a5565b828281518110612a2557612a256145f8565b63ffffffff9092166020928302919091019091015280612a4481614627565b9150506129b4565b50949350505050565b600080612a658360200151612f3e565b91509150915091565b815160408084015190517f81d0c0f1000000000000000000000000000000000000000000000000000000008152600092839273__$fe8c06f2024370067115fbcd33d61de1b7$__926381d0c0f192612ace928b928b929190600401614b63565b602060405180830381865af4158015612aeb573d6000803e3d6000fd5b505050506040513d601f19601f82011682018060405250810190612b0f919061441f565b9050612b20818560600151856134bf565b9695505050505050565b6000612b45858585600001518660400151876060015161358a565b90506004826004811115612b5b57612b5b6149c2565b03612b6657156109cc565b6003826004811115612b7a57612b7a6149c2565b146109cc576040517f08c379a000000000000000000000000000000000000000000000000000000000815260206004820152601b60248201527f556e6b6e6f776e20626f6f6c206c6f676963206f70657261746f72000000000060448201526064016102ab565b6000612c0d837f5f9759544a286ad42df1aa1cab6dca162b48885d3060ac74aecbf8ff4483ad1b610cb0565b73ffffffffffffffffffffffffffffffffffffffff16639507d39a836040518263ffffffff1660e01b8152600401612c4791815260200190565b602060405180830381865afa158015612c64573d6000803e3d6000fd5b505050506040513d601f19601f82011682018060405250810190610649919061441f565b600080612c94836138af565b90506109cc84826138c2565b6000806103e883602001518460000151612cba919061465f565b6040850151612ccb906103e861465f565b612cd591906144fb565b612cdf9190614baf565b905060008160030b13610795576000610649565b61191a837f5f9759544a286ad42df1aa1cab6dca162b48885d3060ac74aecbf8ff4483ad1b610cb0565b6040517f696e76656e746f72792e696e7374616e636500000000000000000000000000006020820152603281018390527fffffffff0000000000000000000000000000000000000000000000000000000060e083901b1660528201526000906056016119de565b6060600080612db3867f5d88ced8d8e079072bf73f49fc87661b519c50d79482941abb852ba2b10909cd610cb0565b90506000612dd773ffffffffffffffffffffffffffffffffffffffff8316876138ee565b90506000865167ffffffffffffffff811115612df557612df561417f565b604051908082528060200260200182016040528015612e1e578160200160208202803683370190505b509050600160005b8851811015612eb457612e5b88858381518110612e4557612e456145f8565b6020026020010151613a8290919063ffffffff16565b838281518110612e6d57612e6d6145f8565b602002602001019015159081151581525050828181518110612e9157612e916145f8565b6020026020010151612ea257600091505b80612eac81614627565b915050612e26565b50909890975095505050505050565b612eed837f5d88ced8d8e079072bf73f49fc87661b519c50d79482941abb852ba2b10909cd610cb0565b73ffffffffffffffffffffffffffffffffffffffff16636437197783836040518363ffffffff1660e01b8152600401611972929190614c23565b600081612f34858561169c565b61179291906149f1565b600080600080612f8c6040518060400160405280600481526020017f435552520000000000000000000000000000000000000000000000000000000081525086613a9890919063ffffffff16565b15612f9a576000915061315b565b6040805180820190915260038082527f494e43000000000000000000000000000000000000000000000000000000000060209283015290860181902086517f2294515cf577a807f70c30a4bd66fb198b63ab765b7fa768b080fe8cda2c388891909114911115161561300f576001915061315b565b6040805180820190915260038082527f444543000000000000000000000000000000000000000000000000000000000060209283015290860181902086517fc8117e3bb0a5365f1188f80e2df06c2b6996766cd83da2c646f5f9e14dcfbd17919091149111151615613084576002915061315b565b6040805180820190915260048082527f424f4f4c0000000000000000000000000000000000000000000000000000000060209283015290860181902086517fda3fe7adc6f9d250974b3b45d024284953a3a67841a37ae5029171eb5f1bc3099190911491111516156130f9576003915061315b565b6040517f08c379a000000000000000000000000000000000000000000000000000000000815260206004820152601960248201527f556e6b6e6f776e20636f6e646974696f6e2068616e646c65720000000000000060448201526064016102ab565b6040805180820190915260038082527f4d494e00000000000000000000000000000000000000000000000000000000006020928301528651808211157ffffffffffffffffffffffffffffffffffffffffffffffffffffffffffffffffd90910181028801909201207f871eebeccaa432de5f38a72c534eb2fa59c2c3b49e3c6629c16c11981ee74f2a1416156131f3575060006134b5565b6040805180820190915260038082527f4d415800000000000000000000000000000000000000000000000000000000006020928301528651808211157ffffffffffffffffffffffffffffffffffffffffffffffffffffffffffffffffd90910181028801909201207fa42787877dd247913f847bc654d767d1919585674d8f1a26ea00084043233daa14161561328b575060016134b5565b6040805180820190915260058082527f455155414c0000000000000000000000000000000000000000000000000000006020928301528651808211157ffffffffffffffffffffffffffffffffffffffffffffffffffffffffffffffffb90910181028801909201207f3a06e9850b6d2ffe1ee040a5349ff67cf64f6914074848a74304f81130b90725141615613323575060026134b5565b6040805180820190915260028082527f49530000000000000000000000000000000000000000000000000000000000006020928301528651808211157ffffffffffffffffffffffffffffffffffffffffffffffffffffffffffffffffe90910181028801909201207fa0f4911f5dff37b9a43a54645c34f34bf9127e9dac511b186b8529567dfaf3dc1416156133bb575060036134b5565b6040805180820190915260038082527f4e4f5400000000000000000000000000000000000000000000000000000000006020928301528651808211157ffffffffffffffffffffffffffffffffffffffffffffffffffffffffffffffffd90910181028801909201207f4293f9bf526b0205217be3088c05680693c75440f7bce1f1b15fae3c5187ae12141615613453575060046134b5565b6040517f08c379a000000000000000000000000000000000000000000000000000000000815260206004820152601a60248201527f556e6b6e6f776e20636f6e646974696f6e206f70657261746f7200000000000060448201526064016102ab565b9094909350915050565b6000808260048111156134d4576134d46149c2565b036134e3575081831015610649565b60018260048111156134f7576134f76149c2565b03613506575081831115610649565b600282600481111561351a5761351a6149c2565b036135285750828214610649565b6040517f08c379a000000000000000000000000000000000000000000000000000000000815260206004820152601660248201527f556e6b6e6f776e206c6f676963206f70657261746f720000000000000000000060448201526064016102ab565b60006135d46040518060400160405280600d81526020017f434f4d504c4554455f434f4d500000000000000000000000000000000000000081525085613a8290919063ffffffff16565b1561368557613603867f9522897410526014691d8a863fac7bd2e048ab08176b6e3c6fa8a1f5195164bb610cb0565b73ffffffffffffffffffffffffffffffffffffffff1663cccf7a8e836040518263ffffffff1660e01b815260040161363d91815260200190565b602060405180830381865afa15801561365a573d6000803e3d6000fd5b505050506040513d601f19601f8201168201806040525081019061367e91906143fd565b90506109ee565b60408051808201909152600581527f51554553540000000000000000000000000000000000000000000000000000006020918201528451908501207f6dd88e0a32c18c14d5a81f049d6fd353acc17f8290c55d8a716d975def4edf1e036136f15761367e868487613ab2565b60408051808201909152600481527f524f4f4d000000000000000000000000000000000000000000000000000000006020918201528451908501207fd095a6ae2bc7e94153e86beac7414b2145c7585cac0a0d923e1a4df8247e23a203613771578263ffffffff166137638787613adb565b63ffffffff161490506109ee565b60408051808201909152600581527f50484153450000000000000000000000000000000000000000000000000000006020918201528451908501207fc7321657fadb62104cd2b0331a69790ec83e40b1c9f218c07d669437bea8f9ad036137e2578263ffffffff1661376342613b82565b60408051808201909152600881527f434f4f4c444f574e0000000000000000000000000000000000000000000000006020918201528451908501207f74d16beb57bf3f9ccaccecb6978a7e61e312e12eed3a6e57d8fb05427d6bab0f0361384d5761367e8686613b8d565b6040517f08c379a000000000000000000000000000000000000000000000000000000000815260206004820152601b60248201527f556e6b6e6f776e20626f6f6c20636f6e646974696f6e2074797065000000000060448201526064016102ab565b600081604051602001610e509190614c3c565b6000612c0d837fb25ea67b55901db62e4b14311a8c1ab178fec3948b4b493a711970a50aa2a2e1610cb0565b606060008373ffffffffffffffffffffffffffffffffffffffff16634323c4ef846040518263ffffffff1660e01b815260040161392b91906146bc565b600060405180830381865afa158015613948573d6000803e3d6000fd5b505050506040513d6000823e601f3d9081017fffffffffffffffffffffffffffffffffffffffffffffffffffffffffffffffe016820160405261398e9190810190614abf565b90506000815167ffffffffffffffff8111156139ac576139ac61417f565b6040519080825280602002602001820160405280156139df57816020015b60608152602001906001900390816139ca5790505b50905060005b8251811015612a4c576000838281518110613a0257613a026145f8565b60200260200101515111613a255760405180602001604052806000815250613a52565b828181518110613a3757613a376145f8565b6020026020010151806020019051810190613a52919061495c565b828281518110613a6457613a646145f8565b60200260200101819052508080613a7a90614627565b9150506139e5565b8051602091820120825192909101919091201490565b805160209182018190209183018190209251101591141690565b600080613ac0858486613bb4565b905080600003613ad15760006109ee565b6109ee8582613bcd565b6000613b07837f3be9611062b8582cf4b9a4eafe577dbde7dcd7779a1efb46d73e212026c4b0cc610cb0565b73ffffffffffffffffffffffffffffffffffffffff16639507d39a836040518263ffffffff1660e01b8152600401613b4191815260200190565b602060405180830381865afa158015613b5e573d6000803e3d6000fd5b505050506040513d601f19601f8201168201806040525081019061064991906149a5565b600061079582613c74565b600080613b9a8484613ca7565b90506000613ba88585613cdc565b90911315949350505050565b600080613bc18385613d94565b9050610fe88582613dfb565b6000613bf9837f9522897410526014691d8a863fac7bd2e048ab08176b6e3c6fa8a1f5195164bb610cb0565b73ffffffffffffffffffffffffffffffffffffffff1663cccf7a8e836040518263ffffffff1660e01b8152600401613c3391815260200190565b602060405180830381865afa158015613c50573d6000803e3d6000fd5b505050506040513d601f19601f8201168201806040525081019061064991906143fd565b6000806024613c85610e1085614a33565b613c8f9190614c81565b9050613c9c600c82614a33565b610649906001614949565b6000610649613cd6847f5f9759544a286ad42df1aa1cab6dca162b48885d3060ac74aecbf8ff4483ad1b610cb0565b83613e3d565b600080613d26613d21856040518060400160405280601681526020017f4b414d495f5354414e444152445f434f4f4c444f574e00000000000000000000815250612c88565b613e75565b90506000613d6a85856040518060400160405280601381526020017f53544e445f434f4f4c444f574e5f534849465400000000000000000000000000815250613ea6565b90506000613d788284614c95565b905060008112613d885780612b20565b60009695505050505050565b6040517f72656769737472792e717565737400000000000000000000000000000000000060208201527fffffffff0000000000000000000000000000000000000000000000000000000060e084901b16602e820152603281018290526000906052016119de565b600061064983836040518060400160405280600581526020017f515545535400000000000000000000000000000000000000000000000000000081525061400d565b6000613e62613d2173ffffffffffffffffffffffffffffffffffffffff85168461169c565b613e6b42613e75565b6106499190614cbd565b60007f800000000000000000000000000000000000000000000000000000000000000082106110e7576110e761224f565b600080613eb3848461405b565b90506000613ee1867f50d80ec5b1169fa90f6a93a06362786b45e53ec8c05572cba38875a52f86a3bc610cb0565b6040517fcccf7a8e0000000000000000000000000000000000000000000000000000000081526004810184905290915073ffffffffffffffffffffffffffffffffffffffff82169063cccf7a8e90602401602060405180830381865afa158015613f4f573d6000803e3d6000fd5b505050506040513d601f19601f82011682018060405250810190613f7391906143fd565b613f7e576000612b20565b6040517f9507d39a0000000000000000000000000000000000000000000000000000000081526004810183905273ffffffffffffffffffffffffffffffffffffffff821690639507d39a90602401602060405180830381865afa158015613fe9573d6000803e3d6000fd5b505050506040513d601f19601f82011682018060405250810190612b20919061441f565b6000610646838361403e877f5d88ced8d8e079072bf73f49fc87661b519c50d79482941abb852ba2b10909cd610cb0565b73ffffffffffffffffffffffffffffffffffffffff169190614070565b600082826040516020016119de929190614cdd565b6000610646826140808686614093565b8151602092830120815191909201201490565b6040517fdd98e3c90000000000000000000000000000000000000000000000000000000081526004810182905260609060009073ffffffffffffffffffffffffffffffffffffffff85169063dd98e3c990602401600060405180830381865afa158015614104573d6000803e3d6000fd5b505050506040513d6000823e601f3d9081017fffffffffffffffffffffffffffffffffffffffffffffffffffffffffffffffe016820160405261414a9190810190614914565b9050805160000361416b575050604080516020810190915260008152610795565b808060200190518101906109cc919061495c565b7f4e487b7100000000000000000000000000000000000000000000000000000000600052604160045260246000fd5b604051601f82017fffffffffffffffffffffffffffffffffffffffffffffffffffffffffffffffe016810167ffffffffffffffff811182821017156141f5576141f561417f565b604052919050565b600067ffffffffffffffff8211156142175761421761417f565b50601f017fffffffffffffffffffffffffffffffffffffffffffffffffffffffffffffffe01660200190565b60006020828403121561425557600080fd5b813567ffffffffffffffff81111561426c57600080fd5b8201601f8101841361427d57600080fd5b803561429061428b826141fd565b6141ae565b8181528560208385010111156142a557600080fd5b81602084016020830137600091810160200191909152949350505050565b60005b838110156142de5781810151838201526020016142c6565b50506000910152565b600081518084526142ff8160208601602086016142c3565b601f017fffffffffffffffffffffffffffffffffffffffffffffffffffffffffffffffe0169290920160200192915050565b60208152600061064960208301846142e7565b63ffffffff8116811461068d57600080fd5b60008060006060848603121561436b57600080fd5b83359250602084013561437d81614344565b929592945050506040919091013590565b6000602082840312156143a057600080fd5b813573ffffffffffffffffffffffffffffffffffffffff8116811461064957600080fd5b6000806000606084860312156143d957600080fd5b8351925060208401516143eb81614344565b80925050604084015190509250925092565b60006020828403121561440f57600080fd5b8151801515811461064957600080fd5b60006020828403121561443157600080fd5b5051919050565b8051600381900b811461444a57600080fd5b919050565b60006080828403121561446157600080fd5b6040516080810181811067ffffffffffffffff821117156144845761448461417f565b60405261449083614438565b815261449e60208401614438565b60208201526144af60408401614438565b60408201526144c060608401614438565b60608201529392505050565b7f4e487b7100000000000000000000000000000000000000000000000000000000600052601160045260246000fd5b60008260030b8260030b028060030b915080821461451b5761451b6144cc565b5092915050565b8082028115828204841417610795576107956144cc565b600067ffffffffffffffff8211156145535761455361417f565b5060051b60200190565b600082601f83011261456e57600080fd5b8151602061457e61428b83614539565b82815260059290921b8401810191818101908684111561459d57600080fd5b8286015b848110156145b857805183529183019183016145a1565b509695505050505050565b6000602082840312156145d557600080fd5b815167ffffffffffffffff8111156145ec57600080fd5b6109cc8482850161455d565b7f4e487b7100000000000000000000000000000000000000000000000000000000600052603260045260246000fd5b60007fffffffffffffffffffffffffffffffffffffffffffffffffffffffffffffffff8203614658576146586144cc565b5060010190565b600381810b9083900b01637fffffff81137fffffffffffffffffffffffffffffffffffffffffffffffffffffffff8000000082121715610795576107956144cc565b6000602082840312156146b357600080fd5b61064982614438565b6020808252825182820181905260009190848201906040850190845b818110156146f4578351835292840192918401916001016146d8565b50909695505050505050565b6000602080838503121561471357600080fd5b825167ffffffffffffffff8082111561472b57600080fd5b818501915085601f83011261473f57600080fd5b815161474d61428b82614539565b818152600591821b840185019185820191908984111561476c57600080fd5b8686015b84811015614804578051868111156147885760008081fd5b8701603f81018c1361479a5760008081fd5b8881015160406147ac61428b83614539565b82815291851b83018101918b8101908f8411156147c95760008081fd5b938201935b838510156147f357845192506147e383614344565b828252938c0193908c01906147ce565b885250505093880193508701614770565b50909998505050505050505050565b6000602080838503121561482657600080fd5b825167ffffffffffffffff8082111561483e57600080fd5b818501915085601f83011261485257600080fd5b815161486061428b82614539565b81815260059190911b8301840190848101908883111561487f57600080fd5b8585015b838110156148b75780518581111561489b5760008081fd5b6148a98b89838a010161455d565b845250918601918601614883565b5098975050505050505050565b60006148d261428b846141fd565b90508281528383830111156148e657600080fd5b6106498360208301846142c3565b600082601f83011261490557600080fd5b610649838351602085016148c4565b60006020828403121561492657600080fd5b815167ffffffffffffffff81111561493d57600080fd5b6109cc848285016148f4565b80820180821115610795576107956144cc565b60006020828403121561496e57600080fd5b815167ffffffffffffffff81111561498557600080fd5b8201601f8101841361499657600080fd5b6109cc848251602084016148c4565b6000602082840312156149b757600080fd5b815161064981614344565b7f4e487b7100000000000000000000000000000000000000000000000000000000600052602160045260246000fd5b81810381811115610795576107956144cc565b7f4e487b7100000000000000000000000000000000000000000000000000000000600052601260045260246000fd5b600082614a4257614a42614a04565b500490565b7f69732e646174610000000000000000000000000000000000000000000000000081528360078201527fffffffff000000000000000000000000000000000000000000000000000000008360e01b16602782015260008251614ab081602b8501602087016142c3565b91909101602b01949350505050565b60006020808385031215614ad257600080fd5b825167ffffffffffffffff80821115614aea57600080fd5b818501915085601f830112614afe57600080fd5b8151614b0c61428b82614539565b81815260059190911b83018401908481019088831115614b2b57600080fd5b8585015b838110156148b757805185811115614b475760008081fd5b614b558b89838a01016148f4565b845250918601918601614b2f565b73ffffffffffffffffffffffffffffffffffffffff85168152836020820152608060408201526000614b9860808301856142e7565b905063ffffffff8316606083015295945050505050565b60008160030b8360030b80614bc657614bc6614a04565b7fffffffffffffffffffffffffffffffffffffffffffffffffffffffffffffffff81147fffffffffffffffffffffffffffffffffffffffffffffffffffffffff8000000083141615614c1a57614c1a6144cc565b90059392505050565b82815260406020820152600061064660408301846142e7565b7f69732e636f6e6669670000000000000000000000000000000000000000000000815260008251614c748160098501602087016142c3565b9190910160090192915050565b600082614c9057614c90614a04565b500690565b8082018281126000831280158216821582161715614cb557614cb56144cc565b505092915050565b818103600083128015838313168383128216171561451b5761451b6144cc565b7f626f6e7573000000000000000000000000000000000000000000000000000000815282600582015260008251614d1b8160258501602087016142c3565b91909101602501939250505056fea264697066735822122053b645cfc437fa49b4f82b359806162b04fcb587c0aebb82c17b033e5abb1c7f64736f6c63430008110033","linkReferences":{"src/libraries/utils/LibGetter.sol":{"LibGetter":[{"start":11417,"length":20}]}}},"methodIdentifiers":{"cancelOwnershipHandover()":"54d1f13d","completeOwnershipHandover(address)":"f04e283e","deprecate()":"0fcc0c28","execute(bytes)":"09c5eabe","executeTyped(uint256,uint32,uint256)":"a693008c","owner()":"8da5cb5b","ownershipHandoverExpiresAt(address)":"fee81cf4","renounceOwnership()":"715018a6","requestOwnershipHandover()":"25692962","transferOwnership(address)":"f2fde38b"},"id":259}