{"abi":[{"type":"constructor","inputs":[{"name":"_world","type":"address","internalType":"contract IWorld"},{"name":"_components","type":"address","internalType":"address"}],"stateMutability":"nonpayable"},{"type":"function","name":"cancelOwnershipHandover","inputs":[],"outputs":[],"stateMutability":"payable"},{"type":"function","name":"completeOwnershipHandover","inputs":[{"name":"pendingOwner","type":"address","internalType":"address"}],"outputs":[],"stateMutability":"payable"},{"type":"function","name":"deprecate","inputs":[],"outputs":[],"stateMutability":"nonpayable"},{"type":"function","name":"execute","inputs":[{"name":"arguments","type":"bytes","internalType":"bytes"}],"outputs":[{"name":"","type":"bytes","internalType":"bytes"}],"stateMutability":"nonpayable"},{"type":"function","name":"executeTyped","inputs":[{"name":"ids","type":"uint256[]","internalType":"uint256[]"}],"outputs":[{"name":"","type":"bytes","internalType":"bytes"}],"stateMutability":"nonpayable"},{"type":"function","name":"forceReveal","inputs":[{"name":"id","type":"uint256","internalType":"uint256"}],"outputs":[],"stateMutability":"nonpayable"},{"type":"function","name":"owner","inputs":[],"outputs":[{"name":"result","type":"address","internalType":"address"}],"stateMutability":"view"},{"type":"function","name":"ownershipHandoverExpiresAt","inputs":[{"name":"pendingOwner","type":"address","internalType":"address"}],"outputs":[{"name":"result","type":"uint256","internalType":"uint256"}],"stateMutability":"view"},{"type":"function","name":"renounceOwnership","inputs":[],"outputs":[],"stateMutability":"payable"},{"type":"function","name":"replaceBrokenReveal","inputs":[{"name":"id","type":"uint256","internalType":"uint256"}],"outputs":[],"stateMutability":"nonpayable"},{"type":"function","name":"requestOwnershipHandover","inputs":[],"outputs":[],"stateMutability":"payable"},{"type":"function","name":"transferOwnership","inputs":[{"name":"newOwner","type":"address","internalType":"address"}],"outputs":[],"stateMutability":"payable"},{"type":"event","name":"OwnershipHandoverCanceled","inputs":[{"name":"pendingOwner","type":"address","indexed":true,"internalType":"address"}],"anonymous":false},{"type":"event","name":"OwnershipHandoverRequested","inputs":[{"name":"pendingOwner","type":"address","indexed":true,"internalType":"address"}],"anonymous":false},{"type":"event","name":"OwnershipTransferred","inputs":[{"name":"oldOwner","type":"address","indexed":true,"internalType":"address"},{"name":"newOwner","type":"address","indexed":true,"internalType":"address"}],"anonymous":false},{"type":"event","name":"SystemDeprecated","inputs":[],"anonymous":false},{"type":"error","name":"AlreadyInitialized","inputs":[]},{"type":"error","name":"NewOwnerIsZeroAddress","inputs":[]},{"type":"error","name":"NoHandoverRequest","inputs":[]},{"type":"error","name":"Unauthorized","inputs":[]}],"bytecode":{"object":"0x60c06040523480156200001157600080fd5b506040516200314d3803806200314d83398101604081905262000034916200012f565b81816200004133620000dc565b6001600160a01b03811615620000585780620000bd565b816001600160a01b031663ba62fbe46040518163ffffffff1660e01b8152600401602060405180830381865afa15801562000097573d6000803e3d6000fd5b505050506040513d601f19601f82011682018060405250810190620000bd91906200016e565b6001600160a01b039081166080529190911660a0525062000195915050565b6001600160a01b0316638b78c6d8198190558060007f8be0079c531659141344cd1fd0a4f28419497f9722a3daafe3b4186f6b6457e08180a35b50565b6001600160a01b03811681146200011657600080fd5b600080604083850312156200014357600080fd5b8251620001508162000119565b6020840151909250620001638162000119565b809150509250929050565b6000602082840312156200018157600080fd5b81516200018e8162000119565b9392505050565b60805160a051612f2c6200022160003960005050600081816102db0152818161036b0152818161039501528181610455015281816105770152818161062e015281816106be015281816106e80152818161071401528181610836015281816108ed0152818161097d01528181610a3301528181610aee01528181610bbc0152610c850152612f2c6000f3fe6080604052600436106100c75760003560e01c8063715018a611610074578063f04e283e1161004e578063f04e283e146101e5578063f2fde38b146101f8578063fee81cf41461020b57600080fd5b8063715018a61461016957806372de78c2146101715780638da5cb5b1461019157600080fd5b8063265ab676116100a5578063265ab67614610121578063324495641461014157806354d1f13d1461016157600080fd5b806309c5eabe146100cc5780630fcc0c28146101025780632569296214610119575b600080fd5b3480156100d857600080fd5b506100ec6100e73660046127c5565b61024c565b6040516100f991906128b3565b60405180910390f35b34801561010e57600080fd5b506101176103d0565b005b610117610403565b34801561012d57600080fd5b5061011761013c3660046128c6565b610453565b34801561014d57600080fd5b5061011761015c3660046128c6565b610712565b610117610cb5565b610117610cf1565b34801561017d57600080fd5b506100ec61018c366004612903565b610d05565b34801561019d57600080fd5b507fffffffffffffffffffffffffffffffffffffffffffffffffffffffff748739275460405173ffffffffffffffffffffffffffffffffffffffff90911681526020016100f9565b6101176101f3366004612994565b610d35565b610117610206366004612994565b610d75565b34801561021757600080fd5b5061023e610226366004612994565b63389a75e1600c908152600091909152602090205490565b6040519081526020016100f9565b606060008280602001905181019061026491906129ca565b905060008151116102d6576040517f08c379a000000000000000000000000000000000000000000000000000000000815260206004820152601960248201527f4c6f6f74626f784578655265763a206e6f2072657665616c730000000000000060448201526064015b60405180910390fd5b6103007f000000000000000000000000000000000000000000000000000000000000000082610d9c565b610366576040517f08c379a000000000000000000000000000000000000000000000000000000000815260206004820181905260248201527f4c6f6f74626f784578655265763a206e6f742072657665616c20656e7469747960448201526064016102cd565b6103907f000000000000000000000000000000000000000000000000000000000000000082610e61565b6103ba7f000000000000000000000000000000000000000000000000000000000000000082610f6d565b5050604080516020810190915260008152919050565b6103d8611291565b6040517f56f33501ffd77f9fe44d81e7db7e66a66bdf52ab3e11267cdc6462763604c4c790600090a1565b60006202a30067ffffffffffffffff164201905063389a75e1600c5233600052806020600c2055337fdbf36a107da19e49527a7176a1babf963b4b0ff8cde35ee35d6cd8f1f9ac7e1d600080a250565b7f00000000000000000000000000000000000000000000000000000000000000006104ca813373ffffffffffffffffffffffffffffffffffffffff166040518060400160405280601681526020017f524f4c455f434f4d4d554e4954595f4d414e41474552000000000000000000008152506112c7565b610530576040517f08c379a000000000000000000000000000000000000000000000000000000000815260206004820152601d60248201527f417574683a206e6f74206120636f6d6d756e697479206d616e6167657200000060448201526064016102cd565b60408051600180825281830190925260009160208083019080368337019050509050828160008151811061056657610566612a50565b60200260200101818152505061059c7f000000000000000000000000000000000000000000000000000000000000000082611386565b15610629576040517f08c379a000000000000000000000000000000000000000000000000000000000815260206004820152602560248201527f4c6f6f74626f784578655265763a20636f6d6d6974207374696c6c206176616960448201527f6c61626c6500000000000000000000000000000000000000000000000000000060648201526084016102cd565b6106537f000000000000000000000000000000000000000000000000000000000000000082610d9c565b6106b9576040517f08c379a000000000000000000000000000000000000000000000000000000000815260206004820181905260248201527f4c6f6f74626f784578655265763a206e6f742072657665616c20656e7469747960448201526064016102cd565b6106e37f00000000000000000000000000000000000000000000000000000000000000008261149f565b61070d7f000000000000000000000000000000000000000000000000000000000000000082610f6d565b505050565b7f0000000000000000000000000000000000000000000000000000000000000000610789813373ffffffffffffffffffffffffffffffffffffffff166040518060400160405280601681526020017f524f4c455f434f4d4d554e4954595f4d414e41474552000000000000000000008152506112c7565b6107ef576040517f08c379a000000000000000000000000000000000000000000000000000000000815260206004820152601d60248201527f417574683a206e6f74206120636f6d6d756e697479206d616e6167657200000060448201526064016102cd565b60408051600180825281830190925260009160208083019080368337019050509050828160008151811061082557610825612a50565b60200260200101818152505061085b7f000000000000000000000000000000000000000000000000000000000000000082611386565b156108e8576040517f08c379a000000000000000000000000000000000000000000000000000000000815260206004820152602560248201527f4c6f6f74626f784578655265763a20636f6d6d6974207374696c6c206176616960448201527f6c61626c6500000000000000000000000000000000000000000000000000000060648201526084016102cd565b6109127f000000000000000000000000000000000000000000000000000000000000000082610d9c565b610978576040517f08c379a000000000000000000000000000000000000000000000000000000000815260206004820181905260248201527f4c6f6f74626f784578655265763a206e6f742072657665616c20656e7469747960448201526064016102cd565b6109c27f00000000000000000000000000000000000000000000000000000000000000007feb96d6a560bda13fa9b1f5e6458550803932abff9fe730fa1f8c3a6ddcb67e6b6114f9565b73ffffffffffffffffffffffffffffffffffffffff16634cc82215846040518263ffffffff1660e01b81526004016109fc91815260200190565b600060405180830381600087803b158015610a1657600080fd5b505af1158015610a2a573d6000803e3d6000fd5b50505050610a7b7f00000000000000000000000000000000000000000000000000000000000000007f0e980fab8730829e1930c8cdc024ae35650d9eec12d20425b19fc4ade883178c60001c6114f9565b73ffffffffffffffffffffffffffffffffffffffff16634cc82215846040518263ffffffff1660e01b8152600401610ab591815260200190565b600060405180830381600087803b158015610acf57600080fd5b505af1158015610ae3573d6000803e3d6000fd5b505050506000610b367f00000000000000000000000000000000000000000000000000000000000000007f5bc28889d745caef68975e56a733199d93efb3f5ae8e4606262ab97c83f7264860001c6114f9565b73ffffffffffffffffffffffffffffffffffffffff166385b39782856040518263ffffffff1660e01b8152600401610b7091815260200190565b6020604051808303816000875af1158015610b8f573d6000803e3d6000fd5b505050506040513d601f19601f82011682018060405250810190610bb39190612a7f565b90506000610c017f00000000000000000000000000000000000000000000000000000000000000007fb25ea67b55901db62e4b14311a8c1ab178fec3948b4b493a711970a50aa2a2e16114f9565b73ffffffffffffffffffffffffffffffffffffffff166385b39782866040518263ffffffff1660e01b8152600401610c3b91815260200190565b6020604051808303816000875af1158015610c5a573d6000803e3d6000fd5b505050506040513d601f19601f82011682018060405250810190610c7e9190612a7f565b9050610cae7f00000000000000000000000000000000000000000000000000000000000000008361271184611645565b5050505050565b63389a75e1600c523360005260006020600c2055337ffa7b8eab7da67f412cc9575ed43464468f9bfbae89d1675917346ca6d8fe3c92600080a2565b610cf9611291565b610d0360006116a8565b565b6060610d2f82604051602001610d1b9190612ad3565b60405160208183030381529060405261024c565b92915050565b610d3d611291565b63389a75e1600c52806000526020600c208054421115610d6557636f5e88186000526004601cfd5b60009055610d72816116a8565b50565b610d7d611291565b8060601b610d9357637448fbae6000526004601cfd5b610d72816116a8565b600080610da9848461170e565b905060005b8351811015610e5657610e35828281518110610dcc57610dcc612a50565b60209081029190910181015160408051808201909152601581527f4954454d5f44524f505441424c455f434f4d4d495400000000000000000000009083015280519101207fab790b5c45b4982b92eeb9b3d1da8f1777c4347623d18e891e1062f0fb7a23b61490565b610e4457600092505050610d2f565b80610e4e81612b15565b915050610dae565b506001949350505050565b6000610e8d837feb96d6a560bda13fa9b1f5e6458550803932abff9fe730fa1f8c3a6ddcb67e6b6114f9565b905060005b8251811015610f67578173ffffffffffffffffffffffffffffffffffffffff1663cccf7a8e848381518110610ec957610ec9612a50565b60200260200101516040518263ffffffff1660e01b8152600401610eef91815260200190565b602060405180830381865afa158015610f0c573d6000803e3d6000fd5b505050506040513d601f19601f82011682018060405250810190610f309190612b4d565b610f55576000838281518110610f4857610f48612a50565b6020026020010181815250505b80610f5f81612b15565b915050610e92565b50505050565b6000610f99837f0e980fab8730829e1930c8cdc024ae35650d9eec12d20425b19fc4ade883178c6114f9565b90506000610fc7847f5bc28889d745caef68975e56a733199d93efb3f5ae8e4606262ab97c83f726486114f9565b90506000610ff5857feb96d6a560bda13fa9b1f5e6458550803932abff9fe730fa1f8c3a6ddcb67e6b6114f9565b90506000611023867fc5feb1aac7c8c1b30106b97e2241d75b44c975ca1e5f2f5e02394d8d4257f88c6114f9565b90506000611051877fb25ea67b55901db62e4b14311a8c1ab178fec3948b4b493a711970a50aa2a2e16114f9565b9050600061107f887fc6a29e9d963ddf0ecc32d72ae16fddf22661517259c701d58065adfefd57eb026114f9565b905060006110ad897ffb08db6d59480b008d636f90eaab4796d6e70486db57ea5b6d38235c97e3a3ec6114f9565b905060006110db8a7f040fc38fe5717491c84059f73f7686f4157d14971215773d341a2ede964d65ac6114f9565b905060005b89518110156112845760008a82815181106110fd576110fd612a50565b60200260200101519050806000036111155750611272565b6040517f85b397820000000000000000000000000000000000000000000000000000000081526004810182905260009073ffffffffffffffffffffffffffffffffffffffff8c16906385b39782906024016020604051808303816000875af1158015611185573d6000803e3d6000fd5b505050506040513d601f19601f820116820180604052508101906111a99190612a7f565b6040517f85b397820000000000000000000000000000000000000000000000000000000081526004810184905290915060009073ffffffffffffffffffffffffffffffffffffffff8c16906385b39782906024016020604051808303816000875af115801561121c573d6000803e3d6000fd5b505050506040513d601f19601f820116820180604052508101906112409190612a7f565b905060006112518b8b8b86886117d7565b90506112608f89858486611956565b61126d8688848685611a93565b505050505b8061127c81612b15565b9150506110e0565b5050505050505050505050565b7fffffffffffffffffffffffffffffffffffffffffffffffffffffffff74873927543314610d03576382b429006000526004601cfd5b6000806112d48484611bb6565b9050611300857fd426585847552196ce5fddb7f2e37e8aa38f62676728e7518835f8440cf919586114f9565b73ffffffffffffffffffffffffffffffffffffffff1663cccf7a8e826040518263ffffffff1660e01b815260040161133a91815260200190565b602060405180830381865afa158015611357573d6000803e3d6000fd5b505050506040513d601f19601f8201168201806040525081019061137b9190612b4d565b9150505b9392505050565b6000806113b3847feb96d6a560bda13fa9b1f5e6458550803932abff9fe730fa1f8c3a6ddcb67e6b6114f9565b73ffffffffffffffffffffffffffffffffffffffff1663088dd0b9846040518263ffffffff1660e01b81526004016113eb9190612ad3565b600060405180830381865afa158015611408573d6000803e3d6000fd5b505050506040513d6000823e601f3d9081017fffffffffffffffffffffffffffffffffffffffffffffffffffffffffffffffe016820160405261144e91908101906129ca565b905060005b8351811015610e565761147e82828151811061147157611471612a50565b6020026020010151611c08565b61148d57600092505050610d2f565b8061149781612b15565b915050611453565b6114f5816114ae600143612b6f565b6114d8857feb96d6a560bda13fa9b1f5e6458550803932abff9fe730fa1f8c3a6ddcb67e6b611c1f565b73ffffffffffffffffffffffffffffffffffffffff169190611c2b565b5050565b6040517ffbdfa1ea00000000000000000000000000000000000000000000000000000000815260048101829052600090819073ffffffffffffffffffffffffffffffffffffffff85169063fbdfa1ea90602401600060405180830381865afa158015611569573d6000803e3d6000fd5b505050506040513d6000823e601f3d9081017fffffffffffffffffffffffffffffffffffffffffffffffffffffffffffffffe01682016040526115af91908101906129ca565b9050805160000361161c576040517f08c379a000000000000000000000000000000000000000000000000000000000815260206004820152601160248201527f6964206e6f74207265676973746572656400000000000000000000000000000060448201526064016102cd565b61163d8160008151811061163257611632612a50565b602002602001015190565b949350505050565b6000611652858585611d61565b90506116a08183611683887fb25ea67b55901db62e4b14311a8c1ab178fec3948b4b493a711970a50aa2a2e16114f9565b73ffffffffffffffffffffffffffffffffffffffff169190611f30565b505050505050565b7fffffffffffffffffffffffffffffffffffffffffffffffffffffffff74873927805473ffffffffffffffffffffffffffffffffffffffff9092169182907f8be0079c531659141344cd1fd0a4f28419497f9722a3daafe3b4186f6b6457e0600080a355565b606061173a837f024accd0d273ef6123273b21662f5cc055a7d58adf98cc1b060edd029af93f7f6114f9565b73ffffffffffffffffffffffffffffffffffffffff1663dc5c22cd836040518263ffffffff1660e01b81526004016117729190612ad3565b6000604051808303816000875af1158015611791573d6000803e3d6000fd5b505050506040513d6000823e601f3d9081017fffffffffffffffffffffffffffffffffffffffffffffffffffffffffffffffe016820160405261137f9190810190612bd2565b6040517f9507d39a0000000000000000000000000000000000000000000000000000000081526004810183905260609060009073ffffffffffffffffffffffffffffffffffffffff871690639507d39a90602401600060405180830381865afa158015611848573d6000803e3d6000fd5b505050506040513d6000823e601f3d9081017fffffffffffffffffffffffffffffffffffffffffffffffffffffffffffffffe016820160405261188e91908101906129ca565b905061189981611fd8565b60006118a58885612035565b6040517f85b397820000000000000000000000000000000000000000000000000000000081526004810186905290915060009073ffffffffffffffffffffffffffffffffffffffff8816906385b39782906024016020604051808303816000875af1158015611918573d6000803e3d6000fd5b505050506040513d601f19601f8201168201806040525081019061193c9190612a7f565b90506119498383836120d3565b9998505050505050505050565b6040517f9507d39a0000000000000000000000000000000000000000000000000000000081526004810184905260009073ffffffffffffffffffffffffffffffffffffffff861690639507d39a90602401600060405180830381865afa1580156119c4573d6000803e3d6000fd5b505050506040513d6000823e601f3d9081017fffffffffffffffffffffffffffffffffffffffffffffffffffffffffffffffe0168201604052611a0a9190810190612c83565b905060005b8151811015611a8a576000848281518110611a2c57611a2c612a50565b60200260200101511115611a7857611a788784848481518110611a5157611a51612a50565b6020026020010151878581518110611a6b57611a6b612a50565b6020026020010151611645565b80611a8281612b15565b915050611a0f565b50505050505050565b6000611a9f84846121fa565b6040517f1ab06ee50000000000000000000000000000000000000000000000000000000081526004810182905242602482015290915073ffffffffffffffffffffffffffffffffffffffff871690631ab06ee590604401600060405180830381600087803b158015611b1057600080fd5b505af1158015611b24573d6000803e3d6000fd5b50506040517f946aadc600000000000000000000000000000000000000000000000000000000815273ffffffffffffffffffffffffffffffffffffffff8816925063946aadc69150611b7c9084908690600401612d1c565b600060405180830381600087803b158015611b9657600080fd5b505af1158015611baa573d6000803e3d6000fd5b50505050505050505050565b60008282604051602001611bcb929190612d35565b604080517fffffffffffffffffffffffffffffffffffffffffffffffffffffffffffffffe081840301815291905280516020909101209392505050565b600043611c1783610100612d81565b101592915050565b600061137f83836114f9565b6000825167ffffffffffffffff811115611c4757611c47612701565b604051908082528060200260200182016040528015611c7a57816020015b6060815260200190600190039081611c655790505b50905060005b8351811015611cd457604080516020810185905201604051602081830303815290604052828281518110611cb657611cb6612a50565b60200260200101819052508080611ccc90612b15565b915050611c80565b506040517f13ca8b6a00000000000000000000000000000000000000000000000000000000815273ffffffffffffffffffffffffffffffffffffffff8516906313ca8b6a90611d299086908590600401612d94565b600060405180830381600087803b158015611d4357600080fd5b505af1158015611d57573d6000803e3d6000fd5b5050505050505050565b6000611d6d838361223c565b90506000611db185836040518060400160405280600981526020017f494e56454e544f525900000000000000000000000000000000000000000000008152506122a3565b905080611f2857611de2857fd3da495fedd385ac62763d969054ffb19f1777e687374cceb91f1237ddd6bfb36114f9565b6040517fd923c3c40000000000000000000000000000000000000000000000000000000081526004810184905263ffffffff8516602482015273ffffffffffffffffffffffffffffffffffffffff919091169063d923c3c490604401600060405180830381600087803b158015611e5857600080fd5b505af1158015611e6c573d6000803e3d6000fd5b50505050611e9d857f1ee9964c9c16bbb74f9e401f1ab450f99b2343a602036525f23f0da350bc74d060001c6114f9565b6040517f1ab06ee5000000000000000000000000000000000000000000000000000000008152600481018490526024810186905273ffffffffffffffffffffffffffffffffffffffff9190911690631ab06ee5906044015b600060405180830381600087803b158015611f0f57600080fd5b505af1158015611f23573d6000803e3d6000fd5b505050505b509392505050565b600081611f3d8585612364565b611f479190612d81565b6040517f1ab06ee5000000000000000000000000000000000000000000000000000000008152600481018590526024810182905290915073ffffffffffffffffffffffffffffffffffffffff851690631ab06ee590604401600060405180830381600087803b158015611fb957600080fd5b505af1158015611fcd573d6000803e3d6000fd5b505050509392505050565b60005b81518110156114f557612006828281518110611ff957611ff9612a50565b6020026020010151612443565b82828151811061201857612018612a50565b60209081029190910101528061202d81612b15565b915050611fdb565b6040517f85b397820000000000000000000000000000000000000000000000000000000081526004810182905260009061137f9073ffffffffffffffffffffffffffffffffffffffff8516906385b39782906024016020604051808303816000875af11580156120a9573d6000803e3d6000fd5b505050506040513d601f19601f820116820180604052508101906120cd9190612a7f565b83612467565b60606000805b855181101561211b578581815181106120f4576120f4612a50565b6020026020010151826121079190612d81565b91508061211381612b15565b9150506120d9565b506000855167ffffffffffffffff81111561213857612138612701565b604051908082528060200260200182016040528015612161578160200160208202803683370190505b50905060005b848110156121f05760006121b088858985604051602001612192929190918252602082015260400190565b6040516020818303038152906040528051906020012060001c61254b565b90508281815181106121c4576121c4612a50565b6020026020010180518091906121d990612b15565b9052508190506121e881612b15565b915050612167565b5095945050505050565b6040517f64726f707461626c652e6974656d2e6c6f67000000000000000000000000000060208201526032810183905260528101829052600090607201611bcb565b6040517f696e76656e746f72792e696e7374616e636500000000000000000000000000006020820152603281018390527fffffffff0000000000000000000000000000000000000000000000000000000060e083901b166052820152600090605601611bcb565b6000806122d0857f5d88ced8d8e079072bf73f49fc87661b519c50d79482941abb852ba2b10909cd6114f9565b9050612309836122f673ffffffffffffffffffffffffffffffffffffffff841687612615565b8151602092830120815191909201201490565b915081611f28576040517f6437197700000000000000000000000000000000000000000000000000000000815273ffffffffffffffffffffffffffffffffffffffff821690636437197790611ef59087908790600401612e24565b6040517fdd98e3c900000000000000000000000000000000000000000000000000000000815260048101829052600090819073ffffffffffffffffffffffffffffffffffffffff85169063dd98e3c990602401600060405180830381865afa1580156123d4573d6000803e3d6000fd5b505050506040513d6000823e601f3d9081017fffffffffffffffffffffffffffffffffffffffffffffffffffffffffffffffe016820160405261241a9190810190612e3d565b9050805160000361242f576000915050610d2f565b8080602001905181019061163d9190612a7f565b6000811561245f57612456600183612b6f565b6001901b610d2f565b600092915050565b600082408082036124f9576040517f08c379a0000000000000000000000000000000000000000000000000000000008152602060048201526024808201527f426c6f636b6861736820756e617661696c61626c652e20436f6e74616374206160448201527f646d696e0000000000000000000000000000000000000000000000000000000060648201526084016102cd565b6040805160208101839052908101849052606001604080517fffffffffffffffffffffffffffffffffffffffffffffffffffffffffffffffe08184030181529190528051602090910120949350505050565b6000806125588484612e86565b90506000805b86518110156125b25786818151811061257957612579612a50565b60200260200101518261258c9190612d81565b9150818310156125a057925061137f915050565b806125aa81612b15565b91505061255e565b506040517f08c379a000000000000000000000000000000000000000000000000000000000815260206004820152601860248201527f4c696252616e646f6d3a206e6f206974656d20666f756e64000000000000000060448201526064016102cd565b6040517fdd98e3c90000000000000000000000000000000000000000000000000000000081526004810182905260609060009073ffffffffffffffffffffffffffffffffffffffff85169063dd98e3c990602401600060405180830381865afa158015612686573d6000803e3d6000fd5b505050506040513d6000823e601f3d9081017fffffffffffffffffffffffffffffffffffffffffffffffffffffffffffffffe01682016040526126cc9190810190612e3d565b905080516000036126ed575050604080516020810190915260008152610d2f565b8080602001905181019061163d9190612ec1565b7f4e487b7100000000000000000000000000000000000000000000000000000000600052604160045260246000fd5b604051601f82017fffffffffffffffffffffffffffffffffffffffffffffffffffffffffffffffe016810167ffffffffffffffff8111828210171561277757612777612701565b604052919050565b600067ffffffffffffffff82111561279957612799612701565b50601f017fffffffffffffffffffffffffffffffffffffffffffffffffffffffffffffffe01660200190565b6000602082840312156127d757600080fd5b813567ffffffffffffffff8111156127ee57600080fd5b8201601f810184136127ff57600080fd5b803561281261280d8261277f565b612730565b81815285602083850101111561282757600080fd5b81602084016020830137600091810160200191909152949350505050565b60005b83811015612860578181015183820152602001612848565b50506000910152565b60008151808452612881816020860160208601612845565b601f017fffffffffffffffffffffffffffffffffffffffffffffffffffffffffffffffe0169290920160200192915050565b60208152600061137f6020830184612869565b6000602082840312156128d857600080fd5b5035919050565b600067ffffffffffffffff8211156128f9576128f9612701565b5060051b60200190565b6000602080838503121561291657600080fd5b823567ffffffffffffffff81111561292d57600080fd5b8301601f8101851361293e57600080fd5b803561294c61280d826128df565b81815260059190911b8201830190838101908783111561296b57600080fd5b928401925b8284101561298957833582529284019290840190612970565b979650505050505050565b6000602082840312156129a657600080fd5b813573ffffffffffffffffffffffffffffffffffffffff8116811461137f57600080fd5b600060208083850312156129dd57600080fd5b825167ffffffffffffffff8111156129f457600080fd5b8301601f81018513612a0557600080fd5b8051612a1361280d826128df565b81815260059190911b82018301908381019087831115612a3257600080fd5b928401925b8284101561298957835182529284019290840190612a37565b7f4e487b7100000000000000000000000000000000000000000000000000000000600052603260045260246000fd5b600060208284031215612a9157600080fd5b5051919050565b600081518084526020808501945080840160005b83811015612ac857815187529582019590820190600101612aac565b509495945050505050565b60208152600061137f6020830184612a98565b7f4e487b7100000000000000000000000000000000000000000000000000000000600052601160045260246000fd5b60007fffffffffffffffffffffffffffffffffffffffffffffffffffffffffffffffff8203612b4657612b46612ae6565b5060010190565b600060208284031215612b5f57600080fd5b8151801515811461137f57600080fd5b81810381811115610d2f57610d2f612ae6565b6000612b9061280d8461277f565b9050828152838383011115612ba457600080fd5b61137f836020830184612845565b600082601f830112612bc357600080fd5b61137f83835160208501612b82565b60006020808385031215612be557600080fd5b825167ffffffffffffffff80821115612bfd57600080fd5b818501915085601f830112612c1157600080fd5b8151612c1f61280d826128df565b81815260059190911b83018401908481019088831115612c3e57600080fd5b8585015b83811015612c7657805185811115612c5a5760008081fd5b612c688b89838a0101612bb2565b845250918601918601612c42565b5098975050505050505050565b60006020808385031215612c9657600080fd5b825167ffffffffffffffff811115612cad57600080fd5b8301601f81018513612cbe57600080fd5b8051612ccc61280d826128df565b81815260059190911b82018301908381019087831115612ceb57600080fd5b928401925b8284101561298957835163ffffffff81168114612d0d5760008081fd5b82529284019290840190612cf0565b82815260406020820152600061163d6040830184612a98565b7f6861732e666c6167000000000000000000000000000000000000000000000000815282600882015260008251612d73816028850160208701612845565b919091016028019392505050565b80820180821115610d2f57610d2f612ae6565b604081526000612da76040830185612a98565b6020838203818501528185518084528284019150828160051b85010183880160005b83811015612e15577fffffffffffffffffffffffffffffffffffffffffffffffffffffffffffffffe0878403018552612e03838351612869565b94860194925090850190600101612dc9565b50909998505050505050505050565b82815260406020820152600061163d6040830184612869565b600060208284031215612e4f57600080fd5b815167ffffffffffffffff811115612e6657600080fd5b8201601f81018413612e7757600080fd5b61163d84825160208401612b82565b600082612ebc577f4e487b7100000000000000000000000000000000000000000000000000000000600052601260045260246000fd5b500690565b600060208284031215612ed357600080fd5b815167ffffffffffffffff811115612eea57600080fd5b61163d84828501612bb256fea2646970667358221220e18a97cf4db879a84838eb1e20d6148fbc4d2d4a70b9303e654760f18a96243964736f6c63430008110033","linkReferences":{}},"methodIdentifiers":{"cancelOwnershipHandover()":"54d1f13d","completeOwnershipHandover(address)":"f04e283e","deprecate()":"0fcc0c28","execute(bytes)":"09c5eabe","executeTyped(uint256[])":"72de78c2","forceReveal(uint256)":"265ab676","owner()":"8da5cb5b","ownershipHandoverExpiresAt(address)":"fee81cf4","renounceOwnership()":"715018a6","replaceBrokenReveal(uint256)":"32449564","requestOwnershipHandover()":"25692962","transferOwnership(address)":"f2fde38b"},"id":260}