{"abi":[{"type":"constructor","inputs":[{"name":"world","type":"address","internalType":"address"}],"stateMutability":"nonpayable"},{"type":"function","name":"authorizeWriter","inputs":[{"name":"writer","type":"address","internalType":"address"}],"outputs":[],"stateMutability":"nonpayable"},{"type":"function","name":"cancelOwnershipHandover","inputs":[],"outputs":[],"stateMutability":"payable"},{"type":"function","name":"completeOwnershipHandover","inputs":[{"name":"pendingOwner","type":"address","internalType":"address"}],"outputs":[],"stateMutability":"payable"},{"type":"function","name":"extract","inputs":[{"name":"entity","type":"uint256","internalType":"uint256"}],"outputs":[{"name":"","type":"uint32","internalType":"uint32"}],"stateMutability":"nonpayable"},{"type":"function","name":"extractBatch","inputs":[{"name":"entities","type":"uint256[]","internalType":"uint256[]"}],"outputs":[{"name":"","type":"uint32[]","internalType":"uint32[]"}],"stateMutability":"nonpayable"},{"type":"function","name":"extractRaw","inputs":[{"name":"entity","type":"uint256","internalType":"uint256"}],"outputs":[{"name":"","type":"bytes","internalType":"bytes"}],"stateMutability":"nonpayable"},{"type":"function","name":"extractRawBatch","inputs":[{"name":"entities","type":"uint256[]","internalType":"uint256[]"}],"outputs":[{"name":"","type":"bytes[]","internalType":"bytes[]"}],"stateMutability":"nonpayable"},{"type":"function","name":"get","inputs":[{"name":"entity","type":"uint256","internalType":"uint256"}],"outputs":[{"name":"","type":"uint32","internalType":"uint32"}],"stateMutability":"view"},{"type":"function","name":"getAt","inputs":[{"name":"value","type":"bytes","internalType":"bytes"},{"name":"index","type":"uint256","internalType":"uint256"}],"outputs":[{"name":"","type":"uint256","internalType":"uint256"}],"stateMutability":"view"},{"type":"function","name":"getBatch","inputs":[{"name":"entities","type":"uint256[]","internalType":"uint256[]"}],"outputs":[{"name":"","type":"uint32[]","internalType":"uint32[]"}],"stateMutability":"view"},{"type":"function","name":"getEntities","inputs":[],"outputs":[{"name":"","type":"uint256[]","internalType":"uint256[]"}],"stateMutability":"view"},{"type":"function","name":"getEntitiesWithValue","inputs":[{"name":"value","type":"uint32","internalType":"uint32"}],"outputs":[{"name":"","type":"uint256[]","internalType":"uint256[]"}],"stateMutability":"view"},{"type":"function","name":"getEntitiesWithValue","inputs":[{"name":"value","type":"bytes","internalType":"bytes"}],"outputs":[{"name":"","type":"uint256[]","internalType":"uint256[]"}],"stateMutability":"view"},{"type":"function","name":"getRaw","inputs":[{"name":"entity","type":"uint256","internalType":"uint256"}],"outputs":[{"name":"","type":"bytes","internalType":"bytes"}],"stateMutability":"view"},{"type":"function","name":"getRawBatch","inputs":[{"name":"entities","type":"uint256[]","internalType":"uint256[]"}],"outputs":[{"name":"","type":"bytes[]","internalType":"bytes[]"}],"stateMutability":"view"},{"type":"function","name":"has","inputs":[{"name":"entity","type":"uint256","internalType":"uint256"}],"outputs":[{"name":"","type":"bool","internalType":"bool"}],"stateMutability":"view"},{"type":"function","name":"id","inputs":[],"outputs":[{"name":"","type":"uint256","internalType":"uint256"}],"stateMutability":"view"},{"type":"function","name":"owner","inputs":[],"outputs":[{"name":"result","type":"address","internalType":"address"}],"stateMutability":"view"},{"type":"function","name":"ownershipHandoverExpiresAt","inputs":[{"name":"pendingOwner","type":"address","internalType":"address"}],"outputs":[{"name":"result","type":"uint256","internalType":"uint256"}],"stateMutability":"view"},{"type":"function","name":"registerWorld","inputs":[{"name":"_world","type":"address","internalType":"address"}],"outputs":[],"stateMutability":"nonpayable"},{"type":"function","name":"remove","inputs":[{"name":"entity","type":"uint256","internalType":"uint256"}],"outputs":[],"stateMutability":"nonpayable"},{"type":"function","name":"removeBatch","inputs":[{"name":"entities","type":"uint256[]","internalType":"uint256[]"}],"outputs":[],"stateMutability":"nonpayable"},{"type":"function","name":"renounceOwnership","inputs":[],"outputs":[],"stateMutability":"payable"},{"type":"function","name":"requestOwnershipHandover","inputs":[],"outputs":[],"stateMutability":"payable"},{"type":"function","name":"set","inputs":[{"name":"entity","type":"uint256","internalType":"uint256"},{"name":"value","type":"bytes","internalType":"bytes"}],"outputs":[],"stateMutability":"nonpayable"},{"type":"function","name":"set","inputs":[{"name":"entity","type":"uint256","internalType":"uint256"},{"name":"value","type":"uint32","internalType":"uint32"}],"outputs":[],"stateMutability":"nonpayable"},{"type":"function","name":"setBatch","inputs":[{"name":"entities","type":"uint256[]","internalType":"uint256[]"},{"name":"values","type":"bytes[]","internalType":"bytes[]"}],"outputs":[],"stateMutability":"nonpayable"},{"type":"function","name":"setBatch","inputs":[{"name":"entities","type":"uint256[]","internalType":"uint256[]"},{"name":"values","type":"uint32[]","internalType":"uint32[]"}],"outputs":[],"stateMutability":"nonpayable"},{"type":"function","name":"size","inputs":[{"name":"value","type":"bytes","internalType":"bytes"}],"outputs":[{"name":"","type":"uint256","internalType":"uint256"}],"stateMutability":"view"},{"type":"function","name":"transferOwnership","inputs":[{"name":"newOwner","type":"address","internalType":"address"}],"outputs":[],"stateMutability":"payable"},{"type":"function","name":"unauthorizeWriter","inputs":[{"name":"writer","type":"address","internalType":"address"}],"outputs":[],"stateMutability":"nonpayable"},{"type":"function","name":"world","inputs":[],"outputs":[{"name":"","type":"address","internalType":"address"}],"stateMutability":"view"},{"type":"function","name":"writeAccess","inputs":[{"name":"operator","type":"address","internalType":"address"}],"outputs":[{"name":"","type":"bool","internalType":"bool"}],"stateMutability":"view"},{"type":"event","name":"OwnershipHandoverCanceled","inputs":[{"name":"pendingOwner","type":"address","indexed":true,"internalType":"address"}],"anonymous":false},{"type":"event","name":"OwnershipHandoverRequested","inputs":[{"name":"pendingOwner","type":"address","indexed":true,"internalType":"address"}],"anonymous":false},{"type":"event","name":"OwnershipTransferred","inputs":[{"name":"oldOwner","type":"address","indexed":true,"internalType":"address"},{"name":"newOwner","type":"address","indexed":true,"internalType":"address"}],"anonymous":false},{"type":"error","name":"AlreadyInitialized","inputs":[]},{"type":"error","name":"BareComponent__NotImplemented","inputs":[]},{"type":"error","name":"BatchOp_UnexpectedLength","inputs":[]},{"type":"error","name":"NewOwnerIsZeroAddress","inputs":[]},{"type":"error","name":"NoHandoverRequest","inputs":[]},{"type":"error","name":"OwnableWritable__NotWriter","inputs":[]},{"type":"error","name":"Unauthorized","inputs":[]},{"type":"error","name":"ZeroValueNotAllowed","inputs":[]}],"bytecode":{"object":"0x60806040523480156200001157600080fd5b50604051620029ba380380620029ba833981016040819052620000349162000172565b807fe52fb4f348048b28b8ab655215c3747cbe8c2c4570c9602cc837a3238178049681818181620000653362000092565b60028190556001600160a01b0382161562000085576200008582620000ce565b50505050505050620001a4565b6001600160a01b0316638b78c6d8198190558060007f8be0079c531659141344cd1fd0a4f28419497f9722a3daafe3b4186f6b6457e08180a350565b620000d862000154565b600080546001600160a01b0319166001600160a01b038316908117909155600254604051630f30347760e41b8152306004820152602481019190915263f303477090604401600060405180830381600087803b1580156200013857600080fd5b505af11580156200014d573d6000803e3d6000fd5b5050505050565b638b78c6d81954331462000170576382b429006000526004601cfd5b565b6000602082840312156200018557600080fd5b81516001600160a01b03811681146200019d57600080fd5b9392505050565b61280680620001b46000396000f3fe6080604052600436106101fe5760003560e01c8063861eb9051161011d578063bf4fe57e116100b0578063dd98e3c91161007f578063f04e283e11610064578063f04e283e1461061e578063f2fde38b14610631578063fee81cf41461064457600080fd5b8063dd98e3c9146105d1578063e9ff6c76146105fe57600080fd5b8063bf4fe57e14610551578063cccf7a8e14610571578063d923c3c414610591578063dc5c22cd146105b157600080fd5b80639507d39a116100ec5780639507d39a146104db5780639d2c76b4146104fb578063af640d0f1461051b578063b361be461461053157600080fd5b8063861eb905146104375780638b282947146104675780638c431d55146104875780638da5cb5b146104a757600080fd5b8063447e2bd2116101955780636f9aa155116101645780636f9aa155146103ba578063715018a6146103da5780638482643e146103e257806385b397821461040257600080fd5b8063447e2bd2146103525780634cc82215146103725780634fef6a381461039257806354d1f13d146103b257600080fd5b806325692962116101d157806325692962146102b657806330b67baa146102be57806331b933b9146103105780634323c4ef1461033257600080fd5b8063088dd0b91461020357806312b111551461023957806313ca8b6a146102665780631c5ee10c14610288575b600080fd5b34801561020f57600080fd5b5061022361021e366004611fc3565b610677565b6040516102309190612000565b60405180910390f35b34801561024557600080fd5b50610259610254366004611fc3565b610690565b60405161023091906120ae565b34801561027257600080fd5b506102866102813660046121bc565b6106da565b005b34801561029457600080fd5b506102a86102a3366004612291565b610727565b604051908152602001610230565b61028661074b565b3480156102ca57600080fd5b506000546102eb9073ffffffffffffffffffffffffffffffffffffffff1681565b60405173ffffffffffffffffffffffffffffffffffffffff9091168152602001610230565b34801561031c57600080fd5b5061032561079b565b60405161023091906122c6565b34801561033e57600080fd5b5061025961034d366004611fc3565b6107cf565b34801561035e57600080fd5b5061032561036d366004612310565b61091b565b34801561037e57600080fd5b5061028661038d36600461232d565b610953565b34801561039e57600080fd5b506102866103ad366004612346565b61099e565b610286610a14565b3480156103c657600080fd5b506102a86103d536600461237c565b610a50565b610286610a7a565b3480156103ee57600080fd5b506102866103fd366004611fc3565b610a8e565b34801561040e57600080fd5b5061042261041d36600461232d565b610ad6565b60405163ffffffff9091168152602001610230565b34801561044357600080fd5b50610457610452366004612346565b610b28565b6040519015158152602001610230565b34801561047357600080fd5b506102866104823660046123c1565b610bb7565b34801561049357600080fd5b506102866104a2366004612408565b610c00565b3480156104b357600080fd5b507fffffffffffffffffffffffffffffffffffffffffffffffffffffffff74873927546102eb565b3480156104e757600080fd5b506104226104f636600461232d565b610c51565b34801561050757600080fd5b50610286610516366004612346565b610c5f565b34801561052757600080fd5b506102a860025481565b34801561053d57600080fd5b5061032561054c366004612291565b610d20565b34801561055d57600080fd5b5061028661056c366004612346565b610d2b565b34801561057d57600080fd5b5061045761058c36600461232d565b610d9e565b34801561059d57600080fd5b506102866105ac3660046124cc565b610dc0565b3480156105bd57600080fd5b506102236105cc366004611fc3565b610e36565b3480156105dd57600080fd5b506105f16105ec36600461232d565b610e83565b60405161023091906124fc565b34801561060a57600080fd5b506105f161061936600461232d565b610e8e565b61028661062c366004612346565b610ed8565b61028661063f366004612346565b610f15565b34801561065057600080fd5b506102a861065f366004612346565b63389a75e1600c908152600091909152602090205490565b606061068a61068583610f3c565b611081565b92915050565b606061069b33610b28565b6106d1576040517f406ed3da00000000000000000000000000000000000000000000000000000000815260040160405180910390fd5b61068a82611132565b6106e333610b28565b610719576040517f406ed3da00000000000000000000000000000000000000000000000000000000815260040160405180910390fd5b610723828261114a565b5050565b600061068a60036000848051906020012081526020019081526020016000206112de565b60006202a30067ffffffffffffffff164201905063389a75e1600c5233600052806020600c2055337fdbf36a107da19e49527a7176a1babf963b4b0ff8cde35ee35d6cd8f1f9ac7e1d600080a250565b60606040517f17d5b8e800000000000000000000000000000000000000000000000000000000815260040160405180910390fd5b60606000825167ffffffffffffffff8111156107ed576107ed611eb6565b60405190808252806020026020018201604052801561082057816020015b606081526020019060019003908161080b5790505b50905060005b835181101561091457600160008583815181106108455761084561250f565b6020026020010151815260200190815260200160002080546108669061253e565b80601f01602080910402602001604051908101604052809291908181526020018280546108929061253e565b80156108df5780601f106108b4576101008083540402835291602001916108df565b820191906000526020600020905b8154815290600101906020018083116108c257829003601f168201915b50505050508282815181106108f6576108f661250f565b6020026020010181905250808061090c906125c0565b915050610826565b5092915050565b606061068a61094e836040805163ffffffff83166020820152606091016040516020818303038152906040529050919050565b6112e8565b61095c33610b28565b610992576040517f406ed3da00000000000000000000000000000000000000000000000000000000815260040160405180910390fd5b61099b8161130c565b50565b6109a66113df565b73ffffffffffffffffffffffffffffffffffffffff1660009081527f8ffeadc5cba727b8cc3cdef48739619490ea317fdb3baae1259089d06f92c9096020526040902080547fffffffffffffffffffffffffffffffffffffffffffffffffffffffffffffff00166001179055565b63389a75e1600c523360005260006020600c2055337ffa7b8eab7da67f412cc9575ed43464468f9bfbae89d1675917346ca6d8fe3c92600080a2565b81516020808401919091206000908152600390915260408120610a739083611415565b9392505050565b610a826113df565b610a8c6000611421565b565b610a9733610b28565b610acd576040517f406ed3da00000000000000000000000000000000000000000000000000000000815260040160405180910390fd5b61099b81611487565b6000610ae133610b28565b610b17576040517f406ed3da00000000000000000000000000000000000000000000000000000000815260040160405180910390fd5b61068a610b238361158f565b6115af565b73ffffffffffffffffffffffffffffffffffffffff811660009081527f8ffeadc5cba727b8cc3cdef48739619490ea317fdb3baae1259089d06f92c909602052604081205460ff168061068a5750507fffffffffffffffffffffffffffffffffffffffffffffffffffffffff748739275473ffffffffffffffffffffffffffffffffffffffff91821691161490565b610bc033610b28565b610bf6576040517f406ed3da00000000000000000000000000000000000000000000000000000000815260040160405180910390fd5b61072382826115c5565b610c0933610b28565b610c3f576040517f406ed3da00000000000000000000000000000000000000000000000000000000815260040160405180910390fd5b61072382610c4c836116c0565b61114a565b600061068a610b2383611797565b610c676113df565b600080547fffffffffffffffffffffffff00000000000000000000000000000000000000001673ffffffffffffffffffffffffffffffffffffffff83169081179091556002546040517ff3034770000000000000000000000000000000000000000000000000000000008152306004820152602481019190915263f3034770906044015b600060405180830381600087803b158015610d0557600080fd5b505af1158015610d19573d6000803e3d6000fd5b5050505050565b606061068a826112e8565b610d336113df565b73ffffffffffffffffffffffffffffffffffffffff1660009081527f8ffeadc5cba727b8cc3cdef48739619490ea317fdb3baae1259089d06f92c9096020526040902080547fffffffffffffffffffffffffffffffffffffffffffffffffffffffffffffff00169055565b60008181526001602052604081208054610db79061253e565b15159392505050565b610dc933610b28565b610dff576040517f406ed3da00000000000000000000000000000000000000000000000000000000815260040160405180910390fd5b61072382610e31836040805163ffffffff83166020820152606091016040516020818303038152906040529050919050565b6115c5565b6060610e4133610b28565b610e77576040517f406ed3da00000000000000000000000000000000000000000000000000000000815260040160405180910390fd5b61068a61068583611132565b606061068a82611797565b6060610e9933610b28565b610ecf576040517f406ed3da00000000000000000000000000000000000000000000000000000000815260040160405180910390fd5b61068a8261158f565b610ee06113df565b63389a75e1600c52806000526020600c208054421115610f0857636f5e88186000526004601cfd5b6000905561099b81611421565b610f1d6113df565b8060601b610f3357637448fbae6000526004601cfd5b61099b81611421565b60606000825167ffffffffffffffff811115610f5a57610f5a611eb6565b604051908082528060200260200182016040528015610f8d57816020015b6060815260200190600190039081610f785790505b50905060005b83518110156109145760016000858381518110610fb257610fb261250f565b602002602001015181526020019081526020016000208054610fd39061253e565b80601f0160208091040260200160405190810160405280929190818152602001828054610fff9061253e565b801561104c5780601f106110215761010080835404028352916020019161104c565b820191906000526020600020905b81548152906001019060200180831161102f57829003601f168201915b50505050508282815181106110635761106361250f565b60200260200101819052508080611079906125c0565b915050610f93565b60606000825167ffffffffffffffff81111561109f5761109f611eb6565b6040519080825280602002602001820160405280156110c8578160200160208202803683370190505b50905060005b8351811015610914576110f98482815181106110ec576110ec61250f565b60200260200101516115af565b82828151811061110b5761110b61250f565b63ffffffff909216602092830291909101909101528061112a816125c0565b9150506110ce565b6060600061113f83610f3c565b905061068a83611487565b60005b82518110156112d35760006001600085848151811061116e5761116e61250f565b60200260200101518152602001908152602001600020805461118f9061253e565b80601f01602080910402602001604051908101604052809291908181526020018280546111bb9061253e565b80156112085780601f106111dd57610100808354040283529160200191611208565b820191906000526020600020905b8154815290600101906020018083116111eb57829003601f168201915b505050505090506000815111156112605761125e84838151811061122e5761122e61250f565b6020026020010151600360008480519060200120815260200190815260200160002061183990919063ffffffff16565b505b6112be8483815181106112755761127561250f565b6020026020010151600360008686815181106112935761129361250f565b602002602001015180519060200120815260200190815260200160002061184590919063ffffffff16565b505080806112cb906125c0565b91505061114d565b506107238282611851565b600061068a825490565b606061068a6003600084805190602001208152602001908152602001600020611a2f565b600081815260016020526040812080546113259061253e565b80601f01602080910402602001604051908101604052809291908181526020018280546113519061253e565b801561139e5780601f106113735761010080835404028352916020019161139e565b820191906000526020600020905b81548152906001019060200180831161138157829003601f168201915b5050505050905080516000036113b2575050565b805160208083019190912060009081526003909152604090206113d59083611839565b5061072382611a3c565b7fffffffffffffffffffffffffffffffffffffffffffffffffffffffff74873927543314610a8c576382b429006000526004601cfd5b6000610a738383611aaa565b7fffffffffffffffffffffffffffffffffffffffffffffffffffffffff74873927805473ffffffffffffffffffffffffffffffffffffffff9092169182907f8be0079c531659141344cd1fd0a4f28419497f9722a3daafe3b4186f6b6457e0600080a355565b60005b8151811015611585576000600160008484815181106114ab576114ab61250f565b6020026020010151815260200190815260200160002080546114cc9061253e565b80601f01602080910402602001604051908101604052809291908181526020018280546114f89061253e565b80156115455780601f1061151a57610100808354040283529160200191611545565b820191906000526020600020905b81548152906001019060200180831161152857829003601f168201915b50505050509050805160000361155b5750611573565b61157083838151811061122e5761122e61250f565b50505b8061157d816125c0565b91505061148a565b5061099b81611ad4565b6060600061159c83611797565b80519091501561068a5761068a8361130c565b60008180602001905181019061068a91906125f8565b600082815260016020526040812080546115de9061253e565b80601f016020809104026020016040519081016040528092919081815260200182805461160a9061253e565b80156116575780601f1061162c57610100808354040283529160200191611657565b820191906000526020600020905b81548152906001019060200180831161163a57829003601f168201915b5050505050905060008151111561168d578051602080830191909120600090815260039091526040902061168b9084611839565b505b815160208084019190912060009081526003909152604090206116b09084611845565b506116bb8383611be9565b505050565b60606000825167ffffffffffffffff8111156116de576116de611eb6565b60405190808252806020026020018201604052801561171157816020015b60608152602001906001900390816116fc5790505b50905060005b8351811015610914576117678482815181106117355761173561250f565b60200260200101516040805163ffffffff83166020820152606091016040516020818303038152906040529050919050565b8282815181106117795761177961250f565b6020026020010181905250808061178f906125c0565b915050611717565b60008181526001602052604090208054606091906117b49061253e565b80601f01602080910402602001604051908101604052809291908181526020018280546117e09061253e565b801561182d5780601f106118025761010080835404028352916020019161182d565b820191906000526020600020905b81548152906001019060200180831161181057829003601f168201915b50505050509050919050565b6000610a738383611ccb565b6000610a738383611dbe565b805182511461188c576040517fc291f68400000000000000000000000000000000000000000000000000000000815260040160405180910390fd5b60005b8251811015611951578181815181106118aa576118aa61250f565b6020026020010151516000036118ec576040517f9cf8540c00000000000000000000000000000000000000000000000000000000815260040160405180910390fd5b8181815181106118fe576118fe61250f565b60200260200101516001600085848151811061191c5761191c61250f565b60200260200101518152602001908152602001600020908161193e919061265b565b5080611949816125c0565b91505061188f565b506000805473ffffffffffffffffffffffffffffffffffffffff16905b8351811015611a29578173ffffffffffffffffffffffffffffffffffffffff1663cfd3c57f8583815181106119a5576119a561250f565b60200260200101518584815181106119bf576119bf61250f565b60200260200101516040518363ffffffff1660e01b81526004016119e4929190612775565b600060405180830381600087803b1580156119fe57600080fd5b505af1158015611a12573d6000803e3d6000fd5b505050508080611a21906125c0565b91505061196e565b50505050565b60606000610a7383611e0d565b6000818152600160205260408120611a5391611e68565b6000546040517f0de3b7b50000000000000000000000000000000000000000000000000000000081526004810183905273ffffffffffffffffffffffffffffffffffffffff90911690630de3b7b590602401610ceb565b6000826000018281548110611ac157611ac161250f565b9060005260206000200154905092915050565b60005b8151811015611b2a5760016000838381518110611af657611af661250f565b602002602001015181526020019081526020016000206000611b189190611e68565b80611b22816125c0565b915050611ad7565b506000805473ffffffffffffffffffffffffffffffffffffffff16905b82518110156116bb578173ffffffffffffffffffffffffffffffffffffffff16630de3b7b5848381518110611b7e57611b7e61250f565b60200260200101516040518263ffffffff1660e01b8152600401611ba491815260200190565b600060405180830381600087803b158015611bbe57600080fd5b505af1158015611bd2573d6000803e3d6000fd5b505050508080611be1906125c0565b915050611b47565b8051600003611c24576040517f9cf8540c00000000000000000000000000000000000000000000000000000000815260040160405180910390fd5b6000828152600160205260409020611c3c828261265b565b506000546040517fcfd3c57f00000000000000000000000000000000000000000000000000000000815273ffffffffffffffffffffffffffffffffffffffff9091169063cfd3c57f90611c959085908590600401612775565b600060405180830381600087803b158015611caf57600080fd5b505af1158015611cc3573d6000803e3d6000fd5b505050505050565b60008181526001830160205260408120548015611db4576000611cef60018361278e565b8554909150600090611d039060019061278e565b9050818114611d68576000866000018281548110611d2357611d2361250f565b9060005260206000200154905080876000018481548110611d4657611d4661250f565b6000918252602080832090910192909255918252600188019052604090208390555b8554869080611d7957611d796127a1565b60019003818190600052602060002001600090559055856001016000868152602001908152602001600020600090556001935050505061068a565b600091505061068a565b6000818152600183016020526040812054611e055750815460018181018455600084815260208082209093018490558454848252828601909352604090209190915561068a565b50600061068a565b60608160000180548060200260200160405190810160405280929190818152602001828054801561182d57602002820191906000526020600020905b815481526020019060010190808311611e495750505050509050919050565b508054611e749061253e565b6000825580601f10611e84575050565b601f01602090049060005260206000209081019061099b91905b80821115611eb25760008155600101611e9e565b5090565b7f4e487b7100000000000000000000000000000000000000000000000000000000600052604160045260246000fd5b604051601f82017fffffffffffffffffffffffffffffffffffffffffffffffffffffffffffffffe016810167ffffffffffffffff81118282101715611f2c57611f2c611eb6565b604052919050565b600067ffffffffffffffff821115611f4e57611f4e611eb6565b5060051b60200190565b600082601f830112611f6957600080fd5b81356020611f7e611f7983611f34565b611ee5565b82815260059290921b84018101918181019086841115611f9d57600080fd5b8286015b84811015611fb85780358352918301918301611fa1565b509695505050505050565b600060208284031215611fd557600080fd5b813567ffffffffffffffff811115611fec57600080fd5b611ff884828501611f58565b949350505050565b6020808252825182820181905260009190848201906040850190845b8181101561203e57835163ffffffff168352928401929184019160010161201c565b50909695505050505050565b6000815180845260005b8181101561207057602081850181015186830182015201612054565b5060006020828601015260207fffffffffffffffffffffffffffffffffffffffffffffffffffffffffffffffe0601f83011685010191505092915050565b6000602080830181845280855180835260408601915060408160051b870101925083870160005b82811015612121577fffffffffffffffffffffffffffffffffffffffffffffffffffffffffffffffc088860301845261210f85835161204a565b945092850192908501906001016120d5565b5092979650505050505050565b600082601f83011261213f57600080fd5b813567ffffffffffffffff81111561215957612159611eb6565b61218a60207fffffffffffffffffffffffffffffffffffffffffffffffffffffffffffffffe0601f84011601611ee5565b81815284602083860101111561219f57600080fd5b816020850160208301376000918101602001919091529392505050565b600080604083850312156121cf57600080fd5b823567ffffffffffffffff808211156121e757600080fd5b6121f386838701611f58565b935060209150818501358181111561220a57600080fd5b8501601f8101871361221b57600080fd5b8035612229611f7982611f34565b81815260059190911b8201840190848101908983111561224857600080fd5b8584015b83811015612280578035868111156122645760008081fd5b6122728c898389010161212e565b84525091860191860161224c565b508096505050505050509250929050565b6000602082840312156122a357600080fd5b813567ffffffffffffffff8111156122ba57600080fd5b611ff88482850161212e565b6020808252825182820181905260009190848201906040850190845b8181101561203e578351835292840192918401916001016122e2565b63ffffffff8116811461099b57600080fd5b60006020828403121561232257600080fd5b8135610a73816122fe565b60006020828403121561233f57600080fd5b5035919050565b60006020828403121561235857600080fd5b813573ffffffffffffffffffffffffffffffffffffffff81168114610a7357600080fd5b6000806040838503121561238f57600080fd5b823567ffffffffffffffff8111156123a657600080fd5b6123b28582860161212e565b95602094909401359450505050565b600080604083850312156123d457600080fd5b82359150602083013567ffffffffffffffff8111156123f257600080fd5b6123fe8582860161212e565b9150509250929050565b6000806040838503121561241b57600080fd5b823567ffffffffffffffff8082111561243357600080fd5b61243f86838701611f58565b935060209150818501358181111561245657600080fd5b85019050601f8101861361246957600080fd5b8035612477611f7982611f34565b81815260059190911b8201830190838101908883111561249657600080fd5b928401925b828410156124bd5783356124ae816122fe565b8252928401929084019061249b565b80955050505050509250929050565b600080604083850312156124df57600080fd5b8235915060208301356124f1816122fe565b809150509250929050565b602081526000610a73602083018461204a565b7f4e487b7100000000000000000000000000000000000000000000000000000000600052603260045260246000fd5b600181811c9082168061255257607f821691505b60208210810361258b577f4e487b7100000000000000000000000000000000000000000000000000000000600052602260045260246000fd5b50919050565b7f4e487b7100000000000000000000000000000000000000000000000000000000600052601160045260246000fd5b60007fffffffffffffffffffffffffffffffffffffffffffffffffffffffffffffffff82036125f1576125f1612591565b5060010190565b60006020828403121561260a57600080fd5b8151610a73816122fe565b601f8211156116bb57600081815260208120601f850160051c8101602086101561263c5750805b601f850160051c820191505b81811015611cc357828155600101612648565b815167ffffffffffffffff81111561267557612675611eb6565b61268981612683845461253e565b84612615565b602080601f8311600181146126dc57600084156126a65750858301515b7fffffffffffffffffffffffffffffffffffffffffffffffffffffffffffffffff600386901b1c1916600185901b178555611cc3565b6000858152602081207fffffffffffffffffffffffffffffffffffffffffffffffffffffffffffffffe08616915b828110156127295788860151825594840194600190910190840161270a565b508582101561276557878501517fffffffffffffffffffffffffffffffffffffffffffffffffffffffffffffffff600388901b60f8161c191681555b5050505050600190811b01905550565b828152604060208201526000611ff8604083018461204a565b8181038181111561068a5761068a612591565b7f4e487b7100000000000000000000000000000000000000000000000000000000600052603160045260246000fdfea264697066735822122044c0965f97c736a08488ca60f8c2b1e0e125980f153fad3a70e409efedd1146464736f6c63430008110033","linkReferences":{}},"methodIdentifiers":{"authorizeWriter(address)":"4fef6a38","cancelOwnershipHandover()":"54d1f13d","completeOwnershipHandover(address)":"f04e283e","extract(uint256)":"85b39782","extractBatch(uint256[])":"dc5c22cd","extractRaw(uint256)":"e9ff6c76","extractRawBatch(uint256[])":"12b11155","get(uint256)":"9507d39a","getAt(bytes,uint256)":"6f9aa155","getBatch(uint256[])":"088dd0b9","getEntities()":"31b933b9","getEntitiesWithValue(bytes)":"b361be46","getEntitiesWithValue(uint32)":"447e2bd2","getRaw(uint256)":"dd98e3c9","getRawBatch(uint256[])":"4323c4ef","has(uint256)":"cccf7a8e","id()":"af640d0f","owner()":"8da5cb5b","ownershipHandoverExpiresAt(address)":"fee81cf4","registerWorld(address)":"9d2c76b4","remove(uint256)":"4cc82215","removeBatch(uint256[])":"8482643e","renounceOwnership()":"715018a6","requestOwnershipHandover()":"25692962","set(uint256,bytes)":"8b282947","set(uint256,uint32)":"d923c3c4","setBatch(uint256[],bytes[])":"13ca8b6a","setBatch(uint256[],uint32[])":"8c431d55","size(bytes)":"1c5ee10c","transferOwnership(address)":"f2fde38b","unauthorizeWriter(address)":"bf4fe57e","world()":"30b67baa","writeAccess(address)":"861eb905"},"id":67}