{"abi":[{"type":"constructor","inputs":[{"name":"_world","type":"address","internalType":"contract IWorld"},{"name":"_components","type":"address","internalType":"address"}],"stateMutability":"nonpayable"},{"type":"function","name":"cancelOwnershipHandover","inputs":[],"outputs":[],"stateMutability":"payable"},{"type":"function","name":"completeOwnershipHandover","inputs":[{"name":"pendingOwner","type":"address","internalType":"address"}],"outputs":[],"stateMutability":"payable"},{"type":"function","name":"deprecate","inputs":[],"outputs":[],"stateMutability":"nonpayable"},{"type":"function","name":"execute","inputs":[{"name":"arguments","type":"bytes","internalType":"bytes"}],"outputs":[{"name":"","type":"bytes","internalType":"bytes"}],"stateMutability":"nonpayable"},{"type":"function","name":"executeTyped","inputs":[{"name":"addr","type":"address","internalType":"address"}],"outputs":[{"name":"","type":"bytes","internalType":"bytes"}],"stateMutability":"nonpayable"},{"type":"function","name":"owner","inputs":[],"outputs":[{"name":"result","type":"address","internalType":"address"}],"stateMutability":"view"},{"type":"function","name":"ownershipHandoverExpiresAt","inputs":[{"name":"pendingOwner","type":"address","internalType":"address"}],"outputs":[{"name":"result","type":"uint256","internalType":"uint256"}],"stateMutability":"view"},{"type":"function","name":"renounceOwnership","inputs":[],"outputs":[],"stateMutability":"payable"},{"type":"function","name":"requestOwnershipHandover","inputs":[],"outputs":[],"stateMutability":"payable"},{"type":"function","name":"transferOwnership","inputs":[{"name":"newOwner","type":"address","internalType":"address"}],"outputs":[],"stateMutability":"payable"},{"type":"event","name":"OwnershipHandoverCanceled","inputs":[{"name":"pendingOwner","type":"address","indexed":true,"internalType":"address"}],"anonymous":false},{"type":"event","name":"OwnershipHandoverRequested","inputs":[{"name":"pendingOwner","type":"address","indexed":true,"internalType":"address"}],"anonymous":false},{"type":"event","name":"OwnershipTransferred","inputs":[{"name":"oldOwner","type":"address","indexed":true,"internalType":"address"},{"name":"newOwner","type":"address","indexed":true,"internalType":"address"}],"anonymous":false},{"type":"event","name":"SystemDeprecated","inputs":[],"anonymous":false},{"type":"error","name":"AlreadyInitialized","inputs":[]},{"type":"error","name":"NewOwnerIsZeroAddress","inputs":[]},{"type":"error","name":"NoHandoverRequest","inputs":[]},{"type":"error","name":"QueryOrderNotSupported","inputs":[]},{"type":"error","name":"Unauthorized","inputs":[]}],"bytecode":{"object":"0x60c06040523480156200001157600080fd5b506040516200246b3803806200246b83398101604081905262000034916200012f565b81816200004133620000dc565b6001600160a01b03811615620000585780620000bd565b816001600160a01b031663ba62fbe46040518163ffffffff1660e01b8152600401602060405180830381865afa15801562000097573d6000803e3d6000fd5b505050506040513d601f19601f82011682018060405250810190620000bd91906200016e565b6001600160a01b039081166080529190911660a0525062000195915050565b6001600160a01b0316638b78c6d8198190558060007f8be0079c531659141344cd1fd0a4f28419497f9722a3daafe3b4186f6b6457e08180a35b50565b6001600160a01b03811681146200011657600080fd5b600080604083850312156200014357600080fd5b8251620001508162000119565b6020840151909250620001638162000119565b809150509250929050565b6000602082840312156200018157600080fd5b81516200018e8162000119565b9392505050565b60805160a051612289620001e26000396000505060008181610217015281816102450152818161034b01528181610385015281816104150152818161044101526104a401526122896000f3fe6080604052600436106100b15760003560e01c8063715018a611610069578063f04e283e1161004e578063f04e283e1461018f578063f2fde38b146101a2578063fee81cf4146101b557600080fd5b8063715018a6146101335780638da5cb5b1461013b57600080fd5b8063240b27e61161009a578063240b27e614610103578063256929621461012357806354d1f13d1461012b57600080fd5b806309c5eabe146100b65780630fcc0c28146100ec575b600080fd5b3480156100c257600080fd5b506100d66100d1366004611d21565b6101f6565b6040516100e39190611e0f565b60405180910390f35b3480156100f857600080fd5b506101016104f0565b005b34801561010f57600080fd5b506100d661011e366004611e44565b610523565b610101610565565b6101016105b5565b6101016105f1565b34801561014757600080fd5b507fffffffffffffffffffffffffffffffffffffffffffffffffffffffff748739275460405173ffffffffffffffffffffffffffffffffffffffff90911681526020016100e3565b61010161019d366004611e44565b610605565b6101016101b0366004611e44565b610645565b3480156101c157600080fd5b506101e86101d0366004611e44565b63389a75e1600c908152600091909152602090205490565b6040519081526020016100e3565b606060008280602001905181019061020e9190611e61565b9050600061023c7f00000000000000000000000000000000000000000000000000000000000000003361066c565b9050600061026a7f00000000000000000000000000000000000000000000000000000000000000008461082c565b9050806000036102db576040517f08c379a000000000000000000000000000000000000000000000000000000000815260206004820152601e60248201527f467269656e64426c6f636b3a20746172676574206e6f206163636f756e74000060448201526064015b60405180910390fd5b808203610344576040517f08c379a000000000000000000000000000000000000000000000000000000000815260206004820152601e60248201527f467269656e64426c6f636b3a2063616e6e6f7420626c6f636b2073656c66000060448201526064016102d2565b60006103717f00000000000000000000000000000000000000000000000000000000000000008385610901565b9050801580159061040b57506104096103aa7f000000000000000000000000000000000000000000000000000000000000000083610968565b60408051808201909152600781527f424c4f434b45440000000000000000000000000000000000000000000000000060209182015281519101207f9641038fe5b9750b846b513dde74738cbd5484ffac3317430ce346a53b7663931490565b155b1561043a5761043a7f000000000000000000000000000000000000000000000000000000000000000082610a31565b600061049d7f000000000000000000000000000000000000000000000000000000000000000085856040518060400160405280600781526020017f424c4f434b454400000000000000000000000000000000000000000000000000815250610ca0565b90506104c97f000000000000000000000000000000000000000000000000000000000000000085611068565b60408051602081018390520160405160208183030381529060405295505050505050919050565b6104f8611077565b6040517f56f33501ffd77f9fe44d81e7db7e66a66bdf52ab3e11267cdc6462763604c4c790600090a1565b6040805173ffffffffffffffffffffffffffffffffffffffff8316602082015260609161055f91016040516020818303038152906040526101f6565b92915050565b60006202a30067ffffffffffffffff164201905063389a75e1600c5233600052806020600c2055337fdbf36a107da19e49527a7176a1babf963b4b0ff8cde35ee35d6cd8f1f9ac7e1d600080a250565b63389a75e1600c523360005260006020600c2055337ffa7b8eab7da67f412cc9575ed43464468f9bfbae89d1675917346ca6d8fe3c92600080a2565b6105f9611077565b61060360006110ad565b565b61060d611077565b63389a75e1600c52806000526020600c20805442111561063557636f5e88186000526004601cfd5b60009055610642816110ad565b50565b61064d611077565b8060601b61066357637448fbae6000526004601cfd5b610642816110ad565b600080610699847ff9b94d2a933222e58f90359e8ec33041c5f08d7bc4304958d1c52c21991da575611113565b6040517fcccf7a8e00000000000000000000000000000000000000000000000000000000815273ffffffffffffffffffffffffffffffffffffffff8581166004830181905292935083169063cccf7a8e90602401602060405180830381865afa15801561070a573d6000803e3d6000fd5b505050506040513d601f19601f8201168201806040525081019061072e9190611e7e565b610794576040517f08c379a000000000000000000000000000000000000000000000000000000000815260206004820152601b60248201527f4163636f756e743a204f70657261746f72206e6f7420666f756e64000000000060448201526064016102d2565b6040517f9507d39a0000000000000000000000000000000000000000000000000000000081526004810182905273ffffffffffffffffffffffffffffffffffffffff831690639507d39a90602401602060405180830381865afa1580156107ff573d6000803e3d6000fd5b505050506040513d601f19601f820116820180604052508101906108239190611ea0565b95945050505050565b6000806108cb846040518060400160405280600781526020017f4143434f554e5400000000000000000000000000000000000000000000000000815250610896877f6caa0553213b46b61cbf982ee3246d8a2a4e5b4936a7594770d391463046f22e60001c611257565b6040805173ffffffffffffffffffffffffffffffffffffffff8916602082015201604051602081830303815290604052611263565b905060008151116108dd5760006108f9565b806000815181106108f0576108f0611eb9565b60200260200101515b949350505050565b60008061090e84846113ac565b905061095085826040518060400160405280600a81526020017f465249454e445348495000000000000000000000000000000000000000000000815250611427565b61095b57600061095d565b805b9150505b9392505050565b6060610994837f3630e5d2b4dfc42bb69d52e4eef89343acb69d5153f64efe5860a680a55082e7611113565b73ffffffffffffffffffffffffffffffffffffffff16639507d39a836040518263ffffffff1660e01b81526004016109ce91815260200190565b600060405180830381865afa1580156109eb573d6000803e3d6000fd5b505050506040513d6000823e601f3d9081017fffffffffffffffffffffffffffffffffffffffffffffffffffffffffffffffe01682016040526109619190810190611f18565b610a3b8282611475565b610a65827f76ff1730023e97fe3c625f322b0bce44ef61a1a283231d9d6d32441424ec57cf611113565b73ffffffffffffffffffffffffffffffffffffffff16634cc82215826040518263ffffffff1660e01b8152600401610a9f91815260200190565b600060405180830381600087803b158015610ab957600080fd5b505af1158015610acd573d6000803e3d6000fd5b50505050610afe827f62e5c3a731a312a02bd0a6e08720624c014a22c9f60c82fede06a9606c50581560001c611113565b73ffffffffffffffffffffffffffffffffffffffff16634cc82215826040518263ffffffff1660e01b8152600401610b3891815260200190565b600060405180830381600087803b158015610b5257600080fd5b505af1158015610b66573d6000803e3d6000fd5b50505050610b97827f3630e5d2b4dfc42bb69d52e4eef89343acb69d5153f64efe5860a680a55082e760001c611113565b73ffffffffffffffffffffffffffffffffffffffff16634cc82215826040518263ffffffff1660e01b8152600401610bd191815260200190565b600060405180830381600087803b158015610beb57600080fd5b505af1158015610bff573d6000803e3d6000fd5b50505050610c30827fde0f9b459fab67ff56929343dacb07b0c0a1f8509d3184dc6d736f68b80381de60001c611113565b73ffffffffffffffffffffffffffffffffffffffff16634cc82215826040518263ffffffff1660e01b8152600401610c6a91815260200190565b600060405180830381600087803b158015610c8457600080fd5b505af1158015610c98573d6000803e3d6000fd5b505050505050565b6000610cac84846113ac565b9050610cee85826040518060400160405280600a81526020017f465249454e44534849500000000000000000000000000000000000000000000081525061149f565b610d18857f76ff1730023e97fe3c625f322b0bce44ef61a1a283231d9d6d32441424ec57cf611113565b6040517f1ab06ee5000000000000000000000000000000000000000000000000000000008152600481018390526024810186905273ffffffffffffffffffffffffffffffffffffffff9190911690631ab06ee590604401600060405180830381600087803b158015610d8957600080fd5b505af1158015610d9d573d6000803e3d6000fd5b50505050610dce857f62e5c3a731a312a02bd0a6e08720624c014a22c9f60c82fede06a9606c50581560001c611113565b6040517f1ab06ee5000000000000000000000000000000000000000000000000000000008152600481018390526024810185905273ffffffffffffffffffffffffffffffffffffffff9190911690631ab06ee590604401600060405180830381600087803b158015610e3f57600080fd5b505af1158015610e53573d6000803e3d6000fd5b50505050610e84857f3630e5d2b4dfc42bb69d52e4eef89343acb69d5153f64efe5860a680a55082e760001c611113565b73ffffffffffffffffffffffffffffffffffffffff16636437197782846040518363ffffffff1660e01b8152600401610ebe929190611f61565b600060405180830381600087803b158015610ed857600080fd5b505af1158015610eec573d6000803e3d6000fd5b505060408051808201909152600781527f52455155455354000000000000000000000000000000000000000000000000006020918201528451908501207fb86894f0d4d0d822de2bb1686ab4465ef04b4dcd4d3ef6e1f96a340633f66b2a149150610f549050565b15610f6957610f6485828561153a565b6108f9565b60408051808201909152600781527f424c4f434b4544000000000000000000000000000000000000000000000000006020918201528251908301207f9641038fe5b9750b846b513dde74738cbd5484ffac3317430ce346a53b766393036108f957610ff4857fde0f9b459fab67ff56929343dacb07b0c0a1f8509d3184dc6d736f68b80381de611257565b73ffffffffffffffffffffffffffffffffffffffff16634cc82215826040518263ffffffff1660e01b815260040161102e91815260200190565b600060405180830381600087803b15801561104857600080fd5b505af115801561105c573d6000803e3d6000fd5b50505050949350505050565b611073828242611600565b5050565b7fffffffffffffffffffffffffffffffffffffffffffffffffffffffff74873927543314610603576382b429006000526004601cfd5b7fffffffffffffffffffffffffffffffffffffffffffffffffffffffff74873927805473ffffffffffffffffffffffffffffffffffffffff9092169182907f8be0079c531659141344cd1fd0a4f28419497f9722a3daafe3b4186f6b6457e0600080a355565b6040517ffbdfa1ea00000000000000000000000000000000000000000000000000000000815260048101829052600090819073ffffffffffffffffffffffffffffffffffffffff85169063fbdfa1ea90602401600060405180830381865afa158015611183573d6000803e3d6000fd5b505050506040513d6000823e601f3d9081017fffffffffffffffffffffffffffffffffffffffffffffffffffffffffffffffe01682016040526111c99190810190611f9e565b90508051600003611236576040517f08c379a000000000000000000000000000000000000000000000000000000000815260206004820152601160248201527f6964206e6f74207265676973746572656400000000000000000000000000000060448201526064016102d2565b6108f98160008151811061124c5761124c611eb9565b602002602001015190565b60006109618383611113565b604080516002808252606082810190935260009190816020015b6040805160608082018352600080835260208301529181019190915281526020019060019003908161127d57905050604080516060810190915290915080600281526020018573ffffffffffffffffffffffffffffffffffffffff16815260200184815250816000815181106112f5576112f5611eb9565b60209081029190910101526040805160608101909152806002815260200161133d887f5d88ced8d8e079072bf73f49fc87661b519c50d79482941abb852ba2b10909cd611257565b73ffffffffffffffffffffffffffffffffffffffff168152602001866040516020016113699190611e0f565b6040516020818303038152906040528152508160018151811061138e5761138e611eb9565b60200260200101819052506113a281611686565b9695505050505050565b6040517f667269656e6473686970000000000000000000000000000000000000000000006020820152602a8101839052604a8101829052600090606a015b604080517fffffffffffffffffffffffffffffffffffffffffffffffffffffffffffffffe081840301815291905280516020909101209392505050565b60006108f98383611458877f5d88ced8d8e079072bf73f49fc87661b519c50d79482941abb852ba2b10909cd611113565b73ffffffffffffffffffffffffffffffffffffffff169190611832565b610c30827f5d88ced8d8e079072bf73f49fc87661b519c50d79482941abb852ba2b10909cd611113565b6114c9837f5d88ced8d8e079072bf73f49fc87661b519c50d79482941abb852ba2b10909cd611113565b73ffffffffffffffffffffffffffffffffffffffff16636437197783836040518363ffffffff1660e01b8152600401611503929190611f61565b600060405180830381600087803b15801561151d57600080fd5b505af1158015611531573d6000803e3d6000fd5b50505050505050565b611564837fde0f9b459fab67ff56929343dacb07b0c0a1f8509d3184dc6d736f68b80381de611113565b73ffffffffffffffffffffffffffffffffffffffff16631ab06ee5836115bf846040518060400160405280600781526020017f5245515545535400000000000000000000000000000000000000000000000000815250611855565b6040517fffffffff0000000000000000000000000000000000000000000000000000000060e085901b16815260048101929092526024820152604401611503565b61162a837f342adee7430e96bca6f5d4fe57ba5155dc7271000494e77110c292d51ae887fa611113565b6040517f1ab06ee5000000000000000000000000000000000000000000000000000000008152600481018490526024810183905273ffffffffffffffffffffffffffffffffffffffff9190911690631ab06ee590604401611503565b606081516000036116aa5760408051600080825260208201909252905b5092915050565b6002826000815181106116bf576116bf611eb9565b60200260200101516000015160038111156116dc576116dc61202f565b14611713576040517feec45f3600000000000000000000000000000000000000000000000000000000815260040160405180910390fd5b60008260008151811061172857611728611eb9565b60200260200101516020015173ffffffffffffffffffffffffffffffffffffffff1663b361be468460008151811061176257611762611eb9565b6020026020010151604001516040518263ffffffff1660e01b815260040161178a9190611e0f565b600060405180830381865afa1580156117a7573d6000803e3d6000fd5b505050506040513d6000823e601f3d9081017fffffffffffffffffffffffffffffffffffffffffffffffffffffffffffffffe01682016040526117ed9190810190611f9e565b905060015b83518110156116a35761181e84828151811061181057611810611eb9565b60200260200101518361186a565b91508061182a8161205e565b9150506117f2565b60006108f9826118428686611995565b8151602092830120815191909201201490565b600082826040516020016113ea9291906120bd565b60606000836020015173ffffffffffffffffffffffffffffffffffffffff16634323c4ef846040518263ffffffff1660e01b81526004016118ab9190612109565b600060405180830381865afa1580156118c8573d6000803e3d6000fd5b505050506040513d6000823e601f3d9081017fffffffffffffffffffffffffffffffffffffffffffffffffffffffffffffffe016820160405261190e919081019061216d565b90506000805b825181101561198a576119408684838151811061193357611933611eb9565b6020026020010151611a81565b15611957578161194f8161205e565b925050611978565b600085828151811061196b5761196b611eb9565b6020026020010181815250505b806119828161205e565b915050611914565b506108238482611b68565b6040517fdd98e3c90000000000000000000000000000000000000000000000000000000081526004810182905260609060009073ffffffffffffffffffffffffffffffffffffffff85169063dd98e3c990602401600060405180830381865afa158015611a06573d6000803e3d6000fd5b505050506040513d6000823e601f3d9081017fffffffffffffffffffffffffffffffffffffffffffffffffffffffffffffffe0168201604052611a4c919081019061221e565b90508051600003611a6d57505060408051602081019091526000815261055f565b808060200190518101906108f99190611f18565b60008083516003811115611a9757611a9761202f565b03611aa657508051151561055f565b600283516003811115611abb57611abb61202f565b03611adc57818051906020012083604001518051906020012014905061055f565b600183516003811115611af157611af161202f565b03611aff575080511561055f565b600383516003811115611b1457611b1461202f565b03611b365781805190602001208360400151805190602001201415905061055f565b6040517feec45f3600000000000000000000000000000000000000000000000000000000815260040160405180910390fd5b606081600003611b87575060408051600081526020810190915261055f565b60008267ffffffffffffffff811115611ba257611ba2611c5d565b604051908082528060200260200182016040528015611bcb578160200160208202803683370190505b5090506000805b8551811015611c5357858181518110611bed57611bed611eb9565b6020026020010151600014611c4157858181518110611c0e57611c0e611eb9565b6020026020010151838380611c229061205e565b945081518110611c3457611c34611eb9565b6020026020010181815250505b80611c4b8161205e565b915050611bd2565b5090949350505050565b7f4e487b7100000000000000000000000000000000000000000000000000000000600052604160045260246000fd5b604051601f82017fffffffffffffffffffffffffffffffffffffffffffffffffffffffffffffffe016810167ffffffffffffffff81118282101715611cd357611cd3611c5d565b604052919050565b600067ffffffffffffffff821115611cf557611cf5611c5d565b50601f017fffffffffffffffffffffffffffffffffffffffffffffffffffffffffffffffe01660200190565b600060208284031215611d3357600080fd5b813567ffffffffffffffff811115611d4a57600080fd5b8201601f81018413611d5b57600080fd5b8035611d6e611d6982611cdb565b611c8c565b818152856020838501011115611d8357600080fd5b81602084016020830137600091810160200191909152949350505050565b60005b83811015611dbc578181015183820152602001611da4565b50506000910152565b60008151808452611ddd816020860160208601611da1565b601f017fffffffffffffffffffffffffffffffffffffffffffffffffffffffffffffffe0169290920160200192915050565b6020815260006109616020830184611dc5565b73ffffffffffffffffffffffffffffffffffffffff8116811461064257600080fd5b600060208284031215611e5657600080fd5b813561096181611e22565b600060208284031215611e7357600080fd5b815161096181611e22565b600060208284031215611e9057600080fd5b8151801515811461096157600080fd5b600060208284031215611eb257600080fd5b5051919050565b7f4e487b7100000000000000000000000000000000000000000000000000000000600052603260045260246000fd5b6000611ef6611d6984611cdb565b9050828152838383011115611f0a57600080fd5b610961836020830184611da1565b600060208284031215611f2a57600080fd5b815167ffffffffffffffff811115611f4157600080fd5b8201601f81018413611f5257600080fd5b6108f984825160208401611ee8565b8281526040602082015260006108f96040830184611dc5565b600067ffffffffffffffff821115611f9457611f94611c5d565b5060051b60200190565b60006020808385031215611fb157600080fd5b825167ffffffffffffffff811115611fc857600080fd5b8301601f81018513611fd957600080fd5b8051611fe7611d6982611f7a565b81815260059190911b8201830190838101908783111561200657600080fd5b928401925b828410156120245783518252928401929084019061200b565b979650505050505050565b7f4e487b7100000000000000000000000000000000000000000000000000000000600052602160045260246000fd5b60007fffffffffffffffffffffffffffffffffffffffffffffffffffffffffffffffff82036120b6577f4e487b7100000000000000000000000000000000000000000000000000000000600052601160045260246000fd5b5060010190565b7f667269656e64736869702e707472000000000000000000000000000000000000815282600e820152600082516120fb81602e850160208701611da1565b91909101602e019392505050565b6020808252825182820181905260009190848201906040850190845b8181101561214157835183529284019291840191600101612125565b50909695505050505050565b600082601f83011261215e57600080fd5b61096183835160208501611ee8565b6000602080838503121561218057600080fd5b825167ffffffffffffffff8082111561219857600080fd5b818501915085601f8301126121ac57600080fd5b81516121ba611d6982611f7a565b81815260059190911b830184019084810190888311156121d957600080fd5b8585015b83811015612211578051858111156121f55760008081fd5b6122038b89838a010161214d565b8452509186019186016121dd565b5098975050505050505050565b60006020828403121561223057600080fd5b815167ffffffffffffffff81111561224757600080fd5b6108f98482850161214d56fea26469706673582212205bcddc128f2fe50ba98798a5b6bdc1f48bfcc76ce1710a7e71433fd2a7bbf66964736f6c63430008110033","linkReferences":{}},"methodIdentifiers":{"cancelOwnershipHandover()":"54d1f13d","completeOwnershipHandover(address)":"f04e283e","deprecate()":"0fcc0c28","execute(bytes)":"09c5eabe","executeTyped(address)":"240b27e6","owner()":"8da5cb5b","ownershipHandoverExpiresAt(address)":"fee81cf4","renounceOwnership()":"715018a6","requestOwnershipHandover()":"25692962","transferOwnership(address)":"f2fde38b"},"id":262}