{"abi":[{"type":"constructor","inputs":[{"name":"_world","type":"address","internalType":"contract IWorld"},{"name":"_components","type":"address","internalType":"address"}],"stateMutability":"nonpayable"},{"type":"function","name":"cancelOwnershipHandover","inputs":[],"outputs":[],"stateMutability":"payable"},{"type":"function","name":"completeOwnershipHandover","inputs":[{"name":"pendingOwner","type":"address","internalType":"address"}],"outputs":[],"stateMutability":"payable"},{"type":"function","name":"deprecate","inputs":[],"outputs":[],"stateMutability":"nonpayable"},{"type":"function","name":"execute","inputs":[{"name":"arguments","type":"bytes","internalType":"bytes"}],"outputs":[{"name":"","type":"bytes","internalType":"bytes"}],"stateMutability":"nonpayable"},{"type":"function","name":"executeTyped","inputs":[{"name":"goalIndex","type":"uint32","internalType":"uint32"},{"name":"amt","type":"uint256","internalType":"uint256"}],"outputs":[{"name":"","type":"bytes","internalType":"bytes"}],"stateMutability":"nonpayable"},{"type":"function","name":"owner","inputs":[],"outputs":[{"name":"result","type":"address","internalType":"address"}],"stateMutability":"view"},{"type":"function","name":"ownershipHandoverExpiresAt","inputs":[{"name":"pendingOwner","type":"address","internalType":"address"}],"outputs":[{"name":"result","type":"uint256","internalType":"uint256"}],"stateMutability":"view"},{"type":"function","name":"renounceOwnership","inputs":[],"outputs":[],"stateMutability":"payable"},{"type":"function","name":"requestOwnershipHandover","inputs":[],"outputs":[],"stateMutability":"payable"},{"type":"function","name":"transferOwnership","inputs":[{"name":"newOwner","type":"address","internalType":"address"}],"outputs":[],"stateMutability":"payable"},{"type":"event","name":"OwnershipHandoverCanceled","inputs":[{"name":"pendingOwner","type":"address","indexed":true,"internalType":"address"}],"anonymous":false},{"type":"event","name":"OwnershipHandoverRequested","inputs":[{"name":"pendingOwner","type":"address","indexed":true,"internalType":"address"}],"anonymous":false},{"type":"event","name":"OwnershipTransferred","inputs":[{"name":"oldOwner","type":"address","indexed":true,"internalType":"address"},{"name":"newOwner","type":"address","indexed":true,"internalType":"address"}],"anonymous":false},{"type":"event","name":"SystemDeprecated","inputs":[],"anonymous":false},{"type":"error","name":"AlreadyInitialized","inputs":[]},{"type":"error","name":"NewOwnerIsZeroAddress","inputs":[]},{"type":"error","name":"NoHandoverRequest","inputs":[]},{"type":"error","name":"Unauthorized","inputs":[]}],"bytecode":{"object":"0x60c06040523480156200001157600080fd5b5060405162003bb738038062003bb783398101604081905262000034916200012f565b81816200004133620000dc565b6001600160a01b03811615620000585780620000bd565b816001600160a01b031663ba62fbe46040518163ffffffff1660e01b8152600401602060405180830381865afa15801562000097573d6000803e3d6000fd5b505050506040513d601f19601f82011682018060405250810190620000bd91906200016e565b6001600160a01b039081166080529190911660a0525062000195915050565b6001600160a01b0316638b78c6d8198190558060007f8be0079c531659141344cd1fd0a4f28419497f9722a3daafe3b4186f6b6457e08180a35b50565b6001600160a01b03811681146200011657600080fd5b600080604083850312156200014357600080fd5b8251620001508162000119565b6020840151909250620001638162000119565b809150509250929050565b6000602082840312156200018157600080fd5b81516200018e8162000119565b9392505050565b60805160a0516139dc620001db600039600050506000818161021a01528181610248015281816102e301528181610375015281816103a301526103ce01526139dc6000f3fe6080604052600436106100b15760003560e01c8063715018a611610069578063f04e283e1161004e578063f04e283e1461018f578063f2fde38b146101a2578063fee81cf4146101b557600080fd5b8063715018a6146101335780638da5cb5b1461013b57600080fd5b8063256929621161009a578063256929621461010357806354d1f13d1461010b5780635c817c701461011357600080fd5b806309c5eabe146100b65780630fcc0c28146100ec575b600080fd5b3480156100c257600080fd5b506100d66100d1366004613357565b6101f6565b6040516100e39190613445565b60405180910390f35b3480156100f857600080fd5b5061010161040c565b005b61010161043f565b61010161048f565b34801561011f57600080fd5b506100d661012e36600461346a565b6104cb565b610101610507565b34801561014757600080fd5b507fffffffffffffffffffffffffffffffffffffffffffffffffffffffff748739275460405173ffffffffffffffffffffffffffffffffffffffff90911681526020016100e3565b61010161019d366004613496565b61051b565b6101016101b0366004613496565b61055b565b3480156101c157600080fd5b506101e86101d0366004613496565b63389a75e1600c908152600091909152602090205490565b6040519081526020016100e3565b60606000808380602001905181019061020f91906134cc565b91509150600061023f7f000000000000000000000000000000000000000000000000000000000000000033610582565b9050600061026d7f000000000000000000000000000000000000000000000000000000000000000085610742565b9050806000036102de576040517f08c379a000000000000000000000000000000000000000000000000000000000815260206004820152600e60248201527f676f616c206e6f7420666f756e6400000000000000000000000000000000000060448201526064015b60405180910390fd5b61030a7f00000000000000000000000000000000000000000000000000000000000000008583856107a5565b610370576040517f08c379a000000000000000000000000000000000000000000000000000000000815260206004820152601e60248201527f63616e6e6f7420636f6e7472696275746520746f207468697320676f616c000060448201526064016102d5565b61039c7f000000000000000000000000000000000000000000000000000000000000000083838661080b565b92506103c97f00000000000000000000000000000000000000000000000000000000000000008385610a0c565b6103f37f000000000000000000000000000000000000000000000000000000000000000083610a54565b5050604080516020810190915260008152949350505050565b610414610a63565b6040517f56f33501ffd77f9fe44d81e7db7e66a66bdf52ab3e11267cdc6462763604c4c790600090a1565b60006202a30067ffffffffffffffff164201905063389a75e1600c5233600052806020600c2055337fdbf36a107da19e49527a7176a1babf963b4b0ff8cde35ee35d6cd8f1f9ac7e1d600080a250565b63389a75e1600c523360005260006020600c2055337ffa7b8eab7da67f412cc9575ed43464468f9bfbae89d1675917346ca6d8fe3c92600080a2565b6040805163ffffffff841660208201529081018290526060906104fe9082016040516020818303038152906040526101f6565b90505b92915050565b61050f610a63565b6105196000610a99565b565b610523610a63565b63389a75e1600c52806000526020600c20805442111561054b57636f5e88186000526004601cfd5b6000905561055881610a99565b50565b610563610a63565b8060601b61057957637448fbae6000526004601cfd5b61055881610a99565b6000806105af847ff9b94d2a933222e58f90359e8ec33041c5f08d7bc4304958d1c52c21991da575610aff565b6040517fcccf7a8e00000000000000000000000000000000000000000000000000000000815273ffffffffffffffffffffffffffffffffffffffff8581166004830181905292935083169063cccf7a8e90602401602060405180830381865afa158015610620573d6000803e3d6000fd5b505050506040513d601f19601f8201168201806040525081019061064491906134fa565b6106aa576040517f08c379a000000000000000000000000000000000000000000000000000000000815260206004820152601b60248201527f4163636f756e743a204f70657261746f72206e6f7420666f756e64000000000060448201526064016102d5565b6040517f9507d39a0000000000000000000000000000000000000000000000000000000081526004810182905273ffffffffffffffffffffffffffffffffffffffff831690639507d39a90602401602060405180830381865afa158015610715573d6000803e3d6000fd5b505050506040513d601f19601f82011682018060405250810190610739919061351c565b95945050505050565b60008061074e83610c43565b905061079084826040518060400160405280600481526020017f474f414c00000000000000000000000000000000000000000000000000000000815250610cdb565b61079b57600061079d565b805b949350505050565b6000806107b28686610d33565b90506107bf868483610d47565b6107cd57600091505061079d565b6107d8868585610d54565b6107e657600091505061079d565b6107f08685610f42565b156107ff57600091505061079d565b50600195945050505050565b60008061081784610fe9565b90506000610845877fb25ea67b55901db62e4b14311a8c1ab178fec3948b4b493a711970a50aa2a2e1610aff565b9050600061086973ffffffffffffffffffffffffffffffffffffffff831687611024565b9050600061088d73ffffffffffffffffffffffffffffffffffffffff841685611024565b90508061089a8784613564565b106108b5576108a98282613577565b95506108b58988611103565b60006108c18a8661119d565b905060006108cf8b87611266565b6040517f64fccee700000000000000000000000000000000000000000000000000000000815290915073__$9ba74e409797cf5ab9d2a10b98938953ca$__906364fccee79061092a908e908e90879087908f9060040161358a565b60006040518083038186803b15801561094257600080fd5b505af4158015610956573d6000803e3d6000fd5b505050508473ffffffffffffffffffffffffffffffffffffffff16631ab06ee58a8a876109839190613564565b6040517fffffffff0000000000000000000000000000000000000000000000000000000060e085901b16815260048101929092526024820152604401600060405180830381600087803b1580156109d957600080fd5b505af11580156109ed573d6000803e3d6000fd5b505050506109fd8b8b8b8b6113bf565b50959998505050505050505050565b610a4f838360006040518060400160405280601181526020017f474f414c5f434f4e545249425554494f4e000000000000000000000000000000815250856113e1565b505050565b610a5f8282426113fb565b5050565b7fffffffffffffffffffffffffffffffffffffffffffffffffffffffff74873927543314610519576382b429006000526004601cfd5b7fffffffffffffffffffffffffffffffffffffffffffffffffffffffff74873927805473ffffffffffffffffffffffffffffffffffffffff9092169182907f8be0079c531659141344cd1fd0a4f28419497f9722a3daafe3b4186f6b6457e0600080a355565b6040517ffbdfa1ea00000000000000000000000000000000000000000000000000000000815260048101829052600090819073ffffffffffffffffffffffffffffffffffffffff85169063fbdfa1ea90602401600060405180830381865afa158015610b6f573d6000803e3d6000fd5b505050506040513d6000823e601f3d9081017fffffffffffffffffffffffffffffffffffffffffffffffffffffffffffffffe0168201604052610bb591908101906135d9565b90508051600003610c22576040517f08c379a000000000000000000000000000000000000000000000000000000000815260206004820152601160248201527f6964206e6f74207265676973746572656400000000000000000000000000000060448201526064016102d5565b61079d81600081518110610c3857610c3861367f565b602002602001015190565b6040517f676f616c0000000000000000000000000000000000000000000000000000000060208201527fffffffff0000000000000000000000000000000000000000000000000000000060e083901b1660248201526000906028015b604080517fffffffffffffffffffffffffffffffffffffffffffffffffffffffffffffffe0818403018152919052805160209091012092915050565b6000610d298383610d0c877f5d88ced8d8e079072bf73f49fc87661b519c50d79482941abb852ba2b10909cd610aff565b73ffffffffffffffffffffffffffffffffffffffff1691906114b3565b90505b9392505050565b60606104fe83610d42846114d6565b611536565b6000610d298483856115ff565b600080610d81857f3be9611062b8582cf4b9a4eafe577dbde7dcd7779a1efb46d73e212026c4b0cc610aff565b6040517fcccf7a8e0000000000000000000000000000000000000000000000000000000081526004810186905290915073ffffffffffffffffffffffffffffffffffffffff82169063cccf7a8e90602401602060405180830381865afa158015610def573d6000803e3d6000fd5b505050506040513d601f19601f82011682018060405250810190610e1391906134fa565b610e21576001915050610d2c565b6040517f9507d39a0000000000000000000000000000000000000000000000000000000081526004810184905273ffffffffffffffffffffffffffffffffffffffff821690639507d39a90602401602060405180830381865afa158015610e8c573d6000803e3d6000fd5b505050506040513d601f19601f82011682018060405250810190610eb091906136ae565b63ffffffff168173ffffffffffffffffffffffffffffffffffffffff16639507d39a866040518263ffffffff1660e01b8152600401610ef191815260200190565b602060405180830381865afa158015610f0e573d6000803e3d6000fd5b505050506040513d601f19601f82011682018060405250810190610f3291906136ae565b63ffffffff161495945050505050565b6000610f6e837f9522897410526014691d8a863fac7bd2e048ab08176b6e3c6fa8a1f5195164bb610aff565b73ffffffffffffffffffffffffffffffffffffffff1663cccf7a8e836040518263ffffffff1660e01b8152600401610fa891815260200190565b602060405180830381865afa158015610fc5573d6000803e3d6000fd5b505050506040513d601f19601f820116820180604052508101906104fe91906134fa565b6040517f676f616c2e6f626a6563746976650000000000000000000000000000000000006020820152602e8101829052600090604e01610c9f565b6040517fdd98e3c900000000000000000000000000000000000000000000000000000000815260048101829052600090819073ffffffffffffffffffffffffffffffffffffffff85169063dd98e3c990602401600060405180830381865afa158015611094573d6000803e3d6000fd5b505050506040513d6000823e601f3d9081017fffffffffffffffffffffffffffffffffffffffffffffffffffffffffffffffe01682016040526110da91908101906136fb565b905080516000036110ef576000915050610501565b8080602001905181019061079d919061351c565b61112d827f9522897410526014691d8a863fac7bd2e048ab08176b6e3c6fa8a1f5195164bb610aff565b73ffffffffffffffffffffffffffffffffffffffff166360fe47b1826040518263ffffffff1660e01b815260040161116791815260200190565b600060405180830381600087803b15801561118157600080fd5b505af1158015611195573d6000803e3d6000fd5b505050505050565b60606111c9837f024accd0d273ef6123273b21662f5cc055a7d58adf98cc1b060edd029af93f7f610aff565b73ffffffffffffffffffffffffffffffffffffffff16639507d39a836040518263ffffffff1660e01b815260040161120391815260200190565b600060405180830381865afa158015611220573d6000803e3d6000fd5b505050506040513d6000823e601f3d9081017fffffffffffffffffffffffffffffffffffffffffffffffffffffffffffffffe01682016040526104fe91908101906136fb565b600080611293847f62adc4221185187a288916c2630b5e1f37e9437c5b68d55bc59b9debc23f19d0610aff565b6040517fcccf7a8e0000000000000000000000000000000000000000000000000000000081526004810185905290915073ffffffffffffffffffffffffffffffffffffffff82169063cccf7a8e90602401602060405180830381865afa158015611301573d6000803e3d6000fd5b505050506040513d601f19601f8201168201806040525081019061132591906134fa565b61133057600061079d565b6040517f9507d39a0000000000000000000000000000000000000000000000000000000081526004810184905273ffffffffffffffffffffffffffffffffffffffff821690639507d39a90602401602060405180830381865afa15801561139b573d6000803e3d6000fd5b505050506040513d601f19601f8201168201806040525081019061079d91906136ae565b60006113cb8385611671565b90506113da85828686866116ec565b5050505050565b60006113ee858585611744565b9050611195868284611799565b611425837f342adee7430e96bca6f5d4fe57ba5155dc7271000494e77110c292d51ae887fa610aff565b6040517f1ab06ee5000000000000000000000000000000000000000000000000000000008152600481018490526024810183905273ffffffffffffffffffffffffffffffffffffffff9190911690631ab06ee590604401600060405180830381600087803b15801561149657600080fd5b505af11580156114aa573d6000803e3d6000fd5b50505050505050565b6000610d29826114c386866117ce565b8151602092830120815191909201201490565b6040517f676f616c2e726571756972656d656e740000000000000000000000000000000060208201527fffffffff0000000000000000000000000000000000000000000000000000000060e083901b166030820152600090603401610c9f565b6060611562837fde0f9b459fab67ff56929343dacb07b0c0a1f8509d3184dc6d736f68b80381de610aff565b73ffffffffffffffffffffffffffffffffffffffff1663fbdfa1ea836040518263ffffffff1660e01b815260040161159c91815260200190565b600060405180830381865afa1580156115b9573d6000803e3d6000fd5b505050506040513d6000823e601f3d9081017fffffffffffffffffffffffffffffffffffffffffffffffffffffffffffffffe01682016040526104fe91908101906135d9565b6000825160000361161257506001610d2c565b600061161e85856118d0565b905060005b84518110156107ff5761165086858484815181106116435761164361367f565b6020026020010151611e4e565b61165f57600092505050610d2c565b8061166981613744565b915050611623565b6040517f676f616c2e636f6e747269627574696f6e000000000000000000000000000000602082015260318101839052605181018290526000906071015b604080517fffffffffffffffffffffffffffffffffffffffffffffffffffffffffffffffe081840301815291905280516020909101209392505050565b6116f885858585611f16565b6111958482611727887fb25ea67b55901db62e4b14311a8c1ab178fec3948b4b493a711970a50aa2a2e1610aff565b73ffffffffffffffffffffffffffffffffffffffff16919061211c565b600083838360405160200161175b9392919061377c565b604080517fffffffffffffffffffffffffffffffffffffffffffffffffffffffffffffffe08184030181529190528051602090910120949350505050565b6117c88282611727867fb25ea67b55901db62e4b14311a8c1ab178fec3948b4b493a711970a50aa2a2e1610aff565b50505050565b6040517fdd98e3c90000000000000000000000000000000000000000000000000000000081526004810182905260609060009073ffffffffffffffffffffffffffffffffffffffff85169063dd98e3c990602401600060405180830381865afa15801561183f573d6000803e3d6000fd5b505050506040513d6000823e601f3d9081017fffffffffffffffffffffffffffffffffffffffffffffffffffffffffffffffe016820160405261188591908101906136fb565b905080516000036118a6575050604080516020810190915260008152610501565b8080602001905181019061079d91906136fb565b8051602091820120825192909101919091201490565b606060006118fe847f024accd0d273ef6123273b21662f5cc055a7d58adf98cc1b060edd029af93f7f610aff565b9050600061192c857f787589c9eda599ea35279a6d93e360e8fdc5402255545ca394f5033f5e58ed42610aff565b9050600061195a867f62adc4221185187a288916c2630b5e1f37e9437c5b68d55bc59b9debc23f19d0610aff565b90506000611988877fb25ea67b55901db62e4b14311a8c1ab178fec3948b4b493a711970a50aa2a2e1610aff565b90506000865167ffffffffffffffff8111156119a6576119a6613293565b604051908082528060200260200182016040528015611a0857816020015b6119f560405180608001604052806060815260200160608152602001600063ffffffff168152602001600081525090565b8152602001906001900390816119c45790505b50905060005b8751811015611e425760405180608001604052808773ffffffffffffffffffffffffffffffffffffffff16639507d39a8b8581518110611a5057611a5061367f565b60200260200101516040518263ffffffff1660e01b8152600401611a7691815260200190565b600060405180830381865afa158015611a93573d6000803e3d6000fd5b505050506040513d6000823e601f3d9081017fffffffffffffffffffffffffffffffffffffffffffffffffffffffffffffffe0168201604052611ad991908101906136fb565b81526020018673ffffffffffffffffffffffffffffffffffffffff16639507d39a8b8581518110611b0c57611b0c61367f565b60200260200101516040518263ffffffff1660e01b8152600401611b3291815260200190565b600060405180830381865afa158015611b4f573d6000803e3d6000fd5b505050506040513d6000823e601f3d9081017fffffffffffffffffffffffffffffffffffffffffffffffffffffffffffffffe0168201604052611b9591908101906136fb565b81526020018573ffffffffffffffffffffffffffffffffffffffff1663cccf7a8e8b8581518110611bc857611bc861367f565b60200260200101516040518263ffffffff1660e01b8152600401611bee91815260200190565b602060405180830381865afa158015611c0b573d6000803e3d6000fd5b505050506040513d601f19601f82011682018060405250810190611c2f91906134fa565b611c3a576000611ccf565b8573ffffffffffffffffffffffffffffffffffffffff16639507d39a8b8581518110611c6857611c6861367f565b60200260200101516040518263ffffffff1660e01b8152600401611c8e91815260200190565b602060405180830381865afa158015611cab573d6000803e3d6000fd5b505050506040513d601f19601f82011682018060405250810190611ccf91906136ae565b63ffffffff1681526020018473ffffffffffffffffffffffffffffffffffffffff1663cccf7a8e8b8581518110611d0857611d0861367f565b60200260200101516040518263ffffffff1660e01b8152600401611d2e91815260200190565b602060405180830381865afa158015611d4b573d6000803e3d6000fd5b505050506040513d601f19601f82011682018060405250810190611d6f91906134fa565b611d7a576000611e0f565b8473ffffffffffffffffffffffffffffffffffffffff16639507d39a8b8581518110611da857611da861367f565b60200260200101516040518263ffffffff1660e01b8152600401611dce91815260200190565b602060405180830381865afa158015611deb573d6000803e3d6000fd5b505050506040513d601f19601f82011682018060405250810190611e0f919061351c565b815250828281518110611e2457611e2461367f565b60200260200101819052508080611e3a90613744565b915050611a0e565b50979650505050505050565b6000806000611e5c846121c4565b90925090506000826003811115611e7557611e756137f4565b03611e8f57611e86868686846121dd565b92505050610d2c565b6003826003811115611ea357611ea36137f4565b03611eb457611e8686868684612299565b6040517f08c379a000000000000000000000000000000000000000000000000000000000815260206004820152601b60248201527f48616e646c6572206e6f742079657420696d706c656d656e746564000000000060448201526064016102d5565b6000611f42857f48dd73345b049fd90b1d994ae882fe2bea7a52e362fd4689108c907c6456a006610aff565b6040517fcccf7a8e0000000000000000000000000000000000000000000000000000000081526004810186905290915073ffffffffffffffffffffffffffffffffffffffff82169063cccf7a8e90602401602060405180830381865afa158015611fb0573d6000803e3d6000fd5b505050506040513d601f19601f82011682018060405250810190611fd491906134fa565b6113da576040517f1ab06ee5000000000000000000000000000000000000000000000000000000008152600481018590526024810183905273ffffffffffffffffffffffffffffffffffffffff821690631ab06ee590604401600060405180830381600087803b15801561204757600080fd5b505af115801561205b573d6000803e3d6000fd5b5050505061208c857f5bc28889d745caef68975e56a733199d93efb3f5ae8e4606262ab97c83f7264860001c610aff565b6040517f1ab06ee5000000000000000000000000000000000000000000000000000000008152600481018690526024810185905273ffffffffffffffffffffffffffffffffffffffff9190911690631ab06ee590604401600060405180830381600087803b1580156120fd57600080fd5b505af1158015612111573d6000803e3d6000fd5b505050505050505050565b6000816121298585611024565b6121339190613564565b6040517f1ab06ee5000000000000000000000000000000000000000000000000000000008152600481018590526024810182905290915073ffffffffffffffffffffffffffffffffffffffff851690631ab06ee590604401600060405180830381600087803b1580156121a557600080fd5b505af11580156121b9573d6000803e3d6000fd5b505050509392505050565b6000806121d48360200151612350565b91509150915091565b815160408084015190517f81d0c0f1000000000000000000000000000000000000000000000000000000008152600092839273__$fe8c06f2024370067115fbcd33d61de1b7$__926381d0c0f19261223d928b928b929190600401613823565b602060405180830381865af415801561225a573d6000803e3d6000fd5b505050506040513d601f19601f8201168201806040525081019061227e919061351c565b905061228f818560600151856128d1565b9695505050505050565b60006122b4858585600001518660400151876060015161299c565b905060048260048111156122ca576122ca6137f4565b036122d5571561079d565b60038260048111156122e9576122e96137f4565b1461079d576040517f08c379a000000000000000000000000000000000000000000000000000000000815260206004820152601b60248201527f556e6b6e6f776e20626f6f6c206c6f676963206f70657261746f72000000000060448201526064016102d5565b60008060008061239e6040518060400160405280600481526020017f435552520000000000000000000000000000000000000000000000000000000081525086612cc190919063ffffffff16565b156123ac576000915061256d565b6040805180820190915260038082527f494e43000000000000000000000000000000000000000000000000000000000060209283015290860181902086517f2294515cf577a807f70c30a4bd66fb198b63ab765b7fa768b080fe8cda2c3888919091149111151615612421576001915061256d565b6040805180820190915260038082527f444543000000000000000000000000000000000000000000000000000000000060209283015290860181902086517fc8117e3bb0a5365f1188f80e2df06c2b6996766cd83da2c646f5f9e14dcfbd17919091149111151615612496576002915061256d565b6040805180820190915260048082527f424f4f4c0000000000000000000000000000000000000000000000000000000060209283015290860181902086517fda3fe7adc6f9d250974b3b45d024284953a3a67841a37ae5029171eb5f1bc30991909114911115161561250b576003915061256d565b6040517f08c379a000000000000000000000000000000000000000000000000000000000815260206004820152601960248201527f556e6b6e6f776e20636f6e646974696f6e2068616e646c65720000000000000060448201526064016102d5565b6040805180820190915260038082527f4d494e00000000000000000000000000000000000000000000000000000000006020928301528651808211157ffffffffffffffffffffffffffffffffffffffffffffffffffffffffffffffffd90910181028801909201207f871eebeccaa432de5f38a72c534eb2fa59c2c3b49e3c6629c16c11981ee74f2a141615612605575060006128c7565b6040805180820190915260038082527f4d415800000000000000000000000000000000000000000000000000000000006020928301528651808211157ffffffffffffffffffffffffffffffffffffffffffffffffffffffffffffffffd90910181028801909201207fa42787877dd247913f847bc654d767d1919585674d8f1a26ea00084043233daa14161561269d575060016128c7565b6040805180820190915260058082527f455155414c0000000000000000000000000000000000000000000000000000006020928301528651808211157ffffffffffffffffffffffffffffffffffffffffffffffffffffffffffffffffb90910181028801909201207f3a06e9850b6d2ffe1ee040a5349ff67cf64f6914074848a74304f81130b90725141615612735575060026128c7565b6040805180820190915260028082527f49530000000000000000000000000000000000000000000000000000000000006020928301528651808211157ffffffffffffffffffffffffffffffffffffffffffffffffffffffffffffffffe90910181028801909201207fa0f4911f5dff37b9a43a54645c34f34bf9127e9dac511b186b8529567dfaf3dc1416156127cd575060036128c7565b6040805180820190915260038082527f4e4f5400000000000000000000000000000000000000000000000000000000006020928301528651808211157ffffffffffffffffffffffffffffffffffffffffffffffffffffffffffffffffd90910181028801909201207f4293f9bf526b0205217be3088c05680693c75440f7bce1f1b15fae3c5187ae12141615612865575060046128c7565b6040517f08c379a000000000000000000000000000000000000000000000000000000000815260206004820152601a60248201527f556e6b6e6f776e20636f6e646974696f6e206f70657261746f7200000000000060448201526064016102d5565b9094909350915050565b6000808260048111156128e6576128e66137f4565b036128f5575081831015610d2c565b6001826004811115612909576129096137f4565b03612918575081831115610d2c565b600282600481111561292c5761292c6137f4565b0361293a5750828214610d2c565b6040517f08c379a000000000000000000000000000000000000000000000000000000000815260206004820152601660248201527f556e6b6e6f776e206c6f676963206f70657261746f720000000000000000000060448201526064016102d5565b60006129e66040518060400160405280600d81526020017f434f4d504c4554455f434f4d5000000000000000000000000000000000000000815250856118ba90919063ffffffff16565b15612a9757612a15867f9522897410526014691d8a863fac7bd2e048ab08176b6e3c6fa8a1f5195164bb610aff565b73ffffffffffffffffffffffffffffffffffffffff1663cccf7a8e836040518263ffffffff1660e01b8152600401612a4f91815260200190565b602060405180830381865afa158015612a6c573d6000803e3d6000fd5b505050506040513d601f19601f82011682018060405250810190612a9091906134fa565b9050610739565b60408051808201909152600581527f51554553540000000000000000000000000000000000000000000000000000006020918201528451908501207f6dd88e0a32c18c14d5a81f049d6fd353acc17f8290c55d8a716d975def4edf1e03612b0357612a90868487612cdb565b60408051808201909152600481527f524f4f4d000000000000000000000000000000000000000000000000000000006020918201528451908501207fd095a6ae2bc7e94153e86beac7414b2145c7585cac0a0d923e1a4df8247e23a203612b83578263ffffffff16612b758787612d04565b63ffffffff16149050610739565b60408051808201909152600581527f50484153450000000000000000000000000000000000000000000000000000006020918201528451908501207fc7321657fadb62104cd2b0331a69790ec83e40b1c9f218c07d669437bea8f9ad03612bf4578263ffffffff16612b7542612dab565b60408051808201909152600881527f434f4f4c444f574e0000000000000000000000000000000000000000000000006020918201528451908501207f74d16beb57bf3f9ccaccecb6978a7e61e312e12eed3a6e57d8fb05427d6bab0f03612c5f57612a908686612db6565b6040517f08c379a000000000000000000000000000000000000000000000000000000000815260206004820152601b60248201527f556e6b6e6f776e20626f6f6c20636f6e646974696f6e2074797065000000000060448201526064016102d5565b805160209182018190209183018190209251101591141690565b600080612ce9858486612ddd565b905080600003612cfa576000610739565b6107398582610f42565b6000612d30837f3be9611062b8582cf4b9a4eafe577dbde7dcd7779a1efb46d73e212026c4b0cc610aff565b73ffffffffffffffffffffffffffffffffffffffff16639507d39a836040518263ffffffff1660e01b8152600401612d6a91815260200190565b602060405180830381865afa158015612d87573d6000803e3d6000fd5b505050506040513d601f19601f820116820180604052508101906104fe91906136ae565b600061050182612e01565b600080612dc38484612e34565b90506000612dd18585612e69565b90911315949350505050565b600080612dea8385612f21565b9050612df68582612f88565b61079d576000610739565b6000806024612e12610e108561389e565b612e1c91906138b2565b9050612e29600c8261389e565b610d2c906001613564565b60006104fe612e63847f5f9759544a286ad42df1aa1cab6dca162b48885d3060ac74aecbf8ff4483ad1b610aff565b83612fca565b600080612eb3612eae856040518060400160405280601681526020017f4b414d495f5354414e444152445f434f4f4c444f574e00000000000000000000815250613002565b61301a565b90506000612ef785856040518060400160405280601381526020017f53544e445f434f4f4c444f574e5f53484946540000000000000000000000000081525061304f565b90506000612f0582846138c6565b905060008112612f15578061228f565b60009695505050505050565b6040517f72656769737472792e717565737400000000000000000000000000000000000060208201527fffffffff0000000000000000000000000000000000000000000000000000000060e084901b16602e820152603281018290526000906052016116af565b60006104fe83836040518060400160405280600581526020017f5155455354000000000000000000000000000000000000000000000000000000815250610cdb565b6000612fef612eae73ffffffffffffffffffffffffffffffffffffffff851684611024565b612ff84261301a565b6104fe91906138ee565b60008061300e836131b6565b905061079d84826131c9565b60007f8000000000000000000000000000000000000000000000000000000000000000821061304b5761304b613270565b5090565b60008061305c848461327e565b9050600061308a867f50d80ec5b1169fa90f6a93a06362786b45e53ec8c05572cba38875a52f86a3bc610aff565b6040517fcccf7a8e0000000000000000000000000000000000000000000000000000000081526004810184905290915073ffffffffffffffffffffffffffffffffffffffff82169063cccf7a8e90602401602060405180830381865afa1580156130f8573d6000803e3d6000fd5b505050506040513d601f19601f8201168201806040525081019061311c91906134fa565b61312757600061228f565b6040517f9507d39a0000000000000000000000000000000000000000000000000000000081526004810183905273ffffffffffffffffffffffffffffffffffffffff821690639507d39a90602401602060405180830381865afa158015613192573d6000803e3d6000fd5b505050506040513d601f19601f8201168201806040525081019061228f919061351c565b600081604051602001610c9f9190613915565b60006131f5837fb25ea67b55901db62e4b14311a8c1ab178fec3948b4b493a711970a50aa2a2e1610aff565b73ffffffffffffffffffffffffffffffffffffffff16639507d39a836040518263ffffffff1660e01b815260040161322f91815260200190565b602060405180830381865afa15801561324c573d6000803e3d6000fd5b505050506040513d601f19601f820116820180604052508101906104fe919061351c565b6335278d126000526004601cfd5b600082826040516020016116af92919061395a565b7f4e487b7100000000000000000000000000000000000000000000000000000000600052604160045260246000fd5b604051601f82017fffffffffffffffffffffffffffffffffffffffffffffffffffffffffffffffe016810167ffffffffffffffff8111828210171561330957613309613293565b604052919050565b600067ffffffffffffffff82111561332b5761332b613293565b50601f017fffffffffffffffffffffffffffffffffffffffffffffffffffffffffffffffe01660200190565b60006020828403121561336957600080fd5b813567ffffffffffffffff81111561338057600080fd5b8201601f8101841361339157600080fd5b80356133a461339f82613311565b6132c2565b8181528560208385010111156133b957600080fd5b81602084016020830137600091810160200191909152949350505050565b60005b838110156133f25781810151838201526020016133da565b50506000910152565b600081518084526134138160208601602086016133d7565b601f017fffffffffffffffffffffffffffffffffffffffffffffffffffffffffffffffe0169290920160200192915050565b6020815260006104fe60208301846133fb565b63ffffffff8116811461055857600080fd5b6000806040838503121561347d57600080fd5b823561348881613458565b946020939093013593505050565b6000602082840312156134a857600080fd5b813573ffffffffffffffffffffffffffffffffffffffff8116811461079b57600080fd5b600080604083850312156134df57600080fd5b82516134ea81613458565b6020939093015192949293505050565b60006020828403121561350c57600080fd5b8151801515811461079b57600080fd5b60006020828403121561352e57600080fd5b5051919050565b7f4e487b7100000000000000000000000000000000000000000000000000000000600052601160045260246000fd5b8082018082111561050157610501613535565b8181038181111561050157610501613535565b73ffffffffffffffffffffffffffffffffffffffff8616815284602082015260a0604082015260006135bf60a08301866133fb565b63ffffffff94909416606083015250608001529392505050565b600060208083850312156135ec57600080fd5b825167ffffffffffffffff8082111561360457600080fd5b818501915085601f83011261361857600080fd5b81518181111561362a5761362a613293565b8060051b915061363b8483016132c2565b818152918301840191848101908884111561365557600080fd5b938501935b838510156136735784518252938501939085019061365a565b98975050505050505050565b7f4e487b7100000000000000000000000000000000000000000000000000000000600052603260045260246000fd5b6000602082840312156136c057600080fd5b815161079b81613458565b60006136d961339f84613311565b90508281528383830111156136ed57600080fd5b610d2c8360208301846133d7565b60006020828403121561370d57600080fd5b815167ffffffffffffffff81111561372457600080fd5b8201601f8101841361373557600080fd5b61079d848251602084016136cb565b60007fffffffffffffffffffffffffffffffffffffffffffffffffffffffffffffffff820361377557613775613535565b5060010190565b7f69732e646174610000000000000000000000000000000000000000000000000081528360078201527fffffffff000000000000000000000000000000000000000000000000000000008360e01b166027820152600082516137e581602b8501602087016133d7565b91909101602b01949350505050565b7f4e487b7100000000000000000000000000000000000000000000000000000000600052602160045260246000fd5b73ffffffffffffffffffffffffffffffffffffffff8516815283602082015260806040820152600061385860808301856133fb565b905063ffffffff8316606083015295945050505050565b7f4e487b7100000000000000000000000000000000000000000000000000000000600052601260045260246000fd5b6000826138ad576138ad61386f565b500490565b6000826138c1576138c161386f565b500690565b80820182811260008312801582168215821617156138e6576138e6613535565b505092915050565b818103600083128015838313168383128216171561390e5761390e613535565b5092915050565b7f69732e636f6e666967000000000000000000000000000000000000000000000081526000825161394d8160098501602087016133d7565b9190910160090192915050565b7f626f6e75730000000000000000000000000000000000000000000000000000008152826005820152600082516139988160258501602087016133d7565b91909101602501939250505056fea26469706673582212204692824dab73915a44059be1069a2af8bf22e46bb73911a8d1b6b6c2d435bec964736f6c63430008110033","linkReferences":{"src/libraries/LibAccount.sol":{"LibAccount":[{"start":2773,"length":20}]},"src/libraries/utils/LibGetter.sol":{"LibGetter":[{"start":9196,"length":20}]}}},"methodIdentifiers":{"cancelOwnershipHandover()":"54d1f13d","completeOwnershipHandover(address)":"f04e283e","deprecate()":"0fcc0c28","execute(bytes)":"09c5eabe","executeTyped(uint32,uint256)":"5c817c70","owner()":"8da5cb5b","ownershipHandoverExpiresAt(address)":"fee81cf4","renounceOwnership()":"715018a6","requestOwnershipHandover()":"25692962","transferOwnership(address)":"f2fde38b"},"id":266}