{"abi":[{"type":"constructor","inputs":[{"name":"world","type":"address","internalType":"address"}],"stateMutability":"nonpayable"},{"type":"function","name":"authorizeWriter","inputs":[{"name":"writer","type":"address","internalType":"address"}],"outputs":[],"stateMutability":"nonpayable"},{"type":"function","name":"cancelOwnershipHandover","inputs":[],"outputs":[],"stateMutability":"payable"},{"type":"function","name":"completeOwnershipHandover","inputs":[{"name":"pendingOwner","type":"address","internalType":"address"}],"outputs":[],"stateMutability":"payable"},{"type":"function","name":"extract","inputs":[{"name":"entity","type":"uint256","internalType":"uint256"}],"outputs":[{"name":"","type":"uint256","internalType":"uint256"}],"stateMutability":"nonpayable"},{"type":"function","name":"extractBatch","inputs":[{"name":"entities","type":"uint256[]","internalType":"uint256[]"}],"outputs":[{"name":"","type":"uint256[]","internalType":"uint256[]"}],"stateMutability":"nonpayable"},{"type":"function","name":"extractRaw","inputs":[{"name":"entity","type":"uint256","internalType":"uint256"}],"outputs":[{"name":"","type":"bytes","internalType":"bytes"}],"stateMutability":"nonpayable"},{"type":"function","name":"extractRawBatch","inputs":[{"name":"entities","type":"uint256[]","internalType":"uint256[]"}],"outputs":[{"name":"","type":"bytes[]","internalType":"bytes[]"}],"stateMutability":"nonpayable"},{"type":"function","name":"get","inputs":[{"name":"entity","type":"uint256","internalType":"uint256"}],"outputs":[{"name":"","type":"uint256","internalType":"uint256"}],"stateMutability":"view"},{"type":"function","name":"getBatch","inputs":[{"name":"entities","type":"uint256[]","internalType":"uint256[]"}],"outputs":[{"name":"","type":"uint256[]","internalType":"uint256[]"}],"stateMutability":"view"},{"type":"function","name":"getEntities","inputs":[],"outputs":[{"name":"","type":"uint256[]","internalType":"uint256[]"}],"stateMutability":"view"},{"type":"function","name":"getEntitiesWithValue","inputs":[{"name":"","type":"bytes","internalType":"bytes"}],"outputs":[{"name":"","type":"uint256[]","internalType":"uint256[]"}],"stateMutability":"view"},{"type":"function","name":"getEntitiesWithValue","inputs":[{"name":"value","type":"uint256","internalType":"uint256"}],"outputs":[{"name":"","type":"uint256[]","internalType":"uint256[]"}],"stateMutability":"view"},{"type":"function","name":"getRaw","inputs":[{"name":"entity","type":"uint256","internalType":"uint256"}],"outputs":[{"name":"","type":"bytes","internalType":"bytes"}],"stateMutability":"view"},{"type":"function","name":"getRawBatch","inputs":[{"name":"entities","type":"uint256[]","internalType":"uint256[]"}],"outputs":[{"name":"","type":"bytes[]","internalType":"bytes[]"}],"stateMutability":"view"},{"type":"function","name":"has","inputs":[{"name":"entity","type":"uint256","internalType":"uint256"}],"outputs":[{"name":"","type":"bool","internalType":"bool"}],"stateMutability":"view"},{"type":"function","name":"id","inputs":[],"outputs":[{"name":"","type":"uint256","internalType":"uint256"}],"stateMutability":"view"},{"type":"function","name":"owner","inputs":[],"outputs":[{"name":"result","type":"address","internalType":"address"}],"stateMutability":"view"},{"type":"function","name":"ownershipHandoverExpiresAt","inputs":[{"name":"pendingOwner","type":"address","internalType":"address"}],"outputs":[{"name":"result","type":"uint256","internalType":"uint256"}],"stateMutability":"view"},{"type":"function","name":"registerWorld","inputs":[{"name":"_world","type":"address","internalType":"address"}],"outputs":[],"stateMutability":"nonpayable"},{"type":"function","name":"remove","inputs":[{"name":"entity","type":"uint256","internalType":"uint256"}],"outputs":[],"stateMutability":"nonpayable"},{"type":"function","name":"removeBatch","inputs":[{"name":"entities","type":"uint256[]","internalType":"uint256[]"}],"outputs":[],"stateMutability":"nonpayable"},{"type":"function","name":"renounceOwnership","inputs":[],"outputs":[],"stateMutability":"payable"},{"type":"function","name":"requestOwnershipHandover","inputs":[],"outputs":[],"stateMutability":"payable"},{"type":"function","name":"set","inputs":[{"name":"entity","type":"uint256","internalType":"uint256"},{"name":"value","type":"uint256","internalType":"uint256"}],"outputs":[],"stateMutability":"nonpayable"},{"type":"function","name":"set","inputs":[{"name":"id","type":"uint256","internalType":"uint256"},{"name":"value","type":"bytes32","internalType":"bytes32"}],"outputs":[],"stateMutability":"nonpayable"},{"type":"function","name":"set","inputs":[{"name":"entity","type":"uint256","internalType":"uint256"},{"name":"value","type":"bytes","internalType":"bytes"}],"outputs":[],"stateMutability":"nonpayable"},{"type":"function","name":"setBatch","inputs":[{"name":"entities","type":"uint256[]","internalType":"uint256[]"},{"name":"values","type":"bytes[]","internalType":"bytes[]"}],"outputs":[],"stateMutability":"nonpayable"},{"type":"function","name":"setBatch","inputs":[{"name":"entities","type":"uint256[]","internalType":"uint256[]"},{"name":"values","type":"uint256[]","internalType":"uint256[]"}],"outputs":[],"stateMutability":"nonpayable"},{"type":"function","name":"transferOwnership","inputs":[{"name":"newOwner","type":"address","internalType":"address"}],"outputs":[],"stateMutability":"payable"},{"type":"function","name":"unauthorizeWriter","inputs":[{"name":"writer","type":"address","internalType":"address"}],"outputs":[],"stateMutability":"nonpayable"},{"type":"function","name":"world","inputs":[],"outputs":[{"name":"","type":"address","internalType":"address"}],"stateMutability":"view"},{"type":"function","name":"writeAccess","inputs":[{"name":"operator","type":"address","internalType":"address"}],"outputs":[{"name":"","type":"bool","internalType":"bool"}],"stateMutability":"view"},{"type":"event","name":"OwnershipHandoverCanceled","inputs":[{"name":"pendingOwner","type":"address","indexed":true,"internalType":"address"}],"anonymous":false},{"type":"event","name":"OwnershipHandoverRequested","inputs":[{"name":"pendingOwner","type":"address","indexed":true,"internalType":"address"}],"anonymous":false},{"type":"event","name":"OwnershipTransferred","inputs":[{"name":"oldOwner","type":"address","indexed":true,"internalType":"address"},{"name":"newOwner","type":"address","indexed":true,"internalType":"address"}],"anonymous":false},{"type":"error","name":"AlreadyInitialized","inputs":[]},{"type":"error","name":"BareComponent__NotImplemented","inputs":[]},{"type":"error","name":"BatchOp_UnexpectedLength","inputs":[]},{"type":"error","name":"NewOwnerIsZeroAddress","inputs":[]},{"type":"error","name":"NoHandoverRequest","inputs":[]},{"type":"error","name":"OwnableWritable__NotWriter","inputs":[]},{"type":"error","name":"Unauthorized","inputs":[]},{"type":"error","name":"ZeroValueNotAllowed","inputs":[]}],"bytecode":{"object":"0x60806040523480156200001157600080fd5b50604051620020913803806200209183398101604081905262000034916200016e565b807f73d532d7394825d7ba87ea422ed77c00601cb3336420c4a6ae41ae4bdd0828ad818162000063336200008e565b60028190556001600160a01b0382161562000083576200008382620000ca565b5050505050620001a0565b6001600160a01b0316638b78c6d8198190558060007f8be0079c531659141344cd1fd0a4f28419497f9722a3daafe3b4186f6b6457e08180a350565b620000d462000150565b600080546001600160a01b0319166001600160a01b038316908117909155600254604051630f30347760e41b8152306004820152602481019190915263f303477090604401600060405180830381600087803b1580156200013457600080fd5b505af115801562000149573d6000803e3d6000fd5b5050505050565b638b78c6d8195433146200016c576382b429006000526004601cfd5b565b6000602082840312156200018157600080fd5b81516001600160a01b03811681146200019957600080fd5b9392505050565b611ee180620001b06000396000f3fe6080604052600436106101e35760003560e01c8063861eb90511610102578063cccf7a8e11610095578063f04e283e11610064578063f04e283e14610581578063f2fde38b14610594578063fbdfa1ea146105a7578063fee81cf4146105c757600080fd5b8063cccf7a8e146104f4578063dc5c22cd14610514578063dd98e3c914610534578063e9ff6c761461056157600080fd5b80639d2c76b4116100d15780639d2c76b41461047e578063af640d0f1461049e578063b361be46146104b4578063bf4fe57e146104d457600080fd5b8063861eb905146103da5780638b2829471461040a5780638da5cb5b1461042a5780639507d39a1461045e57600080fd5b80634323c4ef1161017a57806364c4ef1a1161014957806364c4ef1a1461028d578063715018a6146103845780638482643e1461038c57806385b39782146103ac57600080fd5b80634323c4ef1461031c5780634cc822151461033c5780634fef6a381461035c57806354d1f13d1461037c57600080fd5b80631ab06ee5116101b65780631ab06ee51461028d57806325692962146102ad57806330b67baa146102b557806331b933b91461030757600080fd5b8063088dd0b9146101e857806312b111551461021e57806313ca8b6a1461024b578063182064531461026d575b600080fd5b3480156101f457600080fd5b5061020861020336600461180f565b6105fa565b604051610215919061184c565b60405180910390f35b34801561022a57600080fd5b5061023e61023936600461180f565b610613565b60405161021591906118f4565b34801561025757600080fd5b5061026b610266366004611a02565b61065d565b005b34801561027957600080fd5b5061026b610288366004611ad7565b6106aa565b34801561029957600080fd5b5061026b6102a8366004611b3b565b6106fb565b61026b61074c565b3480156102c157600080fd5b506000546102e29073ffffffffffffffffffffffffffffffffffffffff1681565b60405173ffffffffffffffffffffffffffffffffffffffff9091168152602001610215565b34801561031357600080fd5b5061020861079c565b34801561032857600080fd5b5061023e61033736600461180f565b6107d0565b34801561034857600080fd5b5061026b610357366004611b5d565b61091c565b34801561036857600080fd5b5061026b610377366004611b76565b610967565b61026b6109dd565b61026b610a19565b34801561039857600080fd5b5061026b6103a736600461180f565b610a2d565b3480156103b857600080fd5b506103cc6103c7366004611b5d565b610a75565b604051908152602001610215565b3480156103e657600080fd5b506103fa6103f5366004611b76565b610ac7565b6040519015158152602001610215565b34801561041657600080fd5b5061026b610425366004611bb3565b610b56565b34801561043657600080fd5b507fffffffffffffffffffffffffffffffffffffffffffffffffffffffff74873927546102e2565b34801561046a57600080fd5b506103cc610479366004611b5d565b610b9f565b34801561048a57600080fd5b5061026b610499366004611b76565b610bad565b3480156104aa57600080fd5b506103cc60025481565b3480156104c057600080fd5b506102086104cf366004611bf0565b61079c565b3480156104e057600080fd5b5061026b6104ef366004611b76565b610c6e565b34801561050057600080fd5b506103fa61050f366004611b5d565b610ce1565b34801561052057600080fd5b5061020861052f36600461180f565b610d03565b34801561054057600080fd5b5061055461054f366004611b5d565b610d50565b6040516102159190611c25565b34801561056d57600080fd5b5061055461057c366004611b5d565b610d5b565b61026b61058f366004611b76565b610da5565b61026b6105a2366004611b76565b610de2565b3480156105b357600080fd5b506102086105c2366004611b5d565b610e09565b3480156105d357600080fd5b506103cc6105e2366004611b76565b63389a75e1600c908152600091909152602090205490565b606061060d61060883610e17565b610f5c565b92915050565b606061061e33610ac7565b610654576040517f406ed3da00000000000000000000000000000000000000000000000000000000815260040160405180910390fd5b61060d82611003565b61066633610ac7565b61069c576040517f406ed3da00000000000000000000000000000000000000000000000000000000815260040160405180910390fd5b6106a6828261101b565b5050565b6106b333610ac7565b6106e9576040517f406ed3da00000000000000000000000000000000000000000000000000000000815260040160405180910390fd5b6106a6826106f6836111f9565b61101b565b61070433610ac7565b61073a576040517f406ed3da00000000000000000000000000000000000000000000000000000000815260040160405180910390fd5b6106a682610747836112ab565b6112d6565b60006202a30067ffffffffffffffff164201905063389a75e1600c5233600052806020600c2055337fdbf36a107da19e49527a7176a1babf963b4b0ff8cde35ee35d6cd8f1f9ac7e1d600080a250565b60606040517f17d5b8e800000000000000000000000000000000000000000000000000000000815260040160405180910390fd5b60606000825167ffffffffffffffff8111156107ee576107ee611702565b60405190808252806020026020018201604052801561082157816020015b606081526020019060019003908161080c5790505b50905060005b8351811015610915576001600085838151811061084657610846611c38565b60200260200101518152602001908152602001600020805461086790611c67565b80601f016020809104026020016040519081016040528092919081815260200182805461089390611c67565b80156108e05780601f106108b5576101008083540402835291602001916108e0565b820191906000526020600020905b8154815290600101906020018083116108c357829003601f168201915b50505050508282815181106108f7576108f7611c38565b6020026020010181905250808061090d90611cba565b915050610827565b5092915050565b61092533610ac7565b61095b576040517f406ed3da00000000000000000000000000000000000000000000000000000000815260040160405180910390fd5b610964816113b8565b50565b61096f611426565b73ffffffffffffffffffffffffffffffffffffffff1660009081527f8ffeadc5cba727b8cc3cdef48739619490ea317fdb3baae1259089d06f92c9096020526040902080547fffffffffffffffffffffffffffffffffffffffffffffffffffffffffffffff00166001179055565b63389a75e1600c523360005260006020600c2055337ffa7b8eab7da67f412cc9575ed43464468f9bfbae89d1675917346ca6d8fe3c92600080a2565b610a21611426565b610a2b600061145c565b565b610a3633610ac7565b610a6c576040517f406ed3da00000000000000000000000000000000000000000000000000000000815260040160405180910390fd5b610964816114c2565b6000610a8033610ac7565b610ab6576040517f406ed3da00000000000000000000000000000000000000000000000000000000815260040160405180910390fd5b61060d610ac2836115dc565b6115fc565b73ffffffffffffffffffffffffffffffffffffffff811660009081527f8ffeadc5cba727b8cc3cdef48739619490ea317fdb3baae1259089d06f92c909602052604081205460ff168061060d5750507fffffffffffffffffffffffffffffffffffffffffffffffffffffffff748739275473ffffffffffffffffffffffffffffffffffffffff91821691161490565b610b5f33610ac7565b610b95576040517f406ed3da00000000000000000000000000000000000000000000000000000000815260040160405180910390fd5b6106a682826112d6565b600061060d610ac283611612565b610bb5611426565b600080547fffffffffffffffffffffffff00000000000000000000000000000000000000001673ffffffffffffffffffffffffffffffffffffffff83169081179091556002546040517ff3034770000000000000000000000000000000000000000000000000000000008152306004820152602481019190915263f3034770906044015b600060405180830381600087803b158015610c5357600080fd5b505af1158015610c67573d6000803e3d6000fd5b5050505050565b610c76611426565b73ffffffffffffffffffffffffffffffffffffffff1660009081527f8ffeadc5cba727b8cc3cdef48739619490ea317fdb3baae1259089d06f92c9096020526040902080547fffffffffffffffffffffffffffffffffffffffffffffffffffffffffffffff00169055565b60008181526001602052604081208054610cfa90611c67565b15159392505050565b6060610d0e33610ac7565b610d44576040517f406ed3da00000000000000000000000000000000000000000000000000000000815260040160405180910390fd5b61060d61060883611003565b606061060d82611612565b6060610d6633610ac7565b610d9c576040517f406ed3da00000000000000000000000000000000000000000000000000000000815260040160405180910390fd5b61060d826115dc565b610dad611426565b63389a75e1600c52806000526020600c208054421115610dd557636f5e88186000526004601cfd5b600090556109648161145c565b610dea611426565b8060601b610e0057637448fbae6000526004601cfd5b6109648161145c565b606061060d6104cf836112ab565b60606000825167ffffffffffffffff811115610e3557610e35611702565b604051908082528060200260200182016040528015610e6857816020015b6060815260200190600190039081610e535790505b50905060005b83518110156109155760016000858381518110610e8d57610e8d611c38565b602002602001015181526020019081526020016000208054610eae90611c67565b80601f0160208091040260200160405190810160405280929190818152602001828054610eda90611c67565b8015610f275780601f10610efc57610100808354040283529160200191610f27565b820191906000526020600020905b815481529060010190602001808311610f0a57829003601f168201915b5050505050828281518110610f3e57610f3e611c38565b60200260200101819052508080610f5490611cba565b915050610e6e565b60606000825167ffffffffffffffff811115610f7a57610f7a611702565b604051908082528060200260200182016040528015610fa3578160200160208202803683370190505b50905060005b835181101561091557610fd4848281518110610fc757610fc7611c38565b60200260200101516115fc565b828281518110610fe657610fe6611c38565b602090810291909101015280610ffb81611cba565b915050610fa9565b6060600061101083610e17565b905061060d836114c2565b8051825114611056576040517fc291f68400000000000000000000000000000000000000000000000000000000815260040160405180910390fd5b60005b825181101561111b5781818151811061107457611074611c38565b6020026020010151516000036110b6576040517f9cf8540c00000000000000000000000000000000000000000000000000000000815260040160405180910390fd5b8181815181106110c8576110c8611c38565b6020026020010151600160008584815181106110e6576110e6611c38565b6020026020010151815260200190815260200160002090816111089190611d5f565b508061111381611cba565b915050611059565b506000805473ffffffffffffffffffffffffffffffffffffffff16905b83518110156111f3578173ffffffffffffffffffffffffffffffffffffffff1663cfd3c57f85838151811061116f5761116f611c38565b602002602001015185848151811061118957611189611c38565b60200260200101516040518363ffffffff1660e01b81526004016111ae929190611e79565b600060405180830381600087803b1580156111c857600080fd5b505af11580156111dc573d6000803e3d6000fd5b5050505080806111eb90611cba565b915050611138565b50505050565b60606000825167ffffffffffffffff81111561121757611217611702565b60405190808252806020026020018201604052801561124a57816020015b60608152602001906001900390816112355790505b50905060005b83518110156109155761127b84828151811061126e5761126e611c38565b60200260200101516112ab565b82828151811061128d5761128d611c38565b602002602001018190525080806112a390611cba565b915050611250565b6060816040516020016112c091815260200190565b6040516020818303038152906040529050919050565b8051600003611311576040517f9cf8540c00000000000000000000000000000000000000000000000000000000815260040160405180910390fd5b60008281526001602052604090206113298282611d5f565b506000546040517fcfd3c57f00000000000000000000000000000000000000000000000000000000815273ffffffffffffffffffffffffffffffffffffffff9091169063cfd3c57f906113829085908590600401611e79565b600060405180830381600087803b15801561139c57600080fd5b505af11580156113b0573d6000803e3d6000fd5b505050505050565b60008181526001602052604081206113cf916116b4565b6000546040517f0de3b7b50000000000000000000000000000000000000000000000000000000081526004810183905273ffffffffffffffffffffffffffffffffffffffff90911690630de3b7b590602401610c39565b7fffffffffffffffffffffffffffffffffffffffffffffffffffffffff74873927543314610a2b576382b429006000526004601cfd5b7fffffffffffffffffffffffffffffffffffffffffffffffffffffffff74873927805473ffffffffffffffffffffffffffffffffffffffff9092169182907f8be0079c531659141344cd1fd0a4f28419497f9722a3daafe3b4186f6b6457e0600080a355565b60005b815181101561151857600160008383815181106114e4576114e4611c38565b60200260200101518152602001908152602001600020600061150691906116b4565b8061151081611cba565b9150506114c5565b506000805473ffffffffffffffffffffffffffffffffffffffff16905b82518110156115d7578173ffffffffffffffffffffffffffffffffffffffff16630de3b7b584838151811061156c5761156c611c38565b60200260200101516040518263ffffffff1660e01b815260040161159291815260200190565b600060405180830381600087803b1580156115ac57600080fd5b505af11580156115c0573d6000803e3d6000fd5b5050505080806115cf90611cba565b915050611535565b505050565b606060006115e983611612565b80519091501561060d5761060d836113b8565b60008180602001905181019061060d9190611e92565b600081815260016020526040902080546060919061162f90611c67565b80601f016020809104026020016040519081016040528092919081815260200182805461165b90611c67565b80156116a85780601f1061167d576101008083540402835291602001916116a8565b820191906000526020600020905b81548152906001019060200180831161168b57829003601f168201915b50505050509050919050565b5080546116c090611c67565b6000825580601f106116d0575050565b601f01602090049060005260206000209081019061096491905b808211156116fe57600081556001016116ea565b5090565b7f4e487b7100000000000000000000000000000000000000000000000000000000600052604160045260246000fd5b604051601f82017fffffffffffffffffffffffffffffffffffffffffffffffffffffffffffffffe016810167ffffffffffffffff8111828210171561177857611778611702565b604052919050565b600067ffffffffffffffff82111561179a5761179a611702565b5060051b60200190565b600082601f8301126117b557600080fd5b813560206117ca6117c583611780565b611731565b82815260059290921b840181019181810190868411156117e957600080fd5b8286015b8481101561180457803583529183019183016117ed565b509695505050505050565b60006020828403121561182157600080fd5b813567ffffffffffffffff81111561183857600080fd5b611844848285016117a4565b949350505050565b6020808252825182820181905260009190848201906040850190845b8181101561188457835183529284019291840191600101611868565b50909695505050505050565b6000815180845260005b818110156118b65760208185018101518683018201520161189a565b5060006020828601015260207fffffffffffffffffffffffffffffffffffffffffffffffffffffffffffffffe0601f83011685010191505092915050565b6000602080830181845280855180835260408601915060408160051b870101925083870160005b82811015611967577fffffffffffffffffffffffffffffffffffffffffffffffffffffffffffffffc0888603018452611955858351611890565b9450928501929085019060010161191b565b5092979650505050505050565b600082601f83011261198557600080fd5b813567ffffffffffffffff81111561199f5761199f611702565b6119d060207fffffffffffffffffffffffffffffffffffffffffffffffffffffffffffffffe0601f84011601611731565b8181528460208386010111156119e557600080fd5b816020850160208301376000918101602001919091529392505050565b60008060408385031215611a1557600080fd5b823567ffffffffffffffff80821115611a2d57600080fd5b611a39868387016117a4565b9350602091508185013581811115611a5057600080fd5b8501601f81018713611a6157600080fd5b8035611a6f6117c582611780565b81815260059190911b82018401908481019089831115611a8e57600080fd5b8584015b83811015611ac657803586811115611aaa5760008081fd5b611ab88c8983890101611974565b845250918601918601611a92565b508096505050505050509250929050565b60008060408385031215611aea57600080fd5b823567ffffffffffffffff80821115611b0257600080fd5b611b0e868387016117a4565b93506020850135915080821115611b2457600080fd5b50611b31858286016117a4565b9150509250929050565b60008060408385031215611b4e57600080fd5b50508035926020909101359150565b600060208284031215611b6f57600080fd5b5035919050565b600060208284031215611b8857600080fd5b813573ffffffffffffffffffffffffffffffffffffffff81168114611bac57600080fd5b9392505050565b60008060408385031215611bc657600080fd5b82359150602083013567ffffffffffffffff811115611be457600080fd5b611b3185828601611974565b600060208284031215611c0257600080fd5b813567ffffffffffffffff811115611c1957600080fd5b61184484828501611974565b602081526000611bac6020830184611890565b7f4e487b7100000000000000000000000000000000000000000000000000000000600052603260045260246000fd5b600181811c90821680611c7b57607f821691505b602082108103611cb4577f4e487b7100000000000000000000000000000000000000000000000000000000600052602260045260246000fd5b50919050565b60007fffffffffffffffffffffffffffffffffffffffffffffffffffffffffffffffff8203611d12577f4e487b7100000000000000000000000000000000000000000000000000000000600052601160045260246000fd5b5060010190565b601f8211156115d757600081815260208120601f850160051c81016020861015611d405750805b601f850160051c820191505b818110156113b057828155600101611d4c565b815167ffffffffffffffff811115611d7957611d79611702565b611d8d81611d878454611c67565b84611d19565b602080601f831160018114611de05760008415611daa5750858301515b7fffffffffffffffffffffffffffffffffffffffffffffffffffffffffffffffff600386901b1c1916600185901b1785556113b0565b6000858152602081207fffffffffffffffffffffffffffffffffffffffffffffffffffffffffffffffe08616915b82811015611e2d57888601518255948401946001909101908401611e0e565b5085821015611e6957878501517fffffffffffffffffffffffffffffffffffffffffffffffffffffffffffffffff600388901b60f8161c191681555b5050505050600190811b01905550565b8281526040602082015260006118446040830184611890565b600060208284031215611ea457600080fd5b505191905056fea264697066735822122065c81a047152cd4472cda98d1c29e65d97dc5a2c03f8e6bdb0049cc94a4ec8fd64736f6c63430008110033","linkReferences":{}},"methodIdentifiers":{"authorizeWriter(address)":"4fef6a38","cancelOwnershipHandover()":"54d1f13d","completeOwnershipHandover(address)":"f04e283e","extract(uint256)":"85b39782","extractBatch(uint256[])":"dc5c22cd","extractRaw(uint256)":"e9ff6c76","extractRawBatch(uint256[])":"12b11155","get(uint256)":"9507d39a","getBatch(uint256[])":"088dd0b9","getEntities()":"31b933b9","getEntitiesWithValue(bytes)":"b361be46","getEntitiesWithValue(uint256)":"fbdfa1ea","getRaw(uint256)":"dd98e3c9","getRawBatch(uint256[])":"4323c4ef","has(uint256)":"cccf7a8e","id()":"af640d0f","owner()":"8da5cb5b","ownershipHandoverExpiresAt(address)":"fee81cf4","registerWorld(address)":"9d2c76b4","remove(uint256)":"4cc82215","removeBatch(uint256[])":"8482643e","renounceOwnership()":"715018a6","requestOwnershipHandover()":"25692962","set(uint256,bytes)":"8b282947","set(uint256,bytes32)":"64c4ef1a","set(uint256,uint256)":"1ab06ee5","setBatch(uint256[],bytes[])":"13ca8b6a","setBatch(uint256[],uint256[])":"18206453","transferOwnership(address)":"f2fde38b","unauthorizeWriter(address)":"bf4fe57e","world()":"30b67baa","writeAccess(address)":"861eb905"},"id":71}