{"abi":[{"type":"constructor","inputs":[{"name":"world","type":"address","internalType":"address"}],"stateMutability":"nonpayable"},{"type":"function","name":"authorizeWriter","inputs":[{"name":"writer","type":"address","internalType":"address"}],"outputs":[],"stateMutability":"nonpayable"},{"type":"function","name":"cancelOwnershipHandover","inputs":[],"outputs":[],"stateMutability":"payable"},{"type":"function","name":"completeOwnershipHandover","inputs":[{"name":"pendingOwner","type":"address","internalType":"address"}],"outputs":[],"stateMutability":"payable"},{"type":"function","name":"extract","inputs":[{"name":"entity","type":"uint256","internalType":"uint256"}],"outputs":[{"name":"","type":"uint256","internalType":"uint256"}],"stateMutability":"nonpayable"},{"type":"function","name":"extractBatch","inputs":[{"name":"entities","type":"uint256[]","internalType":"uint256[]"}],"outputs":[{"name":"","type":"uint256[]","internalType":"uint256[]"}],"stateMutability":"nonpayable"},{"type":"function","name":"extractRaw","inputs":[{"name":"entity","type":"uint256","internalType":"uint256"}],"outputs":[{"name":"","type":"bytes","internalType":"bytes"}],"stateMutability":"nonpayable"},{"type":"function","name":"extractRawBatch","inputs":[{"name":"entities","type":"uint256[]","internalType":"uint256[]"}],"outputs":[{"name":"","type":"bytes[]","internalType":"bytes[]"}],"stateMutability":"nonpayable"},{"type":"function","name":"get","inputs":[{"name":"entity","type":"uint256","internalType":"uint256"}],"outputs":[{"name":"","type":"uint256","internalType":"uint256"}],"stateMutability":"view"},{"type":"function","name":"getAt","inputs":[{"name":"value","type":"bytes","internalType":"bytes"},{"name":"index","type":"uint256","internalType":"uint256"}],"outputs":[{"name":"","type":"uint256","internalType":"uint256"}],"stateMutability":"view"},{"type":"function","name":"getBatch","inputs":[{"name":"entities","type":"uint256[]","internalType":"uint256[]"}],"outputs":[{"name":"","type":"uint256[]","internalType":"uint256[]"}],"stateMutability":"view"},{"type":"function","name":"getEntities","inputs":[],"outputs":[{"name":"","type":"uint256[]","internalType":"uint256[]"}],"stateMutability":"view"},{"type":"function","name":"getEntitiesWithValue","inputs":[{"name":"value","type":"bytes","internalType":"bytes"}],"outputs":[{"name":"","type":"uint256[]","internalType":"uint256[]"}],"stateMutability":"view"},{"type":"function","name":"getEntitiesWithValue","inputs":[{"name":"value","type":"uint256","internalType":"uint256"}],"outputs":[{"name":"","type":"uint256[]","internalType":"uint256[]"}],"stateMutability":"view"},{"type":"function","name":"getRaw","inputs":[{"name":"entity","type":"uint256","internalType":"uint256"}],"outputs":[{"name":"","type":"bytes","internalType":"bytes"}],"stateMutability":"view"},{"type":"function","name":"getRawBatch","inputs":[{"name":"entities","type":"uint256[]","internalType":"uint256[]"}],"outputs":[{"name":"","type":"bytes[]","internalType":"bytes[]"}],"stateMutability":"view"},{"type":"function","name":"has","inputs":[{"name":"entity","type":"uint256","internalType":"uint256"}],"outputs":[{"name":"","type":"bool","internalType":"bool"}],"stateMutability":"view"},{"type":"function","name":"id","inputs":[],"outputs":[{"name":"","type":"uint256","internalType":"uint256"}],"stateMutability":"view"},{"type":"function","name":"owner","inputs":[],"outputs":[{"name":"result","type":"address","internalType":"address"}],"stateMutability":"view"},{"type":"function","name":"ownershipHandoverExpiresAt","inputs":[{"name":"pendingOwner","type":"address","internalType":"address"}],"outputs":[{"name":"result","type":"uint256","internalType":"uint256"}],"stateMutability":"view"},{"type":"function","name":"registerWorld","inputs":[{"name":"_world","type":"address","internalType":"address"}],"outputs":[],"stateMutability":"nonpayable"},{"type":"function","name":"remove","inputs":[{"name":"entity","type":"uint256","internalType":"uint256"}],"outputs":[],"stateMutability":"nonpayable"},{"type":"function","name":"removeBatch","inputs":[{"name":"entities","type":"uint256[]","internalType":"uint256[]"}],"outputs":[],"stateMutability":"nonpayable"},{"type":"function","name":"renounceOwnership","inputs":[],"outputs":[],"stateMutability":"payable"},{"type":"function","name":"requestOwnershipHandover","inputs":[],"outputs":[],"stateMutability":"payable"},{"type":"function","name":"set","inputs":[{"name":"entity","type":"uint256","internalType":"uint256"},{"name":"value","type":"uint256","internalType":"uint256"}],"outputs":[],"stateMutability":"nonpayable"},{"type":"function","name":"set","inputs":[{"name":"entity","type":"uint256","internalType":"uint256"},{"name":"value","type":"bytes","internalType":"bytes"}],"outputs":[],"stateMutability":"nonpayable"},{"type":"function","name":"setBatch","inputs":[{"name":"entities","type":"uint256[]","internalType":"uint256[]"},{"name":"values","type":"bytes[]","internalType":"bytes[]"}],"outputs":[],"stateMutability":"nonpayable"},{"type":"function","name":"setBatch","inputs":[{"name":"entities","type":"uint256[]","internalType":"uint256[]"},{"name":"values","type":"uint256[]","internalType":"uint256[]"}],"outputs":[],"stateMutability":"nonpayable"},{"type":"function","name":"size","inputs":[{"name":"value","type":"bytes","internalType":"bytes"}],"outputs":[{"name":"","type":"uint256","internalType":"uint256"}],"stateMutability":"view"},{"type":"function","name":"transferOwnership","inputs":[{"name":"newOwner","type":"address","internalType":"address"}],"outputs":[],"stateMutability":"payable"},{"type":"function","name":"unauthorizeWriter","inputs":[{"name":"writer","type":"address","internalType":"address"}],"outputs":[],"stateMutability":"nonpayable"},{"type":"function","name":"world","inputs":[],"outputs":[{"name":"","type":"address","internalType":"address"}],"stateMutability":"view"},{"type":"function","name":"writeAccess","inputs":[{"name":"operator","type":"address","internalType":"address"}],"outputs":[{"name":"","type":"bool","internalType":"bool"}],"stateMutability":"view"},{"type":"event","name":"OwnershipHandoverCanceled","inputs":[{"name":"pendingOwner","type":"address","indexed":true,"internalType":"address"}],"anonymous":false},{"type":"event","name":"OwnershipHandoverRequested","inputs":[{"name":"pendingOwner","type":"address","indexed":true,"internalType":"address"}],"anonymous":false},{"type":"event","name":"OwnershipTransferred","inputs":[{"name":"oldOwner","type":"address","indexed":true,"internalType":"address"},{"name":"newOwner","type":"address","indexed":true,"internalType":"address"}],"anonymous":false},{"type":"error","name":"AlreadyInitialized","inputs":[]},{"type":"error","name":"BareComponent__NotImplemented","inputs":[]},{"type":"error","name":"BatchOp_UnexpectedLength","inputs":[]},{"type":"error","name":"NewOwnerIsZeroAddress","inputs":[]},{"type":"error","name":"NoHandoverRequest","inputs":[]},{"type":"error","name":"OwnableWritable__NotWriter","inputs":[]},{"type":"error","name":"Unauthorized","inputs":[]},{"type":"error","name":"ZeroValueNotAllowed","inputs":[]}],"bytecode":{"object":"0x60806040523480156200001157600080fd5b506040516200286138038062002861833981016040819052620000349162000172565b807f78b1ef013cafd65ebaa39f84081e7a0dfd0ac73a9c373c972780715705987a9581818181620000653362000092565b60028190556001600160a01b0382161562000085576200008582620000ce565b50505050505050620001a4565b6001600160a01b0316638b78c6d8198190558060007f8be0079c531659141344cd1fd0a4f28419497f9722a3daafe3b4186f6b6457e08180a350565b620000d862000154565b600080546001600160a01b0319166001600160a01b038316908117909155600254604051630f30347760e41b8152306004820152602481019190915263f303477090604401600060405180830381600087803b1580156200013857600080fd5b505af11580156200014d573d6000803e3d6000fd5b5050505050565b638b78c6d81954331462000170576382b429006000526004601cfd5b565b6000602082840312156200018557600080fd5b81516001600160a01b03811681146200019d57600080fd5b9392505050565b6126ad80620001b46000396000f3fe6080604052600436106101fe5760003560e01c806385b397821161011d578063bf4fe57e116100b0578063e9ff6c761161007f578063f2fde38b11610064578063f2fde38b146105ef578063fbdfa1ea14610602578063fee81cf41461062257600080fd5b8063e9ff6c76146105bc578063f04e283e146105dc57600080fd5b8063bf4fe57e1461052f578063cccf7a8e1461054f578063dc5c22cd1461056f578063dd98e3c91461058f57600080fd5b80639507d39a116100ec5780639507d39a146104b95780639d2c76b4146104d9578063af640d0f146104f9578063b361be461461050f57600080fd5b806385b3978214610415578063861eb905146104355780638b282947146104655780638da5cb5b1461048557600080fd5b806331b933b91161019557806354d1f13d1161016457806354d1f13d146103c55780636f9aa155146103cd578063715018a6146103ed5780638482643e146103f557600080fd5b806331b933b9146103505780634323c4ef146103655780634cc82215146103855780634fef6a38146103a557600080fd5b80631ab06ee5116101d15780631ab06ee5146102a85780631c5ee10c146102c857806325692962146102f657806330b67baa146102fe57600080fd5b8063088dd0b91461020357806312b111551461023957806313ca8b6a146102665780631820645314610288575b600080fd5b34801561020f57600080fd5b5061022361021e366004611f53565b610655565b6040516102309190611f90565b60405180910390f35b34801561024557600080fd5b50610259610254366004611f53565b61066e565b6040516102309190612038565b34801561027257600080fd5b50610286610281366004612146565b6106b8565b005b34801561029457600080fd5b506102866102a336600461221b565b610705565b3480156102b457600080fd5b506102866102c336600461227f565b610756565b3480156102d457600080fd5b506102e86102e33660046122a1565b6107a7565b604051908152602001610230565b6102866107cb565b34801561030a57600080fd5b5060005461032b9073ffffffffffffffffffffffffffffffffffffffff1681565b60405173ffffffffffffffffffffffffffffffffffffffff9091168152602001610230565b34801561035c57600080fd5b5061022361081b565b34801561037157600080fd5b50610259610380366004611f53565b61084f565b34801561039157600080fd5b506102866103a03660046122d6565b61099b565b3480156103b157600080fd5b506102866103c03660046122ef565b6109e6565b610286610a5c565b3480156103d957600080fd5b506102e86103e8366004612325565b610a98565b610286610ac2565b34801561040157600080fd5b50610286610410366004611f53565b610ad6565b34801561042157600080fd5b506102e86104303660046122d6565b610b1e565b34801561044157600080fd5b506104556104503660046122ef565b610b70565b6040519015158152602001610230565b34801561047157600080fd5b5061028661048036600461236a565b610bff565b34801561049157600080fd5b507fffffffffffffffffffffffffffffffffffffffffffffffffffffffff748739275461032b565b3480156104c557600080fd5b506102e86104d43660046122d6565b610c48565b3480156104e557600080fd5b506102866104f43660046122ef565b610c56565b34801561050557600080fd5b506102e860025481565b34801561051b57600080fd5b5061022361052a3660046122a1565b610d17565b34801561053b57600080fd5b5061028661054a3660046122ef565b610d22565b34801561055b57600080fd5b5061045561056a3660046122d6565b610d95565b34801561057b57600080fd5b5061022361058a366004611f53565b610db7565b34801561059b57600080fd5b506105af6105aa3660046122d6565b610e04565b60405161023091906123a7565b3480156105c857600080fd5b506105af6105d73660046122d6565b610e0f565b6102866105ea3660046122ef565b610e59565b6102866105fd3660046122ef565b610e96565b34801561060e57600080fd5b5061022361061d3660046122d6565b610ebd565b34801561062e57600080fd5b506102e861063d3660046122ef565b63389a75e1600c908152600091909152602090205490565b606061066861066383610ed0565b611015565b92915050565b606061067933610b70565b6106af576040517f406ed3da00000000000000000000000000000000000000000000000000000000815260040160405180910390fd5b610668826110bc565b6106c133610b70565b6106f7576040517f406ed3da00000000000000000000000000000000000000000000000000000000815260040160405180910390fd5b61070182826110d4565b5050565b61070e33610b70565b610744576040517f406ed3da00000000000000000000000000000000000000000000000000000000815260040160405180910390fd5b6107018261075183611268565b6110d4565b61075f33610b70565b610795576040517f406ed3da00000000000000000000000000000000000000000000000000000000815260040160405180910390fd5b610701826107a28361131a565b611345565b60006106686003600084805190602001208152602001908152602001600020611440565b60006202a30067ffffffffffffffff164201905063389a75e1600c5233600052806020600c2055337fdbf36a107da19e49527a7176a1babf963b4b0ff8cde35ee35d6cd8f1f9ac7e1d600080a250565b60606040517f17d5b8e800000000000000000000000000000000000000000000000000000000815260040160405180910390fd5b60606000825167ffffffffffffffff81111561086d5761086d611e46565b6040519080825280602002602001820160405280156108a057816020015b606081526020019060019003908161088b5790505b50905060005b835181101561099457600160008583815181106108c5576108c56123ba565b6020026020010151815260200190815260200160002080546108e6906123e9565b80601f0160208091040260200160405190810160405280929190818152602001828054610912906123e9565b801561095f5780601f106109345761010080835404028352916020019161095f565b820191906000526020600020905b81548152906001019060200180831161094257829003601f168201915b5050505050828281518110610976576109766123ba565b6020026020010181905250808061098c9061246b565b9150506108a6565b5092915050565b6109a433610b70565b6109da576040517f406ed3da00000000000000000000000000000000000000000000000000000000815260040160405180910390fd5b6109e38161144a565b50565b6109ee61151d565b73ffffffffffffffffffffffffffffffffffffffff1660009081527f8ffeadc5cba727b8cc3cdef48739619490ea317fdb3baae1259089d06f92c9096020526040902080547fffffffffffffffffffffffffffffffffffffffffffffffffffffffffffffff00166001179055565b63389a75e1600c523360005260006020600c2055337ffa7b8eab7da67f412cc9575ed43464468f9bfbae89d1675917346ca6d8fe3c92600080a2565b81516020808401919091206000908152600390915260408120610abb9083611553565b9392505050565b610aca61151d565b610ad4600061155f565b565b610adf33610b70565b610b15576040517f406ed3da00000000000000000000000000000000000000000000000000000000815260040160405180910390fd5b6109e3816115c5565b6000610b2933610b70565b610b5f576040517f406ed3da00000000000000000000000000000000000000000000000000000000815260040160405180910390fd5b610668610b6b836116cd565b6116ed565b73ffffffffffffffffffffffffffffffffffffffff811660009081527f8ffeadc5cba727b8cc3cdef48739619490ea317fdb3baae1259089d06f92c909602052604081205460ff16806106685750507fffffffffffffffffffffffffffffffffffffffffffffffffffffffff748739275473ffffffffffffffffffffffffffffffffffffffff91821691161490565b610c0833610b70565b610c3e576040517f406ed3da00000000000000000000000000000000000000000000000000000000815260040160405180910390fd5b6107018282611345565b6000610668610b6b83611703565b610c5e61151d565b600080547fffffffffffffffffffffffff00000000000000000000000000000000000000001673ffffffffffffffffffffffffffffffffffffffff83169081179091556002546040517ff3034770000000000000000000000000000000000000000000000000000000008152306004820152602481019190915263f3034770906044015b600060405180830381600087803b158015610cfc57600080fd5b505af1158015610d10573d6000803e3d6000fd5b5050505050565b6060610668826117a5565b610d2a61151d565b73ffffffffffffffffffffffffffffffffffffffff1660009081527f8ffeadc5cba727b8cc3cdef48739619490ea317fdb3baae1259089d06f92c9096020526040902080547fffffffffffffffffffffffffffffffffffffffffffffffffffffffffffffff00169055565b60008181526001602052604081208054610dae906123e9565b15159392505050565b6060610dc233610b70565b610df8576040517f406ed3da00000000000000000000000000000000000000000000000000000000815260040160405180910390fd5b610668610663836110bc565b606061066882611703565b6060610e1a33610b70565b610e50576040517f406ed3da00000000000000000000000000000000000000000000000000000000815260040160405180910390fd5b610668826116cd565b610e6161151d565b63389a75e1600c52806000526020600c208054421115610e8957636f5e88186000526004601cfd5b600090556109e38161155f565b610e9e61151d565b8060601b610eb457637448fbae6000526004601cfd5b6109e38161155f565b6060610668610ecb8361131a565b6117a5565b60606000825167ffffffffffffffff811115610eee57610eee611e46565b604051908082528060200260200182016040528015610f2157816020015b6060815260200190600190039081610f0c5790505b50905060005b83518110156109945760016000858381518110610f4657610f466123ba565b602002602001015181526020019081526020016000208054610f67906123e9565b80601f0160208091040260200160405190810160405280929190818152602001828054610f93906123e9565b8015610fe05780601f10610fb557610100808354040283529160200191610fe0565b820191906000526020600020905b815481529060010190602001808311610fc357829003601f168201915b5050505050828281518110610ff757610ff76123ba565b6020026020010181905250808061100d9061246b565b915050610f27565b60606000825167ffffffffffffffff81111561103357611033611e46565b60405190808252806020026020018201604052801561105c578160200160208202803683370190505b50905060005b83518110156109945761108d848281518110611080576110806123ba565b60200260200101516116ed565b82828151811061109f5761109f6123ba565b6020908102919091010152806110b48161246b565b915050611062565b606060006110c983610ed0565b9050610668836115c5565b60005b825181101561125d576000600160008584815181106110f8576110f86123ba565b602002602001015181526020019081526020016000208054611119906123e9565b80601f0160208091040260200160405190810160405280929190818152602001828054611145906123e9565b80156111925780601f1061116757610100808354040283529160200191611192565b820191906000526020600020905b81548152906001019060200180831161117557829003601f168201915b505050505090506000815111156111ea576111e88483815181106111b8576111b86123ba565b602002602001015160036000848051906020012081526020019081526020016000206117c990919063ffffffff16565b505b6112488483815181106111ff576111ff6123ba565b60200260200101516003600086868151811061121d5761121d6123ba565b60200260200101518051906020012081526020019081526020016000206117d590919063ffffffff16565b505080806112559061246b565b9150506110d7565b5061070182826117e1565b60606000825167ffffffffffffffff81111561128657611286611e46565b6040519080825280602002602001820160405280156112b957816020015b60608152602001906001900390816112a45790505b50905060005b8351811015610994576112ea8482815181106112dd576112dd6123ba565b602002602001015161131a565b8282815181106112fc576112fc6123ba565b602002602001018190525080806113129061246b565b9150506112bf565b60608160405160200161132f91815260200190565b6040516020818303038152906040529050919050565b6000828152600160205260408120805461135e906123e9565b80601f016020809104026020016040519081016040528092919081815260200182805461138a906123e9565b80156113d75780601f106113ac576101008083540402835291602001916113d7565b820191906000526020600020905b8154815290600101906020018083116113ba57829003601f168201915b5050505050905060008151111561140d578051602080830191909120600090815260039091526040902061140b90846117c9565b505b8151602080840191909120600090815260039091526040902061143090846117d5565b5061143b83836119bf565b505050565b6000610668825490565b60008181526001602052604081208054611463906123e9565b80601f016020809104026020016040519081016040528092919081815260200182805461148f906123e9565b80156114dc5780601f106114b1576101008083540402835291602001916114dc565b820191906000526020600020905b8154815290600101906020018083116114bf57829003601f168201915b5050505050905080516000036114f0575050565b8051602080830191909120600090815260039091526040902061151390836117c9565b5061070182611aa1565b7fffffffffffffffffffffffffffffffffffffffffffffffffffffffff74873927543314610ad4576382b429006000526004601cfd5b6000610abb8383611b0f565b7fffffffffffffffffffffffffffffffffffffffffffffffffffffffff74873927805473ffffffffffffffffffffffffffffffffffffffff9092169182907f8be0079c531659141344cd1fd0a4f28419497f9722a3daafe3b4186f6b6457e0600080a355565b60005b81518110156116c3576000600160008484815181106115e9576115e96123ba565b60200260200101518152602001908152602001600020805461160a906123e9565b80601f0160208091040260200160405190810160405280929190818152602001828054611636906123e9565b80156116835780601f1061165857610100808354040283529160200191611683565b820191906000526020600020905b81548152906001019060200180831161166657829003601f168201915b50505050509050805160000361169957506116b1565b6116ae8383815181106111b8576111b86123ba565b50505b806116bb8161246b565b9150506115c8565b506109e381611b39565b606060006116da83611703565b805190915015610668576106688361144a565b60008180602001905181019061066891906124a3565b6000818152600160205260409020805460609190611720906123e9565b80601f016020809104026020016040519081016040528092919081815260200182805461174c906123e9565b80156117995780601f1061176e57610100808354040283529160200191611799565b820191906000526020600020905b81548152906001019060200180831161177c57829003601f168201915b50505050509050919050565b60606106686003600084805190602001208152602001908152602001600020611c4e565b6000610abb8383611c5b565b6000610abb8383611d4e565b805182511461181c576040517fc291f68400000000000000000000000000000000000000000000000000000000815260040160405180910390fd5b60005b82518110156118e15781818151811061183a5761183a6123ba565b60200260200101515160000361187c576040517f9cf8540c00000000000000000000000000000000000000000000000000000000815260040160405180910390fd5b81818151811061188e5761188e6123ba565b6020026020010151600160008584815181106118ac576118ac6123ba565b6020026020010151815260200190815260200160002090816118ce9190612502565b50806118d98161246b565b91505061181f565b506000805473ffffffffffffffffffffffffffffffffffffffff16905b83518110156119b9578173ffffffffffffffffffffffffffffffffffffffff1663cfd3c57f858381518110611935576119356123ba565b602002602001015185848151811061194f5761194f6123ba565b60200260200101516040518363ffffffff1660e01b815260040161197492919061261c565b600060405180830381600087803b15801561198e57600080fd5b505af11580156119a2573d6000803e3d6000fd5b5050505080806119b19061246b565b9150506118fe565b50505050565b80516000036119fa576040517f9cf8540c00000000000000000000000000000000000000000000000000000000815260040160405180910390fd5b6000828152600160205260409020611a128282612502565b506000546040517fcfd3c57f00000000000000000000000000000000000000000000000000000000815273ffffffffffffffffffffffffffffffffffffffff9091169063cfd3c57f90611a6b908590859060040161261c565b600060405180830381600087803b158015611a8557600080fd5b505af1158015611a99573d6000803e3d6000fd5b505050505050565b6000818152600160205260408120611ab891611df8565b6000546040517f0de3b7b50000000000000000000000000000000000000000000000000000000081526004810183905273ffffffffffffffffffffffffffffffffffffffff90911690630de3b7b590602401610ce2565b6000826000018281548110611b2657611b266123ba565b9060005260206000200154905092915050565b60005b8151811015611b8f5760016000838381518110611b5b57611b5b6123ba565b602002602001015181526020019081526020016000206000611b7d9190611df8565b80611b878161246b565b915050611b3c565b506000805473ffffffffffffffffffffffffffffffffffffffff16905b825181101561143b578173ffffffffffffffffffffffffffffffffffffffff16630de3b7b5848381518110611be357611be36123ba565b60200260200101516040518263ffffffff1660e01b8152600401611c0991815260200190565b600060405180830381600087803b158015611c2357600080fd5b505af1158015611c37573d6000803e3d6000fd5b505050508080611c469061246b565b915050611bac565b60606000610abb83611d9d565b60008181526001830160205260408120548015611d44576000611c7f600183612635565b8554909150600090611c9390600190612635565b9050818114611cf8576000866000018281548110611cb357611cb36123ba565b9060005260206000200154905080876000018481548110611cd657611cd66123ba565b6000918252602080832090910192909255918252600188019052604090208390555b8554869080611d0957611d09612648565b600190038181906000526020600020016000905590558560010160008681526020019081526020016000206000905560019350505050610668565b6000915050610668565b6000818152600183016020526040812054611d9557508154600181810184556000848152602080822090930184905584548482528286019093526040902091909155610668565b506000610668565b60608160000180548060200260200160405190810160405280929190818152602001828054801561179957602002820191906000526020600020905b815481526020019060010190808311611dd95750505050509050919050565b508054611e04906123e9565b6000825580601f10611e14575050565b601f0160209004906000526020600020908101906109e391905b80821115611e425760008155600101611e2e565b5090565b7f4e487b7100000000000000000000000000000000000000000000000000000000600052604160045260246000fd5b604051601f82017fffffffffffffffffffffffffffffffffffffffffffffffffffffffffffffffe016810167ffffffffffffffff81118282101715611ebc57611ebc611e46565b604052919050565b600067ffffffffffffffff821115611ede57611ede611e46565b5060051b60200190565b600082601f830112611ef957600080fd5b81356020611f0e611f0983611ec4565b611e75565b82815260059290921b84018101918181019086841115611f2d57600080fd5b8286015b84811015611f485780358352918301918301611f31565b509695505050505050565b600060208284031215611f6557600080fd5b813567ffffffffffffffff811115611f7c57600080fd5b611f8884828501611ee8565b949350505050565b6020808252825182820181905260009190848201906040850190845b81811015611fc857835183529284019291840191600101611fac565b50909695505050505050565b6000815180845260005b81811015611ffa57602081850181015186830182015201611fde565b5060006020828601015260207fffffffffffffffffffffffffffffffffffffffffffffffffffffffffffffffe0601f83011685010191505092915050565b6000602080830181845280855180835260408601915060408160051b870101925083870160005b828110156120ab577fffffffffffffffffffffffffffffffffffffffffffffffffffffffffffffffc0888603018452612099858351611fd4565b9450928501929085019060010161205f565b5092979650505050505050565b600082601f8301126120c957600080fd5b813567ffffffffffffffff8111156120e3576120e3611e46565b61211460207fffffffffffffffffffffffffffffffffffffffffffffffffffffffffffffffe0601f84011601611e75565b81815284602083860101111561212957600080fd5b816020850160208301376000918101602001919091529392505050565b6000806040838503121561215957600080fd5b823567ffffffffffffffff8082111561217157600080fd5b61217d86838701611ee8565b935060209150818501358181111561219457600080fd5b8501601f810187136121a557600080fd5b80356121b3611f0982611ec4565b81815260059190911b820184019084810190898311156121d257600080fd5b8584015b8381101561220a578035868111156121ee5760008081fd5b6121fc8c89838901016120b8565b8452509186019186016121d6565b508096505050505050509250929050565b6000806040838503121561222e57600080fd5b823567ffffffffffffffff8082111561224657600080fd5b61225286838701611ee8565b9350602085013591508082111561226857600080fd5b5061227585828601611ee8565b9150509250929050565b6000806040838503121561229257600080fd5b50508035926020909101359150565b6000602082840312156122b357600080fd5b813567ffffffffffffffff8111156122ca57600080fd5b611f88848285016120b8565b6000602082840312156122e857600080fd5b5035919050565b60006020828403121561230157600080fd5b813573ffffffffffffffffffffffffffffffffffffffff81168114610abb57600080fd5b6000806040838503121561233857600080fd5b823567ffffffffffffffff81111561234f57600080fd5b61235b858286016120b8565b95602094909401359450505050565b6000806040838503121561237d57600080fd5b82359150602083013567ffffffffffffffff81111561239b57600080fd5b612275858286016120b8565b602081526000610abb6020830184611fd4565b7f4e487b7100000000000000000000000000000000000000000000000000000000600052603260045260246000fd5b600181811c908216806123fd57607f821691505b602082108103612436577f4e487b7100000000000000000000000000000000000000000000000000000000600052602260045260246000fd5b50919050565b7f4e487b7100000000000000000000000000000000000000000000000000000000600052601160045260246000fd5b60007fffffffffffffffffffffffffffffffffffffffffffffffffffffffffffffffff820361249c5761249c61243c565b5060010190565b6000602082840312156124b557600080fd5b5051919050565b601f82111561143b57600081815260208120601f850160051c810160208610156124e35750805b601f850160051c820191505b81811015611a99578281556001016124ef565b815167ffffffffffffffff81111561251c5761251c611e46565b6125308161252a84546123e9565b846124bc565b602080601f831160018114612583576000841561254d5750858301515b7fffffffffffffffffffffffffffffffffffffffffffffffffffffffffffffffff600386901b1c1916600185901b178555611a99565b6000858152602081207fffffffffffffffffffffffffffffffffffffffffffffffffffffffffffffffe08616915b828110156125d0578886015182559484019460019091019084016125b1565b508582101561260c57878501517fffffffffffffffffffffffffffffffffffffffffffffffffffffffffffffffff600388901b60f8161c191681555b5050505050600190811b01905550565b828152604060208201526000611f886040830184611fd4565b818103818111156106685761066861243c565b7f4e487b7100000000000000000000000000000000000000000000000000000000600052603160045260246000fdfea2646970667358221220b608a3a58eea9e96f0a5700e94ac857a98a6ad7fece5cf6d32cfa2c53a6e6fed64736f6c63430008110033","linkReferences":{}},"methodIdentifiers":{"authorizeWriter(address)":"4fef6a38","cancelOwnershipHandover()":"54d1f13d","completeOwnershipHandover(address)":"f04e283e","extract(uint256)":"85b39782","extractBatch(uint256[])":"dc5c22cd","extractRaw(uint256)":"e9ff6c76","extractRawBatch(uint256[])":"12b11155","get(uint256)":"9507d39a","getAt(bytes,uint256)":"6f9aa155","getBatch(uint256[])":"088dd0b9","getEntities()":"31b933b9","getEntitiesWithValue(bytes)":"b361be46","getEntitiesWithValue(uint256)":"fbdfa1ea","getRaw(uint256)":"dd98e3c9","getRawBatch(uint256[])":"4323c4ef","has(uint256)":"cccf7a8e","id()":"af640d0f","owner()":"8da5cb5b","ownershipHandoverExpiresAt(address)":"fee81cf4","registerWorld(address)":"9d2c76b4","remove(uint256)":"4cc82215","removeBatch(uint256[])":"8482643e","renounceOwnership()":"715018a6","requestOwnershipHandover()":"25692962","set(uint256,bytes)":"8b282947","set(uint256,uint256)":"1ab06ee5","setBatch(uint256[],bytes[])":"13ca8b6a","setBatch(uint256[],uint256[])":"18206453","size(bytes)":"1c5ee10c","transferOwnership(address)":"f2fde38b","unauthorizeWriter(address)":"bf4fe57e","world()":"30b67baa","writeAccess(address)":"861eb905"},"id":79}