{"abi":[{"type":"constructor","inputs":[{"name":"world","type":"address","internalType":"address"},{"name":"id","type":"uint256","internalType":"uint256"}],"stateMutability":"nonpayable"},{"type":"function","name":"authorizeWriter","inputs":[{"name":"writer","type":"address","internalType":"address"}],"outputs":[],"stateMutability":"nonpayable"},{"type":"function","name":"cancelOwnershipHandover","inputs":[],"outputs":[],"stateMutability":"payable"},{"type":"function","name":"completeOwnershipHandover","inputs":[{"name":"pendingOwner","type":"address","internalType":"address"}],"outputs":[],"stateMutability":"payable"},{"type":"function","name":"extract","inputs":[{"name":"entity","type":"uint256","internalType":"uint256"}],"outputs":[{"name":"","type":"int256","internalType":"int256"}],"stateMutability":"nonpayable"},{"type":"function","name":"extractBatch","inputs":[{"name":"entities","type":"uint256[]","internalType":"uint256[]"}],"outputs":[{"name":"","type":"int256[]","internalType":"int256[]"}],"stateMutability":"nonpayable"},{"type":"function","name":"extractRaw","inputs":[{"name":"entity","type":"uint256","internalType":"uint256"}],"outputs":[{"name":"","type":"bytes","internalType":"bytes"}],"stateMutability":"nonpayable"},{"type":"function","name":"extractRawBatch","inputs":[{"name":"entities","type":"uint256[]","internalType":"uint256[]"}],"outputs":[{"name":"","type":"bytes[]","internalType":"bytes[]"}],"stateMutability":"nonpayable"},{"type":"function","name":"get","inputs":[{"name":"entity","type":"uint256","internalType":"uint256"}],"outputs":[{"name":"","type":"int256","internalType":"int256"}],"stateMutability":"view"},{"type":"function","name":"getBatch","inputs":[{"name":"entities","type":"uint256[]","internalType":"uint256[]"}],"outputs":[{"name":"","type":"int256[]","internalType":"int256[]"}],"stateMutability":"view"},{"type":"function","name":"getEntities","inputs":[],"outputs":[{"name":"","type":"uint256[]","internalType":"uint256[]"}],"stateMutability":"view"},{"type":"function","name":"getEntitiesWithValue","inputs":[{"name":"","type":"bytes","internalType":"bytes"}],"outputs":[{"name":"","type":"uint256[]","internalType":"uint256[]"}],"stateMutability":"view"},{"type":"function","name":"getRaw","inputs":[{"name":"entity","type":"uint256","internalType":"uint256"}],"outputs":[{"name":"","type":"bytes","internalType":"bytes"}],"stateMutability":"view"},{"type":"function","name":"getRawBatch","inputs":[{"name":"entities","type":"uint256[]","internalType":"uint256[]"}],"outputs":[{"name":"","type":"bytes[]","internalType":"bytes[]"}],"stateMutability":"view"},{"type":"function","name":"has","inputs":[{"name":"entity","type":"uint256","internalType":"uint256"}],"outputs":[{"name":"","type":"bool","internalType":"bool"}],"stateMutability":"view"},{"type":"function","name":"id","inputs":[],"outputs":[{"name":"","type":"uint256","internalType":"uint256"}],"stateMutability":"view"},{"type":"function","name":"owner","inputs":[],"outputs":[{"name":"result","type":"address","internalType":"address"}],"stateMutability":"view"},{"type":"function","name":"ownershipHandoverExpiresAt","inputs":[{"name":"pendingOwner","type":"address","internalType":"address"}],"outputs":[{"name":"result","type":"uint256","internalType":"uint256"}],"stateMutability":"view"},{"type":"function","name":"registerWorld","inputs":[{"name":"_world","type":"address","internalType":"address"}],"outputs":[],"stateMutability":"nonpayable"},{"type":"function","name":"remove","inputs":[{"name":"entity","type":"uint256","internalType":"uint256"}],"outputs":[],"stateMutability":"nonpayable"},{"type":"function","name":"removeBatch","inputs":[{"name":"entities","type":"uint256[]","internalType":"uint256[]"}],"outputs":[],"stateMutability":"nonpayable"},{"type":"function","name":"renounceOwnership","inputs":[],"outputs":[],"stateMutability":"payable"},{"type":"function","name":"requestOwnershipHandover","inputs":[],"outputs":[],"stateMutability":"payable"},{"type":"function","name":"set","inputs":[{"name":"entity","type":"uint256","internalType":"uint256"},{"name":"value","type":"int256","internalType":"int256"}],"outputs":[],"stateMutability":"nonpayable"},{"type":"function","name":"set","inputs":[{"name":"entity","type":"uint256","internalType":"uint256"},{"name":"value","type":"bytes","internalType":"bytes"}],"outputs":[],"stateMutability":"nonpayable"},{"type":"function","name":"setBatch","inputs":[{"name":"entities","type":"uint256[]","internalType":"uint256[]"},{"name":"values","type":"bytes[]","internalType":"bytes[]"}],"outputs":[],"stateMutability":"nonpayable"},{"type":"function","name":"setBatch","inputs":[{"name":"entities","type":"uint256[]","internalType":"uint256[]"},{"name":"values","type":"int256[]","internalType":"int256[]"}],"outputs":[],"stateMutability":"nonpayable"},{"type":"function","name":"transferOwnership","inputs":[{"name":"newOwner","type":"address","internalType":"address"}],"outputs":[],"stateMutability":"payable"},{"type":"function","name":"unauthorizeWriter","inputs":[{"name":"writer","type":"address","internalType":"address"}],"outputs":[],"stateMutability":"nonpayable"},{"type":"function","name":"world","inputs":[],"outputs":[{"name":"","type":"address","internalType":"address"}],"stateMutability":"view"},{"type":"function","name":"writeAccess","inputs":[{"name":"operator","type":"address","internalType":"address"}],"outputs":[{"name":"","type":"bool","internalType":"bool"}],"stateMutability":"view"},{"type":"event","name":"OwnershipHandoverCanceled","inputs":[{"name":"pendingOwner","type":"address","indexed":true,"internalType":"address"}],"anonymous":false},{"type":"event","name":"OwnershipHandoverRequested","inputs":[{"name":"pendingOwner","type":"address","indexed":true,"internalType":"address"}],"anonymous":false},{"type":"event","name":"OwnershipTransferred","inputs":[{"name":"oldOwner","type":"address","indexed":true,"internalType":"address"},{"name":"newOwner","type":"address","indexed":true,"internalType":"address"}],"anonymous":false},{"type":"error","name":"AlreadyInitialized","inputs":[]},{"type":"error","name":"BareComponent__NotImplemented","inputs":[]},{"type":"error","name":"BatchOp_UnexpectedLength","inputs":[]},{"type":"error","name":"NewOwnerIsZeroAddress","inputs":[]},{"type":"error","name":"NoHandoverRequest","inputs":[]},{"type":"error","name":"OwnableWritable__NotWriter","inputs":[]},{"type":"error","name":"Unauthorized","inputs":[]},{"type":"error","name":"ZeroValueNotAllowed","inputs":[]}],"bytecode":{"object":"0x60806040523480156200001157600080fd5b50604051620020953803806200209583398101604081905262000034916200014b565b818162000041336200006b565b60028190556001600160a01b0382161562000061576200006182620000a7565b5050505062000187565b6001600160a01b0316638b78c6d8198190558060007f8be0079c531659141344cd1fd0a4f28419497f9722a3daafe3b4186f6b6457e08180a350565b620000b16200012d565b600080546001600160a01b0319166001600160a01b038316908117909155600254604051630f30347760e41b8152306004820152602481019190915263f303477090604401600060405180830381600087803b1580156200011157600080fd5b505af115801562000126573d6000803e3d6000fd5b5050505050565b638b78c6d81954331462000149576382b429006000526004601cfd5b565b600080604083850312156200015f57600080fd5b82516001600160a01b03811681146200017757600080fd5b6020939093015192949293505050565b611efe80620001976000396000f3fe6080604052600436106101cd5760003560e01c80638b282947116100f7578063cccf7a8e11610095578063e9ff6c7611610064578063e9ff6c761461054b578063f04e283e1461056b578063f2fde38b1461057e578063fee81cf41461059157600080fd5b8063cccf7a8e146104be578063dc5c22cd146104de578063dd98e3c9146104fe578063e2ba0d5f1461052b57600080fd5b80639d2c76b4116100d15780639d2c76b414610448578063af640d0f14610468578063b361be461461047e578063bf4fe57e1461049e57600080fd5b80638b282947146103d45780638da5cb5b146103f45780639507d39a1461042857600080fd5b80634323c4ef1161016f578063715018a61161013e578063715018a61461034e5780638482643e1461035657806385b3978214610376578063861eb905146103a457600080fd5b80634323c4ef146102e65780634cc82215146103065780634fef6a381461032657806354d1f13d1461034657600080fd5b806325692962116101ab5780632569296214610257578063293e852e1461025f57806330b67baa1461027f57806331b933b9146102d157600080fd5b8063088dd0b9146101d257806312b111551461020857806313ca8b6a14610235575b600080fd5b3480156101de57600080fd5b506101f26101ed3660046117cb565b6105c4565b6040516101ff9190611808565b60405180910390f35b34801561021457600080fd5b506102286102233660046117cb565b6105dd565b6040516101ff91906118b0565b34801561024157600080fd5b506102556102503660046119be565b610627565b005b610255610674565b34801561026b57600080fd5b5061025561027a366004611a93565b6106c4565b34801561028b57600080fd5b506000546102ac9073ffffffffffffffffffffffffffffffffffffffff1681565b60405173ffffffffffffffffffffffffffffffffffffffff90911681526020016101ff565b3480156102dd57600080fd5b506101f2610715565b3480156102f257600080fd5b506102286103013660046117cb565b610749565b34801561031257600080fd5b50610255610321366004611ab5565b610895565b34801561033257600080fd5b50610255610341366004611ace565b6108e0565b610255610956565b610255610992565b34801561036257600080fd5b506102556103713660046117cb565b6109a6565b34801561038257600080fd5b50610396610391366004611ab5565b6109ee565b6040519081526020016101ff565b3480156103b057600080fd5b506103c46103bf366004611ace565b610a40565b60405190151581526020016101ff565b3480156103e057600080fd5b506102556103ef366004611b0b565b610acf565b34801561040057600080fd5b507fffffffffffffffffffffffffffffffffffffffffffffffffffffffff74873927546102ac565b34801561043457600080fd5b50610396610443366004611ab5565b610b18565b34801561045457600080fd5b50610255610463366004611ace565b610b26565b34801561047457600080fd5b5061039660025481565b34801561048a57600080fd5b506101f2610499366004611b52565b610715565b3480156104aa57600080fd5b506102556104b9366004611ace565b610be7565b3480156104ca57600080fd5b506103c46104d9366004611ab5565b610c5a565b3480156104ea57600080fd5b506101f26104f93660046117cb565b610c7c565b34801561050a57600080fd5b5061051e610519366004611ab5565b610cc9565b6040516101ff9190611b87565b34801561053757600080fd5b50610255610546366004611b9a565b610cd4565b34801561055757600080fd5b5061051e610566366004611ab5565b610d25565b610255610579366004611ace565b610d6f565b61025561058c366004611ace565b610dac565b34801561059d57600080fd5b506103966105ac366004611ace565b63389a75e1600c908152600091909152602090205490565b60606105d76105d283610dd3565b610f18565b92915050565b60606105e833610a40565b61061e576040517f406ed3da00000000000000000000000000000000000000000000000000000000815260040160405180910390fd5b6105d782610fbf565b61063033610a40565b610666576040517f406ed3da00000000000000000000000000000000000000000000000000000000815260040160405180910390fd5b6106708282610fd7565b5050565b60006202a30067ffffffffffffffff164201905063389a75e1600c5233600052806020600c2055337fdbf36a107da19e49527a7176a1babf963b4b0ff8cde35ee35d6cd8f1f9ac7e1d600080a250565b6106cd33610a40565b610703576040517f406ed3da00000000000000000000000000000000000000000000000000000000815260040160405180910390fd5b61067082610710836111b5565b6111e0565b60606040517f17d5b8e800000000000000000000000000000000000000000000000000000000815260040160405180910390fd5b60606000825167ffffffffffffffff811115610767576107676116be565b60405190808252806020026020018201604052801561079a57816020015b60608152602001906001900390816107855790505b50905060005b835181101561088e57600160008583815181106107bf576107bf611c55565b6020026020010151815260200190815260200160002080546107e090611c84565b80601f016020809104026020016040519081016040528092919081815260200182805461080c90611c84565b80156108595780601f1061082e57610100808354040283529160200191610859565b820191906000526020600020905b81548152906001019060200180831161083c57829003601f168201915b505050505082828151811061087057610870611c55565b6020026020010181905250808061088690611cd7565b9150506107a0565b5092915050565b61089e33610a40565b6108d4576040517f406ed3da00000000000000000000000000000000000000000000000000000000815260040160405180910390fd5b6108dd816112c2565b50565b6108e8611330565b73ffffffffffffffffffffffffffffffffffffffff1660009081527f8ffeadc5cba727b8cc3cdef48739619490ea317fdb3baae1259089d06f92c9096020526040902080547fffffffffffffffffffffffffffffffffffffffffffffffffffffffffffffff00166001179055565b63389a75e1600c523360005260006020600c2055337ffa7b8eab7da67f412cc9575ed43464468f9bfbae89d1675917346ca6d8fe3c92600080a2565b61099a611330565b6109a46000611366565b565b6109af33610a40565b6109e5576040517f406ed3da00000000000000000000000000000000000000000000000000000000815260040160405180910390fd5b6108dd816113cc565b60006109f933610a40565b610a2f576040517f406ed3da00000000000000000000000000000000000000000000000000000000815260040160405180910390fd5b6105d7610a3b836114e6565b611506565b73ffffffffffffffffffffffffffffffffffffffff811660009081527f8ffeadc5cba727b8cc3cdef48739619490ea317fdb3baae1259089d06f92c909602052604081205460ff16806105d75750507fffffffffffffffffffffffffffffffffffffffffffffffffffffffff748739275473ffffffffffffffffffffffffffffffffffffffff91821691161490565b610ad833610a40565b610b0e576040517f406ed3da00000000000000000000000000000000000000000000000000000000815260040160405180910390fd5b61067082826111e0565b60006105d7610a3b8361151c565b610b2e611330565b600080547fffffffffffffffffffffffff00000000000000000000000000000000000000001673ffffffffffffffffffffffffffffffffffffffff83169081179091556002546040517ff3034770000000000000000000000000000000000000000000000000000000008152306004820152602481019190915263f3034770906044015b600060405180830381600087803b158015610bcc57600080fd5b505af1158015610be0573d6000803e3d6000fd5b5050505050565b610bef611330565b73ffffffffffffffffffffffffffffffffffffffff1660009081527f8ffeadc5cba727b8cc3cdef48739619490ea317fdb3baae1259089d06f92c9096020526040902080547fffffffffffffffffffffffffffffffffffffffffffffffffffffffffffffff00169055565b60008181526001602052604081208054610c7390611c84565b15159392505050565b6060610c8733610a40565b610cbd576040517f406ed3da00000000000000000000000000000000000000000000000000000000815260040160405180910390fd5b6105d76105d283610fbf565b60606105d78261151c565b610cdd33610a40565b610d13576040517f406ed3da00000000000000000000000000000000000000000000000000000000815260040160405180910390fd5b61067082610d20836115be565b610fd7565b6060610d3033610a40565b610d66576040517f406ed3da00000000000000000000000000000000000000000000000000000000815260040160405180910390fd5b6105d7826114e6565b610d77611330565b63389a75e1600c52806000526020600c208054421115610d9f57636f5e88186000526004601cfd5b600090556108dd81611366565b610db4611330565b8060601b610dca57637448fbae6000526004601cfd5b6108dd81611366565b60606000825167ffffffffffffffff811115610df157610df16116be565b604051908082528060200260200182016040528015610e2457816020015b6060815260200190600190039081610e0f5790505b50905060005b835181101561088e5760016000858381518110610e4957610e49611c55565b602002602001015181526020019081526020016000208054610e6a90611c84565b80601f0160208091040260200160405190810160405280929190818152602001828054610e9690611c84565b8015610ee35780601f10610eb857610100808354040283529160200191610ee3565b820191906000526020600020905b815481529060010190602001808311610ec657829003601f168201915b5050505050828281518110610efa57610efa611c55565b60200260200101819052508080610f1090611cd7565b915050610e2a565b60606000825167ffffffffffffffff811115610f3657610f366116be565b604051908082528060200260200182016040528015610f5f578160200160208202803683370190505b50905060005b835181101561088e57610f90848281518110610f8357610f83611c55565b6020026020010151611506565b828281518110610fa257610fa2611c55565b602090810291909101015280610fb781611cd7565b915050610f65565b60606000610fcc83610dd3565b90506105d7836113cc565b8051825114611012576040517fc291f68400000000000000000000000000000000000000000000000000000000815260040160405180910390fd5b60005b82518110156110d75781818151811061103057611030611c55565b602002602001015151600003611072576040517f9cf8540c00000000000000000000000000000000000000000000000000000000815260040160405180910390fd5b81818151811061108457611084611c55565b6020026020010151600160008584815181106110a2576110a2611c55565b6020026020010151815260200190815260200160002090816110c49190611d7c565b50806110cf81611cd7565b915050611015565b506000805473ffffffffffffffffffffffffffffffffffffffff16905b83518110156111af578173ffffffffffffffffffffffffffffffffffffffff1663cfd3c57f85838151811061112b5761112b611c55565b602002602001015185848151811061114557611145611c55565b60200260200101516040518363ffffffff1660e01b815260040161116a929190611e96565b600060405180830381600087803b15801561118457600080fd5b505af1158015611198573d6000803e3d6000fd5b5050505080806111a790611cd7565b9150506110f4565b50505050565b6060816040516020016111ca91815260200190565b6040516020818303038152906040529050919050565b805160000361121b576040517f9cf8540c00000000000000000000000000000000000000000000000000000000815260040160405180910390fd5b60008281526001602052604090206112338282611d7c565b506000546040517fcfd3c57f00000000000000000000000000000000000000000000000000000000815273ffffffffffffffffffffffffffffffffffffffff9091169063cfd3c57f9061128c9085908590600401611e96565b600060405180830381600087803b1580156112a657600080fd5b505af11580156112ba573d6000803e3d6000fd5b505050505050565b60008181526001602052604081206112d991611670565b6000546040517f0de3b7b50000000000000000000000000000000000000000000000000000000081526004810183905273ffffffffffffffffffffffffffffffffffffffff90911690630de3b7b590602401610bb2565b7fffffffffffffffffffffffffffffffffffffffffffffffffffffffff748739275433146109a4576382b429006000526004601cfd5b7fffffffffffffffffffffffffffffffffffffffffffffffffffffffff74873927805473ffffffffffffffffffffffffffffffffffffffff9092169182907f8be0079c531659141344cd1fd0a4f28419497f9722a3daafe3b4186f6b6457e0600080a355565b60005b815181101561142257600160008383815181106113ee576113ee611c55565b6020026020010151815260200190815260200160002060006114109190611670565b8061141a81611cd7565b9150506113cf565b506000805473ffffffffffffffffffffffffffffffffffffffff16905b82518110156114e1578173ffffffffffffffffffffffffffffffffffffffff16630de3b7b584838151811061147657611476611c55565b60200260200101516040518263ffffffff1660e01b815260040161149c91815260200190565b600060405180830381600087803b1580156114b657600080fd5b505af11580156114ca573d6000803e3d6000fd5b5050505080806114d990611cd7565b91505061143f565b505050565b606060006114f38361151c565b8051909150156105d7576105d7836112c2565b6000818060200190518101906105d79190611eaf565b600081815260016020526040902080546060919061153990611c84565b80601f016020809104026020016040519081016040528092919081815260200182805461156590611c84565b80156115b25780601f10611587576101008083540402835291602001916115b2565b820191906000526020600020905b81548152906001019060200180831161159557829003601f168201915b50505050509050919050565b60606000825167ffffffffffffffff8111156115dc576115dc6116be565b60405190808252806020026020018201604052801561160f57816020015b60608152602001906001900390816115fa5790505b50905060005b835181101561088e5761164084828151811061163357611633611c55565b60200260200101516111b5565b82828151811061165257611652611c55565b6020026020010181905250808061166890611cd7565b915050611615565b50805461167c90611c84565b6000825580601f1061168c575050565b601f0160209004906000526020600020908101906108dd91905b808211156116ba57600081556001016116a6565b5090565b7f4e487b7100000000000000000000000000000000000000000000000000000000600052604160045260246000fd5b604051601f82017fffffffffffffffffffffffffffffffffffffffffffffffffffffffffffffffe016810167ffffffffffffffff81118282101715611734576117346116be565b604052919050565b600067ffffffffffffffff821115611756576117566116be565b5060051b60200190565b600082601f83011261177157600080fd5b813560206117866117818361173c565b6116ed565b82815260059290921b840181019181810190868411156117a557600080fd5b8286015b848110156117c057803583529183019183016117a9565b509695505050505050565b6000602082840312156117dd57600080fd5b813567ffffffffffffffff8111156117f457600080fd5b61180084828501611760565b949350505050565b6020808252825182820181905260009190848201906040850190845b8181101561184057835183529284019291840191600101611824565b50909695505050505050565b6000815180845260005b8181101561187257602081850181015186830182015201611856565b5060006020828601015260207fffffffffffffffffffffffffffffffffffffffffffffffffffffffffffffffe0601f83011685010191505092915050565b6000602080830181845280855180835260408601915060408160051b870101925083870160005b82811015611923577fffffffffffffffffffffffffffffffffffffffffffffffffffffffffffffffc088860301845261191185835161184c565b945092850192908501906001016118d7565b5092979650505050505050565b600082601f83011261194157600080fd5b813567ffffffffffffffff81111561195b5761195b6116be565b61198c60207fffffffffffffffffffffffffffffffffffffffffffffffffffffffffffffffe0601f840116016116ed565b8181528460208386010111156119a157600080fd5b816020850160208301376000918101602001919091529392505050565b600080604083850312156119d157600080fd5b823567ffffffffffffffff808211156119e957600080fd5b6119f586838701611760565b9350602091508185013581811115611a0c57600080fd5b8501601f81018713611a1d57600080fd5b8035611a2b6117818261173c565b81815260059190911b82018401908481019089831115611a4a57600080fd5b8584015b83811015611a8257803586811115611a665760008081fd5b611a748c8983890101611930565b845250918601918601611a4e565b508096505050505050509250929050565b60008060408385031215611aa657600080fd5b50508035926020909101359150565b600060208284031215611ac757600080fd5b5035919050565b600060208284031215611ae057600080fd5b813573ffffffffffffffffffffffffffffffffffffffff81168114611b0457600080fd5b9392505050565b60008060408385031215611b1e57600080fd5b82359150602083013567ffffffffffffffff811115611b3c57600080fd5b611b4885828601611930565b9150509250929050565b600060208284031215611b6457600080fd5b813567ffffffffffffffff811115611b7b57600080fd5b61180084828501611930565b602081526000611b04602083018461184c565b60008060408385031215611bad57600080fd5b823567ffffffffffffffff80821115611bc557600080fd5b611bd186838701611760565b9350602091508185013581811115611be857600080fd5b85019050601f81018613611bfb57600080fd5b8035611c096117818261173c565b81815260059190911b82018301908381019088831115611c2857600080fd5b928401925b82841015611c4657833582529284019290840190611c2d565b80955050505050509250929050565b7f4e487b7100000000000000000000000000000000000000000000000000000000600052603260045260246000fd5b600181811c90821680611c9857607f821691505b602082108103611cd1577f4e487b7100000000000000000000000000000000000000000000000000000000600052602260045260246000fd5b50919050565b60007fffffffffffffffffffffffffffffffffffffffffffffffffffffffffffffffff8203611d2f577f4e487b7100000000000000000000000000000000000000000000000000000000600052601160045260246000fd5b5060010190565b601f8211156114e157600081815260208120601f850160051c81016020861015611d5d5750805b601f850160051c820191505b818110156112ba57828155600101611d69565b815167ffffffffffffffff811115611d9657611d966116be565b611daa81611da48454611c84565b84611d36565b602080601f831160018114611dfd5760008415611dc75750858301515b7fffffffffffffffffffffffffffffffffffffffffffffffffffffffffffffffff600386901b1c1916600185901b1785556112ba565b6000858152602081207fffffffffffffffffffffffffffffffffffffffffffffffffffffffffffffffe08616915b82811015611e4a57888601518255948401946001909101908401611e2b565b5085821015611e8657878501517fffffffffffffffffffffffffffffffffffffffffffffffffffffffffffffffff600388901b60f8161c191681555b5050505050600190811b01905550565b828152604060208201526000611800604083018461184c565b600060208284031215611ec157600080fd5b505191905056fea2646970667358221220ccf3ff2b70fc963a39eb38b2693b2647735e78cd93ad0f626908df5921ccec4c64736f6c63430008110033","linkReferences":{}},"methodIdentifiers":{"authorizeWriter(address)":"4fef6a38","cancelOwnershipHandover()":"54d1f13d","completeOwnershipHandover(address)":"f04e283e","extract(uint256)":"85b39782","extractBatch(uint256[])":"dc5c22cd","extractRaw(uint256)":"e9ff6c76","extractRawBatch(uint256[])":"12b11155","get(uint256)":"9507d39a","getBatch(uint256[])":"088dd0b9","getEntities()":"31b933b9","getEntitiesWithValue(bytes)":"b361be46","getRaw(uint256)":"dd98e3c9","getRawBatch(uint256[])":"4323c4ef","has(uint256)":"cccf7a8e","id()":"af640d0f","owner()":"8da5cb5b","ownershipHandoverExpiresAt(address)":"fee81cf4","registerWorld(address)":"9d2c76b4","remove(uint256)":"4cc82215","removeBatch(uint256[])":"8482643e","renounceOwnership()":"715018a6","requestOwnershipHandover()":"25692962","set(uint256,bytes)":"8b282947","set(uint256,int256)":"293e852e","setBatch(uint256[],bytes[])":"13ca8b6a","setBatch(uint256[],int256[])":"e2ba0d5f","transferOwnership(address)":"f2fde38b","unauthorizeWriter(address)":"bf4fe57e","world()":"30b67baa","writeAccess(address)":"861eb905"},"id":151}