{"abi":[{"type":"constructor","inputs":[{"name":"world","type":"address","internalType":"address"}],"stateMutability":"nonpayable"},{"type":"function","name":"authorizeWriter","inputs":[{"name":"writer","type":"address","internalType":"address"}],"outputs":[],"stateMutability":"nonpayable"},{"type":"function","name":"cancelOwnershipHandover","inputs":[],"outputs":[],"stateMutability":"payable"},{"type":"function","name":"completeOwnershipHandover","inputs":[{"name":"pendingOwner","type":"address","internalType":"address"}],"outputs":[],"stateMutability":"payable"},{"type":"function","name":"extract","inputs":[{"name":"entity","type":"uint256","internalType":"uint256"}],"outputs":[{"name":"","type":"bool","internalType":"bool"}],"stateMutability":"nonpayable"},{"type":"function","name":"extractBatch","inputs":[{"name":"entities","type":"uint256[]","internalType":"uint256[]"}],"outputs":[{"name":"","type":"bool[]","internalType":"bool[]"}],"stateMutability":"nonpayable"},{"type":"function","name":"extractRaw","inputs":[{"name":"entity","type":"uint256","internalType":"uint256"}],"outputs":[{"name":"","type":"bytes","internalType":"bytes"}],"stateMutability":"nonpayable"},{"type":"function","name":"extractRawBatch","inputs":[{"name":"entities","type":"uint256[]","internalType":"uint256[]"}],"outputs":[{"name":"","type":"bytes[]","internalType":"bytes[]"}],"stateMutability":"nonpayable"},{"type":"function","name":"get","inputs":[{"name":"entity","type":"uint256","internalType":"uint256"}],"outputs":[{"name":"","type":"bool","internalType":"bool"}],"stateMutability":"view"},{"type":"function","name":"getBatch","inputs":[{"name":"entities","type":"uint256[]","internalType":"uint256[]"}],"outputs":[{"name":"","type":"bool[]","internalType":"bool[]"}],"stateMutability":"view"},{"type":"function","name":"getEntities","inputs":[],"outputs":[{"name":"","type":"uint256[]","internalType":"uint256[]"}],"stateMutability":"view"},{"type":"function","name":"getEntitiesWithValue","inputs":[{"name":"","type":"bytes","internalType":"bytes"}],"outputs":[{"name":"","type":"uint256[]","internalType":"uint256[]"}],"stateMutability":"view"},{"type":"function","name":"getRaw","inputs":[{"name":"entity","type":"uint256","internalType":"uint256"}],"outputs":[{"name":"","type":"bytes","internalType":"bytes"}],"stateMutability":"view"},{"type":"function","name":"getRawBatch","inputs":[{"name":"entities","type":"uint256[]","internalType":"uint256[]"}],"outputs":[{"name":"","type":"bytes[]","internalType":"bytes[]"}],"stateMutability":"view"},{"type":"function","name":"has","inputs":[{"name":"entity","type":"uint256","internalType":"uint256"}],"outputs":[{"name":"","type":"bool","internalType":"bool"}],"stateMutability":"view"},{"type":"function","name":"id","inputs":[],"outputs":[{"name":"","type":"uint256","internalType":"uint256"}],"stateMutability":"view"},{"type":"function","name":"owner","inputs":[],"outputs":[{"name":"result","type":"address","internalType":"address"}],"stateMutability":"view"},{"type":"function","name":"ownershipHandoverExpiresAt","inputs":[{"name":"pendingOwner","type":"address","internalType":"address"}],"outputs":[{"name":"result","type":"uint256","internalType":"uint256"}],"stateMutability":"view"},{"type":"function","name":"registerWorld","inputs":[{"name":"_world","type":"address","internalType":"address"}],"outputs":[],"stateMutability":"nonpayable"},{"type":"function","name":"remove","inputs":[{"name":"entity","type":"uint256","internalType":"uint256"}],"outputs":[],"stateMutability":"nonpayable"},{"type":"function","name":"removeBatch","inputs":[{"name":"entities","type":"uint256[]","internalType":"uint256[]"}],"outputs":[],"stateMutability":"nonpayable"},{"type":"function","name":"renounceOwnership","inputs":[],"outputs":[],"stateMutability":"payable"},{"type":"function","name":"requestOwnershipHandover","inputs":[],"outputs":[],"stateMutability":"payable"},{"type":"function","name":"set","inputs":[{"name":"entity","type":"uint256","internalType":"uint256"}],"outputs":[],"stateMutability":"nonpayable"},{"type":"function","name":"set","inputs":[{"name":"entity","type":"uint256","internalType":"uint256"},{"name":"value","type":"bytes","internalType":"bytes"}],"outputs":[],"stateMutability":"nonpayable"},{"type":"function","name":"setBatch","inputs":[{"name":"entities","type":"uint256[]","internalType":"uint256[]"},{"name":"values","type":"bytes[]","internalType":"bytes[]"}],"outputs":[],"stateMutability":"nonpayable"},{"type":"function","name":"setBatch","inputs":[{"name":"entities","type":"uint256[]","internalType":"uint256[]"}],"outputs":[],"stateMutability":"nonpayable"},{"type":"function","name":"transferOwnership","inputs":[{"name":"newOwner","type":"address","internalType":"address"}],"outputs":[],"stateMutability":"payable"},{"type":"function","name":"unauthorizeWriter","inputs":[{"name":"writer","type":"address","internalType":"address"}],"outputs":[],"stateMutability":"nonpayable"},{"type":"function","name":"world","inputs":[],"outputs":[{"name":"","type":"address","internalType":"address"}],"stateMutability":"view"},{"type":"function","name":"writeAccess","inputs":[{"name":"operator","type":"address","internalType":"address"}],"outputs":[{"name":"","type":"bool","internalType":"bool"}],"stateMutability":"view"},{"type":"event","name":"OwnershipHandoverCanceled","inputs":[{"name":"pendingOwner","type":"address","indexed":true,"internalType":"address"}],"anonymous":false},{"type":"event","name":"OwnershipHandoverRequested","inputs":[{"name":"pendingOwner","type":"address","indexed":true,"internalType":"address"}],"anonymous":false},{"type":"event","name":"OwnershipTransferred","inputs":[{"name":"oldOwner","type":"address","indexed":true,"internalType":"address"},{"name":"newOwner","type":"address","indexed":true,"internalType":"address"}],"anonymous":false},{"type":"error","name":"AlreadyInitialized","inputs":[]},{"type":"error","name":"BareComponent__NotImplemented","inputs":[]},{"type":"error","name":"BatchOp_UnexpectedLength","inputs":[]},{"type":"error","name":"NewOwnerIsZeroAddress","inputs":[]},{"type":"error","name":"NoHandoverRequest","inputs":[]},{"type":"error","name":"OwnableWritable__NotWriter","inputs":[]},{"type":"error","name":"Unauthorized","inputs":[]},{"type":"error","name":"ZeroValueNotAllowed","inputs":[]}],"bytecode":{"object":"0x60806040523480156200001157600080fd5b506040516200200c3803806200200c83398101604081905262000034916200016e565b807f148500b533dd597b9db9fcc26aed9a952cfd33c861ff63741d04222570837868818162000063336200008e565b60028190556001600160a01b0382161562000083576200008382620000ca565b5050505050620001a0565b6001600160a01b0316638b78c6d8198190558060007f8be0079c531659141344cd1fd0a4f28419497f9722a3daafe3b4186f6b6457e08180a350565b620000d462000150565b600080546001600160a01b0319166001600160a01b038316908117909155600254604051630f30347760e41b8152306004820152602481019190915263f303477090604401600060405180830381600087803b1580156200013457600080fd5b505af115801562000149573d6000803e3d6000fd5b5050505050565b638b78c6d8195433146200016c576382b429006000526004601cfd5b565b6000602082840312156200018157600080fd5b81516001600160a01b03811681146200019957600080fd5b9392505050565b611e5c80620001b06000396000f3fe6080604052600436106101cd5760003560e01c80638b282947116100f7578063cccf7a8e11610095578063e9ff6c7611610064578063e9ff6c7614610558578063f04e283e14610578578063f2fde38b1461058b578063fee81cf41461059e57600080fd5b8063cccf7a8e146104cb578063dc5c22cd146104eb578063dd98e3c91461050b578063e6e601621461053857600080fd5b80639d2c76b4116100d15780639d2c76b414610447578063af640d0f14610467578063b361be461461048b578063bf4fe57e146104ab57600080fd5b80638b282947146103d35780638da5cb5b146103f35780639507d39a1461042757600080fd5b80634cc822151161016f578063715018a61161013e578063715018a61461035b5780638482643e1461036357806385b3978214610383578063861eb905146103b357600080fd5b80634cc82215146102f35780634fef6a381461031357806354d1f13d1461033357806360fe47b11461033b57600080fd5b806325692962116101ab578063256929621461025757806330b67baa1461025f57806331b933b9146102b15780634323c4ef146102d357600080fd5b8063088dd0b9146101d257806312b111551461020857806313ca8b6a14610235575b600080fd5b3480156101de57600080fd5b506101f26101ed3660046117c3565b6105d1565b6040516101ff9190611800565b60405180910390f35b34801561021457600080fd5b506102286102233660046117c3565b6105ea565b6040516101ff91906118aa565b34801561024157600080fd5b506102556102503660046119b8565b610634565b005b610255610681565b34801561026b57600080fd5b5060005461028c9073ffffffffffffffffffffffffffffffffffffffff1681565b60405173ffffffffffffffffffffffffffffffffffffffff90911681526020016101ff565b3480156102bd57600080fd5b506102c66106d1565b6040516101ff9190611a8d565b3480156102df57600080fd5b506102286102ee3660046117c3565b610705565b3480156102ff57600080fd5b5061025561030e366004611ac5565b610851565b34801561031f57600080fd5b5061025561032e366004611ade565b61089c565b610255610912565b34801561034757600080fd5b50610255610356366004611ac5565b61094e565b6102556109b7565b34801561036f57600080fd5b5061025561037e3660046117c3565b6109cb565b34801561038f57600080fd5b506103a361039e366004611ac5565b610a13565b60405190151581526020016101ff565b3480156103bf57600080fd5b506103a36103ce366004611ade565b610a65565b3480156103df57600080fd5b506102556103ee366004611b1b565b610af4565b3480156103ff57600080fd5b507fffffffffffffffffffffffffffffffffffffffffffffffffffffffff748739275461028c565b34801561043357600080fd5b506103a3610442366004611ac5565b610b3d565b34801561045357600080fd5b50610255610462366004611ade565b610b48565b34801561047357600080fd5b5061047d60025481565b6040519081526020016101ff565b34801561049757600080fd5b506102c66104a6366004611b62565b6106d1565b3480156104b757600080fd5b506102556104c6366004611ade565b610c09565b3480156104d757600080fd5b506103a36104e6366004611ac5565b610c7c565b3480156104f757600080fd5b506101f26105063660046117c3565b610c9e565b34801561051757600080fd5b5061052b610526366004611ac5565b610ceb565b6040516101ff9190611b97565b34801561054457600080fd5b506102556105533660046117c3565b610cf6565b34801561056457600080fd5b5061052b610573366004611ac5565b610d48565b610255610586366004611ade565b610d92565b610255610599366004611ade565b610dcf565b3480156105aa57600080fd5b5061047d6105b9366004611ade565b63389a75e1600c908152600091909152602090205490565b60606105e46105df83610df6565b610f3b565b92915050565b60606105f533610a65565b61062b576040517f406ed3da00000000000000000000000000000000000000000000000000000000815260040160405180910390fd5b6105e482610fe7565b61063d33610a65565b610673576040517f406ed3da00000000000000000000000000000000000000000000000000000000815260040160405180910390fd5b61067d8282610fff565b5050565b60006202a30067ffffffffffffffff164201905063389a75e1600c5233600052806020600c2055337fdbf36a107da19e49527a7176a1babf963b4b0ff8cde35ee35d6cd8f1f9ac7e1d600080a250565b60606040517f17d5b8e800000000000000000000000000000000000000000000000000000000815260040160405180910390fd5b60606000825167ffffffffffffffff811115610723576107236116b6565b60405190808252806020026020018201604052801561075657816020015b60608152602001906001900390816107415790505b50905060005b835181101561084a576001600085838151811061077b5761077b611baa565b60200260200101518152602001908152602001600020805461079c90611bd9565b80601f01602080910402602001604051908101604052809291908181526020018280546107c890611bd9565b80156108155780601f106107ea57610100808354040283529160200191610815565b820191906000526020600020905b8154815290600101906020018083116107f857829003601f168201915b505050505082828151811061082c5761082c611baa565b6020026020010181905250808061084290611c2c565b91505061075c565b5092915050565b61085a33610a65565b610890576040517f406ed3da00000000000000000000000000000000000000000000000000000000815260040160405180910390fd5b610899816111dd565b50565b6108a461124b565b73ffffffffffffffffffffffffffffffffffffffff1660009081527f8ffeadc5cba727b8cc3cdef48739619490ea317fdb3baae1259089d06f92c9096020526040902080547fffffffffffffffffffffffffffffffffffffffffffffffffffffffffffffff00166001179055565b63389a75e1600c523360005260006020600c2055337ffa7b8eab7da67f412cc9575ed43464468f9bfbae89d1675917346ca6d8fe3c92600080a2565b61095733610a65565b61098d576040517f406ed3da00000000000000000000000000000000000000000000000000000000815260040160405180910390fd5b60408051600160208083019190915282518083039091018152908201909152610899908290611281565b6109bf61124b565b6109c96000611363565b565b6109d433610a65565b610a0a576040517f406ed3da00000000000000000000000000000000000000000000000000000000815260040160405180910390fd5b610899816113c9565b6000610a1e33610a65565b610a54576040517f406ed3da00000000000000000000000000000000000000000000000000000000815260040160405180910390fd5b6105e4610a60836114e3565b611503565b73ffffffffffffffffffffffffffffffffffffffff811660009081527f8ffeadc5cba727b8cc3cdef48739619490ea317fdb3baae1259089d06f92c909602052604081205460ff16806105e45750507fffffffffffffffffffffffffffffffffffffffffffffffffffffffff748739275473ffffffffffffffffffffffffffffffffffffffff91821691161490565b610afd33610a65565b610b33576040517f406ed3da00000000000000000000000000000000000000000000000000000000815260040160405180910390fd5b61067d8282611281565b60006105e482610c7c565b610b5061124b565b600080547fffffffffffffffffffffffff00000000000000000000000000000000000000001673ffffffffffffffffffffffffffffffffffffffff83169081179091556002546040517ff3034770000000000000000000000000000000000000000000000000000000008152306004820152602481019190915263f3034770906044015b600060405180830381600087803b158015610bee57600080fd5b505af1158015610c02573d6000803e3d6000fd5b5050505050565b610c1161124b565b73ffffffffffffffffffffffffffffffffffffffff1660009081527f8ffeadc5cba727b8cc3cdef48739619490ea317fdb3baae1259089d06f92c9096020526040902080547fffffffffffffffffffffffffffffffffffffffffffffffffffffffffffffff00169055565b60008181526001602052604081208054610c9590611bd9565b15159392505050565b6060610ca933610a65565b610cdf576040517f406ed3da00000000000000000000000000000000000000000000000000000000815260040160405180910390fd5b6105e46105df83610fe7565b60606105e482611519565b610cff33610a65565b610d35576040517f406ed3da00000000000000000000000000000000000000000000000000000000815260040160405180910390fd5b61089981610d4383516115bb565b610fff565b6060610d5333610a65565b610d89576040517f406ed3da00000000000000000000000000000000000000000000000000000000815260040160405180910390fd5b6105e4826114e3565b610d9a61124b565b63389a75e1600c52806000526020600c208054421115610dc257636f5e88186000526004601cfd5b6000905561089981611363565b610dd761124b565b8060601b610ded57637448fbae6000526004601cfd5b61089981611363565b60606000825167ffffffffffffffff811115610e1457610e146116b6565b604051908082528060200260200182016040528015610e4757816020015b6060815260200190600190039081610e325790505b50905060005b835181101561084a5760016000858381518110610e6c57610e6c611baa565b602002602001015181526020019081526020016000208054610e8d90611bd9565b80601f0160208091040260200160405190810160405280929190818152602001828054610eb990611bd9565b8015610f065780601f10610edb57610100808354040283529160200191610f06565b820191906000526020600020905b815481529060010190602001808311610ee957829003601f168201915b5050505050828281518110610f1d57610f1d611baa565b60200260200101819052508080610f3390611c2c565b915050610e4d565b60606000825167ffffffffffffffff811115610f5957610f596116b6565b604051908082528060200260200182016040528015610f82578160200160208202803683370190505b50905060005b835181101561084a57610fb3848281518110610fa657610fa6611baa565b6020026020010151611503565b828281518110610fc557610fc5611baa565b9115156020928302919091019091015280610fdf81611c2c565b915050610f88565b60606000610ff483610df6565b90506105e4836113c9565b805182511461103a576040517fc291f68400000000000000000000000000000000000000000000000000000000815260040160405180910390fd5b60005b82518110156110ff5781818151811061105857611058611baa565b60200260200101515160000361109a576040517f9cf8540c00000000000000000000000000000000000000000000000000000000815260040160405180910390fd5b8181815181106110ac576110ac611baa565b6020026020010151600160008584815181106110ca576110ca611baa565b6020026020010151815260200190815260200160002090816110ec9190611cd1565b50806110f781611c2c565b91505061103d565b506000805473ffffffffffffffffffffffffffffffffffffffff16905b83518110156111d7578173ffffffffffffffffffffffffffffffffffffffff1663cfd3c57f85838151811061115357611153611baa565b602002602001015185848151811061116d5761116d611baa565b60200260200101516040518363ffffffff1660e01b8152600401611192929190611deb565b600060405180830381600087803b1580156111ac57600080fd5b505af11580156111c0573d6000803e3d6000fd5b5050505080806111cf90611c2c565b91505061111c565b50505050565b60008181526001602052604081206111f491611668565b6000546040517f0de3b7b50000000000000000000000000000000000000000000000000000000081526004810183905273ffffffffffffffffffffffffffffffffffffffff90911690630de3b7b590602401610bd4565b7fffffffffffffffffffffffffffffffffffffffffffffffffffffffff748739275433146109c9576382b429006000526004601cfd5b80516000036112bc576040517f9cf8540c00000000000000000000000000000000000000000000000000000000815260040160405180910390fd5b60008281526001602052604090206112d48282611cd1565b506000546040517fcfd3c57f00000000000000000000000000000000000000000000000000000000815273ffffffffffffffffffffffffffffffffffffffff9091169063cfd3c57f9061132d9085908590600401611deb565b600060405180830381600087803b15801561134757600080fd5b505af115801561135b573d6000803e3d6000fd5b505050505050565b7fffffffffffffffffffffffffffffffffffffffffffffffffffffffff74873927805473ffffffffffffffffffffffffffffffffffffffff9092169182907f8be0079c531659141344cd1fd0a4f28419497f9722a3daafe3b4186f6b6457e0600080a355565b60005b815181101561141f57600160008383815181106113eb576113eb611baa565b60200260200101518152602001908152602001600020600061140d9190611668565b8061141781611c2c565b9150506113cc565b506000805473ffffffffffffffffffffffffffffffffffffffff16905b82518110156114de578173ffffffffffffffffffffffffffffffffffffffff16630de3b7b584838151811061147357611473611baa565b60200260200101516040518263ffffffff1660e01b815260040161149991815260200190565b600060405180830381600087803b1580156114b357600080fd5b505af11580156114c7573d6000803e3d6000fd5b5050505080806114d690611c2c565b91505061143c565b505050565b606060006114f083611519565b8051909150156105e4576105e4836111dd565b6000818060200190518101906105e49190611e04565b600081815260016020526040902080546060919061153690611bd9565b80601f016020809104026020016040519081016040528092919081815260200182805461156290611bd9565b80156115af5780601f10611584576101008083540402835291602001916115af565b820191906000526020600020905b81548152906001019060200180831161159257829003601f168201915b50505050509050919050565b606060008267ffffffffffffffff8111156115d8576115d86116b6565b60405190808252806020026020018201604052801561160b57816020015b60608152602001906001900390816115f65790505b50905060005b8381101561084a576040805160016020808301919091528251808303909101815290820190915282828151811061164a5761164a611baa565b6020026020010181905250808061166090611c2c565b915050611611565b50805461167490611bd9565b6000825580601f10611684575050565b601f01602090049060005260206000209081019061089991905b808211156116b2576000815560010161169e565b5090565b7f4e487b7100000000000000000000000000000000000000000000000000000000600052604160045260246000fd5b604051601f82017fffffffffffffffffffffffffffffffffffffffffffffffffffffffffffffffe016810167ffffffffffffffff8111828210171561172c5761172c6116b6565b604052919050565b600067ffffffffffffffff82111561174e5761174e6116b6565b5060051b60200190565b600082601f83011261176957600080fd5b8135602061177e61177983611734565b6116e5565b82815260059290921b8401810191818101908684111561179d57600080fd5b8286015b848110156117b857803583529183019183016117a1565b509695505050505050565b6000602082840312156117d557600080fd5b813567ffffffffffffffff8111156117ec57600080fd5b6117f884828501611758565b949350505050565b6020808252825182820181905260009190848201906040850190845b8181101561183a57835115158352928401929184019160010161181c565b50909695505050505050565b6000815180845260005b8181101561186c57602081850181015186830182015201611850565b5060006020828601015260207fffffffffffffffffffffffffffffffffffffffffffffffffffffffffffffffe0601f83011685010191505092915050565b6000602080830181845280855180835260408601915060408160051b870101925083870160005b8281101561191d577fffffffffffffffffffffffffffffffffffffffffffffffffffffffffffffffc088860301845261190b858351611846565b945092850192908501906001016118d1565b5092979650505050505050565b600082601f83011261193b57600080fd5b813567ffffffffffffffff811115611955576119556116b6565b61198660207fffffffffffffffffffffffffffffffffffffffffffffffffffffffffffffffe0601f840116016116e5565b81815284602083860101111561199b57600080fd5b816020850160208301376000918101602001919091529392505050565b600080604083850312156119cb57600080fd5b823567ffffffffffffffff808211156119e357600080fd5b6119ef86838701611758565b9350602091508185013581811115611a0657600080fd5b8501601f81018713611a1757600080fd5b8035611a2561177982611734565b81815260059190911b82018401908481019089831115611a4457600080fd5b8584015b83811015611a7c57803586811115611a605760008081fd5b611a6e8c898389010161192a565b845250918601918601611a48565b508096505050505050509250929050565b6020808252825182820181905260009190848201906040850190845b8181101561183a57835183529284019291840191600101611aa9565b600060208284031215611ad757600080fd5b5035919050565b600060208284031215611af057600080fd5b813573ffffffffffffffffffffffffffffffffffffffff81168114611b1457600080fd5b9392505050565b60008060408385031215611b2e57600080fd5b82359150602083013567ffffffffffffffff811115611b4c57600080fd5b611b588582860161192a565b9150509250929050565b600060208284031215611b7457600080fd5b813567ffffffffffffffff811115611b8b57600080fd5b6117f88482850161192a565b602081526000611b146020830184611846565b7f4e487b7100000000000000000000000000000000000000000000000000000000600052603260045260246000fd5b600181811c90821680611bed57607f821691505b602082108103611c26577f4e487b7100000000000000000000000000000000000000000000000000000000600052602260045260246000fd5b50919050565b60007fffffffffffffffffffffffffffffffffffffffffffffffffffffffffffffffff8203611c84577f4e487b7100000000000000000000000000000000000000000000000000000000600052601160045260246000fd5b5060010190565b601f8211156114de57600081815260208120601f850160051c81016020861015611cb25750805b601f850160051c820191505b8181101561135b57828155600101611cbe565b815167ffffffffffffffff811115611ceb57611ceb6116b6565b611cff81611cf98454611bd9565b84611c8b565b602080601f831160018114611d525760008415611d1c5750858301515b7fffffffffffffffffffffffffffffffffffffffffffffffffffffffffffffffff600386901b1c1916600185901b17855561135b565b6000858152602081207fffffffffffffffffffffffffffffffffffffffffffffffffffffffffffffffe08616915b82811015611d9f57888601518255948401946001909101908401611d80565b5085821015611ddb57878501517fffffffffffffffffffffffffffffffffffffffffffffffffffffffffffffffff600388901b60f8161c191681555b5050505050600190811b01905550565b8281526040602082015260006117f86040830184611846565b600060208284031215611e1657600080fd5b81518015158114611b1457600080fdfea264697066735822122052c9fba3968cf6dd941bb34befc06fa5a7e2a7f7efd69c5b0045fd43c935ae9f64736f6c63430008110033","linkReferences":{}},"methodIdentifiers":{"authorizeWriter(address)":"4fef6a38","cancelOwnershipHandover()":"54d1f13d","completeOwnershipHandover(address)":"f04e283e","extract(uint256)":"85b39782","extractBatch(uint256[])":"dc5c22cd","extractRaw(uint256)":"e9ff6c76","extractRawBatch(uint256[])":"12b11155","get(uint256)":"9507d39a","getBatch(uint256[])":"088dd0b9","getEntities()":"31b933b9","getEntitiesWithValue(bytes)":"b361be46","getRaw(uint256)":"dd98e3c9","getRawBatch(uint256[])":"4323c4ef","has(uint256)":"cccf7a8e","id()":"af640d0f","owner()":"8da5cb5b","ownershipHandoverExpiresAt(address)":"fee81cf4","registerWorld(address)":"9d2c76b4","remove(uint256)":"4cc82215","removeBatch(uint256[])":"8482643e","renounceOwnership()":"715018a6","requestOwnershipHandover()":"25692962","set(uint256)":"60fe47b1","set(uint256,bytes)":"8b282947","setBatch(uint256[])":"e6e60162","setBatch(uint256[],bytes[])":"13ca8b6a","transferOwnership(address)":"f2fde38b","unauthorizeWriter(address)":"bf4fe57e","world()":"30b67baa","writeAccess(address)":"861eb905"},"id":111}