{"abi":[{"type":"constructor","inputs":[{"name":"_world","type":"address","internalType":"contract IWorld"},{"name":"_components","type":"address","internalType":"address"}],"stateMutability":"nonpayable"},{"type":"function","name":"cancelOwnershipHandover","inputs":[],"outputs":[],"stateMutability":"payable"},{"type":"function","name":"completeOwnershipHandover","inputs":[{"name":"pendingOwner","type":"address","internalType":"address"}],"outputs":[],"stateMutability":"payable"},{"type":"function","name":"deprecate","inputs":[],"outputs":[],"stateMutability":"nonpayable"},{"type":"function","name":"execute","inputs":[{"name":"arguments","type":"bytes","internalType":"bytes"}],"outputs":[{"name":"","type":"bytes","internalType":"bytes"}],"stateMutability":"nonpayable"},{"type":"function","name":"executeTyped","inputs":[{"name":"indices","type":"uint32[]","internalType":"uint32[]"},{"name":"amts","type":"uint256[]","internalType":"uint256[]"}],"outputs":[{"name":"","type":"bytes","internalType":"bytes"}],"stateMutability":"nonpayable"},{"type":"function","name":"owner","inputs":[],"outputs":[{"name":"result","type":"address","internalType":"address"}],"stateMutability":"view"},{"type":"function","name":"ownershipHandoverExpiresAt","inputs":[{"name":"pendingOwner","type":"address","internalType":"address"}],"outputs":[{"name":"result","type":"uint256","internalType":"uint256"}],"stateMutability":"view"},{"type":"function","name":"renounceOwnership","inputs":[],"outputs":[],"stateMutability":"payable"},{"type":"function","name":"requestOwnershipHandover","inputs":[],"outputs":[],"stateMutability":"payable"},{"type":"function","name":"transferOwnership","inputs":[{"name":"newOwner","type":"address","internalType":"address"}],"outputs":[],"stateMutability":"payable"},{"type":"event","name":"OwnershipHandoverCanceled","inputs":[{"name":"pendingOwner","type":"address","indexed":true,"internalType":"address"}],"anonymous":false},{"type":"event","name":"OwnershipHandoverRequested","inputs":[{"name":"pendingOwner","type":"address","indexed":true,"internalType":"address"}],"anonymous":false},{"type":"event","name":"OwnershipTransferred","inputs":[{"name":"oldOwner","type":"address","indexed":true,"internalType":"address"},{"name":"newOwner","type":"address","indexed":true,"internalType":"address"}],"anonymous":false},{"type":"event","name":"SystemDeprecated","inputs":[],"anonymous":false},{"type":"error","name":"AlreadyInitialized","inputs":[]},{"type":"error","name":"NewOwnerIsZeroAddress","inputs":[]},{"type":"error","name":"NoHandoverRequest","inputs":[]},{"type":"error","name":"Unauthorized","inputs":[]}],"bytecode":{"object":"0x60c06040523480156200001157600080fd5b50604051620023b0380380620023b083398101604081905262000034916200012f565b81816200004133620000dc565b6001600160a01b03811615620000585780620000bd565b816001600160a01b031663ba62fbe46040518163ffffffff1660e01b8152600401602060405180830381865afa15801562000097573d6000803e3d6000fd5b505050506040513d601f19601f82011682018060405250810190620000bd91906200016e565b6001600160a01b039081166080529190911660a0525062000195915050565b6001600160a01b0316638b78c6d8198190558060007f8be0079c531659141344cd1fd0a4f28419497f9722a3daafe3b4186f6b6457e08180a35b50565b6001600160a01b03811681146200011657600080fd5b600080604083850312156200014357600080fd5b8251620001508162000119565b6020840151909250620001638162000119565b809150509250929050565b6000602082840312156200018157600080fd5b81516200018e8162000119565b9392505050565b60805160a0516121dc620001d4600039600050506000818161021a01528181610246015281816102db01528181610307015261036901526121dc6000f3fe6080604052600436106100b15760003560e01c80638330e87911610069578063f04e283e1161004e578063f04e283e1461018f578063f2fde38b146101a2578063fee81cf4146101b557600080fd5b80638330e8791461011b5780638da5cb5b1461013b57600080fd5b8063256929621161009a578063256929621461010357806354d1f13d1461010b578063715018a61461011357600080fd5b806309c5eabe146100b65780630fcc0c28146100ec575b600080fd5b3480156100c257600080fd5b506100d66100d13660046119d2565b6101f6565b6040516100e39190611ac0565b60405180910390f35b3480156100f857600080fd5b506101016103a6565b005b6101016103d9565b610101610429565b610101610465565b34801561012757600080fd5b506100d6610136366004611b6f565b610479565b34801561014757600080fd5b507fffffffffffffffffffffffffffffffffffffffffffffffffffffffff748739275460405173ffffffffffffffffffffffffffffffffffffffff90911681526020016100e3565b61010161019d366004611c31565b6104ae565b6101016101b0366004611c31565b6104ee565b3480156101c157600080fd5b506101e86101d0366004611c31565b63389a75e1600c908152600091909152602090205490565b6040519081526020016100e3565b60606000808380602001905181019061020f9190611cc2565b91509150600061023f7f000000000000000000000000000000000000000000000000000000000000000033610515565b905061026b7f0000000000000000000000000000000000000000000000000000000000000000846106d5565b6102d6576040517f08c379a000000000000000000000000000000000000000000000000000000000815260206004820152601660248201527f4974656d4275726e3a206e6f74206275726e61626c650000000000000000000060448201526064015b60405180910390fd5b6103027f0000000000000000000000000000000000000000000000000000000000000000828585610858565b6103647f000000000000000000000000000000000000000000000000000000000000000082856040518060400160405280600981526020017f4954454d5f4255524e0000000000000000000000000000000000000000000000815250866108ba565b61038e7f000000000000000000000000000000000000000000000000000000000000000082610975565b50506040805160208101909152600081529392505050565b6103ae610984565b6040517f56f33501ffd77f9fe44d81e7db7e66a66bdf52ab3e11267cdc6462763604c4c790600090a1565b60006202a30067ffffffffffffffff164201905063389a75e1600c5233600052806020600c2055337fdbf36a107da19e49527a7176a1babf963b4b0ff8cde35ee35d6cd8f1f9ac7e1d600080a250565b63389a75e1600c523360005260006020600c2055337ffa7b8eab7da67f412cc9575ed43464468f9bfbae89d1675917346ca6d8fe3c92600080a2565b61046d610984565b61047760006109ba565b565b60606104a58383604051602001610491929190611db8565b6040516020818303038152906040526101f6565b90505b92915050565b6104b6610984565b63389a75e1600c52806000526020600c2080544211156104de57636f5e88186000526004601cfd5b600090556104eb816109ba565b50565b6104f6610984565b8060601b61050c57637448fbae6000526004601cfd5b6104eb816109ba565b600080610542847ff9b94d2a933222e58f90359e8ec33041c5f08d7bc4304958d1c52c21991da575610a20565b6040517fcccf7a8e00000000000000000000000000000000000000000000000000000000815273ffffffffffffffffffffffffffffffffffffffff8581166004830181905292935083169063cccf7a8e90602401602060405180830381865afa1580156105b3573d6000803e3d6000fd5b505050506040513d601f19601f820116820180604052508101906105d79190611e0b565b61063d576040517f08c379a000000000000000000000000000000000000000000000000000000000815260206004820152601b60248201527f4163636f756e743a204f70657261746f72206e6f7420666f756e64000000000060448201526064016102cd565b6040517f9507d39a0000000000000000000000000000000000000000000000000000000081526004810182905273ffffffffffffffffffffffffffffffffffffffff831690639507d39a90602401602060405180830381865afa1580156106a8573d6000803e3d6000fd5b505050506040513d601f19601f820116820180604052508101906106cc9190611e2d565b95945050505050565b600080825167ffffffffffffffff8111156106f2576106f261190e565b60405190808252806020026020018201604052801561071b578160200160208202803683370190505b50905060005b835181101561080d576107de84828151811061073f5761073f611e46565b60200260200101516040517f72656769737472792e6974656d0000000000000000000000000000000000000060208201527fffffffff0000000000000000000000000000000000000000000000000000000060e083901b16602d820152600090603101604080517fffffffffffffffffffffffffffffffffffffffffffffffffffffffffffffffe0818403018152919052805160209091012092915050565b8282815181106107f0576107f0611e46565b60209081029190910101528061080581611ea4565b915050610721565b5061085084826040518060400160405280600f81526020017f4954454d5f554e4255524e41424c4500000000000000000000000000000000008152506000610b64565b949350505050565b6000610865858585610c62565b90506108b38183610896887fb25ea67b55901db62e4b14311a8c1ab178fec3948b4b493a711970a50aa2a2e1610a20565b73ffffffffffffffffffffffffffffffffffffffff169190610f87565b5050505050565b6000835167ffffffffffffffff8111156108d6576108d661190e565b6040519080825280602002602001820160405280156108ff578160200160208202803683370190505b50905060005b8451811015610961576109328686838151811061092457610924611e46565b602002602001015186610fe9565b82828151811061094457610944611e46565b60209081029190910101528061095981611ea4565b915050610905565b5061096d86828461103e565b505050505050565b61098082824261108f565b5050565b7fffffffffffffffffffffffffffffffffffffffffffffffffffffffff74873927543314610477576382b429006000526004601cfd5b7fffffffffffffffffffffffffffffffffffffffffffffffffffffffff74873927805473ffffffffffffffffffffffffffffffffffffffff9092169182907f8be0079c531659141344cd1fd0a4f28419497f9722a3daafe3b4186f6b6457e0600080a355565b6040517ffbdfa1ea00000000000000000000000000000000000000000000000000000000815260048101829052600090819073ffffffffffffffffffffffffffffffffffffffff85169063fbdfa1ea90602401600060405180830381865afa158015610a90573d6000803e3d6000fd5b505050506040513d6000823e601f3d9081017fffffffffffffffffffffffffffffffffffffffffffffffffffffffffffffffe0168201604052610ad69190810190611edc565b90508051600003610b43576040517f08c379a000000000000000000000000000000000000000000000000000000000815260206004820152601160248201527f6964206e6f74207265676973746572656400000000000000000000000000000060448201526064016102cd565b61085081600081518110610b5957610b59611e46565b602002602001015190565b600080845167ffffffffffffffff811115610b8157610b8161190e565b604051908082528060200260200182016040528015610baa578160200160208202803683370190505b50905060005b8551811015610c0b57610bdc868281518110610bce57610bce611e46565b602002602001015186611148565b828281518110610bee57610bee611e46565b602090810291909101015280610c0381611ea4565b915050610bb0565b50610c588184610c3b897fd426585847552196ce5fddb7f2e37e8aa38f62676728e7518835f8440cf9195861119a565b73ffffffffffffffffffffffffffffffffffffffff1691906111a6565b9695505050505050565b60606000825167ffffffffffffffff811115610c8057610c8061190e565b604051908082528060200260200182016040528015610ca9578160200160208202803683370190505b50905060005b8351811015610d0a57610cdb85858381518110610cce57610cce611e46565b602002602001015161120f565b828281518110610ced57610ced611e46565b602090810291909101015280610d0281611ea4565b915050610caf565b50600080610d4e87846040518060400160405280600981526020017f494e56454e544f52590000000000000000000000000000000000000000000000815250611276565b915091508015610d6357829350505050610f80565b6000610d8f887fd3da495fedd385ac62763d969054ffb19f1777e687374cceb91f1237ddd6bfb3610a20565b90506000610dbd897f1ee9964c9c16bbb74f9e401f1ab450f99b2343a602036525f23f0da350bc74d0610a20565b905060005b8751811015610f77576000868281518110610ddf57610ddf611e46565b60200260200101519050858281518110610dfb57610dfb611e46565b6020026020010151610f6457610e478b826040518060400160405280600981526020017f494e56454e544f525900000000000000000000000000000000000000000000008152506113b5565b8373ffffffffffffffffffffffffffffffffffffffff1663d923c3c4828b8581518110610e7657610e76611e46565b60200260200101516040518363ffffffff1660e01b8152600401610eaa92919091825263ffffffff16602082015260400190565b600060405180830381600087803b158015610ec457600080fd5b505af1158015610ed8573d6000803e3d6000fd5b50506040517f1ab06ee500000000000000000000000000000000000000000000000000000000815260048101849052602481018d905273ffffffffffffffffffffffffffffffffffffffff86169250631ab06ee59150604401600060405180830381600087803b158015610f4b57600080fd5b505af1158015610f5f573d6000803e3d6000fd5b505050505b5080610f6f81611ea4565b915050610dc2565b50939450505050505b9392505050565b60005b8251811015610fe357610fd084848381518110610fa957610fa9611e46565b6020026020010151848481518110610fc357610fc3611e46565b6020026020010151611419565b5080610fdb81611ea4565b915050610f8a565b50505050565b600083838360405160200161100093929190611f11565b604080517fffffffffffffffffffffffffffffffffffffffffffffffffffffffffffffffe08184030181529190528051602090910120949350505050565b61108a828261106d867fb25ea67b55901db62e4b14311a8c1ab178fec3948b4b493a711970a50aa2a2e1610a20565b73ffffffffffffffffffffffffffffffffffffffff1691906114c1565b505050565b6110b9837f342adee7430e96bca6f5d4fe57ba5155dc7271000494e77110c292d51ae887fa610a20565b6040517f1ab06ee5000000000000000000000000000000000000000000000000000000008152600481018490526024810183905273ffffffffffffffffffffffffffffffffffffffff9190911690631ab06ee5906044015b600060405180830381600087803b15801561112b57600080fd5b505af115801561113f573d6000803e3d6000fd5b50505050505050565b6000828260405160200161115d929190611f89565b604080517fffffffffffffffffffffffffffffffffffffffffffffffffffffffffffffffe081840301815291905280516020909101209392505050565b60006104a58383610a20565b6000806111b3858561151d565b905060005b845181101561120357831515158282815181106111d7576111d7611e46565b60200260200101511515036111f157600092505050610f80565b806111fb81611ea4565b9150506111b8565b50600195945050505050565b6040517f696e76656e746f72792e696e7374616e636500000000000000000000000000006020820152603281018390527fffffffff0000000000000000000000000000000000000000000000000000000060e083901b16605282015260009060560161115d565b60606000806112a5867f5d88ced8d8e079072bf73f49fc87661b519c50d79482941abb852ba2b10909cd610a20565b905060006112c973ffffffffffffffffffffffffffffffffffffffff83168761166e565b90506000865167ffffffffffffffff8111156112e7576112e761190e565b604051908082528060200260200182016040528015611310578160200160208202803683370190505b509050600160005b88518110156113a65761134d8885838151811061133757611337611e46565b602002602001015161180290919063ffffffff16565b83828151811061135f5761135f611e46565b60200260200101901515908115158152505082818151811061138357611383611e46565b602002602001015161139457600091505b8061139e81611ea4565b915050611318565b50909890975095505050505050565b6113df837f5d88ced8d8e079072bf73f49fc87661b519c50d79482941abb852ba2b10909cd610a20565b73ffffffffffffffffffffffffffffffffffffffff16636437197783836040518363ffffffff1660e01b8152600401611111929190611fd5565b6000816114268585611818565b6114309190611fee565b6040517f1ab06ee5000000000000000000000000000000000000000000000000000000008152600481018590526024810182905290915073ffffffffffffffffffffffffffffffffffffffff851690631ab06ee590604401600060405180830381600087803b1580156114a257600080fd5b505af11580156114b6573d6000803e3d6000fd5b505050509392505050565b60005b8251811015610fe35761150a848483815181106114e3576114e3611e46565b60200260200101518484815181106114fd576114fd611e46565b60200260200101516118f7565b508061151581611ea4565b9150506114c4565b606060008373ffffffffffffffffffffffffffffffffffffffff16634323c4ef846040518263ffffffff1660e01b815260040161155a9190612001565b600060405180830381865afa158015611577573d6000803e3d6000fd5b505050506040513d6000823e601f3d9081017fffffffffffffffffffffffffffffffffffffffffffffffffffffffffffffffe01682016040526115bd9190810190612064565b90506000815167ffffffffffffffff8111156115db576115db61190e565b604051908082528060200260200182016040528015611604578160200160208202803683370190505b50905060005b845181101561166557600083828151811061162757611627611e46565b6020026020010151511182828151811061164357611643611e46565b911515602092830291909101909101528061165d81611ea4565b91505061160a565b50949350505050565b606060008373ffffffffffffffffffffffffffffffffffffffff16634323c4ef846040518263ffffffff1660e01b81526004016116ab9190612001565b600060405180830381865afa1580156116c8573d6000803e3d6000fd5b505050506040513d6000823e601f3d9081017fffffffffffffffffffffffffffffffffffffffffffffffffffffffffffffffe016820160405261170e9190810190612064565b90506000815167ffffffffffffffff81111561172c5761172c61190e565b60405190808252806020026020018201604052801561175f57816020015b606081526020019060019003908161174a5790505b50905060005b825181101561166557600083828151811061178257611782611e46565b602002602001015151116117a557604051806020016040528060008152506117d2565b8281815181106117b7576117b7611e46565b60200260200101518060200190518101906117d29190612115565b8282815181106117e4576117e4611e46565b602002602001018190525080806117fa90611ea4565b915050611765565b8051602091820120825192909101919091201490565b6040517fdd98e3c900000000000000000000000000000000000000000000000000000000815260048101829052600090819073ffffffffffffffffffffffffffffffffffffffff85169063dd98e3c990602401600060405180830381865afa158015611888573d6000803e3d6000fd5b505050506040513d6000823e601f3d9081017fffffffffffffffffffffffffffffffffffffffffffffffffffffffffffffffe01682016040526118ce919081019061215e565b905080516000036118e35760009150506104a8565b808060200190518101906108509190611e2d565b6000816119048585611818565b6114309190612193565b7f4e487b7100000000000000000000000000000000000000000000000000000000600052604160045260246000fd5b604051601f82017fffffffffffffffffffffffffffffffffffffffffffffffffffffffffffffffe016810167ffffffffffffffff811182821017156119845761198461190e565b604052919050565b600067ffffffffffffffff8211156119a6576119a661190e565b50601f017fffffffffffffffffffffffffffffffffffffffffffffffffffffffffffffffe01660200190565b6000602082840312156119e457600080fd5b813567ffffffffffffffff8111156119fb57600080fd5b8201601f81018413611a0c57600080fd5b8035611a1f611a1a8261198c565b61193d565b818152856020838501011115611a3457600080fd5b81602084016020830137600091810160200191909152949350505050565b60005b83811015611a6d578181015183820152602001611a55565b50506000910152565b60008151808452611a8e816020860160208601611a52565b601f017fffffffffffffffffffffffffffffffffffffffffffffffffffffffffffffffe0169290920160200192915050565b6020815260006104a56020830184611a76565b600067ffffffffffffffff821115611aed57611aed61190e565b5060051b60200190565b63ffffffff811681146104eb57600080fd5b600082601f830112611b1a57600080fd5b81356020611b2a611a1a83611ad3565b82815260059290921b84018101918181019086841115611b4957600080fd5b8286015b84811015611b645780358352918301918301611b4d565b509695505050505050565b60008060408385031215611b8257600080fd5b823567ffffffffffffffff80821115611b9a57600080fd5b818501915085601f830112611bae57600080fd5b81356020611bbe611a1a83611ad3565b82815260059290921b84018101918181019089841115611bdd57600080fd5b948201945b83861015611c04578535611bf581611af7565b82529482019490820190611be2565b96505086013592505080821115611c1a57600080fd5b50611c2785828601611b09565b9150509250929050565b600060208284031215611c4357600080fd5b813573ffffffffffffffffffffffffffffffffffffffff81168114610f8057600080fd5b600082601f830112611c7857600080fd5b81516020611c88611a1a83611ad3565b82815260059290921b84018101918181019086841115611ca757600080fd5b8286015b84811015611b645780518352918301918301611cab565b60008060408385031215611cd557600080fd5b825167ffffffffffffffff80821115611ced57600080fd5b818501915085601f830112611d0157600080fd5b81516020611d11611a1a83611ad3565b82815260059290921b84018101918181019089841115611d3057600080fd5b948201945b83861015611d57578551611d4881611af7565b82529482019490820190611d35565b91880151919650909350505080821115611d7057600080fd5b50611c2785828601611c67565b600081518084526020808501945080840160005b83811015611dad57815187529582019590820190600101611d91565b509495945050505050565b604080825283519082018190526000906020906060840190828701845b82811015611df757815163ffffffff1684529284019290840190600101611dd5565b50505083810382850152610c588186611d7d565b600060208284031215611e1d57600080fd5b81518015158114610f8057600080fd5b600060208284031215611e3f57600080fd5b5051919050565b7f4e487b7100000000000000000000000000000000000000000000000000000000600052603260045260246000fd5b7f4e487b7100000000000000000000000000000000000000000000000000000000600052601160045260246000fd5b60007fffffffffffffffffffffffffffffffffffffffffffffffffffffffffffffffff8203611ed557611ed5611e75565b5060010190565b600060208284031215611eee57600080fd5b815167ffffffffffffffff811115611f0557600080fd5b61085084828501611c67565b7f69732e646174610000000000000000000000000000000000000000000000000081528360078201527fffffffff000000000000000000000000000000000000000000000000000000008360e01b16602782015260008251611f7a81602b850160208701611a52565b91909101602b01949350505050565b7f6861732e666c6167000000000000000000000000000000000000000000000000815282600882015260008251611fc7816028850160208701611a52565b919091016028019392505050565b8281526040602082015260006108506040830184611a76565b818103818111156104a8576104a8611e75565b6020815260006104a56020830184611d7d565b6000612022611a1a8461198c565b905082815283838301111561203657600080fd5b610f80836020830184611a52565b600082601f83011261205557600080fd5b6104a583835160208501612014565b6000602080838503121561207757600080fd5b825167ffffffffffffffff8082111561208f57600080fd5b818501915085601f8301126120a357600080fd5b81516120b1611a1a82611ad3565b81815260059190911b830184019084810190888311156120d057600080fd5b8585015b83811015612108578051858111156120ec5760008081fd5b6120fa8b89838a0101612044565b8452509186019186016120d4565b5098975050505050505050565b60006020828403121561212757600080fd5b815167ffffffffffffffff81111561213e57600080fd5b8201601f8101841361214f57600080fd5b61085084825160208401612014565b60006020828403121561217057600080fd5b815167ffffffffffffffff81111561218757600080fd5b61085084828501612044565b808201808211156104a8576104a8611e7556fea2646970667358221220c4ce87065f45378803744a3882f286237d0034f954518a15d376cc95a05ce5ec64736f6c63430008110033","linkReferences":{}},"methodIdentifiers":{"cancelOwnershipHandover()":"54d1f13d","completeOwnershipHandover(address)":"f04e283e","deprecate()":"0fcc0c28","execute(bytes)":"09c5eabe","executeTyped(uint32[],uint256[])":"8330e879","owner()":"8da5cb5b","ownershipHandoverExpiresAt(address)":"fee81cf4","renounceOwnership()":"715018a6","requestOwnershipHandover()":"25692962","transferOwnership(address)":"f2fde38b"},"id":267}