{"abi":[{"type":"constructor","inputs":[{"name":"_world","type":"address","internalType":"contract IWorld"},{"name":"_components","type":"address","internalType":"address"}],"stateMutability":"nonpayable"},{"type":"function","name":"cancelOwnershipHandover","inputs":[],"outputs":[],"stateMutability":"payable"},{"type":"function","name":"completeOwnershipHandover","inputs":[{"name":"pendingOwner","type":"address","internalType":"address"}],"outputs":[],"stateMutability":"payable"},{"type":"function","name":"deprecate","inputs":[],"outputs":[],"stateMutability":"nonpayable"},{"type":"function","name":"execute","inputs":[{"name":"arguments","type":"bytes","internalType":"bytes"}],"outputs":[{"name":"","type":"bytes","internalType":"bytes"}],"stateMutability":"nonpayable"},{"type":"function","name":"executeTyped","inputs":[{"name":"amount","type":"uint256","internalType":"uint256"}],"outputs":[{"name":"","type":"bytes","internalType":"bytes"}],"stateMutability":"nonpayable"},{"type":"function","name":"owner","inputs":[],"outputs":[{"name":"result","type":"address","internalType":"address"}],"stateMutability":"view"},{"type":"function","name":"ownershipHandoverExpiresAt","inputs":[{"name":"pendingOwner","type":"address","internalType":"address"}],"outputs":[{"name":"result","type":"uint256","internalType":"uint256"}],"stateMutability":"view"},{"type":"function","name":"renounceOwnership","inputs":[],"outputs":[],"stateMutability":"payable"},{"type":"function","name":"requestOwnershipHandover","inputs":[],"outputs":[],"stateMutability":"payable"},{"type":"function","name":"transferOwnership","inputs":[{"name":"newOwner","type":"address","internalType":"address"}],"outputs":[],"stateMutability":"payable"},{"type":"event","name":"OwnershipHandoverCanceled","inputs":[{"name":"pendingOwner","type":"address","indexed":true,"internalType":"address"}],"anonymous":false},{"type":"event","name":"OwnershipHandoverRequested","inputs":[{"name":"pendingOwner","type":"address","indexed":true,"internalType":"address"}],"anonymous":false},{"type":"event","name":"OwnershipTransferred","inputs":[{"name":"oldOwner","type":"address","indexed":true,"internalType":"address"},{"name":"newOwner","type":"address","indexed":true,"internalType":"address"}],"anonymous":false},{"type":"event","name":"SystemDeprecated","inputs":[],"anonymous":false},{"type":"error","name":"AlreadyInitialized","inputs":[]},{"type":"error","name":"NewOwnerIsZeroAddress","inputs":[]},{"type":"error","name":"NoHandoverRequest","inputs":[]},{"type":"error","name":"QueryOrderNotSupported","inputs":[]},{"type":"error","name":"Unauthorized","inputs":[]}],"bytecode":{"object":"0x60c06040523480156200001157600080fd5b50604051620022a7380380620022a783398101604081905262000034916200012f565b81816200004133620000dc565b6001600160a01b03811615620000585780620000bd565b816001600160a01b031663ba62fbe46040518163ffffffff1660e01b8152600401602060405180830381865afa15801562000097573d6000803e3d6000fd5b505050506040513d601f19601f82011682018060405250810190620000bd91906200016e565b6001600160a01b039081166080529190911660a0525062000195915050565b6001600160a01b0316638b78c6d8198190558060007f8be0079c531659141344cd1fd0a4f28419497f9722a3daafe3b4186f6b6457e08180a35b50565b6001600160a01b03811681146200011657600080fd5b600080604083850312156200014357600080fd5b8251620001508162000119565b6020840151909250620001638162000119565b809150509250929050565b6000602082840312156200018157600080fd5b81516200018e8162000119565b9392505050565b60805160a0516120c9620001de600039600081816102e10152610330015260008181610217015281816102b20152818161030201528181610351015261037c01526120c96000f3fe6080604052600436106100b15760003560e01c8063715018a611610069578063f04e283e1161004e578063f04e283e1461018f578063f2fde38b146101a2578063fee81cf4146101b557600080fd5b8063715018a6146101335780638da5cb5b1461013b57600080fd5b8063256929621161009a57806325692962146101035780633e991df31461010b57806354d1f13d1461012b57600080fd5b806309c5eabe146100b65780630fcc0c28146100ec575b600080fd5b3480156100c257600080fd5b506100d66100d1366004611a9c565b6101f6565b6040516100e39190611b8a565b60405180910390f35b3480156100f857600080fd5b506101016103cb565b005b6101016103fe565b34801561011757600080fd5b506100d6610126366004611b9d565b61044e565b610101610480565b6101016104bc565b34801561014757600080fd5b507fffffffffffffffffffffffffffffffffffffffffffffffffffffffff748739275460405173ffffffffffffffffffffffffffffffffffffffff90911681526020016100e3565b61010161019d366004611bb6565b6104d0565b6101016101b0366004611bb6565b610510565b3480156101c157600080fd5b506101e86101d0366004611bb6565b63389a75e1600c908152600091909152602090205490565b6040519081526020016100e3565b606060008280602001905181019061020e9190611bec565b9050600061023c7f000000000000000000000000000000000000000000000000000000000000000033610537565b9050806000036102ad576040517f08c379a000000000000000000000000000000000000000000000000000000000815260206004820152601360248201527f6e6f206163636f756e742064657465637465640000000000000000000000000060448201526064015b60405180910390fd5b6102da7f00000000000000000000000000000000000000000000000000000000000000008260028561060c565b60006103297f00000000000000000000000000000000000000000000000000000000000000007f000000000000000000000000000000000000000000000000000000000000000085854361066f565b90506103777f00000000000000000000000000000000000000000000000000000000000000007f000000000000000000000000000000000000000000000000000000000000000084866106be565b6103a17f000000000000000000000000000000000000000000000000000000000000000083610707565b806040516020016103b29190611c40565b6040516020818303038152906040529350505050919050565b6103d3610716565b6040517f56f33501ffd77f9fe44d81e7db7e66a66bdf52ab3e11267cdc6462763604c4c790600090a1565b60006202a30067ffffffffffffffff164201905063389a75e1600c5233600052806020600c2055337fdbf36a107da19e49527a7176a1babf963b4b0ff8cde35ee35d6cd8f1f9ac7e1d600080a250565b606061047a8260405160200161046691815260200190565b6040516020818303038152906040526101f6565b92915050565b63389a75e1600c523360005260006020600c2055337ffa7b8eab7da67f412cc9575ed43464468f9bfbae89d1675917346ca6d8fe3c92600080a2565b6104c4610716565b6104ce600061074c565b565b6104d8610716565b63389a75e1600c52806000526020600c20805442111561050057636f5e88186000526004601cfd5b6000905561050d8161074c565b50565b610518610716565b8060601b61052e57637448fbae6000526004601cfd5b61050d8161074c565b6000806105d6846040518060400160405280600781526020017f4143434f554e54000000000000000000000000000000000000000000000000008152506105a1877f6caa0553213b46b61cbf982ee3246d8a2a4e5b4936a7594770d391463046f22e60001c6107b2565b6040805173ffffffffffffffffffffffffffffffffffffffff89166020820152016040516020818303038152906040526107c5565b905060008151116105e8576000610604565b806000815181106105fb576105fb611c53565b60200260200101515b949350505050565b6000610619858585610904565b9050610667818361064a887fb25ea67b55901db62e4b14311a8c1ab178fec3948b4b493a711970a50aa2a2e1610b3d565b73ffffffffffffffffffffffffffffffffffffffff169190610c81565b505050505050565b60606106b4868685856040518060400160405280600c81526020017f47414348415f434f4d4d4954000000000000000000000000000000000000000081525089610d29565b9695505050505050565b610701838360006040518060400160405280600c81526020017f4b414d493732315f4d494e54000000000000000000000000000000000000000081525085610f22565b50505050565b610712828242610f3c565b5050565b7fffffffffffffffffffffffffffffffffffffffffffffffffffffffff748739275433146104ce576382b429006000526004601cfd5b7fffffffffffffffffffffffffffffffffffffffffffffffffffffffff74873927805473ffffffffffffffffffffffffffffffffffffffff9092169182907f8be0079c531659141344cd1fd0a4f28419497f9722a3daafe3b4186f6b6457e0600080a355565b60006107be8383610b3d565b9392505050565b604080516002808252606082810190935260009190816020015b604080516060808201835260008083526020830152918101919091528152602001906001900390816107df57905050604080516060810190915290915080600281526020018573ffffffffffffffffffffffffffffffffffffffff168152602001848152508160008151811061085757610857611c53565b60209081029190910101526040805160608101909152806002815260200161089f887f5d88ced8d8e079072bf73f49fc87661b519c50d79482941abb852ba2b10909cd6107b2565b73ffffffffffffffffffffffffffffffffffffffff168152602001866040516020016108cb9190611b8a565b604051602081830303815290604052815250816001815181106108f0576108f0611c53565b60200260200101819052506106b481610ff4565b604080517f696e76656e746f72792e696e7374616e63650000000000000000000000000000602080830191909152603282018590527fffffffff0000000000000000000000000000000000000000000000000000000060e085901b166052830152825180830360360181526056909201909252805191012060006109be85836040518060400160405280600981526020017f494e56454e544f525900000000000000000000000000000000000000000000008152506111a0565b905080610b35576109ef857fd3da495fedd385ac62763d969054ffb19f1777e687374cceb91f1237ddd6bfb3610b3d565b6040517fd923c3c40000000000000000000000000000000000000000000000000000000081526004810184905263ffffffff8516602482015273ffffffffffffffffffffffffffffffffffffffff919091169063d923c3c490604401600060405180830381600087803b158015610a6557600080fd5b505af1158015610a79573d6000803e3d6000fd5b50505050610aaa857f1ee9964c9c16bbb74f9e401f1ab450f99b2343a602036525f23f0da350bc74d060001c610b3d565b6040517f1ab06ee5000000000000000000000000000000000000000000000000000000008152600481018490526024810186905273ffffffffffffffffffffffffffffffffffffffff9190911690631ab06ee5906044015b600060405180830381600087803b158015610b1c57600080fd5b505af1158015610b30573d6000803e3d6000fd5b505050505b509392505050565b6040517ffbdfa1ea00000000000000000000000000000000000000000000000000000000815260048101829052600090819073ffffffffffffffffffffffffffffffffffffffff85169063fbdfa1ea90602401600060405180830381865afa158015610bad573d6000803e3d6000fd5b505050506040513d6000823e601f3d9081017fffffffffffffffffffffffffffffffffffffffffffffffffffffffffffffffe0168201604052610bf39190810190611cd5565b90508051600003610c60576040517f08c379a000000000000000000000000000000000000000000000000000000000815260206004820152601160248201527f6964206e6f74207265676973746572656400000000000000000000000000000060448201526064016102a4565b61060481600081518110610c7657610c76611c53565b602002602001015190565b600081610c8e8585611261565b610c989190611d95565b6040517f1ab06ee5000000000000000000000000000000000000000000000000000000008152600481018590526024810182905290915073ffffffffffffffffffffffffffffffffffffffff851690631ab06ee590604401600060405180830381600087803b158015610d0a57600080fd5b505af1158015610d1e573d6000803e3d6000fd5b505050509392505050565b60608167ffffffffffffffff811115610d4457610d446119d8565b604051908082528060200260200182016040528015610d6d578160200160208202803683370190505b50905060008773ffffffffffffffffffffffffffffffffffffffff1663614bfa6e6040518163ffffffff1660e01b81526004016020604051808303816000875af1158015610dbf573d6000803e3d6000fd5b505050506040513d601f19601f82011682018060405250810190610de39190611bec565b905060005b83811015610e4f5760408051602081018490529081018290526060016040516020818303038152906040528051906020012060001c915081838281518110610e3257610e32611c53565b602090810291909101015280610e4781611da8565b915050610de8565b50610e9c8286610e7f8a7feb96d6a560bda13fa9b1f5e6458550803932abff9fe730fa1f8c3a6ddcb67e6b6107b2565b73ffffffffffffffffffffffffffffffffffffffff169190611340565b610ecb8287610e7f8a7f5bc28889d745caef68975e56a733199d93efb3f5ae8e4606262ab97c83f726486107b2565b610f178285610efa8a7f024accd0d273ef6123273b21662f5cc055a7d58adf98cc1b060edd029af93f7f6107b2565b73ffffffffffffffffffffffffffffffffffffffff169190611476565b509695505050505050565b6000610f2f858585611524565b9050610667868284611579565b610f66837f342adee7430e96bca6f5d4fe57ba5155dc7271000494e77110c292d51ae887fa610b3d565b6040517f1ab06ee5000000000000000000000000000000000000000000000000000000008152600481018490526024810183905273ffffffffffffffffffffffffffffffffffffffff9190911690631ab06ee590604401600060405180830381600087803b158015610fd757600080fd5b505af1158015610feb573d6000803e3d6000fd5b50505050505050565b606081516000036110185760408051600080825260208201909252905b5092915050565b60028260008151811061102d5761102d611c53565b602002602001015160000151600381111561104a5761104a611c82565b14611081576040517feec45f3600000000000000000000000000000000000000000000000000000000815260040160405180910390fd5b60008260008151811061109657611096611c53565b60200260200101516020015173ffffffffffffffffffffffffffffffffffffffff1663b361be46846000815181106110d0576110d0611c53565b6020026020010151604001516040518263ffffffff1660e01b81526004016110f89190611b8a565b600060405180830381865afa158015611115573d6000803e3d6000fd5b505050506040513d6000823e601f3d9081017fffffffffffffffffffffffffffffffffffffffffffffffffffffffffffffffe016820160405261115b9190810190611cd5565b905060015b83518110156110115761118c84828151811061117e5761117e611c53565b6020026020010151836115c5565b91508061119881611da8565b915050611160565b6000806111cd857f5d88ced8d8e079072bf73f49fc87661b519c50d79482941abb852ba2b10909cd610b3d565b9050611206836111f373ffffffffffffffffffffffffffffffffffffffff8416876116f9565b8151602092830120815191909201201490565b915081610b35576040517f6437197700000000000000000000000000000000000000000000000000000000815273ffffffffffffffffffffffffffffffffffffffff821690636437197790610b029087908790600401611de0565b6040517fdd98e3c900000000000000000000000000000000000000000000000000000000815260048101829052600090819073ffffffffffffffffffffffffffffffffffffffff85169063dd98e3c990602401600060405180830381865afa1580156112d1573d6000803e3d6000fd5b505050506040513d6000823e601f3d9081017fffffffffffffffffffffffffffffffffffffffffffffffffffffffffffffffe01682016040526113179190810190611e49565b9050805160000361132c57600091505061047a565b808060200190518101906106049190611bec565b6000825167ffffffffffffffff81111561135c5761135c6119d8565b60405190808252806020026020018201604052801561138f57816020015b606081526020019060019003908161137a5790505b50905060005b83518110156113e9576040805160208101859052016040516020818303038152906040528282815181106113cb576113cb611c53565b602002602001018190525080806113e190611da8565b915050611395565b506040517f13ca8b6a00000000000000000000000000000000000000000000000000000000815273ffffffffffffffffffffffffffffffffffffffff8516906313ca8b6a9061143e9086908590600401611e7e565b600060405180830381600087803b15801561145857600080fd5b505af115801561146c573d6000803e3d6000fd5b5050505050505050565b6000825167ffffffffffffffff811115611492576114926119d8565b6040519080825280602002602001820160405280156114c557816020015b60608152602001906001900390816114b05790505b50905060005b83518110156113e957826040516020016114e59190611b8a565b60405160208183030381529060405282828151811061150657611506611c53565b6020026020010181905250808061151c90611da8565b9150506114cb565b600083838360405160200161153b93929190611f0e565b604080517fffffffffffffffffffffffffffffffffffffffffffffffffffffffffffffffe08184030181529190528051602090910120949350505050565b61070182826115a8867fb25ea67b55901db62e4b14311a8c1ab178fec3948b4b493a711970a50aa2a2e1610b3d565b73ffffffffffffffffffffffffffffffffffffffff1691906117e5565b60606000836020015173ffffffffffffffffffffffffffffffffffffffff16634323c4ef846040518263ffffffff1660e01b81526004016116069190611c40565b600060405180830381865afa158015611623573d6000803e3d6000fd5b505050506040513d6000823e601f3d9081017fffffffffffffffffffffffffffffffffffffffffffffffffffffffffffffffe01682016040526116699190810190611f86565b90506000805b82518110156116e55761169b8684838151811061168e5761168e611c53565b60200260200101516117fc565b156116b257816116aa81611da8565b9250506116d3565b60008582815181106116c6576116c6611c53565b6020026020010181815250505b806116dd81611da8565b91505061166f565b506116f084826118e3565b95945050505050565b6040517fdd98e3c90000000000000000000000000000000000000000000000000000000081526004810182905260609060009073ffffffffffffffffffffffffffffffffffffffff85169063dd98e3c990602401600060405180830381865afa15801561176a573d6000803e3d6000fd5b505050506040513d6000823e601f3d9081017fffffffffffffffffffffffffffffffffffffffffffffffffffffffffffffffe01682016040526117b09190810190611e49565b905080516000036117d157505060408051602081019091526000815261047a565b808060200190518101906106049190612037565b6000816117f28585611261565b610c989190612080565b6000808351600381111561181257611812611c82565b0361182157508051151561047a565b60028351600381111561183657611836611c82565b0361185757818051906020012083604001518051906020012014905061047a565b60018351600381111561186c5761186c611c82565b0361187a575080511561047a565b60038351600381111561188f5761188f611c82565b036118b15781805190602001208360400151805190602001201415905061047a565b6040517feec45f3600000000000000000000000000000000000000000000000000000000815260040160405180910390fd5b606081600003611902575060408051600081526020810190915261047a565b60008267ffffffffffffffff81111561191d5761191d6119d8565b604051908082528060200260200182016040528015611946578160200160208202803683370190505b5090506000805b85518110156119ce5785818151811061196857611968611c53565b60200260200101516000146119bc5785818151811061198957611989611c53565b602002602001015183838061199d90611da8565b9450815181106119af576119af611c53565b6020026020010181815250505b806119c681611da8565b91505061194d565b5090949350505050565b7f4e487b7100000000000000000000000000000000000000000000000000000000600052604160045260246000fd5b604051601f82017fffffffffffffffffffffffffffffffffffffffffffffffffffffffffffffffe016810167ffffffffffffffff81118282101715611a4e57611a4e6119d8565b604052919050565b600067ffffffffffffffff821115611a7057611a706119d8565b50601f017fffffffffffffffffffffffffffffffffffffffffffffffffffffffffffffffe01660200190565b600060208284031215611aae57600080fd5b813567ffffffffffffffff811115611ac557600080fd5b8201601f81018413611ad657600080fd5b8035611ae9611ae482611a56565b611a07565b818152856020838501011115611afe57600080fd5b81602084016020830137600091810160200191909152949350505050565b60005b83811015611b37578181015183820152602001611b1f565b50506000910152565b60008151808452611b58816020860160208601611b1c565b601f017fffffffffffffffffffffffffffffffffffffffffffffffffffffffffffffffe0169290920160200192915050565b6020815260006107be6020830184611b40565b600060208284031215611baf57600080fd5b5035919050565b600060208284031215611bc857600080fd5b813573ffffffffffffffffffffffffffffffffffffffff811681146107be57600080fd5b600060208284031215611bfe57600080fd5b5051919050565b600081518084526020808501945080840160005b83811015611c3557815187529582019590820190600101611c19565b509495945050505050565b6020815260006107be6020830184611c05565b7f4e487b7100000000000000000000000000000000000000000000000000000000600052603260045260246000fd5b7f4e487b7100000000000000000000000000000000000000000000000000000000600052602160045260246000fd5b600067ffffffffffffffff821115611ccb57611ccb6119d8565b5060051b60200190565b60006020808385031215611ce857600080fd5b825167ffffffffffffffff811115611cff57600080fd5b8301601f81018513611d1057600080fd5b8051611d1e611ae482611cb1565b81815260059190911b82018301908381019087831115611d3d57600080fd5b928401925b82841015611d5b57835182529284019290840190611d42565b979650505050505050565b7f4e487b7100000000000000000000000000000000000000000000000000000000600052601160045260246000fd5b8181038181111561047a5761047a611d66565b60007fffffffffffffffffffffffffffffffffffffffffffffffffffffffffffffffff8203611dd957611dd9611d66565b5060010190565b8281526040602082015260006106046040830184611b40565b6000611e07611ae484611a56565b9050828152838383011115611e1b57600080fd5b6107be836020830184611b1c565b600082601f830112611e3a57600080fd5b6107be83835160208501611df9565b600060208284031215611e5b57600080fd5b815167ffffffffffffffff811115611e7257600080fd5b61060484828501611e29565b604081526000611e916040830185611c05565b6020838203818501528185518084528284019150828160051b85010183880160005b83811015611eff577fffffffffffffffffffffffffffffffffffffffffffffffffffffffffffffffe0878403018552611eed838351611b40565b94860194925090850190600101611eb3565b50909998505050505050505050565b7f69732e646174610000000000000000000000000000000000000000000000000081528360078201527fffffffff000000000000000000000000000000000000000000000000000000008360e01b16602782015260008251611f7781602b850160208701611b1c565b91909101602b01949350505050565b60006020808385031215611f9957600080fd5b825167ffffffffffffffff80821115611fb157600080fd5b818501915085601f830112611fc557600080fd5b8151611fd3611ae482611cb1565b81815260059190911b83018401908481019088831115611ff257600080fd5b8585015b8381101561202a5780518581111561200e5760008081fd5b61201c8b89838a0101611e29565b845250918601918601611ff6565b5098975050505050505050565b60006020828403121561204957600080fd5b815167ffffffffffffffff81111561206057600080fd5b8201601f8101841361207157600080fd5b61060484825160208401611df9565b8082018082111561047a5761047a611d6656fea2646970667358221220cb7918d1c2c0adcd000ea525ca28fc0ac7c6bb904df7af7177d6ac8fee2626ab64736f6c63430008110033","linkReferences":{}},"methodIdentifiers":{"cancelOwnershipHandover()":"54d1f13d","completeOwnershipHandover(address)":"f04e283e","deprecate()":"0fcc0c28","execute(bytes)":"09c5eabe","executeTyped(uint256)":"3e991df3","owner()":"8da5cb5b","ownershipHandoverExpiresAt(address)":"fee81cf4","renounceOwnership()":"715018a6","requestOwnershipHandover()":"25692962","transferOwnership(address)":"f2fde38b"},"id":272}