{"abi":[{"type":"constructor","inputs":[{"name":"_world","type":"address","internalType":"contract IWorld"},{"name":"_components","type":"address","internalType":"address"}],"stateMutability":"nonpayable"},{"type":"function","name":"cancelOwnershipHandover","inputs":[],"outputs":[],"stateMutability":"payable"},{"type":"function","name":"completeOwnershipHandover","inputs":[{"name":"pendingOwner","type":"address","internalType":"address"}],"outputs":[],"stateMutability":"payable"},{"type":"function","name":"deprecate","inputs":[],"outputs":[],"stateMutability":"nonpayable"},{"type":"function","name":"execute","inputs":[{"name":"arguments","type":"bytes","internalType":"bytes"}],"outputs":[{"name":"","type":"bytes","internalType":"bytes"}],"stateMutability":"nonpayable"},{"type":"function","name":"owner","inputs":[],"outputs":[{"name":"result","type":"address","internalType":"address"}],"stateMutability":"view"},{"type":"function","name":"ownershipHandoverExpiresAt","inputs":[{"name":"pendingOwner","type":"address","internalType":"address"}],"outputs":[{"name":"result","type":"uint256","internalType":"uint256"}],"stateMutability":"view"},{"type":"function","name":"renounceOwnership","inputs":[],"outputs":[],"stateMutability":"payable"},{"type":"function","name":"requestOwnershipHandover","inputs":[],"outputs":[],"stateMutability":"payable"},{"type":"function","name":"reroll","inputs":[{"name":"kamiIDs","type":"uint256[]","internalType":"uint256[]"}],"outputs":[{"name":"","type":"uint256[]","internalType":"uint256[]"}],"stateMutability":"payable"},{"type":"function","name":"transferOwnership","inputs":[{"name":"newOwner","type":"address","internalType":"address"}],"outputs":[],"stateMutability":"payable"},{"type":"event","name":"OwnershipHandoverCanceled","inputs":[{"name":"pendingOwner","type":"address","indexed":true,"internalType":"address"}],"anonymous":false},{"type":"event","name":"OwnershipHandoverRequested","inputs":[{"name":"pendingOwner","type":"address","indexed":true,"internalType":"address"}],"anonymous":false},{"type":"event","name":"OwnershipTransferred","inputs":[{"name":"oldOwner","type":"address","indexed":true,"internalType":"address"},{"name":"newOwner","type":"address","indexed":true,"internalType":"address"}],"anonymous":false},{"type":"event","name":"SystemDeprecated","inputs":[],"anonymous":false},{"type":"error","name":"AlreadyInitialized","inputs":[]},{"type":"error","name":"NewOwnerIsZeroAddress","inputs":[]},{"type":"error","name":"NoHandoverRequest","inputs":[]},{"type":"error","name":"QueryOrderNotSupported","inputs":[]},{"type":"error","name":"Unauthorized","inputs":[]}],"bytecode":{"object":"0x60c06040523480156200001157600080fd5b5060405162002c1c38038062002c1c83398101604081905262000034916200012f565b81816200004133620000dc565b6001600160a01b03811615620000585780620000bd565b816001600160a01b031663ba62fbe46040518163ffffffff1660e01b8152600401602060405180830381865afa15801562000097573d6000803e3d6000fd5b505050506040513d601f19601f82011682018060405250810190620000bd91906200016e565b6001600160a01b039081166080529190911660a0525062000195915050565b6001600160a01b0316638b78c6d8198190558060007f8be0079c531659141344cd1fd0a4f28419497f9722a3daafe3b4186f6b6457e08180a35b50565b6001600160a01b03811681146200011657600080fd5b600080604083850312156200014357600080fd5b8251620001508162000119565b6020840151909250620001638162000119565b809150509250929050565b6000602082840312156200018157600080fd5b81516200018e8162000119565b9392505050565b60805160a051612a1b620002016000396000818161057f01526105fa01526000818161033c015281816103d2015281816103fd0152818161048f015281816104bd01528181610553015281816105a0015281816105cf0152818161061b01526106470152612a1b6000f3fe6080604052600436106100b15760003560e01c80638da5cb5b11610069578063f04e283e1161004e578063f04e283e1461018f578063f2fde38b146101a2578063fee81cf4146101b557600080fd5b80638da5cb5b1461011b578063c32ffe1b1461016f57600080fd5b8063256929621161009a578063256929621461010357806354d1f13d1461010b578063715018a61461011357600080fd5b806309c5eabe146100b65780630fcc0c28146100ec575b600080fd5b3480156100c257600080fd5b506100d66100d136600461232c565b6101f6565b6040516100e3919061241a565b60405180910390f35b3480156100f857600080fd5b50610101610260565b005b610101610293565b6101016102e3565b61010161031f565b34801561012757600080fd5b507fffffffffffffffffffffffffffffffffffffffffffffffffffffffff748739275460405173ffffffffffffffffffffffffffffffffffffffff90911681526020016100e3565b61018261017d366004612451565b610333565b6040516100e3919061251d565b61010161019d366004612530565b6106db565b6101016101b0366004612530565b61071b565b3480156101c157600080fd5b506101e86101d0366004612530565b63389a75e1600c908152600091909152602090205490565b6040519081526020016100e3565b6040517f08c379a000000000000000000000000000000000000000000000000000000000815260206004820152600f60248201527f6e6f7420696d706c656d656e746564000000000000000000000000000000000060448201526060906064015b60405180910390fd5b610268610742565b6040517f56f33501ffd77f9fe44d81e7db7e66a66bdf52ab3e11267cdc6462763604c4c790600090a1565b60006202a30067ffffffffffffffff164201905063389a75e1600c5233600052806020600c2055337fdbf36a107da19e49527a7176a1babf963b4b0ff8cde35ee35d6cd8f1f9ac7e1d600080a250565b63389a75e1600c523360005260006020600c2055337ffa7b8eab7da67f412cc9575ed43464468f9bfbae89d1675917346ca6d8fe3c92600080a2565b610327610742565b6103316000610778565b565b606060006103617f0000000000000000000000000000000000000000000000000000000000000000336107de565b9050806000036103cd576040517f08c379a000000000000000000000000000000000000000000000000000000000815260206004820152601360248201527f6e6f206163636f756e74206465746563746564000000000000000000000000006044820152606401610257565b6103f87f000000000000000000000000000000000000000000000000000000000000000084836108b5565b6104227f00000000000000000000000000000000000000000000000000000000000000008461096c565b610488576040517f08c379a000000000000000000000000000000000000000000000000000000000815260206004820152600b60248201527f6e6f742072657374696e670000000000000000000000000000000000000000006044820152606401610257565b60006104b47f0000000000000000000000000000000000000000000000000000000000000000856109f9565b905060006104e27f000000000000000000000000000000000000000000000000000000000000000083610a45565b90508034101561054e576040517f08c379a000000000000000000000000000000000000000000000000000000000815260206004820152600e60248201527f6e6f7420656e6f756768204554480000000000000000000000000000000000006044820152606401610257565b6105787f000000000000000000000000000000000000000000000000000000000000000086610ab7565b60006105c87f00000000000000000000000000000000000000000000000000000000000000007f000000000000000000000000000000000000000000000000000000000000000088518743610c71565b90506105f57f00000000000000000000000000000000000000000000000000000000000000008285610cc0565b6106427f00000000000000000000000000000000000000000000000000000000000000007f0000000000000000000000000000000000000000000000000000000000000000868951610d5b565b61066c7f000000000000000000000000000000000000000000000000000000000000000085610da4565b7fffffffffffffffffffffffffffffffffffffffffffffffffffffffff748739275460405173ffffffffffffffffffffffffffffffffffffffff909116904780156108fc02916000818181858888f193505050501580156106d1573d6000803e3d6000fd5b5095945050505050565b6106e3610742565b63389a75e1600c52806000526020600c20805442111561070b57636f5e88186000526004601cfd5b6000905561071881610778565b50565b610723610742565b8060601b61073957637448fbae6000526004601cfd5b61071881610778565b7fffffffffffffffffffffffffffffffffffffffffffffffffffffffff74873927543314610331576382b429006000526004601cfd5b7fffffffffffffffffffffffffffffffffffffffffffffffffffffffff74873927805473ffffffffffffffffffffffffffffffffffffffff9092169182907f8be0079c531659141344cd1fd0a4f28419497f9722a3daafe3b4186f6b6457e0600080a355565b60008061087d846040518060400160405280600781526020017f4143434f554e5400000000000000000000000000000000000000000000000000815250610848877f6caa0553213b46b61cbf982ee3246d8a2a4e5b4936a7594770d391463046f22e60001c610db3565b6040805173ffffffffffffffffffffffffffffffffffffffff8916602082015201604051602081830303815290604052610dbf565b9050600081511161088f5760006108ab565b806000815181106108a2576108a2612566565b60200260200101515b9150505b92915050565b61090182826108e4867fdb1228220c36234210e3f04b6ac039f5d81c4d6d81f43d9b4a9d70c4d5bcfac1610db3565b73ffffffffffffffffffffffffffffffffffffffff169190610efe565b610967576040517f08c379a000000000000000000000000000000000000000000000000000000000815260206004820152600c60248201527f6b616d69206e6f742075727300000000000000000000000000000000000000006044820152606401610257565b505050565b60006109f2826040518060400160405280600781526020017f52455354494e47000000000000000000000000000000000000000000000000008152506109d5867f3630e5d2b4dfc42bb69d52e4eef89343acb69d5153f64efe5860a680a55082e760001c610db3565b73ffffffffffffffffffffffffffffffffffffffff169190610f62565b9392505050565b60606109f282610a29857fd3d6110f8c07a5a54442b3c3ae6c6c55da5e123d17d83305858b216fc0078e83610db3565b73ffffffffffffffffffffffffffffffffffffffff1690610fca565b600080610a5184611147565b90506000805b8451811015610aae57848181518110610a7257610a72612566565b60200260200101516001610a8691906125c4565b610a9090846125d7565b610a9a90836125c4565b915080610aa6816125ee565b915050610a57565b50949350505050565b6000610ae3837fdb1228220c36234210e3f04b6ac039f5d81c4d6d81f43d9b4a9d70c4d5bcfac1611188565b90506000610b11847fd3d6110f8c07a5a54442b3c3ae6c6c55da5e123d17d83305858b216fc0078e83611188565b905060005b8351811015610c6a578273ffffffffffffffffffffffffffffffffffffffff16631ab06ee5858381518110610b4d57610b4d612566565b60200260200101517f18ac393894b04bf0dc7b9ae83e6c1c711470d561c5c6854886ce180de65e1c1c60001c6040518363ffffffff1660e01b8152600401610b9f929190918252602082015260400190565b600060405180830381600087803b158015610bb957600080fd5b505af1158015610bcd573d6000803e3d6000fd5b505050508173ffffffffffffffffffffffffffffffffffffffff16634cc82215858381518110610bff57610bff612566565b60200260200101516040518263ffffffff1660e01b8152600401610c2591815260200190565b600060405180830381600087803b158015610c3f57600080fd5b505af1158015610c53573d6000803e3d6000fd5b505050508080610c62906125ee565b915050610b16565b5050505050565b6060610cb6868685856040518060400160405280600c81526020017f47414348415f434f4d4d49540000000000000000000000000000000000000000815250896112cc565b9695505050505050565b610cea837fd3d6110f8c07a5a54442b3c3ae6c6c55da5e123d17d83305858b216fc0078e83611188565b73ffffffffffffffffffffffffffffffffffffffff16631820645383836040518363ffffffff1660e01b8152600401610d24929190612626565b600060405180830381600087803b158015610d3e57600080fd5b505af1158015610d52573d6000803e3d6000fd5b50505050505050565b610d9e838360006040518060400160405280600b81526020017f4b414d495f5245524f4c4c000000000000000000000000000000000000000000815250856114c5565b50505050565b610daf8282426114e7565b5050565b60006109f28383611188565b604080516002808252606082810190935260009190816020015b60408051606080820183526000808352602083015291810191909152815260200190600190039081610dd957905050604080516060810190915290915080600281526020018573ffffffffffffffffffffffffffffffffffffffff1681526020018481525081600081518110610e5157610e51612566565b602090810291909101015260408051606081019091528060028152602001610e99887f5d88ced8d8e079072bf73f49fc87661b519c50d79482941abb852ba2b10909cd610db3565b73ffffffffffffffffffffffffffffffffffffffff16815260200186604051602001610ec5919061241a565b60405160208183030381529060405281525081600181518110610eea57610eea612566565b6020026020010181905250610cb68161156d565b600080610f0b8585611719565b905060005b8451811015610f565783828281518110610f2c57610f2c612566565b602002602001015114610f44576000925050506109f2565b80610f4e816125ee565b915050610f10565b50600195945050505050565b600080610f6f8585611894565b905060005b8451811015610f5657610fa984838381518110610f9357610f93612566565b6020026020010151611a2890919063ffffffff16565b610fb8576000925050506109f2565b80610fc2816125ee565b915050610f74565b606060008373ffffffffffffffffffffffffffffffffffffffff166312b11155846040518263ffffffff1660e01b8152600401611007919061251d565b6000604051808303816000875af1158015611026573d6000803e3d6000fd5b505050506040513d6000823e601f3d9081017fffffffffffffffffffffffffffffffffffffffffffffffffffffffffffffffe016820160405261106c91908101906126ca565b90506000815167ffffffffffffffff81111561108a5761108a612268565b6040519080825280602002602001820160405280156110b3578160200160208202803683370190505b50905060005b8251811015610aae5760008382815181106110d6576110d6612566565b602002602001015151116110eb576000611118565b8281815181106110fd576110fd612566565b6020026020010151806020019051810190611118919061277b565b82828151811061112a5761112a612566565b60209081029190910101528061113f816125ee565b9150506110b9565b60006108af826040518060400160405280601281526020017f47414348415f5245524f4c4c5f50524943450000000000000000000000000000815250611a3e565b6040517ffbdfa1ea00000000000000000000000000000000000000000000000000000000815260048101829052600090819073ffffffffffffffffffffffffffffffffffffffff85169063fbdfa1ea90602401600060405180830381865afa1580156111f8573d6000803e3d6000fd5b505050506040513d6000823e601f3d9081017fffffffffffffffffffffffffffffffffffffffffffffffffffffffffffffffe016820160405261123e9190810190612794565b905080516000036112ab576040517f08c379a000000000000000000000000000000000000000000000000000000000815260206004820152601160248201527f6964206e6f7420726567697374657265640000000000000000000000000000006044820152606401610257565b6108ab816000815181106112c1576112c1612566565b602002602001015190565b60608167ffffffffffffffff8111156112e7576112e7612268565b604051908082528060200260200182016040528015611310578160200160208202803683370190505b50905060008773ffffffffffffffffffffffffffffffffffffffff1663614bfa6e6040518163ffffffff1660e01b81526004016020604051808303816000875af1158015611362573d6000803e3d6000fd5b505050506040513d601f19601f82011682018060405250810190611386919061277b565b905060005b838110156113f25760408051602081018490529081018290526060016040516020818303038152906040528051906020012060001c9150818382815181106113d5576113d5612566565b6020908102919091010152806113ea816125ee565b91505061138b565b5061143f82866114228a7feb96d6a560bda13fa9b1f5e6458550803932abff9fe730fa1f8c3a6ddcb67e6b610db3565b73ffffffffffffffffffffffffffffffffffffffff169190611a56565b61146e82876114228a7f5bc28889d745caef68975e56a733199d93efb3f5ae8e4606262ab97c83f72648610db3565b6114ba828561149d8a7f024accd0d273ef6123273b21662f5cc055a7d58adf98cc1b060edd029af93f7f610db3565b73ffffffffffffffffffffffffffffffffffffffff169190611b8c565b509695505050505050565b60006114d2858585611c3a565b90506114df868284611c8f565b505050505050565b611511837f342adee7430e96bca6f5d4fe57ba5155dc7271000494e77110c292d51ae887fa611188565b6040517f1ab06ee5000000000000000000000000000000000000000000000000000000008152600481018490526024810183905273ffffffffffffffffffffffffffffffffffffffff9190911690631ab06ee590604401610d24565b606081516000036115915760408051600080825260208201909252905b5092915050565b6002826000815181106115a6576115a6612566565b60200260200101516000015160038111156115c3576115c361264b565b146115fa576040517feec45f3600000000000000000000000000000000000000000000000000000000815260040160405180910390fd5b60008260008151811061160f5761160f612566565b60200260200101516020015173ffffffffffffffffffffffffffffffffffffffff1663b361be468460008151811061164957611649612566565b6020026020010151604001516040518263ffffffff1660e01b8152600401611671919061241a565b600060405180830381865afa15801561168e573d6000803e3d6000fd5b505050506040513d6000823e601f3d9081017fffffffffffffffffffffffffffffffffffffffffffffffffffffffffffffffe01682016040526116d49190810190612794565b905060015b835181101561158a576117058482815181106116f7576116f7612566565b602002602001015183611cdb565b915080611711816125ee565b9150506116d9565b606060008373ffffffffffffffffffffffffffffffffffffffff16634323c4ef846040518263ffffffff1660e01b8152600401611756919061251d565b600060405180830381865afa158015611773573d6000803e3d6000fd5b505050506040513d6000823e601f3d9081017fffffffffffffffffffffffffffffffffffffffffffffffffffffffffffffffe01682016040526117b991908101906126ca565b90506000815167ffffffffffffffff8111156117d7576117d7612268565b604051908082528060200260200182016040528015611800578160200160208202803683370190505b50905060005b8251811015610aae57600083828151811061182357611823612566565b60200260200101515111611838576000611865565b82818151811061184a5761184a612566565b6020026020010151806020019051810190611865919061277b565b82828151811061187757611877612566565b60209081029190910101528061188c816125ee565b915050611806565b606060008373ffffffffffffffffffffffffffffffffffffffff16634323c4ef846040518263ffffffff1660e01b81526004016118d1919061251d565b600060405180830381865afa1580156118ee573d6000803e3d6000fd5b505050506040513d6000823e601f3d9081017fffffffffffffffffffffffffffffffffffffffffffffffffffffffffffffffe016820160405261193491908101906126ca565b90506000815167ffffffffffffffff81111561195257611952612268565b60405190808252806020026020018201604052801561198557816020015b60608152602001906001900390816119705790505b50905060005b8251811015610aae5760008382815181106119a8576119a8612566565b602002602001015151116119cb57604051806020016040528060008152506119f8565b8281815181106119dd576119dd612566565b60200260200101518060200190518101906119f8919061281a565b828281518110611a0a57611a0a612566565b60200260200101819052508080611a20906125ee565b91505061198b565b8051602091820120825192909101919091201490565b600080611a4a83611e0f565b90506108ab8482611e5e565b6000825167ffffffffffffffff811115611a7257611a72612268565b604051908082528060200260200182016040528015611aa557816020015b6060815260200190600190039081611a905790505b50905060005b8351811015611aff57604080516020810185905201604051602081830303815290604052828281518110611ae157611ae1612566565b60200260200101819052508080611af7906125ee565b915050611aab565b506040517f13ca8b6a00000000000000000000000000000000000000000000000000000000815273ffffffffffffffffffffffffffffffffffffffff8516906313ca8b6a90611b549086908590600401612863565b600060405180830381600087803b158015611b6e57600080fd5b505af1158015611b82573d6000803e3d6000fd5b5050505050505050565b6000825167ffffffffffffffff811115611ba857611ba8612268565b604051908082528060200260200182016040528015611bdb57816020015b6060815260200190600190039081611bc65790505b50905060005b8351811015611aff5782604051602001611bfb919061241a565b604051602081830303815290604052828281518110611c1c57611c1c612566565b60200260200101819052508080611c32906125ee565b915050611be1565b6000838383604051602001611c51939291906128f3565b604080517fffffffffffffffffffffffffffffffffffffffffffffffffffffffffffffffe08184030181529190528051602090910120949350505050565b610d9e8282611cbe867fb25ea67b55901db62e4b14311a8c1ab178fec3948b4b493a711970a50aa2a2e1611188565b73ffffffffffffffffffffffffffffffffffffffff169190611f05565b60606000836020015173ffffffffffffffffffffffffffffffffffffffff16634323c4ef846040518263ffffffff1660e01b8152600401611d1c919061251d565b600060405180830381865afa158015611d39573d6000803e3d6000fd5b505050506040513d6000823e601f3d9081017fffffffffffffffffffffffffffffffffffffffffffffffffffffffffffffffe0168201604052611d7f91908101906126ca565b90506000805b8251811015611dfb57611db186848381518110611da457611da4612566565b6020026020010151611fad565b15611dc85781611dc0816125ee565b925050611de9565b6000858281518110611ddc57611ddc612566565b6020026020010181815250505b80611df3816125ee565b915050611d85565b50611e068482612094565b95945050505050565b600081604051602001611e22919061296b565b604080517fffffffffffffffffffffffffffffffffffffffffffffffffffffffffffffffe0818403018152919052805160209091012092915050565b6000611e8a837fb25ea67b55901db62e4b14311a8c1ab178fec3948b4b493a711970a50aa2a2e1611188565b73ffffffffffffffffffffffffffffffffffffffff16639507d39a836040518263ffffffff1660e01b8152600401611ec491815260200190565b602060405180830381865afa158015611ee1573d6000803e3d6000fd5b505050506040513d601f19601f820116820180604052508101906109f2919061277b565b600081611f128585612189565b611f1c91906125c4565b6040517f1ab06ee5000000000000000000000000000000000000000000000000000000008152600481018590526024810182905290915073ffffffffffffffffffffffffffffffffffffffff851690631ab06ee590604401600060405180830381600087803b158015611f8e57600080fd5b505af1158015611fa2573d6000803e3d6000fd5b505050509392505050565b60008083516003811115611fc357611fc361264b565b03611fd25750805115156108af565b600283516003811115611fe757611fe761264b565b036120085781805190602001208360400151805190602001201490506108af565b60018351600381111561201d5761201d61264b565b0361202b57508051156108af565b6003835160038111156120405761204061264b565b03612062578180519060200120836040015180519060200120141590506108af565b6040517feec45f3600000000000000000000000000000000000000000000000000000000815260040160405180910390fd5b6060816000036120b357506040805160008152602081019091526108af565b60008267ffffffffffffffff8111156120ce576120ce612268565b6040519080825280602002602001820160405280156120f7578160200160208202803683370190505b5090506000805b855181101561217f5785818151811061211957612119612566565b602002602001015160001461216d5785818151811061213a5761213a612566565b602002602001015183838061214e906125ee565b94508151811061216057612160612566565b6020026020010181815250505b80612177816125ee565b9150506120fe565b5090949350505050565b6040517fdd98e3c900000000000000000000000000000000000000000000000000000000815260048101829052600090819073ffffffffffffffffffffffffffffffffffffffff85169063dd98e3c990602401600060405180830381865afa1580156121f9573d6000803e3d6000fd5b505050506040513d6000823e601f3d9081017fffffffffffffffffffffffffffffffffffffffffffffffffffffffffffffffe016820160405261223f91908101906129b0565b905080516000036122545760009150506108af565b808060200190518101906108ab919061277b565b7f4e487b7100000000000000000000000000000000000000000000000000000000600052604160045260246000fd5b604051601f82017fffffffffffffffffffffffffffffffffffffffffffffffffffffffffffffffe016810167ffffffffffffffff811182821017156122de576122de612268565b604052919050565b600067ffffffffffffffff82111561230057612300612268565b50601f017fffffffffffffffffffffffffffffffffffffffffffffffffffffffffffffffe01660200190565b60006020828403121561233e57600080fd5b813567ffffffffffffffff81111561235557600080fd5b8201601f8101841361236657600080fd5b8035612379612374826122e6565b612297565b81815285602083850101111561238e57600080fd5b81602084016020830137600091810160200191909152949350505050565b60005b838110156123c75781810151838201526020016123af565b50506000910152565b600081518084526123e88160208601602086016123ac565b601f017fffffffffffffffffffffffffffffffffffffffffffffffffffffffffffffffe0169290920160200192915050565b6020815260006109f260208301846123d0565b600067ffffffffffffffff82111561244757612447612268565b5060051b60200190565b6000602080838503121561246457600080fd5b823567ffffffffffffffff81111561247b57600080fd5b8301601f8101851361248c57600080fd5b803561249a6123748261242d565b81815260059190911b820183019083810190878311156124b957600080fd5b928401925b828410156124d7578335825292840192908401906124be565b979650505050505050565b600081518084526020808501945080840160005b83811015612512578151875295820195908201906001016124f6565b509495945050505050565b6020815260006109f260208301846124e2565b60006020828403121561254257600080fd5b813573ffffffffffffffffffffffffffffffffffffffff811681146109f257600080fd5b7f4e487b7100000000000000000000000000000000000000000000000000000000600052603260045260246000fd5b7f4e487b7100000000000000000000000000000000000000000000000000000000600052601160045260246000fd5b808201808211156108af576108af612595565b80820281158282048414176108af576108af612595565b60007fffffffffffffffffffffffffffffffffffffffffffffffffffffffffffffffff820361261f5761261f612595565b5060010190565b60408152600061263960408301856124e2565b8281036020840152611e0681856124e2565b7f4e487b7100000000000000000000000000000000000000000000000000000000600052602160045260246000fd5b6000612688612374846122e6565b905082815283838301111561269c57600080fd5b6109f28360208301846123ac565b600082601f8301126126bb57600080fd5b6109f28383516020850161267a565b600060208083850312156126dd57600080fd5b825167ffffffffffffffff808211156126f557600080fd5b818501915085601f83011261270957600080fd5b81516127176123748261242d565b81815260059190911b8301840190848101908883111561273657600080fd5b8585015b8381101561276e578051858111156127525760008081fd5b6127608b89838a01016126aa565b84525091860191860161273a565b5098975050505050505050565b60006020828403121561278d57600080fd5b5051919050565b600060208083850312156127a757600080fd5b825167ffffffffffffffff8111156127be57600080fd5b8301601f810185136127cf57600080fd5b80516127dd6123748261242d565b81815260059190911b820183019083810190878311156127fc57600080fd5b928401925b828410156124d757835182529284019290840190612801565b60006020828403121561282c57600080fd5b815167ffffffffffffffff81111561284357600080fd5b8201601f8101841361285457600080fd5b6108ab8482516020840161267a565b60408152600061287660408301856124e2565b6020838203818501528185518084528284019150828160051b85010183880160005b838110156128e4577fffffffffffffffffffffffffffffffffffffffffffffffffffffffffffffffe08784030185526128d28383516123d0565b94860194925090850190600101612898565b50909998505050505050505050565b7f69732e646174610000000000000000000000000000000000000000000000000081528360078201527fffffffff000000000000000000000000000000000000000000000000000000008360e01b1660278201526000825161295c81602b8501602087016123ac565b91909101602b01949350505050565b7f69732e636f6e66696700000000000000000000000000000000000000000000008152600082516129a38160098501602087016123ac565b9190910160090192915050565b6000602082840312156129c257600080fd5b815167ffffffffffffffff8111156129d957600080fd5b6108ab848285016126aa56fea2646970667358221220e12190e69e1abcb99ae7311fa58c7e340d253da45e24754057f8c418507ecf8064736f6c63430008110033","linkReferences":{}},"methodIdentifiers":{"cancelOwnershipHandover()":"54d1f13d","completeOwnershipHandover(address)":"f04e283e","deprecate()":"0fcc0c28","execute(bytes)":"09c5eabe","owner()":"8da5cb5b","ownershipHandoverExpiresAt(address)":"fee81cf4","renounceOwnership()":"715018a6","requestOwnershipHandover()":"25692962","reroll(uint256[])":"c32ffe1b","transferOwnership(address)":"f2fde38b"},"id":273}