{"abi":[{"type":"constructor","inputs":[{"name":"_world","type":"address","internalType":"contract IWorld"},{"name":"_components","type":"address","internalType":"address"}],"stateMutability":"nonpayable"},{"type":"function","name":"cancelOwnershipHandover","inputs":[],"outputs":[],"stateMutability":"payable"},{"type":"function","name":"completeOwnershipHandover","inputs":[{"name":"pendingOwner","type":"address","internalType":"address"}],"outputs":[],"stateMutability":"payable"},{"type":"function","name":"deprecate","inputs":[],"outputs":[],"stateMutability":"nonpayable"},{"type":"function","name":"execute","inputs":[{"name":"arguments","type":"bytes","internalType":"bytes"}],"outputs":[{"name":"","type":"bytes","internalType":"bytes"}],"stateMutability":"nonpayable"},{"type":"function","name":"executeTyped","inputs":[{"name":"kamiID","type":"uint256","internalType":"uint256"},{"name":"itemIndex","type":"uint32","internalType":"uint32"}],"outputs":[{"name":"","type":"bytes","internalType":"bytes"}],"stateMutability":"nonpayable"},{"type":"function","name":"owner","inputs":[],"outputs":[{"name":"result","type":"address","internalType":"address"}],"stateMutability":"view"},{"type":"function","name":"ownershipHandoverExpiresAt","inputs":[{"name":"pendingOwner","type":"address","internalType":"address"}],"outputs":[{"name":"result","type":"uint256","internalType":"uint256"}],"stateMutability":"view"},{"type":"function","name":"renounceOwnership","inputs":[],"outputs":[],"stateMutability":"payable"},{"type":"function","name":"requestOwnershipHandover","inputs":[],"outputs":[],"stateMutability":"payable"},{"type":"function","name":"transferOwnership","inputs":[{"name":"newOwner","type":"address","internalType":"address"}],"outputs":[],"stateMutability":"payable"},{"type":"event","name":"OwnershipHandoverCanceled","inputs":[{"name":"pendingOwner","type":"address","indexed":true,"internalType":"address"}],"anonymous":false},{"type":"event","name":"OwnershipHandoverRequested","inputs":[{"name":"pendingOwner","type":"address","indexed":true,"internalType":"address"}],"anonymous":false},{"type":"event","name":"OwnershipTransferred","inputs":[{"name":"oldOwner","type":"address","indexed":true,"internalType":"address"},{"name":"newOwner","type":"address","indexed":true,"internalType":"address"}],"anonymous":false},{"type":"event","name":"SystemDeprecated","inputs":[],"anonymous":false},{"type":"error","name":"AlreadyInitialized","inputs":[]},{"type":"error","name":"NewOwnerIsZeroAddress","inputs":[]},{"type":"error","name":"NoHandoverRequest","inputs":[]},{"type":"error","name":"Unauthorized","inputs":[]}],"bytecode":{"object":"0x60c06040523480156200001157600080fd5b50604051620043f7380380620043f783398101604081905262000034916200012f565b81816200004133620000dc565b6001600160a01b03811615620000585780620000bd565b816001600160a01b031663ba62fbe46040518163ffffffff1660e01b8152600401602060405180830381865afa15801562000097573d6000803e3d6000fd5b505050506040513d601f19601f82011682018060405250810190620000bd91906200016e565b6001600160a01b039081166080529190911660a0525062000195915050565b6001600160a01b0316638b78c6d8198190558060007f8be0079c531659141344cd1fd0a4f28419497f9722a3daafe3b4186f6b6457e08180a35b50565b6001600160a01b03811681146200011657600080fd5b600080604083850312156200014357600080fd5b8251620001508162000119565b6020840151909250620001638162000119565b809150509250929050565b6000602082840312156200018157600080fd5b81516200018e8162000119565b9392505050565b60805160a0516141cf62000228600039600050506000818161021a0152818161024601528181610311015281816103a1015281816103cc015281816103f701528181610488015281816104b801528181610548015281816105720152818161059f015281816105ca015281816105fb0152818161065d015281816106e20152818161070e015261073b01526141cf6000f3fe6080604052600436106100b15760003560e01c80638da5cb5b11610069578063f04e283e1161004e578063f04e283e1461018f578063f2fde38b146101a2578063fee81cf4146101b557600080fd5b80638da5cb5b1461011b578063e60f3a761461016f57600080fd5b8063256929621161009a578063256929621461010357806354d1f13d1461010b578063715018a61461011357600080fd5b806309c5eabe146100b65780630fcc0c28146100ec575b600080fd5b3480156100c257600080fd5b506100d66100d13660046137c3565b6101f6565b6040516100e391906138b1565b60405180910390f35b3480156100f857600080fd5b50610101610778565b005b6101016107ab565b6101016107fb565b610101610837565b34801561012757600080fd5b507fffffffffffffffffffffffffffffffffffffffffffffffffffffffff748739275460405173ffffffffffffffffffffffffffffffffffffffff90911681526020016100e3565b34801561017b57600080fd5b506100d661018a3660046138d6565b61084b565b61010161019d366004613906565b61088f565b6101016101b0366004613906565b6108cf565b3480156101c157600080fd5b506101e86101d0366004613906565b63389a75e1600c908152600091909152602090205490565b6040519081526020016100e3565b60606000808380602001905181019061020f919061393c565b91509150600061023f7f0000000000000000000000000000000000000000000000000000000000000000336108f6565b90506102a17f0000000000000000000000000000000000000000000000000000000000000000836040518060400160405280600481526020017f464f4f4400000000000000000000000000000000000000000000000000000000815250610ab6565b61030c576040517f08c379a000000000000000000000000000000000000000000000000000000000815260206004820152600f60248201527f746861742773206e6f7420666f6f64000000000000000000000000000000000060448201526064015b60405180910390fd5b6103367f000000000000000000000000000000000000000000000000000000000000000083610b61565b61039c576040517f08c379a000000000000000000000000000000000000000000000000000000000815260206004820152601360248201527f746861742773206e6f7420666f722070657473000000000000000000000000006044820152606401610303565b6103c77f00000000000000000000000000000000000000000000000000000000000000008483610b75565b6103f27f00000000000000000000000000000000000000000000000000000000000000008483610c2c565b61041c7f000000000000000000000000000000000000000000000000000000000000000084610de6565b15610483576040517f08c379a000000000000000000000000000000000000000000000000000000000815260206004820152600f60248201527f706574206f6e20636f6f6c646f776e00000000000000000000000000000000006044820152606401610303565b6104ad7f000000000000000000000000000000000000000000000000000000000000000084610df2565b806104dd57506104dd7f000000000000000000000000000000000000000000000000000000000000000084610e5b565b610543576040517f08c379a000000000000000000000000000000000000000000000000000000000815260206004820152601160248201527f706574206d75737420626520616c6976650000000000000000000000000000006044820152606401610303565b61056d7f000000000000000000000000000000000000000000000000000000000000000084610ec4565b61059a7f000000000000000000000000000000000000000000000000000000000000000082846001611095565b6105c57f000000000000000000000000000000000000000000000000000000000000000083856110f8565b6105ef7f000000000000000000000000000000000000000000000000000000000000000084610e5b565b156106dd5760006106207f00000000000000000000000000000000000000000000000000000000000000008561115f565b6040517f850eb35200000000000000000000000000000000000000000000000000000000815273ffffffffffffffffffffffffffffffffffffffff7f00000000000000000000000000000000000000000000000000000000000000001660048201526024810182905290915073__$5960f805d8ade0610b49318b73f60bf5ce$__9063850eb3529060440160006040518083038186803b1580156106c357600080fd5b505af41580156106d7573d6000803e3d6000fd5b50505050505b6107097f000000000000000000000000000000000000000000000000000000000000000082600161116b565b6107367f0000000000000000000000000000000000000000000000000000000000000000828460016111ef565b6107607f000000000000000000000000000000000000000000000000000000000000000082611237565b50506040805160208101909152600081529392505050565b610780611246565b6040517f56f33501ffd77f9fe44d81e7db7e66a66bdf52ab3e11267cdc6462763604c4c790600090a1565b60006202a30067ffffffffffffffff164201905063389a75e1600c5233600052806020600c2055337fdbf36a107da19e49527a7176a1babf963b4b0ff8cde35ee35d6cd8f1f9ac7e1d600080a250565b63389a75e1600c523360005260006020600c2055337ffa7b8eab7da67f412cc9575ed43464468f9bfbae89d1675917346ca6d8fe3c92600080a2565b61083f611246565b610849600061127c565b565b6060610886838360405160200161087292919091825263ffffffff16602082015260400190565b6040516020818303038152906040526101f6565b90505b92915050565b610897611246565b63389a75e1600c52806000526020600c2080544211156108bf57636f5e88186000526004601cfd5b600090556108cc8161127c565b50565b6108d7611246565b8060601b6108ed57637448fbae6000526004601cfd5b6108cc8161127c565b600080610923847ff9b94d2a933222e58f90359e8ec33041c5f08d7bc4304958d1c52c21991da5756112e2565b6040517fcccf7a8e00000000000000000000000000000000000000000000000000000000815273ffffffffffffffffffffffffffffffffffffffff8581166004830181905292935083169063cccf7a8e90602401602060405180830381865afa158015610994573d6000803e3d6000fd5b505050506040513d601f19601f820116820180604052508101906109b89190613961565b610a1e576040517f08c379a000000000000000000000000000000000000000000000000000000000815260206004820152601b60248201527f4163636f756e743a204f70657261746f72206e6f7420666f756e6400000000006044820152606401610303565b6040517f9507d39a0000000000000000000000000000000000000000000000000000000081526004810182905273ffffffffffffffffffffffffffffffffffffffff831690639507d39a90602401602060405180830381865afa158015610a89573d6000803e3d6000fd5b505050506040513d601f19601f82011682018060405250810190610aad9190613983565b95945050505050565b600080610ac28461142e565b9050610b0485826040518060400160405280600481526020017f4954454d000000000000000000000000000000000000000000000000000000008152506114c6565b80610b565750610b568184610b39887f024accd0d273ef6123273b21662f5cc055a7d58adf98cc1b060edd029af93f7f6114f7565b73ffffffffffffffffffffffffffffffffffffffff169190611503565b9150505b9392505050565b600061088683610b708461142e565b611526565b610bc18282610ba4867fdb1228220c36234210e3f04b6ac039f5d81c4d6d81f43d9b4a9d70c4d5bcfac16114f7565b73ffffffffffffffffffffffffffffffffffffffff169190611553565b610c27576040517f08c379a000000000000000000000000000000000000000000000000000000000815260206004820152600c60248201527f6b616d69206e6f742075727300000000000000000000000000000000000000006044820152606401610303565b505050565b6000610c388484611569565b90506000610c846040518060400160405280600a81526020017f48415256455354494e47000000000000000000000000000000000000000000008152508361163290919063ffffffff16565b15610d0b576000610c95868661115f565b90506000610ca38783611648565b9050600080610cf48388610cd78c7f3be9611062b8582cf4b9a4eafe577dbde7dcd7779a1efb46d73e212026c4b0cc6114f7565b73ffffffffffffffffffffffffffffffffffffffff1691906116ef565b63ffffffff9182169116149450610d789350505050565b60408051808201909152600c81527f3732315f45585445524e414c00000000000000000000000000000000000000006020918201528251908301207fbb8785596ebb4b9f684edb50703a5e542576aaf32fbd385c17672ac62e00582203610d7457506000610d78565b5060015b80610ddf576040517f08c379a000000000000000000000000000000000000000000000000000000000815260206004820152600c60248201527f6b616d6920746f6f2066617200000000000000000000000000000000000000006044820152606401610303565b5050505050565b600061088683836117a8565b6000610886826040518060400160405280600781526020017f52455354494e4700000000000000000000000000000000000000000000000000815250610b39867f3630e5d2b4dfc42bb69d52e4eef89343acb69d5153f64efe5860a680a55082e760001c6114f7565b6000610886826040518060400160405280600a81526020017f48415256455354494e4700000000000000000000000000000000000000000000815250610b39867f3630e5d2b4dfc42bb69d52e4eef89343acb69d5153f64efe5860a680a55082e760001c6114f7565b6000610ed08383611569565b9050610f1a6040518060400160405280600a81526020017f48415256455354494e47000000000000000000000000000000000000000000008152508261163290919063ffffffff16565b15611006576000610f2b848461115f565b6040517f0de63b7600000000000000000000000000000000000000000000000000000000815273ffffffffffffffffffffffffffffffffffffffff861660048201526024810182905290915060009073__$5960f805d8ade0610b49318b73f60bf5ce$__90630de63b7690604401602060405180830381865af4158015610fb6573d6000803e3d6000fd5b505050506040513d601f19601f82011682018060405250810190610fda9190613983565b90506000610fe98686846117cf565b9050610ffe8686610ff984611930565b611949565b50505061108a565b60408051808201909152600781527f52455354494e47000000000000000000000000000000000000000000000000006020918201528151908201207fbaaafaf240fc0988682f54d71c1c9224752b1e0d476a46dd48e3001bfa7a99b90361108a5760006110738484611a4b565b9050611088848461108384611930565b611a92565b505b610c27838342611b7f565b60006110a2858585611c37565b90506110f081836110d3887fb25ea67b55901db62e4b14311a8c1ab178fec3948b4b493a711970a50aa2a2e16112e2565b73ffffffffffffffffffffffffffffffffffffffff169190611e06565b505050505050565b60006111038361142e565b90506000611131857ff751b4a95c9cfabe52899e09ae113eac17e41cc0cc2dad670d2789ecc1251add6112e2565b9050600061113f8284611eae565b9050801561115457611152828583611f8d565b505b6110f0868486611fa4565b60006108868383611ffb565b6111ac83836040518060400160405280600481526020017f464545440000000000000000000000000000000000000000000000000000000081525084612054565b610c27838360006040518060400160405280600981526020017f4b414d495f46454544000000000000000000000000000000000000000000000081525085612086565b6112318484846040518060400160405280600881526020017f4954454d5f55534500000000000000000000000000000000000000000000000081525085612086565b50505050565b611242828242611b7f565b5050565b7fffffffffffffffffffffffffffffffffffffffffffffffffffffffff74873927543314610849576382b429006000526004601cfd5b7fffffffffffffffffffffffffffffffffffffffffffffffffffffffff74873927805473ffffffffffffffffffffffffffffffffffffffff9092169182907f8be0079c531659141344cd1fd0a4f28419497f9722a3daafe3b4186f6b6457e0600080a355565b6040517ffbdfa1ea00000000000000000000000000000000000000000000000000000000815260048101829052600090819073ffffffffffffffffffffffffffffffffffffffff85169063fbdfa1ea90602401600060405180830381865afa158015611352573d6000803e3d6000fd5b505050506040513d6000823e601f3d9081017fffffffffffffffffffffffffffffffffffffffffffffffffffffffffffffffe016820160405261139891908101906139c0565b90508051600003611405576040517f08c379a000000000000000000000000000000000000000000000000000000000815260206004820152601160248201527f6964206e6f7420726567697374657265640000000000000000000000000000006044820152606401610303565b6114268160008151811061141b5761141b613a51565b602002602001015190565b949350505050565b6040517f72656769737472792e6974656d0000000000000000000000000000000000000060208201527fffffffff0000000000000000000000000000000000000000000000000000000060e083901b16602d8201526000906031015b604080517fffffffffffffffffffffffffffffffffffffffffffffffffffffffffffffffe0818403018152919052805160209091012092915050565b60006114268383610b39877f5d88ced8d8e079072bf73f49fc87661b519c50d79482941abb852ba2b10909cd6112e2565b600061088683836112e2565b60006114268261151386866120a0565b8151602092830120815191909201201490565b600061088683837fd34ba4c29e01e1dffd3809686ce3d39943a2ad2167f8ecd4ecbf3176d51c27d661218c565b6000816115608585611eae565b14949350505050565b6060611595837f3630e5d2b4dfc42bb69d52e4eef89343acb69d5153f64efe5860a680a55082e76112e2565b73ffffffffffffffffffffffffffffffffffffffff16639507d39a836040518263ffffffff1660e01b81526004016115cf91815260200190565b600060405180830381865afa1580156115ec573d6000803e3d6000fd5b505050506040513d6000823e601f3d9081017fffffffffffffffffffffffffffffffffffffffffffffffffffffffffffffffe01682016040526108869190810190613ab0565b8051602091820120825192909101919091201490565b6000611674837faa307edc224ff30d3376a8fd6134dde3bc74ef449ad0965df67766cefba5d9506112e2565b73ffffffffffffffffffffffffffffffffffffffff16639507d39a836040518263ffffffff1660e01b81526004016116ae91815260200190565b602060405180830381865afa1580156116cb573d6000803e3d6000fd5b505050506040513d601f19601f820116820180604052508101906108869190613983565b604080516002808252606082018352600092839283929091602083019080368337019050509050848160008151811061172a5761172a613a51565b602002602001018181525050838160018151811061174a5761174a613a51565b602002602001018181525050600061176287836122ed565b90508060008151811061177757611777613a51565b60200260200101518160018151811061179257611792613a51565b6020026020010151935093505050935093915050565b6000806117b5848461247b565b905060006117c385856124b0565b90911315949350505050565b600080611811856040518060400160405280601081526020017f4b414d495f484152565f53545241494e00000000000000000000000000000000815250612569565b9050600061185586866040518060400160405280601181526020017f53544e445f53545241494e5f424f4f5354000000000000000000000000000000815250612588565b604083015160c084015191925063ffffffff90811691600091849161187a91166126ef565b6118849190613b28565b9050600061189d6118958a8a612720565b60030b61272d565b60e086015160608701519192506000916118b79190613b50565b6118c89063ffffffff16600a613c94565b86519091506000906118e09063ffffffff1684613ca0565b6118ea9083613cb3565b9050806118f8600182613cca565b85611903888d613cb3565b61190d9190613cb3565b6119179190613ca0565b6119219190613d0c565b9b9a5050505050505050505050565b6000638000000082106119455761194561273b565b5090565b8060030b60000361195957505050565b611983837f7f11100822994501b15df98b1bd24b3eb0d73863f512da0bf8f165b0150c537d6112e2565b73ffffffffffffffffffffffffffffffffffffffff16636ef23a3d836119c9847fffffffffffffffffffffffffffffffffffffffffffffffffffffffffffffffff613d20565b6040517fffffffff0000000000000000000000000000000000000000000000000000000060e085901b168152600481019290925260030b60248201526044016020604051808303816000875af1158015611a27573d6000803e3d6000fd5b505050506040513d601f19601f820116820180604052508101906112319190613d40565b600080611a588484612749565b90506000611a668585612882565b611a709042613cca565b9050611a7e6009600a613c94565b611a888383613cb3565b610aad9190613d0c565b8060030b600003611aa257505050565b6000611aae84846128ae565b9050611ada847f7f11100822994501b15df98b1bd24b3eb0d73863f512da0bf8f165b0150c537d6112e2565b6040517f06e7645600000000000000000000000000000000000000000000000000000000815260048101859052600384810b602483015283900b604482015273ffffffffffffffffffffffffffffffffffffffff91909116906306e76456906064016020604051808303816000875af1158015611b5b573d6000803e3d6000fd5b505050506040513d601f19601f82011682018060405250810190610ddf9190613d40565b611ba9837f342adee7430e96bca6f5d4fe57ba5155dc7271000494e77110c292d51ae887fa6112e2565b6040517f1ab06ee5000000000000000000000000000000000000000000000000000000008152600481018490526024810183905273ffffffffffffffffffffffffffffffffffffffff9190911690631ab06ee590604401600060405180830381600087803b158015611c1a57600080fd5b505af1158015611c2e573d6000803e3d6000fd5b50505050505050565b6000611c4383836128bb565b90506000611c8785836040518060400160405280600981526020017f494e56454e544f5259000000000000000000000000000000000000000000000081525061295b565b905080611dfe57611cb8857fd3da495fedd385ac62763d969054ffb19f1777e687374cceb91f1237ddd6bfb36112e2565b6040517fd923c3c40000000000000000000000000000000000000000000000000000000081526004810184905263ffffffff8516602482015273ffffffffffffffffffffffffffffffffffffffff919091169063d923c3c490604401600060405180830381600087803b158015611d2e57600080fd5b505af1158015611d42573d6000803e3d6000fd5b50505050611d73857f1ee9964c9c16bbb74f9e401f1ab450f99b2343a602036525f23f0da350bc74d060001c6112e2565b6040517f1ab06ee5000000000000000000000000000000000000000000000000000000008152600481018490526024810186905273ffffffffffffffffffffffffffffffffffffffff9190911690631ab06ee5906044015b600060405180830381600087803b158015611de557600080fd5b505af1158015611df9573d6000803e3d6000fd5b505050505b509392505050565b600081611e138585611eae565b611e1d9190613cca565b6040517f1ab06ee5000000000000000000000000000000000000000000000000000000008152600481018590526024810182905290915073ffffffffffffffffffffffffffffffffffffffff851690631ab06ee590604401600060405180830381600087803b158015611e8f57600080fd5b505af1158015611ea3573d6000803e3d6000fd5b505050509392505050565b6040517fdd98e3c900000000000000000000000000000000000000000000000000000000815260048101829052600090819073ffffffffffffffffffffffffffffffffffffffff85169063dd98e3c990602401600060405180830381865afa158015611f1e573d6000803e3d6000fd5b505050506040513d6000823e601f3d9081017fffffffffffffffffffffffffffffffffffffffffffffffffffffffffffffffe0168201604052611f649190810190613d83565b90508051600003611f79576000915050610889565b808060200190518101906114269190613983565b600081611f9a8585611eae565b611e1d9190613ca0565b6000611fae612a09565b905060005b8151811015610ddf57611fe9611fe286848481518110611fd557611fd5613a51565b60200260200101516112e2565b8585612bc6565b80611ff381613db8565b915050611fb3565b60008061200783612cb6565b905061204984826040518060400160405280600781526020017f48415256455354000000000000000000000000000000000000000000000000008152506114c6565b610b5a576000611426565b600061205f85612cf1565b9050600061206e858386612d32565b90506110f08682876120808887612d87565b87612d9c565b6000612093858585612df4565b90506110f0868284612e0b565b6040517fdd98e3c90000000000000000000000000000000000000000000000000000000081526004810182905260609060009073ffffffffffffffffffffffffffffffffffffffff85169063dd98e3c990602401600060405180830381865afa158015612111573d6000803e3d6000fd5b505050506040513d6000823e601f3d9081017fffffffffffffffffffffffffffffffffffffffffffffffffffffffffffffffe01682016040526121579190810190613d83565b90508051600003612178575050604080516020810190915260008152610889565b808060200190518101906114269190613ab0565b6000806121b9857f0e980fab8730829e1930c8cdc024ae35650d9eec12d20425b19fc4ade883178c6112e2565b6040517fcccf7a8e0000000000000000000000000000000000000000000000000000000081526004810186905290915073ffffffffffffffffffffffffffffffffffffffff82169063cccf7a8e90602401602060405180830381865afa158015612227573d6000803e3d6000fd5b505050506040513d601f19601f8201168201806040525081019061224b9190613961565b8015610b5657506040517f9507d39a00000000000000000000000000000000000000000000000000000000815260048101859052839073ffffffffffffffffffffffffffffffffffffffff831690639507d39a90602401602060405180830381865afa1580156122bf573d6000803e3d6000fd5b505050506040513d601f19601f820116820180604052508101906122e39190613983565b1495945050505050565b606060008373ffffffffffffffffffffffffffffffffffffffff16634323c4ef846040518263ffffffff1660e01b815260040161232a9190613df0565b600060405180830381865afa158015612347573d6000803e3d6000fd5b505050506040513d6000823e601f3d9081017fffffffffffffffffffffffffffffffffffffffffffffffffffffffffffffffe016820160405261238d9190810190613e34565b90506000815167ffffffffffffffff8111156123ab576123ab6136ff565b6040519080825280602002602001820160405280156123d4578160200160208202803683370190505b50905060005b82518110156124725760008382815181106123f7576123f7613a51565b6020026020010151511161240c576000612439565b82818151811061241e5761241e613a51565b60200260200101518060200190518101906124399190613ee5565b82828151811061244b5761244b613a51565b63ffffffff909216602092830291909101909101528061246a81613db8565b9150506123da565b50949350505050565b60006108866124aa847f5f9759544a286ad42df1aa1cab6dca162b48885d3060ac74aecbf8ff4483ad1b6112e2565b83612e3a565b6000806124fa6124f5856040518060400160405280601681526020017f4b414d495f5354414e444152445f434f4f4c444f574e00000000000000000000815250612e72565b6126ef565b9050600061253e85856040518060400160405280601381526020017f53544e445f434f4f4c444f574e5f534849465400000000000000000000000000815250612588565b9050600061254c8284613b28565b90506000811261255c578061255f565b60005b9695505050505050565b6125716136e0565b600061257c83612e8a565b90506114268482612e9d565b6000806125958484612eb7565b905060006125c3867f50d80ec5b1169fa90f6a93a06362786b45e53ec8c05572cba38875a52f86a3bc6112e2565b6040517fcccf7a8e0000000000000000000000000000000000000000000000000000000081526004810184905290915073ffffffffffffffffffffffffffffffffffffffff82169063cccf7a8e90602401602060405180830381865afa158015612631573d6000803e3d6000fd5b505050506040513d601f19601f820116820180604052508101906126559190613961565b61266057600061255f565b6040517f9507d39a0000000000000000000000000000000000000000000000000000000081526004810183905273ffffffffffffffffffffffffffffffffffffffff821690639507d39a90602401602060405180830381865afa1580156126cb573d6000803e3d6000fd5b505050506040513d601f19601f8201168201806040525081019061255f9190613983565b60007f800000000000000000000000000000000000000000000000000000000000000082106119455761194561273b565b6000806114268484612ecc565b600080821215611945576119455b6335278d126000526004601cfd5b60008061278b846040518060400160405280601481526020017f4b414d495f524553545f4d455441424f4c49534d000000000000000000000000815250612569565b905060006127d76127d286866040518060400160405280601581526020017f524553545f4d455441424f4c49534d5f424f4f53540000000000000000000000815250612588565b61272d565b905060006127e86118958787612720565b604084015160c085015191925063ffffffff9081169160009161280d91869116613ca0565b60e086015160608701519192506000916128279190613b50565b6128389063ffffffff166009613cca565b61284390600a613c94565b90506000610e1083856128568886613cb3565b6128609190613cb3565b61286a9190613cb3565b6128749190613d0c565b9a9950505050505050505050565b6000611674837f342adee7430e96bca6f5d4fe57ba5155dc7271000494e77110c292d51ae887fa6112e2565b6000806114268484612f73565b6040517f696e76656e746f72792e696e7374616e636500000000000000000000000000006020820152603281018390527fffffffff0000000000000000000000000000000000000000000000000000000060e083901b1660528201526000906056015b604080517fffffffffffffffffffffffffffffffffffffffffffffffffffffffffffffffe081840301815291905280516020909101209392505050565b600080612988857f5d88ced8d8e079072bf73f49fc87661b519c50d79482941abb852ba2b10909cd6112e2565b90506129ae8361151373ffffffffffffffffffffffffffffffffffffffff8416876120a0565b915081611dfe576040517f6437197700000000000000000000000000000000000000000000000000000000815273ffffffffffffffffffffffffffffffffffffffff821690636437197790611dcb9087908790600401613f02565b60408051600680825260e08201909252606091600091906020820160c0803683370190505090507f7f11100822994501b15df98b1bd24b3eb0d73863f512da0bf8f165b0150c537d60001c81600081518110612a6757612a67613a51565b6020026020010181815250507f5b5054d7f0fe411d96cb1c9605f65b42805d28ce5bb4ce216455e888cdc5373c60001c81600181518110612aaa57612aaa613a51565b6020026020010181815250507f036642765aca64d0dc0aa7a1a5b293901589aec219fb89c7c5e7c042e927386c60001c81600281518110612aed57612aed613a51565b6020026020010181815250507f3e4a46df40b228c2d9f3b8ddde72a1c29045de822f058698341c5adb1d02f17d60001c81600381518110612b3057612b30613a51565b6020026020010181815250507f1229189cff138f94363a6274f6ec5003a4a6372db248c6985d3b3301024eb8ec60001c81600481518110612b7357612b73613a51565b6020026020010181815250507f9d3e17e61f5f07f24e173edb93a8af1d5b797396ea02343c0feee16bdf497d4f60001c81600581518110612bb657612bb6613a51565b6020908102919091010152919050565b600080612bd4858585612f9f565b91509150612be18261304e565b15612bed575050505050565b8473ffffffffffffffffffffffffffffffffffffffff166332e5cc3084612c14858561308c565b604080517fffffffff0000000000000000000000000000000000000000000000000000000060e086901b16815260048101939093528151600390810b60248501526020830151810b604485015290820151810b6064840152606090910151900b608482015260a4015b600060405180830381600087803b158015612c9757600080fd5b505af1158015612cab573d6000803e3d6000fd5b505050505050505050565b6040517f70726f64756374696f6e000000000000000000000000000000000000000000006020820152602a8101829052600090604a0161148a565b6000610889826040518060400160405280601181526020017f4c4541444552424f4152445f45504f4348000000000000000000000000000000815250612e72565b6000838383604051602001612d4993929190613f1b565b604080517fffffffffffffffffffffffffffffffffffffffffffffffffffffffffffffffe08184030181529190528051602090910120949350505050565b6000828260405160200161291e929190613f6e565b612da88585858561312c565b6110f08482612dd7887fb25ea67b55901db62e4b14311a8c1ab178fec3948b4b493a711970a50aa2a2e16112e2565b73ffffffffffffffffffffffffffffffffffffffff169190611f8d565b6000838383604051602001612d4993929190613fba565b6112318282612dd7867fb25ea67b55901db62e4b14311a8c1ab178fec3948b4b493a711970a50aa2a2e16112e2565b6000612e5f6124f573ffffffffffffffffffffffffffffffffffffffff851684611eae565b612e68426126ef565b6108869190614032565b600080612e7e83612e8a565b905061142684826132fe565b60008160405160200161148a9190614052565b612ea56136e0565b610886612eb284846132fe565b61332a565b6000828260405160200161291e929190614097565b6000612ef8837f5b5054d7f0fe411d96cb1c9605f65b42805d28ce5bb4ce216455e888cdc5373c6112e2565b73ffffffffffffffffffffffffffffffffffffffff1663af6128c2836040518263ffffffff1660e01b8152600401612f3291815260200190565b602060405180830381865afa158015612f4f573d6000803e3d6000fd5b505050506040513d601f19601f820116820180604052508101906108869190613d40565b6000612ef8837f7f11100822994501b15df98b1bd24b3eb0d73863f512da0bf8f165b0150c537d6112e2565b604080516080808201835260008083526020808401829052838501829052606080850183905285519384018652828452838201839052838601839052838101839052855160028082529181018752949593949293909183019080368337019050509050848160008151811061301657613016613a51565b602002602001018181525050838160018151811061303657613036613a51565b60200260200101818152505060006117628783613390565b805160009060030b1580156130685750602082015160030b155b80156130795750604082015160030b155b80156108895750506060015160030b1590565b60408051608081018252600080825260208201819052918101829052606081019190915260008290508360200151816020018181516130cb91906140e3565b60030b90525060408085015190820180516130e79083906140e3565b600390810b90915260608601516000910b13159050610b5a57600061310b8261356a565b905061311c828660600151836135bd565b60030b6060830152509392505050565b6000613158857f48dd73345b049fd90b1d994ae882fe2bea7a52e362fd4689108c907c6456a0066112e2565b6040517fcccf7a8e0000000000000000000000000000000000000000000000000000000081526004810186905290915073ffffffffffffffffffffffffffffffffffffffff82169063cccf7a8e90602401602060405180830381865afa1580156131c6573d6000803e3d6000fd5b505050506040513d601f19601f820116820180604052508101906131ea9190613961565b610ddf576040517f1ab06ee5000000000000000000000000000000000000000000000000000000008152600481018590526024810183905273ffffffffffffffffffffffffffffffffffffffff821690631ab06ee590604401600060405180830381600087803b15801561325d57600080fd5b505af1158015613271573d6000803e3d6000fd5b505050506132a2857f5bc28889d745caef68975e56a733199d93efb3f5ae8e4606262ab97c83f7264860001c6112e2565b6040517f1ab06ee5000000000000000000000000000000000000000000000000000000008152600481018690526024810185905273ffffffffffffffffffffffffffffffffffffffff9190911690631ab06ee590604401612c7d565b6000611674837fb25ea67b55901db62e4b14311a8c1ab178fec3948b4b493a711970a50aa2a2e16112e2565b6133326136e0565b60005b600881101561338a5763ffffffff831682613351836007613cca565b6008811061336157613361613a51565b63ffffffff909216602092830291909101529290921c918061338281613db8565b915050613335565b50919050565b606060008373ffffffffffffffffffffffffffffffffffffffff16634323c4ef846040518263ffffffff1660e01b81526004016133cd9190613df0565b600060405180830381865afa1580156133ea573d6000803e3d6000fd5b505050506040513d6000823e601f3d9081017fffffffffffffffffffffffffffffffffffffffffffffffffffffffffffffffe01682016040526134309190810190613e34565b90506000815167ffffffffffffffff81111561344e5761344e6136ff565b6040519080825280602002602001820160405280156134be57816020015b6040805160808101825260008082526020808301829052928201819052606082015282527fffffffffffffffffffffffffffffffffffffffffffffffffffffffffffffffff90920191018161346c5790505b50905060005b82518110156124725760008382815181106134e1576134e1613a51565b602002602001015151116135185760408051608081018252600080825260208201819052918101829052606081019190915261353a565b61353a83828151811061352d5761352d613a51565b6020026020010151613619565b82828151811061354c5761354c613a51565b6020026020010181905250808061356290613db8565b9150506134c4565b6000806103e88360200151846000015161358491906140e3565b6040850151613595906103e86140e3565b61359f9190613d20565b6135a99190614125565b905060008160030b13610889576000610b5a565b600082846060018181516135d191906140e3565b600390810b90915260608601516000910b121590506135f257600060608501525b8160030b846060015160030b131561360f57600382900b60608501525b5050506060015190565b604080516080810182526000808252602082018190529181018290526060810191909152610889828060200190518101906136549190613983565b604080516080810182526000808252602082018190529181018290526060810191909152604051806080016040528060c084901c67ffffffffffffffff1660030b8152602001608084901c67ffffffffffffffff1660030b8152602001604084901c67ffffffffffffffff1660030b81526020018367ffffffffffffffff1660030b8152509050919050565b6040518061010001604052806008906020820280368337509192915050565b7f4e487b7100000000000000000000000000000000000000000000000000000000600052604160045260246000fd5b604051601f82017fffffffffffffffffffffffffffffffffffffffffffffffffffffffffffffffe016810167ffffffffffffffff81118282101715613775576137756136ff565b604052919050565b600067ffffffffffffffff821115613797576137976136ff565b50601f017fffffffffffffffffffffffffffffffffffffffffffffffffffffffffffffffe01660200190565b6000602082840312156137d557600080fd5b813567ffffffffffffffff8111156137ec57600080fd5b8201601f810184136137fd57600080fd5b803561381061380b8261377d565b61372e565b81815285602083850101111561382557600080fd5b81602084016020830137600091810160200191909152949350505050565b60005b8381101561385e578181015183820152602001613846565b50506000910152565b6000815180845261387f816020860160208601613843565b601f017fffffffffffffffffffffffffffffffffffffffffffffffffffffffffffffffe0169290920160200192915050565b6020815260006108866020830184613867565b63ffffffff811681146108cc57600080fd5b600080604083850312156138e957600080fd5b8235915060208301356138fb816138c4565b809150509250929050565b60006020828403121561391857600080fd5b813573ffffffffffffffffffffffffffffffffffffffff81168114610b5a57600080fd5b6000806040838503121561394f57600080fd5b8251915060208301516138fb816138c4565b60006020828403121561397357600080fd5b81518015158114610b5a57600080fd5b60006020828403121561399557600080fd5b5051919050565b600067ffffffffffffffff8211156139b6576139b66136ff565b5060051b60200190565b600060208083850312156139d357600080fd5b825167ffffffffffffffff8111156139ea57600080fd5b8301601f810185136139fb57600080fd5b8051613a0961380b8261399c565b81815260059190911b82018301908381019087831115613a2857600080fd5b928401925b82841015613a4657835182529284019290840190613a2d565b979650505050505050565b7f4e487b7100000000000000000000000000000000000000000000000000000000600052603260045260246000fd5b6000613a8e61380b8461377d565b9050828152838383011115613aa257600080fd5b610b5a836020830184613843565b600060208284031215613ac257600080fd5b815167ffffffffffffffff811115613ad957600080fd5b8201601f81018413613aea57600080fd5b61142684825160208401613a80565b7f4e487b7100000000000000000000000000000000000000000000000000000000600052601160045260246000fd5b8082018281126000831280158216821582161715613b4857613b48613af9565b505092915050565b63ffffffff818116838216019080821115613b6d57613b6d613af9565b5092915050565b600181815b80851115613bcd57817fffffffffffffffffffffffffffffffffffffffffffffffffffffffffffffffff04821115613bb357613bb3613af9565b80851615613bc057918102915b93841c9390800290613b79565b509250929050565b600082613be457506001610889565b81613bf157506000610889565b8160018114613c075760028114613c1157613c2d565b6001915050610889565b60ff841115613c2257613c22613af9565b50506001821b610889565b5060208310610133831016604e8410600b8410161715613c50575081810a610889565b613c5a8383613b74565b807fffffffffffffffffffffffffffffffffffffffffffffffffffffffffffffffff04821115613c8c57613c8c613af9565b029392505050565b60006108868383613bd5565b8082018082111561088957610889613af9565b808202811582820484141761088957610889613af9565b8181038181111561088957610889613af9565b7f4e487b7100000000000000000000000000000000000000000000000000000000600052601260045260246000fd5b600082613d1b57613d1b613cdd565b500490565b60008260030b8260030b028060030b9150808214613b6d57613b6d613af9565b600060208284031215613d5257600080fd5b81518060030b8114610b5a57600080fd5b600082601f830112613d7457600080fd5b61088683835160208501613a80565b600060208284031215613d9557600080fd5b815167ffffffffffffffff811115613dac57600080fd5b61142684828501613d63565b60007fffffffffffffffffffffffffffffffffffffffffffffffffffffffffffffffff8203613de957613de9613af9565b5060010190565b6020808252825182820181905260009190848201906040850190845b81811015613e2857835183529284019291840191600101613e0c565b50909695505050505050565b60006020808385031215613e4757600080fd5b825167ffffffffffffffff80821115613e5f57600080fd5b818501915085601f830112613e7357600080fd5b8151613e8161380b8261399c565b81815260059190911b83018401908481019088831115613ea057600080fd5b8585015b83811015613ed857805185811115613ebc5760008081fd5b613eca8b89838a0101613d63565b845250918601918601613ea4565b5098975050505050505050565b600060208284031215613ef757600080fd5b8151610b5a816138c4565b8281526040602082015260006114266040830184613867565b7f69732e73636f7265000000000000000000000000000000000000000000000000815283600882015282602882015260008251613f5f816048850160208701613843565b91909101604801949350505050565b7f73636f72652e7479706500000000000000000000000000000000000000000000815260008351613fa681600a850160208801613843565b600a920191820192909252602a0192915050565b7f69732e646174610000000000000000000000000000000000000000000000000081528360078201527fffffffff000000000000000000000000000000000000000000000000000000008360e01b1660278201526000825161402381602b850160208701613843565b91909101602b01949350505050565b8181036000831280158383131683831282161715613b6d57613b6d613af9565b7f69732e636f6e666967000000000000000000000000000000000000000000000081526000825161408a816009850160208701613843565b9190910160090192915050565b7f626f6e75730000000000000000000000000000000000000000000000000000008152826005820152600082516140d5816025850160208701613843565b919091016025019392505050565b600381810b9083900b01637fffffff81137fffffffffffffffffffffffffffffffffffffffffffffffffffffffff800000008212171561088957610889613af9565b60008160030b8360030b8061413c5761413c613cdd565b7fffffffffffffffffffffffffffffffffffffffffffffffffffffffffffffffff81147fffffffffffffffffffffffffffffffffffffffffffffffffffffffff800000008314161561419057614190613af9565b9005939250505056fea2646970667358221220538fa0658d7f0bc5c91c0b1886bdcdf7622f10731f9380ef9354a831b3b675f464736f6c63430008110033","linkReferences":{"src/libraries/LibHarvest.sol":{"LibHarvest":[{"start":2230,"length":20},{"start":4516,"length":20}]}}},"methodIdentifiers":{"cancelOwnershipHandover()":"54d1f13d","completeOwnershipHandover(address)":"f04e283e","deprecate()":"0fcc0c28","execute(bytes)":"09c5eabe","executeTyped(uint256,uint32)":"e60f3a76","owner()":"8da5cb5b","ownershipHandoverExpiresAt(address)":"fee81cf4","renounceOwnership()":"715018a6","requestOwnershipHandover()":"25692962","transferOwnership(address)":"f2fde38b"},"id":277}