{"abi":[{"type":"constructor","inputs":[{"name":"world","type":"address","internalType":"address"}],"stateMutability":"nonpayable"},{"type":"function","name":"authorizeWriter","inputs":[{"name":"writer","type":"address","internalType":"address"}],"outputs":[],"stateMutability":"nonpayable"},{"type":"function","name":"cancelOwnershipHandover","inputs":[],"outputs":[],"stateMutability":"payable"},{"type":"function","name":"completeOwnershipHandover","inputs":[{"name":"pendingOwner","type":"address","internalType":"address"}],"outputs":[],"stateMutability":"payable"},{"type":"function","name":"extract","inputs":[{"name":"entity","type":"uint256","internalType":"uint256"}],"outputs":[{"name":"","type":"uint256","internalType":"uint256"}],"stateMutability":"nonpayable"},{"type":"function","name":"extractBatch","inputs":[{"name":"entities","type":"uint256[]","internalType":"uint256[]"}],"outputs":[{"name":"","type":"uint256[]","internalType":"uint256[]"}],"stateMutability":"nonpayable"},{"type":"function","name":"extractRaw","inputs":[{"name":"entity","type":"uint256","internalType":"uint256"}],"outputs":[{"name":"","type":"bytes","internalType":"bytes"}],"stateMutability":"nonpayable"},{"type":"function","name":"extractRawBatch","inputs":[{"name":"entities","type":"uint256[]","internalType":"uint256[]"}],"outputs":[{"name":"","type":"bytes[]","internalType":"bytes[]"}],"stateMutability":"nonpayable"},{"type":"function","name":"get","inputs":[{"name":"entity","type":"uint256","internalType":"uint256"}],"outputs":[{"name":"","type":"uint256","internalType":"uint256"}],"stateMutability":"view"},{"type":"function","name":"getBatch","inputs":[{"name":"entities","type":"uint256[]","internalType":"uint256[]"}],"outputs":[{"name":"","type":"uint256[]","internalType":"uint256[]"}],"stateMutability":"view"},{"type":"function","name":"getEntities","inputs":[],"outputs":[{"name":"","type":"uint256[]","internalType":"uint256[]"}],"stateMutability":"view"},{"type":"function","name":"getEntitiesWithValue","inputs":[{"name":"","type":"bytes","internalType":"bytes"}],"outputs":[{"name":"","type":"uint256[]","internalType":"uint256[]"}],"stateMutability":"view"},{"type":"function","name":"getEntitiesWithValue","inputs":[{"name":"value","type":"uint256","internalType":"uint256"}],"outputs":[{"name":"","type":"uint256[]","internalType":"uint256[]"}],"stateMutability":"view"},{"type":"function","name":"getRaw","inputs":[{"name":"entity","type":"uint256","internalType":"uint256"}],"outputs":[{"name":"","type":"bytes","internalType":"bytes"}],"stateMutability":"view"},{"type":"function","name":"getRawBatch","inputs":[{"name":"entities","type":"uint256[]","internalType":"uint256[]"}],"outputs":[{"name":"","type":"bytes[]","internalType":"bytes[]"}],"stateMutability":"view"},{"type":"function","name":"has","inputs":[{"name":"entity","type":"uint256","internalType":"uint256"}],"outputs":[{"name":"","type":"bool","internalType":"bool"}],"stateMutability":"view"},{"type":"function","name":"id","inputs":[],"outputs":[{"name":"","type":"uint256","internalType":"uint256"}],"stateMutability":"view"},{"type":"function","name":"owner","inputs":[],"outputs":[{"name":"result","type":"address","internalType":"address"}],"stateMutability":"view"},{"type":"function","name":"ownershipHandoverExpiresAt","inputs":[{"name":"pendingOwner","type":"address","internalType":"address"}],"outputs":[{"name":"result","type":"uint256","internalType":"uint256"}],"stateMutability":"view"},{"type":"function","name":"registerWorld","inputs":[{"name":"_world","type":"address","internalType":"address"}],"outputs":[],"stateMutability":"nonpayable"},{"type":"function","name":"remove","inputs":[{"name":"entity","type":"uint256","internalType":"uint256"}],"outputs":[],"stateMutability":"nonpayable"},{"type":"function","name":"removeBatch","inputs":[{"name":"entities","type":"uint256[]","internalType":"uint256[]"}],"outputs":[],"stateMutability":"nonpayable"},{"type":"function","name":"renounceOwnership","inputs":[],"outputs":[],"stateMutability":"payable"},{"type":"function","name":"requestOwnershipHandover","inputs":[],"outputs":[],"stateMutability":"payable"},{"type":"function","name":"set","inputs":[{"name":"entity","type":"uint256","internalType":"uint256"},{"name":"value","type":"uint256","internalType":"uint256"}],"outputs":[],"stateMutability":"nonpayable"},{"type":"function","name":"set","inputs":[{"name":"entity","type":"uint256","internalType":"uint256"},{"name":"value","type":"bytes","internalType":"bytes"}],"outputs":[],"stateMutability":"nonpayable"},{"type":"function","name":"setBatch","inputs":[{"name":"entities","type":"uint256[]","internalType":"uint256[]"},{"name":"values","type":"bytes[]","internalType":"bytes[]"}],"outputs":[],"stateMutability":"nonpayable"},{"type":"function","name":"setBatch","inputs":[{"name":"entities","type":"uint256[]","internalType":"uint256[]"},{"name":"values","type":"uint256[]","internalType":"uint256[]"}],"outputs":[],"stateMutability":"nonpayable"},{"type":"function","name":"transferOwnership","inputs":[{"name":"newOwner","type":"address","internalType":"address"}],"outputs":[],"stateMutability":"payable"},{"type":"function","name":"unauthorizeWriter","inputs":[{"name":"writer","type":"address","internalType":"address"}],"outputs":[],"stateMutability":"nonpayable"},{"type":"function","name":"world","inputs":[],"outputs":[{"name":"","type":"address","internalType":"address"}],"stateMutability":"view"},{"type":"function","name":"writeAccess","inputs":[{"name":"operator","type":"address","internalType":"address"}],"outputs":[{"name":"","type":"bool","internalType":"bool"}],"stateMutability":"view"},{"type":"event","name":"OwnershipHandoverCanceled","inputs":[{"name":"pendingOwner","type":"address","indexed":true,"internalType":"address"}],"anonymous":false},{"type":"event","name":"OwnershipHandoverRequested","inputs":[{"name":"pendingOwner","type":"address","indexed":true,"internalType":"address"}],"anonymous":false},{"type":"event","name":"OwnershipTransferred","inputs":[{"name":"oldOwner","type":"address","indexed":true,"internalType":"address"},{"name":"newOwner","type":"address","indexed":true,"internalType":"address"}],"anonymous":false},{"type":"error","name":"AlreadyInitialized","inputs":[]},{"type":"error","name":"BareComponent__NotImplemented","inputs":[]},{"type":"error","name":"BatchOp_UnexpectedLength","inputs":[]},{"type":"error","name":"NewOwnerIsZeroAddress","inputs":[]},{"type":"error","name":"NoHandoverRequest","inputs":[]},{"type":"error","name":"OwnableWritable__NotWriter","inputs":[]},{"type":"error","name":"Unauthorized","inputs":[]},{"type":"error","name":"ZeroValueNotAllowed","inputs":[]}],"bytecode":{"object":"0x60806040523480156200001157600080fd5b50604051620020863803806200208683398101604081905262000034916200016e565b807ff8911dfd3f908e7a27ff20b80381dc7334f6abc557cdd58de4a9bfb47ebde734818162000063336200008e565b60028190556001600160a01b0382161562000083576200008382620000ca565b5050505050620001a0565b6001600160a01b0316638b78c6d8198190558060007f8be0079c531659141344cd1fd0a4f28419497f9722a3daafe3b4186f6b6457e08180a350565b620000d462000150565b600080546001600160a01b0319166001600160a01b038316908117909155600254604051630f30347760e41b8152306004820152602481019190915263f303477090604401600060405180830381600087803b1580156200013457600080fd5b505af115801562000149573d6000803e3d6000fd5b5050505050565b638b78c6d8195433146200016c576382b429006000526004601cfd5b565b6000602082840312156200018157600080fd5b81516001600160a01b03811681146200019957600080fd5b9392505050565b611ed680620001b06000396000f3fe6080604052600436106101d85760003560e01c8063861eb90511610102578063cccf7a8e11610095578063f04e283e11610064578063f04e283e14610576578063f2fde38b14610589578063fbdfa1ea1461059c578063fee81cf4146105bc57600080fd5b8063cccf7a8e146104e9578063dc5c22cd14610509578063dd98e3c914610529578063e9ff6c761461055657600080fd5b80639d2c76b4116100d15780639d2c76b414610473578063af640d0f14610493578063b361be46146104a9578063bf4fe57e146104c957600080fd5b8063861eb905146103cf5780638b282947146103ff5780638da5cb5b1461041f5780639507d39a1461045357600080fd5b806331b933b91161017a57806354d1f13d1161014957806354d1f13d14610371578063715018a6146103795780638482643e1461038157806385b39782146103a157600080fd5b806331b933b9146102fc5780634323c4ef146103115780634cc82215146103315780634fef6a381461035157600080fd5b806318206453116101b657806318206453146102625780631ab06ee51461028257806325692962146102a257806330b67baa146102aa57600080fd5b8063088dd0b9146101dd57806312b111551461021357806313ca8b6a14610240575b600080fd5b3480156101e957600080fd5b506101fd6101f8366004611804565b6105ef565b60405161020a9190611841565b60405180910390f35b34801561021f57600080fd5b5061023361022e366004611804565b610608565b60405161020a91906118e9565b34801561024c57600080fd5b5061026061025b3660046119f7565b610652565b005b34801561026e57600080fd5b5061026061027d366004611acc565b61069f565b34801561028e57600080fd5b5061026061029d366004611b30565b6106f0565b610260610741565b3480156102b657600080fd5b506000546102d79073ffffffffffffffffffffffffffffffffffffffff1681565b60405173ffffffffffffffffffffffffffffffffffffffff909116815260200161020a565b34801561030857600080fd5b506101fd610791565b34801561031d57600080fd5b5061023361032c366004611804565b6107c5565b34801561033d57600080fd5b5061026061034c366004611b52565b610911565b34801561035d57600080fd5b5061026061036c366004611b6b565b61095c565b6102606109d2565b610260610a0e565b34801561038d57600080fd5b5061026061039c366004611804565b610a22565b3480156103ad57600080fd5b506103c16103bc366004611b52565b610a6a565b60405190815260200161020a565b3480156103db57600080fd5b506103ef6103ea366004611b6b565b610abc565b604051901515815260200161020a565b34801561040b57600080fd5b5061026061041a366004611ba8565b610b4b565b34801561042b57600080fd5b507fffffffffffffffffffffffffffffffffffffffffffffffffffffffff74873927546102d7565b34801561045f57600080fd5b506103c161046e366004611b52565b610b94565b34801561047f57600080fd5b5061026061048e366004611b6b565b610ba2565b34801561049f57600080fd5b506103c160025481565b3480156104b557600080fd5b506101fd6104c4366004611be5565b610791565b3480156104d557600080fd5b506102606104e4366004611b6b565b610c63565b3480156104f557600080fd5b506103ef610504366004611b52565b610cd6565b34801561051557600080fd5b506101fd610524366004611804565b610cf8565b34801561053557600080fd5b50610549610544366004611b52565b610d45565b60405161020a9190611c1a565b34801561056257600080fd5b50610549610571366004611b52565b610d50565b610260610584366004611b6b565b610d9a565b610260610597366004611b6b565b610dd7565b3480156105a857600080fd5b506101fd6105b7366004611b52565b610dfe565b3480156105c857600080fd5b506103c16105d7366004611b6b565b63389a75e1600c908152600091909152602090205490565b60606106026105fd83610e0c565b610f51565b92915050565b606061061333610abc565b610649576040517f406ed3da00000000000000000000000000000000000000000000000000000000815260040160405180910390fd5b61060282610ff8565b61065b33610abc565b610691576040517f406ed3da00000000000000000000000000000000000000000000000000000000815260040160405180910390fd5b61069b8282611010565b5050565b6106a833610abc565b6106de576040517f406ed3da00000000000000000000000000000000000000000000000000000000815260040160405180910390fd5b61069b826106eb836111ee565b611010565b6106f933610abc565b61072f576040517f406ed3da00000000000000000000000000000000000000000000000000000000815260040160405180910390fd5b61069b8261073c836112a0565b6112cb565b60006202a30067ffffffffffffffff164201905063389a75e1600c5233600052806020600c2055337fdbf36a107da19e49527a7176a1babf963b4b0ff8cde35ee35d6cd8f1f9ac7e1d600080a250565b60606040517f17d5b8e800000000000000000000000000000000000000000000000000000000815260040160405180910390fd5b60606000825167ffffffffffffffff8111156107e3576107e36116f7565b60405190808252806020026020018201604052801561081657816020015b60608152602001906001900390816108015790505b50905060005b835181101561090a576001600085838151811061083b5761083b611c2d565b60200260200101518152602001908152602001600020805461085c90611c5c565b80601f016020809104026020016040519081016040528092919081815260200182805461088890611c5c565b80156108d55780601f106108aa576101008083540402835291602001916108d5565b820191906000526020600020905b8154815290600101906020018083116108b857829003601f168201915b50505050508282815181106108ec576108ec611c2d565b6020026020010181905250808061090290611caf565b91505061081c565b5092915050565b61091a33610abc565b610950576040517f406ed3da00000000000000000000000000000000000000000000000000000000815260040160405180910390fd5b610959816113ad565b50565b61096461141b565b73ffffffffffffffffffffffffffffffffffffffff1660009081527f8ffeadc5cba727b8cc3cdef48739619490ea317fdb3baae1259089d06f92c9096020526040902080547fffffffffffffffffffffffffffffffffffffffffffffffffffffffffffffff00166001179055565b63389a75e1600c523360005260006020600c2055337ffa7b8eab7da67f412cc9575ed43464468f9bfbae89d1675917346ca6d8fe3c92600080a2565b610a1661141b565b610a206000611451565b565b610a2b33610abc565b610a61576040517f406ed3da00000000000000000000000000000000000000000000000000000000815260040160405180910390fd5b610959816114b7565b6000610a7533610abc565b610aab576040517f406ed3da00000000000000000000000000000000000000000000000000000000815260040160405180910390fd5b610602610ab7836115d1565b6115f1565b73ffffffffffffffffffffffffffffffffffffffff811660009081527f8ffeadc5cba727b8cc3cdef48739619490ea317fdb3baae1259089d06f92c909602052604081205460ff16806106025750507fffffffffffffffffffffffffffffffffffffffffffffffffffffffff748739275473ffffffffffffffffffffffffffffffffffffffff91821691161490565b610b5433610abc565b610b8a576040517f406ed3da00000000000000000000000000000000000000000000000000000000815260040160405180910390fd5b61069b82826112cb565b6000610602610ab783611607565b610baa61141b565b600080547fffffffffffffffffffffffff00000000000000000000000000000000000000001673ffffffffffffffffffffffffffffffffffffffff83169081179091556002546040517ff3034770000000000000000000000000000000000000000000000000000000008152306004820152602481019190915263f3034770906044015b600060405180830381600087803b158015610c4857600080fd5b505af1158015610c5c573d6000803e3d6000fd5b5050505050565b610c6b61141b565b73ffffffffffffffffffffffffffffffffffffffff1660009081527f8ffeadc5cba727b8cc3cdef48739619490ea317fdb3baae1259089d06f92c9096020526040902080547fffffffffffffffffffffffffffffffffffffffffffffffffffffffffffffff00169055565b60008181526001602052604081208054610cef90611c5c565b15159392505050565b6060610d0333610abc565b610d39576040517f406ed3da00000000000000000000000000000000000000000000000000000000815260040160405180910390fd5b6106026105fd83610ff8565b606061060282611607565b6060610d5b33610abc565b610d91576040517f406ed3da00000000000000000000000000000000000000000000000000000000815260040160405180910390fd5b610602826115d1565b610da261141b565b63389a75e1600c52806000526020600c208054421115610dca57636f5e88186000526004601cfd5b6000905561095981611451565b610ddf61141b565b8060601b610df557637448fbae6000526004601cfd5b61095981611451565b60606106026104c4836112a0565b60606000825167ffffffffffffffff811115610e2a57610e2a6116f7565b604051908082528060200260200182016040528015610e5d57816020015b6060815260200190600190039081610e485790505b50905060005b835181101561090a5760016000858381518110610e8257610e82611c2d565b602002602001015181526020019081526020016000208054610ea390611c5c565b80601f0160208091040260200160405190810160405280929190818152602001828054610ecf90611c5c565b8015610f1c5780601f10610ef157610100808354040283529160200191610f1c565b820191906000526020600020905b815481529060010190602001808311610eff57829003601f168201915b5050505050828281518110610f3357610f33611c2d565b60200260200101819052508080610f4990611caf565b915050610e63565b60606000825167ffffffffffffffff811115610f6f57610f6f6116f7565b604051908082528060200260200182016040528015610f98578160200160208202803683370190505b50905060005b835181101561090a57610fc9848281518110610fbc57610fbc611c2d565b60200260200101516115f1565b828281518110610fdb57610fdb611c2d565b602090810291909101015280610ff081611caf565b915050610f9e565b6060600061100583610e0c565b9050610602836114b7565b805182511461104b576040517fc291f68400000000000000000000000000000000000000000000000000000000815260040160405180910390fd5b60005b82518110156111105781818151811061106957611069611c2d565b6020026020010151516000036110ab576040517f9cf8540c00000000000000000000000000000000000000000000000000000000815260040160405180910390fd5b8181815181106110bd576110bd611c2d565b6020026020010151600160008584815181106110db576110db611c2d565b6020026020010151815260200190815260200160002090816110fd9190611d54565b508061110881611caf565b91505061104e565b506000805473ffffffffffffffffffffffffffffffffffffffff16905b83518110156111e8578173ffffffffffffffffffffffffffffffffffffffff1663cfd3c57f85838151811061116457611164611c2d565b602002602001015185848151811061117e5761117e611c2d565b60200260200101516040518363ffffffff1660e01b81526004016111a3929190611e6e565b600060405180830381600087803b1580156111bd57600080fd5b505af11580156111d1573d6000803e3d6000fd5b5050505080806111e090611caf565b91505061112d565b50505050565b60606000825167ffffffffffffffff81111561120c5761120c6116f7565b60405190808252806020026020018201604052801561123f57816020015b606081526020019060019003908161122a5790505b50905060005b835181101561090a5761127084828151811061126357611263611c2d565b60200260200101516112a0565b82828151811061128257611282611c2d565b6020026020010181905250808061129890611caf565b915050611245565b6060816040516020016112b591815260200190565b6040516020818303038152906040529050919050565b8051600003611306576040517f9cf8540c00000000000000000000000000000000000000000000000000000000815260040160405180910390fd5b600082815260016020526040902061131e8282611d54565b506000546040517fcfd3c57f00000000000000000000000000000000000000000000000000000000815273ffffffffffffffffffffffffffffffffffffffff9091169063cfd3c57f906113779085908590600401611e6e565b600060405180830381600087803b15801561139157600080fd5b505af11580156113a5573d6000803e3d6000fd5b505050505050565b60008181526001602052604081206113c4916116a9565b6000546040517f0de3b7b50000000000000000000000000000000000000000000000000000000081526004810183905273ffffffffffffffffffffffffffffffffffffffff90911690630de3b7b590602401610c2e565b7fffffffffffffffffffffffffffffffffffffffffffffffffffffffff74873927543314610a20576382b429006000526004601cfd5b7fffffffffffffffffffffffffffffffffffffffffffffffffffffffff74873927805473ffffffffffffffffffffffffffffffffffffffff9092169182907f8be0079c531659141344cd1fd0a4f28419497f9722a3daafe3b4186f6b6457e0600080a355565b60005b815181101561150d57600160008383815181106114d9576114d9611c2d565b6020026020010151815260200190815260200160002060006114fb91906116a9565b8061150581611caf565b9150506114ba565b506000805473ffffffffffffffffffffffffffffffffffffffff16905b82518110156115cc578173ffffffffffffffffffffffffffffffffffffffff16630de3b7b584838151811061156157611561611c2d565b60200260200101516040518263ffffffff1660e01b815260040161158791815260200190565b600060405180830381600087803b1580156115a157600080fd5b505af11580156115b5573d6000803e3d6000fd5b5050505080806115c490611caf565b91505061152a565b505050565b606060006115de83611607565b80519091501561060257610602836113ad565b6000818060200190518101906106029190611e87565b600081815260016020526040902080546060919061162490611c5c565b80601f016020809104026020016040519081016040528092919081815260200182805461165090611c5c565b801561169d5780601f106116725761010080835404028352916020019161169d565b820191906000526020600020905b81548152906001019060200180831161168057829003601f168201915b50505050509050919050565b5080546116b590611c5c565b6000825580601f106116c5575050565b601f01602090049060005260206000209081019061095991905b808211156116f357600081556001016116df565b5090565b7f4e487b7100000000000000000000000000000000000000000000000000000000600052604160045260246000fd5b604051601f82017fffffffffffffffffffffffffffffffffffffffffffffffffffffffffffffffe016810167ffffffffffffffff8111828210171561176d5761176d6116f7565b604052919050565b600067ffffffffffffffff82111561178f5761178f6116f7565b5060051b60200190565b600082601f8301126117aa57600080fd5b813560206117bf6117ba83611775565b611726565b82815260059290921b840181019181810190868411156117de57600080fd5b8286015b848110156117f957803583529183019183016117e2565b509695505050505050565b60006020828403121561181657600080fd5b813567ffffffffffffffff81111561182d57600080fd5b61183984828501611799565b949350505050565b6020808252825182820181905260009190848201906040850190845b818110156118795783518352928401929184019160010161185d565b50909695505050505050565b6000815180845260005b818110156118ab5760208185018101518683018201520161188f565b5060006020828601015260207fffffffffffffffffffffffffffffffffffffffffffffffffffffffffffffffe0601f83011685010191505092915050565b6000602080830181845280855180835260408601915060408160051b870101925083870160005b8281101561195c577fffffffffffffffffffffffffffffffffffffffffffffffffffffffffffffffc088860301845261194a858351611885565b94509285019290850190600101611910565b5092979650505050505050565b600082601f83011261197a57600080fd5b813567ffffffffffffffff811115611994576119946116f7565b6119c560207fffffffffffffffffffffffffffffffffffffffffffffffffffffffffffffffe0601f84011601611726565b8181528460208386010111156119da57600080fd5b816020850160208301376000918101602001919091529392505050565b60008060408385031215611a0a57600080fd5b823567ffffffffffffffff80821115611a2257600080fd5b611a2e86838701611799565b9350602091508185013581811115611a4557600080fd5b8501601f81018713611a5657600080fd5b8035611a646117ba82611775565b81815260059190911b82018401908481019089831115611a8357600080fd5b8584015b83811015611abb57803586811115611a9f5760008081fd5b611aad8c8983890101611969565b845250918601918601611a87565b508096505050505050509250929050565b60008060408385031215611adf57600080fd5b823567ffffffffffffffff80821115611af757600080fd5b611b0386838701611799565b93506020850135915080821115611b1957600080fd5b50611b2685828601611799565b9150509250929050565b60008060408385031215611b4357600080fd5b50508035926020909101359150565b600060208284031215611b6457600080fd5b5035919050565b600060208284031215611b7d57600080fd5b813573ffffffffffffffffffffffffffffffffffffffff81168114611ba157600080fd5b9392505050565b60008060408385031215611bbb57600080fd5b82359150602083013567ffffffffffffffff811115611bd957600080fd5b611b2685828601611969565b600060208284031215611bf757600080fd5b813567ffffffffffffffff811115611c0e57600080fd5b61183984828501611969565b602081526000611ba16020830184611885565b7f4e487b7100000000000000000000000000000000000000000000000000000000600052603260045260246000fd5b600181811c90821680611c7057607f821691505b602082108103611ca9577f4e487b7100000000000000000000000000000000000000000000000000000000600052602260045260246000fd5b50919050565b60007fffffffffffffffffffffffffffffffffffffffffffffffffffffffffffffffff8203611d07577f4e487b7100000000000000000000000000000000000000000000000000000000600052601160045260246000fd5b5060010190565b601f8211156115cc57600081815260208120601f850160051c81016020861015611d355750805b601f850160051c820191505b818110156113a557828155600101611d41565b815167ffffffffffffffff811115611d6e57611d6e6116f7565b611d8281611d7c8454611c5c565b84611d0e565b602080601f831160018114611dd55760008415611d9f5750858301515b7fffffffffffffffffffffffffffffffffffffffffffffffffffffffffffffffff600386901b1c1916600185901b1785556113a5565b6000858152602081207fffffffffffffffffffffffffffffffffffffffffffffffffffffffffffffffe08616915b82811015611e2257888601518255948401946001909101908401611e03565b5085821015611e5e57878501517fffffffffffffffffffffffffffffffffffffffffffffffffffffffffffffffff600388901b60f8161c191681555b5050505050600190811b01905550565b8281526040602082015260006118396040830184611885565b600060208284031215611e9957600080fd5b505191905056fea2646970667358221220a6119d99f2f800d5fb2522ebcbb40c7363693765c849603f8ad08daeae40592264736f6c63430008110033","linkReferences":{}},"methodIdentifiers":{"authorizeWriter(address)":"4fef6a38","cancelOwnershipHandover()":"54d1f13d","completeOwnershipHandover(address)":"f04e283e","extract(uint256)":"85b39782","extractBatch(uint256[])":"dc5c22cd","extractRaw(uint256)":"e9ff6c76","extractRawBatch(uint256[])":"12b11155","get(uint256)":"9507d39a","getBatch(uint256[])":"088dd0b9","getEntities()":"31b933b9","getEntitiesWithValue(bytes)":"b361be46","getEntitiesWithValue(uint256)":"fbdfa1ea","getRaw(uint256)":"dd98e3c9","getRawBatch(uint256[])":"4323c4ef","has(uint256)":"cccf7a8e","id()":"af640d0f","owner()":"8da5cb5b","ownershipHandoverExpiresAt(address)":"fee81cf4","registerWorld(address)":"9d2c76b4","remove(uint256)":"4cc82215","removeBatch(uint256[])":"8482643e","renounceOwnership()":"715018a6","requestOwnershipHandover()":"25692962","set(uint256,bytes)":"8b282947","set(uint256,uint256)":"1ab06ee5","setBatch(uint256[],bytes[])":"13ca8b6a","setBatch(uint256[],uint256[])":"18206453","transferOwnership(address)":"f2fde38b","unauthorizeWriter(address)":"bf4fe57e","world()":"30b67baa","writeAccess(address)":"861eb905"},"id":117}