{"abi":[{"type":"constructor","inputs":[{"name":"_world","type":"address","internalType":"contract IWorld"},{"name":"_components","type":"address","internalType":"address"}],"stateMutability":"nonpayable"},{"type":"function","name":"cancelOwnershipHandover","inputs":[],"outputs":[],"stateMutability":"payable"},{"type":"function","name":"completeOwnershipHandover","inputs":[{"name":"pendingOwner","type":"address","internalType":"address"}],"outputs":[],"stateMutability":"payable"},{"type":"function","name":"deprecate","inputs":[],"outputs":[],"stateMutability":"nonpayable"},{"type":"function","name":"execute","inputs":[{"name":"arguments","type":"bytes","internalType":"bytes"}],"outputs":[{"name":"","type":"bytes","internalType":"bytes"}],"stateMutability":"nonpayable"},{"type":"function","name":"executeTyped","inputs":[{"name":"merchantIndex","type":"uint32","internalType":"uint32"},{"name":"itemIndices","type":"uint32[]","internalType":"uint32[]"},{"name":"amts","type":"uint32[]","internalType":"uint32[]"}],"outputs":[{"name":"","type":"bytes","internalType":"bytes"}],"stateMutability":"nonpayable"},{"type":"function","name":"owner","inputs":[],"outputs":[{"name":"result","type":"address","internalType":"address"}],"stateMutability":"view"},{"type":"function","name":"ownershipHandoverExpiresAt","inputs":[{"name":"pendingOwner","type":"address","internalType":"address"}],"outputs":[{"name":"result","type":"uint256","internalType":"uint256"}],"stateMutability":"view"},{"type":"function","name":"renounceOwnership","inputs":[],"outputs":[],"stateMutability":"payable"},{"type":"function","name":"requestOwnershipHandover","inputs":[],"outputs":[],"stateMutability":"payable"},{"type":"function","name":"transferOwnership","inputs":[{"name":"newOwner","type":"address","internalType":"address"}],"outputs":[],"stateMutability":"payable"},{"type":"event","name":"OwnershipHandoverCanceled","inputs":[{"name":"pendingOwner","type":"address","indexed":true,"internalType":"address"}],"anonymous":false},{"type":"event","name":"OwnershipHandoverRequested","inputs":[{"name":"pendingOwner","type":"address","indexed":true,"internalType":"address"}],"anonymous":false},{"type":"event","name":"OwnershipTransferred","inputs":[{"name":"oldOwner","type":"address","indexed":true,"internalType":"address"},{"name":"newOwner","type":"address","indexed":true,"internalType":"address"}],"anonymous":false},{"type":"event","name":"SystemDeprecated","inputs":[],"anonymous":false},{"type":"error","name":"AlreadyInitialized","inputs":[]},{"type":"error","name":"NewOwnerIsZeroAddress","inputs":[]},{"type":"error","name":"NoHandoverRequest","inputs":[]},{"type":"error","name":"Unauthorized","inputs":[]}],"bytecode":{"object":"0x60c06040523480156200001157600080fd5b506040516200401a3803806200401a83398101604081905262000034916200012f565b81816200004133620000dc565b6001600160a01b03811615620000585780620000bd565b816001600160a01b031663ba62fbe46040518163ffffffff1660e01b8152600401602060405180830381865afa15801562000097573d6000803e3d6000fd5b505050506040513d601f19601f82011682018060405250810190620000bd91906200016e565b6001600160a01b039081166080529190911660a0525062000195915050565b6001600160a01b0316638b78c6d8198190558060007f8be0079c531659141344cd1fd0a4f28419497f9722a3daafe3b4186f6b6457e08180a35b50565b6001600160a01b03811681146200011657600080fd5b600080604083850312156200014357600080fd5b8251620001508162000119565b6020840151909250620001638162000119565b809150509250929050565b6000602082840312156200018157600080fd5b81516200018e8162000119565b9392505050565b60805160a051613e2a620001f0600039600050506000818161021e0152818161024c015281816102e7015281816103ad0152818161045d015281816104ee0152818161055f015281816105d701526106020152613e2a6000f3fe6080604052600436106100b15760003560e01c80637c3f45fb11610069578063f04e283e1161004e578063f04e283e1461018f578063f2fde38b146101a2578063fee81cf4146101b557600080fd5b80637c3f45fb1461011b5780638da5cb5b1461013b57600080fd5b8063256929621161009a578063256929621461010357806354d1f13d1461010b578063715018a61461011357600080fd5b806309c5eabe146100b65780630fcc0c28146100ec575b600080fd5b3480156100c257600080fd5b506100d66100d13660046135e7565b6101f6565b6040516100e391906136d5565b60405180910390f35b3480156100f857600080fd5b50610101610642565b005b610101610675565b6101016106c5565b610101610701565b34801561012757600080fd5b506100d661013636600461378d565b610715565b34801561014757600080fd5b507fffffffffffffffffffffffffffffffffffffffffffffffffffffffff748739275460405173ffffffffffffffffffffffffffffffffffffffff90911681526020016100e3565b61010161019d366004613803565b61074d565b6101016101b0366004613803565b61078d565b3480156101c157600080fd5b506101e86101d0366004613803565b63389a75e1600c908152600091909152602090205490565b6040519081526020016100e3565b6060600080600084806020019051810190610211919061389d565b92509250925060006102437f0000000000000000000000000000000000000000000000000000000000000000336107b4565b905060006102717f000000000000000000000000000000000000000000000000000000000000000086610976565b9050806000036102e2576040517f08c379a000000000000000000000000000000000000000000000000000000000815260206004820152601760248201527f6d65726368616e7420646f6573206e6f7420657869737400000000000000000060448201526064015b60405180910390fd5b61030d7f000000000000000000000000000000000000000000000000000000000000000082846109d9565b610399576040517f08c379a000000000000000000000000000000000000000000000000000000000815260206004820152602b60248201527f4c697374696e672e53656c6c28293a206d75737420626520696e2073616d652060448201527f726f6f6d206173206e706300000000000000000000000000000000000000000060648201526084016102d9565b6000805b85518110156105d15760006103ec7f0000000000000000000000000000000000000000000000000000000000000000898985815181106103df576103df61390a565b6020026020010151610b53565b905080600003610458576040517f08c379a000000000000000000000000000000000000000000000000000000000815260206004820152601660248201527f6c697374696e6720646f6573206e6f742065786973740000000000000000000060448201526064016102d9565b6104837f00000000000000000000000000000000000000000000000000000000000000008287610bb8565b6104e9576040517f08c379a000000000000000000000000000000000000000000000000000000000815260206004820152601c60248201527f4c697374696e672e53656c6c28293a2072657173206e6f74206d65740000000060448201526064016102d9565b61054e7f000000000000000000000000000000000000000000000000000000000000000082878a86815181106105215761052161390a565b60200260200101518a878151811061053b5761053b61390a565b602002602001015163ffffffff16610bda565b6105589084613968565b92506105be7f0000000000000000000000000000000000000000000000000000000000000000868985815181106105915761059161390a565b60200260200101518986815181106105ab576105ab61390a565b602002602001015163ffffffff16610c82565b50806105c98161397b565b91505061039d565b506105fd7f00000000000000000000000000000000000000000000000000000000000000008483610db9565b6106277f000000000000000000000000000000000000000000000000000000000000000084610f1f565b50506040805160208101909152600081529695505050505050565b61064a610f2e565b6040517f56f33501ffd77f9fe44d81e7db7e66a66bdf52ab3e11267cdc6462763604c4c790600090a1565b60006202a30067ffffffffffffffff164201905063389a75e1600c5233600052806020600c2055337fdbf36a107da19e49527a7176a1babf963b4b0ff8cde35ee35d6cd8f1f9ac7e1d600080a250565b63389a75e1600c523360005260006020600c2055337ffa7b8eab7da67f412cc9575ed43464468f9bfbae89d1675917346ca6d8fe3c92600080a2565b610709610f2e565b6107136000610f64565b565b606061074384848460405160200161072f939291906139f4565b6040516020818303038152906040526101f6565b90505b9392505050565b610755610f2e565b63389a75e1600c52806000526020600c20805442111561077d57636f5e88186000526004601cfd5b6000905561078a81610f64565b50565b610795610f2e565b8060601b6107ab57637448fbae6000526004601cfd5b61078a81610f64565b6000806107e1847ff9b94d2a933222e58f90359e8ec33041c5f08d7bc4304958d1c52c21991da575610fca565b6040517fcccf7a8e00000000000000000000000000000000000000000000000000000000815273ffffffffffffffffffffffffffffffffffffffff8581166004830181905292935083169063cccf7a8e90602401602060405180830381865afa158015610852573d6000803e3d6000fd5b505050506040513d601f19601f820116820180604052508101906108769190613a25565b6108dc576040517f08c379a000000000000000000000000000000000000000000000000000000000815260206004820152601b60248201527f4163636f756e743a204f70657261746f72206e6f7420666f756e64000000000060448201526064016102d9565b6040517f9507d39a0000000000000000000000000000000000000000000000000000000081526004810182905273ffffffffffffffffffffffffffffffffffffffff831690639507d39a90602401602060405180830381865afa158015610947573d6000803e3d6000fd5b505050506040513d601f19601f8201168201806040525081019061096b9190613a47565b925050505b92915050565b6000806109828361110e565b90506109c484826040518060400160405280600381526020017f4e504300000000000000000000000000000000000000000000000000000000008152506111a6565b6109cf5760006109d1565b805b949350505050565b600080610a06857f3be9611062b8582cf4b9a4eafe577dbde7dcd7779a1efb46d73e212026c4b0cc610fca565b6040517f9507d39a0000000000000000000000000000000000000000000000000000000081526004810186905290915060009073ffffffffffffffffffffffffffffffffffffffff831690639507d39a90602401602060405180830381865afa158015610a77573d6000803e3d6000fd5b505050506040513d601f19601f82011682018060405250810190610a9b9190613a60565b905063ffffffff81161580610b4957506040517f9507d39a0000000000000000000000000000000000000000000000000000000081526004810185905273ffffffffffffffffffffffffffffffffffffffff831690639507d39a90602401602060405180830381865afa158015610b16573d6000803e3d6000fd5b505050506040513d601f19601f82011682018060405250810190610b3a9190613a60565b63ffffffff168163ffffffff16145b9695505050505050565b600080610b6084846111f4565b9050610ba285826040518060400160405280600781526020017f4c495354494e47000000000000000000000000000000000000000000000000008152506111a6565b610bad576000610baf565b805b95945050505050565b600080610bcd85610bc886611297565b6112d2565b9050610baf85828561139b565b600080610be78787611419565b905060008111610c53576040517f08c379a000000000000000000000000000000000000000000000000000000000815260206004820152601f60248201527f4c697374696e672e53656c6c28293a20696e76616c6964206c697374696e670060448201526064016102d9565b610c5d8184613a7d565b9150610c6b87868686611471565b610c7887866001856114cc565b5095945050505050565b6040805160028082526060820183526000926020830190803683370190505090508281600181518110610cb757610cb761390a565b63ffffffff929092166020928302919091019091015260408051600280825260608201909252600091816020015b6060815260200190600190039081610ce55790505090506040518060400160405280600f81526020017f4954454d5f53454c4c5f544f54414c000000000000000000000000000000000081525081600081518110610d4557610d4561390a565b60200260200101819052506040518060400160405280600981526020017f4954454d5f53454c4c000000000000000000000000000000000000000000000081525081600181518110610d9957610d9961390a565b6020026020010181905250610db18686848487611527565b505050505050565b604080516002808252606082018352600092602083019080368337019050509050600181600081518110610def57610def61390a565b602002602001019063ffffffff16908163ffffffff1681525050600181600181518110610e1e57610e1e61390a565b63ffffffff929092166020928302919091019091015260408051600280825260608201909252600091816020015b6060815260200190600190039081610e4c5790505090506040518060400160405280600c81526020017f4954454d5f524556454e5545000000000000000000000000000000000000000081525081600081518110610eac57610eac61390a565b60200260200101819052506040518060400160405280600a81526020017f4954454d5f544f54414c0000000000000000000000000000000000000000000081525081600181518110610f0057610f0061390a565b6020026020010181905250610f188585848487611527565b5050505050565b610f2a8282426115f3565b5050565b7fffffffffffffffffffffffffffffffffffffffffffffffffffffffff74873927543314610713576382b429006000526004601cfd5b7fffffffffffffffffffffffffffffffffffffffffffffffffffffffff74873927805473ffffffffffffffffffffffffffffffffffffffff9092169182907f8be0079c531659141344cd1fd0a4f28419497f9722a3daafe3b4186f6b6457e0600080a355565b6040517ffbdfa1ea00000000000000000000000000000000000000000000000000000000815260048101829052600090819073ffffffffffffffffffffffffffffffffffffffff85169063fbdfa1ea90602401600060405180830381865afa15801561103a573d6000803e3d6000fd5b505050506040513d6000823e601f3d9081017fffffffffffffffffffffffffffffffffffffffffffffffffffffffffffffffe01682016040526110809190810190613a94565b905080516000036110ed576040517f08c379a000000000000000000000000000000000000000000000000000000000815260206004820152601160248201527f6964206e6f74207265676973746572656400000000000000000000000000000060448201526064016102d9565b6109d1816000815181106111035761110361390a565b602002602001015190565b6040517f4e5043000000000000000000000000000000000000000000000000000000000060208201527fffffffff0000000000000000000000000000000000000000000000000000000060e083901b1660238201526000906027015b604080517fffffffffffffffffffffffffffffffffffffffffffffffffffffffffffffffe0818403018152919052805160209091012092915050565b600061074383836111d7877f5d88ced8d8e079072bf73f49fc87661b519c50d79482941abb852ba2b10909cd610fca565b73ffffffffffffffffffffffffffffffffffffffff1691906116ab565b6040517f6c697374696e670000000000000000000000000000000000000000000000000060208201527fffffffff0000000000000000000000000000000000000000000000000000000060e084811b8216602784015283901b16602b820152600090602f015b604080517fffffffffffffffffffffffffffffffffffffffffffffffffffffffffffffffe081840301815291905280516020909101209392505050565b6040517f6c697374696e672e726571756972656d656e740000000000000000000000000060208201526033810182905260009060530161116a565b60606112fe837fde0f9b459fab67ff56929343dacb07b0c0a1f8509d3184dc6d736f68b80381de610fca565b73ffffffffffffffffffffffffffffffffffffffff1663fbdfa1ea836040518263ffffffff1660e01b815260040161133891815260200190565b600060405180830381865afa158015611355573d6000803e3d6000fd5b505050506040513d6000823e601f3d9081017fffffffffffffffffffffffffffffffffffffffffffffffffffffffffffffffe01682016040526107469190810190613a94565b600082516000036113ae57506001610746565b60006113ba85856116ce565b905060005b845181101561140d576113ec86858484815181106113df576113df61390a565b6020026020010151611c4c565b6113fb57600092505050610746565b806114058161397b565b9150506113bf565b50600195945050505050565b60008061142583611d14565b90506109d181611455867fb25ea67b55901db62e4b14311a8c1ab178fec3948b4b493a711970a50aa2a2e1610fca565b73ffffffffffffffffffffffffffffffffffffffff1690611d4f565b600061147e858585611e2e565b9050610db181836114af887fb25ea67b55901db62e4b14311a8c1ab178fec3948b4b493a711970a50aa2a2e1610fca565b73ffffffffffffffffffffffffffffffffffffffff169190611ffd565b60006114d9858585611e2e565b9050610db1818361150a887fb25ea67b55901db62e4b14311a8c1ab178fec3948b4b493a711970a50aa2a2e1610fca565b73ffffffffffffffffffffffffffffffffffffffff1691906120a5565b6000835167ffffffffffffffff81111561154357611543613523565b60405190808252806020026020018201604052801561156c578160200160208202803683370190505b50905060005b84518110156115e7576115b8868683815181106115915761159161390a565b60200260200101518684815181106115ab576115ab61390a565b60200260200101516120bc565b8282815181106115ca576115ca61390a565b6020908102919091010152806115df8161397b565b915050611572565b50610db1868284612111565b61161d837f342adee7430e96bca6f5d4fe57ba5155dc7271000494e77110c292d51ae887fa610fca565b6040517f1ab06ee5000000000000000000000000000000000000000000000000000000008152600481018490526024810183905273ffffffffffffffffffffffffffffffffffffffff9190911690631ab06ee590604401600060405180830381600087803b15801561168e57600080fd5b505af11580156116a2573d6000803e3d6000fd5b50505050505050565b6000610743826116bb8686612162565b8151602092830120815191909201201490565b606060006116fc847f024accd0d273ef6123273b21662f5cc055a7d58adf98cc1b060edd029af93f7f610fca565b9050600061172a857f787589c9eda599ea35279a6d93e360e8fdc5402255545ca394f5033f5e58ed42610fca565b90506000611758867f62adc4221185187a288916c2630b5e1f37e9437c5b68d55bc59b9debc23f19d0610fca565b90506000611786877fb25ea67b55901db62e4b14311a8c1ab178fec3948b4b493a711970a50aa2a2e1610fca565b90506000865167ffffffffffffffff8111156117a4576117a4613523565b60405190808252806020026020018201604052801561180657816020015b6117f360405180608001604052806060815260200160608152602001600063ffffffff168152602001600081525090565b8152602001906001900390816117c25790505b50905060005b8751811015611c405760405180608001604052808773ffffffffffffffffffffffffffffffffffffffff16639507d39a8b858151811061184e5761184e61390a565b60200260200101516040518263ffffffff1660e01b815260040161187491815260200190565b600060405180830381865afa158015611891573d6000803e3d6000fd5b505050506040513d6000823e601f3d9081017fffffffffffffffffffffffffffffffffffffffffffffffffffffffffffffffe01682016040526118d79190810190613b55565b81526020018673ffffffffffffffffffffffffffffffffffffffff16639507d39a8b858151811061190a5761190a61390a565b60200260200101516040518263ffffffff1660e01b815260040161193091815260200190565b600060405180830381865afa15801561194d573d6000803e3d6000fd5b505050506040513d6000823e601f3d9081017fffffffffffffffffffffffffffffffffffffffffffffffffffffffffffffffe01682016040526119939190810190613b55565b81526020018573ffffffffffffffffffffffffffffffffffffffff1663cccf7a8e8b85815181106119c6576119c661390a565b60200260200101516040518263ffffffff1660e01b81526004016119ec91815260200190565b602060405180830381865afa158015611a09573d6000803e3d6000fd5b505050506040513d601f19601f82011682018060405250810190611a2d9190613a25565b611a38576000611acd565b8573ffffffffffffffffffffffffffffffffffffffff16639507d39a8b8581518110611a6657611a6661390a565b60200260200101516040518263ffffffff1660e01b8152600401611a8c91815260200190565b602060405180830381865afa158015611aa9573d6000803e3d6000fd5b505050506040513d601f19601f82011682018060405250810190611acd9190613a60565b63ffffffff1681526020018473ffffffffffffffffffffffffffffffffffffffff1663cccf7a8e8b8581518110611b0657611b0661390a565b60200260200101516040518263ffffffff1660e01b8152600401611b2c91815260200190565b602060405180830381865afa158015611b49573d6000803e3d6000fd5b505050506040513d601f19601f82011682018060405250810190611b6d9190613a25565b611b78576000611c0d565b8473ffffffffffffffffffffffffffffffffffffffff16639507d39a8b8581518110611ba657611ba661390a565b60200260200101516040518263ffffffff1660e01b8152600401611bcc91815260200190565b602060405180830381865afa158015611be9573d6000803e3d6000fd5b505050506040513d601f19601f82011682018060405250810190611c0d9190613a47565b815250828281518110611c2257611c2261390a565b60200260200101819052508080611c389061397b565b91505061180c565b50979650505050505050565b6000806000611c5a84612264565b90925090506000826003811115611c7357611c73613b9e565b03611c8d57611c848686868461227d565b92505050610746565b6003826003811115611ca157611ca1613b9e565b03611cb257611c848686868461232f565b6040517f08c379a000000000000000000000000000000000000000000000000000000000815260206004820152601b60248201527f48616e646c6572206e6f742079657420696d706c656d656e746564000000000060448201526064016102d9565b6040517f6c697374696e672e73656c6c00000000000000000000000000000000000000006020820152602c8101829052600090604c0161116a565b6040517fdd98e3c900000000000000000000000000000000000000000000000000000000815260048101829052600090819073ffffffffffffffffffffffffffffffffffffffff85169063dd98e3c990602401600060405180830381865afa158015611dbf573d6000803e3d6000fd5b505050506040513d6000823e601f3d9081017fffffffffffffffffffffffffffffffffffffffffffffffffffffffffffffffe0168201604052611e059190810190613b55565b90508051600003611e1a576000915050610970565b808060200190518101906109d19190613a47565b6000611e3a83836123e6565b90506000611e7e85836040518060400160405280600981526020017f494e56454e544f5259000000000000000000000000000000000000000000000081525061244d565b905080611ff557611eaf857fd3da495fedd385ac62763d969054ffb19f1777e687374cceb91f1237ddd6bfb3610fca565b6040517fd923c3c40000000000000000000000000000000000000000000000000000000081526004810184905263ffffffff8516602482015273ffffffffffffffffffffffffffffffffffffffff919091169063d923c3c490604401600060405180830381600087803b158015611f2557600080fd5b505af1158015611f39573d6000803e3d6000fd5b50505050611f6a857f1ee9964c9c16bbb74f9e401f1ab450f99b2343a602036525f23f0da350bc74d060001c610fca565b6040517f1ab06ee5000000000000000000000000000000000000000000000000000000008152600481018490526024810186905273ffffffffffffffffffffffffffffffffffffffff9190911690631ab06ee5906044015b600060405180830381600087803b158015611fdc57600080fd5b505af1158015611ff0573d6000803e3d6000fd5b505050505b509392505050565b60008161200a8585611d4f565b6120149190613bcd565b6040517f1ab06ee5000000000000000000000000000000000000000000000000000000008152600481018590526024810182905290915073ffffffffffffffffffffffffffffffffffffffff851690631ab06ee590604401600060405180830381600087803b15801561208657600080fd5b505af115801561209a573d6000803e3d6000fd5b505050509392505050565b6000816120b28585611d4f565b6120149190613968565b60008383836040516020016120d393929190613be0565b604080517fffffffffffffffffffffffffffffffffffffffffffffffffffffffffffffffe08184030181529190528051602090910120949350505050565b61215d8282612140867fb25ea67b55901db62e4b14311a8c1ab178fec3948b4b493a711970a50aa2a2e1610fca565b73ffffffffffffffffffffffffffffffffffffffff1691906124fb565b505050565b6040517fdd98e3c90000000000000000000000000000000000000000000000000000000081526004810182905260609060009073ffffffffffffffffffffffffffffffffffffffff85169063dd98e3c990602401600060405180830381865afa1580156121d3573d6000803e3d6000fd5b505050506040513d6000823e601f3d9081017fffffffffffffffffffffffffffffffffffffffffffffffffffffffffffffffe01682016040526122199190810190613b55565b9050805160000361223a575050604080516020810190915260008152610970565b808060200190518101906109d19190613b55565b8051602091820120825192909101919091201490565b6000806122748360200151612544565b91509150915091565b815160408084015190517f81d0c0f1000000000000000000000000000000000000000000000000000000008152600092839273__$fe8c06f2024370067115fbcd33d61de1b7$__926381d0c0f1926122dd928b928b929190600401613c58565b602060405180830381865af41580156122fa573d6000803e3d6000fd5b505050506040513d601f19601f8201168201806040525081019061231e9190613a47565b9050610b4981856060015185612ac5565b600061234a8585856000015186604001518760600151612b90565b9050600482600481111561236057612360613b9e565b0361236b57156109d1565b600382600481111561237f5761237f613b9e565b146109d1576040517f08c379a000000000000000000000000000000000000000000000000000000000815260206004820152601b60248201527f556e6b6e6f776e20626f6f6c206c6f676963206f70657261746f72000000000060448201526064016102d9565b6040517f696e76656e746f72792e696e7374616e636500000000000000000000000000006020820152603281018390527fffffffff0000000000000000000000000000000000000000000000000000000060e083901b16605282015260009060560161125a565b60008061247a857f5d88ced8d8e079072bf73f49fc87661b519c50d79482941abb852ba2b10909cd610fca565b90506124a0836116bb73ffffffffffffffffffffffffffffffffffffffff841687612162565b915081611ff5576040517f6437197700000000000000000000000000000000000000000000000000000000815273ffffffffffffffffffffffffffffffffffffffff821690636437197790611fc29087908790600401613ca4565b60005b825181101561253e5761252b8484838151811061251d5761251d61390a565b6020026020010151846120a5565b50806125368161397b565b9150506124fe565b50505050565b6000806000806125926040518060400160405280600481526020017f435552520000000000000000000000000000000000000000000000000000000081525086612eb590919063ffffffff16565b156125a05760009150612761565b6040805180820190915260038082527f494e43000000000000000000000000000000000000000000000000000000000060209283015290860181902086517f2294515cf577a807f70c30a4bd66fb198b63ab765b7fa768b080fe8cda2c38889190911491111516156126155760019150612761565b6040805180820190915260038082527f444543000000000000000000000000000000000000000000000000000000000060209283015290860181902086517fc8117e3bb0a5365f1188f80e2df06c2b6996766cd83da2c646f5f9e14dcfbd1791909114911115161561268a5760029150612761565b6040805180820190915260048082527f424f4f4c0000000000000000000000000000000000000000000000000000000060209283015290860181902086517fda3fe7adc6f9d250974b3b45d024284953a3a67841a37ae5029171eb5f1bc3099190911491111516156126ff5760039150612761565b6040517f08c379a000000000000000000000000000000000000000000000000000000000815260206004820152601960248201527f556e6b6e6f776e20636f6e646974696f6e2068616e646c65720000000000000060448201526064016102d9565b6040805180820190915260038082527f4d494e00000000000000000000000000000000000000000000000000000000006020928301528651808211157ffffffffffffffffffffffffffffffffffffffffffffffffffffffffffffffffd90910181028801909201207f871eebeccaa432de5f38a72c534eb2fa59c2c3b49e3c6629c16c11981ee74f2a1416156127f957506000612abb565b6040805180820190915260038082527f4d415800000000000000000000000000000000000000000000000000000000006020928301528651808211157ffffffffffffffffffffffffffffffffffffffffffffffffffffffffffffffffd90910181028801909201207fa42787877dd247913f847bc654d767d1919585674d8f1a26ea00084043233daa14161561289157506001612abb565b6040805180820190915260058082527f455155414c0000000000000000000000000000000000000000000000000000006020928301528651808211157ffffffffffffffffffffffffffffffffffffffffffffffffffffffffffffffffb90910181028801909201207f3a06e9850b6d2ffe1ee040a5349ff67cf64f6914074848a74304f81130b9072514161561292957506002612abb565b6040805180820190915260028082527f49530000000000000000000000000000000000000000000000000000000000006020928301528651808211157ffffffffffffffffffffffffffffffffffffffffffffffffffffffffffffffffe90910181028801909201207fa0f4911f5dff37b9a43a54645c34f34bf9127e9dac511b186b8529567dfaf3dc1416156129c157506003612abb565b6040805180820190915260038082527f4e4f5400000000000000000000000000000000000000000000000000000000006020928301528651808211157ffffffffffffffffffffffffffffffffffffffffffffffffffffffffffffffffd90910181028801909201207f4293f9bf526b0205217be3088c05680693c75440f7bce1f1b15fae3c5187ae12141615612a5957506004612abb565b6040517f08c379a000000000000000000000000000000000000000000000000000000000815260206004820152601a60248201527f556e6b6e6f776e20636f6e646974696f6e206f70657261746f7200000000000060448201526064016102d9565b9094909350915050565b600080826004811115612ada57612ada613b9e565b03612ae9575081831015610746565b6001826004811115612afd57612afd613b9e565b03612b0c575081831115610746565b6002826004811115612b2057612b20613b9e565b03612b2e5750828214610746565b6040517f08c379a000000000000000000000000000000000000000000000000000000000815260206004820152601660248201527f556e6b6e6f776e206c6f676963206f70657261746f720000000000000000000060448201526064016102d9565b6000612bda6040518060400160405280600d81526020017f434f4d504c4554455f434f4d50000000000000000000000000000000000000008152508561224e90919063ffffffff16565b15612c8b57612c09867f9522897410526014691d8a863fac7bd2e048ab08176b6e3c6fa8a1f5195164bb610fca565b73ffffffffffffffffffffffffffffffffffffffff1663cccf7a8e836040518263ffffffff1660e01b8152600401612c4391815260200190565b602060405180830381865afa158015612c60573d6000803e3d6000fd5b505050506040513d601f19601f82011682018060405250810190612c849190613a25565b9050610baf565b60408051808201909152600581527f51554553540000000000000000000000000000000000000000000000000000006020918201528451908501207f6dd88e0a32c18c14d5a81f049d6fd353acc17f8290c55d8a716d975def4edf1e03612cf757612c84868487612ecf565b60408051808201909152600481527f524f4f4d000000000000000000000000000000000000000000000000000000006020918201528451908501207fd095a6ae2bc7e94153e86beac7414b2145c7585cac0a0d923e1a4df8247e23a203612d77578263ffffffff16612d698787612ef8565b63ffffffff16149050610baf565b60408051808201909152600581527f50484153450000000000000000000000000000000000000000000000000000006020918201528451908501207fc7321657fadb62104cd2b0331a69790ec83e40b1c9f218c07d669437bea8f9ad03612de8578263ffffffff16612d6942612f9f565b60408051808201909152600881527f434f4f4c444f574e0000000000000000000000000000000000000000000000006020918201528451908501207f74d16beb57bf3f9ccaccecb6978a7e61e312e12eed3a6e57d8fb05427d6bab0f03612e5357612c848686612faa565b6040517f08c379a000000000000000000000000000000000000000000000000000000000815260206004820152601b60248201527f556e6b6e6f776e20626f6f6c20636f6e646974696f6e2074797065000000000060448201526064016102d9565b805160209182018190209183018190209251101591141690565b600080612edd858486612fd1565b905080600003612eee576000610baf565b610baf8582612fea565b6000612f24837f3be9611062b8582cf4b9a4eafe577dbde7dcd7779a1efb46d73e212026c4b0cc610fca565b73ffffffffffffffffffffffffffffffffffffffff16639507d39a836040518263ffffffff1660e01b8152600401612f5e91815260200190565b602060405180830381865afa158015612f7b573d6000803e3d6000fd5b505050506040513d601f19601f820116820180604052508101906107469190613a60565b600061097082613091565b600080612fb784846130c4565b90506000612fc585856130f9565b90911315949350505050565b600080612fde83856131b1565b9050610ba28582613218565b6000613016837f9522897410526014691d8a863fac7bd2e048ab08176b6e3c6fa8a1f5195164bb610fca565b73ffffffffffffffffffffffffffffffffffffffff1663cccf7a8e836040518263ffffffff1660e01b815260040161305091815260200190565b602060405180830381865afa15801561306d573d6000803e3d6000fd5b505050506040513d601f19601f820116820180604052508101906107469190613a25565b60008060246130a2610e1085613cec565b6130ac9190613d00565b90506130b9600c82613cec565b610746906001613968565b60006107466130f3847f5f9759544a286ad42df1aa1cab6dca162b48885d3060ac74aecbf8ff4483ad1b610fca565b8361325a565b60008061314361313e856040518060400160405280601681526020017f4b414d495f5354414e444152445f434f4f4c444f574e00000000000000000000815250613292565b6132aa565b9050600061318785856040518060400160405280601381526020017f53544e445f434f4f4c444f574e5f5348494654000000000000000000000000008152506132df565b905060006131958284613d14565b9050600081126131a55780610b49565b60009695505050505050565b6040517f72656769737472792e717565737400000000000000000000000000000000000060208201527fffffffff0000000000000000000000000000000000000000000000000000000060e084901b16602e8201526032810182905260009060520161125a565b600061074683836040518060400160405280600581526020017f51554553540000000000000000000000000000000000000000000000000000008152506111a6565b600061327f61313e73ffffffffffffffffffffffffffffffffffffffff851684611d4f565b613288426132aa565b6107469190613d3c565b60008061329e83613446565b90506109d18482613459565b60007f800000000000000000000000000000000000000000000000000000000000000082106132db576132db613500565b5090565b6000806132ec848461350e565b9050600061331a867f50d80ec5b1169fa90f6a93a06362786b45e53ec8c05572cba38875a52f86a3bc610fca565b6040517fcccf7a8e0000000000000000000000000000000000000000000000000000000081526004810184905290915073ffffffffffffffffffffffffffffffffffffffff82169063cccf7a8e90602401602060405180830381865afa158015613388573d6000803e3d6000fd5b505050506040513d601f19601f820116820180604052508101906133ac9190613a25565b6133b7576000610b49565b6040517f9507d39a0000000000000000000000000000000000000000000000000000000081526004810183905273ffffffffffffffffffffffffffffffffffffffff821690639507d39a90602401602060405180830381865afa158015613422573d6000803e3d6000fd5b505050506040513d601f19601f82011682018060405250810190610b499190613a47565b60008160405160200161116a9190613d63565b6000613485837fb25ea67b55901db62e4b14311a8c1ab178fec3948b4b493a711970a50aa2a2e1610fca565b73ffffffffffffffffffffffffffffffffffffffff16639507d39a836040518263ffffffff1660e01b81526004016134bf91815260200190565b602060405180830381865afa1580156134dc573d6000803e3d6000fd5b505050506040513d601f19601f820116820180604052508101906107469190613a47565b6335278d126000526004601cfd5b6000828260405160200161125a929190613da8565b7f4e487b7100000000000000000000000000000000000000000000000000000000600052604160045260246000fd5b604051601f82017fffffffffffffffffffffffffffffffffffffffffffffffffffffffffffffffe016810167ffffffffffffffff8111828210171561359957613599613523565b604052919050565b600067ffffffffffffffff8211156135bb576135bb613523565b50601f017fffffffffffffffffffffffffffffffffffffffffffffffffffffffffffffffe01660200190565b6000602082840312156135f957600080fd5b813567ffffffffffffffff81111561361057600080fd5b8201601f8101841361362157600080fd5b803561363461362f826135a1565b613552565b81815285602083850101111561364957600080fd5b81602084016020830137600091810160200191909152949350505050565b60005b8381101561368257818101518382015260200161366a565b50506000910152565b600081518084526136a3816020860160208601613667565b601f017fffffffffffffffffffffffffffffffffffffffffffffffffffffffffffffffe0169290920160200192915050565b602081526000610746602083018461368b565b63ffffffff8116811461078a57600080fd5b600067ffffffffffffffff82111561371457613714613523565b5060051b60200190565b600082601f83011261372f57600080fd5b8135602061373f61362f836136fa565b82815260059290921b8401810191818101908684111561375e57600080fd5b8286015b84811015613782578035613775816136e8565b8352918301918301613762565b509695505050505050565b6000806000606084860312156137a257600080fd5b83356137ad816136e8565b9250602084013567ffffffffffffffff808211156137ca57600080fd5b6137d68783880161371e565b935060408601359150808211156137ec57600080fd5b506137f98682870161371e565b9150509250925092565b60006020828403121561381557600080fd5b813573ffffffffffffffffffffffffffffffffffffffff811681146109cf57600080fd5b600082601f83011261384a57600080fd5b8151602061385a61362f836136fa565b82815260059290921b8401810191818101908684111561387957600080fd5b8286015b84811015613782578051613890816136e8565b835291830191830161387d565b6000806000606084860312156138b257600080fd5b83516138bd816136e8565b602085015190935067ffffffffffffffff808211156138db57600080fd5b6138e787838801613839565b935060408601519150808211156138fd57600080fd5b506137f986828701613839565b7f4e487b7100000000000000000000000000000000000000000000000000000000600052603260045260246000fd5b7f4e487b7100000000000000000000000000000000000000000000000000000000600052601160045260246000fd5b8082018082111561097057610970613939565b60007fffffffffffffffffffffffffffffffffffffffffffffffffffffffffffffffff82036139ac576139ac613939565b5060010190565b600081518084526020808501945080840160005b838110156139e957815163ffffffff16875295820195908201906001016139c7565b509495945050505050565b63ffffffff84168152606060208201526000613a1360608301856139b3565b8281036040840152610b4981856139b3565b600060208284031215613a3757600080fd5b815180151581146109cf57600080fd5b600060208284031215613a5957600080fd5b5051919050565b600060208284031215613a7257600080fd5b81516109cf816136e8565b808202811582820484141761097057610970613939565b60006020808385031215613aa757600080fd5b825167ffffffffffffffff811115613abe57600080fd5b8301601f81018513613acf57600080fd5b8051613add61362f826136fa565b81815260059190911b82018301908381019087831115613afc57600080fd5b928401925b82841015613b1a57835182529284019290840190613b01565b979650505050505050565b6000613b3361362f846135a1565b9050828152838383011115613b4757600080fd5b610746836020830184613667565b600060208284031215613b6757600080fd5b815167ffffffffffffffff811115613b7e57600080fd5b8201601f81018413613b8f57600080fd5b6109d184825160208401613b25565b7f4e487b7100000000000000000000000000000000000000000000000000000000600052602160045260246000fd5b8181038181111561097057610970613939565b7f69732e646174610000000000000000000000000000000000000000000000000081528360078201527fffffffff000000000000000000000000000000000000000000000000000000008360e01b16602782015260008251613c4981602b850160208701613667565b91909101602b01949350505050565b73ffffffffffffffffffffffffffffffffffffffff85168152836020820152608060408201526000613c8d608083018561368b565b905063ffffffff8316606083015295945050505050565b828152604060208201526000610743604083018461368b565b7f4e487b7100000000000000000000000000000000000000000000000000000000600052601260045260246000fd5b600082613cfb57613cfb613cbd565b500490565b600082613d0f57613d0f613cbd565b500690565b8082018281126000831280158216821582161715613d3457613d34613939565b505092915050565b8181036000831280158383131683831282161715613d5c57613d5c613939565b5092915050565b7f69732e636f6e6669670000000000000000000000000000000000000000000000815260008251613d9b816009850160208701613667565b9190910160090192915050565b7f626f6e7573000000000000000000000000000000000000000000000000000000815282600582015260008251613de6816025850160208701613667565b91909101602501939250505056fea2646970667358221220055268f9ddb8d5d1cc5f5fb077b223244b36d20c633ad27a32799b787536390e64736f6c63430008110033","linkReferences":{"src/libraries/utils/LibGetter.sol":{"LibGetter":[{"start":9377,"length":20}]}}},"methodIdentifiers":{"cancelOwnershipHandover()":"54d1f13d","completeOwnershipHandover(address)":"f04e283e","deprecate()":"0fcc0c28","execute(bytes)":"09c5eabe","executeTyped(uint32,uint32[],uint32[])":"7c3f45fb","owner()":"8da5cb5b","ownershipHandoverExpiresAt(address)":"fee81cf4","renounceOwnership()":"715018a6","requestOwnershipHandover()":"25692962","transferOwnership(address)":"f2fde38b"},"id":281}