{"abi":[{"type":"constructor","inputs":[{"name":"_world","type":"address","internalType":"contract IWorld"},{"name":"_components","type":"address","internalType":"address"}],"stateMutability":"nonpayable"},{"type":"function","name":"cancelOwnershipHandover","inputs":[],"outputs":[],"stateMutability":"payable"},{"type":"function","name":"completeOwnershipHandover","inputs":[{"name":"pendingOwner","type":"address","internalType":"address"}],"outputs":[],"stateMutability":"payable"},{"type":"function","name":"deprecate","inputs":[],"outputs":[],"stateMutability":"nonpayable"},{"type":"function","name":"execute","inputs":[{"name":"arguments","type":"bytes","internalType":"bytes"}],"outputs":[{"name":"","type":"bytes","internalType":"bytes"}],"stateMutability":"nonpayable"},{"type":"function","name":"executeTyped","inputs":[{"name":"merchantIndex","type":"uint32","internalType":"uint32"},{"name":"itemIndices","type":"uint32[]","internalType":"uint32[]"},{"name":"amts","type":"uint32[]","internalType":"uint32[]"}],"outputs":[{"name":"","type":"bytes","internalType":"bytes"}],"stateMutability":"nonpayable"},{"type":"function","name":"owner","inputs":[],"outputs":[{"name":"result","type":"address","internalType":"address"}],"stateMutability":"view"},{"type":"function","name":"ownershipHandoverExpiresAt","inputs":[{"name":"pendingOwner","type":"address","internalType":"address"}],"outputs":[{"name":"result","type":"uint256","internalType":"uint256"}],"stateMutability":"view"},{"type":"function","name":"renounceOwnership","inputs":[],"outputs":[],"stateMutability":"payable"},{"type":"function","name":"requestOwnershipHandover","inputs":[],"outputs":[],"stateMutability":"payable"},{"type":"function","name":"transferOwnership","inputs":[{"name":"newOwner","type":"address","internalType":"address"}],"outputs":[],"stateMutability":"payable"},{"type":"event","name":"OwnershipHandoverCanceled","inputs":[{"name":"pendingOwner","type":"address","indexed":true,"internalType":"address"}],"anonymous":false},{"type":"event","name":"OwnershipHandoverRequested","inputs":[{"name":"pendingOwner","type":"address","indexed":true,"internalType":"address"}],"anonymous":false},{"type":"event","name":"OwnershipTransferred","inputs":[{"name":"oldOwner","type":"address","indexed":true,"internalType":"address"},{"name":"newOwner","type":"address","indexed":true,"internalType":"address"}],"anonymous":false},{"type":"event","name":"SystemDeprecated","inputs":[],"anonymous":false},{"type":"error","name":"AlreadyInitialized","inputs":[]},{"type":"error","name":"NewOwnerIsZeroAddress","inputs":[]},{"type":"error","name":"NoHandoverRequest","inputs":[]},{"type":"error","name":"Unauthorized","inputs":[]}],"bytecode":{"object":"0x60c06040523480156200001157600080fd5b50604051620043b2380380620043b283398101604081905262000034916200012f565b81816200004133620000dc565b6001600160a01b03811615620000585780620000bd565b816001600160a01b031663ba62fbe46040518163ffffffff1660e01b8152600401602060405180830381865afa15801562000097573d6000803e3d6000fd5b505050506040513d601f19601f82011682018060405250810190620000bd91906200016e565b6001600160a01b039081166080529190911660a0525062000195915050565b6001600160a01b0316638b78c6d8198190558060007f8be0079c531659141344cd1fd0a4f28419497f9722a3daafe3b4186f6b6457e08180a35b50565b6001600160a01b03811681146200011657600080fd5b600080604083850312156200014357600080fd5b8251620001508162000119565b6020840151909250620001638162000119565b809150509250929050565b6000602082840312156200018157600080fd5b81516200018e8162000119565b9392505050565b60805160a0516141bb620001f7600039600050506000818161021e0152818161024c015281816102e7015281816103ad0152818161045d015281816104ee0152818161055f015281816105d701528181610602015261066301526141bb6000f3fe6080604052600436106100b15760003560e01c80637c3f45fb11610069578063f04e283e1161004e578063f04e283e1461018f578063f2fde38b146101a2578063fee81cf4146101b557600080fd5b80637c3f45fb1461011b5780638da5cb5b1461013b57600080fd5b8063256929621161009a578063256929621461010357806354d1f13d1461010b578063715018a61461011357600080fd5b806309c5eabe146100b65780630fcc0c28146100ec575b600080fd5b3480156100c257600080fd5b506100d66100d13660046138d9565b6101f6565b6040516100e391906139c7565b60405180910390f35b3480156100f857600080fd5b506101016106a3565b005b6101016106d6565b610101610726565b610101610762565b34801561012757600080fd5b506100d6610136366004613a7f565b610776565b34801561014757600080fd5b507fffffffffffffffffffffffffffffffffffffffffffffffffffffffff748739275460405173ffffffffffffffffffffffffffffffffffffffff90911681526020016100e3565b61010161019d366004613af5565b6107ae565b6101016101b0366004613af5565b6107ee565b3480156101c157600080fd5b506101e86101d0366004613af5565b63389a75e1600c908152600091909152602090205490565b6040519081526020016100e3565b60606000806000848060200190518101906102119190613b8f565b92509250925060006102437f000000000000000000000000000000000000000000000000000000000000000033610815565b905060006102717f0000000000000000000000000000000000000000000000000000000000000000866109d7565b9050806000036102e2576040517f08c379a000000000000000000000000000000000000000000000000000000000815260206004820152601760248201527f6d65726368616e7420646f6573206e6f7420657869737400000000000000000060448201526064015b60405180910390fd5b61030d7f00000000000000000000000000000000000000000000000000000000000000008284610a3a565b610399576040517f08c379a000000000000000000000000000000000000000000000000000000000815260206004820152602a60248201527f4c697374696e672e42757928293a206d75737420626520696e2073616d65207260448201527f6f6f6d206173206e70630000000000000000000000000000000000000000000060648201526084016102d9565b6000805b85518110156105d15760006103ec7f0000000000000000000000000000000000000000000000000000000000000000898985815181106103df576103df613bfc565b6020026020010151610bb4565b905080600003610458576040517f08c379a000000000000000000000000000000000000000000000000000000000815260206004820152601660248201527f6c697374696e6720646f6573206e6f742065786973740000000000000000000060448201526064016102d9565b6104837f00000000000000000000000000000000000000000000000000000000000000008287610c19565b6104e9576040517f08c379a000000000000000000000000000000000000000000000000000000000815260206004820152601b60248201527f4c697374696e672e42757928293a2072657173206e6f74206d6574000000000060448201526064016102d9565b61054e7f000000000000000000000000000000000000000000000000000000000000000082878a868151811061052157610521613bfc565b60200260200101518a878151811061053b5761053b613bfc565b602002602001015163ffffffff16610c3b565b6105589084613c5a565b92506105be7f00000000000000000000000000000000000000000000000000000000000000008689858151811061059157610591613bfc565b60200260200101518986815181106105ab576105ab613bfc565b602002602001015163ffffffff16610ce3565b50806105c981613c6d565b91505061039d565b506105fd7f00000000000000000000000000000000000000000000000000000000000000008483610e9e565b61065e7f0000000000000000000000000000000000000000000000000000000000000000846040518060400160405280600b81526020017f544f54414c5f5350454e5400000000000000000000000000000000000000000081525084610ee6565b6106887f000000000000000000000000000000000000000000000000000000000000000084610f18565b50506040805160208101909152600081529695505050505050565b6106ab610f27565b6040517f56f33501ffd77f9fe44d81e7db7e66a66bdf52ab3e11267cdc6462763604c4c790600090a1565b60006202a30067ffffffffffffffff164201905063389a75e1600c5233600052806020600c2055337fdbf36a107da19e49527a7176a1babf963b4b0ff8cde35ee35d6cd8f1f9ac7e1d600080a250565b63389a75e1600c523360005260006020600c2055337ffa7b8eab7da67f412cc9575ed43464468f9bfbae89d1675917346ca6d8fe3c92600080a2565b61076a610f27565b6107746000610f5d565b565b60606107a484848460405160200161079093929190613ce6565b6040516020818303038152906040526101f6565b90505b9392505050565b6107b6610f27565b63389a75e1600c52806000526020600c2080544211156107de57636f5e88186000526004601cfd5b600090556107eb81610f5d565b50565b6107f6610f27565b8060601b61080c57637448fbae6000526004601cfd5b6107eb81610f5d565b600080610842847ff9b94d2a933222e58f90359e8ec33041c5f08d7bc4304958d1c52c21991da575610fc3565b6040517fcccf7a8e00000000000000000000000000000000000000000000000000000000815273ffffffffffffffffffffffffffffffffffffffff8581166004830181905292935083169063cccf7a8e90602401602060405180830381865afa1580156108b3573d6000803e3d6000fd5b505050506040513d601f19601f820116820180604052508101906108d79190613d17565b61093d576040517f08c379a000000000000000000000000000000000000000000000000000000000815260206004820152601b60248201527f4163636f756e743a204f70657261746f72206e6f7420666f756e64000000000060448201526064016102d9565b6040517f9507d39a0000000000000000000000000000000000000000000000000000000081526004810182905273ffffffffffffffffffffffffffffffffffffffff831690639507d39a90602401602060405180830381865afa1580156109a8573d6000803e3d6000fd5b505050506040513d601f19601f820116820180604052508101906109cc9190613d39565b925050505b92915050565b6000806109e383611107565b9050610a2584826040518060400160405280600381526020017f4e5043000000000000000000000000000000000000000000000000000000000081525061119f565b610a30576000610a32565b805b949350505050565b600080610a67857f3be9611062b8582cf4b9a4eafe577dbde7dcd7779a1efb46d73e212026c4b0cc610fc3565b6040517f9507d39a0000000000000000000000000000000000000000000000000000000081526004810186905290915060009073ffffffffffffffffffffffffffffffffffffffff831690639507d39a90602401602060405180830381865afa158015610ad8573d6000803e3d6000fd5b505050506040513d601f19601f82011682018060405250810190610afc9190613d52565b905063ffffffff81161580610baa57506040517f9507d39a0000000000000000000000000000000000000000000000000000000081526004810185905273ffffffffffffffffffffffffffffffffffffffff831690639507d39a90602401602060405180830381865afa158015610b77573d6000803e3d6000fd5b505050506040513d601f19601f82011682018060405250810190610b9b9190613d52565b63ffffffff168163ffffffff16145b9695505050505050565b600080610bc184846111ed565b9050610c0385826040518060400160405280600781526020017f4c495354494e470000000000000000000000000000000000000000000000000081525061119f565b610c0e576000610c10565b805b95945050505050565b600080610c2e85610c2986611290565b6112cb565b9050610c10858285611394565b600080610c488787611412565b905060008111610cb4576040517f08c379a000000000000000000000000000000000000000000000000000000000815260206004820152601e60248201527f4c697374696e672e42757928293a20696e76616c6964206c697374696e67000060448201526064016102d9565b610cbe8184613d6f565b9150610ccc8786868661146a565b610cd987866001856114c5565b5095945050505050565b60408051600380825260808201909252600091602082016060803683370190505090508281600181518110610d1a57610d1a613bfc565b602002602001019063ffffffff16908163ffffffff16815250508281600281518110610d4857610d48613bfc565b63ffffffff929092166020928302919091019091015260408051600380825260808201909252600091816020015b6060815260200190600190039081610d765790505090506040518060400160405280600e81526020017f4954454d5f4255595f544f54414c00000000000000000000000000000000000081525081600081518110610dd657610dd6613bfc565b60200260200101819052506040518060400160405280600881526020017f4954454d5f42555900000000000000000000000000000000000000000000000081525081600181518110610e2a57610e2a613bfc565b60200260200101819052506040518060400160405280600a81526020017f4954454d5f544f54414c0000000000000000000000000000000000000000000081525081600281518110610e7e57610e7e613bfc565b6020026020010181905250610e968686848487611520565b505050505050565b610ee1838360016040518060400160405280600a81526020017f4954454d5f5350454e4400000000000000000000000000000000000000000000815250856115f3565b505050565b6000610ef18561160d565b90506000610f0085838661164e565b9050610e96868287610f1288876116a3565b876116b8565b610f238282426116f3565b5050565b7fffffffffffffffffffffffffffffffffffffffffffffffffffffffff74873927543314610774576382b429006000526004601cfd5b7fffffffffffffffffffffffffffffffffffffffffffffffffffffffff74873927805473ffffffffffffffffffffffffffffffffffffffff9092169182907f8be0079c531659141344cd1fd0a4f28419497f9722a3daafe3b4186f6b6457e0600080a355565b6040517ffbdfa1ea00000000000000000000000000000000000000000000000000000000815260048101829052600090819073ffffffffffffffffffffffffffffffffffffffff85169063fbdfa1ea90602401600060405180830381865afa158015611033573d6000803e3d6000fd5b505050506040513d6000823e601f3d9081017fffffffffffffffffffffffffffffffffffffffffffffffffffffffffffffffe01682016040526110799190810190613d86565b905080516000036110e6576040517f08c379a000000000000000000000000000000000000000000000000000000000815260206004820152601160248201527f6964206e6f74207265676973746572656400000000000000000000000000000060448201526064016102d9565b610a32816000815181106110fc576110fc613bfc565b602002602001015190565b6040517f4e5043000000000000000000000000000000000000000000000000000000000060208201527fffffffff0000000000000000000000000000000000000000000000000000000060e083901b1660238201526000906027015b604080517fffffffffffffffffffffffffffffffffffffffffffffffffffffffffffffffe0818403018152919052805160209091012092915050565b60006107a483836111d0877f5d88ced8d8e079072bf73f49fc87661b519c50d79482941abb852ba2b10909cd610fc3565b73ffffffffffffffffffffffffffffffffffffffff1691906117ab565b6040517f6c697374696e670000000000000000000000000000000000000000000000000060208201527fffffffff0000000000000000000000000000000000000000000000000000000060e084811b8216602784015283901b16602b820152600090602f015b604080517fffffffffffffffffffffffffffffffffffffffffffffffffffffffffffffffe081840301815291905280516020909101209392505050565b6040517f6c697374696e672e726571756972656d656e7400000000000000000000000000602082015260338101829052600090605301611163565b60606112f7837fde0f9b459fab67ff56929343dacb07b0c0a1f8509d3184dc6d736f68b80381de610fc3565b73ffffffffffffffffffffffffffffffffffffffff1663fbdfa1ea836040518263ffffffff1660e01b815260040161133191815260200190565b600060405180830381865afa15801561134e573d6000803e3d6000fd5b505050506040513d6000823e601f3d9081017fffffffffffffffffffffffffffffffffffffffffffffffffffffffffffffffe01682016040526107a79190810190613d86565b600082516000036113a7575060016107a7565b60006113b385856117ce565b905060005b8451811015611406576113e586858484815181106113d8576113d8613bfc565b6020026020010151611d4c565b6113f4576000925050506107a7565b806113fe81613c6d565b9150506113b8565b50600195945050505050565b60008061141e83611e14565b9050610a328161144e867fb25ea67b55901db62e4b14311a8c1ab178fec3948b4b493a711970a50aa2a2e1610fc3565b73ffffffffffffffffffffffffffffffffffffffff1690611e4f565b6000611477858585611f2e565b9050610e9681836114a8887fb25ea67b55901db62e4b14311a8c1ab178fec3948b4b493a711970a50aa2a2e1610fc3565b73ffffffffffffffffffffffffffffffffffffffff1691906120fd565b60006114d2858585611f2e565b9050610e968183611503887fb25ea67b55901db62e4b14311a8c1ab178fec3948b4b493a711970a50aa2a2e1610fc3565b73ffffffffffffffffffffffffffffffffffffffff1691906121a5565b6000835167ffffffffffffffff81111561153c5761153c613815565b604051908082528060200260200182016040528015611565578160200160208202803683370190505b50905060005b84518110156115e0576115b18686838151811061158a5761158a613bfc565b60200260200101518684815181106115a4576115a4613bfc565b60200260200101516121bc565b8282815181106115c3576115c3613bfc565b6020908102919091010152806115d881613c6d565b91505061156b565b50610e968682846121d3565b5050505050565b60006116008585856121bc565b9050610e9686828461221f565b60006109d1826040518060400160405280601181526020017f4c4541444552424f4152445f45504f4348000000000000000000000000000000815250612254565b600083838360405160200161166593929190613e17565b604080517fffffffffffffffffffffffffffffffffffffffffffffffffffffffffffffffe08184030181529190528051602090910120949350505050565b60008282604051602001611253929190613e6a565b6116c48585858561226c565b610e9684826114a8887fb25ea67b55901db62e4b14311a8c1ab178fec3948b4b493a711970a50aa2a2e1610fc3565b61171d837f342adee7430e96bca6f5d4fe57ba5155dc7271000494e77110c292d51ae887fa610fc3565b6040517f1ab06ee5000000000000000000000000000000000000000000000000000000008152600481018490526024810183905273ffffffffffffffffffffffffffffffffffffffff9190911690631ab06ee590604401600060405180830381600087803b15801561178e57600080fd5b505af11580156117a2573d6000803e3d6000fd5b50505050505050565b60006107a4826117bb8686612472565b8151602092830120815191909201201490565b606060006117fc847f024accd0d273ef6123273b21662f5cc055a7d58adf98cc1b060edd029af93f7f610fc3565b9050600061182a857f787589c9eda599ea35279a6d93e360e8fdc5402255545ca394f5033f5e58ed42610fc3565b90506000611858867f62adc4221185187a288916c2630b5e1f37e9437c5b68d55bc59b9debc23f19d0610fc3565b90506000611886877fb25ea67b55901db62e4b14311a8c1ab178fec3948b4b493a711970a50aa2a2e1610fc3565b90506000865167ffffffffffffffff8111156118a4576118a4613815565b60405190808252806020026020018201604052801561190657816020015b6118f360405180608001604052806060815260200160608152602001600063ffffffff168152602001600081525090565b8152602001906001900390816118c25790505b50905060005b8751811015611d405760405180608001604052808773ffffffffffffffffffffffffffffffffffffffff16639507d39a8b858151811061194e5761194e613bfc565b60200260200101516040518263ffffffff1660e01b815260040161197491815260200190565b600060405180830381865afa158015611991573d6000803e3d6000fd5b505050506040513d6000823e601f3d9081017fffffffffffffffffffffffffffffffffffffffffffffffffffffffffffffffe01682016040526119d79190810190613ee6565b81526020018673ffffffffffffffffffffffffffffffffffffffff16639507d39a8b8581518110611a0a57611a0a613bfc565b60200260200101516040518263ffffffff1660e01b8152600401611a3091815260200190565b600060405180830381865afa158015611a4d573d6000803e3d6000fd5b505050506040513d6000823e601f3d9081017fffffffffffffffffffffffffffffffffffffffffffffffffffffffffffffffe0168201604052611a939190810190613ee6565b81526020018573ffffffffffffffffffffffffffffffffffffffff1663cccf7a8e8b8581518110611ac657611ac6613bfc565b60200260200101516040518263ffffffff1660e01b8152600401611aec91815260200190565b602060405180830381865afa158015611b09573d6000803e3d6000fd5b505050506040513d601f19601f82011682018060405250810190611b2d9190613d17565b611b38576000611bcd565b8573ffffffffffffffffffffffffffffffffffffffff16639507d39a8b8581518110611b6657611b66613bfc565b60200260200101516040518263ffffffff1660e01b8152600401611b8c91815260200190565b602060405180830381865afa158015611ba9573d6000803e3d6000fd5b505050506040513d601f19601f82011682018060405250810190611bcd9190613d52565b63ffffffff1681526020018473ffffffffffffffffffffffffffffffffffffffff1663cccf7a8e8b8581518110611c0657611c06613bfc565b60200260200101516040518263ffffffff1660e01b8152600401611c2c91815260200190565b602060405180830381865afa158015611c49573d6000803e3d6000fd5b505050506040513d601f19601f82011682018060405250810190611c6d9190613d17565b611c78576000611d0d565b8473ffffffffffffffffffffffffffffffffffffffff16639507d39a8b8581518110611ca657611ca6613bfc565b60200260200101516040518263ffffffff1660e01b8152600401611ccc91815260200190565b602060405180830381865afa158015611ce9573d6000803e3d6000fd5b505050506040513d601f19601f82011682018060405250810190611d0d9190613d39565b815250828281518110611d2257611d22613bfc565b60200260200101819052508080611d3890613c6d565b91505061190c565b50979650505050505050565b6000806000611d5a84612574565b90925090506000826003811115611d7357611d73613f2f565b03611d8d57611d848686868461258d565b925050506107a7565b6003826003811115611da157611da1613f2f565b03611db257611d848686868461263f565b6040517f08c379a000000000000000000000000000000000000000000000000000000000815260206004820152601b60248201527f48616e646c6572206e6f742079657420696d706c656d656e746564000000000060448201526064016102d9565b6040517f6c697374696e672e6275790000000000000000000000000000000000000000006020820152602b8101829052600090604b01611163565b6040517fdd98e3c900000000000000000000000000000000000000000000000000000000815260048101829052600090819073ffffffffffffffffffffffffffffffffffffffff85169063dd98e3c990602401600060405180830381865afa158015611ebf573d6000803e3d6000fd5b505050506040513d6000823e601f3d9081017fffffffffffffffffffffffffffffffffffffffffffffffffffffffffffffffe0168201604052611f059190810190613ee6565b90508051600003611f1a5760009150506109d1565b80806020019051810190610a329190613d39565b6000611f3a83836126f6565b90506000611f7e85836040518060400160405280600981526020017f494e56454e544f5259000000000000000000000000000000000000000000000081525061275d565b9050806120f557611faf857fd3da495fedd385ac62763d969054ffb19f1777e687374cceb91f1237ddd6bfb3610fc3565b6040517fd923c3c40000000000000000000000000000000000000000000000000000000081526004810184905263ffffffff8516602482015273ffffffffffffffffffffffffffffffffffffffff919091169063d923c3c490604401600060405180830381600087803b15801561202557600080fd5b505af1158015612039573d6000803e3d6000fd5b5050505061206a857f1ee9964c9c16bbb74f9e401f1ab450f99b2343a602036525f23f0da350bc74d060001c610fc3565b6040517f1ab06ee5000000000000000000000000000000000000000000000000000000008152600481018490526024810186905273ffffffffffffffffffffffffffffffffffffffff9190911690631ab06ee5906044015b600060405180830381600087803b1580156120dc57600080fd5b505af11580156120f0573d6000803e3d6000fd5b505050505b509392505050565b60008161210a8585611e4f565b6121149190613c5a565b6040517f1ab06ee5000000000000000000000000000000000000000000000000000000008152600481018590526024810182905290915073ffffffffffffffffffffffffffffffffffffffff851690631ab06ee590604401600060405180830381600087803b15801561218657600080fd5b505af115801561219a573d6000803e3d6000fd5b505050509392505050565b6000816121b28585611e4f565b6121149190613f5e565b600083838360405160200161166593929190613f71565b610ee18282612202867fb25ea67b55901db62e4b14311a8c1ab178fec3948b4b493a711970a50aa2a2e1610fc3565b73ffffffffffffffffffffffffffffffffffffffff16919061280b565b61224e82826114a8867fb25ea67b55901db62e4b14311a8c1ab178fec3948b4b493a711970a50aa2a2e1610fc3565b50505050565b6000806122608361284e565b9050610a328482612861565b6000612298857f48dd73345b049fd90b1d994ae882fe2bea7a52e362fd4689108c907c6456a006610fc3565b6040517fcccf7a8e0000000000000000000000000000000000000000000000000000000081526004810186905290915073ffffffffffffffffffffffffffffffffffffffff82169063cccf7a8e90602401602060405180830381865afa158015612306573d6000803e3d6000fd5b505050506040513d601f19601f8201168201806040525081019061232a9190613d17565b6115ec576040517f1ab06ee5000000000000000000000000000000000000000000000000000000008152600481018590526024810183905273ffffffffffffffffffffffffffffffffffffffff821690631ab06ee590604401600060405180830381600087803b15801561239d57600080fd5b505af11580156123b1573d6000803e3d6000fd5b505050506123e2857f5bc28889d745caef68975e56a733199d93efb3f5ae8e4606262ab97c83f7264860001c610fc3565b6040517f1ab06ee5000000000000000000000000000000000000000000000000000000008152600481018690526024810185905273ffffffffffffffffffffffffffffffffffffffff9190911690631ab06ee590604401600060405180830381600087803b15801561245357600080fd5b505af1158015612467573d6000803e3d6000fd5b505050505050505050565b6040517fdd98e3c90000000000000000000000000000000000000000000000000000000081526004810182905260609060009073ffffffffffffffffffffffffffffffffffffffff85169063dd98e3c990602401600060405180830381865afa1580156124e3573d6000803e3d6000fd5b505050506040513d6000823e601f3d9081017fffffffffffffffffffffffffffffffffffffffffffffffffffffffffffffffe01682016040526125299190810190613ee6565b9050805160000361254a5750506040805160208101909152600081526109d1565b80806020019051810190610a329190613ee6565b8051602091820120825192909101919091201490565b6000806125848360200151612908565b91509150915091565b815160408084015190517f81d0c0f1000000000000000000000000000000000000000000000000000000008152600092839273__$fe8c06f2024370067115fbcd33d61de1b7$__926381d0c0f1926125ed928b928b929190600401613fe9565b602060405180830381865af415801561260a573d6000803e3d6000fd5b505050506040513d601f19601f8201168201806040525081019061262e9190613d39565b9050610baa81856060015185612e89565b600061265a8585856000015186604001518760600151612f54565b9050600482600481111561267057612670613f2f565b0361267b5715610a32565b600382600481111561268f5761268f613f2f565b14610a32576040517f08c379a000000000000000000000000000000000000000000000000000000000815260206004820152601b60248201527f556e6b6e6f776e20626f6f6c206c6f676963206f70657261746f72000000000060448201526064016102d9565b6040517f696e76656e746f72792e696e7374616e636500000000000000000000000000006020820152603281018390527fffffffff0000000000000000000000000000000000000000000000000000000060e083901b166052820152600090605601611253565b60008061278a857f5d88ced8d8e079072bf73f49fc87661b519c50d79482941abb852ba2b10909cd610fc3565b90506127b0836117bb73ffffffffffffffffffffffffffffffffffffffff841687612472565b9150816120f5576040517f6437197700000000000000000000000000000000000000000000000000000000815273ffffffffffffffffffffffffffffffffffffffff8216906364371977906120c29087908790600401614035565b60005b825181101561224e5761283b8484838151811061282d5761282d613bfc565b6020026020010151846120fd565b508061284681613c6d565b91505061280e565b600081604051602001611163919061404e565b600061288d837fb25ea67b55901db62e4b14311a8c1ab178fec3948b4b493a711970a50aa2a2e1610fc3565b73ffffffffffffffffffffffffffffffffffffffff16639507d39a836040518263ffffffff1660e01b81526004016128c791815260200190565b602060405180830381865afa1580156128e4573d6000803e3d6000fd5b505050506040513d601f19601f820116820180604052508101906107a79190613d39565b6000806000806129566040518060400160405280600481526020017f43555252000000000000000000000000000000000000000000000000000000008152508661327990919063ffffffff16565b156129645760009150612b25565b6040805180820190915260038082527f494e43000000000000000000000000000000000000000000000000000000000060209283015290860181902086517f2294515cf577a807f70c30a4bd66fb198b63ab765b7fa768b080fe8cda2c38889190911491111516156129d95760019150612b25565b6040805180820190915260038082527f444543000000000000000000000000000000000000000000000000000000000060209283015290860181902086517fc8117e3bb0a5365f1188f80e2df06c2b6996766cd83da2c646f5f9e14dcfbd17919091149111151615612a4e5760029150612b25565b6040805180820190915260048082527f424f4f4c0000000000000000000000000000000000000000000000000000000060209283015290860181902086517fda3fe7adc6f9d250974b3b45d024284953a3a67841a37ae5029171eb5f1bc309919091149111151615612ac35760039150612b25565b6040517f08c379a000000000000000000000000000000000000000000000000000000000815260206004820152601960248201527f556e6b6e6f776e20636f6e646974696f6e2068616e646c65720000000000000060448201526064016102d9565b6040805180820190915260038082527f4d494e00000000000000000000000000000000000000000000000000000000006020928301528651808211157ffffffffffffffffffffffffffffffffffffffffffffffffffffffffffffffffd90910181028801909201207f871eebeccaa432de5f38a72c534eb2fa59c2c3b49e3c6629c16c11981ee74f2a141615612bbd57506000612e7f565b6040805180820190915260038082527f4d415800000000000000000000000000000000000000000000000000000000006020928301528651808211157ffffffffffffffffffffffffffffffffffffffffffffffffffffffffffffffffd90910181028801909201207fa42787877dd247913f847bc654d767d1919585674d8f1a26ea00084043233daa141615612c5557506001612e7f565b6040805180820190915260058082527f455155414c0000000000000000000000000000000000000000000000000000006020928301528651808211157ffffffffffffffffffffffffffffffffffffffffffffffffffffffffffffffffb90910181028801909201207f3a06e9850b6d2ffe1ee040a5349ff67cf64f6914074848a74304f81130b90725141615612ced57506002612e7f565b6040805180820190915260028082527f49530000000000000000000000000000000000000000000000000000000000006020928301528651808211157ffffffffffffffffffffffffffffffffffffffffffffffffffffffffffffffffe90910181028801909201207fa0f4911f5dff37b9a43a54645c34f34bf9127e9dac511b186b8529567dfaf3dc141615612d8557506003612e7f565b6040805180820190915260038082527f4e4f5400000000000000000000000000000000000000000000000000000000006020928301528651808211157ffffffffffffffffffffffffffffffffffffffffffffffffffffffffffffffffd90910181028801909201207f4293f9bf526b0205217be3088c05680693c75440f7bce1f1b15fae3c5187ae12141615612e1d57506004612e7f565b6040517f08c379a000000000000000000000000000000000000000000000000000000000815260206004820152601a60248201527f556e6b6e6f776e20636f6e646974696f6e206f70657261746f7200000000000060448201526064016102d9565b9094909350915050565b600080826004811115612e9e57612e9e613f2f565b03612ead5750818310156107a7565b6001826004811115612ec157612ec1613f2f565b03612ed05750818311156107a7565b6002826004811115612ee457612ee4613f2f565b03612ef257508282146107a7565b6040517f08c379a000000000000000000000000000000000000000000000000000000000815260206004820152601660248201527f556e6b6e6f776e206c6f676963206f70657261746f720000000000000000000060448201526064016102d9565b6000612f9e6040518060400160405280600d81526020017f434f4d504c4554455f434f4d50000000000000000000000000000000000000008152508561255e90919063ffffffff16565b1561304f57612fcd867f9522897410526014691d8a863fac7bd2e048ab08176b6e3c6fa8a1f5195164bb610fc3565b73ffffffffffffffffffffffffffffffffffffffff1663cccf7a8e836040518263ffffffff1660e01b815260040161300791815260200190565b602060405180830381865afa158015613024573d6000803e3d6000fd5b505050506040513d601f19601f820116820180604052508101906130489190613d17565b9050610c10565b60408051808201909152600581527f51554553540000000000000000000000000000000000000000000000000000006020918201528451908501207f6dd88e0a32c18c14d5a81f049d6fd353acc17f8290c55d8a716d975def4edf1e036130bb57613048868487613293565b60408051808201909152600481527f524f4f4d000000000000000000000000000000000000000000000000000000006020918201528451908501207fd095a6ae2bc7e94153e86beac7414b2145c7585cac0a0d923e1a4df8247e23a20361313b578263ffffffff1661312d87876132bc565b63ffffffff16149050610c10565b60408051808201909152600581527f50484153450000000000000000000000000000000000000000000000000000006020918201528451908501207fc7321657fadb62104cd2b0331a69790ec83e40b1c9f218c07d669437bea8f9ad036131ac578263ffffffff1661312d42613363565b60408051808201909152600881527f434f4f4c444f574e0000000000000000000000000000000000000000000000006020918201528451908501207f74d16beb57bf3f9ccaccecb6978a7e61e312e12eed3a6e57d8fb05427d6bab0f0361321757613048868661336e565b6040517f08c379a000000000000000000000000000000000000000000000000000000000815260206004820152601b60248201527f556e6b6e6f776e20626f6f6c20636f6e646974696f6e2074797065000000000060448201526064016102d9565b805160209182018190209183018190209251101591141690565b6000806132a1858486613395565b9050806000036132b2576000610c10565b610c1085826133ae565b60006132e8837f3be9611062b8582cf4b9a4eafe577dbde7dcd7779a1efb46d73e212026c4b0cc610fc3565b73ffffffffffffffffffffffffffffffffffffffff16639507d39a836040518263ffffffff1660e01b815260040161332291815260200190565b602060405180830381865afa15801561333f573d6000803e3d6000fd5b505050506040513d601f19601f820116820180604052508101906107a79190613d52565b60006109d182613455565b60008061337b8484613488565b9050600061338985856134bd565b90911315949350505050565b6000806133a28385613575565b9050610c0385826135dc565b60006133da837f9522897410526014691d8a863fac7bd2e048ab08176b6e3c6fa8a1f5195164bb610fc3565b73ffffffffffffffffffffffffffffffffffffffff1663cccf7a8e836040518263ffffffff1660e01b815260040161341491815260200190565b602060405180830381865afa158015613431573d6000803e3d6000fd5b505050506040513d601f19601f820116820180604052508101906107a79190613d17565b6000806024613466610e10856140c2565b61347091906140d6565b905061347d600c826140c2565b6107a7906001613c5a565b60006107a76134b7847f5f9759544a286ad42df1aa1cab6dca162b48885d3060ac74aecbf8ff4483ad1b610fc3565b8361361e565b600080613507613502856040518060400160405280601681526020017f4b414d495f5354414e444152445f434f4f4c444f574e00000000000000000000815250612254565b613656565b9050600061354b85856040518060400160405280601381526020017f53544e445f434f4f4c444f574e5f53484946540000000000000000000000000081525061368b565b9050600061355982846140ea565b9050600081126135695780610baa565b60009695505050505050565b6040517f72656769737472792e717565737400000000000000000000000000000000000060208201527fffffffff0000000000000000000000000000000000000000000000000000000060e084901b16602e82015260328101829052600090605201611253565b60006107a783836040518060400160405280600581526020017f515545535400000000000000000000000000000000000000000000000000000081525061119f565b600061364361350273ffffffffffffffffffffffffffffffffffffffff851684611e4f565b61364c42613656565b6107a79190614112565b60007f80000000000000000000000000000000000000000000000000000000000000008210613687576136876137f2565b5090565b6000806136988484613800565b905060006136c6867f50d80ec5b1169fa90f6a93a06362786b45e53ec8c05572cba38875a52f86a3bc610fc3565b6040517fcccf7a8e0000000000000000000000000000000000000000000000000000000081526004810184905290915073ffffffffffffffffffffffffffffffffffffffff82169063cccf7a8e90602401602060405180830381865afa158015613734573d6000803e3d6000fd5b505050506040513d601f19601f820116820180604052508101906137589190613d17565b613763576000610baa565b6040517f9507d39a0000000000000000000000000000000000000000000000000000000081526004810183905273ffffffffffffffffffffffffffffffffffffffff821690639507d39a90602401602060405180830381865afa1580156137ce573d6000803e3d6000fd5b505050506040513d601f19601f82011682018060405250810190610baa9190613d39565b6335278d126000526004601cfd5b60008282604051602001611253929190614139565b7f4e487b7100000000000000000000000000000000000000000000000000000000600052604160045260246000fd5b604051601f82017fffffffffffffffffffffffffffffffffffffffffffffffffffffffffffffffe016810167ffffffffffffffff8111828210171561388b5761388b613815565b604052919050565b600067ffffffffffffffff8211156138ad576138ad613815565b50601f017fffffffffffffffffffffffffffffffffffffffffffffffffffffffffffffffe01660200190565b6000602082840312156138eb57600080fd5b813567ffffffffffffffff81111561390257600080fd5b8201601f8101841361391357600080fd5b803561392661392182613893565b613844565b81815285602083850101111561393b57600080fd5b81602084016020830137600091810160200191909152949350505050565b60005b8381101561397457818101518382015260200161395c565b50506000910152565b60008151808452613995816020860160208601613959565b601f017fffffffffffffffffffffffffffffffffffffffffffffffffffffffffffffffe0169290920160200192915050565b6020815260006107a7602083018461397d565b63ffffffff811681146107eb57600080fd5b600067ffffffffffffffff821115613a0657613a06613815565b5060051b60200190565b600082601f830112613a2157600080fd5b81356020613a31613921836139ec565b82815260059290921b84018101918181019086841115613a5057600080fd5b8286015b84811015613a74578035613a67816139da565b8352918301918301613a54565b509695505050505050565b600080600060608486031215613a9457600080fd5b8335613a9f816139da565b9250602084013567ffffffffffffffff80821115613abc57600080fd5b613ac887838801613a10565b93506040860135915080821115613ade57600080fd5b50613aeb86828701613a10565b9150509250925092565b600060208284031215613b0757600080fd5b813573ffffffffffffffffffffffffffffffffffffffff81168114610a3057600080fd5b600082601f830112613b3c57600080fd5b81516020613b4c613921836139ec565b82815260059290921b84018101918181019086841115613b6b57600080fd5b8286015b84811015613a74578051613b82816139da565b8352918301918301613b6f565b600080600060608486031215613ba457600080fd5b8351613baf816139da565b602085015190935067ffffffffffffffff80821115613bcd57600080fd5b613bd987838801613b2b565b93506040860151915080821115613bef57600080fd5b50613aeb86828701613b2b565b7f4e487b7100000000000000000000000000000000000000000000000000000000600052603260045260246000fd5b7f4e487b7100000000000000000000000000000000000000000000000000000000600052601160045260246000fd5b808201808211156109d1576109d1613c2b565b60007fffffffffffffffffffffffffffffffffffffffffffffffffffffffffffffffff8203613c9e57613c9e613c2b565b5060010190565b600081518084526020808501945080840160005b83811015613cdb57815163ffffffff1687529582019590820190600101613cb9565b509495945050505050565b63ffffffff84168152606060208201526000613d056060830185613ca5565b8281036040840152610baa8185613ca5565b600060208284031215613d2957600080fd5b81518015158114610a3057600080fd5b600060208284031215613d4b57600080fd5b5051919050565b600060208284031215613d6457600080fd5b8151610a30816139da565b80820281158282048414176109d1576109d1613c2b565b60006020808385031215613d9957600080fd5b825167ffffffffffffffff811115613db057600080fd5b8301601f81018513613dc157600080fd5b8051613dcf613921826139ec565b81815260059190911b82018301908381019087831115613dee57600080fd5b928401925b82841015613e0c57835182529284019290840190613df3565b979650505050505050565b7f69732e73636f7265000000000000000000000000000000000000000000000000815283600882015282602882015260008251613e5b816048850160208701613959565b91909101604801949350505050565b7f73636f72652e7479706500000000000000000000000000000000000000000000815260008351613ea281600a850160208801613959565b600a920191820192909252602a0192915050565b6000613ec461392184613893565b9050828152838383011115613ed857600080fd5b6107a7836020830184613959565b600060208284031215613ef857600080fd5b815167ffffffffffffffff811115613f0f57600080fd5b8201601f81018413613f2057600080fd5b610a3284825160208401613eb6565b7f4e487b7100000000000000000000000000000000000000000000000000000000600052602160045260246000fd5b818103818111156109d1576109d1613c2b565b7f69732e646174610000000000000000000000000000000000000000000000000081528360078201527fffffffff000000000000000000000000000000000000000000000000000000008360e01b16602782015260008251613fda81602b850160208701613959565b91909101602b01949350505050565b73ffffffffffffffffffffffffffffffffffffffff8516815283602082015260806040820152600061401e608083018561397d565b905063ffffffff8316606083015295945050505050565b8281526040602082015260006107a4604083018461397d565b7f69732e636f6e6669670000000000000000000000000000000000000000000000815260008251614086816009850160208701613959565b9190910160090192915050565b7f4e487b7100000000000000000000000000000000000000000000000000000000600052601260045260246000fd5b6000826140d1576140d1614093565b500490565b6000826140e5576140e5614093565b500690565b808201828112600083128015821682158216171561410a5761410a613c2b565b505092915050565b818103600083128015838313168383128216171561413257614132613c2b565b5092915050565b7f626f6e7573000000000000000000000000000000000000000000000000000000815282600582015260008251614177816025850160208701613959565b91909101602501939250505056fea264697066735822122066f124ec45381d1740eb834c4cb68d9e2fc8be4fd8e77e4008586b2db4a854b864736f6c63430008110033","linkReferences":{"src/libraries/utils/LibGetter.sol":{"LibGetter":[{"start":10168,"length":20}]}}},"methodIdentifiers":{"cancelOwnershipHandover()":"54d1f13d","completeOwnershipHandover(address)":"f04e283e","deprecate()":"0fcc0c28","execute(bytes)":"09c5eabe","executeTyped(uint32,uint32[],uint32[])":"7c3f45fb","owner()":"8da5cb5b","ownershipHandoverExpiresAt(address)":"fee81cf4","renounceOwnership()":"715018a6","requestOwnershipHandover()":"25692962","transferOwnership(address)":"f2fde38b"},"id":280}