{"abi":[{"type":"constructor","inputs":[{"name":"world","type":"address","internalType":"address"}],"stateMutability":"nonpayable"},{"type":"function","name":"authorizeWriter","inputs":[{"name":"writer","type":"address","internalType":"address"}],"outputs":[],"stateMutability":"nonpayable"},{"type":"function","name":"cancelOwnershipHandover","inputs":[],"outputs":[],"stateMutability":"payable"},{"type":"function","name":"completeOwnershipHandover","inputs":[{"name":"pendingOwner","type":"address","internalType":"address"}],"outputs":[],"stateMutability":"payable"},{"type":"function","name":"extractRaw","inputs":[{"name":"entity","type":"uint256","internalType":"uint256"}],"outputs":[{"name":"","type":"bytes","internalType":"bytes"}],"stateMutability":"nonpayable"},{"type":"function","name":"extractRawBatch","inputs":[{"name":"entities","type":"uint256[]","internalType":"uint256[]"}],"outputs":[{"name":"","type":"bytes[]","internalType":"bytes[]"}],"stateMutability":"nonpayable"},{"type":"function","name":"getAt","inputs":[{"name":"value","type":"bytes","internalType":"bytes"},{"name":"index","type":"uint256","internalType":"uint256"}],"outputs":[{"name":"","type":"uint256","internalType":"uint256"}],"stateMutability":"view"},{"type":"function","name":"getEntities","inputs":[],"outputs":[{"name":"","type":"uint256[]","internalType":"uint256[]"}],"stateMutability":"view"},{"type":"function","name":"getEntitiesWithValue","inputs":[{"name":"value","type":"tuple","internalType":"struct Position","components":[{"name":"x","type":"int64","internalType":"int64"},{"name":"y","type":"int64","internalType":"int64"}]}],"outputs":[{"name":"","type":"uint256[]","internalType":"uint256[]"}],"stateMutability":"view"},{"type":"function","name":"getEntitiesWithValue","inputs":[{"name":"value","type":"bytes","internalType":"bytes"}],"outputs":[{"name":"","type":"uint256[]","internalType":"uint256[]"}],"stateMutability":"view"},{"type":"function","name":"getRaw","inputs":[{"name":"entity","type":"uint256","internalType":"uint256"}],"outputs":[{"name":"","type":"bytes","internalType":"bytes"}],"stateMutability":"view"},{"type":"function","name":"getRawBatch","inputs":[{"name":"entities","type":"uint256[]","internalType":"uint256[]"}],"outputs":[{"name":"","type":"bytes[]","internalType":"bytes[]"}],"stateMutability":"view"},{"type":"function","name":"getValue","inputs":[{"name":"entity","type":"uint256","internalType":"uint256"}],"outputs":[{"name":"","type":"tuple","internalType":"struct Position","components":[{"name":"x","type":"int64","internalType":"int64"},{"name":"y","type":"int64","internalType":"int64"}]}],"stateMutability":"view"},{"type":"function","name":"has","inputs":[{"name":"entity","type":"uint256","internalType":"uint256"}],"outputs":[{"name":"","type":"bool","internalType":"bool"}],"stateMutability":"view"},{"type":"function","name":"id","inputs":[],"outputs":[{"name":"","type":"uint256","internalType":"uint256"}],"stateMutability":"view"},{"type":"function","name":"owner","inputs":[],"outputs":[{"name":"result","type":"address","internalType":"address"}],"stateMutability":"view"},{"type":"function","name":"ownershipHandoverExpiresAt","inputs":[{"name":"pendingOwner","type":"address","internalType":"address"}],"outputs":[{"name":"result","type":"uint256","internalType":"uint256"}],"stateMutability":"view"},{"type":"function","name":"registerWorld","inputs":[{"name":"_world","type":"address","internalType":"address"}],"outputs":[],"stateMutability":"nonpayable"},{"type":"function","name":"remove","inputs":[{"name":"entity","type":"uint256","internalType":"uint256"}],"outputs":[],"stateMutability":"nonpayable"},{"type":"function","name":"removeBatch","inputs":[{"name":"entities","type":"uint256[]","internalType":"uint256[]"}],"outputs":[],"stateMutability":"nonpayable"},{"type":"function","name":"renounceOwnership","inputs":[],"outputs":[],"stateMutability":"payable"},{"type":"function","name":"requestOwnershipHandover","inputs":[],"outputs":[],"stateMutability":"payable"},{"type":"function","name":"set","inputs":[{"name":"entity","type":"uint256","internalType":"uint256"},{"name":"value","type":"tuple","internalType":"struct Position","components":[{"name":"x","type":"int64","internalType":"int64"},{"name":"y","type":"int64","internalType":"int64"}]}],"outputs":[],"stateMutability":"nonpayable"},{"type":"function","name":"set","inputs":[{"name":"entity","type":"uint256","internalType":"uint256"},{"name":"value","type":"bytes","internalType":"bytes"}],"outputs":[],"stateMutability":"nonpayable"},{"type":"function","name":"setBatch","inputs":[{"name":"entities","type":"uint256[]","internalType":"uint256[]"},{"name":"values","type":"bytes[]","internalType":"bytes[]"}],"outputs":[],"stateMutability":"nonpayable"},{"type":"function","name":"size","inputs":[{"name":"value","type":"bytes","internalType":"bytes"}],"outputs":[{"name":"","type":"uint256","internalType":"uint256"}],"stateMutability":"view"},{"type":"function","name":"transferOwnership","inputs":[{"name":"newOwner","type":"address","internalType":"address"}],"outputs":[],"stateMutability":"payable"},{"type":"function","name":"unauthorizeWriter","inputs":[{"name":"writer","type":"address","internalType":"address"}],"outputs":[],"stateMutability":"nonpayable"},{"type":"function","name":"world","inputs":[],"outputs":[{"name":"","type":"address","internalType":"address"}],"stateMutability":"view"},{"type":"function","name":"writeAccess","inputs":[{"name":"operator","type":"address","internalType":"address"}],"outputs":[{"name":"","type":"bool","internalType":"bool"}],"stateMutability":"view"},{"type":"event","name":"OwnershipHandoverCanceled","inputs":[{"name":"pendingOwner","type":"address","indexed":true,"internalType":"address"}],"anonymous":false},{"type":"event","name":"OwnershipHandoverRequested","inputs":[{"name":"pendingOwner","type":"address","indexed":true,"internalType":"address"}],"anonymous":false},{"type":"event","name":"OwnershipTransferred","inputs":[{"name":"oldOwner","type":"address","indexed":true,"internalType":"address"},{"name":"newOwner","type":"address","indexed":true,"internalType":"address"}],"anonymous":false},{"type":"error","name":"AlreadyInitialized","inputs":[]},{"type":"error","name":"BareComponent__NotImplemented","inputs":[]},{"type":"error","name":"BatchOp_UnexpectedLength","inputs":[]},{"type":"error","name":"NewOwnerIsZeroAddress","inputs":[]},{"type":"error","name":"NoHandoverRequest","inputs":[]},{"type":"error","name":"OwnableWritable__NotWriter","inputs":[]},{"type":"error","name":"Unauthorized","inputs":[]},{"type":"error","name":"ZeroValueNotAllowed","inputs":[]}],"bytecode":{"object":"0x60806040523480156200001157600080fd5b506040516200259b3803806200259b83398101604081905262000034916200016e565b807f3ecdd1455cb272b5ddd7f1fb975890b5e795f328bd4a5784f1bfdde2016baeac818162000063336200008e565b60028190556001600160a01b0382161562000083576200008382620000ca565b5050505050620001a0565b6001600160a01b0316638b78c6d8198190558060007f8be0079c531659141344cd1fd0a4f28419497f9722a3daafe3b4186f6b6457e08180a350565b620000d462000150565b600080546001600160a01b0319166001600160a01b038316908117909155600254604051630f30347760e41b8152306004820152602481019190915263f303477090604401600060405180830381600087803b1580156200013457600080fd5b505af115801562000149573d6000803e3d6000fd5b5050505050565b638b78c6d8195433146200016c576382b429006000526004601cfd5b565b6000602082840312156200018157600080fd5b81516001600160a01b03811681146200019957600080fd5b9392505050565b6123eb80620001b06000396000f3fe6080604052600436106101c25760003560e01c8063715018a6116100f7578063b361be4611610095578063e9ff6c7611610064578063e9ff6c7614610542578063f04e283e14610562578063f2fde38b14610575578063fee81cf41461058857600080fd5b8063b361be46146104b5578063bf4fe57e146104d5578063cccf7a8e146104f5578063dd98e3c91461051557600080fd5b80638b282947116100d15780638b2829471461042b5780638da5cb5b1461044b5780639d2c76b41461047f578063af640d0f1461049f57600080fd5b8063715018a6146103d35780638482643e146103db578063861eb905146103fb57600080fd5b806330b67baa116101645780634cc822151161013e5780634cc822151461036b5780634fef6a381461038b57806354d1f13d146103ab5780636f9aa155146103b357600080fd5b806330b67baa146102e457806331b933b9146103365780634323c4ef1461034b57600080fd5b806313ca8b6a116101a057806313ca8b6a1461026c5780631c5ee10c1461028e57806325692962146102bc5780632f719846146102c457600080fd5b80630f9c46fd146101c75780630ff4c916146101fd57806312b111551461023f575b600080fd5b3480156101d357600080fd5b506101e76101e2366004611b5b565b6105bb565b6040516101f49190611b77565b60405180910390f35b34801561020957600080fd5b5061021d610218366004611bbb565b6105eb565b604080518251600790810b8252602093840151900b92810192909252016101f4565b34801561024b57600080fd5b5061025f61025a366004611ce1565b61063e565b6040516101f49190611d82565b34801561027857600080fd5b5061028c610287366004611e90565b610688565b005b34801561029a57600080fd5b506102ae6102a9366004611f65565b6106d5565b6040519081526020016101f4565b61028c6106f9565b3480156102d057600080fd5b5061028c6102df366004611f9a565b610749565b3480156102f057600080fd5b506000546103119073ffffffffffffffffffffffffffffffffffffffff1681565b60405173ffffffffffffffffffffffffffffffffffffffff90911681526020016101f4565b34801561034257600080fd5b506101e7610772565b34801561035757600080fd5b5061025f610366366004611ce1565b6107a6565b34801561037757600080fd5b5061028c610386366004611bbb565b6108f2565b34801561039757600080fd5b5061028c6103a6366004611fc7565b61093d565b61028c6109b3565b3480156103bf57600080fd5b506102ae6103ce366004611ffd565b6109ef565b61028c610a19565b3480156103e757600080fd5b5061028c6103f6366004611ce1565b610a2d565b34801561040757600080fd5b5061041b610416366004611fc7565b610a75565b60405190151581526020016101f4565b34801561043757600080fd5b5061028c610446366004612042565b610b04565b34801561045757600080fd5b507fffffffffffffffffffffffffffffffffffffffffffffffffffffffff7487392754610311565b34801561048b57600080fd5b5061028c61049a366004611fc7565b610b4d565b3480156104ab57600080fd5b506102ae60025481565b3480156104c157600080fd5b506101e76104d0366004611f65565b610c0e565b3480156104e157600080fd5b5061028c6104f0366004611fc7565b610c19565b34801561050157600080fd5b5061041b610510366004611bbb565b610c8c565b34801561052157600080fd5b50610535610530366004611bbb565b610cae565b6040516101f49190612089565b34801561054e57600080fd5b5061053561055d366004611bbb565b610cb9565b61028c610570366004611fc7565b610d03565b61028c610583366004611fc7565b610d40565b34801561059457600080fd5b506102ae6105a3366004611fc7565b63389a75e1600c908152600091909152602090205490565b60606105e5826040516020016105d191906120ab565b604051602081830303815290604052610c0e565b92915050565b604080518082019091526000808252602082015260008061060b84610cae565b80602001905181019061061e91906120dd565b60408051808201909152600792830b8152910b6020820152949350505050565b606061064933610a75565b61067f576040517f406ed3da00000000000000000000000000000000000000000000000000000000815260040160405180910390fd5b6105e582610d67565b61069133610a75565b6106c7576040517f406ed3da00000000000000000000000000000000000000000000000000000000815260040160405180910390fd5b6106d18282610d7f565b5050565b60006105e56003600084805190602001208152602001908152602001600020610f13565b60006202a30067ffffffffffffffff164201905063389a75e1600c5233600052806020600c2055337fdbf36a107da19e49527a7176a1babf963b4b0ff8cde35ee35d6cd8f1f9ac7e1d600080a250565b6106d1828260405160200161075e91906120ab565b604051602081830303815290604052610b04565b60606040517f17d5b8e800000000000000000000000000000000000000000000000000000000815260040160405180910390fd5b60606000825167ffffffffffffffff8111156107c4576107c4611bd4565b6040519080825280602002602001820160405280156107f757816020015b60608152602001906001900390816107e25790505b50905060005b83518110156108eb576001600085838151811061081c5761081c612117565b60200260200101518152602001908152602001600020805461083d90612146565b80601f016020809104026020016040519081016040528092919081815260200182805461086990612146565b80156108b65780601f1061088b576101008083540402835291602001916108b6565b820191906000526020600020905b81548152906001019060200180831161089957829003601f168201915b50505050508282815181106108cd576108cd612117565b602002602001018190525080806108e3906121c2565b9150506107fd565b5092915050565b6108fb33610a75565b610931576040517f406ed3da00000000000000000000000000000000000000000000000000000000815260040160405180910390fd5b61093a81610f1d565b50565b610945610ff0565b73ffffffffffffffffffffffffffffffffffffffff1660009081527f8ffeadc5cba727b8cc3cdef48739619490ea317fdb3baae1259089d06f92c9096020526040902080547fffffffffffffffffffffffffffffffffffffffffffffffffffffffffffffff00166001179055565b63389a75e1600c523360005260006020600c2055337ffa7b8eab7da67f412cc9575ed43464468f9bfbae89d1675917346ca6d8fe3c92600080a2565b81516020808401919091206000908152600390915260408120610a129083611026565b9392505050565b610a21610ff0565b610a2b6000611032565b565b610a3633610a75565b610a6c576040517f406ed3da00000000000000000000000000000000000000000000000000000000815260040160405180910390fd5b61093a81611098565b73ffffffffffffffffffffffffffffffffffffffff811660009081527f8ffeadc5cba727b8cc3cdef48739619490ea317fdb3baae1259089d06f92c909602052604081205460ff16806105e55750507fffffffffffffffffffffffffffffffffffffffffffffffffffffffff748739275473ffffffffffffffffffffffffffffffffffffffff91821691161490565b610b0d33610a75565b610b43576040517f406ed3da00000000000000000000000000000000000000000000000000000000815260040160405180910390fd5b6106d182826111a0565b610b55610ff0565b600080547fffffffffffffffffffffffff00000000000000000000000000000000000000001673ffffffffffffffffffffffffffffffffffffffff83169081179091556002546040517ff3034770000000000000000000000000000000000000000000000000000000008152306004820152602481019190915263f3034770906044015b600060405180830381600087803b158015610bf357600080fd5b505af1158015610c07573d6000803e3d6000fd5b5050505050565b60606105e58261129b565b610c21610ff0565b73ffffffffffffffffffffffffffffffffffffffff1660009081527f8ffeadc5cba727b8cc3cdef48739619490ea317fdb3baae1259089d06f92c9096020526040902080547fffffffffffffffffffffffffffffffffffffffffffffffffffffffffffffff00169055565b60008181526001602052604081208054610ca590612146565b15159392505050565b60606105e5826112bf565b6060610cc433610a75565b610cfa576040517f406ed3da00000000000000000000000000000000000000000000000000000000815260040160405180910390fd5b6105e582611361565b610d0b610ff0565b63389a75e1600c52806000526020600c208054421115610d3357636f5e88186000526004601cfd5b6000905561093a81611032565b610d48610ff0565b8060601b610d5e57637448fbae6000526004601cfd5b61093a81611032565b60606000610d7483611381565b90506105e583611098565b60005b8251811015610f0857600060016000858481518110610da357610da3612117565b602002602001015181526020019081526020016000208054610dc490612146565b80601f0160208091040260200160405190810160405280929190818152602001828054610df090612146565b8015610e3d5780601f10610e1257610100808354040283529160200191610e3d565b820191906000526020600020905b815481529060010190602001808311610e2057829003601f168201915b50505050509050600081511115610e9557610e93848381518110610e6357610e63612117565b602002602001015160036000848051906020012081526020019081526020016000206114c690919063ffffffff16565b505b610ef3848381518110610eaa57610eaa612117565b602002602001015160036000868681518110610ec857610ec8612117565b60200260200101518051906020012081526020019081526020016000206114d290919063ffffffff16565b50508080610f00906121c2565b915050610d82565b506106d182826114de565b60006105e5825490565b60008181526001602052604081208054610f3690612146565b80601f0160208091040260200160405190810160405280929190818152602001828054610f6290612146565b8015610faf5780601f10610f8457610100808354040283529160200191610faf565b820191906000526020600020905b815481529060010190602001808311610f9257829003601f168201915b505050505090508051600003610fc3575050565b80516020808301919091206000908152600390915260409020610fe690836114c6565b506106d1826116bc565b7fffffffffffffffffffffffffffffffffffffffffffffffffffffffff74873927543314610a2b576382b429006000526004601cfd5b6000610a12838361172a565b7fffffffffffffffffffffffffffffffffffffffffffffffffffffffff74873927805473ffffffffffffffffffffffffffffffffffffffff9092169182907f8be0079c531659141344cd1fd0a4f28419497f9722a3daafe3b4186f6b6457e0600080a355565b60005b8151811015611196576000600160008484815181106110bc576110bc612117565b6020026020010151815260200190815260200160002080546110dd90612146565b80601f016020809104026020016040519081016040528092919081815260200182805461110990612146565b80156111565780601f1061112b57610100808354040283529160200191611156565b820191906000526020600020905b81548152906001019060200180831161113957829003601f168201915b50505050509050805160000361116c5750611184565b611181838381518110610e6357610e63612117565b50505b8061118e816121c2565b91505061109b565b5061093a81611754565b600082815260016020526040812080546111b990612146565b80601f01602080910402602001604051908101604052809291908181526020018280546111e590612146565b80156112325780601f1061120757610100808354040283529160200191611232565b820191906000526020600020905b81548152906001019060200180831161121557829003601f168201915b50505050509050600081511115611268578051602080830191909120600090815260039091526040902061126690846114c6565b505b8151602080840191909120600090815260039091526040902061128b90846114d2565b506112968383611869565b505050565b60606105e5600360008480519060200120815260200190815260200160002061194b565b60008181526001602052604090208054606091906112dc90612146565b80601f016020809104026020016040519081016040528092919081815260200182805461130890612146565b80156113555780601f1061132a57610100808354040283529160200191611355565b820191906000526020600020905b81548152906001019060200180831161133857829003601f168201915b50505050509050919050565b6060600061136e836112bf565b8051909150156105e5576105e583610f1d565b60606000825167ffffffffffffffff81111561139f5761139f611bd4565b6040519080825280602002602001820160405280156113d257816020015b60608152602001906001900390816113bd5790505b50905060005b83518110156108eb57600160008583815181106113f7576113f7612117565b60200260200101518152602001908152602001600020805461141890612146565b80601f016020809104026020016040519081016040528092919081815260200182805461144490612146565b80156114915780601f1061146657610100808354040283529160200191611491565b820191906000526020600020905b81548152906001019060200180831161147457829003601f168201915b50505050508282815181106114a8576114a8612117565b602002602001018190525080806114be906121c2565b9150506113d8565b6000610a128383611958565b6000610a128383611a4b565b8051825114611519576040517fc291f68400000000000000000000000000000000000000000000000000000000815260040160405180910390fd5b60005b82518110156115de5781818151811061153757611537612117565b602002602001015151600003611579576040517f9cf8540c00000000000000000000000000000000000000000000000000000000815260040160405180910390fd5b81818151811061158b5761158b612117565b6020026020010151600160008584815181106115a9576115a9612117565b6020026020010151815260200190815260200160002090816115cb9190612240565b50806115d6816121c2565b91505061151c565b506000805473ffffffffffffffffffffffffffffffffffffffff16905b83518110156116b6578173ffffffffffffffffffffffffffffffffffffffff1663cfd3c57f85838151811061163257611632612117565b602002602001015185848151811061164c5761164c612117565b60200260200101516040518363ffffffff1660e01b815260040161167192919061235a565b600060405180830381600087803b15801561168b57600080fd5b505af115801561169f573d6000803e3d6000fd5b5050505080806116ae906121c2565b9150506115fb565b50505050565b60008181526001602052604081206116d391611af5565b6000546040517f0de3b7b50000000000000000000000000000000000000000000000000000000081526004810183905273ffffffffffffffffffffffffffffffffffffffff90911690630de3b7b590602401610bd9565b600082600001828154811061174157611741612117565b9060005260206000200154905092915050565b60005b81518110156117aa576001600083838151811061177657611776612117565b6020026020010151815260200190815260200160002060006117989190611af5565b806117a2816121c2565b915050611757565b506000805473ffffffffffffffffffffffffffffffffffffffff16905b8251811015611296578173ffffffffffffffffffffffffffffffffffffffff16630de3b7b58483815181106117fe576117fe612117565b60200260200101516040518263ffffffff1660e01b815260040161182491815260200190565b600060405180830381600087803b15801561183e57600080fd5b505af1158015611852573d6000803e3d6000fd5b505050508080611861906121c2565b9150506117c7565b80516000036118a4576040517f9cf8540c00000000000000000000000000000000000000000000000000000000815260040160405180910390fd5b60008281526001602052604090206118bc8282612240565b506000546040517fcfd3c57f00000000000000000000000000000000000000000000000000000000815273ffffffffffffffffffffffffffffffffffffffff9091169063cfd3c57f90611915908590859060040161235a565b600060405180830381600087803b15801561192f57600080fd5b505af1158015611943573d6000803e3d6000fd5b505050505050565b60606000610a1283611a9a565b60008181526001830160205260408120548015611a4157600061197c600183612373565b855490915060009061199090600190612373565b90508181146119f55760008660000182815481106119b0576119b0612117565b90600052602060002001549050808760000184815481106119d3576119d3612117565b6000918252602080832090910192909255918252600188019052604090208390555b8554869080611a0657611a06612386565b6001900381819060005260206000200160009055905585600101600086815260200190815260200160002060009055600193505050506105e5565b60009150506105e5565b6000818152600183016020526040812054611a92575081546001818101845560008481526020808220909301849055845484825282860190935260409020919091556105e5565b5060006105e5565b60608160000180548060200260200160405190810160405280929190818152602001828054801561135557602002820191906000526020600020905b815481526020019060010190808311611ad65750505050509050919050565b508054611b0190612146565b6000825580601f10611b11575050565b601f01602090049060005260206000209081019061093a91905b80821115611b3f5760008155600101611b2b565b5090565b600060408284031215611b5557600080fd5b50919050565b600060408284031215611b6d57600080fd5b610a128383611b43565b6020808252825182820181905260009190848201906040850190845b81811015611baf57835183529284019291840191600101611b93565b50909695505050505050565b600060208284031215611bcd57600080fd5b5035919050565b7f4e487b7100000000000000000000000000000000000000000000000000000000600052604160045260246000fd5b604051601f82017fffffffffffffffffffffffffffffffffffffffffffffffffffffffffffffffe016810167ffffffffffffffff81118282101715611c4a57611c4a611bd4565b604052919050565b600067ffffffffffffffff821115611c6c57611c6c611bd4565b5060051b60200190565b600082601f830112611c8757600080fd5b81356020611c9c611c9783611c52565b611c03565b82815260059290921b84018101918181019086841115611cbb57600080fd5b8286015b84811015611cd65780358352918301918301611cbf565b509695505050505050565b600060208284031215611cf357600080fd5b813567ffffffffffffffff811115611d0a57600080fd5b611d1684828501611c76565b949350505050565b6000815180845260005b81811015611d4457602081850181015186830182015201611d28565b5060006020828601015260207fffffffffffffffffffffffffffffffffffffffffffffffffffffffffffffffe0601f83011685010191505092915050565b6000602080830181845280855180835260408601915060408160051b870101925083870160005b82811015611df5577fffffffffffffffffffffffffffffffffffffffffffffffffffffffffffffffc0888603018452611de3858351611d1e565b94509285019290850190600101611da9565b5092979650505050505050565b600082601f830112611e1357600080fd5b813567ffffffffffffffff811115611e2d57611e2d611bd4565b611e5e60207fffffffffffffffffffffffffffffffffffffffffffffffffffffffffffffffe0601f84011601611c03565b818152846020838601011115611e7357600080fd5b816020850160208301376000918101602001919091529392505050565b60008060408385031215611ea357600080fd5b823567ffffffffffffffff80821115611ebb57600080fd5b611ec786838701611c76565b9350602091508185013581811115611ede57600080fd5b8501601f81018713611eef57600080fd5b8035611efd611c9782611c52565b81815260059190911b82018401908481019089831115611f1c57600080fd5b8584015b83811015611f5457803586811115611f385760008081fd5b611f468c8983890101611e02565b845250918601918601611f20565b508096505050505050509250929050565b600060208284031215611f7757600080fd5b813567ffffffffffffffff811115611f8e57600080fd5b611d1684828501611e02565b60008060608385031215611fad57600080fd5b82359150611fbe8460208501611b43565b90509250929050565b600060208284031215611fd957600080fd5b813573ffffffffffffffffffffffffffffffffffffffff81168114610a1257600080fd5b6000806040838503121561201057600080fd5b823567ffffffffffffffff81111561202757600080fd5b61203385828601611e02565b95602094909401359450505050565b6000806040838503121561205557600080fd5b82359150602083013567ffffffffffffffff81111561207357600080fd5b61207f85828601611e02565b9150509250929050565b602081526000610a126020830184611d1e565b8060070b811461093a57600080fd5b6040810182356120ba8161209c565b60070b825260208301356120cd8161209c565b8060070b60208401525092915050565b600080604083850312156120f057600080fd5b82516120fb8161209c565b602084015190925061210c8161209c565b809150509250929050565b7f4e487b7100000000000000000000000000000000000000000000000000000000600052603260045260246000fd5b600181811c9082168061215a57607f821691505b602082108103611b55577f4e487b7100000000000000000000000000000000000000000000000000000000600052602260045260246000fd5b7f4e487b7100000000000000000000000000000000000000000000000000000000600052601160045260246000fd5b60007fffffffffffffffffffffffffffffffffffffffffffffffffffffffffffffffff82036121f3576121f3612193565b5060010190565b601f82111561129657600081815260208120601f850160051c810160208610156122215750805b601f850160051c820191505b818110156119435782815560010161222d565b815167ffffffffffffffff81111561225a5761225a611bd4565b61226e816122688454612146565b846121fa565b602080601f8311600181146122c1576000841561228b5750858301515b7fffffffffffffffffffffffffffffffffffffffffffffffffffffffffffffffff600386901b1c1916600185901b178555611943565b6000858152602081207fffffffffffffffffffffffffffffffffffffffffffffffffffffffffffffffe08616915b8281101561230e578886015182559484019460019091019084016122ef565b508582101561234a57878501517fffffffffffffffffffffffffffffffffffffffffffffffffffffffffffffffff600388901b60f8161c191681555b5050505050600190811b01905550565b828152604060208201526000611d166040830184611d1e565b818103818111156105e5576105e5612193565b7f4e487b7100000000000000000000000000000000000000000000000000000000600052603160045260246000fdfea2646970667358221220b641494b0654c2b5375a2b9f66adb28dab3edeb9f65adc745374d2efadf9618264736f6c63430008110033","linkReferences":{}},"methodIdentifiers":{"authorizeWriter(address)":"4fef6a38","cancelOwnershipHandover()":"54d1f13d","completeOwnershipHandover(address)":"f04e283e","extractRaw(uint256)":"e9ff6c76","extractRawBatch(uint256[])":"12b11155","getAt(bytes,uint256)":"6f9aa155","getEntities()":"31b933b9","getEntitiesWithValue((int64,int64))":"0f9c46fd","getEntitiesWithValue(bytes)":"b361be46","getRaw(uint256)":"dd98e3c9","getRawBatch(uint256[])":"4323c4ef","getValue(uint256)":"0ff4c916","has(uint256)":"cccf7a8e","id()":"af640d0f","owner()":"8da5cb5b","ownershipHandoverExpiresAt(address)":"fee81cf4","registerWorld(address)":"9d2c76b4","remove(uint256)":"4cc82215","removeBatch(uint256[])":"8482643e","renounceOwnership()":"715018a6","requestOwnershipHandover()":"25692962","set(uint256,(int64,int64))":"2f719846","set(uint256,bytes)":"8b282947","setBatch(uint256[],bytes[])":"13ca8b6a","size(bytes)":"1c5ee10c","transferOwnership(address)":"f2fde38b","unauthorizeWriter(address)":"bf4fe57e","world()":"30b67baa","writeAccess(address)":"861eb905"},"id":247}