{"abi":[{"type":"constructor","inputs":[{"name":"_world","type":"address","internalType":"contract IWorld"},{"name":"_components","type":"address","internalType":"address"}],"stateMutability":"nonpayable"},{"type":"function","name":"cancelOwnershipHandover","inputs":[],"outputs":[],"stateMutability":"payable"},{"type":"function","name":"completeOwnershipHandover","inputs":[{"name":"pendingOwner","type":"address","internalType":"address"}],"outputs":[],"stateMutability":"payable"},{"type":"function","name":"deprecate","inputs":[],"outputs":[],"stateMutability":"nonpayable"},{"type":"function","name":"execute","inputs":[{"name":"arguments","type":"bytes","internalType":"bytes"}],"outputs":[{"name":"","type":"bytes","internalType":"bytes"}],"stateMutability":"nonpayable"},{"type":"function","name":"executeTyped","inputs":[{"name":"targetProductionID","type":"uint256","internalType":"uint256"},{"name":"kamiID","type":"uint256","internalType":"uint256"}],"outputs":[{"name":"","type":"bytes","internalType":"bytes"}],"stateMutability":"nonpayable"},{"type":"function","name":"owner","inputs":[],"outputs":[{"name":"result","type":"address","internalType":"address"}],"stateMutability":"view"},{"type":"function","name":"ownershipHandoverExpiresAt","inputs":[{"name":"pendingOwner","type":"address","internalType":"address"}],"outputs":[{"name":"result","type":"uint256","internalType":"uint256"}],"stateMutability":"view"},{"type":"function","name":"renounceOwnership","inputs":[],"outputs":[],"stateMutability":"payable"},{"type":"function","name":"requestOwnershipHandover","inputs":[],"outputs":[],"stateMutability":"payable"},{"type":"function","name":"transferOwnership","inputs":[{"name":"newOwner","type":"address","internalType":"address"}],"outputs":[],"stateMutability":"payable"},{"type":"event","name":"OwnershipHandoverCanceled","inputs":[{"name":"pendingOwner","type":"address","indexed":true,"internalType":"address"}],"anonymous":false},{"type":"event","name":"OwnershipHandoverRequested","inputs":[{"name":"pendingOwner","type":"address","indexed":true,"internalType":"address"}],"anonymous":false},{"type":"event","name":"OwnershipTransferred","inputs":[{"name":"oldOwner","type":"address","indexed":true,"internalType":"address"},{"name":"newOwner","type":"address","indexed":true,"internalType":"address"}],"anonymous":false},{"type":"event","name":"SystemDeprecated","inputs":[],"anonymous":false},{"type":"error","name":"AlreadyInitialized","inputs":[]},{"type":"error","name":"NewOwnerIsZeroAddress","inputs":[]},{"type":"error","name":"NoHandoverRequest","inputs":[]},{"type":"error","name":"Unauthorized","inputs":[]}],"bytecode":{"object":"0x60c06040523480156200001157600080fd5b50604051620057cf380380620057cf83398101604081905262000034916200012f565b81816200004133620000dc565b6001600160a01b03811615620000585780620000bd565b816001600160a01b031663ba62fbe46040518163ffffffff1660e01b8152600401602060405180830381865afa15801562000097573d6000803e3d6000fd5b505050506040513d601f19601f82011682018060405250810190620000bd91906200016e565b6001600160a01b039081166080529190911660a0525062000195915050565b6001600160a01b0316638b78c6d8198190558060007f8be0079c531659141344cd1fd0a4f28419497f9722a3daafe3b4186f6b6457e08180a35b50565b6001600160a01b03811681146200011657600080fd5b600080604083850312156200014357600080fd5b8251620001508162000119565b6020840151909250620001638162000119565b809150509250929050565b6000602082840312156200018157600080fd5b81516200018e8162000119565b9392505050565b60805160a05161551f620002b06000396000610acb01526000818161021a01528181610246015281816102710152818161032c015281816103bd0152818161044d01528181610477015281816105090152818161053701528181610565015281816105fa0152818161068d015281816106b90152818161071b0152818161081b015281816108490152818161087e015281816108aa015281816108d7015281816109060152818161093c0152818161096b015281816109b2015281816109df01528181610a0e01528181610a3b01528181610a7701528181610aa101528181610aec01528181610b2401528181610b4f01528181610bb101528181610bd601528181610c0501528181610c2a0152610c59015261551f6000f3fe6080604052600436106100b15760003560e01c80638da5cb5b11610069578063f04e283e1161004e578063f04e283e1461018f578063f2fde38b146101a2578063fee81cf4146101b557600080fd5b80638da5cb5b1461011b578063915657fb1461016f57600080fd5b8063256929621161009a578063256929621461010357806354d1f13d1461010b578063715018a61461011357600080fd5b806309c5eabe146100b65780630fcc0c28146100ec575b600080fd5b3480156100c257600080fd5b506100d66100d1366004614aea565b6101f6565b6040516100e39190614bd8565b60405180910390f35b3480156100f857600080fd5b50610101610ca1565b005b610101610cd4565b610101610d24565b610101610d60565b34801561012757600080fd5b507fffffffffffffffffffffffffffffffffffffffffffffffffffffffff748739275460405173ffffffffffffffffffffffffffffffffffffffff90911681526020016100e3565b34801561017b57600080fd5b506100d661018a366004614beb565b610d74565b61010161019d366004614c0d565b610db2565b6101016101b0366004614c0d565b610df2565b3480156101c157600080fd5b506101e86101d0366004614c0d565b63389a75e1600c908152600091909152602090205490565b6040519081526020016100e3565b60606000808380602001905181019061020f9190614c43565b91509150600061023f7f000000000000000000000000000000000000000000000000000000000000000033610e19565b905061026c7f00000000000000000000000000000000000000000000000000000000000000008383610fd9565b6102967f000000000000000000000000000000000000000000000000000000000000000083611090565b610327576040517f08c379a000000000000000000000000000000000000000000000000000000000815260206004820152602560248201527f4661726d4c69717569646174653a20706574206d75737420626520686172766560448201527f7374696e6700000000000000000000000000000000000000000000000000000060648201526084015b60405180910390fd5b6103517f000000000000000000000000000000000000000000000000000000000000000083611116565b156103b8576040517f08c379a000000000000000000000000000000000000000000000000000000000815260206004820152601e60248201527f4661726d4c69717569646174653a20706574206f6e20636f6f6c646f776e0000604482015260640161031e565b6103e27f000000000000000000000000000000000000000000000000000000000000000084611122565b610448576040517f08c379a000000000000000000000000000000000000000000000000000000000815260206004820152601f60248201527f4661726d4c69717569646174653a204861727665737420696e61637469766500604482015260640161031e565b6104727f00000000000000000000000000000000000000000000000000000000000000008361117d565b61049c7f00000000000000000000000000000000000000000000000000000000000000008361132c565b610502576040517f08c379a000000000000000000000000000000000000000000000000000000000815260206004820152601d60248201527f4661726d4c69717569646174653a20706574207374617276696e672e2e000000604482015260640161031e565b600061052e7f000000000000000000000000000000000000000000000000000000000000000084611348565b9050600061055c7f000000000000000000000000000000000000000000000000000000000000000083611354565b9050600061058a7f000000000000000000000000000000000000000000000000000000000000000087611354565b90508082146105f5576040517f08c379a000000000000000000000000000000000000000000000000000000000815260206004820152601d60248201527f4661726d4c69717569646174653a2074617267657420746f6f20666172000000604482015260640161031e565b6106207f000000000000000000000000000000000000000000000000000000000000000085846113fb565b610686576040517f08c379a000000000000000000000000000000000000000000000000000000000815260206004820152601b60248201527f4661726d4c69717569646174653a206e6f646520746f6f206661720000000000604482015260640161031e565b60006106b27f00000000000000000000000000000000000000000000000000000000000000008861144a565b90506106de7f00000000000000000000000000000000000000000000000000000000000000008261117d565b6040517f15e0422400000000000000000000000000000000000000000000000000000000815273ffffffffffffffffffffffffffffffffffffffff7f0000000000000000000000000000000000000000000000000000000000000000166004820152602481018290526044810187905273__$f37cf2deef6f842b55be87596401d99d8d$__906315e0422490606401602060405180830381865af415801561078a573d6000803e3d6000fd5b505050506040513d601f19601f820116820180604052508101906107ae9190614c67565b610814576040517f08c379a000000000000000000000000000000000000000000000000000000000815260206004820152601660248201527f5065743a20796f75206c61636b2076696f6c656e636500000000000000000000604482015260640161031e565b60006108407f000000000000000000000000000000000000000000000000000000000000000089611476565b9050600061086f7f00000000000000000000000000000000000000000000000000000000000000008484611484565b905080156108ff5760006108a37f0000000000000000000000000000000000000000000000000000000000000000856115d4565b90506108d27f000000000000000000000000000000000000000000000000000000000000000082600185611620565b6108fd7f00000000000000000000000000000000000000000000000000000000000000008584611683565b505b60006109357f00000000000000000000000000000000000000000000000000000000000000008a6109308587614cb8565b6116b8565b90506109647f000000000000000000000000000000000000000000000000000000000000000088600184611620565b60006109907f00000000000000000000000000000000000000000000000000000000000000008661173e565b905060006107d06109a18684614ccb565b6109ab9190614d11565b90506109d87f00000000000000000000000000000000000000000000000000000000000000008c83611683565b6000610a057f00000000000000000000000000000000000000000000000000000000000000008d8661187c565b90506000610a347f00000000000000000000000000000000000000000000000000000000000000008e8a6119d5565b9050610a727f00000000000000000000000000000000000000000000000000000000000000008e610a6d610a688587614d25565b611a8d565b611aa6565b610a9c7f000000000000000000000000000000000000000000000000000000000000000089611ba8565b610ac67f00000000000000000000000000000000000000000000000000000000000000008f611d59565b610b1e7f00000000000000000000000000000000000000000000000000000000000000007f00000000000000000000000000000000000000000000000000000000000000008f8b8e610b188c8e614cb8565b8b611d9d565b50610b4a7f00000000000000000000000000000000000000000000000000000000000000008e4261220a565b610bac7f00000000000000000000000000000000000000000000000000000000000000008d6040518060400160405280600981526020017f4c4951554944415445000000000000000000000000000000000000000000000081525060016122c3565b610c007f00000000000000000000000000000000000000000000000000000000000000008d610bfb7f00000000000000000000000000000000000000000000000000000000000000008e6122f5565b61239c565b610c547f00000000000000000000000000000000000000000000000000000000000000008d610c4f7f00000000000000000000000000000000000000000000000000000000000000008c6115d4565b61253a565b610c7e7f00000000000000000000000000000000000000000000000000000000000000008d6125ca565b50506040805160208101909152600081529e9d5050505050505050505050505050565b610ca96125d5565b6040517f56f33501ffd77f9fe44d81e7db7e66a66bdf52ab3e11267cdc6462763604c4c790600090a1565b60006202a30067ffffffffffffffff164201905063389a75e1600c5233600052806020600c2055337fdbf36a107da19e49527a7176a1babf963b4b0ff8cde35ee35d6cd8f1f9ac7e1d600080a250565b63389a75e1600c523360005260006020600c2055337ffa7b8eab7da67f412cc9575ed43464468f9bfbae89d1675917346ca6d8fe3c92600080a2565b610d686125d5565b610d72600061260b565b565b6060610da98383604051602001610d95929190918252602082015260400190565b6040516020818303038152906040526101f6565b90505b92915050565b610dba6125d5565b63389a75e1600c52806000526020600c208054421115610de257636f5e88186000526004601cfd5b60009055610def8161260b565b50565b610dfa6125d5565b8060601b610e1057637448fbae6000526004601cfd5b610def8161260b565b600080610e46847ff9b94d2a933222e58f90359e8ec33041c5f08d7bc4304958d1c52c21991da575612671565b6040517fcccf7a8e00000000000000000000000000000000000000000000000000000000815273ffffffffffffffffffffffffffffffffffffffff8581166004830181905292935083169063cccf7a8e90602401602060405180830381865afa158015610eb7573d6000803e3d6000fd5b505050506040513d601f19601f82011682018060405250810190610edb9190614c67565b610f41576040517f08c379a000000000000000000000000000000000000000000000000000000000815260206004820152601b60248201527f4163636f756e743a204f70657261746f72206e6f7420666f756e640000000000604482015260640161031e565b6040517f9507d39a0000000000000000000000000000000000000000000000000000000081526004810182905273ffffffffffffffffffffffffffffffffffffffff831690639507d39a90602401602060405180830381865afa158015610fac573d6000803e3d6000fd5b505050506040513d601f19601f82011682018060405250810190610fd09190614d38565b95945050505050565b6110258282611008867fdb1228220c36234210e3f04b6ac039f5d81c4d6d81f43d9b4a9d70c4d5bcfac16127bd565b73ffffffffffffffffffffffffffffffffffffffff1691906127c9565b61108b576040517f08c379a000000000000000000000000000000000000000000000000000000000815260206004820152600c60248201527f6b616d69206e6f74207572730000000000000000000000000000000000000000604482015260640161031e565b505050565b6000610da9826040518060400160405280600a81526020017f48415256455354494e47000000000000000000000000000000000000000000008152506110f9867f3630e5d2b4dfc42bb69d52e4eef89343acb69d5153f64efe5860a680a55082e760001c6127bd565b73ffffffffffffffffffffffffffffffffffffffff1691906127df565b6000610da983836127f5565b6000610da96040518060400160405280600681526020017f4143544956450000000000000000000000000000000000000000000000000000815250611167858561281c565b8051602091820120825192909101919091201490565b6000611189838361281c565b90506111d36040518060400160405280600a81526020017f48415256455354494e47000000000000000000000000000000000000000000008152508261116790919063ffffffff16565b156112ba5760006111e48484611348565b6040517f0de63b7600000000000000000000000000000000000000000000000000000000815273ffffffffffffffffffffffffffffffffffffffff861660048201526024810182905290915060009073__$5960f805d8ade0610b49318b73f60bf5ce$__90630de63b7690604401602060405180830381865af415801561126f573d6000803e3d6000fd5b505050506040513d601f19601f820116820180604052508101906112939190614d38565b905060006112a286868461187c565b90506112b28686610a6d84611a8d565b505050611321565b60408051808201909152600781527f52455354494e470000000000000000000000000000000000000000000000000060208201526112f9908290611167565b1561132157600061130a84846128e5565b905061131f848461131a84611a8d565b61292c565b505b61108b838342612a19565b6000806113398484612a43565b6060015160030b139392505050565b6000610da98383612ab1565b6000611380837faa307edc224ff30d3376a8fd6134dde3bc74ef449ad0965df67766cefba5d950612671565b73ffffffffffffffffffffffffffffffffffffffff16639507d39a836040518263ffffffff1660e01b81526004016113ba91815260200190565b602060405180830381865afa1580156113d7573d6000803e3d6000fd5b505050506040513d601f19601f82011682018060405250810190610da99190614d38565b6000808061143361142c877f3be9611062b8582cf4b9a4eafe577dbde7dcd7779a1efb46d73e212026c4b0cc6127bd565b8686612b0a565b63ffffffff918216911614925050505b9392505050565b6000611380837f2bb7622db4da5f7e7eea401934e1aad6c7d1da02bbc8a781667756884614eeb9612671565b6000610da983836001612bc3565b6000806114c6856040518060400160405280601081526020017f4b414d495f4c49515f53414c5641474500000000000000000000000000000000815250612c00565b9050600061150a86866040518060400160405280601181526020017f4445465f53414c564147455f524154494f000000000000000000000000000000815250612c1f565b9050600061152361151b8888612d86565b60030b612d93565b6020840151606085015191925060009161153d9190614d80565b61154890600a614ec4565b845161155b90849063ffffffff16614d25565b6115659190614ccb565b9050600061157284612d93565b604086015161158890849063ffffffff16614d25565b6115929190614d25565b9050600085600360200201516115af9063ffffffff16600a614ed6565b9050806115bc838a614ccb565b6115c69190614d11565b9a9950505050505050505050565b6000610da982611604857fdb1228220c36234210e3f04b6ac039f5d81c4d6d81f43d9b4a9d70c4d5bcfac16127bd565b73ffffffffffffffffffffffffffffffffffffffff1690612da5565b600061162d858585612e84565b905061167b818361165e887fb25ea67b55901db62e4b14311a8c1ab178fec3948b4b493a711970a50aa2a2e1612671565b73ffffffffffffffffffffffffffffffffffffffff169190613053565b505050505050565b6116b2828261165e867ff751b4a95c9cfabe52899e09ae113eac17e41cc0cc2dad670d2789ecc1251add612671565b50505050565b6000806116fa856040518060400160405280600f81526020017f4b414d495f4c49515f53504f494c530000000000000000000000000000000000815250612c00565b9050600061150a86866040518060400160405280601081526020017f41544b5f53504f494c535f524154494f00000000000000000000000000000000815250612c1f565b60008061174b84846130fb565b9050600061178e856040518060400160405280601181526020017f4b414d495f4c564c5f5245515f42415345000000000000000000000000000000815250613257565b9050670de0b6b3a764000060018311156118555760006117e3876040518060400160405280601681526020017f4b414d495f4c564c5f5245515f4d554c545f4241534500000000000000000000815250612c00565b8051602082015191925063ffffffff908116916000916118059116600a614ed6565b905060008161181c84670de0b6b3a7640000614ccb565b6118269190614d11565b905061184e8161183760018a614cb8565b61184990670de0b6b3a7640000614ee2565b61326f565b9450505050505b670de0b6b3a76400006118688284614ccb565b6118729190614d11565b9695505050505050565b6000806118be856040518060400160405280601081526020017f4b414d495f484152565f53545241494e00000000000000000000000000000000815250612c00565b9050600061190286866040518060400160405280601181526020017f53544e445f53545241494e5f424f4f5354000000000000000000000000000000815250612c1f565b604083015160c084015191925063ffffffff90811691600091849161192791166132a0565b6119319190614f2e565b9050600061194261151b8a8a6132d1565b60e0860151606087015191925060009161195c9190614f56565b61196d9063ffffffff16600a614ed6565b86519091506000906119859063ffffffff1684614d25565b61198f9083614ccb565b90508061199d600182614cb8565b856119a8888d614ccb565b6119b29190614ccb565b6119bc9190614d25565b6119c69190614d11565b9b9a5050505050505050505050565b600080611a17856040518060400160405280600e81526020017f4b414d495f4c49515f4b41524d41000000000000000000000000000000000000815250612c00565b90506000611a2861151b87876132de565b90506000611a3961151b88876132de565b6040840151606085015191925063ffffffff90811691600091611a5e9116600a614ed6565b90508082611a6c8587614d25565b611a769190614ccb565b611a809190614d11565b9998505050505050505050565b600063800000008210611aa257611aa26132eb565b5090565b8060030b600003611ab657505050565b611ae0837f7f11100822994501b15df98b1bd24b3eb0d73863f512da0bf8f165b0150c537d612671565b73ffffffffffffffffffffffffffffffffffffffff16636ef23a3d83611b26847fffffffffffffffffffffffffffffffffffffffffffffffffffffffffffffffff614f73565b6040517fffffffff0000000000000000000000000000000000000000000000000000000060e085901b168152600481019290925260030b60248201526044016020604051808303816000875af1158015611b84573d6000803e3d6000fd5b505050506040513d601f19601f820116820180604052508101906116b29190614f93565b611bd2827f3630e5d2b4dfc42bb69d52e4eef89343acb69d5153f64efe5860a680a55082e7612671565b73ffffffffffffffffffffffffffffffffffffffff166364371977826040518060400160405280600481526020017f44454144000000000000000000000000000000000000000000000000000000008152506040518363ffffffff1660e01b8152600401611c41929190614fb6565b600060405180830381600087803b158015611c5b57600080fd5b505af1158015611c6f573d6000803e3d6000fd5b50505050611ca0827f7f11100822994501b15df98b1bd24b3eb0d73863f512da0bf8f165b0150c537d60001c612671565b6040517f6ef23a3d000000000000000000000000000000000000000000000000000000008152600481018390527fffffffffffffffffffffffffffffffffffffffffffffffffffffffff80000000602482015273ffffffffffffffffffffffffffffffffffffffff9190911690636ef23a3d906044016020604051808303816000875af1158015611d35573d6000803e3d6000fd5b505050506040513d601f19601f8201168201806040525081019061108b9190614f93565b611d9982826040518060400160405280600881526020017f494e4143544956450000000000000000000000000000000000000000000000008152506132f9565b5050565b60008773ffffffffffffffffffffffffffffffffffffffff1663614bfa6e6040518163ffffffff1660e01b81526004016020604051808303816000875af1158015611dec573d6000803e3d6000fd5b505050506040513d601f19601f82011682018060405250810190611e109190614d38565b9050611e3c877fb6bdcc62626ced423f5f38e4e456e04d992e999e95927e90a162c8101d228a1f612671565b73ffffffffffffffffffffffffffffffffffffffff166360fe47b1826040518263ffffffff1660e01b8152600401611e7691815260200190565b600060405180830381600087803b158015611e9057600080fd5b505af1158015611ea4573d6000803e3d6000fd5b50505050611ed5877fc81ce03c0ce7d95786aa8f43fb06c16da8357e856cb08b2052b4bf1807cf8ab360001c612671565b6040517f1ab06ee5000000000000000000000000000000000000000000000000000000008152600481018390526024810188905273ffffffffffffffffffffffffffffffffffffffff9190911690631ab06ee590604401600060405180830381600087803b158015611f4657600080fd5b505af1158015611f5a573d6000803e3d6000fd5b50505050611f8b877f62e5c3a731a312a02bd0a6e08720624c014a22c9f60c82fede06a9606c50581560001c612671565b6040517f1ab06ee5000000000000000000000000000000000000000000000000000000008152600481018390526024810187905273ffffffffffffffffffffffffffffffffffffffff9190911690631ab06ee590604401600060405180830381600087803b158015611ffc57600080fd5b505af1158015612010573d6000803e3d6000fd5b50505050612041877faa307edc224ff30d3376a8fd6134dde3bc74ef449ad0965df67766cefba5d95060001c612671565b6040517f1ab06ee5000000000000000000000000000000000000000000000000000000008152600481018390526024810186905273ffffffffffffffffffffffffffffffffffffffff9190911690631ab06ee590604401600060405180830381600087803b1580156120b257600080fd5b505af11580156120c6573d6000803e3d6000fd5b505050506120f7877f040fc38fe5717491c84059f73f7686f4157d14971215773d341a2ede964d65ac60001c612671565b6040517f1ab06ee50000000000000000000000000000000000000000000000000000000081526004810183905242602482015273ffffffffffffffffffffffffffffffffffffffff9190911690631ab06ee590604401600060405180830381600087803b15801561216757600080fd5b505af115801561217b573d6000803e3d6000fd5b50505050612187614a07565b6121908461335d565b63ffffffff1681526121a18361335d565b816001602002019063ffffffff16908163ffffffff16815250506121fe888360006040518060400160405280600d81526020017f4b494c4c5f424f554e544945530000000000000000000000000000000000000081525085613373565b50979650505050505050565b612234837f5f9759544a286ad42df1aa1cab6dca162b48885d3060ac74aecbf8ff4483ad1b612671565b6040517f1ab06ee5000000000000000000000000000000000000000000000000000000008152600481018490526024810183905273ffffffffffffffffffffffffffffffffffffffff9190911690631ab06ee5906044015b600060405180830381600087803b1580156122a657600080fd5b505af11580156122ba573d6000803e3d6000fd5b50505050505050565b60006122ce85613395565b905060006122dd8583866133d6565b905061167b8682876122ef888761342b565b8761347d565b6000612321837f076fae2ce684ff843e499be243657d8fb16b0eb71350c7a9da8fa7be44c14f3e612671565b73ffffffffffffffffffffffffffffffffffffffff16639507d39a836040518263ffffffff1660e01b815260040161235b91815260200190565b602060405180830381865afa158015612378573d6000803e3d6000fd5b505050506040513d601f19601f82011682018060405250810190610da99190614fcf565b604080516003808252608082019092526000916020820160608036833701905050905081816001815181106123d3576123d3614d51565b63ffffffff929092166020928302919091019091015260408051600380825260808201909252600091816020015b60608152602001906001900390816124015790505090506040518060400160405280600f81526020017f4c49515549444154455f544f54414c00000000000000000000000000000000008152508160008151811061246157612461614d51565b60200260200101819052506040518060400160405280601181526020017f4c49515549444154455f41545f4e4f4445000000000000000000000000000000815250816001815181106124b5576124b5614d51565b60200260200101819052506125076040518060400160405280600981526020017f4c49515f5748454e5f0000000000000000000000000000000000000000000000815250612502426134b8565b6134cb565b8160028151811061251a5761251a614d51565b6020026020010181905250612533858584846001613544565b5050505050565b61257e838260006040518060400160405280601181526020017f4c4951554944415445445f56494354494d0000000000000000000000000000008152506001613610565b61108b838361258d868561362a565b6040518060400160405280600e81526020017f4c49515f5441524745545f4143430000000000000000000000000000000000008152506001613610565b611d99828242612a19565b7fffffffffffffffffffffffffffffffffffffffffffffffffffffffff74873927543314610d72576382b429006000526004601cfd5b7fffffffffffffffffffffffffffffffffffffffffffffffffffffffff74873927805473ffffffffffffffffffffffffffffffffffffffff9092169182907f8be0079c531659141344cd1fd0a4f28419497f9722a3daafe3b4186f6b6457e0600080a355565b6040517ffbdfa1ea00000000000000000000000000000000000000000000000000000000815260048101829052600090819073ffffffffffffffffffffffffffffffffffffffff85169063fbdfa1ea90602401600060405180830381865afa1580156126e1573d6000803e3d6000fd5b505050506040513d6000823e601f3d9081017fffffffffffffffffffffffffffffffffffffffffffffffffffffffffffffffe01682016040526127279190810190615019565b90508051600003612794576040517f08c379a000000000000000000000000000000000000000000000000000000000815260206004820152601160248201527f6964206e6f742072656769737465726564000000000000000000000000000000604482015260640161031e565b6127b5816000815181106127aa576127aa614d51565b602002602001015190565b949350505050565b6000610da98383612671565b6000816127d68585612da5565b14949350505050565b60006127b5826127ef8686613656565b90611167565b6000806128028484613742565b905060006128108585613777565b90911315949350505050565b6060612848837f3630e5d2b4dfc42bb69d52e4eef89343acb69d5153f64efe5860a680a55082e7612671565b73ffffffffffffffffffffffffffffffffffffffff16639507d39a836040518263ffffffff1660e01b815260040161288291815260200190565b600060405180830381865afa15801561289f573d6000803e3d6000fd5b505050506040513d6000823e601f3d9081017fffffffffffffffffffffffffffffffffffffffffffffffffffffffffffffffe0168201604052610da991908101906150da565b6000806128f2848461382f565b905060006129008585613950565b61290a9042614cb8565b90506129186009600a614ed6565b6129228383614ccb565b610fd09190614d11565b8060030b60000361293c57505050565b6000612948848461397c565b9050612974847f7f11100822994501b15df98b1bd24b3eb0d73863f512da0bf8f165b0150c537d612671565b6040517f06e7645600000000000000000000000000000000000000000000000000000000815260048101859052600384810b602483015283900b604482015273ffffffffffffffffffffffffffffffffffffffff91909116906306e76456906064016020604051808303816000875af11580156129f5573d6000803e3d6000fd5b505050506040513d601f19601f820116820180604052508101906125339190614f93565b612234837f342adee7430e96bca6f5d4fe57ba5155dc7271000494e77110c292d51ae887fa612671565b604080516080810182526000808252602082018190529181018290526060810191909152610da982612a95857f7f11100822994501b15df98b1bd24b3eb0d73863f512da0bf8f165b0150c537d612671565b73ffffffffffffffffffffffffffffffffffffffff1690613989565b600080612abd83613aa0565b9050612aff84826040518060400160405280600781526020017f4841525645535400000000000000000000000000000000000000000000000000815250613b13565b6114435760006127b5565b6040805160028082526060820183526000928392839290916020830190803683370190505090508481600081518110612b4557612b45614d51565b6020026020010181815250508381600181518110612b6557612b65614d51565b6020026020010181815250506000612b7d8783613b44565b905080600081518110612b9257612b92614d51565b602002602001015181600181518110612bad57612bad614d51565b6020026020010151935093505050935093915050565b600080612bd08484613cd2565b9050610fd081611604877fb25ea67b55901db62e4b14311a8c1ab178fec3948b4b493a711970a50aa2a2e1612671565b612c08614a07565b6000612c1383613d39565b90506127b58482613d4c565b600080612c2c8484613d66565b90506000612c5a867f50d80ec5b1169fa90f6a93a06362786b45e53ec8c05572cba38875a52f86a3bc612671565b6040517fcccf7a8e0000000000000000000000000000000000000000000000000000000081526004810184905290915073ffffffffffffffffffffffffffffffffffffffff82169063cccf7a8e90602401602060405180830381865afa158015612cc8573d6000803e3d6000fd5b505050506040513d601f19601f82011682018060405250810190612cec9190614c67565b612cf7576000611872565b6040517f9507d39a0000000000000000000000000000000000000000000000000000000081526004810183905273ffffffffffffffffffffffffffffffffffffffff821690639507d39a90602401602060405180830381865afa158015612d62573d6000803e3d6000fd5b505050506040513d601f19601f820116820180604052508101906118729190614d38565b6000806127b58484613d7b565b600080821215611aa257611aa26132eb565b6040517fdd98e3c900000000000000000000000000000000000000000000000000000000815260048101829052600090819073ffffffffffffffffffffffffffffffffffffffff85169063dd98e3c990602401600060405180830381865afa158015612e15573d6000803e3d6000fd5b505050506040513d6000823e601f3d9081017fffffffffffffffffffffffffffffffffffffffffffffffffffffffffffffffe0168201604052612e5b9190810190615143565b90508051600003612e70576000915050610dac565b808060200190518101906127b59190614d38565b6000612e908383613cd2565b90506000612ed485836040518060400160405280600981526020017f494e56454e544f52590000000000000000000000000000000000000000000000815250613e22565b90508061304b57612f05857fd3da495fedd385ac62763d969054ffb19f1777e687374cceb91f1237ddd6bfb3612671565b6040517fd923c3c40000000000000000000000000000000000000000000000000000000081526004810184905263ffffffff8516602482015273ffffffffffffffffffffffffffffffffffffffff919091169063d923c3c490604401600060405180830381600087803b158015612f7b57600080fd5b505af1158015612f8f573d6000803e3d6000fd5b50505050612fc0857f1ee9964c9c16bbb74f9e401f1ab450f99b2343a602036525f23f0da350bc74d060001c612671565b6040517f1ab06ee5000000000000000000000000000000000000000000000000000000008152600481018490526024810186905273ffffffffffffffffffffffffffffffffffffffff9190911690631ab06ee5906044015b600060405180830381600087803b15801561303257600080fd5b505af1158015613046573d6000803e3d6000fd5b505050505b509392505050565b6000816130608585612da5565b61306a9190614d25565b6040517f1ab06ee5000000000000000000000000000000000000000000000000000000008152600481018590526024810182905290915073ffffffffffffffffffffffffffffffffffffffff851690631ab06ee590604401600060405180830381600087803b1580156130dc57600080fd5b505af11580156130f0573d6000803e3d6000fd5b505050509392505050565b600080613128847ff8911dfd3f908e7a27ff20b80381dc7334f6abc557cdd58de4a9bfb47ebde734612671565b6040517fcccf7a8e0000000000000000000000000000000000000000000000000000000081526004810185905290915073ffffffffffffffffffffffffffffffffffffffff82169063cccf7a8e90602401602060405180830381865afa158015613196573d6000803e3d6000fd5b505050506040513d601f19601f820116820180604052508101906131ba9190614c67565b6131c8576001915050610dac565b6040517f9507d39a0000000000000000000000000000000000000000000000000000000081526004810184905273ffffffffffffffffffffffffffffffffffffffff821690639507d39a90602401602060405180830381865afa158015613233573d6000803e3d6000fd5b505050506040513d601f19601f820116820180604052508101906127b59190614d38565b60008061326383613d39565b90506127b58482613ed0565b6000610da9670de0b6b3a76400008361328786613efc565b6132919190614ee2565b61329b9190615178565b614157565b60007f80000000000000000000000000000000000000000000000000000000000000008210611aa257611aa26132eb565b6000806127b5848461433f565b6000806127b5848461436b565b6335278d126000526004601cfd5b613323837f3630e5d2b4dfc42bb69d52e4eef89343acb69d5153f64efe5860a680a55082e7612671565b73ffffffffffffffffffffffffffffffffffffffff16636437197783836040518363ffffffff1660e01b815260040161228c929190614fb6565b60006401000000008210611aa257611aa26132eb565b6000613380858585614397565b905061167b8682613390856143ae565b614482565b6000610dac826040518060400160405280601181526020017f4c4541444552424f4152445f45504f4348000000000000000000000000000000815250613257565b60008383836040516020016133ed939291906151e0565b604080517fffffffffffffffffffffffffffffffffffffffffffffffffffffffffffffffe08184030181529190528051602090910120949350505050565b60008282604051602001613440929190615233565b604080517fffffffffffffffffffffffffffffffffffffffffffffffffffffffffffffffe081840301815291905280516020909101209392505050565b613489858585856144ac565b61167b848261165e887fb25ea67b55901db62e4b14311a8c1ab178fec3948b4b493a711970a50aa2a2e1612671565b6060610dac6134c6836146b2565b6146e5565b60405182517fffffffffffffffffffffffffffffffffffffffffffffffffffffffffffffffe0906020810182165b85810151848201528201806134f9575083518184018360208301165b86810151828201528401806135155750506000910183810160208101929092528352603f011660405292915050565b6000835167ffffffffffffffff81111561356057613560614a26565b604051908082528060200260200182016040528015613589578160200160208202803683370190505b50905060005b8451811015613604576135d5868683815181106135ae576135ae614d51565b60200260200101518684815181106135c8576135c8614d51565b6020026020010151614397565b8282815181106135e7576135e7614d51565b6020908102919091010152806135fc8161527f565b91505061358f565b5061167b8682846147be565b600061361d858585614397565b905061167b86828461480a565b6000612321837f70cc041351935ace62b695dbbdf5596e58eca0b3e88afa19b17d006c9a058dc0612671565b6040517fdd98e3c90000000000000000000000000000000000000000000000000000000081526004810182905260609060009073ffffffffffffffffffffffffffffffffffffffff85169063dd98e3c990602401600060405180830381865afa1580156136c7573d6000803e3d6000fd5b505050506040513d6000823e601f3d9081017fffffffffffffffffffffffffffffffffffffffffffffffffffffffffffffffe016820160405261370d9190810190615143565b9050805160000361372e575050604080516020810190915260008152610dac565b808060200190518101906127b591906150da565b6000610da9613771847f5f9759544a286ad42df1aa1cab6dca162b48885d3060ac74aecbf8ff4483ad1b612671565b83614839565b6000806137c16137bc856040518060400160405280601681526020017f4b414d495f5354414e444152445f434f4f4c444f574e00000000000000000000815250613257565b6132a0565b9050600061380585856040518060400160405280601381526020017f53544e445f434f4f4c444f574e5f534849465400000000000000000000000000815250612c1f565b905060006138138284614f2e565b9050600081126138235780611872565b50600095945050505050565b600080613871846040518060400160405280601481526020017f4b414d495f524553545f4d455441424f4c49534d000000000000000000000000815250612c00565b905060006138bd6138b886866040518060400160405280601581526020017f524553545f4d455441424f4c49534d5f424f4f53540000000000000000000000815250612c1f565b612d93565b905060006138ce61151b87876132d1565b604084015160c085015191925063ffffffff908116916000916138f391869116614d25565b60e0860151606087015191925060009161390d9190614f56565b61391e9063ffffffff166009614cb8565b61392990600a614ed6565b90506000610e10838561393c8886614ccb565b6139469190614ccb565b6115bc9190614ccb565b6000611380837f342adee7430e96bca6f5d4fe57ba5155dc7271000494e77110c292d51ae887fa612671565b6000806127b58484614871565b6040805160808101825260008082526020820181905291810182905260608101919091526040517fdd98e3c90000000000000000000000000000000000000000000000000000000081526004810183905260009073ffffffffffffffffffffffffffffffffffffffff85169063dd98e3c990602401600060405180830381865afa158015613a1b573d6000803e3d6000fd5b505050506040513d6000823e601f3d9081017fffffffffffffffffffffffffffffffffffffffffffffffffffffffffffffffe0168201604052613a619190810190615143565b90508051600003613a97575050604080516080810182526000808252602082018190529181018290526060810191909152610dac565b6127b58161489d565b6040517f70726f64756374696f6e000000000000000000000000000000000000000000006020820152602a8101829052600090604a015b604080517fffffffffffffffffffffffffffffffffffffffffffffffffffffffffffffffe0818403018152919052805160209091012092915050565b60006127b583836110f9877f5d88ced8d8e079072bf73f49fc87661b519c50d79482941abb852ba2b10909cd612671565b606060008373ffffffffffffffffffffffffffffffffffffffff16634323c4ef846040518263ffffffff1660e01b8152600401613b8191906152b7565b600060405180830381865afa158015613b9e573d6000803e3d6000fd5b505050506040513d6000823e601f3d9081017fffffffffffffffffffffffffffffffffffffffffffffffffffffffffffffffe0168201604052613be491908101906152fb565b90506000815167ffffffffffffffff811115613c0257613c02614a26565b604051908082528060200260200182016040528015613c2b578160200160208202803683370190505b50905060005b8251811015613cc9576000838281518110613c4e57613c4e614d51565b60200260200101515111613c63576000613c90565b828181518110613c7557613c75614d51565b6020026020010151806020019051810190613c909190614fcf565b828281518110613ca257613ca2614d51565b63ffffffff9092166020928302919091019091015280613cc18161527f565b915050613c31565b50949350505050565b6040517f696e76656e746f72792e696e7374616e636500000000000000000000000000006020820152603281018390527fffffffff0000000000000000000000000000000000000000000000000000000060e083901b166052820152600090605601613440565b600081604051602001613ad791906153ac565b613d54614a07565b610da9613d618484613ed0565b614964565b600082826040516020016134409291906153f1565b6000613da7837f036642765aca64d0dc0aa7a1a5b293901589aec219fb89c7c5e7c042e927386c612671565b73ffffffffffffffffffffffffffffffffffffffff1663af6128c2836040518263ffffffff1660e01b8152600401613de191815260200190565b602060405180830381865afa158015613dfe573d6000803e3d6000fd5b505050506040513d601f19601f82011682018060405250810190610da99190614f93565b600080613e4f857f5d88ced8d8e079072bf73f49fc87661b519c50d79482941abb852ba2b10909cd612671565b9050613e75836127ef73ffffffffffffffffffffffffffffffffffffffff841687613656565b91508161304b576040517f6437197700000000000000000000000000000000000000000000000000000000815273ffffffffffffffffffffffffffffffffffffffff8216906364371977906130189087908790600401614fb6565b6000611380837fb25ea67b55901db62e4b14311a8c1ab178fec3948b4b493a711970a50aa2a2e1612671565b6fffffffffffffffffffffffffffffffff811160071b81811c67ffffffffffffffff1060061b1781811c63ffffffff1060051b1781811c61ffff1060041b1781811c60ff1060031b1760008213613f5b57631615e6386000526004601cfd5b7ff8f9f9faf9fdfafbf9fdfcfdfafbfcfef9fafdfafcfcfbfefafafcfbffffffff6f8421084210842108cc6318c6db6d54be83831c1c601f161a1890811b609f90811c6c465772b2bbbb5f824b15207a3081018102606090811d6d0388eaa27412d5aca026815d636e018202811d6d0df99ac502031bf953eff472fdcc018202811d6d13cdffb29d51d99322bdff5f2211018202811d6d0a0f742023def783a307a986912e018202811d6d01920d8043ca89b5239253284e42018202811d6c0b7a86d7375468fac667a0a527016c29508e458543d8aa4df2abee7883018302821d6d0139601a2efabe717e604cbb4894018302821d6d02247f7a7b6594320649aa03aba1018302821d7fffffffffffffffffffffffffffffffffffffff73c0c716a594e00d54e3c4cbc9018302821d7ffffffffffffffffffffffffffffffffffffffdc7b88c420e53a9890533129f6f01830290911d7fffffffffffffffffffffffffffffffffffffff465fda27eb4d63ded474e5f832019091027ffffffffffffffff5f6af8f7b3396644f18e157960000000000000000000000000105711340daa0d5f769dba1915cef59f0815a5506029190037d0267a36c0c95b3975ab3ee5b203a7614a3f75373f047d803ae7b6687f2b302017d57115e47018c7177eebf7cd370a3356a1b7863008a5ae8028c72b88642840160ae1d90565b60007ffffffffffffffffffffffffffffffffffffffffffffffffdc0d0570925a462d7821361418557919050565b680755bf798b4a1bf1e582126141a35763a37bfec96000526004601cfd5b6503782dace9d9604e83901b059150600060606bb17217f7d1cf79abc9e3b39884821b056b80000000000000000000000001901d6bb17217f7d1cf79abc9e3b39881029093037fffffffffffffffffffffffffffffffffffffffdbf3ccf1604d263450f02a550481018102606090811d6d0277594991cfc85f6e2461837cd9018202811d7fffffffffffffffffffffffffffffffffffffe5adedaa1cb095af9e4da10e363c018202811d6db1bbb201f443cf962f1a1d3db4a5018202811d7ffffffffffffffffffffffffffffffffffffd38dc772608b0ae56cce01296c0eb018202811d6e05180bb14799ab47a8a8cb2a527d57016d02d16720577bd19bf614176fe9ea6c10fe68e7fd37d0007b713f765084018402831d9081019084017ffffffffffffffffffffffffffffffffffffffe2c69812cf03b0763fd454a8f7e010290911d6e0587f503bb6ea29d25fcb7401964500190910279d835ebba824c98fb31b83b2ca45c000000000000000000000000010574029d9dc38563c32e5c2f6dc192ee70ef65f9978af30260c3939093039290921c92915050565b6000613da7837f5b5054d7f0fe411d96cb1c9605f65b42805d28ce5bb4ce216455e888cdc5373c612671565b6000613da7837f9d3e17e61f5f07f24e173edb93a8af1d5b797396ea02343c0feee16bdf497d4f612671565b60008383836040516020016133ed9392919061543d565b6000805b600881101561447c5763ffffffff8382600881106143d2576143d2614d51565b602002015163ffffffff1610614444576040517f08c379a000000000000000000000000000000000000000000000000000000000815260206004820152600e60248201527f6d6178206f766572206c696d6974000000000000000000000000000000000000604482015260640161031e565b82816008811061445657614456614d51565b602002015163ffffffff16602083901b17915080806144749061527f565b9150506143b2565b50919050565b612234837fb25ea67b55901db62e4b14311a8c1ab178fec3948b4b493a711970a50aa2a2e1612671565b60006144d8857f48dd73345b049fd90b1d994ae882fe2bea7a52e362fd4689108c907c6456a006612671565b6040517fcccf7a8e0000000000000000000000000000000000000000000000000000000081526004810186905290915073ffffffffffffffffffffffffffffffffffffffff82169063cccf7a8e90602401602060405180830381865afa158015614546573d6000803e3d6000fd5b505050506040513d601f19601f8201168201806040525081019061456a9190614c67565b612533576040517f1ab06ee5000000000000000000000000000000000000000000000000000000008152600481018590526024810183905273ffffffffffffffffffffffffffffffffffffffff821690631ab06ee590604401600060405180830381600087803b1580156145dd57600080fd5b505af11580156145f1573d6000803e3d6000fd5b50505050614622857f5bc28889d745caef68975e56a733199d93efb3f5ae8e4606262ab97c83f7264860001c612671565b6040517f1ab06ee5000000000000000000000000000000000000000000000000000000008152600481018690526024810185905273ffffffffffffffffffffffffffffffffffffffff9190911690631ab06ee590604401600060405180830381600087803b15801561469357600080fd5b505af11580156146a7573d6000803e3d6000fd5b505050505050505050565b60008060246146c3610e1085614d11565b6146cd91906154b5565b90506146da600c82614d11565b611443906001614d25565b60608160010361472857505060408051808201909152600881527f4441594c49474854000000000000000000000000000000000000000000000000602082015290565b8160020361476957505060408051808201909152600881527f4556454e46414c4c000000000000000000000000000000000000000000000000602082015290565b816003036147aa57505060408051808201909152600881527f4d4f4f4e53494445000000000000000000000000000000000000000000000000602082015290565b505060408051602081019091526000815290565b61108b82826147ed867fb25ea67b55901db62e4b14311a8c1ab178fec3948b4b493a711970a50aa2a2e1612671565b73ffffffffffffffffffffffffffffffffffffffff1691906149c4565b6116b2828261165e867fb25ea67b55901db62e4b14311a8c1ab178fec3948b4b493a711970a50aa2a2e1612671565b600061485e6137bc73ffffffffffffffffffffffffffffffffffffffff851684612da5565b614867426132a0565b610da991906154c9565b6000613da7837f7f11100822994501b15df98b1bd24b3eb0d73863f512da0bf8f165b0150c537d612671565b604080516080810182526000808252602082018190529181018290526060810191909152610dac828060200190518101906148d89190614d38565b604080516080810182526000808252602082018190529181018290526060810191909152604051806080016040528060c084901c67ffffffffffffffff1660030b8152602001608084901c67ffffffffffffffff1660030b8152602001604084901c67ffffffffffffffff1660030b81526020018367ffffffffffffffff1660030b8152509050919050565b61496c614a07565b60005b600881101561447c5763ffffffff83168261498b836007614cb8565b6008811061499b5761499b614d51565b63ffffffff909216602092830291909101529290921c91806149bc8161527f565b91505061496f565b60005b82518110156116b2576149f4848483815181106149e6576149e6614d51565b602002602001015184613053565b50806149ff8161527f565b9150506149c7565b6040518061010001604052806008906020820280368337509192915050565b7f4e487b7100000000000000000000000000000000000000000000000000000000600052604160045260246000fd5b604051601f82017fffffffffffffffffffffffffffffffffffffffffffffffffffffffffffffffe016810167ffffffffffffffff81118282101715614a9c57614a9c614a26565b604052919050565b600067ffffffffffffffff821115614abe57614abe614a26565b50601f017fffffffffffffffffffffffffffffffffffffffffffffffffffffffffffffffe01660200190565b600060208284031215614afc57600080fd5b813567ffffffffffffffff811115614b1357600080fd5b8201601f81018413614b2457600080fd5b8035614b37614b3282614aa4565b614a55565b818152856020838501011115614b4c57600080fd5b81602084016020830137600091810160200191909152949350505050565b60005b83811015614b85578181015183820152602001614b6d565b50506000910152565b60008151808452614ba6816020860160208601614b6a565b601f017fffffffffffffffffffffffffffffffffffffffffffffffffffffffffffffffe0169290920160200192915050565b602081526000610da96020830184614b8e565b60008060408385031215614bfe57600080fd5b50508035926020909101359150565b600060208284031215614c1f57600080fd5b813573ffffffffffffffffffffffffffffffffffffffff8116811461144357600080fd5b60008060408385031215614c5657600080fd5b505080516020909101519092909150565b600060208284031215614c7957600080fd5b8151801515811461144357600080fd5b7f4e487b7100000000000000000000000000000000000000000000000000000000600052601160045260246000fd5b81810381811115610dac57610dac614c89565b8082028115828204841417610dac57610dac614c89565b7f4e487b7100000000000000000000000000000000000000000000000000000000600052601260045260246000fd5b600082614d2057614d20614ce2565b500490565b80820180821115610dac57610dac614c89565b600060208284031215614d4a57600080fd5b5051919050565b7f4e487b7100000000000000000000000000000000000000000000000000000000600052603260045260246000fd5b63ffffffff828116828216039080821115614d9d57614d9d614c89565b5092915050565b600181815b80851115614dfd57817fffffffffffffffffffffffffffffffffffffffffffffffffffffffffffffffff04821115614de357614de3614c89565b80851615614df057918102915b93841c9390800290614da9565b509250929050565b600082614e1457506001610dac565b81614e2157506000610dac565b8160018114614e375760028114614e4157614e5d565b6001915050610dac565b60ff841115614e5257614e52614c89565b50506001821b610dac565b5060208310610133831016604e8410600b8410161715614e80575081810a610dac565b614e8a8383614da4565b807fffffffffffffffffffffffffffffffffffffffffffffffffffffffffffffffff04821115614ebc57614ebc614c89565b029392505050565b6000610da963ffffffff841683614e05565b6000610da98383614e05565b808202600082127f800000000000000000000000000000000000000000000000000000000000000084141615614f1a57614f1a614c89565b8181058314821517610dac57610dac614c89565b8082018281126000831280158216821582161715614f4e57614f4e614c89565b505092915050565b63ffffffff818116838216019080821115614d9d57614d9d614c89565b60008260030b8260030b028060030b9150808214614d9d57614d9d614c89565b600060208284031215614fa557600080fd5b81518060030b811461144357600080fd5b8281526040602082015260006127b56040830184614b8e565b600060208284031215614fe157600080fd5b815163ffffffff8116811461144357600080fd5b600067ffffffffffffffff82111561500f5761500f614a26565b5060051b60200190565b6000602080838503121561502c57600080fd5b825167ffffffffffffffff81111561504357600080fd5b8301601f8101851361505457600080fd5b8051615062614b3282614ff5565b81815260059190911b8201830190838101908783111561508157600080fd5b928401925b8284101561509f57835182529284019290840190615086565b979650505050505050565b60006150b8614b3284614aa4565b90508281528383830111156150cc57600080fd5b611443836020830184614b6a565b6000602082840312156150ec57600080fd5b815167ffffffffffffffff81111561510357600080fd5b8201601f8101841361511457600080fd5b6127b5848251602084016150aa565b600082601f83011261513457600080fd5b610da9838351602085016150aa565b60006020828403121561515557600080fd5b815167ffffffffffffffff81111561516c57600080fd5b6127b584828501615123565b60008261518757615187614ce2565b7fffffffffffffffffffffffffffffffffffffffffffffffffffffffffffffffff83147f8000000000000000000000000000000000000000000000000000000000000000831416156151db576151db614c89565b500590565b7f69732e73636f7265000000000000000000000000000000000000000000000000815283600882015282602882015260008251615224816048850160208701614b6a565b91909101604801949350505050565b7f73636f72652e747970650000000000000000000000000000000000000000000081526000835161526b81600a850160208801614b6a565b600a920191820192909252602a0192915050565b60007fffffffffffffffffffffffffffffffffffffffffffffffffffffffffffffffff82036152b0576152b0614c89565b5060010190565b6020808252825182820181905260009190848201906040850190845b818110156152ef578351835292840192918401916001016152d3565b50909695505050505050565b6000602080838503121561530e57600080fd5b825167ffffffffffffffff8082111561532657600080fd5b818501915085601f83011261533a57600080fd5b8151615348614b3282614ff5565b81815260059190911b8301840190848101908883111561536757600080fd5b8585015b8381101561539f578051858111156153835760008081fd5b6153918b89838a0101615123565b84525091860191860161536b565b5098975050505050505050565b7f69732e636f6e66696700000000000000000000000000000000000000000000008152600082516153e4816009850160208701614b6a565b9190910160090192915050565b7f626f6e757300000000000000000000000000000000000000000000000000000081528260058201526000825161542f816025850160208701614b6a565b919091016025019392505050565b7f69732e646174610000000000000000000000000000000000000000000000000081528360078201527fffffffff000000000000000000000000000000000000000000000000000000008360e01b166027820152600082516154a681602b850160208701614b6a565b91909101602b01949350505050565b6000826154c4576154c4614ce2565b500690565b8181036000831280158383131683831282161715614d9d57614d9d614c8956fea2646970667358221220df365a34e0f6ae13e73f1eaeb8a37c2806297a48b1599340536b8b6010b8f6e164736f6c63430008110033","linkReferences":{"src/libraries/LibHarvest.sol":{"LibHarvest":[{"start":5349,"length":20}]},"src/libraries/LibKill.sol":{"LibKill":[{"start":2560,"length":20}]}}},"methodIdentifiers":{"cancelOwnershipHandover()":"54d1f13d","completeOwnershipHandover(address)":"f04e283e","deprecate()":"0fcc0c28","execute(bytes)":"09c5eabe","executeTyped(uint256,uint256)":"915657fb","owner()":"8da5cb5b","ownershipHandoverExpiresAt(address)":"fee81cf4","renounceOwnership()":"715018a6","requestOwnershipHandover()":"25692962","transferOwnership(address)":"f2fde38b"},"id":284}