{"abi":[{"type":"constructor","inputs":[{"name":"_world","type":"address","internalType":"contract IWorld"},{"name":"_components","type":"address","internalType":"address"}],"stateMutability":"nonpayable"},{"type":"function","name":"cancelOwnershipHandover","inputs":[],"outputs":[],"stateMutability":"payable"},{"type":"function","name":"completeOwnershipHandover","inputs":[{"name":"pendingOwner","type":"address","internalType":"address"}],"outputs":[],"stateMutability":"payable"},{"type":"function","name":"deprecate","inputs":[],"outputs":[],"stateMutability":"nonpayable"},{"type":"function","name":"execute","inputs":[{"name":"arguments","type":"bytes","internalType":"bytes"}],"outputs":[{"name":"","type":"bytes","internalType":"bytes"}],"stateMutability":"nonpayable"},{"type":"function","name":"executeTyped","inputs":[{"name":"kamiID","type":"uint256","internalType":"uint256"},{"name":"nodeID","type":"uint256","internalType":"uint256"}],"outputs":[{"name":"","type":"bytes","internalType":"bytes"}],"stateMutability":"nonpayable"},{"type":"function","name":"owner","inputs":[],"outputs":[{"name":"result","type":"address","internalType":"address"}],"stateMutability":"view"},{"type":"function","name":"ownershipHandoverExpiresAt","inputs":[{"name":"pendingOwner","type":"address","internalType":"address"}],"outputs":[{"name":"result","type":"uint256","internalType":"uint256"}],"stateMutability":"view"},{"type":"function","name":"renounceOwnership","inputs":[],"outputs":[],"stateMutability":"payable"},{"type":"function","name":"requestOwnershipHandover","inputs":[],"outputs":[],"stateMutability":"payable"},{"type":"function","name":"transferOwnership","inputs":[{"name":"newOwner","type":"address","internalType":"address"}],"outputs":[],"stateMutability":"payable"},{"type":"event","name":"OwnershipHandoverCanceled","inputs":[{"name":"pendingOwner","type":"address","indexed":true,"internalType":"address"}],"anonymous":false},{"type":"event","name":"OwnershipHandoverRequested","inputs":[{"name":"pendingOwner","type":"address","indexed":true,"internalType":"address"}],"anonymous":false},{"type":"event","name":"OwnershipTransferred","inputs":[{"name":"oldOwner","type":"address","indexed":true,"internalType":"address"},{"name":"newOwner","type":"address","indexed":true,"internalType":"address"}],"anonymous":false},{"type":"event","name":"SystemDeprecated","inputs":[],"anonymous":false},{"type":"error","name":"AlreadyInitialized","inputs":[]},{"type":"error","name":"NewOwnerIsZeroAddress","inputs":[]},{"type":"error","name":"NoHandoverRequest","inputs":[]},{"type":"error","name":"Unauthorized","inputs":[]}],"bytecode":{"object":"0x60c06040523480156200001157600080fd5b50604051620051c5380380620051c583398101604081905262000034916200012f565b81816200004133620000dc565b6001600160a01b03811615620000585780620000bd565b816001600160a01b031663ba62fbe46040518163ffffffff1660e01b8152600401602060405180830381865afa15801562000097573d6000803e3d6000fd5b505050506040513d601f19601f82011682018060405250810190620000bd91906200016e565b6001600160a01b039081166080529190911660a0525062000195915050565b6001600160a01b0316638b78c6d8198190558060007f8be0079c531659141344cd1fd0a4f28419497f9722a3daafe3b4186f6b6457e08180a35b50565b6001600160a01b03811681146200011657600080fd5b600080604083850312156200014357600080fd5b8251620001508162000119565b6020840151909250620001638162000119565b809150509250929050565b6000602082840312156200018157600080fd5b81516200018e8162000119565b9392505050565b60805160a051614fa462000221600039600050506000818161021a01528181610246015281816102710152818161030601528181610397015281816103c101528181610451015281816104e401528181610510015281816105a4015281816105d80152818161060a015281816106350152818161065f015281816106bf01526106ea0152614fa46000f3fe6080604052600436106100b15760003560e01c80638da5cb5b11610069578063f04e283e1161004e578063f04e283e1461018f578063f2fde38b146101a2578063fee81cf4146101b557600080fd5b80638da5cb5b1461011b578063915657fb1461016f57600080fd5b8063256929621161009a578063256929621461010357806354d1f13d1461010b578063715018a61461011357600080fd5b806309c5eabe146100b65780630fcc0c28146100ec575b600080fd5b3480156100c257600080fd5b506100d66100d13660046146ee565b6101f6565b6040516100e391906147dc565b60405180910390f35b3480156100f857600080fd5b50610101610736565b005b610101610769565b6101016107b9565b6101016107f5565b34801561012757600080fd5b507fffffffffffffffffffffffffffffffffffffffffffffffffffffffff748739275460405173ffffffffffffffffffffffffffffffffffffffff90911681526020016100e3565b34801561017b57600080fd5b506100d661018a3660046147ef565b610809565b61010161019d366004614811565b610847565b6101016101b0366004614811565b610887565b3480156101c157600080fd5b506101e86101d0366004614811565b63389a75e1600c908152600091909152602090205490565b6040519081526020016100e3565b60606000808380602001905181019061020f9190614847565b91509150600061023f7f0000000000000000000000000000000000000000000000000000000000000000336108ae565b905061026c7f00000000000000000000000000000000000000000000000000000000000000008483610a6e565b6102967f000000000000000000000000000000000000000000000000000000000000000084610b25565b610301576040517f08c379a000000000000000000000000000000000000000000000000000000000815260206004820152601e60248201527f4661726d53746172743a20706574206d7573742062652072657374696e67000060448201526064015b60405180910390fd5b61032b7f000000000000000000000000000000000000000000000000000000000000000084610bab565b15610392576040517f08c379a000000000000000000000000000000000000000000000000000000000815260206004820152601a60248201527f4661726d53746172743a20706574206f6e20636f6f6c646f776e00000000000060448201526064016102f8565b6103bc7f000000000000000000000000000000000000000000000000000000000000000084610bb7565b6103e67f000000000000000000000000000000000000000000000000000000000000000084610d88565b61044c576040517f08c379a000000000000000000000000000000000000000000000000000000000815260206004820152601960248201527f4661726d53746172743a20706574207374617276696e672e2e0000000000000060448201526064016102f8565b6104777f00000000000000000000000000000000000000000000000000000000000000008284610da4565b6104dd576040517f08c379a000000000000000000000000000000000000000000000000000000000815260206004820152601760248201527f4661726d53746172743a206e6f646520746f6f2066617200000000000000000060448201526064016102f8565b60006105097f000000000000000000000000000000000000000000000000000000000000000084610df3565b90506105377f0000000000000000000000000000000000000000000000000000000000000000828487610e9a565b61059d576040517f08c379a000000000000000000000000000000000000000000000000000000000815260206004820152601c60248201527f4661726d53746172743a206e6f64652072657173206e6f74206d65740000000060448201526064016102f8565b60006105c97f000000000000000000000000000000000000000000000000000000000000000086610ef8565b905080600003610605576105fe7f00000000000000000000000000000000000000000000000000000000000000008587610f51565b9050610630565b6106307f000000000000000000000000000000000000000000000000000000000000000082866111d5565b61065a7f0000000000000000000000000000000000000000000000000000000000000000826113ef565b6106ba7f0000000000000000000000000000000000000000000000000000000000000000866040518060400160405280600a81526020017f48415256455354494e4700000000000000000000000000000000000000000000815250611462565b6106e57f000000000000000000000000000000000000000000000000000000000000000086426114fd565b61070f7f000000000000000000000000000000000000000000000000000000000000000084611453565b60408051602081018390520160405160208183030381529060405295505050505050919050565b61073e611583565b6040517f56f33501ffd77f9fe44d81e7db7e66a66bdf52ab3e11267cdc6462763604c4c790600090a1565b60006202a30067ffffffffffffffff164201905063389a75e1600c5233600052806020600c2055337fdbf36a107da19e49527a7176a1babf963b4b0ff8cde35ee35d6cd8f1f9ac7e1d600080a250565b63389a75e1600c523360005260006020600c2055337ffa7b8eab7da67f412cc9575ed43464468f9bfbae89d1675917346ca6d8fe3c92600080a2565b6107fd611583565b61080760006115b9565b565b606061083e838360405160200161082a929190918252602082015260400190565b6040516020818303038152906040526101f6565b90505b92915050565b61084f611583565b63389a75e1600c52806000526020600c20805442111561087757636f5e88186000526004601cfd5b60009055610884816115b9565b50565b61088f611583565b8060601b6108a557637448fbae6000526004601cfd5b610884816115b9565b6000806108db847ff9b94d2a933222e58f90359e8ec33041c5f08d7bc4304958d1c52c21991da57561161f565b6040517fcccf7a8e00000000000000000000000000000000000000000000000000000000815273ffffffffffffffffffffffffffffffffffffffff8581166004830181905292935083169063cccf7a8e90602401602060405180830381865afa15801561094c573d6000803e3d6000fd5b505050506040513d601f19601f82011682018060405250810190610970919061486b565b6109d6576040517f08c379a000000000000000000000000000000000000000000000000000000000815260206004820152601b60248201527f4163636f756e743a204f70657261746f72206e6f7420666f756e64000000000060448201526064016102f8565b6040517f9507d39a0000000000000000000000000000000000000000000000000000000081526004810182905273ffffffffffffffffffffffffffffffffffffffff831690639507d39a90602401602060405180830381865afa158015610a41573d6000803e3d6000fd5b505050506040513d601f19601f82011682018060405250810190610a65919061488d565b95945050505050565b610aba8282610a9d867fdb1228220c36234210e3f04b6ac039f5d81c4d6d81f43d9b4a9d70c4d5bcfac1611763565b73ffffffffffffffffffffffffffffffffffffffff16919061176f565b610b20576040517f08c379a000000000000000000000000000000000000000000000000000000000815260206004820152600c60248201527f6b616d69206e6f7420757273000000000000000000000000000000000000000060448201526064016102f8565b505050565b600061083e826040518060400160405280600781526020017f52455354494e4700000000000000000000000000000000000000000000000000815250610b8e867f3630e5d2b4dfc42bb69d52e4eef89343acb69d5153f64efe5860a680a55082e760001c611763565b73ffffffffffffffffffffffffffffffffffffffff169190611785565b600061083e83836117a8565b6000610bc383836117cf565b9050610c0d6040518060400160405280600a81526020017f48415256455354494e47000000000000000000000000000000000000000000008152508261189890919063ffffffff16565b15610cf9576000610c1e84846118ae565b6040517f0de63b7600000000000000000000000000000000000000000000000000000000815273ffffffffffffffffffffffffffffffffffffffff861660048201526024810182905290915060009073__$5960f805d8ade0610b49318b73f60bf5ce$__90630de63b7690604401602060405180830381865af4158015610ca9573d6000803e3d6000fd5b505050506040513d601f19601f82011682018060405250810190610ccd919061488d565b90506000610cdc8686846118ba565b9050610cf18686610cec84611a1b565b611a34565b505050610d7d565b60408051808201909152600781527f52455354494e47000000000000000000000000000000000000000000000000006020918201528151908201207fbaaafaf240fc0988682f54d71c1c9224752b1e0d476a46dd48e3001bfa7a99b903610d7d576000610d668484611b36565b9050610d7b8484610d7684611a1b565b611b7d565b505b610b20838342611c71565b600080610d958484611c9b565b6060015160030b139392505050565b60008080610ddc610dd5877f3be9611062b8582cf4b9a4eafe577dbde7dcd7779a1efb46d73e212026c4b0cc611763565b8686611d09565b63ffffffff918216911614925050505b9392505050565b6000610e1f837f076fae2ce684ff843e499be243657d8fb16b0eb71350c7a9da8fa7be44c14f3e61161f565b73ffffffffffffffffffffffffffffffffffffffff16639507d39a836040518263ffffffff1660e01b8152600401610e5991815260200190565b602060405180830381865afa158015610e76573d6000803e3d6000fd5b505050506040513d601f19601f8201168201806040525081019061083e91906148a6565b600080610ea78686611dc2565b90508051600003610ebc576001915050610ef0565b600080610ec98884611dd6565b91509150610ed8888388611f92565b8015610eea5750610eea888287611f92565b93505050505b949350505050565b600080610f0483612010565b9050610f4684826040518060400160405280600781526020017f4841525645535400000000000000000000000000000000000000000000000000815250612083565b610dec576000610ef0565b6000610f5c82612010565b9050610f9e84826040518060400160405280600781526020017f48415256455354000000000000000000000000000000000000000000000000008152506120b4565b610fc8847f2bb7622db4da5f7e7eea401934e1aad6c7d1da02bbc8a781667756884614eeb961161f565b6040517f1ab06ee5000000000000000000000000000000000000000000000000000000008152600481018390526024810184905273ffffffffffffffffffffffffffffffffffffffff9190911690631ab06ee590604401600060405180830381600087803b15801561103957600080fd5b505af115801561104d573d6000803e3d6000fd5b5050505061107e847faa307edc224ff30d3376a8fd6134dde3bc74ef449ad0965df67766cefba5d95060001c61161f565b6040517f1ab06ee5000000000000000000000000000000000000000000000000000000008152600481018390526024810185905273ffffffffffffffffffffffffffffffffffffffff9190911690631ab06ee590604401600060405180830381600087803b1580156110ef57600080fd5b505af1158015611103573d6000803e3d6000fd5b50505050611134847f076fae2ce684ff843e499be243657d8fb16b0eb71350c7a9da8fa7be44c14f3e60001c61161f565b73ffffffffffffffffffffffffffffffffffffffff1663d923c3c48261115a8787610df3565b6040517fffffffff0000000000000000000000000000000000000000000000000000000060e085901b168152600481019290925263ffffffff166024820152604401600060405180830381600087803b1580156111b657600080fd5b505af11580156111ca573d6000803e3d6000fd5b505050509392505050565b6000611201847faa307edc224ff30d3376a8fd6134dde3bc74ef449ad0965df67766cefba5d95061161f565b6040517f9507d39a00000000000000000000000000000000000000000000000000000000815260048101859052909150829073ffffffffffffffffffffffffffffffffffffffff831690639507d39a90602401602060405180830381865afa158015611271573d6000803e3d6000fd5b505050506040513d601f19601f82011682018060405250810190611295919061488d565b146113e9576040517f1ab06ee5000000000000000000000000000000000000000000000000000000008152600481018490526024810183905273ffffffffffffffffffffffffffffffffffffffff821690631ab06ee590604401600060405180830381600087803b15801561130957600080fd5b505af115801561131d573d6000803e3d6000fd5b5050505061134e847f076fae2ce684ff843e499be243657d8fb16b0eb71350c7a9da8fa7be44c14f3e60001c61161f565b73ffffffffffffffffffffffffffffffffffffffff1663d923c3c4846113748786610df3565b6040517fffffffff0000000000000000000000000000000000000000000000000000000060e085901b168152600481019290925263ffffffff166024820152604401600060405180830381600087803b1580156113d057600080fd5b505af11580156113e4573d6000803e3d6000fd5b505050505b50505050565b61142f82826040518060400160405280600681526020017f4143544956450000000000000000000000000000000000000000000000000000815250611462565b61143d8282600160006120de565b6114488282426120f8565b611453828242612122565b61145e828242611c71565b5050565b61148c837f3630e5d2b4dfc42bb69d52e4eef89343acb69d5153f64efe5860a680a55082e761161f565b73ffffffffffffffffffffffffffffffffffffffff16636437197783836040518363ffffffff1660e01b81526004016114c69291906148cc565b600060405180830381600087803b1580156114e057600080fd5b505af11580156114f4573d6000803e3d6000fd5b50505050505050565b611527837f5f9759544a286ad42df1aa1cab6dca162b48885d3060ac74aecbf8ff4483ad1b61161f565b6040517f1ab06ee5000000000000000000000000000000000000000000000000000000008152600481018490526024810183905273ffffffffffffffffffffffffffffffffffffffff9190911690631ab06ee5906044016114c6565b7fffffffffffffffffffffffffffffffffffffffffffffffffffffffff74873927543314610807576382b429006000526004601cfd5b7fffffffffffffffffffffffffffffffffffffffffffffffffffffffff74873927805473ffffffffffffffffffffffffffffffffffffffff9092169182907f8be0079c531659141344cd1fd0a4f28419497f9722a3daafe3b4186f6b6457e0600080a355565b6040517ffbdfa1ea00000000000000000000000000000000000000000000000000000000815260048101829052600090819073ffffffffffffffffffffffffffffffffffffffff85169063fbdfa1ea90602401600060405180830381865afa15801561168f573d6000803e3d6000fd5b505050506040513d6000823e601f3d9081017fffffffffffffffffffffffffffffffffffffffffffffffffffffffffffffffe01682016040526116d59190810190614909565b90508051600003611742576040517f08c379a000000000000000000000000000000000000000000000000000000000815260206004820152601160248201527f6964206e6f74207265676973746572656400000000000000000000000000000060448201526064016102f8565b610ef0816000815181106117585761175861499a565b602002602001015190565b600061083e838361161f565b60008161177c858561214c565b14949350505050565b6000610ef082611795868661222b565b8151602092830120815191909201201490565b6000806117b58484612317565b905060006117c3858561234c565b90911315949350505050565b60606117fb837f3630e5d2b4dfc42bb69d52e4eef89343acb69d5153f64efe5860a680a55082e761161f565b73ffffffffffffffffffffffffffffffffffffffff16639507d39a836040518263ffffffff1660e01b815260040161183591815260200190565b600060405180830381865afa158015611852573d6000803e3d6000fd5b505050506040513d6000823e601f3d9081017fffffffffffffffffffffffffffffffffffffffffffffffffffffffffffffffe016820160405261083e91908101906149f9565b8051602091820120825192909101919091201490565b600061083e8383610ef8565b6000806118fc856040518060400160405280601081526020017f4b414d495f484152565f53545241494e00000000000000000000000000000000815250612405565b9050600061194086866040518060400160405280601181526020017f53544e445f53545241494e5f424f4f5354000000000000000000000000000000815250612424565b604083015160c084015191925063ffffffff908116916000918491611965911661258b565b61196f9190614a71565b905060006119886119808a8a6125bc565b60030b6125c9565b60e086015160608701519192506000916119a29190614a99565b6119b39063ffffffff16600a614bdd565b86519091506000906119cb9063ffffffff1684614be9565b6119d59083614bfc565b9050806119e3600182614c13565b856119ee888d614bfc565b6119f89190614bfc565b611a029190614be9565b611a0c9190614c55565b9b9a5050505050505050505050565b600063800000008210611a3057611a306125d7565b5090565b8060030b600003611a4457505050565b611a6e837f7f11100822994501b15df98b1bd24b3eb0d73863f512da0bf8f165b0150c537d61161f565b73ffffffffffffffffffffffffffffffffffffffff16636ef23a3d83611ab4847fffffffffffffffffffffffffffffffffffffffffffffffffffffffffffffffff614c69565b6040517fffffffff0000000000000000000000000000000000000000000000000000000060e085901b168152600481019290925260030b60248201526044016020604051808303816000875af1158015611b12573d6000803e3d6000fd5b505050506040513d601f19601f820116820180604052508101906113e99190614c89565b600080611b4384846125e5565b90506000611b51858561271e565b611b5b9042614c13565b9050611b696009600a614bdd565b611b738383614bfc565b610a659190614c55565b8060030b600003611b8d57505050565b6000611b9984846127c5565b9050611bc5847f7f11100822994501b15df98b1bd24b3eb0d73863f512da0bf8f165b0150c537d61161f565b6040517f06e7645600000000000000000000000000000000000000000000000000000000815260048101859052600384810b602483015283900b604482015273ffffffffffffffffffffffffffffffffffffffff91909116906306e76456906064016020604051808303816000875af1158015611c46573d6000803e3d6000fd5b505050506040513d601f19601f82011682018060405250810190611c6a9190614c89565b5050505050565b611527837f342adee7430e96bca6f5d4fe57ba5155dc7271000494e77110c292d51ae887fa61161f565b60408051608081018252600080825260208201819052918101829052606081019190915261083e82611ced857f7f11100822994501b15df98b1bd24b3eb0d73863f512da0bf8f165b0150c537d61161f565b73ffffffffffffffffffffffffffffffffffffffff16906127d2565b6040805160028082526060820183526000928392839290916020830190803683370190505090508481600081518110611d4457611d4461499a565b6020026020010181815250508381600181518110611d6457611d6461499a565b6020026020010181815250506000611d7c87836128e9565b905080600081518110611d9157611d9161499a565b602002602001015181600181518110611dac57611dac61499a565b6020026020010151935093505050935093915050565b606061083e83611dd184612a77565b612ad7565b6060806000611de58585612ba0565b90506000845167ffffffffffffffff811115611e0357611e0361462a565b604051908082528060200260200182016040528015611e2c578160200160208202803683370190505b5090506000855167ffffffffffffffff811115611e4b57611e4b61462a565b604051908082528060200260200182016040528015611e74578160200160208202803683370190505b50905060008060005b8851811015611f6d57611ec8868281518110611e9b57611e9b61499a565b60200260200101517f37c6543901df832fa6900c3db9b6a34ac3cf572b453474ea23c65fb22dee54421490565b15611f1657888181518110611edf57611edf61499a565b6020026020010151858480611ef390614cac565b955081518110611f0557611f0561499a565b602002602001018181525050611f5b565b888181518110611f2857611f2861499a565b6020026020010151848380611f3c90614cac565b945081518110611f4e57611f4e61499a565b6020026020010181815250505b80611f6581614cac565b915050611e7d565b50611f788483612c04565b611f828483612c04565b9650965050505050509250929050565b60008251600003611fa557506001610dec565b6000611fb18585612ca9565b905060005b845181101561200457611fe38685848481518110611fd657611fd661499a565b6020026020010151613227565b611ff257600092505050610dec565b80611ffc81614cac565b915050611fb6565b50600195945050505050565b6040517f70726f64756374696f6e000000000000000000000000000000000000000000006020820152602a8101829052600090604a015b604080517fffffffffffffffffffffffffffffffffffffffffffffffffffffffffffffffe0818403018152919052805160209091012092915050565b6000610ef08383610b8e877f5d88ced8d8e079072bf73f49fc87661b519c50d79482941abb852ba2b10909cd61161f565b61148c837f5d88ced8d8e079072bf73f49fc87661b519c50d79482941abb852ba2b10909cd61161f565b60006120eb8585856132ef565b9050611c6a8582846134bd565b611527837f9ee42634d52dbd5a24ad226010389fb7306af59bdaec5e20547162dd896dacad61161f565b611527837fe9a47ac95fcb0b9bf41f159be66a677a5f0eac800ea6adafa4749c9108d191ba61161f565b6040517fdd98e3c900000000000000000000000000000000000000000000000000000000815260048101829052600090819073ffffffffffffffffffffffffffffffffffffffff85169063dd98e3c990602401600060405180830381865afa1580156121bc573d6000803e3d6000fd5b505050506040513d6000823e601f3d9081017fffffffffffffffffffffffffffffffffffffffffffffffffffffffffffffffe01682016040526122029190810190614d04565b90508051600003612217576000915050610841565b80806020019051810190610ef0919061488d565b6040517fdd98e3c90000000000000000000000000000000000000000000000000000000081526004810182905260609060009073ffffffffffffffffffffffffffffffffffffffff85169063dd98e3c990602401600060405180830381865afa15801561229c573d6000803e3d6000fd5b505050506040513d6000823e601f3d9081017fffffffffffffffffffffffffffffffffffffffffffffffffffffffffffffffe01682016040526122e29190810190614d04565b90508051600003612303575050604080516020810190915260008152610841565b80806020019051810190610ef091906149f9565b600061083e612346847f5f9759544a286ad42df1aa1cab6dca162b48885d3060ac74aecbf8ff4483ad1b61161f565b836134e7565b600080612396612391856040518060400160405280601681526020017f4b414d495f5354414e444152445f434f4f4c444f574e0000000000000000000081525061351f565b61258b565b905060006123da85856040518060400160405280601381526020017f53544e445f434f4f4c444f574e5f534849465400000000000000000000000000815250612424565b905060006123e88284614a71565b9050600081126123f857806123fb565b60005b9695505050505050565b61240d61460b565b600061241883613537565b9050610ef0848261354a565b6000806124318484613564565b9050600061245f867f50d80ec5b1169fa90f6a93a06362786b45e53ec8c05572cba38875a52f86a3bc61161f565b6040517fcccf7a8e0000000000000000000000000000000000000000000000000000000081526004810184905290915073ffffffffffffffffffffffffffffffffffffffff82169063cccf7a8e90602401602060405180830381865afa1580156124cd573d6000803e3d6000fd5b505050506040513d601f19601f820116820180604052508101906124f1919061486b565b6124fc5760006123fb565b6040517f9507d39a0000000000000000000000000000000000000000000000000000000081526004810183905273ffffffffffffffffffffffffffffffffffffffff821690639507d39a90602401602060405180830381865afa158015612567573d6000803e3d6000fd5b505050506040513d601f19601f820116820180604052508101906123fb919061488d565b60007f80000000000000000000000000000000000000000000000000000000000000008210611a3057611a306125d7565b600080610ef084846135b6565b600080821215611a3057611a305b6335278d126000526004601cfd5b600080612627846040518060400160405280601481526020017f4b414d495f524553545f4d455441424f4c49534d000000000000000000000000815250612405565b9050600061267361266e86866040518060400160405280601581526020017f524553545f4d455441424f4c49534d5f424f4f53540000000000000000000000815250612424565b6125c9565b9050600061268461198087876125bc565b604084015160c085015191925063ffffffff908116916000916126a991869116614be9565b60e086015160608701519192506000916126c39190614a99565b6126d49063ffffffff166009614c13565b6126df90600a614bdd565b90506000610e1083856126f28886614bfc565b6126fc9190614bfc565b6127069190614bfc565b6127109190614c55565b9a9950505050505050505050565b600061274a837f342adee7430e96bca6f5d4fe57ba5155dc7271000494e77110c292d51ae887fa61161f565b73ffffffffffffffffffffffffffffffffffffffff16639507d39a836040518263ffffffff1660e01b815260040161278491815260200190565b602060405180830381865afa1580156127a1573d6000803e3d6000fd5b505050506040513d601f19601f8201168201806040525081019061083e919061488d565b600080610ef0848461365d565b6040805160808101825260008082526020820181905291810182905260608101919091526040517fdd98e3c90000000000000000000000000000000000000000000000000000000081526004810183905260009073ffffffffffffffffffffffffffffffffffffffff85169063dd98e3c990602401600060405180830381865afa158015612864573d6000803e3d6000fd5b505050506040513d6000823e601f3d9081017fffffffffffffffffffffffffffffffffffffffffffffffffffffffffffffffe01682016040526128aa9190810190614d04565b905080516000036128e0575050604080516080810182526000808252602082018190529181018290526060810191909152610841565b610ef081613689565b606060008373ffffffffffffffffffffffffffffffffffffffff16634323c4ef846040518263ffffffff1660e01b81526004016129269190614d39565b600060405180830381865afa158015612943573d6000803e3d6000fd5b505050506040513d6000823e601f3d9081017fffffffffffffffffffffffffffffffffffffffffffffffffffffffffffffffe01682016040526129899190810190614d7d565b90506000815167ffffffffffffffff8111156129a7576129a761462a565b6040519080825280602002602001820160405280156129d0578160200160208202803683370190505b50905060005b8251811015612a6e5760008382815181106129f3576129f361499a565b60200260200101515111612a08576000612a35565b828181518110612a1a57612a1a61499a565b6020026020010151806020019051810190612a3591906148a6565b828281518110612a4757612a4761499a565b63ffffffff9092166020928302919091019091015280612a6681614cac565b9150506129d6565b50949350505050565b6040517f6e6f64652e726571756972656d656e740000000000000000000000000000000060208201527fffffffff0000000000000000000000000000000000000000000000000000000060e083901b166030820152600090603401612047565b6060612b03837fde0f9b459fab67ff56929343dacb07b0c0a1f8509d3184dc6d736f68b80381de61161f565b73ffffffffffffffffffffffffffffffffffffffff1663fbdfa1ea836040518263ffffffff1660e01b8152600401612b3d91815260200190565b600060405180830381865afa158015612b5a573d6000803e3d6000fd5b505050506040513d6000823e601f3d9081017fffffffffffffffffffffffffffffffffffffffffffffffffffffffffffffffe016820160405261083e9190810190614909565b6060612bcc837f0e980fab8730829e1930c8cdc024ae35650d9eec12d20425b19fc4ade883178c61161f565b73ffffffffffffffffffffffffffffffffffffffff1663088dd0b9836040518263ffffffff1660e01b8152600401612b3d9190614d39565b606060008267ffffffffffffffff811115612c2157612c2161462a565b604051908082528060200260200182016040528015612c4a578160200160208202803683370190505b50905060005b83811015612ca157848181518110612c6a57612c6a61499a565b6020026020010151828281518110612c8457612c8461499a565b602090810291909101015280612c9981614cac565b915050612c50565b509392505050565b60606000612cd7847f024accd0d273ef6123273b21662f5cc055a7d58adf98cc1b060edd029af93f7f61161f565b90506000612d05857f787589c9eda599ea35279a6d93e360e8fdc5402255545ca394f5033f5e58ed4261161f565b90506000612d33867f62adc4221185187a288916c2630b5e1f37e9437c5b68d55bc59b9debc23f19d061161f565b90506000612d61877fb25ea67b55901db62e4b14311a8c1ab178fec3948b4b493a711970a50aa2a2e161161f565b90506000865167ffffffffffffffff811115612d7f57612d7f61462a565b604051908082528060200260200182016040528015612de157816020015b612dce60405180608001604052806060815260200160608152602001600063ffffffff168152602001600081525090565b815260200190600190039081612d9d5790505b50905060005b875181101561321b5760405180608001604052808773ffffffffffffffffffffffffffffffffffffffff16639507d39a8b8581518110612e2957612e2961499a565b60200260200101516040518263ffffffff1660e01b8152600401612e4f91815260200190565b600060405180830381865afa158015612e6c573d6000803e3d6000fd5b505050506040513d6000823e601f3d9081017fffffffffffffffffffffffffffffffffffffffffffffffffffffffffffffffe0168201604052612eb291908101906149f9565b81526020018673ffffffffffffffffffffffffffffffffffffffff16639507d39a8b8581518110612ee557612ee561499a565b60200260200101516040518263ffffffff1660e01b8152600401612f0b91815260200190565b600060405180830381865afa158015612f28573d6000803e3d6000fd5b505050506040513d6000823e601f3d9081017fffffffffffffffffffffffffffffffffffffffffffffffffffffffffffffffe0168201604052612f6e91908101906149f9565b81526020018573ffffffffffffffffffffffffffffffffffffffff1663cccf7a8e8b8581518110612fa157612fa161499a565b60200260200101516040518263ffffffff1660e01b8152600401612fc791815260200190565b602060405180830381865afa158015612fe4573d6000803e3d6000fd5b505050506040513d601f19601f82011682018060405250810190613008919061486b565b6130135760006130a8565b8573ffffffffffffffffffffffffffffffffffffffff16639507d39a8b85815181106130415761304161499a565b60200260200101516040518263ffffffff1660e01b815260040161306791815260200190565b602060405180830381865afa158015613084573d6000803e3d6000fd5b505050506040513d601f19601f820116820180604052508101906130a891906148a6565b63ffffffff1681526020018473ffffffffffffffffffffffffffffffffffffffff1663cccf7a8e8b85815181106130e1576130e161499a565b60200260200101516040518263ffffffff1660e01b815260040161310791815260200190565b602060405180830381865afa158015613124573d6000803e3d6000fd5b505050506040513d601f19601f82011682018060405250810190613148919061486b565b6131535760006131e8565b8473ffffffffffffffffffffffffffffffffffffffff16639507d39a8b85815181106131815761318161499a565b60200260200101516040518263ffffffff1660e01b81526004016131a791815260200190565b602060405180830381865afa1580156131c4573d6000803e3d6000fd5b505050506040513d601f19601f820116820180604052508101906131e8919061488d565b8152508282815181106131fd576131fd61499a565b6020026020010181905250808061321390614cac565b915050612de7565b50979650505050505050565b600080600061323584613750565b9092509050600082600381111561324e5761324e614e2e565b036132685761325f86868684613769565b92505050610dec565b600382600381111561327c5761327c614e2e565b0361328d5761325f8686868461381b565b6040517f08c379a000000000000000000000000000000000000000000000000000000000815260206004820152601b60248201527f48616e646c6572206e6f742079657420696d706c656d656e746564000000000060448201526064016102f8565b60006132fb83836138d2565b9050600061333f85836040518060400160405280600981526020017f494e56454e544f52590000000000000000000000000000000000000000000000815250613939565b905080612ca157613370857fd3da495fedd385ac62763d969054ffb19f1777e687374cceb91f1237ddd6bfb361161f565b6040517fd923c3c40000000000000000000000000000000000000000000000000000000081526004810184905263ffffffff8516602482015273ffffffffffffffffffffffffffffffffffffffff919091169063d923c3c490604401600060405180830381600087803b1580156133e657600080fd5b505af11580156133fa573d6000803e3d6000fd5b5050505061342b857f1ee9964c9c16bbb74f9e401f1ab450f99b2343a602036525f23f0da350bc74d060001c61161f565b6040517f1ab06ee5000000000000000000000000000000000000000000000000000000008152600481018490526024810186905273ffffffffffffffffffffffffffffffffffffffff9190911690631ab06ee5906044015b600060405180830381600087803b15801561349d57600080fd5b505af11580156134b1573d6000803e3d6000fd5b50505050509392505050565b611527837fb25ea67b55901db62e4b14311a8c1ab178fec3948b4b493a711970a50aa2a2e161161f565b600061350c61239173ffffffffffffffffffffffffffffffffffffffff85168461214c565b6135154261258b565b61083e9190614e5d565b60008061352b83613537565b9050610ef084826139e7565b6000816040516020016120479190614e7d565b61355261460b565b61083e61355f84846139e7565b613a13565b60008282604051602001613579929190614ec2565b604080517fffffffffffffffffffffffffffffffffffffffffffffffffffffffffffffffe081840301815291905280516020909101209392505050565b60006135e2837f5b5054d7f0fe411d96cb1c9605f65b42805d28ce5bb4ce216455e888cdc5373c61161f565b73ffffffffffffffffffffffffffffffffffffffff1663af6128c2836040518263ffffffff1660e01b815260040161361c91815260200190565b602060405180830381865afa158015613639573d6000803e3d6000fd5b505050506040513d601f19601f8201168201806040525081019061083e9190614c89565b60006135e2837f7f11100822994501b15df98b1bd24b3eb0d73863f512da0bf8f165b0150c537d61161f565b604080516080810182526000808252602082018190529181018290526060810191909152610841828060200190518101906136c4919061488d565b604080516080810182526000808252602082018190529181018290526060810191909152604051806080016040528060c084901c67ffffffffffffffff1660030b8152602001608084901c67ffffffffffffffff1660030b8152602001604084901c67ffffffffffffffff1660030b81526020018367ffffffffffffffff1660030b8152509050919050565b6000806137608360200151613a79565b91509150915091565b815160408084015190517f81d0c0f1000000000000000000000000000000000000000000000000000000008152600092839273__$fe8c06f2024370067115fbcd33d61de1b7$__926381d0c0f1926137c9928b928b929190600401614f0e565b602060405180830381865af41580156137e6573d6000803e3d6000fd5b505050506040513d601f19601f8201168201806040525081019061380a919061488d565b90506123fb81856060015185613ffa565b600061383685858560000151866040015187606001516140c5565b9050600482600481111561384c5761384c614e2e565b036138575715610ef0565b600382600481111561386b5761386b614e2e565b14610ef0576040517f08c379a000000000000000000000000000000000000000000000000000000000815260206004820152601b60248201527f556e6b6e6f776e20626f6f6c206c6f676963206f70657261746f72000000000060448201526064016102f8565b6040517f696e76656e746f72792e696e7374616e636500000000000000000000000000006020820152603281018390527fffffffff0000000000000000000000000000000000000000000000000000000060e083901b166052820152600090605601613579565b600080613966857f5d88ced8d8e079072bf73f49fc87661b519c50d79482941abb852ba2b10909cd61161f565b905061398c8361179573ffffffffffffffffffffffffffffffffffffffff84168761222b565b915081612ca1576040517f6437197700000000000000000000000000000000000000000000000000000000815273ffffffffffffffffffffffffffffffffffffffff82169063643719779061348390879087906004016148cc565b600061274a837fb25ea67b55901db62e4b14311a8c1ab178fec3948b4b493a711970a50aa2a2e161161f565b613a1b61460b565b60005b6008811015613a735763ffffffff831682613a3a836007614c13565b60088110613a4a57613a4a61499a565b63ffffffff909216602092830291909101529290921c9180613a6b81614cac565b915050613a1e565b50919050565b600080600080613ac76040518060400160405280600481526020017f4355525200000000000000000000000000000000000000000000000000000000815250866143ea90919063ffffffff16565b15613ad55760009150613c96565b6040805180820190915260038082527f494e43000000000000000000000000000000000000000000000000000000000060209283015290860181902086517f2294515cf577a807f70c30a4bd66fb198b63ab765b7fa768b080fe8cda2c3888919091149111151615613b4a5760019150613c96565b6040805180820190915260038082527f444543000000000000000000000000000000000000000000000000000000000060209283015290860181902086517fc8117e3bb0a5365f1188f80e2df06c2b6996766cd83da2c646f5f9e14dcfbd17919091149111151615613bbf5760029150613c96565b6040805180820190915260048082527f424f4f4c0000000000000000000000000000000000000000000000000000000060209283015290860181902086517fda3fe7adc6f9d250974b3b45d024284953a3a67841a37ae5029171eb5f1bc309919091149111151615613c345760039150613c96565b6040517f08c379a000000000000000000000000000000000000000000000000000000000815260206004820152601960248201527f556e6b6e6f776e20636f6e646974696f6e2068616e646c65720000000000000060448201526064016102f8565b6040805180820190915260038082527f4d494e00000000000000000000000000000000000000000000000000000000006020928301528651808211157ffffffffffffffffffffffffffffffffffffffffffffffffffffffffffffffffd90910181028801909201207f871eebeccaa432de5f38a72c534eb2fa59c2c3b49e3c6629c16c11981ee74f2a141615613d2e57506000613ff0565b6040805180820190915260038082527f4d415800000000000000000000000000000000000000000000000000000000006020928301528651808211157ffffffffffffffffffffffffffffffffffffffffffffffffffffffffffffffffd90910181028801909201207fa42787877dd247913f847bc654d767d1919585674d8f1a26ea00084043233daa141615613dc657506001613ff0565b6040805180820190915260058082527f455155414c0000000000000000000000000000000000000000000000000000006020928301528651808211157ffffffffffffffffffffffffffffffffffffffffffffffffffffffffffffffffb90910181028801909201207f3a06e9850b6d2ffe1ee040a5349ff67cf64f6914074848a74304f81130b90725141615613e5e57506002613ff0565b6040805180820190915260028082527f49530000000000000000000000000000000000000000000000000000000000006020928301528651808211157ffffffffffffffffffffffffffffffffffffffffffffffffffffffffffffffffe90910181028801909201207fa0f4911f5dff37b9a43a54645c34f34bf9127e9dac511b186b8529567dfaf3dc141615613ef657506003613ff0565b6040805180820190915260038082527f4e4f5400000000000000000000000000000000000000000000000000000000006020928301528651808211157ffffffffffffffffffffffffffffffffffffffffffffffffffffffffffffffffd90910181028801909201207f4293f9bf526b0205217be3088c05680693c75440f7bce1f1b15fae3c5187ae12141615613f8e57506004613ff0565b6040517f08c379a000000000000000000000000000000000000000000000000000000000815260206004820152601a60248201527f556e6b6e6f776e20636f6e646974696f6e206f70657261746f7200000000000060448201526064016102f8565b9094909350915050565b60008082600481111561400f5761400f614e2e565b0361401e575081831015610dec565b600182600481111561403257614032614e2e565b03614041575081831115610dec565b600282600481111561405557614055614e2e565b036140635750828214610dec565b6040517f08c379a000000000000000000000000000000000000000000000000000000000815260206004820152601660248201527f556e6b6e6f776e206c6f676963206f70657261746f720000000000000000000060448201526064016102f8565b600061410f6040518060400160405280600d81526020017f434f4d504c4554455f434f4d50000000000000000000000000000000000000008152508561189890919063ffffffff16565b156141c05761413e867f9522897410526014691d8a863fac7bd2e048ab08176b6e3c6fa8a1f5195164bb61161f565b73ffffffffffffffffffffffffffffffffffffffff1663cccf7a8e836040518263ffffffff1660e01b815260040161417891815260200190565b602060405180830381865afa158015614195573d6000803e3d6000fd5b505050506040513d601f19601f820116820180604052508101906141b9919061486b565b9050610a65565b60408051808201909152600581527f51554553540000000000000000000000000000000000000000000000000000006020918201528451908501207f6dd88e0a32c18c14d5a81f049d6fd353acc17f8290c55d8a716d975def4edf1e0361422c576141b9868487614404565b60408051808201909152600481527f524f4f4d000000000000000000000000000000000000000000000000000000006020918201528451908501207fd095a6ae2bc7e94153e86beac7414b2145c7585cac0a0d923e1a4df8247e23a2036142ac578263ffffffff1661429e878761442d565b63ffffffff16149050610a65565b60408051808201909152600581527f50484153450000000000000000000000000000000000000000000000000000006020918201528451908501207fc7321657fadb62104cd2b0331a69790ec83e40b1c9f218c07d669437bea8f9ad0361431d578263ffffffff1661429e42614459565b60408051808201909152600881527f434f4f4c444f574e0000000000000000000000000000000000000000000000006020918201528451908501207f74d16beb57bf3f9ccaccecb6978a7e61e312e12eed3a6e57d8fb05427d6bab0f03614388576141b986866117a8565b6040517f08c379a000000000000000000000000000000000000000000000000000000000815260206004820152601b60248201527f556e6b6e6f776e20626f6f6c20636f6e646974696f6e2074797065000000000060448201526064016102f8565b805160209182018190209183018190209251101591141690565b600080614412858486614464565b905080600003614423576000610a65565b610a658582614488565b6000610e1f837f3be9611062b8582cf4b9a4eafe577dbde7dcd7779a1efb46d73e212026c4b0cc61161f565b60006108418261452f565b6000806144718385614562565b905061447d85826145c9565b610ef0576000610a65565b60006144b4837f9522897410526014691d8a863fac7bd2e048ab08176b6e3c6fa8a1f5195164bb61161f565b73ffffffffffffffffffffffffffffffffffffffff1663cccf7a8e836040518263ffffffff1660e01b81526004016144ee91815260200190565b602060405180830381865afa15801561450b573d6000803e3d6000fd5b505050506040513d601f19601f8201168201806040525081019061083e919061486b565b6000806024614540610e1085614c55565b61454a9190614f5a565b9050614557600c82614c55565b610dec906001614be9565b6040517f72656769737472792e717565737400000000000000000000000000000000000060208201527fffffffff0000000000000000000000000000000000000000000000000000000060e084901b16602e82015260328101829052600090605201613579565b600061083e83836040518060400160405280600581526020017f5155455354000000000000000000000000000000000000000000000000000000815250612083565b6040518061010001604052806008906020820280368337509192915050565b7f4e487b7100000000000000000000000000000000000000000000000000000000600052604160045260246000fd5b604051601f82017fffffffffffffffffffffffffffffffffffffffffffffffffffffffffffffffe016810167ffffffffffffffff811182821017156146a0576146a061462a565b604052919050565b600067ffffffffffffffff8211156146c2576146c261462a565b50601f017fffffffffffffffffffffffffffffffffffffffffffffffffffffffffffffffe01660200190565b60006020828403121561470057600080fd5b813567ffffffffffffffff81111561471757600080fd5b8201601f8101841361472857600080fd5b803561473b614736826146a8565b614659565b81815285602083850101111561475057600080fd5b81602084016020830137600091810160200191909152949350505050565b60005b83811015614789578181015183820152602001614771565b50506000910152565b600081518084526147aa81602086016020860161476e565b601f017fffffffffffffffffffffffffffffffffffffffffffffffffffffffffffffffe0169290920160200192915050565b60208152600061083e6020830184614792565b6000806040838503121561480257600080fd5b50508035926020909101359150565b60006020828403121561482357600080fd5b813573ffffffffffffffffffffffffffffffffffffffff81168114610dec57600080fd5b6000806040838503121561485a57600080fd5b505080516020909101519092909150565b60006020828403121561487d57600080fd5b81518015158114610dec57600080fd5b60006020828403121561489f57600080fd5b5051919050565b6000602082840312156148b857600080fd5b815163ffffffff81168114610dec57600080fd5b828152604060208201526000610ef06040830184614792565b600067ffffffffffffffff8211156148ff576148ff61462a565b5060051b60200190565b6000602080838503121561491c57600080fd5b825167ffffffffffffffff81111561493357600080fd5b8301601f8101851361494457600080fd5b8051614952614736826148e5565b81815260059190911b8201830190838101908783111561497157600080fd5b928401925b8284101561498f57835182529284019290840190614976565b979650505050505050565b7f4e487b7100000000000000000000000000000000000000000000000000000000600052603260045260246000fd5b60006149d7614736846146a8565b90508281528383830111156149eb57600080fd5b610dec83602083018461476e565b600060208284031215614a0b57600080fd5b815167ffffffffffffffff811115614a2257600080fd5b8201601f81018413614a3357600080fd5b610ef0848251602084016149c9565b7f4e487b7100000000000000000000000000000000000000000000000000000000600052601160045260246000fd5b8082018281126000831280158216821582161715614a9157614a91614a42565b505092915050565b63ffffffff818116838216019080821115614ab657614ab6614a42565b5092915050565b600181815b80851115614b1657817fffffffffffffffffffffffffffffffffffffffffffffffffffffffffffffffff04821115614afc57614afc614a42565b80851615614b0957918102915b93841c9390800290614ac2565b509250929050565b600082614b2d57506001610841565b81614b3a57506000610841565b8160018114614b505760028114614b5a57614b76565b6001915050610841565b60ff841115614b6b57614b6b614a42565b50506001821b610841565b5060208310610133831016604e8410600b8410161715614b99575081810a610841565b614ba38383614abd565b807fffffffffffffffffffffffffffffffffffffffffffffffffffffffffffffffff04821115614bd557614bd5614a42565b029392505050565b600061083e8383614b1e565b8082018082111561084157610841614a42565b808202811582820484141761084157610841614a42565b8181038181111561084157610841614a42565b7f4e487b7100000000000000000000000000000000000000000000000000000000600052601260045260246000fd5b600082614c6457614c64614c26565b500490565b60008260030b8260030b028060030b9150808214614ab657614ab6614a42565b600060208284031215614c9b57600080fd5b81518060030b8114610dec57600080fd5b60007fffffffffffffffffffffffffffffffffffffffffffffffffffffffffffffffff8203614cdd57614cdd614a42565b5060010190565b600082601f830112614cf557600080fd5b61083e838351602085016149c9565b600060208284031215614d1657600080fd5b815167ffffffffffffffff811115614d2d57600080fd5b610ef084828501614ce4565b6020808252825182820181905260009190848201906040850190845b81811015614d7157835183529284019291840191600101614d55565b50909695505050505050565b60006020808385031215614d9057600080fd5b825167ffffffffffffffff80821115614da857600080fd5b818501915085601f830112614dbc57600080fd5b8151614dca614736826148e5565b81815260059190911b83018401908481019088831115614de957600080fd5b8585015b83811015614e2157805185811115614e055760008081fd5b614e138b89838a0101614ce4565b845250918601918601614ded565b5098975050505050505050565b7f4e487b7100000000000000000000000000000000000000000000000000000000600052602160045260246000fd5b8181036000831280158383131683831282161715614ab657614ab6614a42565b7f69732e636f6e6669670000000000000000000000000000000000000000000000815260008251614eb581600985016020870161476e565b9190910160090192915050565b7f626f6e7573000000000000000000000000000000000000000000000000000000815282600582015260008251614f0081602585016020870161476e565b919091016025019392505050565b73ffffffffffffffffffffffffffffffffffffffff85168152836020820152608060408201526000614f436080830185614792565b905063ffffffff8316606083015295945050505050565b600082614f6957614f69614c26565b50069056fea26469706673582212208822212fccc5da0ce3d72c9d9c8ae6ffd498407178809490ed3844fccf05ea6e64736f6c63430008110033","linkReferences":{"src/libraries/LibHarvest.sol":{"LibHarvest":[{"start":3728,"length":20}]},"src/libraries/utils/LibGetter.sol":{"LibGetter":[{"start":14782,"length":20}]}}},"methodIdentifiers":{"cancelOwnershipHandover()":"54d1f13d","completeOwnershipHandover(address)":"f04e283e","deprecate()":"0fcc0c28","execute(bytes)":"09c5eabe","executeTyped(uint256,uint256)":"915657fb","owner()":"8da5cb5b","ownershipHandoverExpiresAt(address)":"fee81cf4","renounceOwnership()":"715018a6","requestOwnershipHandover()":"25692962","transferOwnership(address)":"f2fde38b"},"id":285}