{"abi":[{"type":"constructor","inputs":[{"name":"world","type":"address","internalType":"address"}],"stateMutability":"nonpayable"},{"type":"function","name":"ID","inputs":[],"outputs":[{"name":"","type":"uint256","internalType":"uint256"}],"stateMutability":"view"},{"type":"function","name":"authorizeWriter","inputs":[{"name":"writer","type":"address","internalType":"address"}],"outputs":[],"stateMutability":"nonpayable"},{"type":"function","name":"cancelOwnershipHandover","inputs":[],"outputs":[],"stateMutability":"payable"},{"type":"function","name":"completeOwnershipHandover","inputs":[{"name":"pendingOwner","type":"address","internalType":"address"}],"outputs":[],"stateMutability":"payable"},{"type":"function","name":"extractRaw","inputs":[{"name":"entity","type":"uint256","internalType":"uint256"}],"outputs":[{"name":"","type":"bytes","internalType":"bytes"}],"stateMutability":"nonpayable"},{"type":"function","name":"extractRawBatch","inputs":[{"name":"entities","type":"uint256[]","internalType":"uint256[]"}],"outputs":[{"name":"","type":"bytes[]","internalType":"bytes[]"}],"stateMutability":"nonpayable"},{"type":"function","name":"getAt","inputs":[{"name":"value","type":"bytes","internalType":"bytes"},{"name":"index","type":"uint256","internalType":"uint256"}],"outputs":[{"name":"","type":"uint256","internalType":"uint256"}],"stateMutability":"view"},{"type":"function","name":"getEntities","inputs":[],"outputs":[{"name":"","type":"uint256[]","internalType":"uint256[]"}],"stateMutability":"view"},{"type":"function","name":"getEntitiesWithValue","inputs":[{"name":"value","type":"bool","internalType":"bool"}],"outputs":[{"name":"","type":"uint256[]","internalType":"uint256[]"}],"stateMutability":"view"},{"type":"function","name":"getEntitiesWithValue","inputs":[{"name":"value","type":"bytes","internalType":"bytes"}],"outputs":[{"name":"","type":"uint256[]","internalType":"uint256[]"}],"stateMutability":"view"},{"type":"function","name":"getRaw","inputs":[{"name":"entity","type":"uint256","internalType":"uint256"}],"outputs":[{"name":"","type":"bytes","internalType":"bytes"}],"stateMutability":"view"},{"type":"function","name":"getRawBatch","inputs":[{"name":"entities","type":"uint256[]","internalType":"uint256[]"}],"outputs":[{"name":"","type":"bytes[]","internalType":"bytes[]"}],"stateMutability":"view"},{"type":"function","name":"getValue","inputs":[{"name":"entity","type":"uint256","internalType":"uint256"}],"outputs":[{"name":"","type":"bool","internalType":"bool"}],"stateMutability":"view"},{"type":"function","name":"has","inputs":[{"name":"entity","type":"uint256","internalType":"uint256"}],"outputs":[{"name":"","type":"bool","internalType":"bool"}],"stateMutability":"view"},{"type":"function","name":"id","inputs":[],"outputs":[{"name":"","type":"uint256","internalType":"uint256"}],"stateMutability":"view"},{"type":"function","name":"owner","inputs":[],"outputs":[{"name":"result","type":"address","internalType":"address"}],"stateMutability":"view"},{"type":"function","name":"ownershipHandoverExpiresAt","inputs":[{"name":"pendingOwner","type":"address","internalType":"address"}],"outputs":[{"name":"result","type":"uint256","internalType":"uint256"}],"stateMutability":"view"},{"type":"function","name":"registerWorld","inputs":[{"name":"_world","type":"address","internalType":"address"}],"outputs":[],"stateMutability":"nonpayable"},{"type":"function","name":"remove","inputs":[{"name":"entity","type":"uint256","internalType":"uint256"}],"outputs":[],"stateMutability":"nonpayable"},{"type":"function","name":"removeBatch","inputs":[{"name":"entities","type":"uint256[]","internalType":"uint256[]"}],"outputs":[],"stateMutability":"nonpayable"},{"type":"function","name":"renounceOwnership","inputs":[],"outputs":[],"stateMutability":"payable"},{"type":"function","name":"requestOwnershipHandover","inputs":[],"outputs":[],"stateMutability":"payable"},{"type":"function","name":"set","inputs":[{"name":"entity","type":"uint256","internalType":"uint256"},{"name":"value","type":"bool","internalType":"bool"}],"outputs":[],"stateMutability":"nonpayable"},{"type":"function","name":"set","inputs":[{"name":"entity","type":"uint256","internalType":"uint256"},{"name":"value","type":"bytes","internalType":"bytes"}],"outputs":[],"stateMutability":"nonpayable"},{"type":"function","name":"setBatch","inputs":[{"name":"entities","type":"uint256[]","internalType":"uint256[]"},{"name":"values","type":"bytes[]","internalType":"bytes[]"}],"outputs":[],"stateMutability":"nonpayable"},{"type":"function","name":"size","inputs":[{"name":"value","type":"bytes","internalType":"bytes"}],"outputs":[{"name":"","type":"uint256","internalType":"uint256"}],"stateMutability":"view"},{"type":"function","name":"transferOwnership","inputs":[{"name":"newOwner","type":"address","internalType":"address"}],"outputs":[],"stateMutability":"payable"},{"type":"function","name":"unauthorizeWriter","inputs":[{"name":"writer","type":"address","internalType":"address"}],"outputs":[],"stateMutability":"nonpayable"},{"type":"function","name":"world","inputs":[],"outputs":[{"name":"","type":"address","internalType":"address"}],"stateMutability":"view"},{"type":"function","name":"writeAccess","inputs":[{"name":"operator","type":"address","internalType":"address"}],"outputs":[{"name":"","type":"bool","internalType":"bool"}],"stateMutability":"view"},{"type":"event","name":"OwnershipHandoverCanceled","inputs":[{"name":"pendingOwner","type":"address","indexed":true,"internalType":"address"}],"anonymous":false},{"type":"event","name":"OwnershipHandoverRequested","inputs":[{"name":"pendingOwner","type":"address","indexed":true,"internalType":"address"}],"anonymous":false},{"type":"event","name":"OwnershipTransferred","inputs":[{"name":"oldOwner","type":"address","indexed":true,"internalType":"address"},{"name":"newOwner","type":"address","indexed":true,"internalType":"address"}],"anonymous":false},{"type":"error","name":"AlreadyInitialized","inputs":[]},{"type":"error","name":"BareComponent__NotImplemented","inputs":[]},{"type":"error","name":"BatchOp_UnexpectedLength","inputs":[]},{"type":"error","name":"NewOwnerIsZeroAddress","inputs":[]},{"type":"error","name":"NoHandoverRequest","inputs":[]},{"type":"error","name":"OwnableWritable__NotWriter","inputs":[]},{"type":"error","name":"Unauthorized","inputs":[]},{"type":"error","name":"ZeroValueNotAllowed","inputs":[]}],"bytecode":{"object":"0x60806040523480156200001157600080fd5b506040516200252c3803806200252c83398101604081905262000034916200016e565b807f807cd581be790cec25384d39baac5265e3f01676e668a1d3d5a37a8845589539818162000063336200008e565b60028190556001600160a01b0382161562000083576200008382620000ca565b5050505050620001a0565b6001600160a01b0316638b78c6d8198190558060007f8be0079c531659141344cd1fd0a4f28419497f9722a3daafe3b4186f6b6457e08180a350565b620000d462000150565b600080546001600160a01b0319166001600160a01b038316908117909155600254604051630f30347760e41b8152306004820152602481019190915263f303477090604401600060405180830381600087803b1580156200013457600080fd5b505af115801562000149573d6000803e3d6000fd5b5050505050565b638b78c6d8195433146200016c576382b429006000526004601cfd5b565b6000602082840312156200018157600080fd5b81516001600160a01b03811681146200019957600080fd5b9392505050565b61237c80620001b06000396000f3fe6080604052600436106101cc5760003560e01c80638482643e116100f7578063b3cea21711610095578063e9ff6c7611610064578063e9ff6c761461055e578063f04e283e1461057e578063f2fde38b14610591578063fee81cf4146105a457600080fd5b8063b3cea217146104bd578063bf4fe57e146104f1578063cccf7a8e14610511578063dd98e3c91461053157600080fd5b80638da5cb5b116100d15780638da5cb5b146104335780639d2c76b414610467578063af640d0f14610487578063b361be461461049d57600080fd5b80638482643e146103d3578063861eb905146103f35780638b2829471461041357600080fd5b806331b933b91161016f57806354d1f13d1161013e57806354d1f13d1461038357806362f46d561461038b5780636f9aa155146103ab578063715018a6146103cb57600080fd5b806331b933b91461030e5780634323c4ef146103235780634cc82215146103435780634fef6a381461036357600080fd5b806313ca8b6a116101ab57806313ca8b6a146102645780631c5ee10c1461028657806325692962146102b457806330b67baa146102bc57600080fd5b80621326ab146101d15780630ff4c9161461020757806312b1115514610237575b600080fd5b3480156101dd57600080fd5b506101f16101ec366004611b40565b6105d7565b6040516101fe9190611b5d565b60405180910390f35b34801561021357600080fd5b50610227610222366004611ba1565b61060b565b60405190151581526020016101fe565b34801561024357600080fd5b50610257610252366004611cc7565b610629565b6040516101fe9190611d68565b34801561027057600080fd5b5061028461027f366004611e76565b610673565b005b34801561029257600080fd5b506102a66102a1366004611f4b565b6106c0565b6040519081526020016101fe565b6102846106e4565b3480156102c857600080fd5b506000546102e99073ffffffffffffffffffffffffffffffffffffffff1681565b60405173ffffffffffffffffffffffffffffffffffffffff90911681526020016101fe565b34801561031a57600080fd5b506101f1610734565b34801561032f57600080fd5b5061025761033e366004611cc7565b610768565b34801561034f57600080fd5b5061028461035e366004611ba1565b6108b4565b34801561036f57600080fd5b5061028461037e366004611f80565b6108ff565b610284610975565b34801561039757600080fd5b506102846103a6366004611fb6565b6109b1565b3480156103b757600080fd5b506102a66103c6366004611fe6565b6109de565b610284610a08565b3480156103df57600080fd5b506102846103ee366004611cc7565b610a1c565b3480156103ff57600080fd5b5061022761040e366004611f80565b610a64565b34801561041f57600080fd5b5061028461042e36600461202b565b610af3565b34801561043f57600080fd5b507fffffffffffffffffffffffffffffffffffffffffffffffffffffffff74873927546102e9565b34801561047357600080fd5b50610284610482366004611f80565b610b3c565b34801561049357600080fd5b506102a660025481565b3480156104a957600080fd5b506101f16104b8366004611f4b565b610bfd565b3480156104c957600080fd5b506102a67f807cd581be790cec25384d39baac5265e3f01676e668a1d3d5a37a884558953981565b3480156104fd57600080fd5b5061028461050c366004611f80565b610c08565b34801561051d57600080fd5b5061022761052c366004611ba1565b610c7b565b34801561053d57600080fd5b5061055161054c366004611ba1565b610c9d565b6040516101fe9190612072565b34801561056a57600080fd5b50610551610579366004611ba1565b610ca8565b61028461058c366004611f80565b610cf2565b61028461059f366004611f80565b610d2f565b3480156105b057600080fd5b506102a66105bf366004611f80565b63389a75e1600c908152600091909152602090205490565b6060610605826040516020016105f1911515815260200190565b604051602081830303815290604052610bfd565b92915050565b600061061682610c9d565b8060200190518101906106059190612085565b606061063433610a64565b61066a576040517f406ed3da00000000000000000000000000000000000000000000000000000000815260040160405180910390fd5b61060582610d56565b61067c33610a64565b6106b2576040517f406ed3da00000000000000000000000000000000000000000000000000000000815260040160405180910390fd5b6106bc8282610d6e565b5050565b60006106056003600084805190602001208152602001908152602001600020610f02565b60006202a30067ffffffffffffffff164201905063389a75e1600c5233600052806020600c2055337fdbf36a107da19e49527a7176a1babf963b4b0ff8cde35ee35d6cd8f1f9ac7e1d600080a250565b60606040517f17d5b8e800000000000000000000000000000000000000000000000000000000815260040160405180910390fd5b60606000825167ffffffffffffffff81111561078657610786611bba565b6040519080825280602002602001820160405280156107b957816020015b60608152602001906001900390816107a45790505b50905060005b83518110156108ad57600160008583815181106107de576107de6120a2565b6020026020010151815260200190815260200160002080546107ff906120d1565b80601f016020809104026020016040519081016040528092919081815260200182805461082b906120d1565b80156108785780601f1061084d57610100808354040283529160200191610878565b820191906000526020600020905b81548152906001019060200180831161085b57829003601f168201915b505050505082828151811061088f5761088f6120a2565b602002602001018190525080806108a590612153565b9150506107bf565b5092915050565b6108bd33610a64565b6108f3576040517f406ed3da00000000000000000000000000000000000000000000000000000000815260040160405180910390fd5b6108fc81610f0c565b50565b610907610fdf565b73ffffffffffffffffffffffffffffffffffffffff1660009081527f8ffeadc5cba727b8cc3cdef48739619490ea317fdb3baae1259089d06f92c9096020526040902080547fffffffffffffffffffffffffffffffffffffffffffffffffffffffffffffff00166001179055565b63389a75e1600c523360005260006020600c2055337ffa7b8eab7da67f412cc9575ed43464468f9bfbae89d1675917346ca6d8fe3c92600080a2565b6106bc82826040516020016109ca911515815260200190565b604051602081830303815290604052610af3565b81516020808401919091206000908152600390915260408120610a019083611015565b9392505050565b610a10610fdf565b610a1a6000611021565b565b610a2533610a64565b610a5b576040517f406ed3da00000000000000000000000000000000000000000000000000000000815260040160405180910390fd5b6108fc81611087565b73ffffffffffffffffffffffffffffffffffffffff811660009081527f8ffeadc5cba727b8cc3cdef48739619490ea317fdb3baae1259089d06f92c909602052604081205460ff16806106055750507fffffffffffffffffffffffffffffffffffffffffffffffffffffffff748739275473ffffffffffffffffffffffffffffffffffffffff91821691161490565b610afc33610a64565b610b32576040517f406ed3da00000000000000000000000000000000000000000000000000000000815260040160405180910390fd5b6106bc828261118f565b610b44610fdf565b600080547fffffffffffffffffffffffff00000000000000000000000000000000000000001673ffffffffffffffffffffffffffffffffffffffff83169081179091556002546040517ff3034770000000000000000000000000000000000000000000000000000000008152306004820152602481019190915263f3034770906044015b600060405180830381600087803b158015610be257600080fd5b505af1158015610bf6573d6000803e3d6000fd5b5050505050565b60606106058261128a565b610c10610fdf565b73ffffffffffffffffffffffffffffffffffffffff1660009081527f8ffeadc5cba727b8cc3cdef48739619490ea317fdb3baae1259089d06f92c9096020526040902080547fffffffffffffffffffffffffffffffffffffffffffffffffffffffffffffff00169055565b60008181526001602052604081208054610c94906120d1565b15159392505050565b6060610605826112ae565b6060610cb333610a64565b610ce9576040517f406ed3da00000000000000000000000000000000000000000000000000000000815260040160405180910390fd5b61060582611350565b610cfa610fdf565b63389a75e1600c52806000526020600c208054421115610d2257636f5e88186000526004601cfd5b600090556108fc81611021565b610d37610fdf565b8060601b610d4d57637448fbae6000526004601cfd5b6108fc81611021565b60606000610d6383611370565b905061060583611087565b60005b8251811015610ef757600060016000858481518110610d9257610d926120a2565b602002602001015181526020019081526020016000208054610db3906120d1565b80601f0160208091040260200160405190810160405280929190818152602001828054610ddf906120d1565b8015610e2c5780601f10610e0157610100808354040283529160200191610e2c565b820191906000526020600020905b815481529060010190602001808311610e0f57829003601f168201915b50505050509050600081511115610e8457610e82848381518110610e5257610e526120a2565b602002602001015160036000848051906020012081526020019081526020016000206114b590919063ffffffff16565b505b610ee2848381518110610e9957610e996120a2565b602002602001015160036000868681518110610eb757610eb76120a2565b60200260200101518051906020012081526020019081526020016000206114c190919063ffffffff16565b50508080610eef90612153565b915050610d71565b506106bc82826114cd565b6000610605825490565b60008181526001602052604081208054610f25906120d1565b80601f0160208091040260200160405190810160405280929190818152602001828054610f51906120d1565b8015610f9e5780601f10610f7357610100808354040283529160200191610f9e565b820191906000526020600020905b815481529060010190602001808311610f8157829003601f168201915b505050505090508051600003610fb2575050565b80516020808301919091206000908152600390915260409020610fd590836114b5565b506106bc826116ab565b7fffffffffffffffffffffffffffffffffffffffffffffffffffffffff74873927543314610a1a576382b429006000526004601cfd5b6000610a018383611719565b7fffffffffffffffffffffffffffffffffffffffffffffffffffffffff74873927805473ffffffffffffffffffffffffffffffffffffffff9092169182907f8be0079c531659141344cd1fd0a4f28419497f9722a3daafe3b4186f6b6457e0600080a355565b60005b8151811015611185576000600160008484815181106110ab576110ab6120a2565b6020026020010151815260200190815260200160002080546110cc906120d1565b80601f01602080910402602001604051908101604052809291908181526020018280546110f8906120d1565b80156111455780601f1061111a57610100808354040283529160200191611145565b820191906000526020600020905b81548152906001019060200180831161112857829003601f168201915b50505050509050805160000361115b5750611173565b611170838381518110610e5257610e526120a2565b50505b8061117d81612153565b91505061108a565b506108fc81611743565b600082815260016020526040812080546111a8906120d1565b80601f01602080910402602001604051908101604052809291908181526020018280546111d4906120d1565b80156112215780601f106111f657610100808354040283529160200191611221565b820191906000526020600020905b81548152906001019060200180831161120457829003601f168201915b50505050509050600081511115611257578051602080830191909120600090815260039091526040902061125590846114b5565b505b8151602080840191909120600090815260039091526040902061127a90846114c1565b506112858383611858565b505050565b6060610605600360008480519060200120815260200190815260200160002061193a565b60008181526001602052604090208054606091906112cb906120d1565b80601f01602080910402602001604051908101604052809291908181526020018280546112f7906120d1565b80156113445780601f1061131957610100808354040283529160200191611344565b820191906000526020600020905b81548152906001019060200180831161132757829003601f168201915b50505050509050919050565b6060600061135d836112ae565b8051909150156106055761060583610f0c565b60606000825167ffffffffffffffff81111561138e5761138e611bba565b6040519080825280602002602001820160405280156113c157816020015b60608152602001906001900390816113ac5790505b50905060005b83518110156108ad57600160008583815181106113e6576113e66120a2565b602002602001015181526020019081526020016000208054611407906120d1565b80601f0160208091040260200160405190810160405280929190818152602001828054611433906120d1565b80156114805780601f1061145557610100808354040283529160200191611480565b820191906000526020600020905b81548152906001019060200180831161146357829003601f168201915b5050505050828281518110611497576114976120a2565b602002602001018190525080806114ad90612153565b9150506113c7565b6000610a018383611947565b6000610a018383611a3a565b8051825114611508576040517fc291f68400000000000000000000000000000000000000000000000000000000815260040160405180910390fd5b60005b82518110156115cd57818181518110611526576115266120a2565b602002602001015151600003611568576040517f9cf8540c00000000000000000000000000000000000000000000000000000000815260040160405180910390fd5b81818151811061157a5761157a6120a2565b602002602001015160016000858481518110611598576115986120a2565b6020026020010151815260200190815260200160002090816115ba91906121d1565b50806115c581612153565b91505061150b565b506000805473ffffffffffffffffffffffffffffffffffffffff16905b83518110156116a5578173ffffffffffffffffffffffffffffffffffffffff1663cfd3c57f858381518110611621576116216120a2565b602002602001015185848151811061163b5761163b6120a2565b60200260200101516040518363ffffffff1660e01b81526004016116609291906122eb565b600060405180830381600087803b15801561167a57600080fd5b505af115801561168e573d6000803e3d6000fd5b50505050808061169d90612153565b9150506115ea565b50505050565b60008181526001602052604081206116c291611ae4565b6000546040517f0de3b7b50000000000000000000000000000000000000000000000000000000081526004810183905273ffffffffffffffffffffffffffffffffffffffff90911690630de3b7b590602401610bc8565b6000826000018281548110611730576117306120a2565b9060005260206000200154905092915050565b60005b81518110156117995760016000838381518110611765576117656120a2565b6020026020010151815260200190815260200160002060006117879190611ae4565b8061179181612153565b915050611746565b506000805473ffffffffffffffffffffffffffffffffffffffff16905b8251811015611285578173ffffffffffffffffffffffffffffffffffffffff16630de3b7b58483815181106117ed576117ed6120a2565b60200260200101516040518263ffffffff1660e01b815260040161181391815260200190565b600060405180830381600087803b15801561182d57600080fd5b505af1158015611841573d6000803e3d6000fd5b50505050808061185090612153565b9150506117b6565b8051600003611893576040517f9cf8540c00000000000000000000000000000000000000000000000000000000815260040160405180910390fd5b60008281526001602052604090206118ab82826121d1565b506000546040517fcfd3c57f00000000000000000000000000000000000000000000000000000000815273ffffffffffffffffffffffffffffffffffffffff9091169063cfd3c57f9061190490859085906004016122eb565b600060405180830381600087803b15801561191e57600080fd5b505af1158015611932573d6000803e3d6000fd5b505050505050565b60606000610a0183611a89565b60008181526001830160205260408120548015611a3057600061196b600183612304565b855490915060009061197f90600190612304565b90508181146119e457600086600001828154811061199f5761199f6120a2565b90600052602060002001549050808760000184815481106119c2576119c26120a2565b6000918252602080832090910192909255918252600188019052604090208390555b85548690806119f5576119f5612317565b600190038181906000526020600020016000905590558560010160008681526020019081526020016000206000905560019350505050610605565b6000915050610605565b6000818152600183016020526040812054611a8157508154600181810184556000848152602080822090930184905584548482528286019093526040902091909155610605565b506000610605565b60608160000180548060200260200160405190810160405280929190818152602001828054801561134457602002820191906000526020600020905b815481526020019060010190808311611ac55750505050509050919050565b508054611af0906120d1565b6000825580601f10611b00575050565b601f0160209004906000526020600020908101906108fc91905b80821115611b2e5760008155600101611b1a565b5090565b80151581146108fc57600080fd5b600060208284031215611b5257600080fd5b8135610a0181611b32565b6020808252825182820181905260009190848201906040850190845b81811015611b9557835183529284019291840191600101611b79565b50909695505050505050565b600060208284031215611bb357600080fd5b5035919050565b7f4e487b7100000000000000000000000000000000000000000000000000000000600052604160045260246000fd5b604051601f82017fffffffffffffffffffffffffffffffffffffffffffffffffffffffffffffffe016810167ffffffffffffffff81118282101715611c3057611c30611bba565b604052919050565b600067ffffffffffffffff821115611c5257611c52611bba565b5060051b60200190565b600082601f830112611c6d57600080fd5b81356020611c82611c7d83611c38565b611be9565b82815260059290921b84018101918181019086841115611ca157600080fd5b8286015b84811015611cbc5780358352918301918301611ca5565b509695505050505050565b600060208284031215611cd957600080fd5b813567ffffffffffffffff811115611cf057600080fd5b611cfc84828501611c5c565b949350505050565b6000815180845260005b81811015611d2a57602081850181015186830182015201611d0e565b5060006020828601015260207fffffffffffffffffffffffffffffffffffffffffffffffffffffffffffffffe0601f83011685010191505092915050565b6000602080830181845280855180835260408601915060408160051b870101925083870160005b82811015611ddb577fffffffffffffffffffffffffffffffffffffffffffffffffffffffffffffffc0888603018452611dc9858351611d04565b94509285019290850190600101611d8f565b5092979650505050505050565b600082601f830112611df957600080fd5b813567ffffffffffffffff811115611e1357611e13611bba565b611e4460207fffffffffffffffffffffffffffffffffffffffffffffffffffffffffffffffe0601f84011601611be9565b818152846020838601011115611e5957600080fd5b816020850160208301376000918101602001919091529392505050565b60008060408385031215611e8957600080fd5b823567ffffffffffffffff80821115611ea157600080fd5b611ead86838701611c5c565b9350602091508185013581811115611ec457600080fd5b8501601f81018713611ed557600080fd5b8035611ee3611c7d82611c38565b81815260059190911b82018401908481019089831115611f0257600080fd5b8584015b83811015611f3a57803586811115611f1e5760008081fd5b611f2c8c8983890101611de8565b845250918601918601611f06565b508096505050505050509250929050565b600060208284031215611f5d57600080fd5b813567ffffffffffffffff811115611f7457600080fd5b611cfc84828501611de8565b600060208284031215611f9257600080fd5b813573ffffffffffffffffffffffffffffffffffffffff81168114610a0157600080fd5b60008060408385031215611fc957600080fd5b823591506020830135611fdb81611b32565b809150509250929050565b60008060408385031215611ff957600080fd5b823567ffffffffffffffff81111561201057600080fd5b61201c85828601611de8565b95602094909401359450505050565b6000806040838503121561203e57600080fd5b82359150602083013567ffffffffffffffff81111561205c57600080fd5b61206885828601611de8565b9150509250929050565b602081526000610a016020830184611d04565b60006020828403121561209757600080fd5b8151610a0181611b32565b7f4e487b7100000000000000000000000000000000000000000000000000000000600052603260045260246000fd5b600181811c908216806120e557607f821691505b60208210810361211e577f4e487b7100000000000000000000000000000000000000000000000000000000600052602260045260246000fd5b50919050565b7f4e487b7100000000000000000000000000000000000000000000000000000000600052601160045260246000fd5b60007fffffffffffffffffffffffffffffffffffffffffffffffffffffffffffffffff820361218457612184612124565b5060010190565b601f82111561128557600081815260208120601f850160051c810160208610156121b25750805b601f850160051c820191505b81811015611932578281556001016121be565b815167ffffffffffffffff8111156121eb576121eb611bba565b6121ff816121f984546120d1565b8461218b565b602080601f831160018114612252576000841561221c5750858301515b7fffffffffffffffffffffffffffffffffffffffffffffffffffffffffffffffff600386901b1c1916600185901b178555611932565b6000858152602081207fffffffffffffffffffffffffffffffffffffffffffffffffffffffffffffffe08616915b8281101561229f57888601518255948401946001909101908401612280565b50858210156122db57878501517fffffffffffffffffffffffffffffffffffffffffffffffffffffffffffffffff600388901b60f8161c191681555b5050505050600190811b01905550565b828152604060208201526000611cfc6040830184611d04565b8181038181111561060557610605612124565b7f4e487b7100000000000000000000000000000000000000000000000000000000600052603160045260246000fdfea2646970667358221220c50c2a905251878f23f27ad815aa0aa93af47b6564f3b8d2560c11fcc7cacb7764736f6c63430008110033","linkReferences":{}},"methodIdentifiers":{"ID()":"b3cea217","authorizeWriter(address)":"4fef6a38","cancelOwnershipHandover()":"54d1f13d","completeOwnershipHandover(address)":"f04e283e","extractRaw(uint256)":"e9ff6c76","extractRawBatch(uint256[])":"12b11155","getAt(bytes,uint256)":"6f9aa155","getEntities()":"31b933b9","getEntitiesWithValue(bool)":"001326ab","getEntitiesWithValue(bytes)":"b361be46","getRaw(uint256)":"dd98e3c9","getRawBatch(uint256[])":"4323c4ef","getValue(uint256)":"0ff4c916","has(uint256)":"cccf7a8e","id()":"af640d0f","owner()":"8da5cb5b","ownershipHandoverExpiresAt(address)":"fee81cf4","registerWorld(address)":"9d2c76b4","remove(uint256)":"4cc82215","removeBatch(uint256[])":"8482643e","renounceOwnership()":"715018a6","requestOwnershipHandover()":"25692962","set(uint256,bool)":"62f46d56","set(uint256,bytes)":"8b282947","setBatch(uint256[],bytes[])":"13ca8b6a","size(bytes)":"1c5ee10c","transferOwnership(address)":"f2fde38b","unauthorizeWriter(address)":"bf4fe57e","world()":"30b67baa","writeAccess(address)":"861eb905"},"id":248}