{"abi":[{"type":"constructor","inputs":[{"name":"_world","type":"address","internalType":"contract IWorld"},{"name":"_components","type":"address","internalType":"address"}],"stateMutability":"nonpayable"},{"type":"function","name":"cancelOwnershipHandover","inputs":[],"outputs":[],"stateMutability":"payable"},{"type":"function","name":"completeOwnershipHandover","inputs":[{"name":"pendingOwner","type":"address","internalType":"address"}],"outputs":[],"stateMutability":"payable"},{"type":"function","name":"deprecate","inputs":[],"outputs":[],"stateMutability":"nonpayable"},{"type":"function","name":"execute","inputs":[{"name":"arguments","type":"bytes","internalType":"bytes"}],"outputs":[{"name":"","type":"bytes","internalType":"bytes"}],"stateMutability":"nonpayable"},{"type":"function","name":"executeTyped","inputs":[{"name":"assignerID","type":"uint256","internalType":"uint256"},{"name":"index","type":"uint32","internalType":"uint32"}],"outputs":[{"name":"","type":"bytes","internalType":"bytes"}],"stateMutability":"nonpayable"},{"type":"function","name":"owner","inputs":[],"outputs":[{"name":"result","type":"address","internalType":"address"}],"stateMutability":"view"},{"type":"function","name":"ownershipHandoverExpiresAt","inputs":[{"name":"pendingOwner","type":"address","internalType":"address"}],"outputs":[{"name":"result","type":"uint256","internalType":"uint256"}],"stateMutability":"view"},{"type":"function","name":"renounceOwnership","inputs":[],"outputs":[],"stateMutability":"payable"},{"type":"function","name":"requestOwnershipHandover","inputs":[],"outputs":[],"stateMutability":"payable"},{"type":"function","name":"transferOwnership","inputs":[{"name":"newOwner","type":"address","internalType":"address"}],"outputs":[],"stateMutability":"payable"},{"type":"event","name":"OwnershipHandoverCanceled","inputs":[{"name":"pendingOwner","type":"address","indexed":true,"internalType":"address"}],"anonymous":false},{"type":"event","name":"OwnershipHandoverRequested","inputs":[{"name":"pendingOwner","type":"address","indexed":true,"internalType":"address"}],"anonymous":false},{"type":"event","name":"OwnershipTransferred","inputs":[{"name":"oldOwner","type":"address","indexed":true,"internalType":"address"},{"name":"newOwner","type":"address","indexed":true,"internalType":"address"}],"anonymous":false},{"type":"event","name":"SystemDeprecated","inputs":[],"anonymous":false},{"type":"error","name":"AlreadyInitialized","inputs":[]},{"type":"error","name":"NewOwnerIsZeroAddress","inputs":[]},{"type":"error","name":"NoHandoverRequest","inputs":[]},{"type":"error","name":"Unauthorized","inputs":[]}],"bytecode":{"object":"0x60c06040523480156200001157600080fd5b506040516200448a3803806200448a83398101604081905262000034916200012f565b81816200004133620000dc565b6001600160a01b03811615620000585780620000bd565b816001600160a01b031663ba62fbe46040518163ffffffff1660e01b8152600401602060405180830381865afa15801562000097573d6000803e3d6000fd5b505050506040513d601f19601f82011682018060405250810190620000bd91906200016e565b6001600160a01b039081166080529190911660a0525062000195915050565b6001600160a01b0316638b78c6d8198190558060007f8be0079c531659141344cd1fd0a4f28419497f9722a3daafe3b4186f6b6457e08180a35b50565b6001600160a01b03811681146200011657600080fd5b600080604083850312156200014357600080fd5b8251620001508162000119565b6020840151909250620001638162000119565b809150509250929050565b6000602082840312156200018157600080fd5b81516200018e8162000119565b9392505050565b60805160a05161428962000201600039600081816104f501526105b101526000818161021a015281816102b7015281816102e30152818161037501528181610408015281816104350152818161046401528181610516015281816105d2015261060001526142896000f3fe6080604052600436106100b15760003560e01c80638da5cb5b11610069578063f04e283e1161004e578063f04e283e1461018f578063f2fde38b146101a2578063fee81cf4146101b557600080fd5b80638da5cb5b1461011b578063e60f3a761461016f57600080fd5b8063256929621161009a578063256929621461010357806354d1f13d1461010b578063715018a61461011357600080fd5b806309c5eabe146100b65780630fcc0c28146100ec575b600080fd5b3480156100c257600080fd5b506100d66100d1366004613a89565b6101f6565b6040516100e39190613b77565b60405180910390f35b3480156100f857600080fd5b5061010161064c565b005b61010161067f565b6101016106cf565b61010161070b565b34801561012757600080fd5b507fffffffffffffffffffffffffffffffffffffffffffffffffffffffff748739275460405173ffffffffffffffffffffffffffffffffffffffff90911681526020016100e3565b34801561017b57600080fd5b506100d661018a366004613b9c565b61071f565b61010161019d366004613bcc565b610763565b6101016101b0366004613bcc565b6107a3565b3480156101c157600080fd5b506101e86101d0366004613bcc565b63389a75e1600c908152600091909152602090205490565b6040519081526020016100e3565b60606000808380602001905181019061020f9190613c02565b91509150600061023f7f0000000000000000000000000000000000000000000000000000000000000000836107ca565b9050806000036102b0576040517f08c379a000000000000000000000000000000000000000000000000000000000815260206004820152600f60248201527f5175657374206e6f7420666f756e64000000000000000000000000000000000060448201526064015b60405180910390fd5b60006102dc7f000000000000000000000000000000000000000000000000000000000000000033610822565b905061030a7f00000000000000000000000000000000000000000000000000000000000000008584846109e2565b610370576040517f08c379a000000000000000000000000000000000000000000000000000000000815260206004820152600c60248201527f6e6f742061737369676e6572000000000000000000000000000000000000000060448201526064016102a7565b61039b7f00000000000000000000000000000000000000000000000000000000000000008483610a64565b610401576040517f08c379a000000000000000000000000000000000000000000000000000000000815260206004820152601960248201527f51756573744163636570743a2072657173206e6f74206d65740000000000000060448201526064016102a7565b600061042e7f00000000000000000000000000000000000000000000000000000000000000008386610a89565b905061045a7f000000000000000000000000000000000000000000000000000000000000000084610aad565b156105445761048a7f00000000000000000000000000000000000000000000000000000000000000008583610b54565b6104f0576040517f08c379a000000000000000000000000000000000000000000000000000000000815260206004820181905260248201527f51756573744163636570743a2072657065617420636f6e73206e6f74206d657460448201526064016102a7565b61053d7f00000000000000000000000000000000000000000000000000000000000000007f0000000000000000000000000000000000000000000000000000000000000000868486610bbd565b90506105fb565b80156105ac576040517f08c379a000000000000000000000000000000000000000000000000000000000815260206004820152601c60248201527f51756573744163636570743a206163636570746564206265666f72650000000060448201526064016102a7565b6105f87f00000000000000000000000000000000000000000000000000000000000000007f00000000000000000000000000000000000000000000000000000000000000008685610c3a565b90505b6106257f000000000000000000000000000000000000000000000000000000000000000083610eb7565b60408051602081018390520160405160208183030381529060405295505050505050919050565b610654610ec6565b6040517f56f33501ffd77f9fe44d81e7db7e66a66bdf52ab3e11267cdc6462763604c4c790600090a1565b60006202a30067ffffffffffffffff164201905063389a75e1600c5233600052806020600c2055337fdbf36a107da19e49527a7176a1babf963b4b0ff8cde35ee35d6cd8f1f9ac7e1d600080a250565b63389a75e1600c523360005260006020600c2055337ffa7b8eab7da67f412cc9575ed43464468f9bfbae89d1675917346ca6d8fe3c92600080a2565b610713610ec6565b61071d6000610efc565b565b606061075a838360405160200161074692919091825263ffffffff16602082015260400190565b6040516020818303038152906040526101f6565b90505b92915050565b61076b610ec6565b63389a75e1600c52806000526020600c20805442111561079357636f5e88186000526004601cfd5b600090556107a081610efc565b50565b6107ab610ec6565b8060601b6107c157637448fbae6000526004601cfd5b6107a081610efc565b60006107d582610f62565b905061081783826040518060400160405280600581526020017f5155455354000000000000000000000000000000000000000000000000000000815250610ffa565b61075d57600061075a565b60008061084f847ff9b94d2a933222e58f90359e8ec33041c5f08d7bc4304958d1c52c21991da575611048565b6040517fcccf7a8e00000000000000000000000000000000000000000000000000000000815273ffffffffffffffffffffffffffffffffffffffff8581166004830181905292935083169063cccf7a8e90602401602060405180830381865afa1580156108c0573d6000803e3d6000fd5b505050506040513d601f19601f820116820180604052508101906108e49190613c27565b61094a576040517f08c379a000000000000000000000000000000000000000000000000000000000815260206004820152601b60248201527f4163636f756e743a204f70657261746f72206e6f7420666f756e64000000000060448201526064016102a7565b6040517f9507d39a0000000000000000000000000000000000000000000000000000000081526004810182905273ffffffffffffffffffffffffffffffffffffffff831690639507d39a90602401602060405180830381865afa1580156109b5573d6000803e3d6000fd5b505050506040513d601f19601f820116820180604052508101906109d99190613c49565b95945050505050565b600080610a0f867f31ac3bd9ff93491555448947dd00c7535790caec346584c2d495cc80bde8d9f1611048565b9050610a1b818561118c565b15610a2a576001915050610a5c565b6000610a37828787611249565b905080600003610a4c57600092505050610a5c565b610a578787866112e8565b925050505b949350505050565b600080610a718585611335565b9050610a7e858285611349565b9150505b9392505050565b600080610a9683856113c7565b9050610aa28582611467565b610a5c576000610a7e565b6000610ad9837f55fc1d6f060c9a0b82cfb50cf47ed24d77ee495eb31e561183a9a9e9c41fd06b611048565b73ffffffffffffffffffffffffffffffffffffffff1663cccf7a8e836040518263ffffffff1660e01b8152600401610b1391815260200190565b602060405180830381865afa158015610b30573d6000803e3d6000fd5b505050506040513d601f19601f8201168201806040525081019061075a9190613c27565b600081600003610b6657506001610a82565b610b7084836114a9565b610b7c57506000610a82565b6000610b8885846114d5565b90506000610b9686866107ca565b90506000610ba4878361157c565b9050610bb08184613c91565b4211979650505050505050565b60008215610c22575081610bd185826115a8565b610c1185826040518060400160405280600581526020017f5155455354000000000000000000000000000000000000000000000000000000815250611642565b610c1d858583856116dd565b6109d9565b610c2e86868685610c3a565b90506109d9858261179f565b6000610c4683836113c7565b9050610c8884826040518060400160405280600581526020017f5155455354000000000000000000000000000000000000000000000000000000815250611642565b610cb2847f2a2f9797d308537ff91ca605795dfe371c297d821901e4d3618d6b4064a02d76611048565b6040517f1ab06ee5000000000000000000000000000000000000000000000000000000008152600481018390526024810184905273ffffffffffffffffffffffffffffffffffffffff9190911690631ab06ee590604401600060405180830381600087803b158015610d2357600080fd5b505af1158015610d37573d6000803e3d6000fd5b50505050610d68847f3879d04bcdb27da7a4f7f7e8a6eb6b202b0f5e22dc66fb53ce3b2fc3d9ed63d460001c611048565b6040517fd923c3c40000000000000000000000000000000000000000000000000000000081526004810183905263ffffffff8516602482015273ffffffffffffffffffffffffffffffffffffffff919091169063d923c3c490604401600060405180830381600087803b158015610dde57600080fd5b505af1158015610df2573d6000803e3d6000fd5b50505050610e23847f9ee42634d52dbd5a24ad226010389fb7306af59bdaec5e20547162dd896dacad60001c611048565b6040517f1ab06ee50000000000000000000000000000000000000000000000000000000081526004810183905242602482015273ffffffffffffffffffffffffffffffffffffffff9190911690631ab06ee590604401600060405180830381600087803b158015610e9357600080fd5b505af1158015610ea7573d6000803e3d6000fd5b50505050610a5c848483856116dd565b610ec2828242611803565b5050565b7fffffffffffffffffffffffffffffffffffffffffffffffffffffffff7487392754331461071d576382b429006000526004601cfd5b7fffffffffffffffffffffffffffffffffffffffffffffffffffffffff74873927805473ffffffffffffffffffffffffffffffffffffffff9092169182907f8be0079c531659141344cd1fd0a4f28419497f9722a3daafe3b4186f6b6457e0600080a355565b6040517f72656769737472792e717565737400000000000000000000000000000000000060208201527fffffffff0000000000000000000000000000000000000000000000000000000060e083901b16602e8201526000906032015b604080517fffffffffffffffffffffffffffffffffffffffffffffffffffffffffffffffe0818403018152919052805160209091012092915050565b6000610a5c838361102b877f5d88ced8d8e079072bf73f49fc87661b519c50d79482941abb852ba2b10909cd611048565b73ffffffffffffffffffffffffffffffffffffffff169190611889565b6040517ffbdfa1ea00000000000000000000000000000000000000000000000000000000815260048101829052600090819073ffffffffffffffffffffffffffffffffffffffff85169063fbdfa1ea90602401600060405180830381865afa1580156110b8573d6000803e3d6000fd5b505050506040513d6000823e601f3d9081017fffffffffffffffffffffffffffffffffffffffffffffffffffffffffffffffe01682016040526110fe9190810190613cc8565b9050805160000361116b576040517f08c379a000000000000000000000000000000000000000000000000000000000815260206004820152601160248201527f6964206e6f74207265676973746572656400000000000000000000000000000060448201526064016102a7565b610a5c8160008151811061118157611181613d59565b602002602001015190565b6040517ffbdfa1ea0000000000000000000000000000000000000000000000000000000081526004810182905260009073ffffffffffffffffffffffffffffffffffffffff84169063fbdfa1ea90602401600060405180830381865afa1580156111fa573d6000803e3d6000fd5b505050506040513d6000823e601f3d9081017fffffffffffffffffffffffffffffffffffffffffffffffffffffffffffffffe01682016040526112409190810190613cc8565b51159392505050565b60008061125684846118ac565b6040517fcccf7a8e0000000000000000000000000000000000000000000000000000000081526004810182905290915073ffffffffffffffffffffffffffffffffffffffff86169063cccf7a8e90602401602060405180830381865afa1580156112c4573d6000803e3d6000fd5b505050506040513d601f19601f82011682018060405250810190610aa29190613c27565b60008080611320611319877f3be9611062b8582cf4b9a4eafe577dbde7dcd7779a1efb46d73e212026c4b0cc6118ee565b86866118fa565b63ffffffff9081169116149695505050505050565b606061075a83611344846119b3565b611a13565b6000825160000361135c57506001610a82565b60006113688585611adc565b905060005b84518110156113bb5761139a868584848151811061138d5761138d613d59565b602002602001015161205a565b6113a957600092505050610a82565b806113b381613d88565b91505061136d565b50600195945050505050565b6040517f72656769737472792e717565737400000000000000000000000000000000000060208201527fffffffff0000000000000000000000000000000000000000000000000000000060e084901b16602e820152603281018290526000906052015b604080517fffffffffffffffffffffffffffffffffffffffffffffffffffffffffffffffe081840301815291905280516020909101209392505050565b600061075a83836040518060400160405280600581526020017f5155455354000000000000000000000000000000000000000000000000000000815250610ffa565b6000610ad9837f9522897410526014691d8a863fac7bd2e048ab08176b6e3c6fa8a1f5195164bb611048565b6000611501837f9ee42634d52dbd5a24ad226010389fb7306af59bdaec5e20547162dd896dacad611048565b73ffffffffffffffffffffffffffffffffffffffff16639507d39a836040518263ffffffff1660e01b815260040161153b91815260200190565b602060405180830381865afa158015611558573d6000803e3d6000fd5b505050506040513d601f19601f8201168201806040525081019061075a9190613c49565b6000611501837f040fc38fe5717491c84059f73f7686f4157d14971215773d341a2ede964d65ac611048565b6115d2827f9522897410526014691d8a863fac7bd2e048ab08176b6e3c6fa8a1f5195164bb611048565b73ffffffffffffffffffffffffffffffffffffffff16634cc82215826040518263ffffffff1660e01b815260040161160c91815260200190565b600060405180830381600087803b15801561162657600080fd5b505af115801561163a573d6000803e3d6000fd5b505050505050565b61166c837f5d88ced8d8e079072bf73f49fc87661b519c50d79482941abb852ba2b10909cd611048565b73ffffffffffffffffffffffffffffffffffffffff16636437197783836040518363ffffffff1660e01b81526004016116a6929190613dc0565b600060405180830381600087803b1580156116c057600080fd5b505af11580156116d4573d6000803e3d6000fd5b50505050505050565b60006116e98585612122565b905060005b815181101561163a57600061171c8784848151811061170f5761170f613d59565b6020026020010151612131565b90506000611729826121fa565b509050600181600381111561174057611740613dd9565b148061175d5750600281600381111561175b5761175b613dd9565b145b1561178a57611788888786868151811061177957611779613d59565b6020026020010151858961277b565b505b5050808061179790613d88565b9150506116ee565b6117c9827f55fc1d6f060c9a0b82cfb50cf47ed24d77ee495eb31e561183a9a9e9c41fd06b611048565b73ffffffffffffffffffffffffffffffffffffffff166360fe47b1826040518263ffffffff1660e01b815260040161160c91815260200190565b61182d837f342adee7430e96bca6f5d4fe57ba5155dc7271000494e77110c292d51ae887fa611048565b6040517f1ab06ee5000000000000000000000000000000000000000000000000000000008152600481018490526024810183905273ffffffffffffffffffffffffffffffffffffffff9190911690631ab06ee5906044016116a6565b6000610a5c82611899868661292f565b8151602092830120815191909201201490565b6040517f72656c6174696f6e0000000000000000000000000000000000000000000000006020820152602881018390526048810182905260009060680161142a565b600061075a8383611048565b604080516002808252606082018352600092839283929091602083019080368337019050509050848160008151811061193557611935613d59565b602002602001018181525050838160018151811061195557611955613d59565b602002602001018181525050600061196d8783612a31565b90508060008151811061198257611982613d59565b60200260200101518160018151811061199d5761199d613d59565b6020026020010151935093505050935093915050565b6040517f72656769737472792e71756573742e726571756972656d656e7400000000000060208201527fffffffff0000000000000000000000000000000000000000000000000000000060e083901b16603a820152600090603e01610fbe565b6060611a3f837fde0f9b459fab67ff56929343dacb07b0c0a1f8509d3184dc6d736f68b80381de611048565b73ffffffffffffffffffffffffffffffffffffffff1663fbdfa1ea836040518263ffffffff1660e01b8152600401611a7991815260200190565b600060405180830381865afa158015611a96573d6000803e3d6000fd5b505050506040513d6000823e601f3d9081017fffffffffffffffffffffffffffffffffffffffffffffffffffffffffffffffe016820160405261075a9190810190613cc8565b60606000611b0a847f024accd0d273ef6123273b21662f5cc055a7d58adf98cc1b060edd029af93f7f611048565b90506000611b38857f787589c9eda599ea35279a6d93e360e8fdc5402255545ca394f5033f5e58ed42611048565b90506000611b66867f62adc4221185187a288916c2630b5e1f37e9437c5b68d55bc59b9debc23f19d0611048565b90506000611b94877fb25ea67b55901db62e4b14311a8c1ab178fec3948b4b493a711970a50aa2a2e1611048565b90506000865167ffffffffffffffff811115611bb257611bb26139c5565b604051908082528060200260200182016040528015611c1457816020015b611c0160405180608001604052806060815260200160608152602001600063ffffffff168152602001600081525090565b815260200190600190039081611bd05790505b50905060005b875181101561204e5760405180608001604052808773ffffffffffffffffffffffffffffffffffffffff16639507d39a8b8581518110611c5c57611c5c613d59565b60200260200101516040518263ffffffff1660e01b8152600401611c8291815260200190565b600060405180830381865afa158015611c9f573d6000803e3d6000fd5b505050506040513d6000823e601f3d9081017fffffffffffffffffffffffffffffffffffffffffffffffffffffffffffffffe0168201604052611ce59190810190613e38565b81526020018673ffffffffffffffffffffffffffffffffffffffff16639507d39a8b8581518110611d1857611d18613d59565b60200260200101516040518263ffffffff1660e01b8152600401611d3e91815260200190565b600060405180830381865afa158015611d5b573d6000803e3d6000fd5b505050506040513d6000823e601f3d9081017fffffffffffffffffffffffffffffffffffffffffffffffffffffffffffffffe0168201604052611da19190810190613e38565b81526020018573ffffffffffffffffffffffffffffffffffffffff1663cccf7a8e8b8581518110611dd457611dd4613d59565b60200260200101516040518263ffffffff1660e01b8152600401611dfa91815260200190565b602060405180830381865afa158015611e17573d6000803e3d6000fd5b505050506040513d601f19601f82011682018060405250810190611e3b9190613c27565b611e46576000611edb565b8573ffffffffffffffffffffffffffffffffffffffff16639507d39a8b8581518110611e7457611e74613d59565b60200260200101516040518263ffffffff1660e01b8152600401611e9a91815260200190565b602060405180830381865afa158015611eb7573d6000803e3d6000fd5b505050506040513d601f19601f82011682018060405250810190611edb9190613e81565b63ffffffff1681526020018473ffffffffffffffffffffffffffffffffffffffff1663cccf7a8e8b8581518110611f1457611f14613d59565b60200260200101516040518263ffffffff1660e01b8152600401611f3a91815260200190565b602060405180830381865afa158015611f57573d6000803e3d6000fd5b505050506040513d601f19601f82011682018060405250810190611f7b9190613c27565b611f8657600061201b565b8473ffffffffffffffffffffffffffffffffffffffff16639507d39a8b8581518110611fb457611fb4613d59565b60200260200101516040518263ffffffff1660e01b8152600401611fda91815260200190565b602060405180830381865afa158015611ff7573d6000803e3d6000fd5b505050506040513d601f19601f8201168201806040525081019061201b9190613c49565b81525082828151811061203057612030613d59565b6020026020010181905250808061204690613d88565b915050611c1a565b50979650505050505050565b600080600061206884612bbf565b9092509050600082600381111561208157612081613dd9565b0361209b5761209286868684612bd8565b92505050610a82565b60038260038111156120af576120af613dd9565b036120c05761209286868684612c94565b6040517f08c379a000000000000000000000000000000000000000000000000000000000815260206004820152601b60248201527f48616e646c6572206e6f742079657420696d706c656d656e746564000000000060448201526064016102a7565b606061075a8361134484612d4b565b606061215d837f787589c9eda599ea35279a6d93e360e8fdc5402255545ca394f5033f5e58ed42611048565b73ffffffffffffffffffffffffffffffffffffffff16639507d39a836040518263ffffffff1660e01b815260040161219791815260200190565b600060405180830381865afa1580156121b4573d6000803e3d6000fd5b505050506040513d6000823e601f3d9081017fffffffffffffffffffffffffffffffffffffffffffffffffffffffffffffffe016820160405261075a9190810190613e38565b6000806000806122486040518060400160405280600481526020017f435552520000000000000000000000000000000000000000000000000000000081525086612dab90919063ffffffff16565b156122565760009150612417565b6040805180820190915260038082527f494e43000000000000000000000000000000000000000000000000000000000060209283015290860181902086517f2294515cf577a807f70c30a4bd66fb198b63ab765b7fa768b080fe8cda2c38889190911491111516156122cb5760019150612417565b6040805180820190915260038082527f444543000000000000000000000000000000000000000000000000000000000060209283015290860181902086517fc8117e3bb0a5365f1188f80e2df06c2b6996766cd83da2c646f5f9e14dcfbd179190911491111516156123405760029150612417565b6040805180820190915260048082527f424f4f4c0000000000000000000000000000000000000000000000000000000060209283015290860181902086517fda3fe7adc6f9d250974b3b45d024284953a3a67841a37ae5029171eb5f1bc3099190911491111516156123b55760039150612417565b6040517f08c379a000000000000000000000000000000000000000000000000000000000815260206004820152601960248201527f556e6b6e6f776e20636f6e646974696f6e2068616e646c65720000000000000060448201526064016102a7565b6040805180820190915260038082527f4d494e00000000000000000000000000000000000000000000000000000000006020928301528651808211157ffffffffffffffffffffffffffffffffffffffffffffffffffffffffffffffffd90910181028801909201207f871eebeccaa432de5f38a72c534eb2fa59c2c3b49e3c6629c16c11981ee74f2a1416156124af57506000612771565b6040805180820190915260038082527f4d415800000000000000000000000000000000000000000000000000000000006020928301528651808211157ffffffffffffffffffffffffffffffffffffffffffffffffffffffffffffffffd90910181028801909201207fa42787877dd247913f847bc654d767d1919585674d8f1a26ea00084043233daa14161561254757506001612771565b6040805180820190915260058082527f455155414c0000000000000000000000000000000000000000000000000000006020928301528651808211157ffffffffffffffffffffffffffffffffffffffffffffffffffffffffffffffffb90910181028801909201207f3a06e9850b6d2ffe1ee040a5349ff67cf64f6914074848a74304f81130b907251416156125df57506002612771565b6040805180820190915260028082527f49530000000000000000000000000000000000000000000000000000000000006020928301528651808211157ffffffffffffffffffffffffffffffffffffffffffffffffffffffffffffffffe90910181028801909201207fa0f4911f5dff37b9a43a54645c34f34bf9127e9dac511b186b8529567dfaf3dc14161561267757506003612771565b6040805180820190915260038082527f4e4f5400000000000000000000000000000000000000000000000000000000006020928301528651808211157ffffffffffffffffffffffffffffffffffffffffffffffffffffffffffffffffd90910181028801909201207f4293f9bf526b0205217be3088c05680693c75440f7bce1f1b15fae3c5187ae1214161561270f57506004612771565b6040517f08c379a000000000000000000000000000000000000000000000000000000000815260206004820152601a60248201527f556e6b6e6f776e20636f6e646974696f6e206f70657261746f7200000000000060448201526064016102a7565b9094909350915050565b6000806127888786612dc5565b905060006127968887612df1565b905060006127a689868486612e3d565b905060006127b689888686612e57565b90506127e28a7f2a2f9797d308537ff91ca605795dfe371c297d821901e4d3618d6b4064a02d76611048565b6040517f1ab06ee500000000000000000000000000000000000000000000000000000000815260048101839052602481018b905273ffffffffffffffffffffffffffffffffffffffff9190911690631ab06ee590604401600060405180830381600087803b15801561285357600080fd5b505af1158015612867573d6000803e3d6000fd5b505050506128988a7fb25ea67b55901db62e4b14311a8c1ab178fec3948b4b493a711970a50aa2a2e160001c611048565b6040517f1ab06ee5000000000000000000000000000000000000000000000000000000008152600481018390526024810184905273ffffffffffffffffffffffffffffffffffffffff9190911690631ab06ee590604401600060405180830381600087803b15801561290957600080fd5b505af115801561291d573d6000803e3d6000fd5b50929c9b505050505050505050505050565b6040517fdd98e3c90000000000000000000000000000000000000000000000000000000081526004810182905260609060009073ffffffffffffffffffffffffffffffffffffffff85169063dd98e3c990602401600060405180830381865afa1580156129a0573d6000803e3d6000fd5b505050506040513d6000823e601f3d9081017fffffffffffffffffffffffffffffffffffffffffffffffffffffffffffffffe01682016040526129e69190810190613ebe565b90508051600003612a0757505060408051602081019091526000815261075d565b80806020019051810190610a5c9190613e38565b8051602091820120825192909101919091201490565b606060008373ffffffffffffffffffffffffffffffffffffffff16634323c4ef846040518263ffffffff1660e01b8152600401612a6e9190613ef3565b600060405180830381865afa158015612a8b573d6000803e3d6000fd5b505050506040513d6000823e601f3d9081017fffffffffffffffffffffffffffffffffffffffffffffffffffffffffffffffe0168201604052612ad19190810190613f37565b90506000815167ffffffffffffffff811115612aef57612aef6139c5565b604051908082528060200260200182016040528015612b18578160200160208202803683370190505b50905060005b8251811015612bb6576000838281518110612b3b57612b3b613d59565b60200260200101515111612b50576000612b7d565b828181518110612b6257612b62613d59565b6020026020010151806020019051810190612b7d9190613e81565b828281518110612b8f57612b8f613d59565b63ffffffff9092166020928302919091019091015280612bae81613d88565b915050612b1e565b50949350505050565b600080612bcf83602001516121fa565b91509150915091565b815160408084015190517f81d0c0f1000000000000000000000000000000000000000000000000000000008152600092839273__$fe8c06f2024370067115fbcd33d61de1b7$__926381d0c0f192612c38928b928b929190600401613fe8565b602060405180830381865af4158015612c55573d6000803e3d6000fd5b505050506040513d601f19601f82011682018060405250810190612c799190613c49565b9050612c8a81856060015185612f06565b9695505050505050565b6000612caf8585856000015186604001518760600151612fd1565b90506004826004811115612cc557612cc5613dd9565b03612cd05715610a5c565b6003826004811115612ce457612ce4613dd9565b14610a5c576040517f08c379a000000000000000000000000000000000000000000000000000000000815260206004820152601b60248201527f556e6b6e6f776e20626f6f6c206c6f676963206f70657261746f72000000000060448201526064016102a7565b6040517f72656769737472792e71756573742e6f626a656374697665000000000000000060208201527fffffffff0000000000000000000000000000000000000000000000000000000060e083901b166038820152600090603c01610fbe565b805160209182018190209183018190209251101591141690565b606061215d837f024accd0d273ef6123273b21662f5cc055a7d58adf98cc1b060edd029af93f7f611048565b600061075a82612e21857f62adc4221185187a288916c2630b5e1f37e9437c5b68d55bc59b9debc23f19d06118ee565b73ffffffffffffffffffffffffffffffffffffffff16906132f6565b600080612e4b8585856133d5565b9050612c8a868261342a565b600084848484604051602001612e6f93929190614034565b60405160208183030381529060405280519060200120604051602001612ec79291907f71756573742e6f626a6563746976652e736e617073686f74000000000000000081526018810192909252603882015260580190565b604080517fffffffffffffffffffffffffffffffffffffffffffffffffffffffffffffffe0818403018152919052805160209091012095945050505050565b600080826004811115612f1b57612f1b613dd9565b03612f2a575081831015610a82565b6001826004811115612f3e57612f3e613dd9565b03612f4d575081831115610a82565b6002826004811115612f6157612f61613dd9565b03612f6f5750828214610a82565b6040517f08c379a000000000000000000000000000000000000000000000000000000000815260206004820152601660248201527f556e6b6e6f776e206c6f676963206f70657261746f720000000000000000000060448201526064016102a7565b600061301b6040518060400160405280600d81526020017f434f4d504c4554455f434f4d500000000000000000000000000000000000000081525085612a1b90919063ffffffff16565b156130cc5761304a867f9522897410526014691d8a863fac7bd2e048ab08176b6e3c6fa8a1f5195164bb611048565b73ffffffffffffffffffffffffffffffffffffffff1663cccf7a8e836040518263ffffffff1660e01b815260040161308491815260200190565b602060405180830381865afa1580156130a1573d6000803e3d6000fd5b505050506040513d601f19601f820116820180604052508101906130c59190613c27565b90506109d9565b60408051808201909152600581527f51554553540000000000000000000000000000000000000000000000000000006020918201528451908501207f6dd88e0a32c18c14d5a81f049d6fd353acc17f8290c55d8a716d975def4edf1e03613138576130c5868487613476565b60408051808201909152600481527f524f4f4d000000000000000000000000000000000000000000000000000000006020918201528451908501207fd095a6ae2bc7e94153e86beac7414b2145c7585cac0a0d923e1a4df8247e23a2036131b8578263ffffffff166131aa878761349f565b63ffffffff161490506109d9565b60408051808201909152600581527f50484153450000000000000000000000000000000000000000000000000000006020918201528451908501207fc7321657fadb62104cd2b0331a69790ec83e40b1c9f218c07d669437bea8f9ad03613229578263ffffffff166131aa42613546565b60408051808201909152600881527f434f4f4c444f574e0000000000000000000000000000000000000000000000006020918201528451908501207f74d16beb57bf3f9ccaccecb6978a7e61e312e12eed3a6e57d8fb05427d6bab0f03613294576130c58686613551565b6040517f08c379a000000000000000000000000000000000000000000000000000000000815260206004820152601b60248201527f556e6b6e6f776e20626f6f6c20636f6e646974696f6e2074797065000000000060448201526064016102a7565b6040517fdd98e3c900000000000000000000000000000000000000000000000000000000815260048101829052600090819073ffffffffffffffffffffffffffffffffffffffff85169063dd98e3c990602401600060405180830381865afa158015613366573d6000803e3d6000fd5b505050506040513d6000823e601f3d9081017fffffffffffffffffffffffffffffffffffffffffffffffffffffffffffffffe01682016040526133ac9190810190613ebe565b905080516000036133c157600091505061075d565b80806020019051810190610a5c9190613e81565b60008383836040516020016133ec939291906140a4565b604080517fffffffffffffffffffffffffffffffffffffffffffffffffffffffffffffffe08184030181529190528051602090910120949350505050565b600061075a8261345a857fb25ea67b55901db62e4b14311a8c1ab178fec3948b4b493a711970a50aa2a2e1611048565b73ffffffffffffffffffffffffffffffffffffffff1690613578565b600080613484858486610a89565b905080600003613495576000610a7e565b610a7e85826114a9565b60006134cb837f3be9611062b8582cf4b9a4eafe577dbde7dcd7779a1efb46d73e212026c4b0cc611048565b73ffffffffffffffffffffffffffffffffffffffff16639507d39a836040518263ffffffff1660e01b815260040161350591815260200190565b602060405180830381865afa158015613522573d6000803e3d6000fd5b505050506040513d601f19601f8201168201806040525081019061075a9190613e81565b600061075d82613657565b60008061355e848461368a565b9050600061356c85856136bf565b90911315949350505050565b6040517fdd98e3c900000000000000000000000000000000000000000000000000000000815260048101829052600090819073ffffffffffffffffffffffffffffffffffffffff85169063dd98e3c990602401600060405180830381865afa1580156135e8573d6000803e3d6000fd5b505050506040513d6000823e601f3d9081017fffffffffffffffffffffffffffffffffffffffffffffffffffffffffffffffe016820160405261362e9190810190613ebe565b9050805160000361364357600091505061075d565b80806020019051810190610a5c9190613c49565b6000806024613668610e108561414b565b613672919061415f565b905061367f600c8261414b565b610a82906001613c91565b600061075a6136b9847f5f9759544a286ad42df1aa1cab6dca162b48885d3060ac74aecbf8ff4483ad1b611048565b83613777565b600080613709613704856040518060400160405280601681526020017f4b414d495f5354414e444152445f434f4f4c444f574e000000000000000000008152506137af565b6137c7565b9050600061374d85856040518060400160405280601381526020017f53544e445f434f4f4c444f574e5f5348494654000000000000000000000000008152506137fc565b9050600061375b8284614173565b90506000811261376b5780612c8a565b60009695505050505050565b600061379c61370473ffffffffffffffffffffffffffffffffffffffff851684613578565b6137a5426137c7565b61075a919061419b565b6000806137bb83613963565b9050610a5c8482613976565b60007f800000000000000000000000000000000000000000000000000000000000000082106137f8576137f86139a2565b5090565b60008061380984846139b0565b90506000613837867f50d80ec5b1169fa90f6a93a06362786b45e53ec8c05572cba38875a52f86a3bc611048565b6040517fcccf7a8e0000000000000000000000000000000000000000000000000000000081526004810184905290915073ffffffffffffffffffffffffffffffffffffffff82169063cccf7a8e90602401602060405180830381865afa1580156138a5573d6000803e3d6000fd5b505050506040513d601f19601f820116820180604052508101906138c99190613c27565b6138d4576000612c8a565b6040517f9507d39a0000000000000000000000000000000000000000000000000000000081526004810183905273ffffffffffffffffffffffffffffffffffffffff821690639507d39a90602401602060405180830381865afa15801561393f573d6000803e3d6000fd5b505050506040513d601f19601f82011682018060405250810190612c8a9190613c49565b600081604051602001610fbe91906141c2565b6000611501837fb25ea67b55901db62e4b14311a8c1ab178fec3948b4b493a711970a50aa2a2e1611048565b6335278d126000526004601cfd5b6000828260405160200161142a929190614207565b7f4e487b7100000000000000000000000000000000000000000000000000000000600052604160045260246000fd5b604051601f82017fffffffffffffffffffffffffffffffffffffffffffffffffffffffffffffffe016810167ffffffffffffffff81118282101715613a3b57613a3b6139c5565b604052919050565b600067ffffffffffffffff821115613a5d57613a5d6139c5565b50601f017fffffffffffffffffffffffffffffffffffffffffffffffffffffffffffffffe01660200190565b600060208284031215613a9b57600080fd5b813567ffffffffffffffff811115613ab257600080fd5b8201601f81018413613ac357600080fd5b8035613ad6613ad182613a43565b6139f4565b818152856020838501011115613aeb57600080fd5b81602084016020830137600091810160200191909152949350505050565b60005b83811015613b24578181015183820152602001613b0c565b50506000910152565b60008151808452613b45816020860160208601613b09565b601f017fffffffffffffffffffffffffffffffffffffffffffffffffffffffffffffffe0169290920160200192915050565b60208152600061075a6020830184613b2d565b63ffffffff811681146107a057600080fd5b60008060408385031215613baf57600080fd5b823591506020830135613bc181613b8a565b809150509250929050565b600060208284031215613bde57600080fd5b813573ffffffffffffffffffffffffffffffffffffffff81168114610a8257600080fd5b60008060408385031215613c1557600080fd5b825191506020830151613bc181613b8a565b600060208284031215613c3957600080fd5b81518015158114610a8257600080fd5b600060208284031215613c5b57600080fd5b5051919050565b7f4e487b7100000000000000000000000000000000000000000000000000000000600052601160045260246000fd5b8082018082111561075d5761075d613c62565b600067ffffffffffffffff821115613cbe57613cbe6139c5565b5060051b60200190565b60006020808385031215613cdb57600080fd5b825167ffffffffffffffff811115613cf257600080fd5b8301601f81018513613d0357600080fd5b8051613d11613ad182613ca4565b81815260059190911b82018301908381019087831115613d3057600080fd5b928401925b82841015613d4e57835182529284019290840190613d35565b979650505050505050565b7f4e487b7100000000000000000000000000000000000000000000000000000000600052603260045260246000fd5b60007fffffffffffffffffffffffffffffffffffffffffffffffffffffffffffffffff8203613db957613db9613c62565b5060010190565b828152604060208201526000610a5c6040830184613b2d565b7f4e487b7100000000000000000000000000000000000000000000000000000000600052602160045260246000fd5b6000613e16613ad184613a43565b9050828152838383011115613e2a57600080fd5b610a82836020830184613b09565b600060208284031215613e4a57600080fd5b815167ffffffffffffffff811115613e6157600080fd5b8201601f81018413613e7257600080fd5b610a5c84825160208401613e08565b600060208284031215613e9357600080fd5b8151610a8281613b8a565b600082601f830112613eaf57600080fd5b61075a83835160208501613e08565b600060208284031215613ed057600080fd5b815167ffffffffffffffff811115613ee757600080fd5b610a5c84828501613e9e565b6020808252825182820181905260009190848201906040850190845b81811015613f2b57835183529284019291840191600101613f0f565b50909695505050505050565b60006020808385031215613f4a57600080fd5b825167ffffffffffffffff80821115613f6257600080fd5b818501915085601f830112613f7657600080fd5b8151613f84613ad182613ca4565b81815260059190911b83018401908481019088831115613fa357600080fd5b8585015b83811015613fdb57805185811115613fbf5760008081fd5b613fcd8b89838a0101613e9e565b845250918601918601613fa7565b5098975050505050505050565b73ffffffffffffffffffffffffffffffffffffffff8516815283602082015260806040820152600061401d6080830185613b2d565b905063ffffffff8316606083015295945050505050565b60808152600f60808201527f51756573742e4f626a656374697665000000000000000000000000000000000060a082015260c06020820152600061407b60c0830186613b2d565b828103604084015261408d8186613b2d565b91505063ffffffff83166060830152949350505050565b7f69732e646174610000000000000000000000000000000000000000000000000081528360078201527fffffffff000000000000000000000000000000000000000000000000000000008360e01b1660278201526000825161410d81602b850160208701613b09565b91909101602b01949350505050565b7f4e487b7100000000000000000000000000000000000000000000000000000000600052601260045260246000fd5b60008261415a5761415a61411c565b500490565b60008261416e5761416e61411c565b500690565b808201828112600083128015821682158216171561419357614193613c62565b505092915050565b81810360008312801583831316838312821617156141bb576141bb613c62565b5092915050565b7f69732e636f6e66696700000000000000000000000000000000000000000000008152600082516141fa816009850160208701613b09565b9190910160090192915050565b7f626f6e7573000000000000000000000000000000000000000000000000000000815282600582015260008251614245816025850160208701613b09565b91909101602501939250505056fea26469706673582212207042b8deafcb8391db291deae512e42ca1a07d1197893138b3de1c489f2015bf64736f6c63430008110033","linkReferences":{"src/libraries/utils/LibGetter.sol":{"LibGetter":[{"start":11789,"length":20}]}}},"methodIdentifiers":{"cancelOwnershipHandover()":"54d1f13d","completeOwnershipHandover(address)":"f04e283e","deprecate()":"0fcc0c28","execute(bytes)":"09c5eabe","executeTyped(uint256,uint32)":"e60f3a76","owner()":"8da5cb5b","ownershipHandoverExpiresAt(address)":"fee81cf4","renounceOwnership()":"715018a6","requestOwnershipHandover()":"25692962","transferOwnership(address)":"f2fde38b"},"id":287}