{"abi":[{"type":"constructor","inputs":[{"name":"_world","type":"address","internalType":"contract IWorld"},{"name":"_components","type":"address","internalType":"address"}],"stateMutability":"nonpayable"},{"type":"function","name":"cancelOwnershipHandover","inputs":[],"outputs":[],"stateMutability":"payable"},{"type":"function","name":"completeOwnershipHandover","inputs":[{"name":"pendingOwner","type":"address","internalType":"address"}],"outputs":[],"stateMutability":"payable"},{"type":"function","name":"deprecate","inputs":[],"outputs":[],"stateMutability":"nonpayable"},{"type":"function","name":"execute","inputs":[{"name":"arguments","type":"bytes","internalType":"bytes"}],"outputs":[{"name":"","type":"bytes","internalType":"bytes"}],"stateMutability":"nonpayable"},{"type":"function","name":"executeTyped","inputs":[{"name":"id","type":"uint256","internalType":"uint256"}],"outputs":[{"name":"","type":"bytes","internalType":"bytes"}],"stateMutability":"nonpayable"},{"type":"function","name":"owner","inputs":[],"outputs":[{"name":"result","type":"address","internalType":"address"}],"stateMutability":"view"},{"type":"function","name":"ownershipHandoverExpiresAt","inputs":[{"name":"pendingOwner","type":"address","internalType":"address"}],"outputs":[{"name":"result","type":"uint256","internalType":"uint256"}],"stateMutability":"view"},{"type":"function","name":"renounceOwnership","inputs":[],"outputs":[],"stateMutability":"payable"},{"type":"function","name":"requestOwnershipHandover","inputs":[],"outputs":[],"stateMutability":"payable"},{"type":"function","name":"transferOwnership","inputs":[{"name":"newOwner","type":"address","internalType":"address"}],"outputs":[],"stateMutability":"payable"},{"type":"event","name":"OwnershipHandoverCanceled","inputs":[{"name":"pendingOwner","type":"address","indexed":true,"internalType":"address"}],"anonymous":false},{"type":"event","name":"OwnershipHandoverRequested","inputs":[{"name":"pendingOwner","type":"address","indexed":true,"internalType":"address"}],"anonymous":false},{"type":"event","name":"OwnershipTransferred","inputs":[{"name":"oldOwner","type":"address","indexed":true,"internalType":"address"},{"name":"newOwner","type":"address","indexed":true,"internalType":"address"}],"anonymous":false},{"type":"event","name":"SystemDeprecated","inputs":[],"anonymous":false},{"type":"error","name":"AlreadyInitialized","inputs":[]},{"type":"error","name":"NewOwnerIsZeroAddress","inputs":[]},{"type":"error","name":"NoHandoverRequest","inputs":[]},{"type":"error","name":"Unauthorized","inputs":[]}],"bytecode":{"object":"0x60c06040523480156200001157600080fd5b50604051620017953803806200179583398101604081905262000034916200012f565b81816200004133620000dc565b6001600160a01b03811615620000585780620000bd565b816001600160a01b031663ba62fbe46040518163ffffffff1660e01b8152600401602060405180830381865afa15801562000097573d6000803e3d6000fd5b505050506040513d601f19601f82011682018060405250810190620000bd91906200016e565b6001600160a01b039081166080529190911660a0525062000195915050565b6001600160a01b0316638b78c6d8198190558060007f8be0079c531659141344cd1fd0a4f28419497f9722a3daafe3b4186f6b6457e08180a35b50565b6001600160a01b03811681146200011657600080fd5b600080604083850312156200014357600080fd5b8251620001508162000119565b6020840151909250620001638162000119565b809150509250929050565b6000602082840312156200018157600080fd5b81516200018e8162000119565b9392505050565b60805160a0516115ba620001db600039600050506000818161021701528181610243015281816102d801528181610369015281816103fb015261042501526115ba6000f3fe6080604052600436106100b15760003560e01c8063715018a611610069578063f04e283e1161004e578063f04e283e1461018f578063f2fde38b146101a2578063fee81cf4146101b557600080fd5b8063715018a6146101335780638da5cb5b1461013b57600080fd5b8063256929621161009a57806325692962146101035780633e991df31461010b57806354d1f13d1461012b57600080fd5b806309c5eabe146100b65780630fcc0c28146100ec575b600080fd5b3480156100c257600080fd5b506100d66100d1366004611273565b6101f6565b6040516100e39190611317565b60405180910390f35b3480156100f857600080fd5b50610101610461565b005b610101610494565b34801561011757600080fd5b506100d6610126366004611368565b6104e4565b610101610516565b610101610552565b34801561014757600080fd5b507fffffffffffffffffffffffffffffffffffffffffffffffffffffffff748739275460405173ffffffffffffffffffffffffffffffffffffffff90911681526020016100e3565b61010161019d366004611381565b610566565b6101016101b0366004611381565b6105a6565b3480156101c157600080fd5b506101e86101d0366004611381565b63389a75e1600c908152600091909152602090205490565b6040519081526020016100e3565b606060008280602001905181019061020e91906113b7565b9050600061023c7f0000000000000000000000000000000000000000000000000000000000000000336105cd565b90506102687f00000000000000000000000000000000000000000000000000000000000000008361078d565b6102d3576040517f08c379a000000000000000000000000000000000000000000000000000000000815260206004820152601260248201527f51756573743a206e6f742061207175657374000000000000000000000000000060448201526064015b60405180910390fd5b6102fd7f0000000000000000000000000000000000000000000000000000000000000000836107d6565b15610364576040517f08c379a000000000000000000000000000000000000000000000000000000000815260206004820152601560248201527f5175657374733a20616c7220636f6d706c65746564000000000000000000000060448201526064016102ca565b61038e7f00000000000000000000000000000000000000000000000000000000000000008361087d565b81146103f6576040517f08c379a000000000000000000000000000000000000000000000000000000000815260206004820152601360248201527f51756573743a206e6f742075722071756573740000000000000000000000000060448201526064016102ca565b6104207f000000000000000000000000000000000000000000000000000000000000000083610924565b61044a7f000000000000000000000000000000000000000000000000000000000000000082610b0e565b505060408051602081019091526000815292915050565b610469610b19565b6040517f56f33501ffd77f9fe44d81e7db7e66a66bdf52ab3e11267cdc6462763604c4c790600090a1565b60006202a30067ffffffffffffffff164201905063389a75e1600c5233600052806020600c2055337fdbf36a107da19e49527a7176a1babf963b4b0ff8cde35ee35d6cd8f1f9ac7e1d600080a250565b6060610510826040516020016104fc91815260200190565b6040516020818303038152906040526101f6565b92915050565b63389a75e1600c523360005260006020600c2055337ffa7b8eab7da67f412cc9575ed43464468f9bfbae89d1675917346ca6d8fe3c92600080a2565b61055a610b19565b6105646000610b4f565b565b61056e610b19565b63389a75e1600c52806000526020600c20805442111561059657636f5e88186000526004601cfd5b600090556105a381610b4f565b50565b6105ae610b19565b8060601b6105c457637448fbae6000526004601cfd5b6105a381610b4f565b6000806105fa847ff9b94d2a933222e58f90359e8ec33041c5f08d7bc4304958d1c52c21991da575610bb5565b6040517fcccf7a8e00000000000000000000000000000000000000000000000000000000815273ffffffffffffffffffffffffffffffffffffffff8581166004830181905292935083169063cccf7a8e90602401602060405180830381865afa15801561066b573d6000803e3d6000fd5b505050506040513d601f19601f8201168201806040525081019061068f91906113d0565b6106f5576040517f08c379a000000000000000000000000000000000000000000000000000000000815260206004820152601b60248201527f4163636f756e743a204f70657261746f72206e6f7420666f756e64000000000060448201526064016102ca565b6040517f9507d39a0000000000000000000000000000000000000000000000000000000081526004810182905273ffffffffffffffffffffffffffffffffffffffff831690639507d39a90602401602060405180830381865afa158015610760573d6000803e3d6000fd5b505050506040513d601f19601f8201168201806040525081019061078491906113b7565b95945050505050565b60006107cf83836040518060400160405280600581526020017f5155455354000000000000000000000000000000000000000000000000000000815250610d01565b9392505050565b6000610802837f9522897410526014691d8a863fac7bd2e048ab08176b6e3c6fa8a1f5195164bb610bb5565b73ffffffffffffffffffffffffffffffffffffffff1663cccf7a8e836040518263ffffffff1660e01b815260040161083c91815260200190565b602060405180830381865afa158015610859573d6000803e3d6000fd5b505050506040513d601f19601f820116820180604052508101906107cf91906113d0565b60006108a9837f2a2f9797d308537ff91ca605795dfe371c297d821901e4d3618d6b4064a02d76610bb5565b73ffffffffffffffffffffffffffffffffffffffff16639507d39a836040518263ffffffff1660e01b81526004016108e391815260200190565b602060405180830381865afa158015610900573d6000803e3d6000fd5b505050506040513d601f19601f820116820180604052508101906107cf91906113b7565b61092e8282610d4f565b610958827f2a2f9797d308537ff91ca605795dfe371c297d821901e4d3618d6b4064a02d76610bb5565b73ffffffffffffffffffffffffffffffffffffffff16634cc82215826040518263ffffffff1660e01b815260040161099291815260200190565b600060405180830381600087803b1580156109ac57600080fd5b505af11580156109c0573d6000803e3d6000fd5b505050506109f1827f3879d04bcdb27da7a4f7f7e8a6eb6b202b0f5e22dc66fb53ce3b2fc3d9ed63d460001c610bb5565b73ffffffffffffffffffffffffffffffffffffffff16634cc82215826040518263ffffffff1660e01b8152600401610a2b91815260200190565b600060405180830381600087803b158015610a4557600080fd5b505af1158015610a59573d6000803e3d6000fd5b50505050610a8a827f9ee42634d52dbd5a24ad226010389fb7306af59bdaec5e20547162dd896dacad60001c610bb5565b73ffffffffffffffffffffffffffffffffffffffff16634cc82215826040518263ffffffff1660e01b8152600401610ac491815260200190565b600060405180830381600087803b158015610ade57600080fd5b505af1158015610af2573d6000803e3d6000fd5b50505050610b008282610de9565b610b0a8282610e13565b5050565b610b0a828242610f51565b7fffffffffffffffffffffffffffffffffffffffffffffffffffffffff74873927543314610564576382b429006000526004601cfd5b7fffffffffffffffffffffffffffffffffffffffffffffffffffffffff74873927805473ffffffffffffffffffffffffffffffffffffffff9092169182907f8be0079c531659141344cd1fd0a4f28419497f9722a3daafe3b4186f6b6457e0600080a355565b6040517ffbdfa1ea00000000000000000000000000000000000000000000000000000000815260048101829052600090819073ffffffffffffffffffffffffffffffffffffffff85169063fbdfa1ea90602401600060405180830381865afa158015610c25573d6000803e3d6000fd5b505050506040513d6000823e601f3d9081017fffffffffffffffffffffffffffffffffffffffffffffffffffffffffffffffe0168201604052610c6b91908101906113f2565b90508051600003610cd8576040517f08c379a000000000000000000000000000000000000000000000000000000000815260206004820152601160248201527f6964206e6f74207265676973746572656400000000000000000000000000000060448201526064016102ca565b610cf981600081518110610cee57610cee611498565b602002602001015190565b949350505050565b6000610cf98383610d32877f5d88ced8d8e079072bf73f49fc87661b519c50d79482941abb852ba2b10909cd610bb5565b73ffffffffffffffffffffffffffffffffffffffff169190610fd7565b610d79827f5d88ced8d8e079072bf73f49fc87661b519c50d79482941abb852ba2b10909cd610bb5565b73ffffffffffffffffffffffffffffffffffffffff16634cc82215826040518263ffffffff1660e01b8152600401610db391815260200190565b600060405180830381600087803b158015610dcd57600080fd5b505af1158015610de1573d6000803e3d6000fd5b505050505050565b610d79827f55fc1d6f060c9a0b82cfb50cf47ed24d77ee495eb31e561183a9a9e9c41fd06b610bb5565b6000610e1f8383610ffa565b9050610e4b837f2a2f9797d308537ff91ca605795dfe371c297d821901e4d3618d6b4064a02d76610bb5565b73ffffffffffffffffffffffffffffffffffffffff16638482643e826040518263ffffffff1660e01b8152600401610e8391906114c7565b600060405180830381600087803b158015610e9d57600080fd5b505af1158015610eb1573d6000803e3d6000fd5b50505050610ee2837fb25ea67b55901db62e4b14311a8c1ab178fec3948b4b493a711970a50aa2a2e160001c610bb5565b73ffffffffffffffffffffffffffffffffffffffff16638482643e826040518263ffffffff1660e01b8152600401610f1a91906114c7565b600060405180830381600087803b158015610f3457600080fd5b505af1158015610f48573d6000803e3d6000fd5b50505050505050565b610f7b837f342adee7430e96bca6f5d4fe57ba5155dc7271000494e77110c292d51ae887fa610bb5565b6040517f1ab06ee5000000000000000000000000000000000000000000000000000000008152600481018490526024810183905273ffffffffffffffffffffffffffffffffffffffff9190911690631ab06ee590604401610f1a565b6000610cf982610fe786866110c3565b8151602092830120815191909201201490565b6060611026837f2a2f9797d308537ff91ca605795dfe371c297d821901e4d3618d6b4064a02d76610bb5565b73ffffffffffffffffffffffffffffffffffffffff1663fbdfa1ea836040518263ffffffff1660e01b815260040161106091815260200190565b600060405180830381865afa15801561107d573d6000803e3d6000fd5b505050506040513d6000823e601f3d9081017fffffffffffffffffffffffffffffffffffffffffffffffffffffffffffffffe01682016040526107cf91908101906113f2565b6040517fdd98e3c90000000000000000000000000000000000000000000000000000000081526004810182905260609060009073ffffffffffffffffffffffffffffffffffffffff85169063dd98e3c990602401600060405180830381865afa158015611134573d6000803e3d6000fd5b505050506040513d6000823e601f3d9081017fffffffffffffffffffffffffffffffffffffffffffffffffffffffffffffffe016820160405261117a919081019061153b565b9050805160000361119b575050604080516020810190915260008152610510565b80806020019051810190610cf9919061153b565b7f4e487b7100000000000000000000000000000000000000000000000000000000600052604160045260246000fd5b604051601f82017fffffffffffffffffffffffffffffffffffffffffffffffffffffffffffffffe016810167ffffffffffffffff81118282101715611225576112256111af565b604052919050565b600067ffffffffffffffff821115611247576112476111af565b50601f017fffffffffffffffffffffffffffffffffffffffffffffffffffffffffffffffe01660200190565b60006020828403121561128557600080fd5b813567ffffffffffffffff81111561129c57600080fd5b8201601f810184136112ad57600080fd5b80356112c06112bb8261122d565b6111de565b8181528560208385010111156112d557600080fd5b81602084016020830137600091810160200191909152949350505050565b60005b8381101561130e5781810151838201526020016112f6565b50506000910152565b60208152600082518060208401526113368160408501602087016112f3565b601f017fffffffffffffffffffffffffffffffffffffffffffffffffffffffffffffffe0169190910160400192915050565b60006020828403121561137a57600080fd5b5035919050565b60006020828403121561139357600080fd5b813573ffffffffffffffffffffffffffffffffffffffff811681146107cf57600080fd5b6000602082840312156113c957600080fd5b5051919050565b6000602082840312156113e257600080fd5b815180151581146107cf57600080fd5b6000602080838503121561140557600080fd5b825167ffffffffffffffff8082111561141d57600080fd5b818501915085601f83011261143157600080fd5b815181811115611443576114436111af565b8060051b91506114548483016111de565b818152918301840191848101908884111561146e57600080fd5b938501935b8385101561148c57845182529385019390850190611473565b98975050505050505050565b7f4e487b7100000000000000000000000000000000000000000000000000000000600052603260045260246000fd5b6020808252825182820181905260009190848201906040850190845b818110156114ff578351835292840192918401916001016114e3565b50909695505050505050565b60006115196112bb8461122d565b905082815283838301111561152d57600080fd5b6107cf8360208301846112f3565b60006020828403121561154d57600080fd5b815167ffffffffffffffff81111561156457600080fd5b8201601f8101841361157557600080fd5b610cf98482516020840161150b56fea26469706673582212204999db42d8529548ca67418737356285d5d6267a6b1987c4897147b908bb173064736f6c63430008110033","linkReferences":{}},"methodIdentifiers":{"cancelOwnershipHandover()":"54d1f13d","completeOwnershipHandover(address)":"f04e283e","deprecate()":"0fcc0c28","execute(bytes)":"09c5eabe","executeTyped(uint256)":"3e991df3","owner()":"8da5cb5b","ownershipHandoverExpiresAt(address)":"fee81cf4","renounceOwnership()":"715018a6","requestOwnershipHandover()":"25692962","transferOwnership(address)":"f2fde38b"},"id":289}