{"abi":[{"type":"constructor","inputs":[{"name":"_world","type":"address","internalType":"contract IWorld"},{"name":"_components","type":"address","internalType":"address"}],"stateMutability":"nonpayable"},{"type":"function","name":"cancelOwnershipHandover","inputs":[],"outputs":[],"stateMutability":"payable"},{"type":"function","name":"completeOwnershipHandover","inputs":[{"name":"pendingOwner","type":"address","internalType":"address"}],"outputs":[],"stateMutability":"payable"},{"type":"function","name":"deprecate","inputs":[],"outputs":[],"stateMutability":"nonpayable"},{"type":"function","name":"execute","inputs":[{"name":"args","type":"bytes","internalType":"bytes"}],"outputs":[{"name":"","type":"bytes","internalType":"bytes"}],"stateMutability":"nonpayable"},{"type":"function","name":"execute","inputs":[{"name":"msgSender","type":"address","internalType":"address"},{"name":"registerType","type":"uint8","internalType":"enum RegisterType"},{"name":"addr","type":"address","internalType":"address"},{"name":"id","type":"uint256","internalType":"uint256"}],"outputs":[{"name":"","type":"bytes","internalType":"bytes"}],"stateMutability":"nonpayable"},{"type":"function","name":"owner","inputs":[],"outputs":[{"name":"result","type":"address","internalType":"address"}],"stateMutability":"view"},{"type":"function","name":"ownershipHandoverExpiresAt","inputs":[{"name":"pendingOwner","type":"address","internalType":"address"}],"outputs":[{"name":"result","type":"uint256","internalType":"uint256"}],"stateMutability":"view"},{"type":"function","name":"renounceOwnership","inputs":[],"outputs":[],"stateMutability":"payable"},{"type":"function","name":"requestOwnershipHandover","inputs":[],"outputs":[],"stateMutability":"payable"},{"type":"function","name":"requirement","inputs":[{"name":"args","type":"bytes","internalType":"bytes"}],"outputs":[{"name":"","type":"bytes","internalType":"bytes"}],"stateMutability":"view"},{"type":"function","name":"transferOwnership","inputs":[{"name":"newOwner","type":"address","internalType":"address"}],"outputs":[],"stateMutability":"payable"},{"type":"event","name":"OwnershipHandoverCanceled","inputs":[{"name":"pendingOwner","type":"address","indexed":true,"internalType":"address"}],"anonymous":false},{"type":"event","name":"OwnershipHandoverRequested","inputs":[{"name":"pendingOwner","type":"address","indexed":true,"internalType":"address"}],"anonymous":false},{"type":"event","name":"OwnershipTransferred","inputs":[{"name":"oldOwner","type":"address","indexed":true,"internalType":"address"},{"name":"newOwner","type":"address","indexed":true,"internalType":"address"}],"anonymous":false},{"type":"event","name":"SystemDeprecated","inputs":[],"anonymous":false},{"type":"error","name":"AlreadyInitialized","inputs":[]},{"type":"error","name":"NewOwnerIsZeroAddress","inputs":[]},{"type":"error","name":"NoHandoverRequest","inputs":[]},{"type":"error","name":"Unauthorized","inputs":[]}],"bytecode":{"object":"0x60c06040523480156200001157600080fd5b50604051620013113803806200131183398101604081905262000034916200012f565b81816200004133620000dc565b6001600160a01b03811615620000585780620000bd565b816001600160a01b031663ba62fbe46040518163ffffffff1660e01b8152600401602060405180830381865afa15801562000097573d6000803e3d6000fd5b505050506040513d601f19601f82011682018060405250810190620000bd91906200016e565b6001600160a01b039081166080529190911660a0525062000195915050565b6001600160a01b0316638b78c6d8198190558060007f8be0079c531659141344cd1fd0a4f28419497f9722a3daafe3b4186f6b6457e08180a35b50565b6001600160a01b03811681146200011657600080fd5b600080604083850312156200014357600080fd5b8251620001508162000119565b6020840151909250620001638162000119565b809150509250929050565b6000602082840312156200018157600080fd5b81516200018e8162000119565b9392505050565b60805160a05161114f620001c260003960006102480152600081816104c3015261050f015261114f6000f3fe6080604052600436106100bc5760003560e01c80638b246a5b11610074578063f2fde38b1161004e578063f2fde38b146101ae578063f6cd7a01146101c1578063fee81cf4146101e157600080fd5b80638b246a5b146101265780638da5cb5b14610147578063f04e283e1461019b57600080fd5b806325692962116100a5578063256929621461010e57806354d1f13d14610116578063715018a61461011e57600080fd5b806309c5eabe146100c15780630fcc0c28146100f7575b600080fd5b3480156100cd57600080fd5b506100e16100dc366004610d4c565b610222565b6040516100ee9190610dff565b60405180910390f35b34801561010357600080fd5b5061010c61097e565b005b61010c6109b1565b61010c610a01565b61010c610a3d565b34801561013257600080fd5b506100e1610141366004610d4c565b50606090565b34801561015357600080fd5b507fffffffffffffffffffffffffffffffffffffffffffffffffffffffff748739275460405173ffffffffffffffffffffffffffffffffffffffff90911681526020016100ee565b61010c6101a9366004610e8d565b610a51565b61010c6101bc366004610e8d565b610a91565b3480156101cd57600080fd5b506100e16101dc366004610ebe565b610ab8565b3480156101ed57600080fd5b506102146101fc366004610e8d565b63389a75e1600c908152600091909152602090205490565b6040519081526020016100ee565b60606000806000808580602001905181019061023e9190610f0f565b93509350935093507f000000000000000000000000000000000000000000000000000000000000000073ffffffffffffffffffffffffffffffffffffffff163373ffffffffffffffffffffffffffffffffffffffff1614610326576040517f08c379a000000000000000000000000000000000000000000000000000000000815260206004820152602360248201527f73797374656d2063616e206f6e6c792062652063616c6c65642076696120576f60448201527f726c64000000000000000000000000000000000000000000000000000000000060648201526084015b60405180910390fd5b600083600181111561033a5761033a610f62565b14806103575750600183600181111561035557610355610f62565b145b6103bd576040517f08c379a000000000000000000000000000000000000000000000000000000000815260206004820152600c60248201527f696e76616c696420747970650000000000000000000000000000000000000000604482015260640161031d565b80600003610427576040517f08c379a000000000000000000000000000000000000000000000000000000000815260206004820152600a60248201527f696e76616c696420696400000000000000000000000000000000000000000000604482015260640161031d565b73ffffffffffffffffffffffffffffffffffffffff82166104a4576040517f08c379a000000000000000000000000000000000000000000000000000000000815260206004820152600f60248201527f696e76616c696420616464726573730000000000000000000000000000000000604482015260640161031d565b6000808460018111156104b9576104b9610f62565b1461050d576105087f00000000000000000000000000000000000000000000000000000000000000007f017c816a964927a00e050edd780dcf113ca2756dfa9e9fda94a05c140d9317b0610af1565b61052f565b7f00000000000000000000000000000000000000000000000000000000000000005b9050600073ffffffffffffffffffffffffffffffffffffffff84166040517fcccf7a8e0000000000000000000000000000000000000000000000000000000081526004810182905290915073ffffffffffffffffffffffffffffffffffffffff83169063cccf7a8e90602401602060405180830381865afa1580156105b8573d6000803e3d6000fd5b505050506040513d601f19601f820116820180604052508101906105dc9190610f91565b15610643576040517f08c379a000000000000000000000000000000000000000000000000000000000815260206004820152601960248201527f656e7469747920616c7265616479207265676973746572656400000000000000604482015260640161031d565b6040517ffbdfa1ea0000000000000000000000000000000000000000000000000000000081526004810184905260009073ffffffffffffffffffffffffffffffffffffffff84169063fbdfa1ea90602401600060405180830381865afa1580156106b1573d6000803e3d6000fd5b505050506040513d6000823e601f3d9081017fffffffffffffffffffffffffffffffffffffffffffffffffffffffffffffffe01682016040526106f79190810190610fb3565b90508051600014806107ce5750805160011480156107ce57508673ffffffffffffffffffffffffffffffffffffffff166107488260008151811061073d5761073d611059565b602002602001015190565b73ffffffffffffffffffffffffffffffffffffffff16638da5cb5b6040518163ffffffff1660e01b8152600401602060405180830381865afa158015610792573d6000803e3d6000fd5b505050506040513d601f19601f820116820180604052508101906107b69190611088565b73ffffffffffffffffffffffffffffffffffffffff16145b61085a576040517f08c379a000000000000000000000000000000000000000000000000000000000815260206004820152602a60248201527f696420616c7265616479207265676973746572656420616e642063616c6c657260448201527f206e6f74206f776e657200000000000000000000000000000000000000000000606482015260840161031d565b80516001036108eb578273ffffffffffffffffffffffffffffffffffffffff16634cc822158260008151811061089257610892611059565b60200260200101516040518263ffffffff1660e01b81526004016108b891815260200190565b600060405180830381600087803b1580156108d257600080fd5b505af11580156108e6573d6000803e3d6000fd5b505050505b6040517f1ab06ee5000000000000000000000000000000000000000000000000000000008152600481018390526024810185905273ffffffffffffffffffffffffffffffffffffffff841690631ab06ee590604401600060405180830381600087803b15801561095a57600080fd5b505af115801561096e573d6000803e3d6000fd5b5050505050505050505050919050565b610986610c32565b6040517f56f33501ffd77f9fe44d81e7db7e66a66bdf52ab3e11267cdc6462763604c4c790600090a1565b60006202a30067ffffffffffffffff164201905063389a75e1600c5233600052806020600c2055337fdbf36a107da19e49527a7176a1babf963b4b0ff8cde35ee35d6cd8f1f9ac7e1d600080a250565b63389a75e1600c523360005260006020600c2055337ffa7b8eab7da67f412cc9575ed43464468f9bfbae89d1675917346ca6d8fe3c92600080a2565b610a45610c32565b610a4f6000610c68565b565b610a59610c32565b63389a75e1600c52806000526020600c208054421115610a8157636f5e88186000526004601cfd5b60009055610a8e81610c68565b50565b610a99610c32565b8060601b610aaf57637448fbae6000526004601cfd5b610a8e81610c68565b6060610ae885858585604051602001610ad494939291906110a5565b604051602081830303815290604052610222565b95945050505050565b6040517ffbdfa1ea00000000000000000000000000000000000000000000000000000000815260048101829052600090819073ffffffffffffffffffffffffffffffffffffffff85169063fbdfa1ea90602401600060405180830381865afa158015610b61573d6000803e3d6000fd5b505050506040513d6000823e601f3d9081017fffffffffffffffffffffffffffffffffffffffffffffffffffffffffffffffe0168201604052610ba79190810190610fb3565b90508051600003610c14576040517f08c379a000000000000000000000000000000000000000000000000000000000815260206004820152601160248201527f6964206e6f742072656769737465726564000000000000000000000000000000604482015260640161031d565b610c2a8160008151811061073d5761073d611059565b949350505050565b7fffffffffffffffffffffffffffffffffffffffffffffffffffffffff74873927543314610a4f576382b429006000526004601cfd5b7fffffffffffffffffffffffffffffffffffffffffffffffffffffffff74873927805473ffffffffffffffffffffffffffffffffffffffff9092169182907f8be0079c531659141344cd1fd0a4f28419497f9722a3daafe3b4186f6b6457e0600080a355565b7f4e487b7100000000000000000000000000000000000000000000000000000000600052604160045260246000fd5b604051601f82017fffffffffffffffffffffffffffffffffffffffffffffffffffffffffffffffe016810167ffffffffffffffff81118282101715610d4457610d44610cce565b604052919050565b60006020808385031215610d5f57600080fd5b823567ffffffffffffffff80821115610d7757600080fd5b818501915085601f830112610d8b57600080fd5b813581811115610d9d57610d9d610cce565b610dcd847fffffffffffffffffffffffffffffffffffffffffffffffffffffffffffffffe0601f84011601610cfd565b91508082528684828501011115610de357600080fd5b8084840185840137600090820190930192909252509392505050565b600060208083528351808285015260005b81811015610e2c57858101830151858201604001528201610e10565b5060006040828601015260407fffffffffffffffffffffffffffffffffffffffffffffffffffffffffffffffe0601f8301168501019250505092915050565b73ffffffffffffffffffffffffffffffffffffffff81168114610a8e57600080fd5b600060208284031215610e9f57600080fd5b8135610eaa81610e6b565b9392505050565b60028110610a8e57600080fd5b60008060008060808587031215610ed457600080fd5b8435610edf81610e6b565b93506020850135610eef81610eb1565b92506040850135610eff81610e6b565b9396929550929360600135925050565b60008060008060808587031215610f2557600080fd5b8451610f3081610e6b565b6020860151909450610f4181610eb1565b6040860151909350610f5281610e6b565b6060959095015193969295505050565b7f4e487b7100000000000000000000000000000000000000000000000000000000600052602160045260246000fd5b600060208284031215610fa357600080fd5b81518015158114610eaa57600080fd5b60006020808385031215610fc657600080fd5b825167ffffffffffffffff80821115610fde57600080fd5b818501915085601f830112610ff257600080fd5b81518181111561100457611004610cce565b8060051b9150611015848301610cfd565b818152918301840191848101908884111561102f57600080fd5b938501935b8385101561104d57845182529385019390850190611034565b98975050505050505050565b7f4e487b7100000000000000000000000000000000000000000000000000000000600052603260045260246000fd5b60006020828403121561109a57600080fd5b8151610eaa81610e6b565b73ffffffffffffffffffffffffffffffffffffffff85811682526080820190600286106110fb577f4e487b7100000000000000000000000000000000000000000000000000000000600052602160045260246000fd5b8560208401528085166040840152508260608301529594505050505056fea26469706673582212207d34ceb01321d8cfb3e992e13d635cfcb86f8f5b6ad6cc3128217ef56f5a2f1764736f6c63430008110033","linkReferences":{}},"methodIdentifiers":{"cancelOwnershipHandover()":"54d1f13d","completeOwnershipHandover(address)":"f04e283e","deprecate()":"0fcc0c28","execute(address,uint8,address,uint256)":"f6cd7a01","execute(bytes)":"09c5eabe","owner()":"8da5cb5b","ownershipHandoverExpiresAt(address)":"fee81cf4","renounceOwnership()":"715018a6","requestOwnershipHandover()":"25692962","requirement(bytes)":"8b246a5b","transferOwnership(address)":"f2fde38b"},"id":243}