{"abi":[{"type":"constructor","inputs":[{"name":"_world","type":"address","internalType":"contract IWorld"},{"name":"_components","type":"address","internalType":"address"}],"stateMutability":"nonpayable"},{"type":"function","name":"cancelOwnershipHandover","inputs":[],"outputs":[],"stateMutability":"payable"},{"type":"function","name":"completeOwnershipHandover","inputs":[{"name":"pendingOwner","type":"address","internalType":"address"}],"outputs":[],"stateMutability":"payable"},{"type":"function","name":"deprecate","inputs":[],"outputs":[],"stateMutability":"nonpayable"},{"type":"function","name":"execute","inputs":[{"name":"arguments","type":"bytes","internalType":"bytes"}],"outputs":[{"name":"","type":"bytes","internalType":"bytes"}],"stateMutability":"nonpayable"},{"type":"function","name":"executeTyped","inputs":[{"name":"npcIndex","type":"uint32","internalType":"uint32"},{"name":"relIndex","type":"uint32","internalType":"uint32"}],"outputs":[{"name":"","type":"bytes","internalType":"bytes"}],"stateMutability":"nonpayable"},{"type":"function","name":"owner","inputs":[],"outputs":[{"name":"result","type":"address","internalType":"address"}],"stateMutability":"view"},{"type":"function","name":"ownershipHandoverExpiresAt","inputs":[{"name":"pendingOwner","type":"address","internalType":"address"}],"outputs":[{"name":"result","type":"uint256","internalType":"uint256"}],"stateMutability":"view"},{"type":"function","name":"renounceOwnership","inputs":[],"outputs":[],"stateMutability":"payable"},{"type":"function","name":"requestOwnershipHandover","inputs":[],"outputs":[],"stateMutability":"payable"},{"type":"function","name":"transferOwnership","inputs":[{"name":"newOwner","type":"address","internalType":"address"}],"outputs":[],"stateMutability":"payable"},{"type":"event","name":"OwnershipHandoverCanceled","inputs":[{"name":"pendingOwner","type":"address","indexed":true,"internalType":"address"}],"anonymous":false},{"type":"event","name":"OwnershipHandoverRequested","inputs":[{"name":"pendingOwner","type":"address","indexed":true,"internalType":"address"}],"anonymous":false},{"type":"event","name":"OwnershipTransferred","inputs":[{"name":"oldOwner","type":"address","indexed":true,"internalType":"address"},{"name":"newOwner","type":"address","indexed":true,"internalType":"address"}],"anonymous":false},{"type":"event","name":"SystemDeprecated","inputs":[],"anonymous":false},{"type":"error","name":"AlreadyInitialized","inputs":[]},{"type":"error","name":"NewOwnerIsZeroAddress","inputs":[]},{"type":"error","name":"NoHandoverRequest","inputs":[]},{"type":"error","name":"Unauthorized","inputs":[]}],"bytecode":{"object":"0x60c06040523480156200001157600080fd5b5060405162001fd238038062001fd283398101604081905262000034916200012f565b81816200004133620000dc565b6001600160a01b03811615620000585780620000bd565b816001600160a01b031663ba62fbe46040518163ffffffff1660e01b8152600401602060405180830381865afa15801562000097573d6000803e3d6000fd5b505050506040513d601f19601f82011682018060405250810190620000bd91906200016e565b6001600160a01b039081166080529190911660a0525062000195915050565b6001600160a01b0316638b78c6d8198190558060007f8be0079c531659141344cd1fd0a4f28419497f9722a3daafe3b4186f6b6457e08180a35b50565b6001600160a01b03811681146200011657600080fd5b600080604083850312156200014357600080fd5b8251620001508162000119565b6020840151909250620001638162000119565b809150509250929050565b6000602082840312156200018157600080fd5b81516200018e8162000119565b9392505050565b60805160a051611de2620001f0600039600050506000818161021a01528181610248015281816102e3015281816103760152818161040d015281816104a001528181610532015281816105c501526105f30152611de26000f3fe6080604052600436106100b15760003560e01c8063715018a611610069578063f04e283e1161004e578063f04e283e1461018f578063f2fde38b146101a2578063fee81cf4146101b557600080fd5b8063715018a6146101335780638da5cb5b1461013b57600080fd5b8063256929621161009a5780632569296214610103578063276aaa751461010b57806354d1f13d1461012b57600080fd5b806309c5eabe146100b65780630fcc0c28146100ec575b600080fd5b3480156100c257600080fd5b506100d66100d136600461193f565b6101f6565b6040516100e39190611a2d565b60405180910390f35b3480156100f857600080fd5b50610101610640565b005b610101610673565b34801561011757600080fd5b506100d6610126366004611a52565b6106c3565b61010161070a565b610101610746565b34801561014757600080fd5b507fffffffffffffffffffffffffffffffffffffffffffffffffffffffff748739275460405173ffffffffffffffffffffffffffffffffffffffff90911681526020016100e3565b61010161019d366004611a8b565b61075a565b6101016101b0366004611a8b565b61079a565b3480156101c157600080fd5b506101e86101d0366004611a8b565b63389a75e1600c908152600091909152602090205490565b6040519081526020016100e3565b60606000808380602001905181019061020f9190611ac1565b91509150600061023f7f0000000000000000000000000000000000000000000000000000000000000000336107c1565b9050600061026d7f000000000000000000000000000000000000000000000000000000000000000085610981565b9050806000036102de576040517f08c379a000000000000000000000000000000000000000000000000000000000815260206004820152601660248201527f52533a206e706320646f6573206e6f742065786973740000000000000000000060448201526064015b60405180910390fd5b6103097f00000000000000000000000000000000000000000000000000000000000000008284610a4a565b61036f576040517f08c379a000000000000000000000000000000000000000000000000000000000815260206004820152601860248201527f52533a206d75737420626520696e2073616d6520726f6f6d000000000000000060448201526064016102d5565b600061039c7f00000000000000000000000000000000000000000000000000000000000000008686610bc6565b905080600003610408576040517f08c379a000000000000000000000000000000000000000000000000000000000815260206004820152601760248201527f52533a20666c616720646f6573206e6f7420657869737400000000000000000060448201526064016102d5565b6104347f0000000000000000000000000000000000000000000000000000000000000000848787610c59565b1561049b576040517f08c379a000000000000000000000000000000000000000000000000000000000815260206004820152601960248201527f52533a20666c616720616c7265616479206f627461696e65640000000000000060448201526064016102d5565b6104c67f00000000000000000000000000000000000000000000000000000000000000008483610c72565b1561052d576040517f08c379a000000000000000000000000000000000000000000000000000000000815260206004820152601d60248201527f52533a2070726f686962697465642066726f6d20616476616e63696e6700000060448201526064016102d5565b6105587f00000000000000000000000000000000000000000000000000000000000000008483610cf0565b6105be576040517f08c379a000000000000000000000000000000000000000000000000000000000815260206004820152601660248201527f52533a20756e6d657420726571756972656d656e74730000000000000000000060448201526064016102d5565b60006105ec7f0000000000000000000000000000000000000000000000000000000000000000858888610d68565b90506106187f000000000000000000000000000000000000000000000000000000000000000085611060565b6040805160208101839052016040516020818303038152906040529650505050505050919050565b61064861106f565b6040517f56f33501ffd77f9fe44d81e7db7e66a66bdf52ab3e11267cdc6462763604c4c790600090a1565b60006202a30067ffffffffffffffff164201905063389a75e1600c5233600052806020600c2055337fdbf36a107da19e49527a7176a1babf963b4b0ff8cde35ee35d6cd8f1f9ac7e1d600080a250565b606061070183836040516020016106ed92919063ffffffff92831681529116602082015260400190565b6040516020818303038152906040526101f6565b90505b92915050565b63389a75e1600c523360005260006020600c2055337ffa7b8eab7da67f412cc9575ed43464468f9bfbae89d1675917346ca6d8fe3c92600080a2565b61074e61106f565b61075860006110a5565b565b61076261106f565b63389a75e1600c52806000526020600c20805442111561078a57636f5e88186000526004601cfd5b60009055610797816110a5565b50565b6107a261106f565b8060601b6107b857637448fbae6000526004601cfd5b610797816110a5565b6000806107ee847ff9b94d2a933222e58f90359e8ec33041c5f08d7bc4304958d1c52c21991da57561110b565b6040517fcccf7a8e00000000000000000000000000000000000000000000000000000000815273ffffffffffffffffffffffffffffffffffffffff8581166004830181905292935083169063cccf7a8e90602401602060405180830381865afa15801561085f573d6000803e3d6000fd5b505050506040513d601f19601f820116820180604052508101906108839190611af0565b6108e9576040517f08c379a000000000000000000000000000000000000000000000000000000000815260206004820152601b60248201527f4163636f756e743a204f70657261746f72206e6f7420666f756e64000000000060448201526064016102d5565b6040517f9507d39a0000000000000000000000000000000000000000000000000000000081526004810182905273ffffffffffffffffffffffffffffffffffffffff831690639507d39a90602401602060405180830381865afa158015610954573d6000803e3d6000fd5b505050506040513d601f19601f820116820180604052508101906109789190611b12565b95945050505050565b604080517f4e5043000000000000000000000000000000000000000000000000000000000060208083019190915260e084901b7fffffffff000000000000000000000000000000000000000000000000000000001660238301528251600781840301815260279092019092528051910120600090610a3584826040518060400160405280600381526020017f4e5043000000000000000000000000000000000000000000000000000000000081525061124f565b610a40576000610a42565b805b949350505050565b600080610a77857f3be9611062b8582cf4b9a4eafe577dbde7dcd7779a1efb46d73e212026c4b0cc61110b565b6040517f9507d39a0000000000000000000000000000000000000000000000000000000081526004810186905290915060009073ffffffffffffffffffffffffffffffffffffffff831690639507d39a90602401602060405180830381865afa158015610ae8573d6000803e3d6000fd5b505050506040513d601f19601f82011682018060405250810190610b0c9190611b2b565b905063ffffffff81161580610bba57506040517f9507d39a0000000000000000000000000000000000000000000000000000000081526004810185905273ffffffffffffffffffffffffffffffffffffffff831690639507d39a90602401602060405180830381865afa158015610b87573d6000803e3d6000fd5b505050506040513d601f19601f82011682018060405250810190610bab9190611b2b565b63ffffffff168163ffffffff16145b925050505b9392505050565b604080517f72656769737472792e72656c6174696f6e7368697000000000000000000000006020808301919091527fffffffff0000000000000000000000000000000000000000000000000000000060e086811b8216603585015285901b1660398301528251808303601d018152603d9092019092528051910120600090610c4e858261129d565b610a42576000610978565b6000610c67858585856112df565b151595945050505050565b600080610c7f8584611385565b90506000610c8d8685611490565b905060005b8251811015610ce357610cc0878784868581518110610cb357610cb3611b48565b6020026020010151610c59565b15610cd15760019350505050610bbf565b80610cdb81611b77565b915050610c92565b5060009695505050505050565b600080610cfd8584611537565b90506000610d0b8685611490565b90508151600003610d2157600192505050610bbf565b60005b8251811015610ce357610d45878784868581518110610cb357610cb3611b48565b15610d565760019350505050610bbf565b80610d6081611b77565b915050610d24565b604080517f72656c6174696f6e736869700000000000000000000000000000000000000000602080830191909152602c82018690527fffffffff0000000000000000000000000000000000000000000000000000000060e086811b8216604c85015285901b1660508301528251808303603401815260549092019092528051910120600090610e2d86826040518060400160405280600c81526020017f52454c4154494f4e534849500000000000000000000000000000000000000000815250611578565b610e57867f8a00a3fe170d893759489495eac7080679e507af83a4195e641912c579f5615861110b565b6040517f1ab06ee5000000000000000000000000000000000000000000000000000000008152600481018390526024810187905273ffffffffffffffffffffffffffffffffffffffff9190911690631ab06ee590604401600060405180830381600087803b158015610ec857600080fd5b505af1158015610edc573d6000803e3d6000fd5b50505050610f0d867fb29f21e001e93877c0ca9ea2483697e386afbf8bced0360395102afa8c793eea60001c61110b565b6040517fd923c3c40000000000000000000000000000000000000000000000000000000081526004810183905263ffffffff8616602482015273ffffffffffffffffffffffffffffffffffffffff919091169063d923c3c490604401600060405180830381600087803b158015610f8357600080fd5b505af1158015610f97573d6000803e3d6000fd5b50505050610fc8867fc2b7d171254fab709835248d31a7d20c430c60ac71e67f09970923fa584b929160001c61110b565b6040517fd923c3c40000000000000000000000000000000000000000000000000000000081526004810183905263ffffffff8516602482015273ffffffffffffffffffffffffffffffffffffffff919091169063d923c3c490604401600060405180830381600087803b15801561103e57600080fd5b505af1158015611052573d6000803e3d6000fd5b509298975050505050505050565b61106b828242611613565b5050565b7fffffffffffffffffffffffffffffffffffffffffffffffffffffffff74873927543314610758576382b429006000526004601cfd5b7fffffffffffffffffffffffffffffffffffffffffffffffffffffffff74873927805473ffffffffffffffffffffffffffffffffffffffff9092169182907f8be0079c531659141344cd1fd0a4f28419497f9722a3daafe3b4186f6b6457e0600080a355565b6040517ffbdfa1ea00000000000000000000000000000000000000000000000000000000815260048101829052600090819073ffffffffffffffffffffffffffffffffffffffff85169063fbdfa1ea90602401600060405180830381865afa15801561117b573d6000803e3d6000fd5b505050506040513d6000823e601f3d9081017fffffffffffffffffffffffffffffffffffffffffffffffffffffffffffffffe01682016040526111c19190810190611bfa565b9050805160000361122e576040517f08c379a000000000000000000000000000000000000000000000000000000000815260206004820152601160248201527f6964206e6f74207265676973746572656400000000000000000000000000000060448201526064016102d5565b610a428160008151811061124457611244611b48565b602002602001015190565b6000610a428383611280877f5d88ced8d8e079072bf73f49fc87661b519c50d79482941abb852ba2b10909cd61110b565b73ffffffffffffffffffffffffffffffffffffffff169190611699565b600061070183836040518060400160405280600c81526020017f52454c4154494f4e53484950000000000000000000000000000000000000000081525061124f565b604080517f72656c6174696f6e736869700000000000000000000000000000000000000000602080830191909152602c82018690527fffffffff0000000000000000000000000000000000000000000000000000000060e086811b8216604c85015285901b166050830152825180830360340181526054909201909252805191012060009061136e868261129d565b61137957600061137b565b805b9695505050505050565b606061139183836116bc565b6113c95760005b6040519080825280602002602001820160405280156113c1578160200160208202803683370190505b509050610704565b6113f3837fb3f96e7944f99619a1086b9a1272bbdff635f1cac9c8bf7ba6ce1a9aa202f19c61110b565b73ffffffffffffffffffffffffffffffffffffffff16639507d39a836040518263ffffffff1660e01b815260040161142d91815260200190565b600060405180830381865afa15801561144a573d6000803e3d6000fd5b505050506040513d6000823e601f3d9081017fffffffffffffffffffffffffffffffffffffffffffffffffffffffffffffffe01682016040526107019190810190611c8b565b60006114bc837fb29f21e001e93877c0ca9ea2483697e386afbf8bced0360395102afa8c793eea61110b565b73ffffffffffffffffffffffffffffffffffffffff16639507d39a836040518263ffffffff1660e01b81526004016114f691815260200190565b602060405180830381865afa158015611513573d6000803e3d6000fd5b505050506040513d601f19601f820116820180604052508101906107019190611b2b565b60606115438383611763565b61154e576000611398565b6113f3837f4e8e9e1c7a24cab87cf9c93105c2ba1e02c4738f22ecab88b312e4de35819ca661110b565b6115a2837f5d88ced8d8e079072bf73f49fc87661b519c50d79482941abb852ba2b10909cd61110b565b73ffffffffffffffffffffffffffffffffffffffff16636437197783836040518363ffffffff1660e01b81526004016115dc929190611d1a565b600060405180830381600087803b1580156115f657600080fd5b505af115801561160a573d6000803e3d6000fd5b50505050505050565b61163d837f342adee7430e96bca6f5d4fe57ba5155dc7271000494e77110c292d51ae887fa61110b565b6040517f1ab06ee5000000000000000000000000000000000000000000000000000000008152600481018490526024810183905273ffffffffffffffffffffffffffffffffffffffff9190911690631ab06ee5906044016115dc565b6000610a42826116a9868661178f565b8151602092830120815191909201201490565b60006116e8837fb3f96e7944f99619a1086b9a1272bbdff635f1cac9c8bf7ba6ce1a9aa202f19c61110b565b73ffffffffffffffffffffffffffffffffffffffff1663cccf7a8e836040518263ffffffff1660e01b815260040161172291815260200190565b602060405180830381865afa15801561173f573d6000803e3d6000fd5b505050506040513d601f19601f820116820180604052508101906107019190611af0565b60006116e8837f4e8e9e1c7a24cab87cf9c93105c2ba1e02c4738f22ecab88b312e4de35819ca661110b565b6040517fdd98e3c90000000000000000000000000000000000000000000000000000000081526004810182905260609060009073ffffffffffffffffffffffffffffffffffffffff85169063dd98e3c990602401600060405180830381865afa158015611800573d6000803e3d6000fd5b505050506040513d6000823e601f3d9081017fffffffffffffffffffffffffffffffffffffffffffffffffffffffffffffffe01682016040526118469190810190611d63565b90508051600003611867575050604080516020810190915260008152610704565b80806020019051810190610a429190611d63565b7f4e487b7100000000000000000000000000000000000000000000000000000000600052604160045260246000fd5b604051601f82017fffffffffffffffffffffffffffffffffffffffffffffffffffffffffffffffe016810167ffffffffffffffff811182821017156118f1576118f161187b565b604052919050565b600067ffffffffffffffff8211156119135761191361187b565b50601f017fffffffffffffffffffffffffffffffffffffffffffffffffffffffffffffffe01660200190565b60006020828403121561195157600080fd5b813567ffffffffffffffff81111561196857600080fd5b8201601f8101841361197957600080fd5b803561198c611987826118f9565b6118aa565b8181528560208385010111156119a157600080fd5b81602084016020830137600091810160200191909152949350505050565b60005b838110156119da5781810151838201526020016119c2565b50506000910152565b600081518084526119fb8160208601602086016119bf565b601f017fffffffffffffffffffffffffffffffffffffffffffffffffffffffffffffffe0169290920160200192915050565b60208152600061070160208301846119e3565b63ffffffff8116811461079757600080fd5b60008060408385031215611a6557600080fd5b8235611a7081611a40565b91506020830135611a8081611a40565b809150509250929050565b600060208284031215611a9d57600080fd5b813573ffffffffffffffffffffffffffffffffffffffff81168114610a4057600080fd5b60008060408385031215611ad457600080fd5b8251611adf81611a40565b6020840151909250611a8081611a40565b600060208284031215611b0257600080fd5b81518015158114610a4057600080fd5b600060208284031215611b2457600080fd5b5051919050565b600060208284031215611b3d57600080fd5b8151610a4081611a40565b7f4e487b7100000000000000000000000000000000000000000000000000000000600052603260045260246000fd5b60007fffffffffffffffffffffffffffffffffffffffffffffffffffffffffffffffff8203611bcf577f4e487b7100000000000000000000000000000000000000000000000000000000600052601160045260246000fd5b5060010190565b600067ffffffffffffffff821115611bf057611bf061187b565b5060051b60200190565b60006020808385031215611c0d57600080fd5b825167ffffffffffffffff811115611c2457600080fd5b8301601f81018513611c3557600080fd5b8051611c4361198782611bd6565b81815260059190911b82018301908381019087831115611c6257600080fd5b928401925b82841015611c8057835182529284019290840190611c67565b979650505050505050565b60006020808385031215611c9e57600080fd5b825167ffffffffffffffff811115611cb557600080fd5b8301601f81018513611cc657600080fd5b8051611cd461198782611bd6565b81815260059190911b82018301908381019087831115611cf357600080fd5b928401925b82841015611c80578351611d0b81611a40565b82529284019290840190611cf8565b828152604060208201526000610a4260408301846119e3565b6000611d41611987846118f9565b9050828152838383011115611d5557600080fd5b610bbf8360208301846119bf565b600060208284031215611d7557600080fd5b815167ffffffffffffffff811115611d8c57600080fd5b8201601f81018413611d9d57600080fd5b610a4284825160208401611d3356fea26469706673582212203cd7f532755b439c9fac45eb7eb172c0a5ff4980d76f98782b0bce6ef2bab59f64736f6c63430008110033","linkReferences":{}},"methodIdentifiers":{"cancelOwnershipHandover()":"54d1f13d","completeOwnershipHandover(address)":"f04e283e","deprecate()":"0fcc0c28","execute(bytes)":"09c5eabe","executeTyped(uint32,uint32)":"276aaa75","owner()":"8da5cb5b","ownershipHandoverExpiresAt(address)":"fee81cf4","renounceOwnership()":"715018a6","requestOwnershipHandover()":"25692962","transferOwnership(address)":"f2fde38b"},"id":290}