{"abi":[{"type":"constructor","inputs":[{"name":"world","type":"address","internalType":"address"},{"name":"id","type":"uint256","internalType":"uint256"}],"stateMutability":"nonpayable"},{"type":"function","name":"authorizeWriter","inputs":[{"name":"writer","type":"address","internalType":"address"}],"outputs":[],"stateMutability":"nonpayable"},{"type":"function","name":"cancelOwnershipHandover","inputs":[],"outputs":[],"stateMutability":"payable"},{"type":"function","name":"completeOwnershipHandover","inputs":[{"name":"pendingOwner","type":"address","internalType":"address"}],"outputs":[],"stateMutability":"payable"},{"type":"function","name":"extract","inputs":[{"name":"entity","type":"uint256","internalType":"uint256"}],"outputs":[{"name":"","type":"string","internalType":"string"}],"stateMutability":"nonpayable"},{"type":"function","name":"extractBatch","inputs":[{"name":"entities","type":"uint256[]","internalType":"uint256[]"}],"outputs":[{"name":"","type":"string[]","internalType":"string[]"}],"stateMutability":"nonpayable"},{"type":"function","name":"extractRaw","inputs":[{"name":"entity","type":"uint256","internalType":"uint256"}],"outputs":[{"name":"","type":"bytes","internalType":"bytes"}],"stateMutability":"nonpayable"},{"type":"function","name":"extractRawBatch","inputs":[{"name":"entities","type":"uint256[]","internalType":"uint256[]"}],"outputs":[{"name":"","type":"bytes[]","internalType":"bytes[]"}],"stateMutability":"nonpayable"},{"type":"function","name":"get","inputs":[{"name":"entity","type":"uint256","internalType":"uint256"}],"outputs":[{"name":"","type":"string","internalType":"string"}],"stateMutability":"view"},{"type":"function","name":"getAt","inputs":[{"name":"value","type":"bytes","internalType":"bytes"},{"name":"index","type":"uint256","internalType":"uint256"}],"outputs":[{"name":"","type":"uint256","internalType":"uint256"}],"stateMutability":"view"},{"type":"function","name":"getBatch","inputs":[{"name":"entities","type":"uint256[]","internalType":"uint256[]"}],"outputs":[{"name":"","type":"string[]","internalType":"string[]"}],"stateMutability":"view"},{"type":"function","name":"getEntities","inputs":[],"outputs":[{"name":"","type":"uint256[]","internalType":"uint256[]"}],"stateMutability":"view"},{"type":"function","name":"getEntitiesWithValue","inputs":[{"name":"value","type":"bytes","internalType":"bytes"}],"outputs":[{"name":"","type":"uint256[]","internalType":"uint256[]"}],"stateMutability":"view"},{"type":"function","name":"getEntitiesWithValue","inputs":[{"name":"value","type":"string","internalType":"string"}],"outputs":[{"name":"","type":"uint256[]","internalType":"uint256[]"}],"stateMutability":"view"},{"type":"function","name":"getRaw","inputs":[{"name":"entity","type":"uint256","internalType":"uint256"}],"outputs":[{"name":"","type":"bytes","internalType":"bytes"}],"stateMutability":"view"},{"type":"function","name":"getRawBatch","inputs":[{"name":"entities","type":"uint256[]","internalType":"uint256[]"}],"outputs":[{"name":"","type":"bytes[]","internalType":"bytes[]"}],"stateMutability":"view"},{"type":"function","name":"has","inputs":[{"name":"entity","type":"uint256","internalType":"uint256"}],"outputs":[{"name":"","type":"bool","internalType":"bool"}],"stateMutability":"view"},{"type":"function","name":"id","inputs":[],"outputs":[{"name":"","type":"uint256","internalType":"uint256"}],"stateMutability":"view"},{"type":"function","name":"owner","inputs":[],"outputs":[{"name":"result","type":"address","internalType":"address"}],"stateMutability":"view"},{"type":"function","name":"ownershipHandoverExpiresAt","inputs":[{"name":"pendingOwner","type":"address","internalType":"address"}],"outputs":[{"name":"result","type":"uint256","internalType":"uint256"}],"stateMutability":"view"},{"type":"function","name":"registerWorld","inputs":[{"name":"_world","type":"address","internalType":"address"}],"outputs":[],"stateMutability":"nonpayable"},{"type":"function","name":"remove","inputs":[{"name":"entity","type":"uint256","internalType":"uint256"}],"outputs":[],"stateMutability":"nonpayable"},{"type":"function","name":"removeBatch","inputs":[{"name":"entities","type":"uint256[]","internalType":"uint256[]"}],"outputs":[],"stateMutability":"nonpayable"},{"type":"function","name":"renounceOwnership","inputs":[],"outputs":[],"stateMutability":"payable"},{"type":"function","name":"requestOwnershipHandover","inputs":[],"outputs":[],"stateMutability":"payable"},{"type":"function","name":"set","inputs":[{"name":"entity","type":"uint256","internalType":"uint256"},{"name":"value","type":"string","internalType":"string"}],"outputs":[],"stateMutability":"nonpayable"},{"type":"function","name":"set","inputs":[{"name":"entity","type":"uint256","internalType":"uint256"},{"name":"value","type":"bytes","internalType":"bytes"}],"outputs":[],"stateMutability":"nonpayable"},{"type":"function","name":"setBatch","inputs":[{"name":"entities","type":"uint256[]","internalType":"uint256[]"},{"name":"values","type":"bytes[]","internalType":"bytes[]"}],"outputs":[],"stateMutability":"nonpayable"},{"type":"function","name":"setBatch","inputs":[{"name":"entities","type":"uint256[]","internalType":"uint256[]"},{"name":"values","type":"string[]","internalType":"string[]"}],"outputs":[],"stateMutability":"nonpayable"},{"type":"function","name":"size","inputs":[{"name":"value","type":"bytes","internalType":"bytes"}],"outputs":[{"name":"","type":"uint256","internalType":"uint256"}],"stateMutability":"view"},{"type":"function","name":"transferOwnership","inputs":[{"name":"newOwner","type":"address","internalType":"address"}],"outputs":[],"stateMutability":"payable"},{"type":"function","name":"unauthorizeWriter","inputs":[{"name":"writer","type":"address","internalType":"address"}],"outputs":[],"stateMutability":"nonpayable"},{"type":"function","name":"world","inputs":[],"outputs":[{"name":"","type":"address","internalType":"address"}],"stateMutability":"view"},{"type":"function","name":"writeAccess","inputs":[{"name":"operator","type":"address","internalType":"address"}],"outputs":[{"name":"","type":"bool","internalType":"bool"}],"stateMutability":"view"},{"type":"event","name":"OwnershipHandoverCanceled","inputs":[{"name":"pendingOwner","type":"address","indexed":true,"internalType":"address"}],"anonymous":false},{"type":"event","name":"OwnershipHandoverRequested","inputs":[{"name":"pendingOwner","type":"address","indexed":true,"internalType":"address"}],"anonymous":false},{"type":"event","name":"OwnershipTransferred","inputs":[{"name":"oldOwner","type":"address","indexed":true,"internalType":"address"},{"name":"newOwner","type":"address","indexed":true,"internalType":"address"}],"anonymous":false},{"type":"error","name":"AlreadyInitialized","inputs":[]},{"type":"error","name":"BareComponent__NotImplemented","inputs":[]},{"type":"error","name":"BatchOp_UnexpectedLength","inputs":[]},{"type":"error","name":"NewOwnerIsZeroAddress","inputs":[]},{"type":"error","name":"NoHandoverRequest","inputs":[]},{"type":"error","name":"OwnableWritable__NotWriter","inputs":[]},{"type":"error","name":"Unauthorized","inputs":[]},{"type":"error","name":"ZeroValueNotAllowed","inputs":[]}],"bytecode":{"object":"0x60806040523480156200001157600080fd5b506040516200298a3803806200298a83398101604081905262000034916200014f565b8181818162000043336200006f565b60028190556001600160a01b0382161562000063576200006382620000ab565b5050505050506200018b565b6001600160a01b0316638b78c6d8198190558060007f8be0079c531659141344cd1fd0a4f28419497f9722a3daafe3b4186f6b6457e08180a350565b620000b562000131565b600080546001600160a01b0319166001600160a01b038316908117909155600254604051630f30347760e41b8152306004820152602481019190915263f303477090604401600060405180830381600087803b1580156200011557600080fd5b505af11580156200012a573d6000803e3d6000fd5b5050505050565b638b78c6d8195433146200014d576382b429006000526004601cfd5b565b600080604083850312156200016357600080fd5b82516001600160a01b03811681146200017b57600080fd5b6020939093015192949293505050565b6127ef806200019b6000396000f3fe6080604052600436106101fe5760003560e01c8063861eb9051161011d578063cccf7a8e116100b0578063e9ff6c761161007f578063f2fde38b11610064578063f2fde38b146105fc578063f94655da1461060f578063fee81cf41461062f57600080fd5b8063e9ff6c76146105c9578063f04e283e146105e957600080fd5b8063cccf7a8e14610549578063dc5c22cd14610569578063dd98e3c914610589578063e4b6aecf146105a957600080fd5b80639d2c76b4116100ec5780639d2c76b4146104d3578063af640d0f146104f3578063b361be4614610509578063bf4fe57e1461052957600080fd5b8063861eb9051461042f5780638b2829471461045f5780638da5cb5b1461047f5780639507d39a146104b357600080fd5b80634cc82215116101955780636f9aa155116101645780636f9aa155146103ba578063715018a6146103da5780638482643e146103e257806385b397821461040257600080fd5b80634cc82215146103525780634fef6a381461037257806354d1f13d14610392578063643719771461039a57600080fd5b806325692962116101d157806325692962146102b657806330b67baa146102be57806331b933b9146103105780634323c4ef1461033257600080fd5b8063088dd0b91461020357806312b111551461023957806313ca8b6a146102665780631c5ee10c14610288575b600080fd5b34801561020f57600080fd5b5061022361021e366004611f69565b610662565b6040516102309190612014565b60405180910390f35b34801561024557600080fd5b50610259610254366004611f69565b61067b565b6040516102309190612094565b34801561027257600080fd5b5061028661028136600461219e565b6106c5565b005b34801561029457600080fd5b506102a86102a3366004612273565b610712565b604051908152602001610230565b610286610736565b3480156102ca57600080fd5b506000546102eb9073ffffffffffffffffffffffffffffffffffffffff1681565b60405173ffffffffffffffffffffffffffffffffffffffff9091168152602001610230565b34801561031c57600080fd5b50610325610786565b60405161023091906122a8565b34801561033e57600080fd5b5061025961034d366004611f69565b6107ba565b34801561035e57600080fd5b5061028661036d3660046122ec565b610906565b34801561037e57600080fd5b5061028661038d366004612305565b610951565b6102866109c7565b3480156103a657600080fd5b506102866103b536600461233b565b610a03565b3480156103c657600080fd5b506102a86103d5366004612382565b610a54565b610286610a7e565b3480156103ee57600080fd5b506102866103fd366004611f69565b610a92565b34801561040e57600080fd5b5061042261041d3660046122ec565b610ada565b60405161023091906123c7565b34801561043b57600080fd5b5061044f61044a366004612305565b610b2c565b6040519015158152602001610230565b34801561046b57600080fd5b5061028661047a36600461233b565b610bbb565b34801561048b57600080fd5b507fffffffffffffffffffffffffffffffffffffffffffffffffffffffff74873927546102eb565b3480156104bf57600080fd5b506104226104ce3660046122ec565b610c04565b3480156104df57600080fd5b506102866104ee366004612305565b610c12565b3480156104ff57600080fd5b506102a860025481565b34801561051557600080fd5b50610325610524366004612273565b610cd3565b34801561053557600080fd5b50610286610544366004612305565b610cde565b34801561055557600080fd5b5061044f6105643660046122ec565b610d51565b34801561057557600080fd5b50610223610584366004611f69565b610d73565b34801561059557600080fd5b506104226105a43660046122ec565b610dc0565b3480156105b557600080fd5b506102866105c43660046123da565b610dcb565b3480156105d557600080fd5b506104226105e43660046122ec565b610e1c565b6102866105f7366004612305565b610e66565b61028661060a366004612305565b610ea3565b34801561061b57600080fd5b5061032561062a366004612273565b610eca565b34801561063b57600080fd5b506102a861064a366004612305565b63389a75e1600c908152600091909152602090205490565b606061067561067083610edd565b611022565b92915050565b606061068633610b2c565b6106bc576040517f406ed3da00000000000000000000000000000000000000000000000000000000815260040160405180910390fd5b610675826110d4565b6106ce33610b2c565b610704576040517f406ed3da00000000000000000000000000000000000000000000000000000000815260040160405180910390fd5b61070e82826110ec565b5050565b60006106756003600084805190602001208152602001908152602001600020611280565b60006202a30067ffffffffffffffff164201905063389a75e1600c5233600052806020600c2055337fdbf36a107da19e49527a7176a1babf963b4b0ff8cde35ee35d6cd8f1f9ac7e1d600080a250565b60606040517f17d5b8e800000000000000000000000000000000000000000000000000000000815260040160405180910390fd5b60606000825167ffffffffffffffff8111156107d8576107d8611e5c565b60405190808252806020026020018201604052801561080b57816020015b60608152602001906001900390816107f65790505b50905060005b83518110156108ff57600160008583815181106108305761083061249e565b602002602001015181526020019081526020016000208054610851906124cd565b80601f016020809104026020016040519081016040528092919081815260200182805461087d906124cd565b80156108ca5780601f1061089f576101008083540402835291602001916108ca565b820191906000526020600020905b8154815290600101906020018083116108ad57829003601f168201915b50505050508282815181106108e1576108e161249e565b602002602001018190525080806108f79061254f565b915050610811565b5092915050565b61090f33610b2c565b610945576040517f406ed3da00000000000000000000000000000000000000000000000000000000815260040160405180910390fd5b61094e8161128a565b50565b61095961135d565b73ffffffffffffffffffffffffffffffffffffffff1660009081527f8ffeadc5cba727b8cc3cdef48739619490ea317fdb3baae1259089d06f92c9096020526040902080547fffffffffffffffffffffffffffffffffffffffffffffffffffffffffffffff00166001179055565b63389a75e1600c523360005260006020600c2055337ffa7b8eab7da67f412cc9575ed43464468f9bfbae89d1675917346ca6d8fe3c92600080a2565b610a0c33610b2c565b610a42576040517f406ed3da00000000000000000000000000000000000000000000000000000000815260040160405180910390fd5b61070e82610a4f83611393565b6113bc565b81516020808401919091206000908152600390915260408120610a7790836114b7565b9392505050565b610a8661135d565b610a9060006114c3565b565b610a9b33610b2c565b610ad1576040517f406ed3da00000000000000000000000000000000000000000000000000000000815260040160405180910390fd5b61094e81611529565b6060610ae533610b2c565b610b1b576040517f406ed3da00000000000000000000000000000000000000000000000000000000815260040160405180910390fd5b610675610b2783611631565b611651565b73ffffffffffffffffffffffffffffffffffffffff811660009081527f8ffeadc5cba727b8cc3cdef48739619490ea317fdb3baae1259089d06f92c909602052604081205460ff16806106755750507fffffffffffffffffffffffffffffffffffffffffffffffffffffffff748739275473ffffffffffffffffffffffffffffffffffffffff91821691161490565b610bc433610b2c565b610bfa576040517f406ed3da00000000000000000000000000000000000000000000000000000000815260040160405180910390fd5b61070e82826113bc565b6060610675610b2783611667565b610c1a61135d565b600080547fffffffffffffffffffffffff00000000000000000000000000000000000000001673ffffffffffffffffffffffffffffffffffffffff83169081179091556002546040517ff3034770000000000000000000000000000000000000000000000000000000008152306004820152602481019190915263f3034770906044015b600060405180830381600087803b158015610cb857600080fd5b505af1158015610ccc573d6000803e3d6000fd5b5050505050565b606061067582611709565b610ce661135d565b73ffffffffffffffffffffffffffffffffffffffff1660009081527f8ffeadc5cba727b8cc3cdef48739619490ea317fdb3baae1259089d06f92c9096020526040902080547fffffffffffffffffffffffffffffffffffffffffffffffffffffffffffffff00169055565b60008181526001602052604081208054610d6a906124cd565b15159392505050565b6060610d7e33610b2c565b610db4576040517f406ed3da00000000000000000000000000000000000000000000000000000000815260040160405180910390fd5b610675610670836110d4565b606061067582611667565b610dd433610b2c565b610e0a576040517f406ed3da00000000000000000000000000000000000000000000000000000000815260040160405180910390fd5b61070e82610e178361172d565b6110ec565b6060610e2733610b2c565b610e5d576040517f406ed3da00000000000000000000000000000000000000000000000000000000815260040160405180910390fd5b61067582611631565b610e6e61135d565b63389a75e1600c52806000526020600c208054421115610e9657636f5e88186000526004601cfd5b6000905561094e816114c3565b610eab61135d565b8060601b610ec157637448fbae6000526004601cfd5b61094e816114c3565b6060610675610ed883611393565b611709565b60606000825167ffffffffffffffff811115610efb57610efb611e5c565b604051908082528060200260200182016040528015610f2e57816020015b6060815260200190600190039081610f195790505b50905060005b83518110156108ff5760016000858381518110610f5357610f5361249e565b602002602001015181526020019081526020016000208054610f74906124cd565b80601f0160208091040260200160405190810160405280929190818152602001828054610fa0906124cd565b8015610fed5780601f10610fc257610100808354040283529160200191610fed565b820191906000526020600020905b815481529060010190602001808311610fd057829003601f168201915b50505050508282815181106110045761100461249e565b6020026020010181905250808061101a9061254f565b915050610f34565b60606000825167ffffffffffffffff81111561104057611040611e5c565b60405190808252806020026020018201604052801561107357816020015b606081526020019060019003908161105e5790505b50905060005b83518110156108ff576110a48482815181106110975761109761249e565b6020026020010151611651565b8282815181106110b6576110b661249e565b602002602001018190525080806110cc9061254f565b915050611079565b606060006110e183610edd565b905061067583611529565b60005b8251811015611275576000600160008584815181106111105761111061249e565b602002602001015181526020019081526020016000208054611131906124cd565b80601f016020809104026020016040519081016040528092919081815260200182805461115d906124cd565b80156111aa5780601f1061117f576101008083540402835291602001916111aa565b820191906000526020600020905b81548152906001019060200180831161118d57829003601f168201915b50505050509050600081511115611202576112008483815181106111d0576111d061249e565b602002602001015160036000848051906020012081526020019081526020016000206117df90919063ffffffff16565b505b6112608483815181106112175761121761249e565b6020026020010151600360008686815181106112355761123561249e565b60200260200101518051906020012081526020019081526020016000206117eb90919063ffffffff16565b5050808061126d9061254f565b9150506110ef565b5061070e82826117f7565b6000610675825490565b600081815260016020526040812080546112a3906124cd565b80601f01602080910402602001604051908101604052809291908181526020018280546112cf906124cd565b801561131c5780601f106112f15761010080835404028352916020019161131c565b820191906000526020600020905b8154815290600101906020018083116112ff57829003601f168201915b505050505090508051600003611330575050565b8051602080830191909120600090815260039091526040902061135390836117df565b5061070e826119d5565b7fffffffffffffffffffffffffffffffffffffffffffffffffffffffff74873927543314610a90576382b429006000526004601cfd5b6060816040516020016113a691906123c7565b6040516020818303038152906040529050919050565b600082815260016020526040812080546113d5906124cd565b80601f0160208091040260200160405190810160405280929190818152602001828054611401906124cd565b801561144e5780601f106114235761010080835404028352916020019161144e565b820191906000526020600020905b81548152906001019060200180831161143157829003601f168201915b50505050509050600081511115611484578051602080830191909120600090815260039091526040902061148290846117df565b505b815160208084019190912060009081526003909152604090206114a790846117eb565b506114b28383611a43565b505050565b6000610a778383611b25565b7fffffffffffffffffffffffffffffffffffffffffffffffffffffffff74873927805473ffffffffffffffffffffffffffffffffffffffff9092169182907f8be0079c531659141344cd1fd0a4f28419497f9722a3daafe3b4186f6b6457e0600080a355565b60005b81518110156116275760006001600084848151811061154d5761154d61249e565b60200260200101518152602001908152602001600020805461156e906124cd565b80601f016020809104026020016040519081016040528092919081815260200182805461159a906124cd565b80156115e75780601f106115bc576101008083540402835291602001916115e7565b820191906000526020600020905b8154815290600101906020018083116115ca57829003601f168201915b5050505050905080516000036115fd5750611615565b6116128383815181106111d0576111d061249e565b50505b8061161f8161254f565b91505061152c565b5061094e81611b4f565b6060600061163e83611667565b805190915015610675576106758361128a565b6060818060200190518101906106759190612587565b6000818152600160205260409020805460609190611684906124cd565b80601f01602080910402602001604051908101604052809291908181526020018280546116b0906124cd565b80156116fd5780601f106116d2576101008083540402835291602001916116fd565b820191906000526020600020905b8154815290600101906020018083116116e057829003601f168201915b50505050509050919050565b60606106756003600084805190602001208152602001908152602001600020611c64565b60606000825167ffffffffffffffff81111561174b5761174b611e5c565b60405190808252806020026020018201604052801561177e57816020015b60608152602001906001900390816117695790505b50905060005b83518110156108ff576117af8482815181106117a2576117a261249e565b6020026020010151611393565b8282815181106117c1576117c161249e565b602002602001018190525080806117d79061254f565b915050611784565b6000610a778383611c71565b6000610a778383611d64565b8051825114611832576040517fc291f68400000000000000000000000000000000000000000000000000000000815260040160405180910390fd5b60005b82518110156118f7578181815181106118505761185061249e565b602002602001015151600003611892576040517f9cf8540c00000000000000000000000000000000000000000000000000000000815260040160405180910390fd5b8181815181106118a4576118a461249e565b6020026020010151600160008584815181106118c2576118c261249e565b6020026020010151815260200190815260200160002090816118e49190612644565b50806118ef8161254f565b915050611835565b506000805473ffffffffffffffffffffffffffffffffffffffff16905b83518110156119cf578173ffffffffffffffffffffffffffffffffffffffff1663cfd3c57f85838151811061194b5761194b61249e565b60200260200101518584815181106119655761196561249e565b60200260200101516040518363ffffffff1660e01b815260040161198a92919061275e565b600060405180830381600087803b1580156119a457600080fd5b505af11580156119b8573d6000803e3d6000fd5b5050505080806119c79061254f565b915050611914565b50505050565b60008181526001602052604081206119ec91611e0e565b6000546040517f0de3b7b50000000000000000000000000000000000000000000000000000000081526004810183905273ffffffffffffffffffffffffffffffffffffffff90911690630de3b7b590602401610c9e565b8051600003611a7e576040517f9cf8540c00000000000000000000000000000000000000000000000000000000815260040160405180910390fd5b6000828152600160205260409020611a968282612644565b506000546040517fcfd3c57f00000000000000000000000000000000000000000000000000000000815273ffffffffffffffffffffffffffffffffffffffff9091169063cfd3c57f90611aef908590859060040161275e565b600060405180830381600087803b158015611b0957600080fd5b505af1158015611b1d573d6000803e3d6000fd5b505050505050565b6000826000018281548110611b3c57611b3c61249e565b9060005260206000200154905092915050565b60005b8151811015611ba55760016000838381518110611b7157611b7161249e565b602002602001015181526020019081526020016000206000611b939190611e0e565b80611b9d8161254f565b915050611b52565b506000805473ffffffffffffffffffffffffffffffffffffffff16905b82518110156114b2578173ffffffffffffffffffffffffffffffffffffffff16630de3b7b5848381518110611bf957611bf961249e565b60200260200101516040518263ffffffff1660e01b8152600401611c1f91815260200190565b600060405180830381600087803b158015611c3957600080fd5b505af1158015611c4d573d6000803e3d6000fd5b505050508080611c5c9061254f565b915050611bc2565b60606000610a7783611db3565b60008181526001830160205260408120548015611d5a576000611c95600183612777565b8554909150600090611ca990600190612777565b9050818114611d0e576000866000018281548110611cc957611cc961249e565b9060005260206000200154905080876000018481548110611cec57611cec61249e565b6000918252602080832090910192909255918252600188019052604090208390555b8554869080611d1f57611d1f61278a565b600190038181906000526020600020016000905590558560010160008681526020019081526020016000206000905560019350505050610675565b6000915050610675565b6000818152600183016020526040812054611dab57508154600181810184556000848152602080822090930184905584548482528286019093526040902091909155610675565b506000610675565b6060816000018054806020026020016040519081016040528092919081815260200182805480156116fd57602002820191906000526020600020905b815481526020019060010190808311611def5750505050509050919050565b508054611e1a906124cd565b6000825580601f10611e2a575050565b601f01602090049060005260206000209081019061094e91905b80821115611e585760008155600101611e44565b5090565b7f4e487b7100000000000000000000000000000000000000000000000000000000600052604160045260246000fd5b604051601f82017fffffffffffffffffffffffffffffffffffffffffffffffffffffffffffffffe016810167ffffffffffffffff81118282101715611ed257611ed2611e5c565b604052919050565b600067ffffffffffffffff821115611ef457611ef4611e5c565b5060051b60200190565b600082601f830112611f0f57600080fd5b81356020611f24611f1f83611eda565b611e8b565b82815260059290921b84018101918181019086841115611f4357600080fd5b8286015b84811015611f5e5780358352918301918301611f47565b509695505050505050565b600060208284031215611f7b57600080fd5b813567ffffffffffffffff811115611f9257600080fd5b611f9e84828501611efe565b949350505050565b60005b83811015611fc1578181015183820152602001611fa9565b50506000910152565b60008151808452611fe2816020860160208601611fa6565b601f017fffffffffffffffffffffffffffffffffffffffffffffffffffffffffffffffe0169290920160200192915050565b6000602080830181845280855180835260408601915060408160051b870101925083870160005b82811015612087577fffffffffffffffffffffffffffffffffffffffffffffffffffffffffffffffc0888603018452612075858351611fca565b9450928501929085019060010161203b565b5092979650505050505050565b6000602080830181845280855180835260408601915060408160051b870101925083870160005b82811015612087577fffffffffffffffffffffffffffffffffffffffffffffffffffffffffffffffc08886030184526120f5858351611fca565b945092850192908501906001016120bb565b600067ffffffffffffffff82111561212157612121611e5c565b50601f017fffffffffffffffffffffffffffffffffffffffffffffffffffffffffffffffe01660200190565b600082601f83011261215e57600080fd5b813561216c611f1f82612107565b81815284602083860101111561218157600080fd5b816020850160208301376000918101602001919091529392505050565b600080604083850312156121b157600080fd5b823567ffffffffffffffff808211156121c957600080fd5b6121d586838701611efe565b93506020915081850135818111156121ec57600080fd5b8501601f810187136121fd57600080fd5b803561220b611f1f82611eda565b81815260059190911b8201840190848101908983111561222a57600080fd5b8584015b83811015612262578035868111156122465760008081fd5b6122548c898389010161214d565b84525091860191860161222e565b508096505050505050509250929050565b60006020828403121561228557600080fd5b813567ffffffffffffffff81111561229c57600080fd5b611f9e8482850161214d565b6020808252825182820181905260009190848201906040850190845b818110156122e0578351835292840192918401916001016122c4565b50909695505050505050565b6000602082840312156122fe57600080fd5b5035919050565b60006020828403121561231757600080fd5b813573ffffffffffffffffffffffffffffffffffffffff81168114610a7757600080fd5b6000806040838503121561234e57600080fd5b82359150602083013567ffffffffffffffff81111561236c57600080fd5b6123788582860161214d565b9150509250929050565b6000806040838503121561239557600080fd5b823567ffffffffffffffff8111156123ac57600080fd5b6123b88582860161214d565b95602094909401359450505050565b602081526000610a776020830184611fca565b600080604083850312156123ed57600080fd5b823567ffffffffffffffff8082111561240557600080fd5b61241186838701611efe565b935060209150818501358181111561242857600080fd5b8501601f8101871361243957600080fd5b8035612447611f1f82611eda565b81815260059190911b8201840190848101908983111561246657600080fd5b8584015b83811015612262578035868111156124825760008081fd5b6124908c898389010161214d565b84525091860191860161246a565b7f4e487b7100000000000000000000000000000000000000000000000000000000600052603260045260246000fd5b600181811c908216806124e157607f821691505b60208210810361251a577f4e487b7100000000000000000000000000000000000000000000000000000000600052602260045260246000fd5b50919050565b7f4e487b7100000000000000000000000000000000000000000000000000000000600052601160045260246000fd5b60007fffffffffffffffffffffffffffffffffffffffffffffffffffffffffffffffff820361258057612580612520565b5060010190565b60006020828403121561259957600080fd5b815167ffffffffffffffff8111156125b057600080fd5b8201601f810184136125c157600080fd5b80516125cf611f1f82612107565b8181528560208385010111156125e457600080fd5b6125f5826020830160208601611fa6565b95945050505050565b601f8211156114b257600081815260208120601f850160051c810160208610156126255750805b601f850160051c820191505b81811015611b1d57828155600101612631565b815167ffffffffffffffff81111561265e5761265e611e5c565b6126728161266c84546124cd565b846125fe565b602080601f8311600181146126c5576000841561268f5750858301515b7fffffffffffffffffffffffffffffffffffffffffffffffffffffffffffffffff600386901b1c1916600185901b178555611b1d565b6000858152602081207fffffffffffffffffffffffffffffffffffffffffffffffffffffffffffffffe08616915b82811015612712578886015182559484019460019091019084016126f3565b508582101561274e57878501517fffffffffffffffffffffffffffffffffffffffffffffffffffffffffffffffff600388901b60f8161c191681555b5050505050600190811b01905550565b828152604060208201526000611f9e6040830184611fca565b8181038181111561067557610675612520565b7f4e487b7100000000000000000000000000000000000000000000000000000000600052603160045260246000fdfea2646970667358221220955db5fb0ee1fae99893479b63f3fe58d6355b30ecbfe06fa9904000c56ccdeb64736f6c63430008110033","linkReferences":{}},"methodIdentifiers":{"authorizeWriter(address)":"4fef6a38","cancelOwnershipHandover()":"54d1f13d","completeOwnershipHandover(address)":"f04e283e","extract(uint256)":"85b39782","extractBatch(uint256[])":"dc5c22cd","extractRaw(uint256)":"e9ff6c76","extractRawBatch(uint256[])":"12b11155","get(uint256)":"9507d39a","getAt(bytes,uint256)":"6f9aa155","getBatch(uint256[])":"088dd0b9","getEntities()":"31b933b9","getEntitiesWithValue(bytes)":"b361be46","getEntitiesWithValue(string)":"f94655da","getRaw(uint256)":"dd98e3c9","getRawBatch(uint256[])":"4323c4ef","has(uint256)":"cccf7a8e","id()":"af640d0f","owner()":"8da5cb5b","ownershipHandoverExpiresAt(address)":"fee81cf4","registerWorld(address)":"9d2c76b4","remove(uint256)":"4cc82215","removeBatch(uint256[])":"8482643e","renounceOwnership()":"715018a6","requestOwnershipHandover()":"25692962","set(uint256,bytes)":"8b282947","set(uint256,string)":"64371977","setBatch(uint256[],bytes[])":"13ca8b6a","setBatch(uint256[],string[])":"e4b6aecf","size(bytes)":"1c5ee10c","transferOwnership(address)":"f2fde38b","unauthorizeWriter(address)":"bf4fe57e","world()":"30b67baa","writeAccess(address)":"861eb905"},"id":156}