{"abi":[{"type":"constructor","inputs":[{"name":"world","type":"address","internalType":"address"}],"stateMutability":"nonpayable"},{"type":"function","name":"ID","inputs":[],"outputs":[{"name":"","type":"uint256","internalType":"uint256"}],"stateMutability":"view"},{"type":"function","name":"authorizeWriter","inputs":[{"name":"writer","type":"address","internalType":"address"}],"outputs":[],"stateMutability":"nonpayable"},{"type":"function","name":"cancelOwnershipHandover","inputs":[],"outputs":[],"stateMutability":"payable"},{"type":"function","name":"completeOwnershipHandover","inputs":[{"name":"pendingOwner","type":"address","internalType":"address"}],"outputs":[],"stateMutability":"payable"},{"type":"function","name":"extractRaw","inputs":[{"name":"entity","type":"uint256","internalType":"uint256"}],"outputs":[{"name":"","type":"bytes","internalType":"bytes"}],"stateMutability":"nonpayable"},{"type":"function","name":"extractRawBatch","inputs":[{"name":"entities","type":"uint256[]","internalType":"uint256[]"}],"outputs":[{"name":"","type":"bytes[]","internalType":"bytes[]"}],"stateMutability":"nonpayable"},{"type":"function","name":"getAt","inputs":[{"name":"value","type":"bytes","internalType":"bytes"},{"name":"index","type":"uint256","internalType":"uint256"}],"outputs":[{"name":"","type":"uint256","internalType":"uint256"}],"stateMutability":"view"},{"type":"function","name":"getEntities","inputs":[],"outputs":[{"name":"","type":"uint256[]","internalType":"uint256[]"}],"stateMutability":"view"},{"type":"function","name":"getEntitiesWithValue","inputs":[{"name":"value","type":"bytes","internalType":"bytes"}],"outputs":[{"name":"","type":"uint256[]","internalType":"uint256[]"}],"stateMutability":"view"},{"type":"function","name":"getRaw","inputs":[{"name":"entity","type":"uint256","internalType":"uint256"}],"outputs":[{"name":"","type":"bytes","internalType":"bytes"}],"stateMutability":"view"},{"type":"function","name":"getRawBatch","inputs":[{"name":"entities","type":"uint256[]","internalType":"uint256[]"}],"outputs":[{"name":"","type":"bytes[]","internalType":"bytes[]"}],"stateMutability":"view"},{"type":"function","name":"has","inputs":[{"name":"entity","type":"uint256","internalType":"uint256"}],"outputs":[{"name":"","type":"bool","internalType":"bool"}],"stateMutability":"view"},{"type":"function","name":"id","inputs":[],"outputs":[{"name":"","type":"uint256","internalType":"uint256"}],"stateMutability":"view"},{"type":"function","name":"owner","inputs":[],"outputs":[{"name":"result","type":"address","internalType":"address"}],"stateMutability":"view"},{"type":"function","name":"ownershipHandoverExpiresAt","inputs":[{"name":"pendingOwner","type":"address","internalType":"address"}],"outputs":[{"name":"result","type":"uint256","internalType":"uint256"}],"stateMutability":"view"},{"type":"function","name":"registerWorld","inputs":[{"name":"_world","type":"address","internalType":"address"}],"outputs":[],"stateMutability":"nonpayable"},{"type":"function","name":"remove","inputs":[{"name":"entity","type":"uint256","internalType":"uint256"}],"outputs":[],"stateMutability":"nonpayable"},{"type":"function","name":"removeBatch","inputs":[{"name":"entities","type":"uint256[]","internalType":"uint256[]"}],"outputs":[],"stateMutability":"nonpayable"},{"type":"function","name":"renounceOwnership","inputs":[],"outputs":[],"stateMutability":"payable"},{"type":"function","name":"requestOwnershipHandover","inputs":[],"outputs":[],"stateMutability":"payable"},{"type":"function","name":"set","inputs":[{"name":"entity","type":"uint256","internalType":"uint256"},{"name":"value","type":"bytes","internalType":"bytes"}],"outputs":[],"stateMutability":"nonpayable"},{"type":"function","name":"setBatch","inputs":[{"name":"entities","type":"uint256[]","internalType":"uint256[]"},{"name":"values","type":"bytes[]","internalType":"bytes[]"}],"outputs":[],"stateMutability":"nonpayable"},{"type":"function","name":"size","inputs":[{"name":"value","type":"bytes","internalType":"bytes"}],"outputs":[{"name":"","type":"uint256","internalType":"uint256"}],"stateMutability":"view"},{"type":"function","name":"transferOwnership","inputs":[{"name":"newOwner","type":"address","internalType":"address"}],"outputs":[],"stateMutability":"payable"},{"type":"function","name":"unauthorizeWriter","inputs":[{"name":"writer","type":"address","internalType":"address"}],"outputs":[],"stateMutability":"nonpayable"},{"type":"function","name":"world","inputs":[],"outputs":[{"name":"","type":"address","internalType":"address"}],"stateMutability":"view"},{"type":"function","name":"writeAccess","inputs":[{"name":"operator","type":"address","internalType":"address"}],"outputs":[{"name":"","type":"bool","internalType":"bool"}],"stateMutability":"view"},{"type":"event","name":"OwnershipHandoverCanceled","inputs":[{"name":"pendingOwner","type":"address","indexed":true,"internalType":"address"}],"anonymous":false},{"type":"event","name":"OwnershipHandoverRequested","inputs":[{"name":"pendingOwner","type":"address","indexed":true,"internalType":"address"}],"anonymous":false},{"type":"event","name":"OwnershipTransferred","inputs":[{"name":"oldOwner","type":"address","indexed":true,"internalType":"address"},{"name":"newOwner","type":"address","indexed":true,"internalType":"address"}],"anonymous":false},{"type":"error","name":"AlreadyInitialized","inputs":[]},{"type":"error","name":"BareComponent__NotImplemented","inputs":[]},{"type":"error","name":"BatchOp_UnexpectedLength","inputs":[]},{"type":"error","name":"NewOwnerIsZeroAddress","inputs":[]},{"type":"error","name":"NoHandoverRequest","inputs":[]},{"type":"error","name":"OwnableWritable__NotWriter","inputs":[]},{"type":"error","name":"Unauthorized","inputs":[]},{"type":"error","name":"ZeroValueNotAllowed","inputs":[]}],"bytecode":{"object":"0x60806040523480156200001157600080fd5b50604051620023bb380380620023bb83398101604081905262000034916200016e565b807fff3416ab9fcb2796ae0430517357c82334bd68de11bbd05274cb6cf2373b8c44818162000063336200008e565b60028190556001600160a01b0382161562000083576200008382620000ca565b5050505050620001a0565b6001600160a01b0316638b78c6d8198190558060007f8be0079c531659141344cd1fd0a4f28419497f9722a3daafe3b4186f6b6457e08180a350565b620000d462000150565b600080546001600160a01b0319166001600160a01b038316908117909155600254604051630f30347760e41b8152306004820152602481019190915263f303477090604401600060405180830381600087803b1580156200013457600080fd5b505af115801562000149573d6000803e3d6000fd5b5050505050565b638b78c6d8195433146200016c576382b429006000526004601cfd5b565b6000602082840312156200018157600080fd5b81516001600160a01b03811681146200019957600080fd5b9392505050565b61220b80620001b06000396000f3fe6080604052600436106101ac5760003560e01c8063861eb905116100ec578063bf4fe57e1161008a578063e9ff6c7611610064578063e9ff6c76146104de578063f04e283e146104fe578063f2fde38b14610511578063fee81cf41461052457600080fd5b8063bf4fe57e14610471578063cccf7a8e14610491578063dd98e3c9146104b157600080fd5b80639d2c76b4116100c65780639d2c76b4146103e7578063af640d0f14610407578063b361be461461041d578063b3cea2171461043d57600080fd5b8063861eb905146103635780638b282947146103935780638da5cb5b146103b357600080fd5b80634323c4ef1161015957806354d1f13d1161013357806354d1f13d146103135780636f9aa1551461031b578063715018a61461033b5780638482643e1461034357600080fd5b80634323c4ef146102b35780634cc82215146102d35780634fef6a38146102f357600080fd5b8063256929621161018a578063256929621461023757806330b67baa1461023f57806331b933b91461029157600080fd5b806312b11155146101b157806313ca8b6a146101e75780631c5ee10c14610209575b600080fd5b3480156101bd57600080fd5b506101d16101cc366004611b46565b610557565b6040516101de9190611be7565b60405180910390f35b3480156101f357600080fd5b50610207610202366004611cf5565b6105a7565b005b34801561021557600080fd5b50610229610224366004611dca565b6105f4565b6040519081526020016101de565b610207610618565b34801561024b57600080fd5b5060005461026c9073ffffffffffffffffffffffffffffffffffffffff1681565b60405173ffffffffffffffffffffffffffffffffffffffff90911681526020016101de565b34801561029d57600080fd5b506102a6610668565b6040516101de9190611dff565b3480156102bf57600080fd5b506101d16102ce366004611b46565b61069c565b3480156102df57600080fd5b506102076102ee366004611e43565b6107e8565b3480156102ff57600080fd5b5061020761030e366004611e5c565b610833565b6102076108a9565b34801561032757600080fd5b50610229610336366004611e92565b6108e5565b61020761090f565b34801561034f57600080fd5b5061020761035e366004611b46565b610923565b34801561036f57600080fd5b5061038361037e366004611e5c565b61096b565b60405190151581526020016101de565b34801561039f57600080fd5b506102076103ae366004611ed7565b6109fa565b3480156103bf57600080fd5b507fffffffffffffffffffffffffffffffffffffffffffffffffffffffff748739275461026c565b3480156103f357600080fd5b50610207610402366004611e5c565b610a43565b34801561041357600080fd5b5061022960025481565b34801561042957600080fd5b506102a6610438366004611dca565b610b04565b34801561044957600080fd5b506102297fff3416ab9fcb2796ae0430517357c82334bd68de11bbd05274cb6cf2373b8c4481565b34801561047d57600080fd5b5061020761048c366004611e5c565b610b0f565b34801561049d57600080fd5b506103836104ac366004611e43565b610b82565b3480156104bd57600080fd5b506104d16104cc366004611e43565b610ba4565b6040516101de9190611f1e565b3480156104ea57600080fd5b506104d16104f9366004611e43565b610baf565b61020761050c366004611e5c565b610bf9565b61020761051f366004611e5c565b610c36565b34801561053057600080fd5b5061022961053f366004611e5c565b63389a75e1600c908152600091909152602090205490565b60606105623361096b565b610598576040517f406ed3da00000000000000000000000000000000000000000000000000000000815260040160405180910390fd5b6105a182610c5d565b92915050565b6105b03361096b565b6105e6576040517f406ed3da00000000000000000000000000000000000000000000000000000000815260040160405180910390fd5b6105f08282610c75565b5050565b60006105a16003600084805190602001208152602001908152602001600020610e09565b60006202a30067ffffffffffffffff164201905063389a75e1600c5233600052806020600c2055337fdbf36a107da19e49527a7176a1babf963b4b0ff8cde35ee35d6cd8f1f9ac7e1d600080a250565b60606040517f17d5b8e800000000000000000000000000000000000000000000000000000000815260040160405180910390fd5b60606000825167ffffffffffffffff8111156106ba576106ba611a39565b6040519080825280602002602001820160405280156106ed57816020015b60608152602001906001900390816106d85790505b50905060005b83518110156107e1576001600085838151811061071257610712611f31565b60200260200101518152602001908152602001600020805461073390611f60565b80601f016020809104026020016040519081016040528092919081815260200182805461075f90611f60565b80156107ac5780601f10610781576101008083540402835291602001916107ac565b820191906000526020600020905b81548152906001019060200180831161078f57829003601f168201915b50505050508282815181106107c3576107c3611f31565b602002602001018190525080806107d990611fe2565b9150506106f3565b5092915050565b6107f13361096b565b610827576040517f406ed3da00000000000000000000000000000000000000000000000000000000815260040160405180910390fd5b61083081610e13565b50565b61083b610ee6565b73ffffffffffffffffffffffffffffffffffffffff1660009081527f8ffeadc5cba727b8cc3cdef48739619490ea317fdb3baae1259089d06f92c9096020526040902080547fffffffffffffffffffffffffffffffffffffffffffffffffffffffffffffff00166001179055565b63389a75e1600c523360005260006020600c2055337ffa7b8eab7da67f412cc9575ed43464468f9bfbae89d1675917346ca6d8fe3c92600080a2565b815160208084019190912060009081526003909152604081206109089083610f1c565b9392505050565b610917610ee6565b6109216000610f28565b565b61092c3361096b565b610962576040517f406ed3da00000000000000000000000000000000000000000000000000000000815260040160405180910390fd5b61083081610f8e565b73ffffffffffffffffffffffffffffffffffffffff811660009081527f8ffeadc5cba727b8cc3cdef48739619490ea317fdb3baae1259089d06f92c909602052604081205460ff16806105a15750507fffffffffffffffffffffffffffffffffffffffffffffffffffffffff748739275473ffffffffffffffffffffffffffffffffffffffff91821691161490565b610a033361096b565b610a39576040517f406ed3da00000000000000000000000000000000000000000000000000000000815260040160405180910390fd5b6105f08282611096565b610a4b610ee6565b600080547fffffffffffffffffffffffff00000000000000000000000000000000000000001673ffffffffffffffffffffffffffffffffffffffff83169081179091556002546040517ff3034770000000000000000000000000000000000000000000000000000000008152306004820152602481019190915263f3034770906044015b600060405180830381600087803b158015610ae957600080fd5b505af1158015610afd573d6000803e3d6000fd5b5050505050565b60606105a182611191565b610b17610ee6565b73ffffffffffffffffffffffffffffffffffffffff1660009081527f8ffeadc5cba727b8cc3cdef48739619490ea317fdb3baae1259089d06f92c9096020526040902080547fffffffffffffffffffffffffffffffffffffffffffffffffffffffffffffff00169055565b60008181526001602052604081208054610b9b90611f60565b15159392505050565b60606105a1826111b5565b6060610bba3361096b565b610bf0576040517f406ed3da00000000000000000000000000000000000000000000000000000000815260040160405180910390fd5b6105a182611257565b610c01610ee6565b63389a75e1600c52806000526020600c208054421115610c2957636f5e88186000526004601cfd5b6000905561083081610f28565b610c3e610ee6565b8060601b610c5457637448fbae6000526004601cfd5b61083081610f28565b60606000610c6a83611277565b90506105a183610f8e565b60005b8251811015610dfe57600060016000858481518110610c9957610c99611f31565b602002602001015181526020019081526020016000208054610cba90611f60565b80601f0160208091040260200160405190810160405280929190818152602001828054610ce690611f60565b8015610d335780601f10610d0857610100808354040283529160200191610d33565b820191906000526020600020905b815481529060010190602001808311610d1657829003601f168201915b50505050509050600081511115610d8b57610d89848381518110610d5957610d59611f31565b602002602001015160036000848051906020012081526020019081526020016000206113bc90919063ffffffff16565b505b610de9848381518110610da057610da0611f31565b602002602001015160036000868681518110610dbe57610dbe611f31565b60200260200101518051906020012081526020019081526020016000206113c890919063ffffffff16565b50508080610df690611fe2565b915050610c78565b506105f082826113d4565b60006105a1825490565b60008181526001602052604081208054610e2c90611f60565b80601f0160208091040260200160405190810160405280929190818152602001828054610e5890611f60565b8015610ea55780601f10610e7a57610100808354040283529160200191610ea5565b820191906000526020600020905b815481529060010190602001808311610e8857829003601f168201915b505050505090508051600003610eb9575050565b80516020808301919091206000908152600390915260409020610edc90836113bc565b506105f0826115b2565b7fffffffffffffffffffffffffffffffffffffffffffffffffffffffff74873927543314610921576382b429006000526004601cfd5b60006109088383611620565b7fffffffffffffffffffffffffffffffffffffffffffffffffffffffff74873927805473ffffffffffffffffffffffffffffffffffffffff9092169182907f8be0079c531659141344cd1fd0a4f28419497f9722a3daafe3b4186f6b6457e0600080a355565b60005b815181101561108c57600060016000848481518110610fb257610fb2611f31565b602002602001015181526020019081526020016000208054610fd390611f60565b80601f0160208091040260200160405190810160405280929190818152602001828054610fff90611f60565b801561104c5780601f106110215761010080835404028352916020019161104c565b820191906000526020600020905b81548152906001019060200180831161102f57829003601f168201915b505050505090508051600003611062575061107a565b611077838381518110610d5957610d59611f31565b50505b8061108481611fe2565b915050610f91565b506108308161164a565b600082815260016020526040812080546110af90611f60565b80601f01602080910402602001604051908101604052809291908181526020018280546110db90611f60565b80156111285780601f106110fd57610100808354040283529160200191611128565b820191906000526020600020905b81548152906001019060200180831161110b57829003601f168201915b5050505050905060008151111561115e578051602080830191909120600090815260039091526040902061115c90846113bc565b505b8151602080840191909120600090815260039091526040902061118190846113c8565b5061118c838361175f565b505050565b60606105a16003600084805190602001208152602001908152602001600020611841565b60008181526001602052604090208054606091906111d290611f60565b80601f01602080910402602001604051908101604052809291908181526020018280546111fe90611f60565b801561124b5780601f106112205761010080835404028352916020019161124b565b820191906000526020600020905b81548152906001019060200180831161122e57829003601f168201915b50505050509050919050565b60606000611264836111b5565b8051909150156105a1576105a183610e13565b60606000825167ffffffffffffffff81111561129557611295611a39565b6040519080825280602002602001820160405280156112c857816020015b60608152602001906001900390816112b35790505b50905060005b83518110156107e157600160008583815181106112ed576112ed611f31565b60200260200101518152602001908152602001600020805461130e90611f60565b80601f016020809104026020016040519081016040528092919081815260200182805461133a90611f60565b80156113875780601f1061135c57610100808354040283529160200191611387565b820191906000526020600020905b81548152906001019060200180831161136a57829003601f168201915b505050505082828151811061139e5761139e611f31565b602002602001018190525080806113b490611fe2565b9150506112ce565b6000610908838361184e565b60006109088383611941565b805182511461140f576040517fc291f68400000000000000000000000000000000000000000000000000000000815260040160405180910390fd5b60005b82518110156114d45781818151811061142d5761142d611f31565b60200260200101515160000361146f576040517f9cf8540c00000000000000000000000000000000000000000000000000000000815260040160405180910390fd5b81818151811061148157611481611f31565b60200260200101516001600085848151811061149f5761149f611f31565b6020026020010151815260200190815260200160002090816114c19190612060565b50806114cc81611fe2565b915050611412565b506000805473ffffffffffffffffffffffffffffffffffffffff16905b83518110156115ac578173ffffffffffffffffffffffffffffffffffffffff1663cfd3c57f85838151811061152857611528611f31565b602002602001015185848151811061154257611542611f31565b60200260200101516040518363ffffffff1660e01b815260040161156792919061217a565b600060405180830381600087803b15801561158157600080fd5b505af1158015611595573d6000803e3d6000fd5b5050505080806115a490611fe2565b9150506114f1565b50505050565b60008181526001602052604081206115c9916119eb565b6000546040517f0de3b7b50000000000000000000000000000000000000000000000000000000081526004810183905273ffffffffffffffffffffffffffffffffffffffff90911690630de3b7b590602401610acf565b600082600001828154811061163757611637611f31565b9060005260206000200154905092915050565b60005b81518110156116a0576001600083838151811061166c5761166c611f31565b60200260200101518152602001908152602001600020600061168e91906119eb565b8061169881611fe2565b91505061164d565b506000805473ffffffffffffffffffffffffffffffffffffffff16905b825181101561118c578173ffffffffffffffffffffffffffffffffffffffff16630de3b7b58483815181106116f4576116f4611f31565b60200260200101516040518263ffffffff1660e01b815260040161171a91815260200190565b600060405180830381600087803b15801561173457600080fd5b505af1158015611748573d6000803e3d6000fd5b50505050808061175790611fe2565b9150506116bd565b805160000361179a576040517f9cf8540c00000000000000000000000000000000000000000000000000000000815260040160405180910390fd5b60008281526001602052604090206117b28282612060565b506000546040517fcfd3c57f00000000000000000000000000000000000000000000000000000000815273ffffffffffffffffffffffffffffffffffffffff9091169063cfd3c57f9061180b908590859060040161217a565b600060405180830381600087803b15801561182557600080fd5b505af1158015611839573d6000803e3d6000fd5b505050505050565b6060600061090883611990565b60008181526001830160205260408120548015611937576000611872600183612193565b855490915060009061188690600190612193565b90508181146118eb5760008660000182815481106118a6576118a6611f31565b90600052602060002001549050808760000184815481106118c9576118c9611f31565b6000918252602080832090910192909255918252600188019052604090208390555b85548690806118fc576118fc6121a6565b6001900381819060005260206000200160009055905585600101600086815260200190815260200160002060009055600193505050506105a1565b60009150506105a1565b6000818152600183016020526040812054611988575081546001818101845560008481526020808220909301849055845484825282860190935260409020919091556105a1565b5060006105a1565b60608160000180548060200260200160405190810160405280929190818152602001828054801561124b57602002820191906000526020600020905b8154815260200190600101908083116119cc5750505050509050919050565b5080546119f790611f60565b6000825580601f10611a07575050565b601f01602090049060005260206000209081019061083091905b80821115611a355760008155600101611a21565b5090565b7f4e487b7100000000000000000000000000000000000000000000000000000000600052604160045260246000fd5b604051601f82017fffffffffffffffffffffffffffffffffffffffffffffffffffffffffffffffe016810167ffffffffffffffff81118282101715611aaf57611aaf611a39565b604052919050565b600067ffffffffffffffff821115611ad157611ad1611a39565b5060051b60200190565b600082601f830112611aec57600080fd5b81356020611b01611afc83611ab7565b611a68565b82815260059290921b84018101918181019086841115611b2057600080fd5b8286015b84811015611b3b5780358352918301918301611b24565b509695505050505050565b600060208284031215611b5857600080fd5b813567ffffffffffffffff811115611b6f57600080fd5b611b7b84828501611adb565b949350505050565b6000815180845260005b81811015611ba957602081850181015186830182015201611b8d565b5060006020828601015260207fffffffffffffffffffffffffffffffffffffffffffffffffffffffffffffffe0601f83011685010191505092915050565b6000602080830181845280855180835260408601915060408160051b870101925083870160005b82811015611c5a577fffffffffffffffffffffffffffffffffffffffffffffffffffffffffffffffc0888603018452611c48858351611b83565b94509285019290850190600101611c0e565b5092979650505050505050565b600082601f830112611c7857600080fd5b813567ffffffffffffffff811115611c9257611c92611a39565b611cc360207fffffffffffffffffffffffffffffffffffffffffffffffffffffffffffffffe0601f84011601611a68565b818152846020838601011115611cd857600080fd5b816020850160208301376000918101602001919091529392505050565b60008060408385031215611d0857600080fd5b823567ffffffffffffffff80821115611d2057600080fd5b611d2c86838701611adb565b9350602091508185013581811115611d4357600080fd5b8501601f81018713611d5457600080fd5b8035611d62611afc82611ab7565b81815260059190911b82018401908481019089831115611d8157600080fd5b8584015b83811015611db957803586811115611d9d5760008081fd5b611dab8c8983890101611c67565b845250918601918601611d85565b508096505050505050509250929050565b600060208284031215611ddc57600080fd5b813567ffffffffffffffff811115611df357600080fd5b611b7b84828501611c67565b6020808252825182820181905260009190848201906040850190845b81811015611e3757835183529284019291840191600101611e1b565b50909695505050505050565b600060208284031215611e5557600080fd5b5035919050565b600060208284031215611e6e57600080fd5b813573ffffffffffffffffffffffffffffffffffffffff8116811461090857600080fd5b60008060408385031215611ea557600080fd5b823567ffffffffffffffff811115611ebc57600080fd5b611ec885828601611c67565b95602094909401359450505050565b60008060408385031215611eea57600080fd5b82359150602083013567ffffffffffffffff811115611f0857600080fd5b611f1485828601611c67565b9150509250929050565b6020815260006109086020830184611b83565b7f4e487b7100000000000000000000000000000000000000000000000000000000600052603260045260246000fd5b600181811c90821680611f7457607f821691505b602082108103611fad577f4e487b7100000000000000000000000000000000000000000000000000000000600052602260045260246000fd5b50919050565b7f4e487b7100000000000000000000000000000000000000000000000000000000600052601160045260246000fd5b60007fffffffffffffffffffffffffffffffffffffffffffffffffffffffffffffffff820361201357612013611fb3565b5060010190565b601f82111561118c57600081815260208120601f850160051c810160208610156120415750805b601f850160051c820191505b818110156118395782815560010161204d565b815167ffffffffffffffff81111561207a5761207a611a39565b61208e816120888454611f60565b8461201a565b602080601f8311600181146120e157600084156120ab5750858301515b7fffffffffffffffffffffffffffffffffffffffffffffffffffffffffffffffff600386901b1c1916600185901b178555611839565b6000858152602081207fffffffffffffffffffffffffffffffffffffffffffffffffffffffffffffffe08616915b8281101561212e5788860151825594840194600190910190840161210f565b508582101561216a57878501517fffffffffffffffffffffffffffffffffffffffffffffffffffffffffffffffff600388901b60f8161c191681555b5050505050600190811b01905550565b828152604060208201526000611b7b6040830184611b83565b818103818111156105a1576105a1611fb3565b7f4e487b7100000000000000000000000000000000000000000000000000000000600052603160045260246000fdfea2646970667358221220e4a71fbd8a91e247242408fa19fd38d8efb65deb950b6c8a530d9d39b20ae30f64736f6c63430008110033","linkReferences":{}},"methodIdentifiers":{"ID()":"b3cea217","authorizeWriter(address)":"4fef6a38","cancelOwnershipHandover()":"54d1f13d","completeOwnershipHandover(address)":"f04e283e","extractRaw(uint256)":"e9ff6c76","extractRawBatch(uint256[])":"12b11155","getAt(bytes,uint256)":"6f9aa155","getEntities()":"31b933b9","getEntitiesWithValue(bytes)":"b361be46","getRaw(uint256)":"dd98e3c9","getRawBatch(uint256[])":"4323c4ef","has(uint256)":"cccf7a8e","id()":"af640d0f","owner()":"8da5cb5b","ownershipHandoverExpiresAt(address)":"fee81cf4","registerWorld(address)":"9d2c76b4","remove(uint256)":"4cc82215","removeBatch(uint256[])":"8482643e","renounceOwnership()":"715018a6","requestOwnershipHandover()":"25692962","set(uint256,bytes)":"8b282947","setBatch(uint256[],bytes[])":"13ca8b6a","size(bytes)":"1c5ee10c","transferOwnership(address)":"f2fde38b","unauthorizeWriter(address)":"bf4fe57e","world()":"30b67baa","writeAccess(address)":"861eb905"},"id":249}