{"abi":[{"type":"constructor","inputs":[{"name":"world","type":"address","internalType":"address"}],"stateMutability":"nonpayable"},{"type":"function","name":"authorizeWriter","inputs":[{"name":"writer","type":"address","internalType":"address"}],"outputs":[],"stateMutability":"nonpayable"},{"type":"function","name":"cancelOwnershipHandover","inputs":[],"outputs":[],"stateMutability":"payable"},{"type":"function","name":"completeOwnershipHandover","inputs":[{"name":"pendingOwner","type":"address","internalType":"address"}],"outputs":[],"stateMutability":"payable"},{"type":"function","name":"extractRaw","inputs":[{"name":"entity","type":"uint256","internalType":"uint256"}],"outputs":[{"name":"","type":"bytes","internalType":"bytes"}],"stateMutability":"nonpayable"},{"type":"function","name":"extractRawBatch","inputs":[{"name":"entities","type":"uint256[]","internalType":"uint256[]"}],"outputs":[{"name":"","type":"bytes[]","internalType":"bytes[]"}],"stateMutability":"nonpayable"},{"type":"function","name":"get","inputs":[{"name":"entity","type":"uint256","internalType":"uint256"}],"outputs":[{"name":"","type":"tuple","internalType":"struct TimelockOp","components":[{"name":"target","type":"address","internalType":"address"},{"name":"value","type":"uint256","internalType":"uint256"},{"name":"salt","type":"uint256","internalType":"uint256"}]}],"stateMutability":"view"},{"type":"function","name":"getAt","inputs":[{"name":"value","type":"bytes","internalType":"bytes"},{"name":"index","type":"uint256","internalType":"uint256"}],"outputs":[{"name":"","type":"uint256","internalType":"uint256"}],"stateMutability":"view"},{"type":"function","name":"getEntities","inputs":[],"outputs":[{"name":"","type":"uint256[]","internalType":"uint256[]"}],"stateMutability":"view"},{"type":"function","name":"getEntitiesWithValue","inputs":[{"name":"value","type":"tuple","internalType":"struct TimelockOp","components":[{"name":"target","type":"address","internalType":"address"},{"name":"value","type":"uint256","internalType":"uint256"},{"name":"salt","type":"uint256","internalType":"uint256"}]}],"outputs":[{"name":"","type":"uint256[]","internalType":"uint256[]"}],"stateMutability":"view"},{"type":"function","name":"getEntitiesWithValue","inputs":[{"name":"value","type":"bytes","internalType":"bytes"}],"outputs":[{"name":"","type":"uint256[]","internalType":"uint256[]"}],"stateMutability":"view"},{"type":"function","name":"getRaw","inputs":[{"name":"entity","type":"uint256","internalType":"uint256"}],"outputs":[{"name":"","type":"bytes","internalType":"bytes"}],"stateMutability":"view"},{"type":"function","name":"getRawBatch","inputs":[{"name":"entities","type":"uint256[]","internalType":"uint256[]"}],"outputs":[{"name":"","type":"bytes[]","internalType":"bytes[]"}],"stateMutability":"view"},{"type":"function","name":"has","inputs":[{"name":"entity","type":"uint256","internalType":"uint256"}],"outputs":[{"name":"","type":"bool","internalType":"bool"}],"stateMutability":"view"},{"type":"function","name":"id","inputs":[],"outputs":[{"name":"","type":"uint256","internalType":"uint256"}],"stateMutability":"view"},{"type":"function","name":"owner","inputs":[],"outputs":[{"name":"result","type":"address","internalType":"address"}],"stateMutability":"view"},{"type":"function","name":"ownershipHandoverExpiresAt","inputs":[{"name":"pendingOwner","type":"address","internalType":"address"}],"outputs":[{"name":"result","type":"uint256","internalType":"uint256"}],"stateMutability":"view"},{"type":"function","name":"registerWorld","inputs":[{"name":"_world","type":"address","internalType":"address"}],"outputs":[],"stateMutability":"nonpayable"},{"type":"function","name":"remove","inputs":[{"name":"entity","type":"uint256","internalType":"uint256"}],"outputs":[],"stateMutability":"nonpayable"},{"type":"function","name":"removeBatch","inputs":[{"name":"entities","type":"uint256[]","internalType":"uint256[]"}],"outputs":[],"stateMutability":"nonpayable"},{"type":"function","name":"renounceOwnership","inputs":[],"outputs":[],"stateMutability":"payable"},{"type":"function","name":"requestOwnershipHandover","inputs":[],"outputs":[],"stateMutability":"payable"},{"type":"function","name":"set","inputs":[{"name":"entity","type":"uint256","internalType":"uint256"},{"name":"value","type":"tuple","internalType":"struct TimelockOp","components":[{"name":"target","type":"address","internalType":"address"},{"name":"value","type":"uint256","internalType":"uint256"},{"name":"salt","type":"uint256","internalType":"uint256"}]}],"outputs":[],"stateMutability":"nonpayable"},{"type":"function","name":"set","inputs":[{"name":"entity","type":"uint256","internalType":"uint256"},{"name":"value","type":"bytes","internalType":"bytes"}],"outputs":[],"stateMutability":"nonpayable"},{"type":"function","name":"setBatch","inputs":[{"name":"entities","type":"uint256[]","internalType":"uint256[]"},{"name":"values","type":"bytes[]","internalType":"bytes[]"}],"outputs":[],"stateMutability":"nonpayable"},{"type":"function","name":"size","inputs":[{"name":"value","type":"bytes","internalType":"bytes"}],"outputs":[{"name":"","type":"uint256","internalType":"uint256"}],"stateMutability":"view"},{"type":"function","name":"transferOwnership","inputs":[{"name":"newOwner","type":"address","internalType":"address"}],"outputs":[],"stateMutability":"payable"},{"type":"function","name":"unauthorizeWriter","inputs":[{"name":"writer","type":"address","internalType":"address"}],"outputs":[],"stateMutability":"nonpayable"},{"type":"function","name":"world","inputs":[],"outputs":[{"name":"","type":"address","internalType":"address"}],"stateMutability":"view"},{"type":"function","name":"writeAccess","inputs":[{"name":"operator","type":"address","internalType":"address"}],"outputs":[{"name":"","type":"bool","internalType":"bool"}],"stateMutability":"view"},{"type":"event","name":"OwnershipHandoverCanceled","inputs":[{"name":"pendingOwner","type":"address","indexed":true,"internalType":"address"}],"anonymous":false},{"type":"event","name":"OwnershipHandoverRequested","inputs":[{"name":"pendingOwner","type":"address","indexed":true,"internalType":"address"}],"anonymous":false},{"type":"event","name":"OwnershipTransferred","inputs":[{"name":"oldOwner","type":"address","indexed":true,"internalType":"address"},{"name":"newOwner","type":"address","indexed":true,"internalType":"address"}],"anonymous":false},{"type":"error","name":"AlreadyInitialized","inputs":[]},{"type":"error","name":"BareComponent__NotImplemented","inputs":[]},{"type":"error","name":"BatchOp_UnexpectedLength","inputs":[]},{"type":"error","name":"NewOwnerIsZeroAddress","inputs":[]},{"type":"error","name":"NoHandoverRequest","inputs":[]},{"type":"error","name":"OwnableWritable__NotWriter","inputs":[]},{"type":"error","name":"Unauthorized","inputs":[]},{"type":"error","name":"ZeroValueNotAllowed","inputs":[]}],"bytecode":{"object":"0x60806040523480156200001157600080fd5b50604051620026543803806200265483398101604081905262000034916200016e565b807f3f3f63e9cdb5140cea59571af34200e7324c7aff808efe1fc400623499d86f05818162000063336200008e565b60028190556001600160a01b0382161562000083576200008382620000ca565b5050505050620001a0565b6001600160a01b0316638b78c6d8198190558060007f8be0079c531659141344cd1fd0a4f28419497f9722a3daafe3b4186f6b6457e08180a350565b620000d462000150565b600080546001600160a01b0319166001600160a01b038316908117909155600254604051630f30347760e41b8152306004820152602481019190915263f303477090604401600060405180830381600087803b1580156200013457600080fd5b505af115801562000149573d6000803e3d6000fd5b5050505050565b638b78c6d8195433146200016c576382b429006000526004601cfd5b565b6000602082840312156200018157600080fd5b81516001600160a01b03811681146200019957600080fd5b9392505050565b6124a480620001b06000396000f3fe6080604052600436106101c25760003560e01c80638482643e116100f7578063b361be4611610095578063e9ff6c7611610064578063e9ff6c7614610558578063f04e283e14610578578063f2fde38b1461058b578063fee81cf41461059e57600080fd5b8063b361be46146104cb578063bf4fe57e146104eb578063cccf7a8e1461050b578063dd98e3c91461052b57600080fd5b80638da5cb5b116100d15780638da5cb5b146104095780639507d39a1461043d5780639d2c76b414610495578063af640d0f146104b557600080fd5b80638482643e14610399578063861eb905146103b95780638b282947146103e957600080fd5b80634323c4ef1161016457806354d1f13d1161013e57806354d1f13d146103495780635ed453f7146103515780636f9aa15514610371578063715018a61461039157600080fd5b80634323c4ef146102e95780634cc82215146103095780634fef6a381461032957600080fd5b80631c5ee10c116101a05780631c5ee10c1461023f578063256929621461026d57806330b67baa1461027557806331b933b9146102c757600080fd5b806301649c51146101c757806312b11155146101e957806313ca8b6a1461021f575b600080fd5b3480156101d357600080fd5b506101e76101e2366004611cbe565b6105d1565b005b3480156101f557600080fd5b50610209610204366004611d7a565b610627565b6040516102169190611e1b565b60405180910390f35b34801561022b57600080fd5b506101e761023a366004611f29565b610677565b34801561024b57600080fd5b5061025f61025a366004611ffe565b6106c0565b604051908152602001610216565b6101e76106e4565b34801561028157600080fd5b506000546102a29073ffffffffffffffffffffffffffffffffffffffff1681565b60405173ffffffffffffffffffffffffffffffffffffffff9091168152602001610216565b3480156102d357600080fd5b506102dc610734565b6040516102169190612033565b3480156102f557600080fd5b50610209610304366004611d7a565b610768565b34801561031557600080fd5b506101e7610324366004612077565b6108b4565b34801561033557600080fd5b506101e7610344366004612090565b6108ff565b6101e7610975565b34801561035d57600080fd5b506102dc61036c3660046120ad565b6109b1565b34801561037d57600080fd5b5061025f61038c3660046120c9565b610a0d565b6101e7610a37565b3480156103a557600080fd5b506101e76103b4366004611d7a565b610a4b565b3480156103c557600080fd5b506103d96103d4366004612090565b610a93565b6040519015158152602001610216565b3480156103f557600080fd5b506101e761040436600461210e565b610b22565b34801561041557600080fd5b507fffffffffffffffffffffffffffffffffffffffffffffffffffffffff74873927546102a2565b34801561044957600080fd5b5061045d610458366004612077565b610b6b565b60408051825173ffffffffffffffffffffffffffffffffffffffff168152602080840151908201529181015190820152606001610216565b3480156104a157600080fd5b506101e76104b0366004612090565b610bc3565b3480156104c157600080fd5b5061025f60025481565b3480156104d757600080fd5b506102dc6104e6366004611ffe565b610c84565b3480156104f757600080fd5b506101e7610506366004612090565b610c8f565b34801561051757600080fd5b506103d9610526366004612077565b610d02565b34801561053757600080fd5b5061054b610546366004612077565b610d24565b6040516102169190612155565b34801561056457600080fd5b5061054b610573366004612077565b610d2f565b6101e7610586366004612090565b610d79565b6101e7610599366004612090565b610db6565b3480156105aa57600080fd5b5061025f6105b9366004612090565b63389a75e1600c908152600091909152602090205490565b60408051825173ffffffffffffffffffffffffffffffffffffffff1660208083019190915283015181830152908201516060820152610623908390608001604051602081830303815290604052610b22565b5050565b606061063233610a93565b610668576040517f406ed3da00000000000000000000000000000000000000000000000000000000815260040160405180910390fd5b61067182610ddd565b92915050565b61068033610a93565b6106b6576040517f406ed3da00000000000000000000000000000000000000000000000000000000815260040160405180910390fd5b6106238282610df5565b60006106716003600084805190602001208152602001908152602001600020610f89565b60006202a30067ffffffffffffffff164201905063389a75e1600c5233600052806020600c2055337fdbf36a107da19e49527a7176a1babf963b4b0ff8cde35ee35d6cd8f1f9ac7e1d600080a250565b60606040517f17d5b8e800000000000000000000000000000000000000000000000000000000815260040160405180910390fd5b60606000825167ffffffffffffffff81111561078657610786611bb9565b6040519080825280602002602001820160405280156107b957816020015b60608152602001906001900390816107a45790505b50905060005b83518110156108ad57600160008583815181106107de576107de612168565b6020026020010151815260200190815260200160002080546107ff90612197565b80601f016020809104026020016040519081016040528092919081815260200182805461082b90612197565b80156108785780601f1061084d57610100808354040283529160200191610878565b820191906000526020600020905b81548152906001019060200180831161085b57829003601f168201915b505050505082828151811061088f5761088f612168565b602002602001018190525080806108a590612219565b9150506107bf565b5092915050565b6108bd33610a93565b6108f3576040517f406ed3da00000000000000000000000000000000000000000000000000000000815260040160405180910390fd5b6108fc81610f93565b50565b610907611066565b73ffffffffffffffffffffffffffffffffffffffff1660009081527f8ffeadc5cba727b8cc3cdef48739619490ea317fdb3baae1259089d06f92c9096020526040902080547fffffffffffffffffffffffffffffffffffffffffffffffffffffffffffffff00166001179055565b63389a75e1600c523360005260006020600c2055337ffa7b8eab7da67f412cc9575ed43464468f9bfbae89d1675917346ca6d8fe3c92600080a2565b6060610671826040516020016109f99190815173ffffffffffffffffffffffffffffffffffffffff168152602080830151908201526040918201519181019190915260600190565b604051602081830303815290604052610c84565b81516020808401919091206000908152600390915260408120610a30908361109c565b9392505050565b610a3f611066565b610a4960006110a8565b565b610a5433610a93565b610a8a576040517f406ed3da00000000000000000000000000000000000000000000000000000000815260040160405180910390fd5b6108fc8161110e565b73ffffffffffffffffffffffffffffffffffffffff811660009081527f8ffeadc5cba727b8cc3cdef48739619490ea317fdb3baae1259089d06f92c909602052604081205460ff16806106715750507fffffffffffffffffffffffffffffffffffffffffffffffffffffffff748739275473ffffffffffffffffffffffffffffffffffffffff91821691161490565b610b2b33610a93565b610b61576040517f406ed3da00000000000000000000000000000000000000000000000000000000815260040160405180910390fd5b6106238282611216565b610ba56040518060600160405280600073ffffffffffffffffffffffffffffffffffffffff16815260200160008152602001600081525090565b6000610bb083610d24565b806020019051810190610a309190612251565b610bcb611066565b600080547fffffffffffffffffffffffff00000000000000000000000000000000000000001673ffffffffffffffffffffffffffffffffffffffff83169081179091556002546040517ff3034770000000000000000000000000000000000000000000000000000000008152306004820152602481019190915263f3034770906044015b600060405180830381600087803b158015610c6957600080fd5b505af1158015610c7d573d6000803e3d6000fd5b5050505050565b606061067182611311565b610c97611066565b73ffffffffffffffffffffffffffffffffffffffff1660009081527f8ffeadc5cba727b8cc3cdef48739619490ea317fdb3baae1259089d06f92c9096020526040902080547fffffffffffffffffffffffffffffffffffffffffffffffffffffffffffffff00169055565b60008181526001602052604081208054610d1b90612197565b15159392505050565b606061067182611335565b6060610d3a33610a93565b610d70576040517f406ed3da00000000000000000000000000000000000000000000000000000000815260040160405180910390fd5b610671826113d7565b610d81611066565b63389a75e1600c52806000526020600c208054421115610da957636f5e88186000526004601cfd5b600090556108fc816110a8565b610dbe611066565b8060601b610dd457637448fbae6000526004601cfd5b6108fc816110a8565b60606000610dea836113f7565b90506106718361110e565b60005b8251811015610f7e57600060016000858481518110610e1957610e19612168565b602002602001015181526020019081526020016000208054610e3a90612197565b80601f0160208091040260200160405190810160405280929190818152602001828054610e6690612197565b8015610eb35780601f10610e8857610100808354040283529160200191610eb3565b820191906000526020600020905b815481529060010190602001808311610e9657829003601f168201915b50505050509050600081511115610f0b57610f09848381518110610ed957610ed9612168565b6020026020010151600360008480519060200120815260200190815260200160002061153c90919063ffffffff16565b505b610f69848381518110610f2057610f20612168565b602002602001015160036000868681518110610f3e57610f3e612168565b602002602001015180519060200120815260200190815260200160002061154890919063ffffffff16565b50508080610f7690612219565b915050610df8565b506106238282611554565b6000610671825490565b60008181526001602052604081208054610fac90612197565b80601f0160208091040260200160405190810160405280929190818152602001828054610fd890612197565b80156110255780601f10610ffa57610100808354040283529160200191611025565b820191906000526020600020905b81548152906001019060200180831161100857829003601f168201915b505050505090508051600003611039575050565b8051602080830191909120600090815260039091526040902061105c908361153c565b5061062382611732565b7fffffffffffffffffffffffffffffffffffffffffffffffffffffffff74873927543314610a49576382b429006000526004601cfd5b6000610a3083836117a0565b7fffffffffffffffffffffffffffffffffffffffffffffffffffffffff74873927805473ffffffffffffffffffffffffffffffffffffffff9092169182907f8be0079c531659141344cd1fd0a4f28419497f9722a3daafe3b4186f6b6457e0600080a355565b60005b815181101561120c5760006001600084848151811061113257611132612168565b60200260200101518152602001908152602001600020805461115390612197565b80601f016020809104026020016040519081016040528092919081815260200182805461117f90612197565b80156111cc5780601f106111a1576101008083540402835291602001916111cc565b820191906000526020600020905b8154815290600101906020018083116111af57829003601f168201915b5050505050905080516000036111e257506111fa565b6111f7838381518110610ed957610ed9612168565b50505b8061120481612219565b915050611111565b506108fc816117ca565b6000828152600160205260408120805461122f90612197565b80601f016020809104026020016040519081016040528092919081815260200182805461125b90612197565b80156112a85780601f1061127d576101008083540402835291602001916112a8565b820191906000526020600020905b81548152906001019060200180831161128b57829003601f168201915b505050505090506000815111156112de57805160208083019190912060009081526003909152604090206112dc908461153c565b505b815160208084019190912060009081526003909152604090206113019084611548565b5061130c83836118df565b505050565b606061067160036000848051906020012081526020019081526020016000206119c1565b600081815260016020526040902080546060919061135290612197565b80601f016020809104026020016040519081016040528092919081815260200182805461137e90612197565b80156113cb5780601f106113a0576101008083540402835291602001916113cb565b820191906000526020600020905b8154815290600101906020018083116113ae57829003601f168201915b50505050509050919050565b606060006113e483611335565b8051909150156106715761067183610f93565b60606000825167ffffffffffffffff81111561141557611415611bb9565b60405190808252806020026020018201604052801561144857816020015b60608152602001906001900390816114335790505b50905060005b83518110156108ad576001600085838151811061146d5761146d612168565b60200260200101518152602001908152602001600020805461148e90612197565b80601f01602080910402602001604051908101604052809291908181526020018280546114ba90612197565b80156115075780601f106114dc57610100808354040283529160200191611507565b820191906000526020600020905b8154815290600101906020018083116114ea57829003601f168201915b505050505082828151811061151e5761151e612168565b6020026020010181905250808061153490612219565b91505061144e565b6000610a3083836119ce565b6000610a308383611ac1565b805182511461158f576040517fc291f68400000000000000000000000000000000000000000000000000000000815260040160405180910390fd5b60005b8251811015611654578181815181106115ad576115ad612168565b6020026020010151516000036115ef576040517f9cf8540c00000000000000000000000000000000000000000000000000000000815260040160405180910390fd5b81818151811061160157611601612168565b60200260200101516001600085848151811061161f5761161f612168565b60200260200101518152602001908152602001600020908161164191906122f9565b508061164c81612219565b915050611592565b506000805473ffffffffffffffffffffffffffffffffffffffff16905b835181101561172c578173ffffffffffffffffffffffffffffffffffffffff1663cfd3c57f8583815181106116a8576116a8612168565b60200260200101518584815181106116c2576116c2612168565b60200260200101516040518363ffffffff1660e01b81526004016116e7929190612413565b600060405180830381600087803b15801561170157600080fd5b505af1158015611715573d6000803e3d6000fd5b50505050808061172490612219565b915050611671565b50505050565b600081815260016020526040812061174991611b6b565b6000546040517f0de3b7b50000000000000000000000000000000000000000000000000000000081526004810183905273ffffffffffffffffffffffffffffffffffffffff90911690630de3b7b590602401610c4f565b60008260000182815481106117b7576117b7612168565b9060005260206000200154905092915050565b60005b815181101561182057600160008383815181106117ec576117ec612168565b60200260200101518152602001908152602001600020600061180e9190611b6b565b8061181881612219565b9150506117cd565b506000805473ffffffffffffffffffffffffffffffffffffffff16905b825181101561130c578173ffffffffffffffffffffffffffffffffffffffff16630de3b7b584838151811061187457611874612168565b60200260200101516040518263ffffffff1660e01b815260040161189a91815260200190565b600060405180830381600087803b1580156118b457600080fd5b505af11580156118c8573d6000803e3d6000fd5b5050505080806118d790612219565b91505061183d565b805160000361191a576040517f9cf8540c00000000000000000000000000000000000000000000000000000000815260040160405180910390fd5b600082815260016020526040902061193282826122f9565b506000546040517fcfd3c57f00000000000000000000000000000000000000000000000000000000815273ffffffffffffffffffffffffffffffffffffffff9091169063cfd3c57f9061198b9085908590600401612413565b600060405180830381600087803b1580156119a557600080fd5b505af11580156119b9573d6000803e3d6000fd5b505050505050565b60606000610a3083611b10565b60008181526001830160205260408120548015611ab75760006119f260018361242c565b8554909150600090611a069060019061242c565b9050818114611a6b576000866000018281548110611a2657611a26612168565b9060005260206000200154905080876000018481548110611a4957611a49612168565b6000918252602080832090910192909255918252600188019052604090208390555b8554869080611a7c57611a7c61243f565b600190038181906000526020600020016000905590558560010160008681526020019081526020016000206000905560019350505050610671565b6000915050610671565b6000818152600183016020526040812054611b0857508154600181810184556000848152602080822090930184905584548482528286019093526040902091909155610671565b506000610671565b6060816000018054806020026020016040519081016040528092919081815260200182805480156113cb57602002820191906000526020600020905b815481526020019060010190808311611b4c5750505050509050919050565b508054611b7790612197565b6000825580601f10611b87575050565b601f0160209004906000526020600020908101906108fc91905b80821115611bb55760008155600101611ba1565b5090565b7f4e487b7100000000000000000000000000000000000000000000000000000000600052604160045260246000fd5b604051601f82017fffffffffffffffffffffffffffffffffffffffffffffffffffffffffffffffe016810167ffffffffffffffff81118282101715611c2f57611c2f611bb9565b604052919050565b73ffffffffffffffffffffffffffffffffffffffff811681146108fc57600080fd5b600060608284031215611c6b57600080fd5b6040516060810181811067ffffffffffffffff82111715611c8e57611c8e611bb9565b6040529050808235611c9f81611c37565b8082525060208301356020820152604083013560408201525092915050565b60008060808385031215611cd157600080fd5b82359150611ce28460208501611c59565b90509250929050565b600067ffffffffffffffff821115611d0557611d05611bb9565b5060051b60200190565b600082601f830112611d2057600080fd5b81356020611d35611d3083611ceb565b611be8565b82815260059290921b84018101918181019086841115611d5457600080fd5b8286015b84811015611d6f5780358352918301918301611d58565b509695505050505050565b600060208284031215611d8c57600080fd5b813567ffffffffffffffff811115611da357600080fd5b611daf84828501611d0f565b949350505050565b6000815180845260005b81811015611ddd57602081850181015186830182015201611dc1565b5060006020828601015260207fffffffffffffffffffffffffffffffffffffffffffffffffffffffffffffffe0601f83011685010191505092915050565b6000602080830181845280855180835260408601915060408160051b870101925083870160005b82811015611e8e577fffffffffffffffffffffffffffffffffffffffffffffffffffffffffffffffc0888603018452611e7c858351611db7565b94509285019290850190600101611e42565b5092979650505050505050565b600082601f830112611eac57600080fd5b813567ffffffffffffffff811115611ec657611ec6611bb9565b611ef760207fffffffffffffffffffffffffffffffffffffffffffffffffffffffffffffffe0601f84011601611be8565b818152846020838601011115611f0c57600080fd5b816020850160208301376000918101602001919091529392505050565b60008060408385031215611f3c57600080fd5b823567ffffffffffffffff80821115611f5457600080fd5b611f6086838701611d0f565b9350602091508185013581811115611f7757600080fd5b8501601f81018713611f8857600080fd5b8035611f96611d3082611ceb565b81815260059190911b82018401908481019089831115611fb557600080fd5b8584015b83811015611fed57803586811115611fd15760008081fd5b611fdf8c8983890101611e9b565b845250918601918601611fb9565b508096505050505050509250929050565b60006020828403121561201057600080fd5b813567ffffffffffffffff81111561202757600080fd5b611daf84828501611e9b565b6020808252825182820181905260009190848201906040850190845b8181101561206b5783518352928401929184019160010161204f565b50909695505050505050565b60006020828403121561208957600080fd5b5035919050565b6000602082840312156120a257600080fd5b8135610a3081611c37565b6000606082840312156120bf57600080fd5b610a308383611c59565b600080604083850312156120dc57600080fd5b823567ffffffffffffffff8111156120f357600080fd5b6120ff85828601611e9b565b95602094909401359450505050565b6000806040838503121561212157600080fd5b82359150602083013567ffffffffffffffff81111561213f57600080fd5b61214b85828601611e9b565b9150509250929050565b602081526000610a306020830184611db7565b7f4e487b7100000000000000000000000000000000000000000000000000000000600052603260045260246000fd5b600181811c908216806121ab57607f821691505b6020821081036121e4577f4e487b7100000000000000000000000000000000000000000000000000000000600052602260045260246000fd5b50919050565b7f4e487b7100000000000000000000000000000000000000000000000000000000600052601160045260246000fd5b60007fffffffffffffffffffffffffffffffffffffffffffffffffffffffffffffffff820361224a5761224a6121ea565b5060010190565b60006060828403121561226357600080fd5b6040516060810181811067ffffffffffffffff8211171561228657612286611bb9565b604052825161229481611c37565b8152602083810151908201526040928301519281019290925250919050565b601f82111561130c57600081815260208120601f850160051c810160208610156122da5750805b601f850160051c820191505b818110156119b9578281556001016122e6565b815167ffffffffffffffff81111561231357612313611bb9565b612327816123218454612197565b846122b3565b602080601f83116001811461237a57600084156123445750858301515b7fffffffffffffffffffffffffffffffffffffffffffffffffffffffffffffffff600386901b1c1916600185901b1785556119b9565b6000858152602081207fffffffffffffffffffffffffffffffffffffffffffffffffffffffffffffffe08616915b828110156123c7578886015182559484019460019091019084016123a8565b508582101561240357878501517fffffffffffffffffffffffffffffffffffffffffffffffffffffffffffffffff600388901b60f8161c191681555b5050505050600190811b01905550565b828152604060208201526000611daf6040830184611db7565b81810381811115610671576106716121ea565b7f4e487b7100000000000000000000000000000000000000000000000000000000600052603160045260246000fdfea2646970667358221220afc77e8738fe11d389eba0fa72325ef28a765d840730c6986d2e1d1870064ab864736f6c63430008110033","linkReferences":{}},"methodIdentifiers":{"authorizeWriter(address)":"4fef6a38","cancelOwnershipHandover()":"54d1f13d","completeOwnershipHandover(address)":"f04e283e","extractRaw(uint256)":"e9ff6c76","extractRawBatch(uint256[])":"12b11155","get(uint256)":"9507d39a","getAt(bytes,uint256)":"6f9aa155","getEntities()":"31b933b9","getEntitiesWithValue((address,uint256,uint256))":"5ed453f7","getEntitiesWithValue(bytes)":"b361be46","getRaw(uint256)":"dd98e3c9","getRawBatch(uint256[])":"4323c4ef","has(uint256)":"cccf7a8e","id()":"af640d0f","owner()":"8da5cb5b","ownershipHandoverExpiresAt(address)":"fee81cf4","registerWorld(address)":"9d2c76b4","remove(uint256)":"4cc82215","removeBatch(uint256[])":"8482643e","renounceOwnership()":"715018a6","requestOwnershipHandover()":"25692962","set(uint256,(address,uint256,uint256))":"01649c51","set(uint256,bytes)":"8b282947","setBatch(uint256[],bytes[])":"13ca8b6a","size(bytes)":"1c5ee10c","transferOwnership(address)":"f2fde38b","unauthorizeWriter(address)":"bf4fe57e","world()":"30b67baa","writeAccess(address)":"861eb905"},"id":138}