{"abi":[{"type":"constructor","inputs":[{"name":"world","type":"address","internalType":"address"}],"stateMutability":"nonpayable"},{"type":"function","name":"authorizeWriter","inputs":[{"name":"writer","type":"address","internalType":"address"}],"outputs":[],"stateMutability":"nonpayable"},{"type":"function","name":"cancelOwnershipHandover","inputs":[],"outputs":[],"stateMutability":"payable"},{"type":"function","name":"completeOwnershipHandover","inputs":[{"name":"pendingOwner","type":"address","internalType":"address"}],"outputs":[],"stateMutability":"payable"},{"type":"function","name":"extract","inputs":[{"name":"entity","type":"uint256","internalType":"uint256"}],"outputs":[{"name":"","type":"string","internalType":"string"}],"stateMutability":"nonpayable"},{"type":"function","name":"extractBatch","inputs":[{"name":"entities","type":"uint256[]","internalType":"uint256[]"}],"outputs":[{"name":"","type":"string[]","internalType":"string[]"}],"stateMutability":"nonpayable"},{"type":"function","name":"extractRaw","inputs":[{"name":"entity","type":"uint256","internalType":"uint256"}],"outputs":[{"name":"","type":"bytes","internalType":"bytes"}],"stateMutability":"nonpayable"},{"type":"function","name":"extractRawBatch","inputs":[{"name":"entities","type":"uint256[]","internalType":"uint256[]"}],"outputs":[{"name":"","type":"bytes[]","internalType":"bytes[]"}],"stateMutability":"nonpayable"},{"type":"function","name":"get","inputs":[{"name":"entity","type":"uint256","internalType":"uint256"}],"outputs":[{"name":"","type":"string","internalType":"string"}],"stateMutability":"view"},{"type":"function","name":"getBatch","inputs":[{"name":"entities","type":"uint256[]","internalType":"uint256[]"}],"outputs":[{"name":"","type":"string[]","internalType":"string[]"}],"stateMutability":"view"},{"type":"function","name":"getEntities","inputs":[],"outputs":[{"name":"","type":"uint256[]","internalType":"uint256[]"}],"stateMutability":"view"},{"type":"function","name":"getEntitiesWithValue","inputs":[{"name":"","type":"bytes","internalType":"bytes"}],"outputs":[{"name":"","type":"uint256[]","internalType":"uint256[]"}],"stateMutability":"view"},{"type":"function","name":"getRaw","inputs":[{"name":"entity","type":"uint256","internalType":"uint256"}],"outputs":[{"name":"","type":"bytes","internalType":"bytes"}],"stateMutability":"view"},{"type":"function","name":"getRawBatch","inputs":[{"name":"entities","type":"uint256[]","internalType":"uint256[]"}],"outputs":[{"name":"","type":"bytes[]","internalType":"bytes[]"}],"stateMutability":"view"},{"type":"function","name":"has","inputs":[{"name":"entity","type":"uint256","internalType":"uint256"}],"outputs":[{"name":"","type":"bool","internalType":"bool"}],"stateMutability":"view"},{"type":"function","name":"hasValue","inputs":[{"name":"id","type":"uint256","internalType":"uint256"},{"name":"name","type":"string","internalType":"string"}],"outputs":[{"name":"","type":"bool","internalType":"bool"}],"stateMutability":"view"},{"type":"function","name":"id","inputs":[],"outputs":[{"name":"","type":"uint256","internalType":"uint256"}],"stateMutability":"view"},{"type":"function","name":"owner","inputs":[],"outputs":[{"name":"result","type":"address","internalType":"address"}],"stateMutability":"view"},{"type":"function","name":"ownershipHandoverExpiresAt","inputs":[{"name":"pendingOwner","type":"address","internalType":"address"}],"outputs":[{"name":"result","type":"uint256","internalType":"uint256"}],"stateMutability":"view"},{"type":"function","name":"registerWorld","inputs":[{"name":"_world","type":"address","internalType":"address"}],"outputs":[],"stateMutability":"nonpayable"},{"type":"function","name":"remove","inputs":[{"name":"entity","type":"uint256","internalType":"uint256"}],"outputs":[],"stateMutability":"nonpayable"},{"type":"function","name":"removeBatch","inputs":[{"name":"entities","type":"uint256[]","internalType":"uint256[]"}],"outputs":[],"stateMutability":"nonpayable"},{"type":"function","name":"renounceOwnership","inputs":[],"outputs":[],"stateMutability":"payable"},{"type":"function","name":"requestOwnershipHandover","inputs":[],"outputs":[],"stateMutability":"payable"},{"type":"function","name":"set","inputs":[{"name":"entity","type":"uint256","internalType":"uint256"},{"name":"value","type":"string","internalType":"string"}],"outputs":[],"stateMutability":"nonpayable"},{"type":"function","name":"set","inputs":[{"name":"entity","type":"uint256","internalType":"uint256"},{"name":"value","type":"bytes","internalType":"bytes"}],"outputs":[],"stateMutability":"nonpayable"},{"type":"function","name":"setBatch","inputs":[{"name":"entities","type":"uint256[]","internalType":"uint256[]"},{"name":"values","type":"bytes[]","internalType":"bytes[]"}],"outputs":[],"stateMutability":"nonpayable"},{"type":"function","name":"setBatch","inputs":[{"name":"entities","type":"uint256[]","internalType":"uint256[]"},{"name":"values","type":"string[]","internalType":"string[]"}],"outputs":[],"stateMutability":"nonpayable"},{"type":"function","name":"transferOwnership","inputs":[{"name":"newOwner","type":"address","internalType":"address"}],"outputs":[],"stateMutability":"payable"},{"type":"function","name":"unauthorizeWriter","inputs":[{"name":"writer","type":"address","internalType":"address"}],"outputs":[],"stateMutability":"nonpayable"},{"type":"function","name":"world","inputs":[],"outputs":[{"name":"","type":"address","internalType":"address"}],"stateMutability":"view"},{"type":"function","name":"writeAccess","inputs":[{"name":"operator","type":"address","internalType":"address"}],"outputs":[{"name":"","type":"bool","internalType":"bool"}],"stateMutability":"view"},{"type":"event","name":"OwnershipHandoverCanceled","inputs":[{"name":"pendingOwner","type":"address","indexed":true,"internalType":"address"}],"anonymous":false},{"type":"event","name":"OwnershipHandoverRequested","inputs":[{"name":"pendingOwner","type":"address","indexed":true,"internalType":"address"}],"anonymous":false},{"type":"event","name":"OwnershipTransferred","inputs":[{"name":"oldOwner","type":"address","indexed":true,"internalType":"address"},{"name":"newOwner","type":"address","indexed":true,"internalType":"address"}],"anonymous":false},{"type":"error","name":"AlreadyInitialized","inputs":[]},{"type":"error","name":"BareComponent__NotImplemented","inputs":[]},{"type":"error","name":"BatchOp_UnexpectedLength","inputs":[]},{"type":"error","name":"NewOwnerIsZeroAddress","inputs":[]},{"type":"error","name":"NoHandoverRequest","inputs":[]},{"type":"error","name":"OwnableWritable__NotWriter","inputs":[]},{"type":"error","name":"Unauthorized","inputs":[]},{"type":"error","name":"ZeroValueNotAllowed","inputs":[]}],"bytecode":{"object":"0x60806040523480156200001157600080fd5b50604051620021fc380380620021fc83398101604081905262000034916200016e565b807f024accd0d273ef6123273b21662f5cc055a7d58adf98cc1b060edd029af93f7f818162000063336200008e565b60028190556001600160a01b0382161562000083576200008382620000ca565b5050505050620001a0565b6001600160a01b0316638b78c6d8198190558060007f8be0079c531659141344cd1fd0a4f28419497f9722a3daafe3b4186f6b6457e08180a350565b620000d462000150565b600080546001600160a01b0319166001600160a01b038316908117909155600254604051630f30347760e41b8152306004820152602481019190915263f303477090604401600060405180830381600087803b1580156200013457600080fd5b505af115801562000149573d6000803e3d6000fd5b5050505050565b638b78c6d8195433146200016c576382b429006000526004601cfd5b565b6000602082840312156200018157600080fd5b81516001600160a01b03811681146200019957600080fd5b9392505050565b61204c80620001b06000396000f3fe6080604052600436106101d85760003560e01c80638b28294711610102578063cccf7a8e11610095578063e9ff6c7611610064578063e9ff6c7614610583578063f04e283e146105a3578063f2fde38b146105b6578063fee81cf4146105c957600080fd5b8063cccf7a8e14610503578063dc5c22cd14610523578063dd98e3c914610543578063e4b6aecf1461056357600080fd5b80639d72b0e1116100d15780639d72b0e11461047f578063af640d0f1461049f578063b361be46146104c3578063bf4fe57e146104e357600080fd5b80638b282947146103eb5780638da5cb5b1461040b5780639507d39a1461043f5780639d2c76b41461045f57600080fd5b80634cc822151161017a578063715018a611610149578063715018a6146103665780638482643e1461036e57806385b397821461038e578063861eb905146103bb57600080fd5b80634cc82215146102fe5780634fef6a381461031e57806354d1f13d1461033e578063643719771461034657600080fd5b806325692962116101b6578063256929621461026257806330b67baa1461026a57806331b933b9146102bc5780634323c4ef146102de57600080fd5b8063088dd0b9146101dd57806312b111551461021357806313ca8b6a14610240575b600080fd5b3480156101e957600080fd5b506101fd6101f836600461184e565b6105fc565b60405161020a91906118f9565b60405180910390f35b34801561021f57600080fd5b5061023361022e36600461184e565b610615565b60405161020a9190611979565b34801561024c57600080fd5b5061026061025b366004611a83565b61065f565b005b6102606106ac565b34801561027657600080fd5b506000546102979073ffffffffffffffffffffffffffffffffffffffff1681565b60405173ffffffffffffffffffffffffffffffffffffffff909116815260200161020a565b3480156102c857600080fd5b506102d16106fc565b60405161020a9190611b58565b3480156102ea57600080fd5b506102336102f936600461184e565b610730565b34801561030a57600080fd5b50610260610319366004611b9c565b61087c565b34801561032a57600080fd5b50610260610339366004611bb5565b6108c7565b61026061093d565b34801561035257600080fd5b50610260610361366004611bf2565b610979565b6102606109ca565b34801561037a57600080fd5b5061026061038936600461184e565b6109de565b34801561039a57600080fd5b506103ae6103a9366004611b9c565b610a26565b60405161020a9190611c39565b3480156103c757600080fd5b506103db6103d6366004611bb5565b610a78565b604051901515815260200161020a565b3480156103f757600080fd5b50610260610406366004611bf2565b610b07565b34801561041757600080fd5b507fffffffffffffffffffffffffffffffffffffffffffffffffffffffff7487392754610297565b34801561044b57600080fd5b506103ae61045a366004611b9c565b610b50565b34801561046b57600080fd5b5061026061047a366004611bb5565b610b5e565b34801561048b57600080fd5b506103db61049a366004611bf2565b610c1f565b3480156104ab57600080fd5b506104b560025481565b60405190815260200161020a565b3480156104cf57600080fd5b506102d16104de366004611c4c565b6106fc565b3480156104ef57600080fd5b506102606104fe366004611bb5565b610c61565b34801561050f57600080fd5b506103db61051e366004611b9c565b610cd4565b34801561052f57600080fd5b506101fd61053e36600461184e565b610cf6565b34801561054f57600080fd5b506103ae61055e366004611b9c565b610d43565b34801561056f57600080fd5b5061026061057e366004611c81565b610d4e565b34801561058f57600080fd5b506103ae61059e366004611b9c565b610d9f565b6102606105b1366004611bb5565b610de9565b6102606105c4366004611bb5565b610e26565b3480156105d557600080fd5b506104b56105e4366004611bb5565b63389a75e1600c908152600091909152602090205490565b606061060f61060a83610e4d565b610f92565b92915050565b606061062033610a78565b610656576040517f406ed3da00000000000000000000000000000000000000000000000000000000815260040160405180910390fd5b61060f82611044565b61066833610a78565b61069e576040517f406ed3da00000000000000000000000000000000000000000000000000000000815260040160405180910390fd5b6106a8828261105c565b5050565b60006202a30067ffffffffffffffff164201905063389a75e1600c5233600052806020600c2055337fdbf36a107da19e49527a7176a1babf963b4b0ff8cde35ee35d6cd8f1f9ac7e1d600080a250565b60606040517f17d5b8e800000000000000000000000000000000000000000000000000000000815260040160405180910390fd5b60606000825167ffffffffffffffff81111561074e5761074e611741565b60405190808252806020026020018201604052801561078157816020015b606081526020019060019003908161076c5790505b50905060005b835181101561087557600160008583815181106107a6576107a6611d45565b6020026020010151815260200190815260200160002080546107c790611d74565b80601f01602080910402602001604051908101604052809291908181526020018280546107f390611d74565b80156108405780601f1061081557610100808354040283529160200191610840565b820191906000526020600020905b81548152906001019060200180831161082357829003601f168201915b505050505082828151811061085757610857611d45565b6020026020010181905250808061086d90611dc7565b915050610787565b5092915050565b61088533610a78565b6108bb576040517f406ed3da00000000000000000000000000000000000000000000000000000000815260040160405180910390fd5b6108c48161123a565b50565b6108cf6112a8565b73ffffffffffffffffffffffffffffffffffffffff1660009081527f8ffeadc5cba727b8cc3cdef48739619490ea317fdb3baae1259089d06f92c9096020526040902080547fffffffffffffffffffffffffffffffffffffffffffffffffffffffffffffff00166001179055565b63389a75e1600c523360005260006020600c2055337ffa7b8eab7da67f412cc9575ed43464468f9bfbae89d1675917346ca6d8fe3c92600080a2565b61098233610a78565b6109b8576040517f406ed3da00000000000000000000000000000000000000000000000000000000815260040160405180910390fd5b6106a8826109c5836112de565b611307565b6109d26112a8565b6109dc60006113e9565b565b6109e733610a78565b610a1d576040517f406ed3da00000000000000000000000000000000000000000000000000000000815260040160405180910390fd5b6108c48161144f565b6060610a3133610a78565b610a67576040517f406ed3da00000000000000000000000000000000000000000000000000000000815260040160405180910390fd5b61060f610a7383611569565b611589565b73ffffffffffffffffffffffffffffffffffffffff811660009081527f8ffeadc5cba727b8cc3cdef48739619490ea317fdb3baae1259089d06f92c909602052604081205460ff168061060f5750507fffffffffffffffffffffffffffffffffffffffffffffffffffffffff748739275473ffffffffffffffffffffffffffffffffffffffff91821691161490565b610b1033610a78565b610b46576040517f406ed3da00000000000000000000000000000000000000000000000000000000815260040160405180910390fd5b6106a88282611307565b606061060f610a738361159f565b610b666112a8565b600080547fffffffffffffffffffffffff00000000000000000000000000000000000000001673ffffffffffffffffffffffffffffffffffffffff83169081179091556002546040517ff3034770000000000000000000000000000000000000000000000000000000008152306004820152602481019190915263f3034770906044015b600060405180830381600087803b158015610c0457600080fd5b505af1158015610c18573d6000803e3d6000fd5b5050505050565b600081604051602001610c329190611c39565b60405160208183030381529060405280519060200120610c5184610d43565b8051906020012014905092915050565b610c696112a8565b73ffffffffffffffffffffffffffffffffffffffff1660009081527f8ffeadc5cba727b8cc3cdef48739619490ea317fdb3baae1259089d06f92c9096020526040902080547fffffffffffffffffffffffffffffffffffffffffffffffffffffffffffffff00169055565b60008181526001602052604081208054610ced90611d74565b15159392505050565b6060610d0133610a78565b610d37576040517f406ed3da00000000000000000000000000000000000000000000000000000000815260040160405180910390fd5b61060f61060a83611044565b606061060f8261159f565b610d5733610a78565b610d8d576040517f406ed3da00000000000000000000000000000000000000000000000000000000815260040160405180910390fd5b6106a882610d9a83611641565b61105c565b6060610daa33610a78565b610de0576040517f406ed3da00000000000000000000000000000000000000000000000000000000815260040160405180910390fd5b61060f82611569565b610df16112a8565b63389a75e1600c52806000526020600c208054421115610e1957636f5e88186000526004601cfd5b600090556108c4816113e9565b610e2e6112a8565b8060601b610e4457637448fbae6000526004601cfd5b6108c4816113e9565b60606000825167ffffffffffffffff811115610e6b57610e6b611741565b604051908082528060200260200182016040528015610e9e57816020015b6060815260200190600190039081610e895790505b50905060005b83518110156108755760016000858381518110610ec357610ec3611d45565b602002602001015181526020019081526020016000208054610ee490611d74565b80601f0160208091040260200160405190810160405280929190818152602001828054610f1090611d74565b8015610f5d5780601f10610f3257610100808354040283529160200191610f5d565b820191906000526020600020905b815481529060010190602001808311610f4057829003601f168201915b5050505050828281518110610f7457610f74611d45565b60200260200101819052508080610f8a90611dc7565b915050610ea4565b60606000825167ffffffffffffffff811115610fb057610fb0611741565b604051908082528060200260200182016040528015610fe357816020015b6060815260200190600190039081610fce5790505b50905060005b83518110156108755761101484828151811061100757611007611d45565b6020026020010151611589565b82828151811061102657611026611d45565b6020026020010181905250808061103c90611dc7565b915050610fe9565b6060600061105183610e4d565b905061060f8361144f565b8051825114611097576040517fc291f68400000000000000000000000000000000000000000000000000000000815260040160405180910390fd5b60005b825181101561115c578181815181106110b5576110b5611d45565b6020026020010151516000036110f7576040517f9cf8540c00000000000000000000000000000000000000000000000000000000815260040160405180910390fd5b81818151811061110957611109611d45565b60200260200101516001600085848151811061112757611127611d45565b6020026020010151815260200190815260200160002090816111499190611e6c565b508061115481611dc7565b91505061109a565b506000805473ffffffffffffffffffffffffffffffffffffffff16905b8351811015611234578173ffffffffffffffffffffffffffffffffffffffff1663cfd3c57f8583815181106111b0576111b0611d45565b60200260200101518584815181106111ca576111ca611d45565b60200260200101516040518363ffffffff1660e01b81526004016111ef929190611f86565b600060405180830381600087803b15801561120957600080fd5b505af115801561121d573d6000803e3d6000fd5b50505050808061122c90611dc7565b915050611179565b50505050565b6000818152600160205260408120611251916116f3565b6000546040517f0de3b7b50000000000000000000000000000000000000000000000000000000081526004810183905273ffffffffffffffffffffffffffffffffffffffff90911690630de3b7b590602401610bea565b7fffffffffffffffffffffffffffffffffffffffffffffffffffffffff748739275433146109dc576382b429006000526004601cfd5b6060816040516020016112f19190611c39565b6040516020818303038152906040529050919050565b8051600003611342576040517f9cf8540c00000000000000000000000000000000000000000000000000000000815260040160405180910390fd5b600082815260016020526040902061135a8282611e6c565b506000546040517fcfd3c57f00000000000000000000000000000000000000000000000000000000815273ffffffffffffffffffffffffffffffffffffffff9091169063cfd3c57f906113b39085908590600401611f86565b600060405180830381600087803b1580156113cd57600080fd5b505af11580156113e1573d6000803e3d6000fd5b505050505050565b7fffffffffffffffffffffffffffffffffffffffffffffffffffffffff74873927805473ffffffffffffffffffffffffffffffffffffffff9092169182907f8be0079c531659141344cd1fd0a4f28419497f9722a3daafe3b4186f6b6457e0600080a355565b60005b81518110156114a5576001600083838151811061147157611471611d45565b60200260200101518152602001908152602001600020600061149391906116f3565b8061149d81611dc7565b915050611452565b506000805473ffffffffffffffffffffffffffffffffffffffff16905b8251811015611564578173ffffffffffffffffffffffffffffffffffffffff16630de3b7b58483815181106114f9576114f9611d45565b60200260200101516040518263ffffffff1660e01b815260040161151f91815260200190565b600060405180830381600087803b15801561153957600080fd5b505af115801561154d573d6000803e3d6000fd5b50505050808061155c90611dc7565b9150506114c2565b505050565b606060006115768361159f565b80519091501561060f5761060f8361123a565b60608180602001905181019061060f9190611f9f565b60008181526001602052604090208054606091906115bc90611d74565b80601f01602080910402602001604051908101604052809291908181526020018280546115e890611d74565b80156116355780601f1061160a57610100808354040283529160200191611635565b820191906000526020600020905b81548152906001019060200180831161161857829003601f168201915b50505050509050919050565b60606000825167ffffffffffffffff81111561165f5761165f611741565b60405190808252806020026020018201604052801561169257816020015b606081526020019060019003908161167d5790505b50905060005b8351811015610875576116c38482815181106116b6576116b6611d45565b60200260200101516112de565b8282815181106116d5576116d5611d45565b602002602001018190525080806116eb90611dc7565b915050611698565b5080546116ff90611d74565b6000825580601f1061170f575050565b601f0160209004906000526020600020908101906108c491905b8082111561173d5760008155600101611729565b5090565b7f4e487b7100000000000000000000000000000000000000000000000000000000600052604160045260246000fd5b604051601f82017fffffffffffffffffffffffffffffffffffffffffffffffffffffffffffffffe016810167ffffffffffffffff811182821017156117b7576117b7611741565b604052919050565b600067ffffffffffffffff8211156117d9576117d9611741565b5060051b60200190565b600082601f8301126117f457600080fd5b81356020611809611804836117bf565b611770565b82815260059290921b8401810191818101908684111561182857600080fd5b8286015b84811015611843578035835291830191830161182c565b509695505050505050565b60006020828403121561186057600080fd5b813567ffffffffffffffff81111561187757600080fd5b611883848285016117e3565b949350505050565b60005b838110156118a657818101518382015260200161188e565b50506000910152565b600081518084526118c781602086016020860161188b565b601f017fffffffffffffffffffffffffffffffffffffffffffffffffffffffffffffffe0169290920160200192915050565b6000602080830181845280855180835260408601915060408160051b870101925083870160005b8281101561196c577fffffffffffffffffffffffffffffffffffffffffffffffffffffffffffffffc088860301845261195a8583516118af565b94509285019290850190600101611920565b5092979650505050505050565b6000602080830181845280855180835260408601915060408160051b870101925083870160005b8281101561196c577fffffffffffffffffffffffffffffffffffffffffffffffffffffffffffffffc08886030184526119da8583516118af565b945092850192908501906001016119a0565b600067ffffffffffffffff821115611a0657611a06611741565b50601f017fffffffffffffffffffffffffffffffffffffffffffffffffffffffffffffffe01660200190565b600082601f830112611a4357600080fd5b8135611a51611804826119ec565b818152846020838601011115611a6657600080fd5b816020850160208301376000918101602001919091529392505050565b60008060408385031215611a9657600080fd5b823567ffffffffffffffff80821115611aae57600080fd5b611aba868387016117e3565b9350602091508185013581811115611ad157600080fd5b8501601f81018713611ae257600080fd5b8035611af0611804826117bf565b81815260059190911b82018401908481019089831115611b0f57600080fd5b8584015b83811015611b4757803586811115611b2b5760008081fd5b611b398c8983890101611a32565b845250918601918601611b13565b508096505050505050509250929050565b6020808252825182820181905260009190848201906040850190845b81811015611b9057835183529284019291840191600101611b74565b50909695505050505050565b600060208284031215611bae57600080fd5b5035919050565b600060208284031215611bc757600080fd5b813573ffffffffffffffffffffffffffffffffffffffff81168114611beb57600080fd5b9392505050565b60008060408385031215611c0557600080fd5b82359150602083013567ffffffffffffffff811115611c2357600080fd5b611c2f85828601611a32565b9150509250929050565b602081526000611beb60208301846118af565b600060208284031215611c5e57600080fd5b813567ffffffffffffffff811115611c7557600080fd5b61188384828501611a32565b60008060408385031215611c9457600080fd5b823567ffffffffffffffff80821115611cac57600080fd5b611cb8868387016117e3565b9350602091508185013581811115611ccf57600080fd5b8501601f81018713611ce057600080fd5b8035611cee611804826117bf565b81815260059190911b82018401908481019089831115611d0d57600080fd5b8584015b83811015611b4757803586811115611d295760008081fd5b611d378c8983890101611a32565b845250918601918601611d11565b7f4e487b7100000000000000000000000000000000000000000000000000000000600052603260045260246000fd5b600181811c90821680611d8857607f821691505b602082108103611dc1577f4e487b7100000000000000000000000000000000000000000000000000000000600052602260045260246000fd5b50919050565b60007fffffffffffffffffffffffffffffffffffffffffffffffffffffffffffffffff8203611e1f577f4e487b7100000000000000000000000000000000000000000000000000000000600052601160045260246000fd5b5060010190565b601f82111561156457600081815260208120601f850160051c81016020861015611e4d5750805b601f850160051c820191505b818110156113e157828155600101611e59565b815167ffffffffffffffff811115611e8657611e86611741565b611e9a81611e948454611d74565b84611e26565b602080601f831160018114611eed5760008415611eb75750858301515b7fffffffffffffffffffffffffffffffffffffffffffffffffffffffffffffffff600386901b1c1916600185901b1785556113e1565b6000858152602081207fffffffffffffffffffffffffffffffffffffffffffffffffffffffffffffffe08616915b82811015611f3a57888601518255948401946001909101908401611f1b565b5085821015611f7657878501517fffffffffffffffffffffffffffffffffffffffffffffffffffffffffffffffff600388901b60f8161c191681555b5050505050600190811b01905550565b82815260406020820152600061188360408301846118af565b600060208284031215611fb157600080fd5b815167ffffffffffffffff811115611fc857600080fd5b8201601f81018413611fd957600080fd5b8051611fe7611804826119ec565b818152856020838501011115611ffc57600080fd5b61200d82602083016020860161188b565b9594505050505056fea2646970667358221220c70b52a5b457e1b9ade22ea3708fa7c7e6bd6f49e61fe32dcf5a35c0d2bbbfac64736f6c63430008110033","linkReferences":{}},"methodIdentifiers":{"authorizeWriter(address)":"4fef6a38","cancelOwnershipHandover()":"54d1f13d","completeOwnershipHandover(address)":"f04e283e","extract(uint256)":"85b39782","extractBatch(uint256[])":"dc5c22cd","extractRaw(uint256)":"e9ff6c76","extractRawBatch(uint256[])":"12b11155","get(uint256)":"9507d39a","getBatch(uint256[])":"088dd0b9","getEntities()":"31b933b9","getEntitiesWithValue(bytes)":"b361be46","getRaw(uint256)":"dd98e3c9","getRawBatch(uint256[])":"4323c4ef","has(uint256)":"cccf7a8e","hasValue(uint256,string)":"9d72b0e1","id()":"af640d0f","owner()":"8da5cb5b","ownershipHandoverExpiresAt(address)":"fee81cf4","registerWorld(address)":"9d2c76b4","remove(uint256)":"4cc82215","removeBatch(uint256[])":"8482643e","renounceOwnership()":"715018a6","requestOwnershipHandover()":"25692962","set(uint256,bytes)":"8b282947","set(uint256,string)":"64371977","setBatch(uint256[],bytes[])":"13ca8b6a","setBatch(uint256[],string[])":"e4b6aecf","transferOwnership(address)":"f2fde38b","unauthorizeWriter(address)":"bf4fe57e","world()":"30b67baa","writeAccess(address)":"861eb905"},"id":139}