{"abi":[{"type":"constructor","inputs":[{"name":"world","type":"address","internalType":"address"},{"name":"id","type":"uint256","internalType":"uint256"}],"stateMutability":"nonpayable"},{"type":"function","name":"authorizeWriter","inputs":[{"name":"writer","type":"address","internalType":"address"}],"outputs":[],"stateMutability":"nonpayable"},{"type":"function","name":"cancelOwnershipHandover","inputs":[],"outputs":[],"stateMutability":"payable"},{"type":"function","name":"completeOwnershipHandover","inputs":[{"name":"pendingOwner","type":"address","internalType":"address"}],"outputs":[],"stateMutability":"payable"},{"type":"function","name":"extract","inputs":[{"name":"entity","type":"uint256","internalType":"uint256"}],"outputs":[{"name":"","type":"uint256[]","internalType":"uint256[]"}],"stateMutability":"nonpayable"},{"type":"function","name":"extractBatch","inputs":[{"name":"entities","type":"uint256[]","internalType":"uint256[]"}],"outputs":[{"name":"","type":"uint256[][]","internalType":"uint256[][]"}],"stateMutability":"nonpayable"},{"type":"function","name":"extractRaw","inputs":[{"name":"entity","type":"uint256","internalType":"uint256"}],"outputs":[{"name":"","type":"bytes","internalType":"bytes"}],"stateMutability":"nonpayable"},{"type":"function","name":"extractRawBatch","inputs":[{"name":"entities","type":"uint256[]","internalType":"uint256[]"}],"outputs":[{"name":"","type":"bytes[]","internalType":"bytes[]"}],"stateMutability":"nonpayable"},{"type":"function","name":"get","inputs":[{"name":"entity","type":"uint256","internalType":"uint256"}],"outputs":[{"name":"","type":"uint256[]","internalType":"uint256[]"}],"stateMutability":"view"},{"type":"function","name":"getAt","inputs":[{"name":"value","type":"bytes","internalType":"bytes"},{"name":"index","type":"uint256","internalType":"uint256"}],"outputs":[{"name":"","type":"uint256","internalType":"uint256"}],"stateMutability":"view"},{"type":"function","name":"getBatch","inputs":[{"name":"entities","type":"uint256[]","internalType":"uint256[]"}],"outputs":[{"name":"","type":"uint256[][]","internalType":"uint256[][]"}],"stateMutability":"view"},{"type":"function","name":"getEntities","inputs":[],"outputs":[{"name":"","type":"uint256[]","internalType":"uint256[]"}],"stateMutability":"view"},{"type":"function","name":"getEntitiesWithValue","inputs":[{"name":"value","type":"uint256[]","internalType":"uint256[]"}],"outputs":[{"name":"","type":"uint256[]","internalType":"uint256[]"}],"stateMutability":"view"},{"type":"function","name":"getEntitiesWithValue","inputs":[{"name":"value","type":"bytes","internalType":"bytes"}],"outputs":[{"name":"","type":"uint256[]","internalType":"uint256[]"}],"stateMutability":"view"},{"type":"function","name":"getRaw","inputs":[{"name":"entity","type":"uint256","internalType":"uint256"}],"outputs":[{"name":"","type":"bytes","internalType":"bytes"}],"stateMutability":"view"},{"type":"function","name":"getRawBatch","inputs":[{"name":"entities","type":"uint256[]","internalType":"uint256[]"}],"outputs":[{"name":"","type":"bytes[]","internalType":"bytes[]"}],"stateMutability":"view"},{"type":"function","name":"has","inputs":[{"name":"entity","type":"uint256","internalType":"uint256"}],"outputs":[{"name":"","type":"bool","internalType":"bool"}],"stateMutability":"view"},{"type":"function","name":"id","inputs":[],"outputs":[{"name":"","type":"uint256","internalType":"uint256"}],"stateMutability":"view"},{"type":"function","name":"owner","inputs":[],"outputs":[{"name":"result","type":"address","internalType":"address"}],"stateMutability":"view"},{"type":"function","name":"ownershipHandoverExpiresAt","inputs":[{"name":"pendingOwner","type":"address","internalType":"address"}],"outputs":[{"name":"result","type":"uint256","internalType":"uint256"}],"stateMutability":"view"},{"type":"function","name":"registerWorld","inputs":[{"name":"_world","type":"address","internalType":"address"}],"outputs":[],"stateMutability":"nonpayable"},{"type":"function","name":"remove","inputs":[{"name":"entity","type":"uint256","internalType":"uint256"}],"outputs":[],"stateMutability":"nonpayable"},{"type":"function","name":"removeBatch","inputs":[{"name":"entities","type":"uint256[]","internalType":"uint256[]"}],"outputs":[],"stateMutability":"nonpayable"},{"type":"function","name":"renounceOwnership","inputs":[],"outputs":[],"stateMutability":"payable"},{"type":"function","name":"requestOwnershipHandover","inputs":[],"outputs":[],"stateMutability":"payable"},{"type":"function","name":"set","inputs":[{"name":"entity","type":"uint256","internalType":"uint256"},{"name":"value","type":"bytes","internalType":"bytes"}],"outputs":[],"stateMutability":"nonpayable"},{"type":"function","name":"set","inputs":[{"name":"entity","type":"uint256","internalType":"uint256"},{"name":"value","type":"uint256[]","internalType":"uint256[]"}],"outputs":[],"stateMutability":"nonpayable"},{"type":"function","name":"setBatch","inputs":[{"name":"entities","type":"uint256[]","internalType":"uint256[]"},{"name":"values","type":"uint256[][]","internalType":"uint256[][]"}],"outputs":[],"stateMutability":"nonpayable"},{"type":"function","name":"setBatch","inputs":[{"name":"entities","type":"uint256[]","internalType":"uint256[]"},{"name":"values","type":"bytes[]","internalType":"bytes[]"}],"outputs":[],"stateMutability":"nonpayable"},{"type":"function","name":"size","inputs":[{"name":"value","type":"bytes","internalType":"bytes"}],"outputs":[{"name":"","type":"uint256","internalType":"uint256"}],"stateMutability":"view"},{"type":"function","name":"transferOwnership","inputs":[{"name":"newOwner","type":"address","internalType":"address"}],"outputs":[],"stateMutability":"payable"},{"type":"function","name":"unauthorizeWriter","inputs":[{"name":"writer","type":"address","internalType":"address"}],"outputs":[],"stateMutability":"nonpayable"},{"type":"function","name":"world","inputs":[],"outputs":[{"name":"","type":"address","internalType":"address"}],"stateMutability":"view"},{"type":"function","name":"writeAccess","inputs":[{"name":"operator","type":"address","internalType":"address"}],"outputs":[{"name":"","type":"bool","internalType":"bool"}],"stateMutability":"view"},{"type":"event","name":"OwnershipHandoverCanceled","inputs":[{"name":"pendingOwner","type":"address","indexed":true,"internalType":"address"}],"anonymous":false},{"type":"event","name":"OwnershipHandoverRequested","inputs":[{"name":"pendingOwner","type":"address","indexed":true,"internalType":"address"}],"anonymous":false},{"type":"event","name":"OwnershipTransferred","inputs":[{"name":"oldOwner","type":"address","indexed":true,"internalType":"address"},{"name":"newOwner","type":"address","indexed":true,"internalType":"address"}],"anonymous":false},{"type":"error","name":"AlreadyInitialized","inputs":[]},{"type":"error","name":"BareComponent__NotImplemented","inputs":[]},{"type":"error","name":"BatchOp_UnexpectedLength","inputs":[]},{"type":"error","name":"NewOwnerIsZeroAddress","inputs":[]},{"type":"error","name":"NoHandoverRequest","inputs":[]},{"type":"error","name":"OwnableWritable__NotWriter","inputs":[]},{"type":"error","name":"Unauthorized","inputs":[]},{"type":"error","name":"ZeroValueNotAllowed","inputs":[]}],"bytecode":{"object":"0x60806040523480156200001157600080fd5b5060405162002a0338038062002a0383398101604081905262000034916200014f565b8181818162000043336200006f565b60028190556001600160a01b0382161562000063576200006382620000ab565b5050505050506200018b565b6001600160a01b0316638b78c6d8198190558060007f8be0079c531659141344cd1fd0a4f28419497f9722a3daafe3b4186f6b6457e08180a350565b620000b562000131565b600080546001600160a01b0319166001600160a01b038316908117909155600254604051630f30347760e41b8152306004820152602481019190915263f303477090604401600060405180830381600087803b1580156200011557600080fd5b505af11580156200012a573d6000803e3d6000fd5b5050505050565b638b78c6d8195433146200014d576382b429006000526004601cfd5b565b600080604083850312156200016357600080fd5b82516001600160a01b03811681146200017b57600080fd5b6020939093015192949293505050565b612868806200019b6000396000f3fe6080604052600436106101fe5760003560e01c8063861eb9051161011d578063b361be46116100b0578063dd98e3c91161007f578063f04e283e11610064578063f04e283e14610609578063f2fde38b1461061c578063fee81cf41461062f57600080fd5b8063dd98e3c9146105bc578063e9ff6c76146105e957600080fd5b8063b361be461461053c578063bf4fe57e1461055c578063cccf7a8e1461057c578063dc5c22cd1461059c57600080fd5b80639507d39a116100ec5780639507d39a146104c6578063963e9eb0146104e65780639d2c76b414610506578063af640d0f1461052657600080fd5b8063861eb905146104225780638b282947146104525780638da5cb5b14610472578063946aadc6146104a657600080fd5b80634323c4ef116101955780636f9aa155116101645780636f9aa155146103ba578063715018a6146103da5780638482643e146103e257806385b397821461040257600080fd5b80634323c4ef146103525780634cc82215146103725780634fef6a381461039257806354d1f13d146103b257600080fd5b80631c5ee10c116101d15780631c5ee10c146102a857806325692962146102d657806330b67baa146102de57806331b933b91461033057600080fd5b8063088dd0b91461020357806312b1115514610239578063131784961461026657806313ca8b6a14610288575b600080fd5b34801561020f57600080fd5b5061022361021e366004611f69565b610662565b6040516102309190611fa6565b60405180910390f35b34801561024557600080fd5b50610259610254366004611f69565b61067b565b60405161023091906120b2565b34801561027257600080fd5b50610286610281366004612132565b6106c5565b005b34801561029457600080fd5b506102866102a3366004612295565b61071a565b3480156102b457600080fd5b506102c86102c3366004612359565b610763565b604051908152602001610230565b610286610787565b3480156102ea57600080fd5b5060005461030b9073ffffffffffffffffffffffffffffffffffffffff1681565b60405173ffffffffffffffffffffffffffffffffffffffff9091168152602001610230565b34801561033c57600080fd5b506103456107d7565b604051610230919061238e565b34801561035e57600080fd5b5061025961036d366004611f69565b61080b565b34801561037e57600080fd5b5061028661038d3660046123d2565b610957565b34801561039e57600080fd5b506102866103ad3660046123eb565b6109a2565b610286610a18565b3480156103c657600080fd5b506102c86103d5366004612421565b610a54565b610286610a7e565b3480156103ee57600080fd5b506102866103fd366004611f69565b610a92565b34801561040e57600080fd5b5061034561041d3660046123d2565b610ada565b34801561042e57600080fd5b5061044261043d3660046123eb565b610b2c565b6040519015158152602001610230565b34801561045e57600080fd5b5061028661046d366004612466565b610bbb565b34801561047e57600080fd5b507fffffffffffffffffffffffffffffffffffffffffffffffffffffffff748739275461030b565b3480156104b257600080fd5b506102866104c13660046124ad565b610c04565b3480156104d257600080fd5b506103456104e13660046123d2565b610c55565b3480156104f257600080fd5b50610345610501366004611f69565b610c63565b34801561051257600080fd5b506102866105213660046123eb565b610c76565b34801561053257600080fd5b506102c860025481565b34801561054857600080fd5b50610345610557366004612359565b610d37565b34801561056857600080fd5b506102866105773660046123eb565b610d42565b34801561058857600080fd5b506104426105973660046123d2565b610db5565b3480156105a857600080fd5b506102236105b7366004611f69565b610dd7565b3480156105c857600080fd5b506105dc6105d73660046123d2565b610e24565b60405161023091906124ea565b3480156105f557600080fd5b506105dc6106043660046123d2565b610e2f565b6102866106173660046123eb565b610e79565b61028661062a3660046123eb565b610eb6565b34801561063b57600080fd5b506102c861064a3660046123eb565b63389a75e1600c908152600091909152602090205490565b606061067561067083610edd565b611022565b92915050565b606061068633610b2c565b6106bc576040517f406ed3da00000000000000000000000000000000000000000000000000000000815260040160405180910390fd5b610675826110d4565b6106ce33610b2c565b610704576040517f406ed3da00000000000000000000000000000000000000000000000000000000815260040160405180910390fd5b61071682610711836110ec565b61119e565b5050565b61072333610b2c565b610759576040517f406ed3da00000000000000000000000000000000000000000000000000000000815260040160405180910390fd5b610716828261119e565b60006106756003600084805190602001208152602001908152602001600020611332565b60006202a30067ffffffffffffffff164201905063389a75e1600c5233600052806020600c2055337fdbf36a107da19e49527a7176a1babf963b4b0ff8cde35ee35d6cd8f1f9ac7e1d600080a250565b60606040517f17d5b8e800000000000000000000000000000000000000000000000000000000815260040160405180910390fd5b60606000825167ffffffffffffffff81111561082957610829611e5c565b60405190808252806020026020018201604052801561085c57816020015b60608152602001906001900390816108475790505b50905060005b83518110156109505760016000858381518110610881576108816124fd565b6020026020010151815260200190815260200160002080546108a29061252c565b80601f01602080910402602001604051908101604052809291908181526020018280546108ce9061252c565b801561091b5780601f106108f05761010080835404028352916020019161091b565b820191906000526020600020905b8154815290600101906020018083116108fe57829003601f168201915b5050505050828281518110610932576109326124fd565b60200260200101819052508080610948906125ae565b915050610862565b5092915050565b61096033610b2c565b610996576040517f406ed3da00000000000000000000000000000000000000000000000000000000815260040160405180910390fd5b61099f8161133c565b50565b6109aa61140f565b73ffffffffffffffffffffffffffffffffffffffff1660009081527f8ffeadc5cba727b8cc3cdef48739619490ea317fdb3baae1259089d06f92c9096020526040902080547fffffffffffffffffffffffffffffffffffffffffffffffffffffffffffffff00166001179055565b63389a75e1600c523360005260006020600c2055337ffa7b8eab7da67f412cc9575ed43464468f9bfbae89d1675917346ca6d8fe3c92600080a2565b81516020808401919091206000908152600390915260408120610a779083611445565b9392505050565b610a8661140f565b610a906000611451565b565b610a9b33610b2c565b610ad1576040517f406ed3da00000000000000000000000000000000000000000000000000000000815260040160405180910390fd5b61099f816114b7565b6060610ae533610b2c565b610b1b576040517f406ed3da00000000000000000000000000000000000000000000000000000000815260040160405180910390fd5b610675610b27836115bf565b6115df565b73ffffffffffffffffffffffffffffffffffffffff811660009081527f8ffeadc5cba727b8cc3cdef48739619490ea317fdb3baae1259089d06f92c909602052604081205460ff16806106755750507fffffffffffffffffffffffffffffffffffffffffffffffffffffffff748739275473ffffffffffffffffffffffffffffffffffffffff91821691161490565b610bc433610b2c565b610bfa576040517f406ed3da00000000000000000000000000000000000000000000000000000000815260040160405180910390fd5b61071682826115f5565b610c0d33610b2c565b610c43576040517f406ed3da00000000000000000000000000000000000000000000000000000000815260040160405180910390fd5b61071682610c50836116f0565b6115f5565b6060610675610b2783611719565b6060610675610c71836116f0565b6117bb565b610c7e61140f565b600080547fffffffffffffffffffffffff00000000000000000000000000000000000000001673ffffffffffffffffffffffffffffffffffffffff83169081179091556002546040517ff3034770000000000000000000000000000000000000000000000000000000008152306004820152602481019190915263f3034770906044015b600060405180830381600087803b158015610d1c57600080fd5b505af1158015610d30573d6000803e3d6000fd5b5050505050565b6060610675826117bb565b610d4a61140f565b73ffffffffffffffffffffffffffffffffffffffff1660009081527f8ffeadc5cba727b8cc3cdef48739619490ea317fdb3baae1259089d06f92c9096020526040902080547fffffffffffffffffffffffffffffffffffffffffffffffffffffffffffffff00169055565b60008181526001602052604081208054610dce9061252c565b15159392505050565b6060610de233610b2c565b610e18576040517f406ed3da00000000000000000000000000000000000000000000000000000000815260040160405180910390fd5b610675610670836110d4565b606061067582611719565b6060610e3a33610b2c565b610e70576040517f406ed3da00000000000000000000000000000000000000000000000000000000815260040160405180910390fd5b610675826115bf565b610e8161140f565b63389a75e1600c52806000526020600c208054421115610ea957636f5e88186000526004601cfd5b6000905561099f81611451565b610ebe61140f565b8060601b610ed457637448fbae6000526004601cfd5b61099f81611451565b60606000825167ffffffffffffffff811115610efb57610efb611e5c565b604051908082528060200260200182016040528015610f2e57816020015b6060815260200190600190039081610f195790505b50905060005b83518110156109505760016000858381518110610f5357610f536124fd565b602002602001015181526020019081526020016000208054610f749061252c565b80601f0160208091040260200160405190810160405280929190818152602001828054610fa09061252c565b8015610fed5780601f10610fc257610100808354040283529160200191610fed565b820191906000526020600020905b815481529060010190602001808311610fd057829003601f168201915b5050505050828281518110611004576110046124fd565b6020026020010181905250808061101a906125ae565b915050610f34565b60606000825167ffffffffffffffff81111561104057611040611e5c565b60405190808252806020026020018201604052801561107357816020015b606081526020019060019003908161105e5790505b50905060005b8351811015610950576110a4848281518110611097576110976124fd565b60200260200101516115df565b8282815181106110b6576110b66124fd565b602002602001018190525080806110cc906125ae565b915050611079565b606060006110e183610edd565b9050610675836114b7565b60606000825167ffffffffffffffff81111561110a5761110a611e5c565b60405190808252806020026020018201604052801561113d57816020015b60608152602001906001900390816111285790505b50905060005b83518110156109505761116e848281518110611161576111616124fd565b60200260200101516116f0565b828281518110611180576111806124fd565b60200260200101819052508080611196906125ae565b915050611143565b60005b8251811015611327576000600160008584815181106111c2576111c26124fd565b6020026020010151815260200190815260200160002080546111e39061252c565b80601f016020809104026020016040519081016040528092919081815260200182805461120f9061252c565b801561125c5780601f106112315761010080835404028352916020019161125c565b820191906000526020600020905b81548152906001019060200180831161123f57829003601f168201915b505050505090506000815111156112b4576112b2848381518110611282576112826124fd565b602002602001015160036000848051906020012081526020019081526020016000206117df90919063ffffffff16565b505b6113128483815181106112c9576112c96124fd565b6020026020010151600360008686815181106112e7576112e76124fd565b60200260200101518051906020012081526020019081526020016000206117eb90919063ffffffff16565b5050808061131f906125ae565b9150506111a1565b5061071682826117f7565b6000610675825490565b600081815260016020526040812080546113559061252c565b80601f01602080910402602001604051908101604052809291908181526020018280546113819061252c565b80156113ce5780601f106113a3576101008083540402835291602001916113ce565b820191906000526020600020905b8154815290600101906020018083116113b157829003601f168201915b5050505050905080516000036113e2575050565b8051602080830191909120600090815260039091526040902061140590836117df565b50610716826119d5565b7fffffffffffffffffffffffffffffffffffffffffffffffffffffffff74873927543314610a90576382b429006000526004601cfd5b6000610a778383611a43565b7fffffffffffffffffffffffffffffffffffffffffffffffffffffffff74873927805473ffffffffffffffffffffffffffffffffffffffff9092169182907f8be0079c531659141344cd1fd0a4f28419497f9722a3daafe3b4186f6b6457e0600080a355565b60005b81518110156115b5576000600160008484815181106114db576114db6124fd565b6020026020010151815260200190815260200160002080546114fc9061252c565b80601f01602080910402602001604051908101604052809291908181526020018280546115289061252c565b80156115755780601f1061154a57610100808354040283529160200191611575565b820191906000526020600020905b81548152906001019060200180831161155857829003601f168201915b50505050509050805160000361158b57506115a3565b6115a0838381518110611282576112826124fd565b50505b806115ad816125ae565b9150506114ba565b5061099f81611a6d565b606060006115cc83611719565b805190915015610675576106758361133c565b60608180602001905181019061067591906125e6565b6000828152600160205260408120805461160e9061252c565b80601f016020809104026020016040519081016040528092919081815260200182805461163a9061252c565b80156116875780601f1061165c57610100808354040283529160200191611687565b820191906000526020600020905b81548152906001019060200180831161166a57829003601f168201915b505050505090506000815111156116bd57805160208083019190912060009081526003909152604090206116bb90846117df565b505b815160208084019190912060009081526003909152604090206116e090846117eb565b506116eb8383611b82565b505050565b606081604051602001611703919061238e565b6040516020818303038152906040529050919050565b60008181526001602052604090208054606091906117369061252c565b80601f01602080910402602001604051908101604052809291908181526020018280546117629061252c565b80156117af5780601f10611784576101008083540402835291602001916117af565b820191906000526020600020905b81548152906001019060200180831161179257829003601f168201915b50505050509050919050565b60606106756003600084805190602001208152602001908152602001600020611c64565b6000610a778383611c71565b6000610a778383611d64565b8051825114611832576040517fc291f68400000000000000000000000000000000000000000000000000000000815260040160405180910390fd5b60005b82518110156118f757818181518110611850576118506124fd565b602002602001015151600003611892576040517f9cf8540c00000000000000000000000000000000000000000000000000000000815260040160405180910390fd5b8181815181106118a4576118a46124fd565b6020026020010151600160008584815181106118c2576118c26124fd565b6020026020010151815260200190815260200160002090816118e491906126bd565b50806118ef816125ae565b915050611835565b506000805473ffffffffffffffffffffffffffffffffffffffff16905b83518110156119cf578173ffffffffffffffffffffffffffffffffffffffff1663cfd3c57f85838151811061194b5761194b6124fd565b6020026020010151858481518110611965576119656124fd565b60200260200101516040518363ffffffff1660e01b815260040161198a9291906127d7565b600060405180830381600087803b1580156119a457600080fd5b505af11580156119b8573d6000803e3d6000fd5b5050505080806119c7906125ae565b915050611914565b50505050565b60008181526001602052604081206119ec91611e0e565b6000546040517f0de3b7b50000000000000000000000000000000000000000000000000000000081526004810183905273ffffffffffffffffffffffffffffffffffffffff90911690630de3b7b590602401610d02565b6000826000018281548110611a5a57611a5a6124fd565b9060005260206000200154905092915050565b60005b8151811015611ac35760016000838381518110611a8f57611a8f6124fd565b602002602001015181526020019081526020016000206000611ab19190611e0e565b80611abb816125ae565b915050611a70565b506000805473ffffffffffffffffffffffffffffffffffffffff16905b82518110156116eb578173ffffffffffffffffffffffffffffffffffffffff16630de3b7b5848381518110611b1757611b176124fd565b60200260200101516040518263ffffffff1660e01b8152600401611b3d91815260200190565b600060405180830381600087803b158015611b5757600080fd5b505af1158015611b6b573d6000803e3d6000fd5b505050508080611b7a906125ae565b915050611ae0565b8051600003611bbd576040517f9cf8540c00000000000000000000000000000000000000000000000000000000815260040160405180910390fd5b6000828152600160205260409020611bd582826126bd565b506000546040517fcfd3c57f00000000000000000000000000000000000000000000000000000000815273ffffffffffffffffffffffffffffffffffffffff9091169063cfd3c57f90611c2e90859085906004016127d7565b600060405180830381600087803b158015611c4857600080fd5b505af1158015611c5c573d6000803e3d6000fd5b505050505050565b60606000610a7783611db3565b60008181526001830160205260408120548015611d5a576000611c956001836127f0565b8554909150600090611ca9906001906127f0565b9050818114611d0e576000866000018281548110611cc957611cc96124fd565b9060005260206000200154905080876000018481548110611cec57611cec6124fd565b6000918252602080832090910192909255918252600188019052604090208390555b8554869080611d1f57611d1f612803565b600190038181906000526020600020016000905590558560010160008681526020019081526020016000206000905560019350505050610675565b6000915050610675565b6000818152600183016020526040812054611dab57508154600181810184556000848152602080822090930184905584548482528286019093526040902091909155610675565b506000610675565b6060816000018054806020026020016040519081016040528092919081815260200182805480156117af57602002820191906000526020600020905b815481526020019060010190808311611def5750505050509050919050565b508054611e1a9061252c565b6000825580601f10611e2a575050565b601f01602090049060005260206000209081019061099f91905b80821115611e585760008155600101611e44565b5090565b7f4e487b7100000000000000000000000000000000000000000000000000000000600052604160045260246000fd5b604051601f82017fffffffffffffffffffffffffffffffffffffffffffffffffffffffffffffffe016810167ffffffffffffffff81118282101715611ed257611ed2611e5c565b604052919050565b600067ffffffffffffffff821115611ef457611ef4611e5c565b5060051b60200190565b600082601f830112611f0f57600080fd5b81356020611f24611f1f83611eda565b611e8b565b82815260059290921b84018101918181019086841115611f4357600080fd5b8286015b84811015611f5e5780358352918301918301611f47565b509695505050505050565b600060208284031215611f7b57600080fd5b813567ffffffffffffffff811115611f9257600080fd5b611f9e84828501611efe565b949350505050565b6000602080830181845280855180835260408601915060408160051b87010192508387016000805b83811015612040578886037fffffffffffffffffffffffffffffffffffffffffffffffffffffffffffffffc0018552825180518088529088019088880190845b8181101561202a5783518352928a0192918a019160010161200e565b5090975050509386019391860191600101611fce565b509398975050505050505050565b6000815180845260005b8181101561207457602081850181015186830182015201612058565b5060006020828601015260207fffffffffffffffffffffffffffffffffffffffffffffffffffffffffffffffe0601f83011685010191505092915050565b6000602080830181845280855180835260408601915060408160051b870101925083870160005b82811015612125577fffffffffffffffffffffffffffffffffffffffffffffffffffffffffffffffc088860301845261211385835161204e565b945092850192908501906001016120d9565b5092979650505050505050565b6000806040838503121561214557600080fd5b823567ffffffffffffffff8082111561215d57600080fd5b61216986838701611efe565b935060209150818501358181111561218057600080fd5b8501601f8101871361219157600080fd5b803561219f611f1f82611eda565b81815260059190911b820184019084810190898311156121be57600080fd5b8584015b838110156121f6578035868111156121da5760008081fd5b6121e88c8983890101611efe565b8452509186019186016121c2565b508096505050505050509250929050565b600082601f83011261221857600080fd5b813567ffffffffffffffff81111561223257612232611e5c565b61226360207fffffffffffffffffffffffffffffffffffffffffffffffffffffffffffffffe0601f84011601611e8b565b81815284602083860101111561227857600080fd5b816020850160208301376000918101602001919091529392505050565b600080604083850312156122a857600080fd5b823567ffffffffffffffff808211156122c057600080fd5b6122cc86838701611efe565b93506020915081850135818111156122e357600080fd5b8501601f810187136122f457600080fd5b8035612302611f1f82611eda565b81815260059190911b8201840190848101908983111561232157600080fd5b8584015b838110156121f65780358681111561233d5760008081fd5b61234b8c8983890101612207565b845250918601918601612325565b60006020828403121561236b57600080fd5b813567ffffffffffffffff81111561238257600080fd5b611f9e84828501612207565b6020808252825182820181905260009190848201906040850190845b818110156123c6578351835292840192918401916001016123aa565b50909695505050505050565b6000602082840312156123e457600080fd5b5035919050565b6000602082840312156123fd57600080fd5b813573ffffffffffffffffffffffffffffffffffffffff81168114610a7757600080fd5b6000806040838503121561243457600080fd5b823567ffffffffffffffff81111561244b57600080fd5b61245785828601612207565b95602094909401359450505050565b6000806040838503121561247957600080fd5b82359150602083013567ffffffffffffffff81111561249757600080fd5b6124a385828601612207565b9150509250929050565b600080604083850312156124c057600080fd5b82359150602083013567ffffffffffffffff8111156124de57600080fd5b6124a385828601611efe565b602081526000610a77602083018461204e565b7f4e487b7100000000000000000000000000000000000000000000000000000000600052603260045260246000fd5b600181811c9082168061254057607f821691505b602082108103612579577f4e487b7100000000000000000000000000000000000000000000000000000000600052602260045260246000fd5b50919050565b7f4e487b7100000000000000000000000000000000000000000000000000000000600052601160045260246000fd5b60007fffffffffffffffffffffffffffffffffffffffffffffffffffffffffffffffff82036125df576125df61257f565b5060010190565b600060208083850312156125f957600080fd5b825167ffffffffffffffff81111561261057600080fd5b8301601f8101851361262157600080fd5b805161262f611f1f82611eda565b81815260059190911b8201830190838101908783111561264e57600080fd5b928401925b8284101561266c57835182529284019290840190612653565b979650505050505050565b601f8211156116eb57600081815260208120601f850160051c8101602086101561269e5750805b601f850160051c820191505b81811015611c5c578281556001016126aa565b815167ffffffffffffffff8111156126d7576126d7611e5c565b6126eb816126e5845461252c565b84612677565b602080601f83116001811461273e57600084156127085750858301515b7fffffffffffffffffffffffffffffffffffffffffffffffffffffffffffffffff600386901b1c1916600185901b178555611c5c565b6000858152602081207fffffffffffffffffffffffffffffffffffffffffffffffffffffffffffffffe08616915b8281101561278b5788860151825594840194600190910190840161276c565b50858210156127c757878501517fffffffffffffffffffffffffffffffffffffffffffffffffffffffffffffffff600388901b60f8161c191681555b5050505050600190811b01905550565b828152604060208201526000611f9e604083018461204e565b818103818111156106755761067561257f565b7f4e487b7100000000000000000000000000000000000000000000000000000000600052603160045260246000fdfea2646970667358221220288ff53afb90bba63730809f7c7d34798bf94b2578ea1f0519bf92e8f86fcb8864736f6c63430008110033","linkReferences":{}},"methodIdentifiers":{"authorizeWriter(address)":"4fef6a38","cancelOwnershipHandover()":"54d1f13d","completeOwnershipHandover(address)":"f04e283e","extract(uint256)":"85b39782","extractBatch(uint256[])":"dc5c22cd","extractRaw(uint256)":"e9ff6c76","extractRawBatch(uint256[])":"12b11155","get(uint256)":"9507d39a","getAt(bytes,uint256)":"6f9aa155","getBatch(uint256[])":"088dd0b9","getEntities()":"31b933b9","getEntitiesWithValue(bytes)":"b361be46","getEntitiesWithValue(uint256[])":"963e9eb0","getRaw(uint256)":"dd98e3c9","getRawBatch(uint256[])":"4323c4ef","has(uint256)":"cccf7a8e","id()":"af640d0f","owner()":"8da5cb5b","ownershipHandoverExpiresAt(address)":"fee81cf4","registerWorld(address)":"9d2c76b4","remove(uint256)":"4cc82215","removeBatch(uint256[])":"8482643e","renounceOwnership()":"715018a6","requestOwnershipHandover()":"25692962","set(uint256,bytes)":"8b282947","set(uint256,uint256[])":"946aadc6","setBatch(uint256[],bytes[])":"13ca8b6a","setBatch(uint256[],uint256[][])":"13178496","size(bytes)":"1c5ee10c","transferOwnership(address)":"f2fde38b","unauthorizeWriter(address)":"bf4fe57e","world()":"30b67baa","writeAccess(address)":"861eb905"},"id":158}