{"abi":[{"type":"constructor","inputs":[{"name":"world","type":"address","internalType":"address"},{"name":"id","type":"uint256","internalType":"uint256"}],"stateMutability":"nonpayable"},{"type":"function","name":"authorizeWriter","inputs":[{"name":"writer","type":"address","internalType":"address"}],"outputs":[],"stateMutability":"nonpayable"},{"type":"function","name":"cancelOwnershipHandover","inputs":[],"outputs":[],"stateMutability":"payable"},{"type":"function","name":"completeOwnershipHandover","inputs":[{"name":"pendingOwner","type":"address","internalType":"address"}],"outputs":[],"stateMutability":"payable"},{"type":"function","name":"extract","inputs":[{"name":"entity","type":"uint256","internalType":"uint256"}],"outputs":[{"name":"","type":"uint32","internalType":"uint32"}],"stateMutability":"nonpayable"},{"type":"function","name":"extractBatch","inputs":[{"name":"entities","type":"uint256[]","internalType":"uint256[]"}],"outputs":[{"name":"","type":"uint32[]","internalType":"uint32[]"}],"stateMutability":"nonpayable"},{"type":"function","name":"extractRaw","inputs":[{"name":"entity","type":"uint256","internalType":"uint256"}],"outputs":[{"name":"","type":"bytes","internalType":"bytes"}],"stateMutability":"nonpayable"},{"type":"function","name":"extractRawBatch","inputs":[{"name":"entities","type":"uint256[]","internalType":"uint256[]"}],"outputs":[{"name":"","type":"bytes[]","internalType":"bytes[]"}],"stateMutability":"nonpayable"},{"type":"function","name":"get","inputs":[{"name":"entity","type":"uint256","internalType":"uint256"}],"outputs":[{"name":"","type":"uint32","internalType":"uint32"}],"stateMutability":"view"},{"type":"function","name":"getBatch","inputs":[{"name":"entities","type":"uint256[]","internalType":"uint256[]"}],"outputs":[{"name":"","type":"uint32[]","internalType":"uint32[]"}],"stateMutability":"view"},{"type":"function","name":"getEntities","inputs":[],"outputs":[{"name":"","type":"uint256[]","internalType":"uint256[]"}],"stateMutability":"view"},{"type":"function","name":"getEntitiesWithValue","inputs":[{"name":"","type":"bytes","internalType":"bytes"}],"outputs":[{"name":"","type":"uint256[]","internalType":"uint256[]"}],"stateMutability":"view"},{"type":"function","name":"getRaw","inputs":[{"name":"entity","type":"uint256","internalType":"uint256"}],"outputs":[{"name":"","type":"bytes","internalType":"bytes"}],"stateMutability":"view"},{"type":"function","name":"getRawBatch","inputs":[{"name":"entities","type":"uint256[]","internalType":"uint256[]"}],"outputs":[{"name":"","type":"bytes[]","internalType":"bytes[]"}],"stateMutability":"view"},{"type":"function","name":"has","inputs":[{"name":"entity","type":"uint256","internalType":"uint256"}],"outputs":[{"name":"","type":"bool","internalType":"bool"}],"stateMutability":"view"},{"type":"function","name":"id","inputs":[],"outputs":[{"name":"","type":"uint256","internalType":"uint256"}],"stateMutability":"view"},{"type":"function","name":"owner","inputs":[],"outputs":[{"name":"result","type":"address","internalType":"address"}],"stateMutability":"view"},{"type":"function","name":"ownershipHandoverExpiresAt","inputs":[{"name":"pendingOwner","type":"address","internalType":"address"}],"outputs":[{"name":"result","type":"uint256","internalType":"uint256"}],"stateMutability":"view"},{"type":"function","name":"registerWorld","inputs":[{"name":"_world","type":"address","internalType":"address"}],"outputs":[],"stateMutability":"nonpayable"},{"type":"function","name":"remove","inputs":[{"name":"entity","type":"uint256","internalType":"uint256"}],"outputs":[],"stateMutability":"nonpayable"},{"type":"function","name":"removeBatch","inputs":[{"name":"entities","type":"uint256[]","internalType":"uint256[]"}],"outputs":[],"stateMutability":"nonpayable"},{"type":"function","name":"renounceOwnership","inputs":[],"outputs":[],"stateMutability":"payable"},{"type":"function","name":"requestOwnershipHandover","inputs":[],"outputs":[],"stateMutability":"payable"},{"type":"function","name":"set","inputs":[{"name":"entity","type":"uint256","internalType":"uint256"},{"name":"value","type":"bytes","internalType":"bytes"}],"outputs":[],"stateMutability":"nonpayable"},{"type":"function","name":"set","inputs":[{"name":"entity","type":"uint256","internalType":"uint256"},{"name":"value","type":"uint32","internalType":"uint32"}],"outputs":[],"stateMutability":"nonpayable"},{"type":"function","name":"setBatch","inputs":[{"name":"entities","type":"uint256[]","internalType":"uint256[]"},{"name":"values","type":"bytes[]","internalType":"bytes[]"}],"outputs":[],"stateMutability":"nonpayable"},{"type":"function","name":"setBatch","inputs":[{"name":"entities","type":"uint256[]","internalType":"uint256[]"},{"name":"values","type":"uint32[]","internalType":"uint32[]"}],"outputs":[],"stateMutability":"nonpayable"},{"type":"function","name":"transferOwnership","inputs":[{"name":"newOwner","type":"address","internalType":"address"}],"outputs":[],"stateMutability":"payable"},{"type":"function","name":"unauthorizeWriter","inputs":[{"name":"writer","type":"address","internalType":"address"}],"outputs":[],"stateMutability":"nonpayable"},{"type":"function","name":"world","inputs":[],"outputs":[{"name":"","type":"address","internalType":"address"}],"stateMutability":"view"},{"type":"function","name":"writeAccess","inputs":[{"name":"operator","type":"address","internalType":"address"}],"outputs":[{"name":"","type":"bool","internalType":"bool"}],"stateMutability":"view"},{"type":"event","name":"OwnershipHandoverCanceled","inputs":[{"name":"pendingOwner","type":"address","indexed":true,"internalType":"address"}],"anonymous":false},{"type":"event","name":"OwnershipHandoverRequested","inputs":[{"name":"pendingOwner","type":"address","indexed":true,"internalType":"address"}],"anonymous":false},{"type":"event","name":"OwnershipTransferred","inputs":[{"name":"oldOwner","type":"address","indexed":true,"internalType":"address"},{"name":"newOwner","type":"address","indexed":true,"internalType":"address"}],"anonymous":false},{"type":"error","name":"AlreadyInitialized","inputs":[]},{"type":"error","name":"BareComponent__NotImplemented","inputs":[]},{"type":"error","name":"BatchOp_UnexpectedLength","inputs":[]},{"type":"error","name":"NewOwnerIsZeroAddress","inputs":[]},{"type":"error","name":"NoHandoverRequest","inputs":[]},{"type":"error","name":"OwnableWritable__NotWriter","inputs":[]},{"type":"error","name":"Unauthorized","inputs":[]},{"type":"error","name":"ZeroValueNotAllowed","inputs":[]}],"bytecode":{"object":"0x60806040523480156200001157600080fd5b506040516200214b3803806200214b83398101604081905262000034916200014b565b818162000041336200006b565b60028190556001600160a01b0382161562000061576200006182620000a7565b5050505062000187565b6001600160a01b0316638b78c6d8198190558060007f8be0079c531659141344cd1fd0a4f28419497f9722a3daafe3b4186f6b6457e08180a350565b620000b16200012d565b600080546001600160a01b0319166001600160a01b038316908117909155600254604051630f30347760e41b8152306004820152602481019190915263f303477090604401600060405180830381600087803b1580156200011157600080fd5b505af115801562000126573d6000803e3d6000fd5b5050505050565b638b78c6d81954331462000149576382b429006000526004601cfd5b565b600080604083850312156200015f57600080fd5b82516001600160a01b03811681146200017757600080fd5b6020939093015192949293505050565b611fb480620001976000396000f3fe6080604052600436106101cd5760003560e01c80638c431d55116100f7578063cccf7a8e11610095578063e9ff6c7611610064578063e9ff6c761461056d578063f04e283e1461058d578063f2fde38b146105a0578063fee81cf4146105b357600080fd5b8063cccf7a8e146104e0578063d923c3c414610500578063dc5c22cd14610520578063dd98e3c91461054057600080fd5b80639d2c76b4116100d15780639d2c76b41461045c578063af640d0f1461047c578063b361be46146104a0578063bf4fe57e146104c057600080fd5b80638c431d55146103e85780638da5cb5b146104085780639507d39a1461043c57600080fd5b80634cc822151161016f5780638482643e1161013e5780638482643e1461034357806385b3978214610363578063861eb905146103985780638b282947146103c857600080fd5b80634cc82215146102f35780634fef6a381461031357806354d1f13d14610333578063715018a61461033b57600080fd5b806325692962116101ab578063256929621461025757806330b67baa1461025f57806331b933b9146102b15780634323c4ef146102d357600080fd5b8063088dd0b9146101d257806312b111551461020857806313ca8b6a14610235575b600080fd5b3480156101de57600080fd5b506101f26101ed366004611816565b6105e6565b6040516101ff9190611853565b60405180910390f35b34801561021457600080fd5b50610228610223366004611816565b6105ff565b6040516101ff9190611901565b34801561024157600080fd5b50610255610250366004611a0f565b610649565b005b610255610696565b34801561026b57600080fd5b5060005461028c9073ffffffffffffffffffffffffffffffffffffffff1681565b60405173ffffffffffffffffffffffffffffffffffffffff90911681526020016101ff565b3480156102bd57600080fd5b506102c66106e6565b6040516101ff9190611ae4565b3480156102df57600080fd5b506102286102ee366004611816565b61071a565b3480156102ff57600080fd5b5061025561030e366004611b1c565b610866565b34801561031f57600080fd5b5061025561032e366004611b35565b6108b1565b610255610927565b610255610963565b34801561034f57600080fd5b5061025561035e366004611816565b610977565b34801561036f57600080fd5b5061038361037e366004611b1c565b6109bf565b60405163ffffffff90911681526020016101ff565b3480156103a457600080fd5b506103b86103b3366004611b35565b610a11565b60405190151581526020016101ff565b3480156103d457600080fd5b506102556103e3366004611b72565b610aa0565b3480156103f457600080fd5b50610255610403366004611bcb565b610ae9565b34801561041457600080fd5b507fffffffffffffffffffffffffffffffffffffffffffffffffffffffff748739275461028c565b34801561044857600080fd5b50610383610457366004611b1c565b610b3a565b34801561046857600080fd5b50610255610477366004611b35565b610b48565b34801561048857600080fd5b5061049260025481565b6040519081526020016101ff565b3480156104ac57600080fd5b506102c66104bb366004611c8f565b6106e6565b3480156104cc57600080fd5b506102556104db366004611b35565b610c09565b3480156104ec57600080fd5b506103b86104fb366004611b1c565b610c7c565b34801561050c57600080fd5b5061025561051b366004611cc4565b610c9e565b34801561052c57600080fd5b506101f261053b366004611816565b610d14565b34801561054c57600080fd5b5061056061055b366004611b1c565b610d61565b6040516101ff9190611cf4565b34801561057957600080fd5b50610560610588366004611b1c565b610d6c565b61025561059b366004611b35565b610db6565b6102556105ae366004611b35565b610df3565b3480156105bf57600080fd5b506104926105ce366004611b35565b63389a75e1600c908152600091909152602090205490565b60606105f96105f483610e1a565b610f5f565b92915050565b606061060a33610a11565b610640576040517f406ed3da00000000000000000000000000000000000000000000000000000000815260040160405180910390fd5b6105f982611010565b61065233610a11565b610688576040517f406ed3da00000000000000000000000000000000000000000000000000000000815260040160405180910390fd5b6106928282611028565b5050565b60006202a30067ffffffffffffffff164201905063389a75e1600c5233600052806020600c2055337fdbf36a107da19e49527a7176a1babf963b4b0ff8cde35ee35d6cd8f1f9ac7e1d600080a250565b60606040517f17d5b8e800000000000000000000000000000000000000000000000000000000815260040160405180910390fd5b60606000825167ffffffffffffffff81111561073857610738611709565b60405190808252806020026020018201604052801561076b57816020015b60608152602001906001900390816107565790505b50905060005b835181101561085f576001600085838151811061079057610790611d07565b6020026020010151815260200190815260200160002080546107b190611d36565b80601f01602080910402602001604051908101604052809291908181526020018280546107dd90611d36565b801561082a5780601f106107ff5761010080835404028352916020019161082a565b820191906000526020600020905b81548152906001019060200180831161080d57829003601f168201915b505050505082828151811061084157610841611d07565b6020026020010181905250808061085790611d89565b915050610771565b5092915050565b61086f33610a11565b6108a5576040517f406ed3da00000000000000000000000000000000000000000000000000000000815260040160405180910390fd5b6108ae81611206565b50565b6108b9611274565b73ffffffffffffffffffffffffffffffffffffffff1660009081527f8ffeadc5cba727b8cc3cdef48739619490ea317fdb3baae1259089d06f92c9096020526040902080547fffffffffffffffffffffffffffffffffffffffffffffffffffffffffffffff00166001179055565b63389a75e1600c523360005260006020600c2055337ffa7b8eab7da67f412cc9575ed43464468f9bfbae89d1675917346ca6d8fe3c92600080a2565b61096b611274565b61097560006112aa565b565b61098033610a11565b6109b6576040517f406ed3da00000000000000000000000000000000000000000000000000000000815260040160405180910390fd5b6108ae81611310565b60006109ca33610a11565b610a00576040517f406ed3da00000000000000000000000000000000000000000000000000000000815260040160405180910390fd5b6105f9610a0c8361142a565b61144a565b73ffffffffffffffffffffffffffffffffffffffff811660009081527f8ffeadc5cba727b8cc3cdef48739619490ea317fdb3baae1259089d06f92c909602052604081205460ff16806105f95750507fffffffffffffffffffffffffffffffffffffffffffffffffffffffff748739275473ffffffffffffffffffffffffffffffffffffffff91821691161490565b610aa933610a11565b610adf576040517f406ed3da00000000000000000000000000000000000000000000000000000000815260040160405180910390fd5b6106928282611460565b610af233610a11565b610b28576040517f406ed3da00000000000000000000000000000000000000000000000000000000815260040160405180910390fd5b61069282610b3583611542565b611028565b60006105f9610a0c83611619565b610b50611274565b600080547fffffffffffffffffffffffff00000000000000000000000000000000000000001673ffffffffffffffffffffffffffffffffffffffff83169081179091556002546040517ff3034770000000000000000000000000000000000000000000000000000000008152306004820152602481019190915263f3034770906044015b600060405180830381600087803b158015610bee57600080fd5b505af1158015610c02573d6000803e3d6000fd5b5050505050565b610c11611274565b73ffffffffffffffffffffffffffffffffffffffff1660009081527f8ffeadc5cba727b8cc3cdef48739619490ea317fdb3baae1259089d06f92c9096020526040902080547fffffffffffffffffffffffffffffffffffffffffffffffffffffffffffffff00169055565b60008181526001602052604081208054610c9590611d36565b15159392505050565b610ca733610a11565b610cdd576040517f406ed3da00000000000000000000000000000000000000000000000000000000815260040160405180910390fd5b61069282610d0f836040805163ffffffff83166020820152606091016040516020818303038152906040529050919050565b611460565b6060610d1f33610a11565b610d55576040517f406ed3da00000000000000000000000000000000000000000000000000000000815260040160405180910390fd5b6105f96105f483611010565b60606105f982611619565b6060610d7733610a11565b610dad576040517f406ed3da00000000000000000000000000000000000000000000000000000000815260040160405180910390fd5b6105f98261142a565b610dbe611274565b63389a75e1600c52806000526020600c208054421115610de657636f5e88186000526004601cfd5b600090556108ae816112aa565b610dfb611274565b8060601b610e1157637448fbae6000526004601cfd5b6108ae816112aa565b60606000825167ffffffffffffffff811115610e3857610e38611709565b604051908082528060200260200182016040528015610e6b57816020015b6060815260200190600190039081610e565790505b50905060005b835181101561085f5760016000858381518110610e9057610e90611d07565b602002602001015181526020019081526020016000208054610eb190611d36565b80601f0160208091040260200160405190810160405280929190818152602001828054610edd90611d36565b8015610f2a5780601f10610eff57610100808354040283529160200191610f2a565b820191906000526020600020905b815481529060010190602001808311610f0d57829003601f168201915b5050505050828281518110610f4157610f41611d07565b60200260200101819052508080610f5790611d89565b915050610e71565b60606000825167ffffffffffffffff811115610f7d57610f7d611709565b604051908082528060200260200182016040528015610fa6578160200160208202803683370190505b50905060005b835181101561085f57610fd7848281518110610fca57610fca611d07565b602002602001015161144a565b828281518110610fe957610fe9611d07565b63ffffffff909216602092830291909101909101528061100881611d89565b915050610fac565b6060600061101d83610e1a565b90506105f983611310565b8051825114611063576040517fc291f68400000000000000000000000000000000000000000000000000000000815260040160405180910390fd5b60005b82518110156111285781818151811061108157611081611d07565b6020026020010151516000036110c3576040517f9cf8540c00000000000000000000000000000000000000000000000000000000815260040160405180910390fd5b8181815181106110d5576110d5611d07565b6020026020010151600160008584815181106110f3576110f3611d07565b6020026020010151815260200190815260200160002090816111159190611e2e565b508061112081611d89565b915050611066565b506000805473ffffffffffffffffffffffffffffffffffffffff16905b8351811015611200578173ffffffffffffffffffffffffffffffffffffffff1663cfd3c57f85838151811061117c5761117c611d07565b602002602001015185848151811061119657611196611d07565b60200260200101516040518363ffffffff1660e01b81526004016111bb929190611f48565b600060405180830381600087803b1580156111d557600080fd5b505af11580156111e9573d6000803e3d6000fd5b5050505080806111f890611d89565b915050611145565b50505050565b600081815260016020526040812061121d916116bb565b6000546040517f0de3b7b50000000000000000000000000000000000000000000000000000000081526004810183905273ffffffffffffffffffffffffffffffffffffffff90911690630de3b7b590602401610bd4565b7fffffffffffffffffffffffffffffffffffffffffffffffffffffffff74873927543314610975576382b429006000526004601cfd5b7fffffffffffffffffffffffffffffffffffffffffffffffffffffffff74873927805473ffffffffffffffffffffffffffffffffffffffff9092169182907f8be0079c531659141344cd1fd0a4f28419497f9722a3daafe3b4186f6b6457e0600080a355565b60005b8151811015611366576001600083838151811061133257611332611d07565b60200260200101518152602001908152602001600020600061135491906116bb565b8061135e81611d89565b915050611313565b506000805473ffffffffffffffffffffffffffffffffffffffff16905b8251811015611425578173ffffffffffffffffffffffffffffffffffffffff16630de3b7b58483815181106113ba576113ba611d07565b60200260200101516040518263ffffffff1660e01b81526004016113e091815260200190565b600060405180830381600087803b1580156113fa57600080fd5b505af115801561140e573d6000803e3d6000fd5b50505050808061141d90611d89565b915050611383565b505050565b6060600061143783611619565b8051909150156105f9576105f983611206565b6000818060200190518101906105f99190611f61565b805160000361149b576040517f9cf8540c00000000000000000000000000000000000000000000000000000000815260040160405180910390fd5b60008281526001602052604090206114b38282611e2e565b506000546040517fcfd3c57f00000000000000000000000000000000000000000000000000000000815273ffffffffffffffffffffffffffffffffffffffff9091169063cfd3c57f9061150c9085908590600401611f48565b600060405180830381600087803b15801561152657600080fd5b505af115801561153a573d6000803e3d6000fd5b505050505050565b60606000825167ffffffffffffffff81111561156057611560611709565b60405190808252806020026020018201604052801561159357816020015b606081526020019060019003908161157e5790505b50905060005b835181101561085f576115e98482815181106115b7576115b7611d07565b60200260200101516040805163ffffffff83166020820152606091016040516020818303038152906040529050919050565b8282815181106115fb576115fb611d07565b6020026020010181905250808061161190611d89565b915050611599565b600081815260016020526040902080546060919061163690611d36565b80601f016020809104026020016040519081016040528092919081815260200182805461166290611d36565b80156116af5780601f10611684576101008083540402835291602001916116af565b820191906000526020600020905b81548152906001019060200180831161169257829003601f168201915b50505050509050919050565b5080546116c790611d36565b6000825580601f106116d7575050565b601f0160209004906000526020600020908101906108ae91905b8082111561170557600081556001016116f1565b5090565b7f4e487b7100000000000000000000000000000000000000000000000000000000600052604160045260246000fd5b604051601f82017fffffffffffffffffffffffffffffffffffffffffffffffffffffffffffffffe016810167ffffffffffffffff8111828210171561177f5761177f611709565b604052919050565b600067ffffffffffffffff8211156117a1576117a1611709565b5060051b60200190565b600082601f8301126117bc57600080fd5b813560206117d16117cc83611787565b611738565b82815260059290921b840181019181810190868411156117f057600080fd5b8286015b8481101561180b57803583529183019183016117f4565b509695505050505050565b60006020828403121561182857600080fd5b813567ffffffffffffffff81111561183f57600080fd5b61184b848285016117ab565b949350505050565b6020808252825182820181905260009190848201906040850190845b8181101561189157835163ffffffff168352928401929184019160010161186f565b50909695505050505050565b6000815180845260005b818110156118c3576020818501810151868301820152016118a7565b5060006020828601015260207fffffffffffffffffffffffffffffffffffffffffffffffffffffffffffffffe0601f83011685010191505092915050565b6000602080830181845280855180835260408601915060408160051b870101925083870160005b82811015611974577fffffffffffffffffffffffffffffffffffffffffffffffffffffffffffffffc088860301845261196285835161189d565b94509285019290850190600101611928565b5092979650505050505050565b600082601f83011261199257600080fd5b813567ffffffffffffffff8111156119ac576119ac611709565b6119dd60207fffffffffffffffffffffffffffffffffffffffffffffffffffffffffffffffe0601f84011601611738565b8181528460208386010111156119f257600080fd5b816020850160208301376000918101602001919091529392505050565b60008060408385031215611a2257600080fd5b823567ffffffffffffffff80821115611a3a57600080fd5b611a46868387016117ab565b9350602091508185013581811115611a5d57600080fd5b8501601f81018713611a6e57600080fd5b8035611a7c6117cc82611787565b81815260059190911b82018401908481019089831115611a9b57600080fd5b8584015b83811015611ad357803586811115611ab75760008081fd5b611ac58c8983890101611981565b845250918601918601611a9f565b508096505050505050509250929050565b6020808252825182820181905260009190848201906040850190845b8181101561189157835183529284019291840191600101611b00565b600060208284031215611b2e57600080fd5b5035919050565b600060208284031215611b4757600080fd5b813573ffffffffffffffffffffffffffffffffffffffff81168114611b6b57600080fd5b9392505050565b60008060408385031215611b8557600080fd5b82359150602083013567ffffffffffffffff811115611ba357600080fd5b611baf85828601611981565b9150509250929050565b63ffffffff811681146108ae57600080fd5b60008060408385031215611bde57600080fd5b823567ffffffffffffffff80821115611bf657600080fd5b611c02868387016117ab565b9350602091508185013581811115611c1957600080fd5b85019050601f81018613611c2c57600080fd5b8035611c3a6117cc82611787565b81815260059190911b82018301908381019088831115611c5957600080fd5b928401925b82841015611c80578335611c7181611bb9565b82529284019290840190611c5e565b80955050505050509250929050565b600060208284031215611ca157600080fd5b813567ffffffffffffffff811115611cb857600080fd5b61184b84828501611981565b60008060408385031215611cd757600080fd5b823591506020830135611ce981611bb9565b809150509250929050565b602081526000611b6b602083018461189d565b7f4e487b7100000000000000000000000000000000000000000000000000000000600052603260045260246000fd5b600181811c90821680611d4a57607f821691505b602082108103611d83577f4e487b7100000000000000000000000000000000000000000000000000000000600052602260045260246000fd5b50919050565b60007fffffffffffffffffffffffffffffffffffffffffffffffffffffffffffffffff8203611de1577f4e487b7100000000000000000000000000000000000000000000000000000000600052601160045260246000fd5b5060010190565b601f82111561142557600081815260208120601f850160051c81016020861015611e0f5750805b601f850160051c820191505b8181101561153a57828155600101611e1b565b815167ffffffffffffffff811115611e4857611e48611709565b611e5c81611e568454611d36565b84611de8565b602080601f831160018114611eaf5760008415611e795750858301515b7fffffffffffffffffffffffffffffffffffffffffffffffffffffffffffffffff600386901b1c1916600185901b17855561153a565b6000858152602081207fffffffffffffffffffffffffffffffffffffffffffffffffffffffffffffffe08616915b82811015611efc57888601518255948401946001909101908401611edd565b5085821015611f3857878501517fffffffffffffffffffffffffffffffffffffffffffffffffffffffffffffffff600388901b60f8161c191681555b5050505050600190811b01905550565b82815260406020820152600061184b604083018461189d565b600060208284031215611f7357600080fd5b8151611b6b81611bb956fea2646970667358221220a5fb558850f83c7f9514764c566d594aa5b4cd697a36992587b611b85c3812ab64736f6c63430008110033","linkReferences":{}},"methodIdentifiers":{"authorizeWriter(address)":"4fef6a38","cancelOwnershipHandover()":"54d1f13d","completeOwnershipHandover(address)":"f04e283e","extract(uint256)":"85b39782","extractBatch(uint256[])":"dc5c22cd","extractRaw(uint256)":"e9ff6c76","extractRawBatch(uint256[])":"12b11155","get(uint256)":"9507d39a","getBatch(uint256[])":"088dd0b9","getEntities()":"31b933b9","getEntitiesWithValue(bytes)":"b361be46","getRaw(uint256)":"dd98e3c9","getRawBatch(uint256[])":"4323c4ef","has(uint256)":"cccf7a8e","id()":"af640d0f","owner()":"8da5cb5b","ownershipHandoverExpiresAt(address)":"fee81cf4","registerWorld(address)":"9d2c76b4","remove(uint256)":"4cc82215","removeBatch(uint256[])":"8482643e","renounceOwnership()":"715018a6","requestOwnershipHandover()":"25692962","set(uint256,bytes)":"8b282947","set(uint256,uint32)":"d923c3c4","setBatch(uint256[],bytes[])":"13ca8b6a","setBatch(uint256[],uint32[])":"8c431d55","transferOwnership(address)":"f2fde38b","unauthorizeWriter(address)":"bf4fe57e","world()":"30b67baa","writeAccess(address)":"861eb905"},"id":163}