{"abi":[{"type":"constructor","inputs":[{"name":"world","type":"address","internalType":"address"},{"name":"id","type":"uint256","internalType":"uint256"}],"stateMutability":"nonpayable"},{"type":"function","name":"authorizeWriter","inputs":[{"name":"writer","type":"address","internalType":"address"}],"outputs":[],"stateMutability":"nonpayable"},{"type":"function","name":"cancelOwnershipHandover","inputs":[],"outputs":[],"stateMutability":"payable"},{"type":"function","name":"completeOwnershipHandover","inputs":[{"name":"pendingOwner","type":"address","internalType":"address"}],"outputs":[],"stateMutability":"payable"},{"type":"function","name":"extract","inputs":[{"name":"entity","type":"uint256","internalType":"uint256"}],"outputs":[{"name":"","type":"uint32[]","internalType":"uint32[]"}],"stateMutability":"nonpayable"},{"type":"function","name":"extractBatch","inputs":[{"name":"entities","type":"uint256[]","internalType":"uint256[]"}],"outputs":[{"name":"","type":"uint32[][]","internalType":"uint32[][]"}],"stateMutability":"nonpayable"},{"type":"function","name":"extractRaw","inputs":[{"name":"entity","type":"uint256","internalType":"uint256"}],"outputs":[{"name":"","type":"bytes","internalType":"bytes"}],"stateMutability":"nonpayable"},{"type":"function","name":"extractRawBatch","inputs":[{"name":"entities","type":"uint256[]","internalType":"uint256[]"}],"outputs":[{"name":"","type":"bytes[]","internalType":"bytes[]"}],"stateMutability":"nonpayable"},{"type":"function","name":"get","inputs":[{"name":"entity","type":"uint256","internalType":"uint256"}],"outputs":[{"name":"","type":"uint32[]","internalType":"uint32[]"}],"stateMutability":"view"},{"type":"function","name":"getAt","inputs":[{"name":"value","type":"bytes","internalType":"bytes"},{"name":"index","type":"uint256","internalType":"uint256"}],"outputs":[{"name":"","type":"uint256","internalType":"uint256"}],"stateMutability":"view"},{"type":"function","name":"getBatch","inputs":[{"name":"entities","type":"uint256[]","internalType":"uint256[]"}],"outputs":[{"name":"","type":"uint32[][]","internalType":"uint32[][]"}],"stateMutability":"view"},{"type":"function","name":"getEntities","inputs":[],"outputs":[{"name":"","type":"uint256[]","internalType":"uint256[]"}],"stateMutability":"view"},{"type":"function","name":"getEntitiesWithValue","inputs":[{"name":"value","type":"bytes","internalType":"bytes"}],"outputs":[{"name":"","type":"uint256[]","internalType":"uint256[]"}],"stateMutability":"view"},{"type":"function","name":"getEntitiesWithValue","inputs":[{"name":"value","type":"uint32[]","internalType":"uint32[]"}],"outputs":[{"name":"","type":"uint256[]","internalType":"uint256[]"}],"stateMutability":"view"},{"type":"function","name":"getRaw","inputs":[{"name":"entity","type":"uint256","internalType":"uint256"}],"outputs":[{"name":"","type":"bytes","internalType":"bytes"}],"stateMutability":"view"},{"type":"function","name":"getRawBatch","inputs":[{"name":"entities","type":"uint256[]","internalType":"uint256[]"}],"outputs":[{"name":"","type":"bytes[]","internalType":"bytes[]"}],"stateMutability":"view"},{"type":"function","name":"has","inputs":[{"name":"entity","type":"uint256","internalType":"uint256"}],"outputs":[{"name":"","type":"bool","internalType":"bool"}],"stateMutability":"view"},{"type":"function","name":"id","inputs":[],"outputs":[{"name":"","type":"uint256","internalType":"uint256"}],"stateMutability":"view"},{"type":"function","name":"owner","inputs":[],"outputs":[{"name":"result","type":"address","internalType":"address"}],"stateMutability":"view"},{"type":"function","name":"ownershipHandoverExpiresAt","inputs":[{"name":"pendingOwner","type":"address","internalType":"address"}],"outputs":[{"name":"result","type":"uint256","internalType":"uint256"}],"stateMutability":"view"},{"type":"function","name":"registerWorld","inputs":[{"name":"_world","type":"address","internalType":"address"}],"outputs":[],"stateMutability":"nonpayable"},{"type":"function","name":"remove","inputs":[{"name":"entity","type":"uint256","internalType":"uint256"}],"outputs":[],"stateMutability":"nonpayable"},{"type":"function","name":"removeBatch","inputs":[{"name":"entities","type":"uint256[]","internalType":"uint256[]"}],"outputs":[],"stateMutability":"nonpayable"},{"type":"function","name":"renounceOwnership","inputs":[],"outputs":[],"stateMutability":"payable"},{"type":"function","name":"requestOwnershipHandover","inputs":[],"outputs":[],"stateMutability":"payable"},{"type":"function","name":"set","inputs":[{"name":"entity","type":"uint256","internalType":"uint256"},{"name":"value","type":"bytes","internalType":"bytes"}],"outputs":[],"stateMutability":"nonpayable"},{"type":"function","name":"set","inputs":[{"name":"entity","type":"uint256","internalType":"uint256"},{"name":"value","type":"uint32[]","internalType":"uint32[]"}],"outputs":[],"stateMutability":"nonpayable"},{"type":"function","name":"setBatch","inputs":[{"name":"entities","type":"uint256[]","internalType":"uint256[]"},{"name":"values","type":"bytes[]","internalType":"bytes[]"}],"outputs":[],"stateMutability":"nonpayable"},{"type":"function","name":"setBatch","inputs":[{"name":"entities","type":"uint256[]","internalType":"uint256[]"},{"name":"values","type":"uint32[][]","internalType":"uint32[][]"}],"outputs":[],"stateMutability":"nonpayable"},{"type":"function","name":"size","inputs":[{"name":"value","type":"bytes","internalType":"bytes"}],"outputs":[{"name":"","type":"uint256","internalType":"uint256"}],"stateMutability":"view"},{"type":"function","name":"transferOwnership","inputs":[{"name":"newOwner","type":"address","internalType":"address"}],"outputs":[],"stateMutability":"payable"},{"type":"function","name":"unauthorizeWriter","inputs":[{"name":"writer","type":"address","internalType":"address"}],"outputs":[],"stateMutability":"nonpayable"},{"type":"function","name":"world","inputs":[],"outputs":[{"name":"","type":"address","internalType":"address"}],"stateMutability":"view"},{"type":"function","name":"writeAccess","inputs":[{"name":"operator","type":"address","internalType":"address"}],"outputs":[{"name":"","type":"bool","internalType":"bool"}],"stateMutability":"view"},{"type":"event","name":"OwnershipHandoverCanceled","inputs":[{"name":"pendingOwner","type":"address","indexed":true,"internalType":"address"}],"anonymous":false},{"type":"event","name":"OwnershipHandoverRequested","inputs":[{"name":"pendingOwner","type":"address","indexed":true,"internalType":"address"}],"anonymous":false},{"type":"event","name":"OwnershipTransferred","inputs":[{"name":"oldOwner","type":"address","indexed":true,"internalType":"address"},{"name":"newOwner","type":"address","indexed":true,"internalType":"address"}],"anonymous":false},{"type":"error","name":"AlreadyInitialized","inputs":[]},{"type":"error","name":"BareComponent__NotImplemented","inputs":[]},{"type":"error","name":"BatchOp_UnexpectedLength","inputs":[]},{"type":"error","name":"NewOwnerIsZeroAddress","inputs":[]},{"type":"error","name":"NoHandoverRequest","inputs":[]},{"type":"error","name":"OwnableWritable__NotWriter","inputs":[]},{"type":"error","name":"Unauthorized","inputs":[]},{"type":"error","name":"ZeroValueNotAllowed","inputs":[]}],"bytecode":{"object":"0x60806040523480156200001157600080fd5b5060405162002b0838038062002b0883398101604081905262000034916200014f565b8181818162000043336200006f565b60028190556001600160a01b0382161562000063576200006382620000ab565b5050505050506200018b565b6001600160a01b0316638b78c6d8198190558060007f8be0079c531659141344cd1fd0a4f28419497f9722a3daafe3b4186f6b6457e08180a350565b620000b562000131565b600080546001600160a01b0319166001600160a01b038316908117909155600254604051630f30347760e41b8152306004820152602481019190915263f303477090604401600060405180830381600087803b1580156200011557600080fd5b505af11580156200012a573d6000803e3d6000fd5b5050505050565b638b78c6d8195433146200014d576382b429006000526004601cfd5b565b600080604083850312156200016357600080fd5b82516001600160a01b03811681146200017b57600080fd5b6020939093015192949293505050565b61296d806200019b6000396000f3fe6080604052600436106101fe5760003560e01c8063861eb9051161011d578063bf4fe57e116100b0578063e9ff6c761161007f578063f2fde38b11610064578063f2fde38b14610609578063f96911fa1461061c578063fee81cf41461063c57600080fd5b8063e9ff6c76146105d6578063f04e283e146105f657600080fd5b8063bf4fe57e14610549578063cccf7a8e14610569578063dc5c22cd14610589578063dd98e3c9146105a957600080fd5b80639d2c76b4116100ec5780639d2c76b4146104d3578063af640d0f146104f3578063b361be4614610509578063bd2746e71461052957600080fd5b8063861eb9051461042f5780638b2829471461045f5780638da5cb5b1461047f5780639507d39a146104b357600080fd5b80634323c4ef116101955780636f9aa155116101645780636f9aa155146103ba578063715018a6146103da5780638482643e146103e257806385b397821461040257600080fd5b80634323c4ef146103525780634cc82215146103725780634fef6a381461039257806354d1f13d146103b257600080fd5b80631c5ee10c116101d15780631c5ee10c146102a857806325692962146102d657806330b67baa146102de57806331b933b91461033057600080fd5b8063088dd0b91461020357806312b111551461023957806313ca8b6a146102665780631ac21a2014610288575b600080fd5b34801561020f57600080fd5b5061022361021e366004611f76565b61066f565b6040516102309190611fb3565b60405180910390f35b34801561024557600080fd5b50610259610254366004611f76565b610688565b60405161023091906120c5565b34801561027257600080fd5b506102866102813660046121d3565b6106d2565b005b34801561029457600080fd5b506102866102a336600461231e565b61071f565b3480156102b457600080fd5b506102c86102c33660046123e2565b610770565b604051908152602001610230565b610286610794565b3480156102ea57600080fd5b5060005461030b9073ffffffffffffffffffffffffffffffffffffffff1681565b60405173ffffffffffffffffffffffffffffffffffffffff9091168152602001610230565b34801561033c57600080fd5b506103456107e4565b6040516102309190612417565b34801561035e57600080fd5b5061025961036d366004611f76565b610818565b34801561037e57600080fd5b5061028661038d36600461245b565b610964565b34801561039e57600080fd5b506102866103ad366004612474565b6109af565b610286610a25565b3480156103c657600080fd5b506102c86103d53660046124aa565b610a61565b610286610a8b565b3480156103ee57600080fd5b506102866103fd366004611f76565b610a9f565b34801561040e57600080fd5b5061042261041d36600461245b565b610ae7565b60405161023091906124ef565b34801561043b57600080fd5b5061044f61044a366004612474565b610b39565b6040519015158152602001610230565b34801561046b57600080fd5b5061028661047a36600461252d565b610bc8565b34801561048b57600080fd5b507fffffffffffffffffffffffffffffffffffffffffffffffffffffffff748739275461030b565b3480156104bf57600080fd5b506104226104ce36600461245b565b610c11565b3480156104df57600080fd5b506102866104ee366004612474565b610c1f565b3480156104ff57600080fd5b506102c860025481565b34801561051557600080fd5b506103456105243660046123e2565b610ce0565b34801561053557600080fd5b50610345610544366004612574565b610ceb565b34801561055557600080fd5b50610286610564366004612474565b610cfe565b34801561057557600080fd5b5061044f61058436600461245b565b610d71565b34801561059557600080fd5b506102236105a4366004611f76565b610d93565b3480156105b557600080fd5b506105c96105c436600461245b565b610de0565b60405161023091906125a9565b3480156105e257600080fd5b506105c96105f136600461245b565b610deb565b610286610604366004612474565b610e35565b610286610617366004612474565b610e72565b34801561062857600080fd5b506102866106373660046125bc565b610e99565b34801561064857600080fd5b506102c8610657366004612474565b63389a75e1600c908152600091909152602090205490565b606061068261067d83610eea565b61102f565b92915050565b606061069333610b39565b6106c9576040517f406ed3da00000000000000000000000000000000000000000000000000000000815260040160405180910390fd5b610682826110e1565b6106db33610b39565b610711576040517f406ed3da00000000000000000000000000000000000000000000000000000000815260040160405180910390fd5b61071b82826110f9565b5050565b61072833610b39565b61075e576040517f406ed3da00000000000000000000000000000000000000000000000000000000815260040160405180910390fd5b61071b8261076b8361128d565b6110f9565b6000610682600360008480519060200120815260200190815260200160002061133f565b60006202a30067ffffffffffffffff164201905063389a75e1600c5233600052806020600c2055337fdbf36a107da19e49527a7176a1babf963b4b0ff8cde35ee35d6cd8f1f9ac7e1d600080a250565b60606040517f17d5b8e800000000000000000000000000000000000000000000000000000000815260040160405180910390fd5b60606000825167ffffffffffffffff81111561083657610836611e69565b60405190808252806020026020018201604052801561086957816020015b60608152602001906001900390816108545790505b50905060005b835181101561095d576001600085838151811061088e5761088e6125f9565b6020026020010151815260200190815260200160002080546108af90612628565b80601f01602080910402602001604051908101604052809291908181526020018280546108db90612628565b80156109285780601f106108fd57610100808354040283529160200191610928565b820191906000526020600020905b81548152906001019060200180831161090b57829003601f168201915b505050505082828151811061093f5761093f6125f9565b60200260200101819052508080610955906126aa565b91505061086f565b5092915050565b61096d33610b39565b6109a3576040517f406ed3da00000000000000000000000000000000000000000000000000000000815260040160405180910390fd5b6109ac81611349565b50565b6109b761141c565b73ffffffffffffffffffffffffffffffffffffffff1660009081527f8ffeadc5cba727b8cc3cdef48739619490ea317fdb3baae1259089d06f92c9096020526040902080547fffffffffffffffffffffffffffffffffffffffffffffffffffffffffffffff00166001179055565b63389a75e1600c523360005260006020600c2055337ffa7b8eab7da67f412cc9575ed43464468f9bfbae89d1675917346ca6d8fe3c92600080a2565b81516020808401919091206000908152600390915260408120610a849083611452565b9392505050565b610a9361141c565b610a9d600061145e565b565b610aa833610b39565b610ade576040517f406ed3da00000000000000000000000000000000000000000000000000000000815260040160405180910390fd5b6109ac816114c4565b6060610af233610b39565b610b28576040517f406ed3da00000000000000000000000000000000000000000000000000000000815260040160405180910390fd5b610682610b34836115cc565b6115ec565b73ffffffffffffffffffffffffffffffffffffffff811660009081527f8ffeadc5cba727b8cc3cdef48739619490ea317fdb3baae1259089d06f92c909602052604081205460ff16806106825750507fffffffffffffffffffffffffffffffffffffffffffffffffffffffff748739275473ffffffffffffffffffffffffffffffffffffffff91821691161490565b610bd133610b39565b610c07576040517f406ed3da00000000000000000000000000000000000000000000000000000000815260040160405180910390fd5b61071b8282611602565b6060610682610b34836116fd565b610c2761141c565b600080547fffffffffffffffffffffffff00000000000000000000000000000000000000001673ffffffffffffffffffffffffffffffffffffffff83169081179091556002546040517ff3034770000000000000000000000000000000000000000000000000000000008152306004820152602481019190915263f3034770906044015b600060405180830381600087803b158015610cc557600080fd5b505af1158015610cd9573d6000803e3d6000fd5b5050505050565b60606106828261179f565b6060610682610cf9836117c3565b61179f565b610d0661141c565b73ffffffffffffffffffffffffffffffffffffffff1660009081527f8ffeadc5cba727b8cc3cdef48739619490ea317fdb3baae1259089d06f92c9096020526040902080547fffffffffffffffffffffffffffffffffffffffffffffffffffffffffffffff00169055565b60008181526001602052604081208054610d8a90612628565b15159392505050565b6060610d9e33610b39565b610dd4576040517f406ed3da00000000000000000000000000000000000000000000000000000000815260040160405180910390fd5b61068261067d836110e1565b6060610682826116fd565b6060610df633610b39565b610e2c576040517f406ed3da00000000000000000000000000000000000000000000000000000000815260040160405180910390fd5b610682826115cc565b610e3d61141c565b63389a75e1600c52806000526020600c208054421115610e6557636f5e88186000526004601cfd5b600090556109ac8161145e565b610e7a61141c565b8060601b610e9057637448fbae6000526004601cfd5b6109ac8161145e565b610ea233610b39565b610ed8576040517f406ed3da00000000000000000000000000000000000000000000000000000000815260040160405180910390fd5b61071b82610ee5836117c3565b611602565b60606000825167ffffffffffffffff811115610f0857610f08611e69565b604051908082528060200260200182016040528015610f3b57816020015b6060815260200190600190039081610f265790505b50905060005b835181101561095d5760016000858381518110610f6057610f606125f9565b602002602001015181526020019081526020016000208054610f8190612628565b80601f0160208091040260200160405190810160405280929190818152602001828054610fad90612628565b8015610ffa5780601f10610fcf57610100808354040283529160200191610ffa565b820191906000526020600020905b815481529060010190602001808311610fdd57829003601f168201915b5050505050828281518110611011576110116125f9565b60200260200101819052508080611027906126aa565b915050610f41565b60606000825167ffffffffffffffff81111561104d5761104d611e69565b60405190808252806020026020018201604052801561108057816020015b606081526020019060019003908161106b5790505b50905060005b835181101561095d576110b18482815181106110a4576110a46125f9565b60200260200101516115ec565b8282815181106110c3576110c36125f9565b602002602001018190525080806110d9906126aa565b915050611086565b606060006110ee83610eea565b9050610682836114c4565b60005b82518110156112825760006001600085848151811061111d5761111d6125f9565b60200260200101518152602001908152602001600020805461113e90612628565b80601f016020809104026020016040519081016040528092919081815260200182805461116a90612628565b80156111b75780601f1061118c576101008083540402835291602001916111b7565b820191906000526020600020905b81548152906001019060200180831161119a57829003601f168201915b5050505050905060008151111561120f5761120d8483815181106111dd576111dd6125f9565b602002602001015160036000848051906020012081526020019081526020016000206117ec90919063ffffffff16565b505b61126d848381518110611224576112246125f9565b602002602001015160036000868681518110611242576112426125f9565b60200260200101518051906020012081526020019081526020016000206117f890919063ffffffff16565b5050808061127a906126aa565b9150506110fc565b5061071b8282611804565b60606000825167ffffffffffffffff8111156112ab576112ab611e69565b6040519080825280602002602001820160405280156112de57816020015b60608152602001906001900390816112c95790505b50905060005b835181101561095d5761130f848281518110611302576113026125f9565b60200260200101516117c3565b828281518110611321576113216125f9565b60200260200101819052508080611337906126aa565b9150506112e4565b6000610682825490565b6000818152600160205260408120805461136290612628565b80601f016020809104026020016040519081016040528092919081815260200182805461138e90612628565b80156113db5780601f106113b0576101008083540402835291602001916113db565b820191906000526020600020905b8154815290600101906020018083116113be57829003601f168201915b5050505050905080516000036113ef575050565b8051602080830191909120600090815260039091526040902061141290836117ec565b5061071b826119e2565b7fffffffffffffffffffffffffffffffffffffffffffffffffffffffff74873927543314610a9d576382b429006000526004601cfd5b6000610a848383611a50565b7fffffffffffffffffffffffffffffffffffffffffffffffffffffffff74873927805473ffffffffffffffffffffffffffffffffffffffff9092169182907f8be0079c531659141344cd1fd0a4f28419497f9722a3daafe3b4186f6b6457e0600080a355565b60005b81518110156115c2576000600160008484815181106114e8576114e86125f9565b60200260200101518152602001908152602001600020805461150990612628565b80601f016020809104026020016040519081016040528092919081815260200182805461153590612628565b80156115825780601f1061155757610100808354040283529160200191611582565b820191906000526020600020905b81548152906001019060200180831161156557829003601f168201915b50505050509050805160000361159857506115b0565b6115ad8383815181106111dd576111dd6125f9565b50505b806115ba816126aa565b9150506114c7565b506109ac81611a7a565b606060006115d9836116fd565b8051909150156106825761068283611349565b60608180602001905181019061068291906126e2565b6000828152600160205260408120805461161b90612628565b80601f016020809104026020016040519081016040528092919081815260200182805461164790612628565b80156116945780601f1061166957610100808354040283529160200191611694565b820191906000526020600020905b81548152906001019060200180831161167757829003601f168201915b505050505090506000815111156116ca57805160208083019190912060009081526003909152604090206116c890846117ec565b505b815160208084019190912060009081526003909152604090206116ed90846117f8565b506116f88383611b8f565b505050565b600081815260016020526040902080546060919061171a90612628565b80601f016020809104026020016040519081016040528092919081815260200182805461174690612628565b80156117935780601f1061176857610100808354040283529160200191611793565b820191906000526020600020905b81548152906001019060200180831161177657829003601f168201915b50505050509050919050565b60606106826003600084805190602001208152602001908152602001600020611c71565b6060816040516020016117d691906124ef565b6040516020818303038152906040529050919050565b6000610a848383611c7e565b6000610a848383611d71565b805182511461183f576040517fc291f68400000000000000000000000000000000000000000000000000000000815260040160405180910390fd5b60005b82518110156119045781818151811061185d5761185d6125f9565b60200260200101515160000361189f576040517f9cf8540c00000000000000000000000000000000000000000000000000000000815260040160405180910390fd5b8181815181106118b1576118b16125f9565b6020026020010151600160008584815181106118cf576118cf6125f9565b6020026020010151815260200190815260200160002090816118f191906127c2565b50806118fc816126aa565b915050611842565b506000805473ffffffffffffffffffffffffffffffffffffffff16905b83518110156119dc578173ffffffffffffffffffffffffffffffffffffffff1663cfd3c57f858381518110611958576119586125f9565b6020026020010151858481518110611972576119726125f9565b60200260200101516040518363ffffffff1660e01b81526004016119979291906128dc565b600060405180830381600087803b1580156119b157600080fd5b505af11580156119c5573d6000803e3d6000fd5b5050505080806119d4906126aa565b915050611921565b50505050565b60008181526001602052604081206119f991611e1b565b6000546040517f0de3b7b50000000000000000000000000000000000000000000000000000000081526004810183905273ffffffffffffffffffffffffffffffffffffffff90911690630de3b7b590602401610cab565b6000826000018281548110611a6757611a676125f9565b9060005260206000200154905092915050565b60005b8151811015611ad05760016000838381518110611a9c57611a9c6125f9565b602002602001015181526020019081526020016000206000611abe9190611e1b565b80611ac8816126aa565b915050611a7d565b506000805473ffffffffffffffffffffffffffffffffffffffff16905b82518110156116f8578173ffffffffffffffffffffffffffffffffffffffff16630de3b7b5848381518110611b2457611b246125f9565b60200260200101516040518263ffffffff1660e01b8152600401611b4a91815260200190565b600060405180830381600087803b158015611b6457600080fd5b505af1158015611b78573d6000803e3d6000fd5b505050508080611b87906126aa565b915050611aed565b8051600003611bca576040517f9cf8540c00000000000000000000000000000000000000000000000000000000815260040160405180910390fd5b6000828152600160205260409020611be282826127c2565b506000546040517fcfd3c57f00000000000000000000000000000000000000000000000000000000815273ffffffffffffffffffffffffffffffffffffffff9091169063cfd3c57f90611c3b90859085906004016128dc565b600060405180830381600087803b158015611c5557600080fd5b505af1158015611c69573d6000803e3d6000fd5b505050505050565b60606000610a8483611dc0565b60008181526001830160205260408120548015611d67576000611ca26001836128f5565b8554909150600090611cb6906001906128f5565b9050818114611d1b576000866000018281548110611cd657611cd66125f9565b9060005260206000200154905080876000018481548110611cf957611cf96125f9565b6000918252602080832090910192909255918252600188019052604090208390555b8554869080611d2c57611d2c612908565b600190038181906000526020600020016000905590558560010160008681526020019081526020016000206000905560019350505050610682565b6000915050610682565b6000818152600183016020526040812054611db857508154600181810184556000848152602080822090930184905584548482528286019093526040902091909155610682565b506000610682565b60608160000180548060200260200160405190810160405280929190818152602001828054801561179357602002820191906000526020600020905b815481526020019060010190808311611dfc5750505050509050919050565b508054611e2790612628565b6000825580601f10611e37575050565b601f0160209004906000526020600020908101906109ac91905b80821115611e655760008155600101611e51565b5090565b7f4e487b7100000000000000000000000000000000000000000000000000000000600052604160045260246000fd5b604051601f82017fffffffffffffffffffffffffffffffffffffffffffffffffffffffffffffffe016810167ffffffffffffffff81118282101715611edf57611edf611e69565b604052919050565b600067ffffffffffffffff821115611f0157611f01611e69565b5060051b60200190565b600082601f830112611f1c57600080fd5b81356020611f31611f2c83611ee7565b611e98565b82815260059290921b84018101918181019086841115611f5057600080fd5b8286015b84811015611f6b5780358352918301918301611f54565b509695505050505050565b600060208284031215611f8857600080fd5b813567ffffffffffffffff811115611f9f57600080fd5b611fab84828501611f0b565b949350505050565b6000602080830181845280855180835260408601915060408160051b87010192508387016000805b83811015612053578886037fffffffffffffffffffffffffffffffffffffffffffffffffffffffffffffffc0018552825180518088529088019088880190845b8181101561203d57835163ffffffff168352928a0192918a019160010161201b565b5090975050509386019391860191600101611fdb565b509398975050505050505050565b6000815180845260005b818110156120875760208185018101518683018201520161206b565b5060006020828601015260207fffffffffffffffffffffffffffffffffffffffffffffffffffffffffffffffe0601f83011685010191505092915050565b6000602080830181845280855180835260408601915060408160051b870101925083870160005b82811015612138577fffffffffffffffffffffffffffffffffffffffffffffffffffffffffffffffc0888603018452612126858351612061565b945092850192908501906001016120ec565b5092979650505050505050565b600082601f83011261215657600080fd5b813567ffffffffffffffff81111561217057612170611e69565b6121a160207fffffffffffffffffffffffffffffffffffffffffffffffffffffffffffffffe0601f84011601611e98565b8181528460208386010111156121b657600080fd5b816020850160208301376000918101602001919091529392505050565b600080604083850312156121e657600080fd5b823567ffffffffffffffff808211156121fe57600080fd5b61220a86838701611f0b565b935060209150818501358181111561222157600080fd5b8501601f8101871361223257600080fd5b8035612240611f2c82611ee7565b81815260059190911b8201840190848101908983111561225f57600080fd5b8584015b838110156122975780358681111561227b5760008081fd5b6122898c8983890101612145565b845250918601918601612263565b508096505050505050509250929050565b63ffffffff811681146109ac57600080fd5b600082601f8301126122cb57600080fd5b813560206122db611f2c83611ee7565b82815260059290921b840181019181810190868411156122fa57600080fd5b8286015b84811015611f6b578035612311816122a8565b83529183019183016122fe565b6000806040838503121561233157600080fd5b823567ffffffffffffffff8082111561234957600080fd5b61235586838701611f0b565b935060209150818501358181111561236c57600080fd5b8501601f8101871361237d57600080fd5b803561238b611f2c82611ee7565b81815260059190911b820184019084810190898311156123aa57600080fd5b8584015b83811015612297578035868111156123c65760008081fd5b6123d48c89838901016122ba565b8452509186019186016123ae565b6000602082840312156123f457600080fd5b813567ffffffffffffffff81111561240b57600080fd5b611fab84828501612145565b6020808252825182820181905260009190848201906040850190845b8181101561244f57835183529284019291840191600101612433565b50909695505050505050565b60006020828403121561246d57600080fd5b5035919050565b60006020828403121561248657600080fd5b813573ffffffffffffffffffffffffffffffffffffffff81168114610a8457600080fd5b600080604083850312156124bd57600080fd5b823567ffffffffffffffff8111156124d457600080fd5b6124e085828601612145565b95602094909401359450505050565b6020808252825182820181905260009190848201906040850190845b8181101561244f57835163ffffffff168352928401929184019160010161250b565b6000806040838503121561254057600080fd5b82359150602083013567ffffffffffffffff81111561255e57600080fd5b61256a85828601612145565b9150509250929050565b60006020828403121561258657600080fd5b813567ffffffffffffffff81111561259d57600080fd5b611fab848285016122ba565b602081526000610a846020830184612061565b600080604083850312156125cf57600080fd5b82359150602083013567ffffffffffffffff8111156125ed57600080fd5b61256a858286016122ba565b7f4e487b7100000000000000000000000000000000000000000000000000000000600052603260045260246000fd5b600181811c9082168061263c57607f821691505b602082108103612675577f4e487b7100000000000000000000000000000000000000000000000000000000600052602260045260246000fd5b50919050565b7f4e487b7100000000000000000000000000000000000000000000000000000000600052601160045260246000fd5b60007fffffffffffffffffffffffffffffffffffffffffffffffffffffffffffffffff82036126db576126db61267b565b5060010190565b600060208083850312156126f557600080fd5b825167ffffffffffffffff81111561270c57600080fd5b8301601f8101851361271d57600080fd5b805161272b611f2c82611ee7565b81815260059190911b8201830190838101908783111561274a57600080fd5b928401925b82841015612771578351612762816122a8565b8252928401929084019061274f565b979650505050505050565b601f8211156116f857600081815260208120601f850160051c810160208610156127a35750805b601f850160051c820191505b81811015611c69578281556001016127af565b815167ffffffffffffffff8111156127dc576127dc611e69565b6127f0816127ea8454612628565b8461277c565b602080601f831160018114612843576000841561280d5750858301515b7fffffffffffffffffffffffffffffffffffffffffffffffffffffffffffffffff600386901b1c1916600185901b178555611c69565b6000858152602081207fffffffffffffffffffffffffffffffffffffffffffffffffffffffffffffffe08616915b8281101561289057888601518255948401946001909101908401612871565b50858210156128cc57878501517fffffffffffffffffffffffffffffffffffffffffffffffffffffffffffffffff600388901b60f8161c191681555b5050505050600190811b01905550565b828152604060208201526000611fab6040830184612061565b818103818111156106825761068261267b565b7f4e487b7100000000000000000000000000000000000000000000000000000000600052603160045260246000fdfea26469706673582212205b3b6a5fdf986d5cef6d0c59eac935d00f12ccad7d2bfcae4dba3b8d41c8947064736f6c63430008110033","linkReferences":{}},"methodIdentifiers":{"authorizeWriter(address)":"4fef6a38","cancelOwnershipHandover()":"54d1f13d","completeOwnershipHandover(address)":"f04e283e","extract(uint256)":"85b39782","extractBatch(uint256[])":"dc5c22cd","extractRaw(uint256)":"e9ff6c76","extractRawBatch(uint256[])":"12b11155","get(uint256)":"9507d39a","getAt(bytes,uint256)":"6f9aa155","getBatch(uint256[])":"088dd0b9","getEntities()":"31b933b9","getEntitiesWithValue(bytes)":"b361be46","getEntitiesWithValue(uint32[])":"bd2746e7","getRaw(uint256)":"dd98e3c9","getRawBatch(uint256[])":"4323c4ef","has(uint256)":"cccf7a8e","id()":"af640d0f","owner()":"8da5cb5b","ownershipHandoverExpiresAt(address)":"fee81cf4","registerWorld(address)":"9d2c76b4","remove(uint256)":"4cc82215","removeBatch(uint256[])":"8482643e","renounceOwnership()":"715018a6","requestOwnershipHandover()":"25692962","set(uint256,bytes)":"8b282947","set(uint256,uint32[])":"f96911fa","setBatch(uint256[],bytes[])":"13ca8b6a","setBatch(uint256[],uint32[][])":"1ac21a20","size(bytes)":"1c5ee10c","transferOwnership(address)":"f2fde38b","unauthorizeWriter(address)":"bf4fe57e","world()":"30b67baa","writeAccess(address)":"861eb905"},"id":162}