{"abi":[{"type":"constructor","inputs":[{"name":"world","type":"address","internalType":"address"}],"stateMutability":"nonpayable"},{"type":"function","name":"authorizeWriter","inputs":[{"name":"writer","type":"address","internalType":"address"}],"outputs":[],"stateMutability":"nonpayable"},{"type":"function","name":"cancelOwnershipHandover","inputs":[],"outputs":[],"stateMutability":"payable"},{"type":"function","name":"completeOwnershipHandover","inputs":[{"name":"pendingOwner","type":"address","internalType":"address"}],"outputs":[],"stateMutability":"payable"},{"type":"function","name":"extract","inputs":[{"name":"entity","type":"uint256","internalType":"uint256"}],"outputs":[{"name":"","type":"uint256[]","internalType":"uint256[]"}],"stateMutability":"nonpayable"},{"type":"function","name":"extractBatch","inputs":[{"name":"entities","type":"uint256[]","internalType":"uint256[]"}],"outputs":[{"name":"","type":"uint256[][]","internalType":"uint256[][]"}],"stateMutability":"nonpayable"},{"type":"function","name":"extractRaw","inputs":[{"name":"entity","type":"uint256","internalType":"uint256"}],"outputs":[{"name":"","type":"bytes","internalType":"bytes"}],"stateMutability":"nonpayable"},{"type":"function","name":"extractRawBatch","inputs":[{"name":"entities","type":"uint256[]","internalType":"uint256[]"}],"outputs":[{"name":"","type":"bytes[]","internalType":"bytes[]"}],"stateMutability":"nonpayable"},{"type":"function","name":"get","inputs":[{"name":"entity","type":"uint256","internalType":"uint256"}],"outputs":[{"name":"","type":"uint256[]","internalType":"uint256[]"}],"stateMutability":"view"},{"type":"function","name":"getBatch","inputs":[{"name":"entities","type":"uint256[]","internalType":"uint256[]"}],"outputs":[{"name":"","type":"uint256[][]","internalType":"uint256[][]"}],"stateMutability":"view"},{"type":"function","name":"getEntities","inputs":[],"outputs":[{"name":"","type":"uint256[]","internalType":"uint256[]"}],"stateMutability":"view"},{"type":"function","name":"getEntitiesWithValue","inputs":[{"name":"","type":"bytes","internalType":"bytes"}],"outputs":[{"name":"","type":"uint256[]","internalType":"uint256[]"}],"stateMutability":"view"},{"type":"function","name":"getRaw","inputs":[{"name":"entity","type":"uint256","internalType":"uint256"}],"outputs":[{"name":"","type":"bytes","internalType":"bytes"}],"stateMutability":"view"},{"type":"function","name":"getRawBatch","inputs":[{"name":"entities","type":"uint256[]","internalType":"uint256[]"}],"outputs":[{"name":"","type":"bytes[]","internalType":"bytes[]"}],"stateMutability":"view"},{"type":"function","name":"has","inputs":[{"name":"entity","type":"uint256","internalType":"uint256"}],"outputs":[{"name":"","type":"bool","internalType":"bool"}],"stateMutability":"view"},{"type":"function","name":"id","inputs":[],"outputs":[{"name":"","type":"uint256","internalType":"uint256"}],"stateMutability":"view"},{"type":"function","name":"owner","inputs":[],"outputs":[{"name":"result","type":"address","internalType":"address"}],"stateMutability":"view"},{"type":"function","name":"ownershipHandoverExpiresAt","inputs":[{"name":"pendingOwner","type":"address","internalType":"address"}],"outputs":[{"name":"result","type":"uint256","internalType":"uint256"}],"stateMutability":"view"},{"type":"function","name":"registerWorld","inputs":[{"name":"_world","type":"address","internalType":"address"}],"outputs":[],"stateMutability":"nonpayable"},{"type":"function","name":"remove","inputs":[{"name":"entity","type":"uint256","internalType":"uint256"}],"outputs":[],"stateMutability":"nonpayable"},{"type":"function","name":"removeBatch","inputs":[{"name":"entities","type":"uint256[]","internalType":"uint256[]"}],"outputs":[],"stateMutability":"nonpayable"},{"type":"function","name":"renounceOwnership","inputs":[],"outputs":[],"stateMutability":"payable"},{"type":"function","name":"requestOwnershipHandover","inputs":[],"outputs":[],"stateMutability":"payable"},{"type":"function","name":"set","inputs":[{"name":"entity","type":"uint256","internalType":"uint256"},{"name":"value","type":"bytes","internalType":"bytes"}],"outputs":[],"stateMutability":"nonpayable"},{"type":"function","name":"set","inputs":[{"name":"entity","type":"uint256","internalType":"uint256"},{"name":"value","type":"uint256[]","internalType":"uint256[]"}],"outputs":[],"stateMutability":"nonpayable"},{"type":"function","name":"setBatch","inputs":[{"name":"entities","type":"uint256[]","internalType":"uint256[]"},{"name":"values","type":"uint256[][]","internalType":"uint256[][]"}],"outputs":[],"stateMutability":"nonpayable"},{"type":"function","name":"setBatch","inputs":[{"name":"entities","type":"uint256[]","internalType":"uint256[]"},{"name":"values","type":"bytes[]","internalType":"bytes[]"}],"outputs":[],"stateMutability":"nonpayable"},{"type":"function","name":"transferOwnership","inputs":[{"name":"newOwner","type":"address","internalType":"address"}],"outputs":[],"stateMutability":"payable"},{"type":"function","name":"unauthorizeWriter","inputs":[{"name":"writer","type":"address","internalType":"address"}],"outputs":[],"stateMutability":"nonpayable"},{"type":"function","name":"world","inputs":[],"outputs":[{"name":"","type":"address","internalType":"address"}],"stateMutability":"view"},{"type":"function","name":"writeAccess","inputs":[{"name":"operator","type":"address","internalType":"address"}],"outputs":[{"name":"","type":"bool","internalType":"bool"}],"stateMutability":"view"},{"type":"event","name":"OwnershipHandoverCanceled","inputs":[{"name":"pendingOwner","type":"address","indexed":true,"internalType":"address"}],"anonymous":false},{"type":"event","name":"OwnershipHandoverRequested","inputs":[{"name":"pendingOwner","type":"address","indexed":true,"internalType":"address"}],"anonymous":false},{"type":"event","name":"OwnershipTransferred","inputs":[{"name":"oldOwner","type":"address","indexed":true,"internalType":"address"},{"name":"newOwner","type":"address","indexed":true,"internalType":"address"}],"anonymous":false},{"type":"error","name":"AlreadyInitialized","inputs":[]},{"type":"error","name":"BareComponent__NotImplemented","inputs":[]},{"type":"error","name":"BatchOp_UnexpectedLength","inputs":[]},{"type":"error","name":"NewOwnerIsZeroAddress","inputs":[]},{"type":"error","name":"NoHandoverRequest","inputs":[]},{"type":"error","name":"OwnableWritable__NotWriter","inputs":[]},{"type":"error","name":"Unauthorized","inputs":[]},{"type":"error","name":"ZeroValueNotAllowed","inputs":[]}],"bytecode":{"object":"0x60806040523480156200001157600080fd5b50604051620022083803806200220883398101604081905262000034916200016e565b807fc5feb1aac7c8c1b30106b97e2241d75b44c975ca1e5f2f5e02394d8d4257f88c818162000063336200008e565b60028190556001600160a01b0382161562000083576200008382620000ca565b5050505050620001a0565b6001600160a01b0316638b78c6d8198190558060007f8be0079c531659141344cd1fd0a4f28419497f9722a3daafe3b4186f6b6457e08180a350565b620000d462000150565b600080546001600160a01b0319166001600160a01b038316908117909155600254604051630f30347760e41b8152306004820152602481019190915263f303477090604401600060405180830381600087803b1580156200013457600080fd5b505af115801562000149573d6000803e3d6000fd5b5050505050565b638b78c6d8195433146200016c576382b429006000526004601cfd5b565b6000602082840312156200018157600080fd5b81516001600160a01b03811681146200019957600080fd5b9392505050565b61205880620001b06000396000f3fe6080604052600436106101cd5760003560e01c80638b282947116100f7578063bf4fe57e11610095578063e9ff6c7611610064578063e9ff6c7614610558578063f04e283e14610578578063f2fde38b1461058b578063fee81cf41461059e57600080fd5b8063bf4fe57e146104cb578063cccf7a8e146104eb578063dc5c22cd1461050b578063dd98e3c91461052b57600080fd5b80639507d39a116100d15780639507d39a146104475780639d2c76b414610467578063af640d0f14610487578063b361be46146104ab57600080fd5b80638b282947146103d35780638da5cb5b146103f3578063946aadc61461042757600080fd5b80634323c4ef1161016f578063715018a61161013e578063715018a61461035b5780638482643e1461036357806385b3978214610383578063861eb905146103a357600080fd5b80634323c4ef146102f35780634cc82215146103135780634fef6a381461033357806354d1f13d1461035357600080fd5b806313ca8b6a116101ab57806313ca8b6a14610257578063256929621461027757806330b67baa1461027f57806331b933b9146102d157600080fd5b8063088dd0b9146101d257806312b11155146102085780631317849614610235575b600080fd5b3480156101de57600080fd5b506101f26101ed3660046117e1565b6105d1565b6040516101ff919061181e565b60405180910390f35b34801561021457600080fd5b506102286102233660046117e1565b6105ea565b6040516101ff919061192a565b34801561024157600080fd5b506102556102503660046119aa565b610634565b005b34801561026357600080fd5b50610255610272366004611b0d565b610689565b6102556106d2565b34801561028b57600080fd5b506000546102ac9073ffffffffffffffffffffffffffffffffffffffff1681565b60405173ffffffffffffffffffffffffffffffffffffffff90911681526020016101ff565b3480156102dd57600080fd5b506102e6610722565b6040516101ff9190611bd1565b3480156102ff57600080fd5b5061022861030e3660046117e1565b610756565b34801561031f57600080fd5b5061025561032e366004611c15565b6108a2565b34801561033f57600080fd5b5061025561034e366004611c2e565b6108ed565b610255610963565b61025561099f565b34801561036f57600080fd5b5061025561037e3660046117e1565b6109b3565b34801561038f57600080fd5b506102e661039e366004611c15565b6109fb565b3480156103af57600080fd5b506103c36103be366004611c2e565b610a4d565b60405190151581526020016101ff565b3480156103df57600080fd5b506102556103ee366004611c6b565b610adc565b3480156103ff57600080fd5b507fffffffffffffffffffffffffffffffffffffffffffffffffffffffff74873927546102ac565b34801561043357600080fd5b50610255610442366004611cb2565b610b25565b34801561045357600080fd5b506102e6610462366004611c15565b610b76565b34801561047357600080fd5b50610255610482366004611c2e565b610b84565b34801561049357600080fd5b5061049d60025481565b6040519081526020016101ff565b3480156104b757600080fd5b506102e66104c6366004611cef565b610722565b3480156104d757600080fd5b506102556104e6366004611c2e565b610c45565b3480156104f757600080fd5b506103c3610506366004611c15565b610cb8565b34801561051757600080fd5b506101f26105263660046117e1565b610cda565b34801561053757600080fd5b5061054b610546366004611c15565b610d27565b6040516101ff9190611d24565b34801561056457600080fd5b5061054b610573366004611c15565b610d32565b610255610586366004611c2e565b610d7c565b610255610599366004611c2e565b610db9565b3480156105aa57600080fd5b5061049d6105b9366004611c2e565b63389a75e1600c908152600091909152602090205490565b60606105e46105df83610de0565b610f25565b92915050565b60606105f533610a4d565b61062b576040517f406ed3da00000000000000000000000000000000000000000000000000000000815260040160405180910390fd5b6105e482610fd7565b61063d33610a4d565b610673576040517f406ed3da00000000000000000000000000000000000000000000000000000000815260040160405180910390fd5b6106858261068083610fef565b6110a1565b5050565b61069233610a4d565b6106c8576040517f406ed3da00000000000000000000000000000000000000000000000000000000815260040160405180910390fd5b61068582826110a1565b60006202a30067ffffffffffffffff164201905063389a75e1600c5233600052806020600c2055337fdbf36a107da19e49527a7176a1babf963b4b0ff8cde35ee35d6cd8f1f9ac7e1d600080a250565b60606040517f17d5b8e800000000000000000000000000000000000000000000000000000000815260040160405180910390fd5b60606000825167ffffffffffffffff811115610774576107746116d4565b6040519080825280602002602001820160405280156107a757816020015b60608152602001906001900390816107925790505b50905060005b835181101561089b57600160008583815181106107cc576107cc611d37565b6020026020010151815260200190815260200160002080546107ed90611d66565b80601f016020809104026020016040519081016040528092919081815260200182805461081990611d66565b80156108665780601f1061083b57610100808354040283529160200191610866565b820191906000526020600020905b81548152906001019060200180831161084957829003601f168201915b505050505082828151811061087d5761087d611d37565b6020026020010181905250808061089390611db9565b9150506107ad565b5092915050565b6108ab33610a4d565b6108e1576040517f406ed3da00000000000000000000000000000000000000000000000000000000815260040160405180910390fd5b6108ea8161127f565b50565b6108f56112ed565b73ffffffffffffffffffffffffffffffffffffffff1660009081527f8ffeadc5cba727b8cc3cdef48739619490ea317fdb3baae1259089d06f92c9096020526040902080547fffffffffffffffffffffffffffffffffffffffffffffffffffffffffffffff00166001179055565b63389a75e1600c523360005260006020600c2055337ffa7b8eab7da67f412cc9575ed43464468f9bfbae89d1675917346ca6d8fe3c92600080a2565b6109a76112ed565b6109b16000611323565b565b6109bc33610a4d565b6109f2576040517f406ed3da00000000000000000000000000000000000000000000000000000000815260040160405180910390fd5b6108ea81611389565b6060610a0633610a4d565b610a3c576040517f406ed3da00000000000000000000000000000000000000000000000000000000815260040160405180910390fd5b6105e4610a48836114a3565b6114c3565b73ffffffffffffffffffffffffffffffffffffffff811660009081527f8ffeadc5cba727b8cc3cdef48739619490ea317fdb3baae1259089d06f92c909602052604081205460ff16806105e45750507fffffffffffffffffffffffffffffffffffffffffffffffffffffffff748739275473ffffffffffffffffffffffffffffffffffffffff91821691161490565b610ae533610a4d565b610b1b576040517f406ed3da00000000000000000000000000000000000000000000000000000000815260040160405180910390fd5b61068582826114d9565b610b2e33610a4d565b610b64576040517f406ed3da00000000000000000000000000000000000000000000000000000000815260040160405180910390fd5b61068582610b71836115bb565b6114d9565b60606105e4610a48836115e4565b610b8c6112ed565b600080547fffffffffffffffffffffffff00000000000000000000000000000000000000001673ffffffffffffffffffffffffffffffffffffffff83169081179091556002546040517ff3034770000000000000000000000000000000000000000000000000000000008152306004820152602481019190915263f3034770906044015b600060405180830381600087803b158015610c2a57600080fd5b505af1158015610c3e573d6000803e3d6000fd5b5050505050565b610c4d6112ed565b73ffffffffffffffffffffffffffffffffffffffff1660009081527f8ffeadc5cba727b8cc3cdef48739619490ea317fdb3baae1259089d06f92c9096020526040902080547fffffffffffffffffffffffffffffffffffffffffffffffffffffffffffffff00169055565b60008181526001602052604081208054610cd190611d66565b15159392505050565b6060610ce533610a4d565b610d1b576040517f406ed3da00000000000000000000000000000000000000000000000000000000815260040160405180910390fd5b6105e46105df83610fd7565b60606105e4826115e4565b6060610d3d33610a4d565b610d73576040517f406ed3da00000000000000000000000000000000000000000000000000000000815260040160405180910390fd5b6105e4826114a3565b610d846112ed565b63389a75e1600c52806000526020600c208054421115610dac57636f5e88186000526004601cfd5b600090556108ea81611323565b610dc16112ed565b8060601b610dd757637448fbae6000526004601cfd5b6108ea81611323565b60606000825167ffffffffffffffff811115610dfe57610dfe6116d4565b604051908082528060200260200182016040528015610e3157816020015b6060815260200190600190039081610e1c5790505b50905060005b835181101561089b5760016000858381518110610e5657610e56611d37565b602002602001015181526020019081526020016000208054610e7790611d66565b80601f0160208091040260200160405190810160405280929190818152602001828054610ea390611d66565b8015610ef05780601f10610ec557610100808354040283529160200191610ef0565b820191906000526020600020905b815481529060010190602001808311610ed357829003601f168201915b5050505050828281518110610f0757610f07611d37565b60200260200101819052508080610f1d90611db9565b915050610e37565b60606000825167ffffffffffffffff811115610f4357610f436116d4565b604051908082528060200260200182016040528015610f7657816020015b6060815260200190600190039081610f615790505b50905060005b835181101561089b57610fa7848281518110610f9a57610f9a611d37565b60200260200101516114c3565b828281518110610fb957610fb9611d37565b60200260200101819052508080610fcf90611db9565b915050610f7c565b60606000610fe483610de0565b90506105e483611389565b60606000825167ffffffffffffffff81111561100d5761100d6116d4565b60405190808252806020026020018201604052801561104057816020015b606081526020019060019003908161102b5790505b50905060005b835181101561089b5761107184828151811061106457611064611d37565b60200260200101516115bb565b82828151811061108357611083611d37565b6020026020010181905250808061109990611db9565b915050611046565b80518251146110dc576040517fc291f68400000000000000000000000000000000000000000000000000000000815260040160405180910390fd5b60005b82518110156111a1578181815181106110fa576110fa611d37565b60200260200101515160000361113c576040517f9cf8540c00000000000000000000000000000000000000000000000000000000815260040160405180910390fd5b81818151811061114e5761114e611d37565b60200260200101516001600085848151811061116c5761116c611d37565b60200260200101518152602001908152602001600020908161118e9190611e5e565b508061119981611db9565b9150506110df565b506000805473ffffffffffffffffffffffffffffffffffffffff16905b8351811015611279578173ffffffffffffffffffffffffffffffffffffffff1663cfd3c57f8583815181106111f5576111f5611d37565b602002602001015185848151811061120f5761120f611d37565b60200260200101516040518363ffffffff1660e01b8152600401611234929190611f78565b600060405180830381600087803b15801561124e57600080fd5b505af1158015611262573d6000803e3d6000fd5b50505050808061127190611db9565b9150506111be565b50505050565b600081815260016020526040812061129691611686565b6000546040517f0de3b7b50000000000000000000000000000000000000000000000000000000081526004810183905273ffffffffffffffffffffffffffffffffffffffff90911690630de3b7b590602401610c10565b7fffffffffffffffffffffffffffffffffffffffffffffffffffffffff748739275433146109b1576382b429006000526004601cfd5b7fffffffffffffffffffffffffffffffffffffffffffffffffffffffff74873927805473ffffffffffffffffffffffffffffffffffffffff9092169182907f8be0079c531659141344cd1fd0a4f28419497f9722a3daafe3b4186f6b6457e0600080a355565b60005b81518110156113df57600160008383815181106113ab576113ab611d37565b6020026020010151815260200190815260200160002060006113cd9190611686565b806113d781611db9565b91505061138c565b506000805473ffffffffffffffffffffffffffffffffffffffff16905b825181101561149e578173ffffffffffffffffffffffffffffffffffffffff16630de3b7b584838151811061143357611433611d37565b60200260200101516040518263ffffffff1660e01b815260040161145991815260200190565b600060405180830381600087803b15801561147357600080fd5b505af1158015611487573d6000803e3d6000fd5b50505050808061149690611db9565b9150506113fc565b505050565b606060006114b0836115e4565b8051909150156105e4576105e48361127f565b6060818060200190518101906105e49190611f91565b8051600003611514576040517f9cf8540c00000000000000000000000000000000000000000000000000000000815260040160405180910390fd5b600082815260016020526040902061152c8282611e5e565b506000546040517fcfd3c57f00000000000000000000000000000000000000000000000000000000815273ffffffffffffffffffffffffffffffffffffffff9091169063cfd3c57f906115859085908590600401611f78565b600060405180830381600087803b15801561159f57600080fd5b505af11580156115b3573d6000803e3d6000fd5b505050505050565b6060816040516020016115ce9190611bd1565b6040516020818303038152906040529050919050565b600081815260016020526040902080546060919061160190611d66565b80601f016020809104026020016040519081016040528092919081815260200182805461162d90611d66565b801561167a5780601f1061164f5761010080835404028352916020019161167a565b820191906000526020600020905b81548152906001019060200180831161165d57829003601f168201915b50505050509050919050565b50805461169290611d66565b6000825580601f106116a2575050565b601f0160209004906000526020600020908101906108ea91905b808211156116d057600081556001016116bc565b5090565b7f4e487b7100000000000000000000000000000000000000000000000000000000600052604160045260246000fd5b604051601f82017fffffffffffffffffffffffffffffffffffffffffffffffffffffffffffffffe016810167ffffffffffffffff8111828210171561174a5761174a6116d4565b604052919050565b600067ffffffffffffffff82111561176c5761176c6116d4565b5060051b60200190565b600082601f83011261178757600080fd5b8135602061179c61179783611752565b611703565b82815260059290921b840181019181810190868411156117bb57600080fd5b8286015b848110156117d657803583529183019183016117bf565b509695505050505050565b6000602082840312156117f357600080fd5b813567ffffffffffffffff81111561180a57600080fd5b61181684828501611776565b949350505050565b6000602080830181845280855180835260408601915060408160051b87010192508387016000805b838110156118b8578886037fffffffffffffffffffffffffffffffffffffffffffffffffffffffffffffffc0018552825180518088529088019088880190845b818110156118a25783518352928a0192918a0191600101611886565b5090975050509386019391860191600101611846565b509398975050505050505050565b6000815180845260005b818110156118ec576020818501810151868301820152016118d0565b5060006020828601015260207fffffffffffffffffffffffffffffffffffffffffffffffffffffffffffffffe0601f83011685010191505092915050565b6000602080830181845280855180835260408601915060408160051b870101925083870160005b8281101561199d577fffffffffffffffffffffffffffffffffffffffffffffffffffffffffffffffc088860301845261198b8583516118c6565b94509285019290850190600101611951565b5092979650505050505050565b600080604083850312156119bd57600080fd5b823567ffffffffffffffff808211156119d557600080fd5b6119e186838701611776565b93506020915081850135818111156119f857600080fd5b8501601f81018713611a0957600080fd5b8035611a1761179782611752565b81815260059190911b82018401908481019089831115611a3657600080fd5b8584015b83811015611a6e57803586811115611a525760008081fd5b611a608c8983890101611776565b845250918601918601611a3a565b508096505050505050509250929050565b600082601f830112611a9057600080fd5b813567ffffffffffffffff811115611aaa57611aaa6116d4565b611adb60207fffffffffffffffffffffffffffffffffffffffffffffffffffffffffffffffe0601f84011601611703565b818152846020838601011115611af057600080fd5b816020850160208301376000918101602001919091529392505050565b60008060408385031215611b2057600080fd5b823567ffffffffffffffff80821115611b3857600080fd5b611b4486838701611776565b9350602091508185013581811115611b5b57600080fd5b8501601f81018713611b6c57600080fd5b8035611b7a61179782611752565b81815260059190911b82018401908481019089831115611b9957600080fd5b8584015b83811015611a6e57803586811115611bb55760008081fd5b611bc38c8983890101611a7f565b845250918601918601611b9d565b6020808252825182820181905260009190848201906040850190845b81811015611c0957835183529284019291840191600101611bed565b50909695505050505050565b600060208284031215611c2757600080fd5b5035919050565b600060208284031215611c4057600080fd5b813573ffffffffffffffffffffffffffffffffffffffff81168114611c6457600080fd5b9392505050565b60008060408385031215611c7e57600080fd5b82359150602083013567ffffffffffffffff811115611c9c57600080fd5b611ca885828601611a7f565b9150509250929050565b60008060408385031215611cc557600080fd5b82359150602083013567ffffffffffffffff811115611ce357600080fd5b611ca885828601611776565b600060208284031215611d0157600080fd5b813567ffffffffffffffff811115611d1857600080fd5b61181684828501611a7f565b602081526000611c6460208301846118c6565b7f4e487b7100000000000000000000000000000000000000000000000000000000600052603260045260246000fd5b600181811c90821680611d7a57607f821691505b602082108103611db3577f4e487b7100000000000000000000000000000000000000000000000000000000600052602260045260246000fd5b50919050565b60007fffffffffffffffffffffffffffffffffffffffffffffffffffffffffffffffff8203611e11577f4e487b7100000000000000000000000000000000000000000000000000000000600052601160045260246000fd5b5060010190565b601f82111561149e57600081815260208120601f850160051c81016020861015611e3f5750805b601f850160051c820191505b818110156115b357828155600101611e4b565b815167ffffffffffffffff811115611e7857611e786116d4565b611e8c81611e868454611d66565b84611e18565b602080601f831160018114611edf5760008415611ea95750858301515b7fffffffffffffffffffffffffffffffffffffffffffffffffffffffffffffffff600386901b1c1916600185901b1785556115b3565b6000858152602081207fffffffffffffffffffffffffffffffffffffffffffffffffffffffffffffffe08616915b82811015611f2c57888601518255948401946001909101908401611f0d565b5085821015611f6857878501517fffffffffffffffffffffffffffffffffffffffffffffffffffffffffffffffff600388901b60f8161c191681555b5050505050600190811b01905550565b82815260406020820152600061181660408301846118c6565b60006020808385031215611fa457600080fd5b825167ffffffffffffffff811115611fbb57600080fd5b8301601f81018513611fcc57600080fd5b8051611fda61179782611752565b81815260059190911b82018301908381019087831115611ff957600080fd5b928401925b8284101561201757835182529284019290840190611ffe565b97965050505050505056fea26469706673582212208e2fd18db4cdd314833c1cfa7358b91375f6289ab2e7b6015ec172b21d7ca40a64736f6c63430008110033","linkReferences":{}},"methodIdentifiers":{"authorizeWriter(address)":"4fef6a38","cancelOwnershipHandover()":"54d1f13d","completeOwnershipHandover(address)":"f04e283e","extract(uint256)":"85b39782","extractBatch(uint256[])":"dc5c22cd","extractRaw(uint256)":"e9ff6c76","extractRawBatch(uint256[])":"12b11155","get(uint256)":"9507d39a","getBatch(uint256[])":"088dd0b9","getEntities()":"31b933b9","getEntitiesWithValue(bytes)":"b361be46","getRaw(uint256)":"dd98e3c9","getRawBatch(uint256[])":"4323c4ef","has(uint256)":"cccf7a8e","id()":"af640d0f","owner()":"8da5cb5b","ownershipHandoverExpiresAt(address)":"fee81cf4","registerWorld(address)":"9d2c76b4","remove(uint256)":"4cc82215","removeBatch(uint256[])":"8482643e","renounceOwnership()":"715018a6","requestOwnershipHandover()":"25692962","set(uint256,bytes)":"8b282947","set(uint256,uint256[])":"946aadc6","setBatch(uint256[],bytes[])":"13ca8b6a","setBatch(uint256[],uint256[][])":"13178496","transferOwnership(address)":"f2fde38b","unauthorizeWriter(address)":"bf4fe57e","world()":"30b67baa","writeAccess(address)":"861eb905"},"id":144}