{
    "contractName": "LibKami721",
    "abi": [
        {
            "inputs": [
                {
                    "internalType": "contract IUint256Component",
                    "name": "comps",
                    "type": "IUint256Component"
                },
                {
                    "internalType": "uint32",
                    "name": "kamiIndex",
                    "type": "uint32"
                }
            ],
            "name": "getJsonBase64",
            "outputs": [
                {
                    "internalType": "string",
                    "name": "",
                    "type": "string"
                }
            ],
            "stateMutability": "view",
            "type": "function"
        },
        {
            "inputs": [
                {
                    "internalType": "contract IUint256Component",
                    "name": "comps",
                    "type": "IUint256Component"
                },
                {
                    "internalType": "uint32",
                    "name": "kamiIndex",
                    "type": "uint32"
                }
            ],
            "name": "getJsonUtf",
            "outputs": [
                {
                    "internalType": "string",
                    "name": "",
                    "type": "string"
                }
            ],
            "stateMutability": "view",
            "type": "function"
        }
    ],
    "bytecode": "608080604052346019576127c5908161001e823930815050f35b5f80fdfe60806040526004361015610011575f80fd5b5f3560e01c8063353440a51461005c5763ff0b37531461002f575f80fd5b61005861004461003e36610243565b906102d3565b60405191829160208352602083019061027a565b0390f35b60206100948161006e61003e36610243565b6040519381859251918291018484015e81015f838201520301601f19810183528261029e565b8051606091808261015f575b505050604051906100b260408361029e565b601d82527f646174613a6170706c69636174696f6e2f6a736f6e3b6261736536342c00000060208301526040519160205b8181015184820152601f19019081156100fc57906100e3565b505080519060208201601f19165b81810151848201601d0152601f1901908115610126579061010a565b5050808201905f603d830152601d018252605d8101918260405260208352603f1991610159601c1992607d83019061027a565b03010190f35b909192506003600284010460021b91604051937f4142434445464748494a4b4c4d4e4f505152535455565758595a616263646566601f526106707f6768696a6b6c6d6e6f707172737475767778797a303132333435363738392d5f18603f526020850184860160208381830195010191600460038451975f86525b0191603f8351818160121c16515f538181600c1c1651600153818160061c165160025316516003535f51815201908582101561021b576004906003906101da565b5093505f9460409252016040526003613d3d60f01b91066002048203525281528180806100a0565b6040906003190112610276576004356001600160a01b0381168103610276579060243563ffffffff811681036102765790565b5f80fd5b805180835260209291819084018484015e5f828201840152601f01601f1916010190565b90601f801991011681019081106001600160401b038211176102bf57604052565b634e487b7160e01b5f52604160045260245ffd5b906040516020810191661ad85b5a4b9a5960ca1b835263ffffffff60e01b9060e01b166027820152600b815261030a602b8261029e565b519020604090610337825161031f848261029e565b60048152634b414d4960e01b6020820152828561168c565b1561139257905b8051637defd0f560e11b81527f2acf3c3c6b18ed6530ed0fd161fd0b65f4febe79d1182824d3263e852d29ca0360048201526001600160a01b03841692905f81602481875afa90811561124e575f91611303575b508051156112cb576024905f906001600160a01b03906103b19061145c565b5116845192838092634a83e9cd60e11b82528660048301525afa90811561124e575f916112b1575b5060209383516103e9868261029e565b5f8152966103f5611422565b928551610402878261029e565b6004815263426f647960e01b8882015261041b8561145c565b526104258461145c565b508551610432878261029e565b600581526421b7b637b960d91b8882015261044c8561147d565b526104568461147d565b508551610463878261029e565b60048152634661636560e01b8882015261047c8561148d565b526104868461148d565b508551610493878261029e565b600481526312185b9960e21b888201526104ac8561149d565b526104b68461149d565b5085516104c3878261029e565b600a815269109858dad9dc9bdd5b9960b21b888201526104e2856114ad565b526104ec846114ad565b506104f5611422565b946105086105016114d1565b828b611a51565b6105118761145c565b5261051b8661145c565b506105276105016114f3565b6105308761147d565b5261053a8661147d565b50610546610501611516565b61054f8761148d565b526105598661148d565b50610565610501611538565b61056e8761149d565b526105788661149d565b5061058461050161155a565b61058d876114ad565b52610597866114ad565b505f995b86518b1015610676578861066e60019282808f61063b60048f8f8f86600d936105d2886105cb849a6030966114bd565b51956114bd565b5190516f3d913a3930b4ba2fba3cb832911d101160811b898201528451909889958291018587015e8401906c111610113b30b63ab2911d101160991b84830152805192839101603d83015e0101630113e96160e51b838201520301601b1981018452018261029e565b8d519584879551918291018487015e8401908282015f8152815193849201905e01015f815203601f19810183528261029e565b9a019961059b565b9298945094509491975061069c61068b6114d1565b610696818787612065565b856120e5565b905f6001600160a01b036106af8661186c565b169260248551809581936304fd7bd960e01b835260048301525afa91821561124e575f92611295575b508251928784017f7b2274726169745f74797065223a2022426f647920416666696e697479222c20815269113b30b63ab2911d101160b11b828601526107456004604a878c885180918a018484015e8101630113e96160e51b838201520301601b1981018852018661029e565b610761610750611538565b61075b818a8a612065565b886120e5565b5f6001600160a01b036107738961186c565b169160248551809481936304fd7bd960e01b835260048301525afa90811561124e576108276108ea93928c925f9161127b575b508551976108136004604a8b878101977f7b2274726169745f74797065223a202248616e6420416666696e697479222c20895269113b30b63ab2911d101160b11b8c8301528651809188018484015e8101630113e96160e51b838201520301601b1981018c52018a61029e565b906020815191012090602081519101201490565b15611258578351610838858261029e565b60048152635055524560e01b8c820152905b8b8551916108b0600460428585808201987f7b2274726169745f74797065223a20224272656564222c202276616c7565223a8a5261101160f11b8d8401528051918291018484015e8101630113e96160e51b838201520301601b1981018652018461029e565b86519889958387019b5180918d5e860190838201905f8252519283915e0101905f8252518092825e015f815203601f19810185528461029e565b8051946108f7898761029e565b5f8652602460806001600160a01b0361091f610919610914611582565b611e06565b85611971565b168451928380926304fd7bd960e01b82528c60048301525afa90811561124e5761098061095d8c94936109b8935f9161122f575b505160030b611ba6565b8551610969878261029e565b6006815265090cac2d8e8d60d31b86820152611bbb565b838551948592818085019c8d815192839201905e8401908282015f8152815193849201905e01015f815203601f19810184528361029e565b602460806001600160a01b036109d261091961091461161e565b168551928380926304fd7bd960e01b82528d60048301525afa90811561122557610a0d610a6492610a2f925f9161122f57505160030b611ba6565b8551642837bbb2b960d91b8e610a23898461029e565b60058352820152611bbb565b978b8086519a8b9382850197518091895e8401908282015f8152815193849201905e01015f815203601f19810189528861029e565b602460806001600160a01b03610a7e610919610914611641565b168551928380926304fd7bd960e01b82528d60048301525afa90811561122557610ab9610b1492610ade925f9161122f57505160030b611ba6565b85516756696f6c656e636560c01b8e610ad2898461029e565b60088352820152611bbb565b928b808651958693828501809d519182915e8401908282015f8152815193849201905e01015f815203601f19810184528361029e565b602460806001600160a01b03610b2e610919610914611667565b168551928380926304fd7bd960e01b82528d60048301525afa908115611225578b979695949392918a915f916111f6575b505160030b610b6d90611ba6565b845190610b7a868361029e565b60078252664861726d6f6e7960c81b8a830152610b9691611bbb565b98888086519b8c9382850197518091895e8401908282015f8152815193849201905e01015f815203601f1981018a52610bcf908a61029e565b610bd891611c50565b86835191610be6858461029e565b600583526413195d995b60da1b82840152610c0090612020565b84516f3d913a3930b4ba2fba3cb832911d101160811b8a820152835190998a94829101603086015e8301906b0111610113b30b63ab2911d160a51b6030830152805192839101603c83015e01603001600c81016103e960f51b905203600c01601d1981018752600201610c73908761029e565b898083519788938285019a5180918c5e8401908282015f8152815193849201905e01015f815203601f1981018652610cab908661029e565b8051637defd0f560e11b81527f4683ab681c8fb08ca17959d67c914890fbdf5a6fce1f72e885b7a2ebe6856afd600482015280808d5a926024915f94fa908115611139575f91611167575b50805115611072575f906001600160a01b0390610d129061145c565b51169760248351809a8193634a83e9cd60e11b835260048301525afa968715611068575f97611143575b5060245f8251610d4c848261029e565b600881528b610d9c60298284019267424153455f55524960c01b845287519384918201956869732e636f6e66696760b81b87525180918484015e810186838201520301601f19810183528261029e565b5190209c835192838092637defd0f560e11b82527fb25ea67b55901db62e4b14311a8c1ab178fec3948b4b493a711970a50aa2a2e160048301525afa908115611139575f916110aa575b508051156110725789906001600160a01b0390610e029061145c565b51169b60248351809e8193634a83e9cd60e11b835260048301525afa96871561106857899a9b5f9a98999a99611037575b508151888101998a52888152610e49838261029e565b51985198888110611024575b5090879291815199828b0183525f8b52601f8b0152838a518b01015f90528151988991818084019c6768747470733a2f2f60c01b8e52805191829101602886015e83019060288201602f60f81b9052805192839101602983015e0160280160018101631733b4b360e11b905203600101601b1981018952600401610ed9908961029e565b51607b60f81b8b8201527f2265787465726e616c5f75726c223a202268747470733a2f2f6b616d69676f74602182015268031b4349734b79116160bd1b604182015268113730b6b2911d101160b91b604a8201528951909a8b9a82910160538c015e6201116160ed1b6053918b01918201526e0113232b9b1b934b83a34b7b7111d1608d1b60568201527f2261206c696c206e6574776f726b20737069726974203a33222c20000000000060658201526e2261747472696275746573223a205b60881b60808201528151929091839101608f83015e0160530190603c8201905f8252519283915e01603c01905f8252518092825e01906202e96160ed1b8252691134b6b0b3b2911d101160b11b6003830152518092600d83015e01601160f91b600d820152600e8101607d60f81b905203600d01601d1981018252600201611021908261029e565b90565b5f1990890360031b1b9098169787610e55565b888199929a503d8311611061575b61104f818361029e565b8101031261027657899651975f610e33565b503d611045565b50513d5f823e3d90fd5b815162461bcd60e51b8152600481018b905260116024820152701a59081b9bdd081c9959da5cdd195c9959607a1b6044820152606490fd5b90503d805f833e6110bb818361029e565b8101908a81830312610276578051906001600160401b03821161027657019080601f830112156102765781516110f08161140b565b926110fd8551948561029e565b8184528c8085019260051b820101928311610276578c809101915b83831061112957505050505f610de6565b82518152918101918d9101611118565b82513d5f823e3d90fd5b6111609197503d805f833e611158818361029e565b81019061139a565b955f610d3c565b90503d805f833e611178818361029e565b8101908a81830312610276578051906001600160401b03821161027657019080601f830112156102765781516111ad8161140b565b926111ba8551948561029e565b8184528c8085019260051b820101928311610276578c809101915b8383106111e657505050505f610cf6565b82518152918101918d91016111d5565b611218915060803d60801161121e575b611210818361029e565b8101906115b4565b5f610b5f565b503d611206565b84513d5f823e3d90fd5b611248915060803d60801161121e57611210818361029e565b5f610953565b83513d5f823e3d90fd5b8351611264858261029e565b6005815264135256115160da1b8c8201529061084a565b61128f91503d805f833e611158818361029e565b5f6107a6565b6112aa9192503d805f833e611158818361029e565b905f6106d8565b6112c591503d805f833e611158818361029e565b5f6103d9565b825162461bcd60e51b81526020600482015260116024820152701a59081b9bdd081c9959da5cdd195c9959607a1b6044820152606490fd5b90503d805f833e611314818361029e565b810190602081830312610276578051906001600160401b03821161027657019080601f8301121561027657815161134a8161140b565b926113578651948561029e565b81845260208085019260051b82010192831161027657602001905b828210611382575050505f610392565b8151815260209182019101611372565b505f9061033e565b602081830312610276578051906001600160401b038211610276570181601f82011215610276578051906001600160401b0382116102bf57604051926113ea601f8401601f19166020018561029e565b8284526020838301011161027657815f9260208093018386015e8301015290565b6001600160401b0381116102bf5760051b60200190565b60405160c09190611433838261029e565b6005815291601f1901825f5b82811061144b57505050565b80606060208093850101520161143f565b8051156114695760200190565b634e487b7160e01b5f52603260045260245ffd5b8051600110156114695760400190565b8051600210156114695760600190565b8051600310156114695760800190565b8051600410156114695760a00190565b80518210156114695760209160051b010190565b604051906114e060408361029e565b6004825263424f445960e01b6020830152565b6040519061150260408361029e565b600582526421a7a627a960d91b6020830152565b6040519061152560408361029e565b60048252634641434560e01b6020830152565b6040519061154760408361029e565b60048252631210539160e21b6020830152565b6040519061156960408361029e565b600a825269109050d2d1d493d5539160b21b6020830152565b6040519061159160408361029e565b60068252650908a8298a8960d31b6020830152565b51908160030b820361027657565b908160809103126102765760405190608082018281106001600160401b038211176102bf57611616916060916040526115ec816115a6565b84526115fa602082016115a6565b602085015261160b604082016115a6565b6040850152016115a6565b606082015290565b6040519061162d60408361029e565b60058252642827aba2a960d91b6020830152565b6040519061165060408361029e565b600882526756494f4c454e434560c01b6020830152565b6040519061167660408361029e565b60078252664841524d4f4e5960c81b6020830152565b604051637defd0f560e11b81527f5d88ced8d8e079072bf73f49fc87661b519c50d79482941abb852ba2b10909cd6004820152905f90829060249082906001600160a01b03165afa908115611798575f916117dc575b508051156117a35761175a9260209261172392611731906001600160a01b039061170b9061145c565b5116926040519485918780840152604083019061027a565b03601f19810185528461029e565b60405180958194829363d2f27dcd60e01b8452600484015260406024840152604483019061027a565b03915afa908115611798575f9161176f575090565b611021915060203d602011611791575b611789818361029e565b810190611c38565b503d61177f565b6040513d5f823e3d90fd5b60405162461bcd60e51b81526020600482015260116024820152701a59081b9bdd081c9959da5cdd195c9959607a1b6044820152606490fd5b90503d805f833e6117ed818361029e565b810190602081830312610276578051906001600160401b03821161027657019080601f830112156102765781516118238161140b565b92611831604051948561029e565b81845260208085019260051b82010192831161027657602001905b82821061185c575050505f6116e2565b815181526020918201910161184c565b604051637defd0f560e11b81527ff3e296372a5e5be810386b4a0416d479397a474fb9d4f37f1eed4c72bf11af6d6004820152905f90829060249082906001600160a01b03165afa908115611798575f916118e1575b508051156117a3576001600160a01b03906118dc9061145c565b511690565b90503d805f833e6118f2818361029e565b810190602081830312610276578051906001600160401b03821161027657019080601f830112156102765781516119288161140b565b92611936604051948561029e565b81845260208085019260051b82010192831161027657602001905b828210611961575050505f6118c2565b8151815260209182019101611951565b604051637defd0f560e11b815260048101929092525f90829060249082906001600160a01b03165afa908115611798575f916119c157508051156117a3576001600160a01b03906118dc9061145c565b90503d805f833e6119d2818361029e565b810190602081830312610276578051906001600160401b03821161027657019080601f83011215610276578151611a088161140b565b92611a16604051948561029e565b81845260208085019260051b82010192831161027657602001905b828210611a41575050505f6118c2565b8151815260209182019101611a31565b91611a64816106965f9360249587612065565b604051637defd0f560e11b81527f2acf3c3c6b18ed6530ed0fd161fd0b65f4febe79d1182824d3263e852d29ca03600482015290939092839182906001600160a01b03165afa908115611798575f91611b16575b508051156117a3575f906001600160a01b0390611ad49061145c565b511691602460405180948193634a83e9cd60e11b835260048301525afa908115611798575f91611b02575090565b61102191503d805f833e611158818361029e565b90503d805f833e611b27818361029e565b810190602081830312610276578051906001600160401b03821161027657019080601f83011215610276578151611b5d8161140b565b92611b6b604051948561029e565b81845260208085019260051b82010192831161027657602001905b828210611b96575050505f611ab8565b8151815260209182019101611b86565b5f811215611021576335278d125f526004601cfd5b6003600c6110219260306020611bd18197612020565b6040516f3d913a3930b4ba2fba3cb832911d101160811b898201528451909889958291018587015e8401906b0111610113b30b63ab2911d160a51b84830152805192839101603c83015e01016203e96160ed1b838201520301601c1981018452018261029e565b90816020910312610276575180151581036102765790565b604051637defd0f560e11b81527ff8911dfd3f908e7a27ff20b80381dc7334f6abc557cdd58de4a9bfb47ebde7346004820152905f90829060249082906001600160a01b03165afa908115611798575f91611d76575b508051156117a3576001600160a01b0390611cc09061145c565b511690604051636667bd4760e11b8152816004820152602081602481865afa908115611798575f91611d57575b5015611d5057602090602460405180948193634a83e9cd60e11b835260048301525afa908115611798575f91611d21575090565b90506020813d602011611d48575b81611d3c6020938361029e565b81010312610276575190565b3d9150611d2f565b5050600190565b611d70915060203d60201161179157611789818361029e565b5f611ced565b90503d805f833e611d87818361029e565b810190602081830312610276578051906001600160401b03821161027657019080601f83011215610276578151611dbd8161140b565b92611dcb604051948561029e565b81845260208085019260051b82010192831161027657602001905b828210611df6575050505f611ca6565b8151815260209182019101611de6565b611e26611e11611582565b82906020815191012090602081519101201490565b611ffb57611e35611e1161161e565b611fd657611e44611e11611667565b611fb157611e53611e11611641565b611f8c57604090611ea78251611e69848261029e565b6005815264534c4f545360d81b6020918201528251908301207f3b985d08128ef7b25e693a611fb5ae6f2d2b2974adbec7deb83c4f95c2562e6b1490565b611f66578151611efa91611ebb848361029e565b60078252665354414d494e4160c81b60209283015280519101207fd5a7979ffc063a968e739c62c537ad288115ff53fe26bed1217a11adff77b4831490565b611f41575162461bcd60e51b815260206004820152601a60248201527f4c6962537461743a20696e76616c6964207374617420747970650000000000006044820152606490fd5b507f1229189cff138f94363a6274f6ec5003a4a6372db248c6985d3b3301024eb8ec90565b50507f3e4a46df40b228c2d9f3b8ddde72a1c29045de822f058698341c5adb1d02f17d90565b507f9d3e17e61f5f07f24e173edb93a8af1d5b797396ea02343c0feee16bdf497d4f90565b507f5b5054d7f0fe411d96cb1c9605f65b42805d28ce5bb4ce216455e888cdc5373c90565b507f036642765aca64d0dc0aa7a1a5b293901589aec219fb89c7c5e7c042e927386c90565b507f7f11100822994501b15df98b1bd24b3eb0d73863f512da0bf8f165b0150c537d90565b90604051600a608082019360a083016040525f8552935b5f19019360308282060185530492831561205357600a90612037565b809350608091030191601f1901918252565b90916020916001600160a01b039161207c9161222b565b1691602460405180948193634a83e9cd60e11b835260048301525afa908115611798575f916120a9575090565b90506020813d6020116120dd575b816120c46020938361029e565b81010312610276575163ffffffff811681036102765790565b3d91506120b7565b916120f1611e1161155a565b801561221a575b8015612209575b80156121f8575b80156121e7575b156121a2576121959161216a6004602e60405180946020808301976d1c9959da5cdd1c9e4b9d1c985a5d60921b89528051918291018585015e82019063ffffffff60e01b9060e01b16838201520301601b1981018452018261029e565b51902091826040519161217e60408461029e565b6005835264151490525560da1b602084015261168c565b1561219d5790565b505f90565b60405162461bcd60e51b815260206004820152601e60248201527f4c6962547261697452656769737472793a20756e6b6e6f776e207479706500006044820152606490fd5b506121f3611e11611538565b61210d565b50612204611e11611516565b612106565b50612215611e116114f3565b6120ff565b50612226611e116114d1565b6120f8565b90612237611e1161155a565b1561233c5750604051637defd0f560e11b81527f7e27420aa87c5cbb18c784ab6d5674344bec224f17946d4670418a9ad61a8fa56004820152905f90829060249082906001600160a01b03165afa908115611798575f916122ac57508051156117a3576001600160a01b03906118dc9061145c565b90503d805f833e6122bd818361029e565b810190602081830312610276578051906001600160401b03821161027657019080601f830112156102765781516122f38161140b565b92612301604051948561029e565b81845260208085019260051b82010192831161027657602001905b82821061232c575050505f6118c2565b815181526020918201910161231c565b612347611e116114d1565b1561244c5750604051637defd0f560e11b81527fb67326ca4d9276389479ad92732df89fdb51a6722bcc762224a361d37e6a44cf6004820152905f90829060249082906001600160a01b03165afa908115611798575f916123bc57508051156117a3576001600160a01b03906118dc9061145c565b90503d805f833e6123cd818361029e565b810190602081830312610276578051906001600160401b03821161027657019080601f830112156102765781516124038161140b565b92612411604051948561029e565b81845260208085019260051b82010192831161027657602001905b82821061243c575050505f6118c2565b815181526020918201910161242c565b612457611e116114f3565b1561255c5750604051637defd0f560e11b81527f9ec7fdb312cfd917b9499405d9619afea82cbe7bc994a6d9b97aa4a29d95cba46004820152905f90829060249082906001600160a01b03165afa908115611798575f916124cc57508051156117a3576001600160a01b03906118dc9061145c565b90503d805f833e6124dd818361029e565b810190602081830312610276578051906001600160401b03821161027657019080601f830112156102765781516125138161140b565b92612521604051948561029e565b81845260208085019260051b82010192831161027657602001905b82821061254c575050505f6118c2565b815181526020918201910161253c565b612567611e11611516565b1561266c5750604051637defd0f560e11b81527f3bcf9f91d55a1da72cd97d60b22f351bd7b605705fcb526dbf324094ea34be3c6004820152905f90829060249082906001600160a01b03165afa908115611798575f916125dc57508051156117a3576001600160a01b03906118dc9061145c565b90503d805f833e6125ed818361029e565b810190602081830312610276578051906001600160401b03821161027657019080601f830112156102765781516126238161140b565b92612631604051948561029e565b81845260208085019260051b82010192831161027657602001905b82821061265c575050505f6118c2565b815181526020918201910161264c565b61268b90612678611538565b6020815191012090602081519101201490565b156121a257604051637defd0f560e11b81527ffc3224e0c88a32d827dec77db300ba465decc407b22c4ff1e3dd50db23a15bb66004820152905f90829060249082906001600160a01b03165afa908115611798575f916126ff57508051156117a3576001600160a01b03906118dc9061145c565b90503d805f833e612710818361029e565b810190602081830312610276578051906001600160401b03821161027657019080601f830112156102765781516127468161140b565b92612754604051948561029e565b81845260208085019260051b82010192831161027657602001905b82821061277f575050505f6118c2565b815181526020918201910161276f56fea264697066735822122061b722b1417054952cf540331d144ed51f3c2fc57131e4a6aa016fb404d52e1464736f6c634300081e0033",
    "sourcePath": "/Users/alear/Documents/GitHub/kamigotchi/packages/contracts/src/libraries/LibKami721.sol",
    "compiler": {
        "name": "solc",
        "version": "0.8.30+commit.73712a01"
    },
    "functionHashes": {
        "getJsonBase64(IUint256Component,uint32)": "353440a5",
        "getJsonUtf(IUint256Component,uint32)": "ff0b3753"
    },
    "gasEstimates": {
        "creation": {
            "codeDepositCost": "2036200",
            "executionCost": "infinite",
            "totalCost": "infinite"
        },
        "external": {
            "getJsonBase64(IUint256Component,uint32)": "infinite",
            "getJsonUtf(IUint256Component,uint32)": "infinite"
        },
        "internal": {
            "_getAffinities(contract IUint256Component,uint256)": "infinite",
            "_getBaseTraits(contract IUint256Component,uint256)": "infinite",
            "_getStats(contract IUint256Component,uint256)": "infinite",
            "_traitToString(string memory,string memory,bool)": "infinite",
            "_traitToString(string memory,uint256,bool)": "infinite",
            "getContract(contract IUint256Component)": "infinite",
            "getEOAOwner(contract IUint256Component,uint256)": "infinite",
            "getMediaURI(contract IUint256Component,uint256)": "infinite",
            "getName(contract IUint256Component,uint256)": "infinite",
            "stake(contract IUint256Component,address,uint256)": "infinite",
            "unstake(contract IUint256Component,address,uint256)": "infinite",
            "updateEvent(contract IUint256Component,uint256)": "infinite"
        }
    }
}